{
	"data": {
		"bytecode": {
			"linkReferences": {},
			"object": "608034620000f557601f6200376d38819003918201601f19168301916001600160401b03831184841017620000fa57808492608094604052833981010312620000f5576200004d8162000110565b906200005c6020820162000110565b91620000796060620000716040850162000110565b930162000110565b906000600e5560018060a01b039283808093169560018060a01b031996808860005416176000558760015416176001551680866002541617600255856003541617600355168084600454161760045583600554161760055516908181600654161760065560075416176007556040516136479081620001268239f35b600080fd5b634e487b7160e01b600052604160045260246000fd5b51906001600160a01b0382168203620000f55756fe6080604052600436101561001257600080fd5b6000803560e01c80630166a6dc14611fb35780631401096e14611e735780631814b59114611c2c5780631b9a87ee14611c03578063206a509214611b6657806325ab292e14611b495780632b6b2004146116e85780634e9a1efa146113d4578063656844a5146112935780636bda43f714610eb6578063747abf4914610e9857806383f713d214610ce65780639874e75b14610a96578063a871317f146109fa578063b1fdacb2146105fa578063c08d1fe5146105dd578063ddf4ddc71461048d578063e6864fe514610466578063ead6512714610158578063ed929ca51461012f5763fb41503c1461010457600080fd5b3461012c578060031936011261012c576002546040516001600160a01b039091168152602090f35b80fd5b503461012c578060031936011261012c576006546040516001600160a01b039091168152602090f35b503461012c578060031936011261012c576007546001600160a01b039082908216803b1561046257816024916040519283809263423164bf60e11b82523360048301525afa801561040c5761044e575b5050602060249160035416604051928380926318fe01c760e21b82523360048301525afa90811561040c578291610417575b50338252600860205260408220548083526009602052610205600160ff604086205416151514612902565b808352600b6020526102bf604084209260405193610222856127a7565b600d81549182875260018101546020880152600281015460408801526003810154606088015260ff60048201541615156080880152600581015460a088015260ff600682015416151560c0880152600781015460e088015260088101546101008801526009810154610120880152600a810154610140880152600b810154610160880152600c81015461018088015201546101a086015214612936565b6102ce606083015115156135a9565b6102dc60a0830151156135dd565b6102f661012c6102f0606085015142612a04565b11612a93565b828080806103e83382f11561040c576103e86101408301524261016083015282610180830152426101a08301528252600b602052600d6101a060408420928051845560208101516001850155604081015160028501556060810151600385015561037560808201511515600486019060ff801983541691151516179055565b60a0810151600585015561039e60c08201511515600686019060ff801983541691151516179055565b60e0810151600785015561010081015160088501556101208101516009850155610140810151600a850155610160810151600b850155610180810151600c850155015191015560096020526040812060ff1990818154169055600a6020526001604083209182541617905580f35b6040513d84823e3d90fd5b90506020813d602011610446575b81610432602093836127de565b810103126104415751386101da565b600080fd5b3d9150610425565b6104579061277e565b6104625781386101a8565b5080fd5b503461012c578060031936011261012c57546040516001600160a01b039091168152602090f35b503461012c578060031936011261012c576007546001600160a01b039082908216803b1561046257816024916040519283809263423164bf60e11b82523360048301525afa801561040c576105c9575b5050602060249160035416604051928380926318fe01c760e21b82523360048301525afa90811561040c578291610597575b5033825260086020526040822054808352600960205261053a600160ff604086205416151514612902565b808352600b602052610557604084209260405193610222856127a7565b61056660e08301511515612968565b61057460c083015115612e69565b61058361010083015115612e9d565b6102f661012c6102f060e085015142612a04565b90506020813d6020116105c1575b816105b2602093836127de565b8101031261044157513861050f565b3d91506105a5565b6105d29061277e565b6104625781386104dd565b503461012c578060031936011261012c57602060405161012c8152f35b503461012c576106093661289d565b60015460405163f0abda5d60e01b815284916001600160a01b0391906020908290600490829086165afa80156109ef57829184916109c0575b5016330361046257806007541693843b156109625760405163423164bf60e11b815281831660048201528381602481895afa8015610966576109ac575b5060249460208360035416604051978880926318fe01c760e21b825287871660048301525afa958615610966578496610975575b50803b156109715783602491604051928380926308788eb160e21b82528a60048301525afa90811561096657849161094e575b5050818116835260086020526040832054938484526009602052610715600160ff604087205416151514612902565b848452600b6020526107cf604085209660405197610732896127a7565b600d815491828b52600181015460208c0152600281015460408c0152600381015460608c015260ff600482015416151560808c0152600581015460a08c015260ff600682015416151560c08c0152600781015460e08c015260088101546101008c015260098101546101208c0152600a8101546101408c0152600b8101546101608c0152600c8101546101808c015201546101a08a015214612936565b6107de606087015115156135a9565b6107ec60a0870151156135dd565b61080761012c610800606089015142612a04565b1115612a27565b15801560808701524260a08701526108df575b505052600b602052600d6101a060408420928051845560208101516001850155604081015160028501556060810151600385015561086d60808201511515600486019060ff801983541691151516179055565b60a0810151600585015561089660c08201511515600686019060ff801983541691151516179055565b60e0810151600785015561010081015160088501556101208101516009850155610140810151600a850155610160810151600b850155610180810151600c850155015191015580f35b83835260096020526040832060ff1990818154169055600a60205260016040852091825416179055828080806101f43382f11561040c57826101f4819382931682f11561040c576101f46101408301526101f461018083015242610160830152426101a083015282388061081a565b6109579061277e565b6109625782386106e6565b8280fd5b6040513d86823e3d90fd5b8380fd5b935094506020833d6020116109a4575b81610992602093836127de565b810103126104415785925194386106b3565b3d9150610985565b6109b6849161277e565b610962573861067f565b6109e2915060203d6020116109e8575b6109da81836127de565b8101906128e3565b38610642565b503d6109d0565b6040513d85823e3d90fd5b503461012c57604036600319011261012c57610a14612768565b906024356001600160401b038111610462573660238201121561046257806004013592610a40846128cc565b91610a4e60405193846127de565b8483526020946024602085019160051b83010191368311610a9257602401905b828210610a835785610a808686612ed1565b80f35b81358152908601908601610a6e565b8580fd5b503461012c57602036600319011261012c57610ab0612768565b60015460405163f0abda5d60e01b81526001600160a01b03916020908290600490829086165afa80156109665782918591610cc7575b501633036109625782816007541692833b156104625781839160246040518094819363423164bf60e11b835216978860048301525afa801561040c57610cb3575b505060209060035416916024604051809481936318fe01c760e21b835260048301525afa90811561040c578291610c81575b50338252600860205260408220548083526009602052610b84600160ff604086205416151514612902565b808352600b602052610ba1604084209260405193610222856127a7565b610bb060408301511515612d99565b610bbe606083015115612dcd565b61012c610bcf604084015142612a04565b1115610c5457828080806103e83382f11561040c576103e8610180830152426101a083015282610140830152426101608301528252600b602052600d6101a060408420928051845560208101516001850155604081015160028501556060810151600385015561037560808201511515600486019060ff801983541691151516179055565b60405162461bcd60e51b8152602060048201526005602482015264525231313760d81b6044820152606490fd5b90506020813d602011610cab575b81610c9c602093836127de565b81010312610441575138610b59565b3d9150610c8f565b610cbc9061277e565b610962578238610b27565b610ce0915060203d6020116109e8576109da81836127de565b38610ae6565b503461012c578060031936011261012c576007546001600160a01b039082908216803b1561046257816024916040519283809263423164bf60e11b82523360048301525afa801561040c57610e84575b5050602060249160035416604051928380926318fe01c760e21b82523360048301525afa90811561040c578291610e52575b50338252600860205260408220548083526009602052610d93600160ff604086205416151514612902565b808352600b602052610db0604084209260405193610222856127a7565b610dbf60208301511515612af9565b610dcd604083015115612b2d565b610de161012c6102f0602085015142612a04565b828080806101f43382f11561040c576101f4610140830152426101608301528252600b602052600d6101a060408420928051845560208101516001850155604081015160028501556060810151600385015561037560808201511515600486019060ff801983541691151516179055565b90506020813d602011610e7c575b81610e6d602093836127de565b81010312610441575138610d68565b3d9150610e60565b610e8d9061277e565b610462578138610d36565b503461012c578060031936011261012c576020600e54604051908152f35b508060031936011261012c576007546001600160a01b03908116803b15610962576040519063423164bf60e11b82523360048301526024928480848681865afa93841561122e57859461127a575b505060208160035416604051948580926318fe01c760e21b82523360048301525afa92831561126f57859361123b575b5084823b1561012c57808593604051948580926308788eb160e21b82528860048301525afa92831561122e578593611215575b505060409060055416815192838092631e3fbaf360e01b82523360048301525afa801561096657610fa09185916111e4575b5015612c30565b338352600860205260408320548352600960205260ff6040842054166111ba57610fcd6101f43414612ac7565b600e546001810181116111a75760018101600e553384526008602052600181016040852055600181018452600b60205260016040852091600d60405193611013856127a7565b600281015460408601526003810154606086015260ff60048201541615156080860152600581015460a086015260ff600682015416151560c0860152600781015460e086015260088101546101008601526009810154610120860152600a810154610140860152600b810154610160860152600c81015461018086015201546101a0840152838352426020840152018452600b602052600d6101a06040862092805184556020810151600185015560408101516002850155606081015160038501556110f460808201511515600486019060ff801983541691151516179055565b60a0810151600585015561111d60c08201511515600686019060ff801983541691151516179055565b60e0810151600785015561010081015160088501556101208101516009850155610140810151600a850155610160810151600b850155610180810151600c8501550151910155600960205260408320600160ff198254161790558252600c602052604082208054916001830180931161119557505580f35b634e487b7160e01b8452601160045283fd5b634e487b7160e01b845260116004528284fd5b60648260046040519162461bcd60e51b8352602082840152820152635252393960e01b6044820152fd5b611206915060403d60401161120e575b6111fe81836127de565b810190612c13565b905038610f99565b503d6111f4565b6112219192935061277e565b6109715782908438610f67565b50604051903d90823e3d90fd5b9092506020813d602011611267575b81611257602093836127de565b8101031261044157519138610f34565b3d915061124a565b6040513d87823e3d90fd5b6112869192945061277e565b6109715782918438610f04565b503461012c578060031936011261012c576007546001600160a01b039082908216803b1561046257816024916040519283809263423164bf60e11b82523360048301525afa801561040c576113c0575b5050602060249160035416604051928380926318fe01c760e21b82523360048301525afa90811561040c57829161138e575b50338252600860205260408220548083526009602052611340600160ff604086205416151514612902565b808352600b60205261135d604084209260405193610222856127a7565b61136c60a08301511515612e01565b61137a60e083015115612e35565b6102f661012c6102f060a085015142612a04565b90506020813d6020116113b8575b816113a9602093836127de565b81010312610441575138611315565b3d915061139c565b6113c99061277e565b6104625781386112e3565b503461012c576113e33661289d565b60015460405163f0abda5d60e01b81526001600160a01b0393916020908290600490829088165afa801561126f57849186916116c9575b5016330361097157838360075416803b156104625760405163423164bf60e11b815292851660048401819052928281602481855afa80156109ef576116b5575b50602060249560035416604051968780926318fe01c760e21b82528760048301525afa94851561040c57829561167e575b50803b156104625781602491604051928380926308788eb160e21b82528960048301525afa801561040c5761166a575b5052600860205260408320549081845260096020526114e5600160ff604087205416151514612902565b818452600b60205261159f604085209360405194611502866127a7565b600d81549182885260018101546020890152600281015460408901526003810154606089015260ff60048201541615156080890152600581015460a089015260ff600682015416151560c0890152600781015460e089015260088101546101008901526009810154610120890152600a810154610140890152600b810154610160890152600c81015461018089015201546101a087015214612936565b6115ae60a08401511515612e01565b6001608084015115150361163d576115ca60e084015115612e35565b6115de61012c61080060a086015142612a04565b151560c08301524260e08301528252600b602052600d6101a060408420928051845560208101516001850155604081015160028501556060810151600385015561086d60808201511515600486019060ff801983541691151516179055565b60405162461bcd60e51b8152602060048201526005602482015264525231313160d81b6044820152606490fd5b6116739061277e565b6109715783386114bb565b915093506020813d6020116116ad575b8161169b602093836127de565b8101031261044157849051933861148b565b3d915061168e565b6116bf839161277e565b610462573861145a565b6116e2915060203d6020116109e8576109da81836127de565b3861141a565b503461012c57604036600319011261012c576004356001600160401b038111610462576117199036906004016127ff565b6007546001600160a01b0316803b156109625760405163423164bf60e11b815233600482015283908181602481865afa801561040c57611b35575b50506003546040516318fe01c760e21b81523360048201529290602090849060249082906001600160a01b03165afa928315610966578493611b01575b50813b1561097157836040516308788eb160e21b81528460048201528181602481875afa801561040c57611aed575b5050338452600860205260408420549182855260096020526117ed600160ff604088205416151514612902565b828552600b6020526118a760408620946040519561180a876127a7565b600d815491828952600181015460208a0152600281015460408a0152600381015460608a015260ff600482015416151560808a0152600581015460a08a015260ff600682015416151560c08a0152600781015460e08a015260088101546101008a015260098101546101208a0152600a8101546101408a0152600b8101546101608a0152600c8101546101808a015201546101a088015214612936565b60055460408051631e3fbaf360e01b81523360048201526001600160a01b039092169391879181602481885afa801561040c5782918391611ac8575b506118ee9015612c30565b6024604051809681936360785d7b60e11b835260048301525afa928315611abd5786908794611a7e575b5060243503611a515760405161194b6020828161193e8183019687815193849201612855565b81010380845201826127de565b519020918203611a24578491813b15610962578290602460405180948193634ef630a160e11b835260048301525afa801561040c57611a10575b505061199660408301511515612d99565b6119a4606083015115612dcd565b6119b861012c610800604085015142612a04565b4260608301528252600b602052600d6101a060408420928051845560208101516001850155604081015160028501556060810151600385015561086d60808201511515600486019060ff801983541691151516179055565b611a199061277e565b610962578238611985565b60405162461bcd60e51b8152602060048201526005602482015264525231303560d81b6044820152606490fd5b60405162461bcd60e51b815260206004820152600560248201526414948c4c0d60da1b6044820152606490fd5b9050611a9d9193503d8088833e611a9581836127de565b810190612c62565b50505050505050505050505050509b995050505094505050505038611918565b6040513d88823e3d90fd5b6118ee9250611ae6915060403d60401161120e576111fe81836127de565b90916118e3565b611af69061277e565b6109715783386117c0565b9092506020813d602011611b2d575b81611b1d602093836127de565b8101031261044157519138611791565b3d9150611b10565b611b3e9061277e565b610962578238611754565b503461012c578060031936011261012c5760206040516101f48152f35b503461012c57602036600319011261012c576040906004358152600d60205220604051611b92816127c3565b81548152611ba260018301612b61565b9060208101918252611bf96003611bbb60028601612b61565b9485604085015201549182606082015251925193611beb6040519586958652608060208701526080860190612878565b908482036040860152612878565b9060608301520390f35b503461012c578060031936011261012c576004546040516001600160a01b039091168152602090f35b50602036600319011261012c57611c41612768565b60015460405163f0abda5d60e01b81526001600160a01b0392916020908290600490829087165afa80156109665783918591611e54575b5016330361096257828260075416803b156104625760405163423164bf60e11b815292841660048401819052928281602481855afa80156109ef57611e40575b50602060249460035416604051958680926318fe01c760e21b82528760048301525afa93841561040c578294611e09575b50803b156104625781602491604051928380926308788eb160e21b82528860048301525afa801561040c57611df5575b5052600860205260408220548083526009602052611d42600160ff604086205416151514612902565b808352600b602052611d5f604084209260405193610222856127a7565b611d6c6101f43414612ac7565b611d7b60208301511515612af9565b611d8f61012c610800602085015142612a04565b611d9d604083015115612b2d565b4260408301528252600b602052600d6101a060408420928051845560208101516001850155604081015160028501556060810151600385015561086d60808201511515600486019060ff801983541691151516179055565b611dfe9061277e565b610962578238611d19565b915092506020813d602011611e38575b81611e26602093836127de565b81010312610441578390519238611ce9565b3d9150611e19565b611e4a839161277e565b6104625738611cb8565b611e6d915060203d6020116109e8576109da81836127de565b38611c78565b503461012c578060031936011261012c576007546001600160a01b039082908216803b1561046257816024916040519283809263423164bf60e11b82523360048301525afa801561040c57611f9f575b5050602060249160035416604051928380926318fe01c760e21b82523360048301525afa90811561040c578291611f6d575b50338252600860205260408220548083526009602052611f20600160ff604086205416151514612902565b808352600b602052611f3d604084209260405193610222856127a7565b611f4c60e08301511515612968565b611f5e600160c084015115151461299c565b610583610120830151156129d0565b90506020813d602011611f97575b81611f88602093836127de565b81010312610441575138611ef5565b3d9150611f7b565b611fa89061277e565b610462578138611ec3565b503461012c57608036600319011261012c57611fcd612768565b906044356001600160401b03811161046257611fed9036906004016127ff565b6064356001600160401b0381116109625761200c9036906004016127ff565b60015460405163f0abda5d60e01b815291929190602090829060049082906001600160a01b03165afa908115610966578491612749575b506001600160a01b03163303610962576007546001600160a01b031693843b156109715760405163423164bf60e11b81526001600160a01b0382166004820152948486602481845afa95861561126f57602496612736575b506003546040516318fe01c760e21b81526001600160a01b038481166004830152909760209289928391165afa95861561126f578596612702575b50803b156125445784602491604051928380926308788eb160e21b82528a60048301525afa801561126f579085916126ee575b505060018060a01b03811684526008602052604084205491828552600960205261213e600160ff604088205416151514612902565b828552600b60205260408520936121f9876040519661215c886127a7565b600d815491828a52600181015460208b0152600281015460408b0152600381015460608b015260ff600482015416151560808b0152600581015460a08b015260ff600682015416151560c08b0152600781015460e08b015260088101546101008b015260098101546101208b0152600a8101546101408b0152600b8101546101608b0152600c8101546101808b015201546101a089015214612936565b61220860e08601511515612968565b61221a600160c087015115151461299c565b612229610120860151156129d0565b61223d61012c61080060e088015142612a04565b6040519661224a886127c3565b6024358852602088018381528260408a01524260608a0152818852600d602052604088209089518255518051906001600160401b03821161260f5781906122946001850154612a59565b601f811161269d575b50602090601f831160011461262e578b92612623575b50508160011b916000199060031b1c19161760018201555b60408901519889516001600160401b03811161260f576122ee6002840154612a59565b9a601f8c116125c7575b8a809c509798999a50602090601f8311600114612553579180600394926060948b92612548575b50508160011b9160001990861b1c19161760028501555b01519101556003546001600160a01b0316803b15612544578492836123829361239c604051978896879586946309be686360e21b8652600486015260a0602486015260a4850190612878565b602435604485015283810360031901606485015290612878565b42608483015203925af1801561040c57612530575b506101f49181808080863382f11561122e5781808080866001600160a01b03861682f11561122e576005546001600160a01b031690813b1561096257604051631bea9c5d60e11b81526001600160a01b0390911660048201529082908290602490829084905af1801561040c5761251c575b505080610180840152610140830152426101a083015242610160830152426101208301528252600b602052600d6101a060408420928051845560208101516001850155604081015160028501556060810151600385015561249960808201511515600486019060ff801983541691151516179055565b60a081015160058501556124c260c08201511515600686019060ff801983541691151516179055565b60e0810151600785015561010081015160088501556101208101516009850155610140810151600a850155610160810151600b850155610180810151600c850155015191015560096020526040812060ff19815416905580f35b6125259061277e565b610971578338612423565b6125399061277e565b6109715783386123b1565b8480fd5b01519050388061231f565b906002850189526020892091895b601f19851681106125ac5750926003949260019260609583601f19811610612594575b505050811b016002850155612336565b015160001983881b60f8161c19169055388080612584565b8183015184558e9a5060019093019260209283019201612561565b600284018b5260208b20601f830160051c810160208410612608575b601f8e5b0160051c820181106125fa5750506122f8565b8c8155600101601f8e6125e7565b50806125e3565b634e487b7160e01b8a52604160045260248afd5b0151905038806122b3565b9250600184018b5260208b20908b935b601f1984168510612682576001945083601f19811610612669575b505050811b0160018201556122cb565b015160001960f88460031b161c19169055388080612659565b8181015183556020948501946001909301929091019061263e565b909150600184018b5260208b20601f840160051c8101602085106126e7575b90849392915b8d601f840160051c830182106126da5750505061229d565b81558594506001016126c2565b50806126bc565b6126f79061277e565b610971578338612109565b9095506020813d60201161272e575b8161271e602093836127de565b81010312610441575194386120d6565b3d9150612711565b6127429095919561277e565b933861209b565b612762915060203d6020116109e8576109da81836127de565b38612043565b600435906001600160a01b038216820361044157565b6001600160401b03811161279157604052565b634e487b7160e01b600052604160045260246000fd5b6101c081019081106001600160401b0382111761279157604052565b608081019081106001600160401b0382111761279157604052565b90601f801991011681019081106001600160401b0382111761279157604052565b81601f82011215610441578035906001600160401b0382116127915760405192612833601f8401601f1916602001856127de565b8284526020838301011161044157816000926020809301838601378301015290565b60005b8381106128685750506000910152565b8181015183820152602001612858565b9060209161289181518092818552858086019101612855565b601f01601f1916010190565b6040906003190112610441576004356001600160a01b0381168103610441579060243580151581036104415790565b6001600160401b0381116127915760051b60200190565b9081602091031261044157516001600160a01b03811681036104415790565b1561290957565b60405162461bcd60e51b8152602060048201526005602482015264052523130360dc1b6044820152606490fd5b1561293d57565b606460405162461bcd60e51b81526020600482015260046024820152632929199b60e11b6044820152fd5b1561296f57565b60405162461bcd60e51b8152602060048201526005602482015264525231313360d81b6044820152606490fd5b156129a357565b60405162461bcd60e51b815260206004820152600560248201526414948c4c4d60da1b6044820152606490fd5b156129d757565b60405162461bcd60e51b8152602060048201526005602482015264525231313560d81b6044820152606490fd5b91908203918211612a1157565b634e487b7160e01b600052601160045260246000fd5b15612a2e57565b60405162461bcd60e51b81526020600482015260036024820152620a4a4760eb1b6044820152606490fd5b90600182811c92168015612a89575b6020831014612a7357565b634e487b7160e01b600052602260045260246000fd5b91607f1691612a68565b15612a9a57565b60405162461bcd60e51b8152602060048201526005602482015264292918989b60d91b6044820152606490fd5b15612ace57565b606460405162461bcd60e51b81526020600482015260046024820152630a4a466760e31b6044820152fd5b15612b0057565b60405162461bcd60e51b8152602060048201526005602482015264525231303160d81b6044820152606490fd5b15612b3457565b60405162461bcd60e51b8152602060048201526005602482015264292918981960d91b6044820152606490fd5b90604051918260008254612b7481612a59565b90818452602094600191600181169081600014612be45750600114612ba5575b505050612ba3925003836127de565b565b600090815285812095935091905b818310612bcc575050612ba39350820101388080612b94565b85548884018501529485019487945091830191612bb3565b92505050612ba394925060ff191682840152151560051b820101388080612b94565b5190811515820361044157565b919082604091031261044157612c2d602083519301612c06565b90565b15612c3757565b606460405162461bcd60e51b81526020600482015260046024820152635252333360e01b6044820152fd5b906103208282031261044157815192602090818401519360408101519360608201519360808301519360a08401519360c08101519360e082015193612caa6101008401612c06565b93610120840151936101408101519361016082015193612ccd6101808401612c06565b936101a084015193612ce26101c08201612c06565b936101e0820151936102008301516001600160401b0381116104415783019180601f84011215610441578251612d17816128cc565b93612d2560405195866127de565b818552838086019260051b820101928311610441578301905b828210612d8a5750505050916102208201519161024081015191612d656102608301612c06565b91610280810151916102a0820151916102c0810151916103006102e083015192015190565b81518152908301908301612d3e565b15612da057565b60405162461bcd60e51b8152602060048201526005602482015264292918981b60d91b6044820152606490fd5b15612dd457565b60405162461bcd60e51b8152602060048201526005602482015264525231303760d81b6044820152606490fd5b15612e0857565b60405162461bcd60e51b8152602060048201526005602482015264052523131360dc1b6044820152606490fd5b15612e3c57565b60405162461bcd60e51b8152602060048201526005602482015264292918989960d91b6044820152606490fd5b15612e7057565b60405162461bcd60e51b81526020600482015260056024820152640a4a46262760db1b6044820152606490fd5b15612ea457565b60405162461bcd60e51b8152602060048201526005602482015264525231313960d81b6044820152606490fd5b60015460405163f0abda5d60e01b815260009391602090829060049082906001600160a01b03165afa90811561096657849161358a575b506001600160a01b03163303610962576007546001600160a01b031693843b156109715760405163423164bf60e11b81526001600160a01b0384166004820152948486602481845afa95861561126f57602496613577575b506003546040516318fe01c760e21b81526001600160a01b038681166004830152909760209289928391165afa95861561126f578596613543575b50803b156125445784602491604051928380926308788eb160e21b82528a60048301525afa801561126f5790859161352f575b505060018060a01b038316845260086020526040842054948585526009602052613003600160ff604088205416151514612902565b858552600b6020526130bd604086209160405192613020846127a7565b600d81549182865260018101546020870152600281015460408701526003810154606087015260ff60048201541615156080870152600581015460a087015260ff600682015416151560c0870152600781015460e087015260088101546101008701526009810154610120870152600a810154610140870152600b810154610160870152600c81015461018087015201546101a085015214612936565b6130cc60e08201511515612968565b6130da60c082015115612e69565b6130e961010082015115612e9d565b6130fd61012c61080060e084015142612a04565b60055460408051631e3fbaf360e01b81523360048201526001600160a01b03909216979190816024818b5afa801561341f579087918291839161350a575b506131469015612c30565b6024604051809a81936360785d7b60e11b835260048301525afa8015611abd578697879088926134d1575b50426101008501526040516020810190818189519160208b01928d5b8181106134b85750506131a9925003601f1981018352826127de565b5190200361342a57600154604051637c44770160e11b81526004810199909952608090899060249082906001600160a01b03165afa97881561341f5787986133e4575b509486955b85518710156132345760208760051b87010151908181106000146132235788526020526001604088205b9601956131f1565b90885260205260016040882061321b565b8794989193965060019295501403613365578190819081906103e8906001600160a01b031682f11561040c576103e86101408301524261016083015282610180830152426101a08301528252600b602052600d6101a06040842092805184556020810151600185015560408101516002850155606081015160038501556132d060808201511515600486019060ff801983541691151516179055565b60a081015160058501556132f960c08201511515600686019060ff801983541691151516179055565b60e0810151600785015561010081015160088501556101208101516009850155610140810151600a850155610160810151600b850155610180810151600c85015501519101556009602052600160408083209260ff1993848154169055600a6020522091825416179055565b508080806103e83382f11561040c576103e8610180830152426101a083015282610140830152426101608301528252600b602052600d6101a06040842092805184556020810151600185015560408101516002850155606081015160038501556132d060808201511515600486019060ff801983541691151516179055565b9097506080813d608011613417575b81613400608093836127de565b81010312613413576060015196386131ec565b8680fd5b3d91506133f3565b6040513d89823e3d90fd5b509250928480809397506103e8819360018060a01b031682f11561040c576103e86101408301524261016083015282610180830152426101a08301528252600b602052600d6101a06040842092805184556020810151600185015560408101516002850155606081015160038501556132d060808201511515600486019060ff801983541691151516179055565b845183526020948501948694509092019160010161318d565b9150506134e99197503d8088833e611a9581836127de565b505050505050505050505050505098505050509b9550925050509738613171565b6131469250613528915060403d60401161120e576111fe81836127de565b909161313b565b6135389061277e565b610971578338612fce565b9095506020813d60201161356f575b8161355f602093836127de565b8101031261044157519438612f9b565b3d9150613552565b6135839095919561277e565b9338612f60565b6135a3915060203d6020116109e8576109da81836127de565b38612f08565b156135b057565b60405162461bcd60e51b81526020600482015260056024820152640a4a46260760db1b6044820152606490fd5b156135e457565b60405162461bcd60e51b8152602060048201526005602482015264525231303960d81b6044820152606490fdfea264697066735822122084039605268f578dede262374d38157d8cfca21c50a79c65c502ccbc6c11224f64736f6c63430008160033",
			"opcodes": "PUSH1 0x80 CALLVALUE PUSH3 0xF5 JUMPI PUSH1 0x1F PUSH3 0x376D CODESIZE DUP2 SWAP1 SUB SWAP2 DUP3 ADD PUSH1 0x1F NOT AND DUP4 ADD SWAP2 PUSH1 0x1 PUSH1 0x1 PUSH1 0x40 SHL SUB DUP4 GT DUP5 DUP5 LT OR PUSH3 0xFA JUMPI DUP1 DUP5 SWAP3 PUSH1 0x80 SWAP5 PUSH1 0x40 MSTORE DUP4 CODECOPY DUP2 ADD SUB SLT PUSH3 0xF5 JUMPI PUSH3 0x4D DUP2 PUSH3 0x110 JUMP JUMPDEST SWAP1 PUSH3 0x5C PUSH1 0x20 DUP3 ADD PUSH3 0x110 JUMP JUMPDEST SWAP2 PUSH3 0x79 PUSH1 0x60 PUSH3 0x71 PUSH1 0x40 DUP6 ADD PUSH3 0x110 JUMP JUMPDEST SWAP4 ADD PUSH3 0x110 JUMP JUMPDEST SWAP1 PUSH1 0x0 PUSH1 0xE SSTORE PUSH1 0x1 DUP1 PUSH1 0xA0 SHL SUB SWAP3 DUP4 DUP1 DUP1 SWAP4 AND SWAP6 PUSH1 0x1 DUP1 PUSH1 0xA0 SHL SUB NOT SWAP7 DUP1 DUP9 PUSH1 0x0 SLOAD AND OR PUSH1 0x0 SSTORE DUP8 PUSH1 0x1 SLOAD AND OR PUSH1 0x1 SSTORE AND DUP1 DUP7 PUSH1 0x2 SLOAD AND OR PUSH1 0x2 SSTORE DUP6 PUSH1 0x3 SLOAD AND OR PUSH1 0x3 SSTORE AND DUP1 DUP5 PUSH1 0x4 SLOAD AND OR PUSH1 0x4 SSTORE DUP4 PUSH1 0x5 SLOAD AND OR PUSH1 0x5 SSTORE AND SWAP1 DUP2 DUP2 PUSH1 0x6 SLOAD AND OR PUSH1 0x6 SSTORE PUSH1 0x7 SLOAD AND OR PUSH1 0x7 SSTORE PUSH1 0x40 MLOAD PUSH2 0x3647 SWAP1 DUP2 PUSH3 0x126 DUP3 CODECOPY RETURN JUMPDEST PUSH1 0x0 DUP1 REVERT JUMPDEST PUSH4 0x4E487B71 PUSH1 0xE0 SHL PUSH1 0x0 MSTORE PUSH1 0x41 PUSH1 0x4 MSTORE PUSH1 0x24 PUSH1 0x0 REVERT JUMPDEST MLOAD SWAP1 PUSH1 0x1 PUSH1 0x1 PUSH1 0xA0 SHL SUB DUP3 AND DUP3 SUB PUSH3 0xF5 JUMPI JUMP INVALID PUSH1 0x80 PUSH1 0x40 MSTORE PUSH1 0x4 CALLDATASIZE LT ISZERO PUSH2 0x12 JUMPI PUSH1 0x0 DUP1 REVERT JUMPDEST PUSH1 0x0 DUP1 CALLDATALOAD PUSH1 0xE0 SHR DUP1 PUSH4 0x166A6DC EQ PUSH2 0x1FB3 JUMPI DUP1 PUSH4 0x1401096E EQ PUSH2 0x1E73 JUMPI DUP1 PUSH4 0x1814B591 EQ PUSH2 0x1C2C JUMPI DUP1 PUSH4 0x1B9A87EE EQ PUSH2 0x1C03 JUMPI DUP1 PUSH4 0x206A5092 EQ PUSH2 0x1B66 JUMPI DUP1 PUSH4 0x25AB292E EQ PUSH2 0x1B49 JUMPI DUP1 PUSH4 0x2B6B2004 EQ PUSH2 0x16E8 JUMPI DUP1 PUSH4 0x4E9A1EFA EQ PUSH2 0x13D4 JUMPI DUP1 PUSH4 0x656844A5 EQ PUSH2 0x1293 JUMPI DUP1 PUSH4 0x6BDA43F7 EQ PUSH2 0xEB6 JUMPI DUP1 PUSH4 0x747ABF49 EQ PUSH2 0xE98 JUMPI DUP1 PUSH4 0x83F713D2 EQ PUSH2 0xCE6 JUMPI DUP1 PUSH4 0x9874E75B EQ PUSH2 0xA96 JUMPI DUP1 PUSH4 0xA871317F EQ PUSH2 0x9FA JUMPI DUP1 PUSH4 0xB1FDACB2 EQ PUSH2 0x5FA JUMPI DUP1 PUSH4 0xC08D1FE5 EQ PUSH2 0x5DD JUMPI DUP1 PUSH4 0xDDF4DDC7 EQ PUSH2 0x48D JUMPI DUP1 PUSH4 0xE6864FE5 EQ PUSH2 0x466 JUMPI DUP1 PUSH4 0xEAD65127 EQ PUSH2 0x158 JUMPI DUP1 PUSH4 0xED929CA5 EQ PUSH2 0x12F JUMPI PUSH4 0xFB41503C EQ PUSH2 0x104 JUMPI PUSH1 0x0 DUP1 REVERT JUMPDEST CALLVALUE PUSH2 0x12C JUMPI DUP1 PUSH1 0x3 NOT CALLDATASIZE ADD SLT PUSH2 0x12C JUMPI PUSH1 0x2 SLOAD PUSH1 0x40 MLOAD PUSH1 0x1 PUSH1 0x1 PUSH1 0xA0 SHL SUB SWAP1 SWAP2 AND DUP2 MSTORE PUSH1 0x20 SWAP1 RETURN JUMPDEST DUP1 REVERT JUMPDEST POP CALLVALUE PUSH2 0x12C JUMPI DUP1 PUSH1 0x3 NOT CALLDATASIZE ADD SLT PUSH2 0x12C JUMPI PUSH1 0x6 SLOAD PUSH1 0x40 MLOAD PUSH1 0x1 PUSH1 0x1 PUSH1 0xA0 SHL SUB SWAP1 SWAP2 AND DUP2 MSTORE PUSH1 0x20 SWAP1 RETURN JUMPDEST POP CALLVALUE PUSH2 0x12C JUMPI DUP1 PUSH1 0x3 NOT CALLDATASIZE ADD SLT PUSH2 0x12C JUMPI PUSH1 0x7 SLOAD PUSH1 0x1 PUSH1 0x1 PUSH1 0xA0 SHL SUB SWAP1 DUP3 SWAP1 DUP3 AND DUP1 EXTCODESIZE ISZERO PUSH2 0x462 JUMPI DUP2 PUSH1 0x24 SWAP2 PUSH1 0x40 MLOAD SWAP3 DUP4 DUP1 SWAP3 PUSH4 0x423164BF PUSH1 0xE1 SHL DUP3 MSTORE CALLER PUSH1 0x4 DUP4 ADD MSTORE GAS STATICCALL DUP1 ISZERO PUSH2 0x40C JUMPI PUSH2 0x44E JUMPI JUMPDEST POP POP PUSH1 0x20 PUSH1 0x24 SWAP2 PUSH1 0x3 SLOAD AND PUSH1 0x40 MLOAD SWAP3 DUP4 DUP1 SWAP3 PUSH4 0x18FE01C7 PUSH1 0xE2 SHL DUP3 MSTORE CALLER PUSH1 0x4 DUP4 ADD MSTORE GAS STATICCALL SWAP1 DUP2 ISZERO PUSH2 0x40C JUMPI DUP3 SWAP2 PUSH2 0x417 JUMPI JUMPDEST POP CALLER DUP3 MSTORE PUSH1 0x8 PUSH1 0x20 MSTORE PUSH1 0x40 DUP3 KECCAK256 SLOAD DUP1 DUP4 MSTORE PUSH1 0x9 PUSH1 0x20 MSTORE PUSH2 0x205 PUSH1 0x1 PUSH1 0xFF PUSH1 0x40 DUP7 KECCAK256 SLOAD AND ISZERO ISZERO EQ PUSH2 0x2902 JUMP JUMPDEST DUP1 DUP4 MSTORE PUSH1 0xB PUSH1 0x20 MSTORE PUSH2 0x2BF PUSH1 0x40 DUP5 KECCAK256 SWAP3 PUSH1 0x40 MLOAD SWAP4 PUSH2 0x222 DUP6 PUSH2 0x27A7 JUMP JUMPDEST PUSH1 0xD DUP2 SLOAD SWAP2 DUP3 DUP8 MSTORE PUSH1 0x1 DUP2 ADD SLOAD PUSH1 0x20 DUP9 ADD MSTORE PUSH1 0x2 DUP2 ADD SLOAD PUSH1 0x40 DUP9 ADD MSTORE PUSH1 0x3 DUP2 ADD SLOAD PUSH1 0x60 DUP9 ADD MSTORE PUSH1 0xFF PUSH1 0x4 DUP3 ADD SLOAD AND ISZERO ISZERO PUSH1 0x80 DUP9 ADD MSTORE PUSH1 0x5 DUP2 ADD SLOAD PUSH1 0xA0 DUP9 ADD MSTORE PUSH1 0xFF PUSH1 0x6 DUP3 ADD SLOAD AND ISZERO ISZERO PUSH1 0xC0 DUP9 ADD MSTORE PUSH1 0x7 DUP2 ADD SLOAD PUSH1 0xE0 DUP9 ADD MSTORE PUSH1 0x8 DUP2 ADD SLOAD PUSH2 0x100 DUP9 ADD MSTORE PUSH1 0x9 DUP2 ADD SLOAD PUSH2 0x120 DUP9 ADD MSTORE PUSH1 0xA DUP2 ADD SLOAD PUSH2 0x140 DUP9 ADD MSTORE PUSH1 0xB DUP2 ADD SLOAD PUSH2 0x160 DUP9 ADD MSTORE PUSH1 0xC DUP2 ADD SLOAD PUSH2 0x180 DUP9 ADD MSTORE ADD SLOAD PUSH2 0x1A0 DUP7 ADD MSTORE EQ PUSH2 0x2936 JUMP JUMPDEST PUSH2 0x2CE PUSH1 0x60 DUP4 ADD MLOAD ISZERO ISZERO PUSH2 0x35A9 JUMP JUMPDEST PUSH2 0x2DC PUSH1 0xA0 DUP4 ADD MLOAD ISZERO PUSH2 0x35DD JUMP JUMPDEST PUSH2 0x2F6 PUSH2 0x12C PUSH2 0x2F0 PUSH1 0x60 DUP6 ADD MLOAD TIMESTAMP PUSH2 0x2A04 JUMP JUMPDEST GT PUSH2 0x2A93 JUMP JUMPDEST DUP3 DUP1 DUP1 DUP1 PUSH2 0x3E8 CALLER DUP3 CALL ISZERO PUSH2 0x40C JUMPI PUSH2 0x3E8 PUSH2 0x140 DUP4 ADD MSTORE TIMESTAMP PUSH2 0x160 DUP4 ADD MSTORE DUP3 PUSH2 0x180 DUP4 ADD MSTORE TIMESTAMP PUSH2 0x1A0 DUP4 ADD MSTORE DUP3 MSTORE PUSH1 0xB PUSH1 0x20 MSTORE PUSH1 0xD PUSH2 0x1A0 PUSH1 0x40 DUP5 KECCAK256 SWAP3 DUP1 MLOAD DUP5 SSTORE PUSH1 0x20 DUP2 ADD MLOAD PUSH1 0x1 DUP6 ADD SSTORE PUSH1 0x40 DUP2 ADD MLOAD PUSH1 0x2 DUP6 ADD SSTORE PUSH1 0x60 DUP2 ADD MLOAD PUSH1 0x3 DUP6 ADD SSTORE PUSH2 0x375 PUSH1 0x80 DUP3 ADD MLOAD ISZERO ISZERO PUSH1 0x4 DUP7 ADD SWAP1 PUSH1 0xFF DUP1 NOT DUP4 SLOAD AND SWAP2 ISZERO ISZERO AND OR SWAP1 SSTORE JUMP JUMPDEST PUSH1 0xA0 DUP2 ADD MLOAD PUSH1 0x5 DUP6 ADD SSTORE PUSH2 0x39E PUSH1 0xC0 DUP3 ADD MLOAD ISZERO ISZERO PUSH1 0x6 DUP7 ADD SWAP1 PUSH1 0xFF DUP1 NOT DUP4 SLOAD AND SWAP2 ISZERO ISZERO AND OR SWAP1 SSTORE JUMP JUMPDEST PUSH1 0xE0 DUP2 ADD MLOAD PUSH1 0x7 DUP6 ADD SSTORE PUSH2 0x100 DUP2 ADD MLOAD PUSH1 0x8 DUP6 ADD SSTORE PUSH2 0x120 DUP2 ADD MLOAD PUSH1 0x9 DUP6 ADD SSTORE PUSH2 0x140 DUP2 ADD MLOAD PUSH1 0xA DUP6 ADD SSTORE PUSH2 0x160 DUP2 ADD MLOAD PUSH1 0xB DUP6 ADD SSTORE PUSH2 0x180 DUP2 ADD MLOAD PUSH1 0xC DUP6 ADD SSTORE ADD MLOAD SWAP2 ADD SSTORE PUSH1 0x9 PUSH1 0x20 MSTORE PUSH1 0x40 DUP2 KECCAK256 PUSH1 0xFF NOT SWAP1 DUP2 DUP2 SLOAD AND SWAP1 SSTORE PUSH1 0xA PUSH1 0x20 MSTORE PUSH1 0x1 PUSH1 0x40 DUP4 KECCAK256 SWAP2 DUP3 SLOAD AND OR SWAP1 SSTORE DUP1 RETURN JUMPDEST PUSH1 0x40 MLOAD RETURNDATASIZE DUP5 DUP3 RETURNDATACOPY RETURNDATASIZE SWAP1 REVERT JUMPDEST SWAP1 POP PUSH1 0x20 DUP2 RETURNDATASIZE PUSH1 0x20 GT PUSH2 0x446 JUMPI JUMPDEST DUP2 PUSH2 0x432 PUSH1 0x20 SWAP4 DUP4 PUSH2 0x27DE JUMP JUMPDEST DUP2 ADD SUB SLT PUSH2 0x441 JUMPI MLOAD CODESIZE PUSH2 0x1DA JUMP JUMPDEST PUSH1 0x0 DUP1 REVERT JUMPDEST RETURNDATASIZE SWAP2 POP PUSH2 0x425 JUMP JUMPDEST PUSH2 0x457 SWAP1 PUSH2 0x277E JUMP JUMPDEST PUSH2 0x462 JUMPI DUP2 CODESIZE PUSH2 0x1A8 JUMP JUMPDEST POP DUP1 REVERT JUMPDEST POP CALLVALUE PUSH2 0x12C JUMPI DUP1 PUSH1 0x3 NOT CALLDATASIZE ADD SLT PUSH2 0x12C JUMPI SLOAD PUSH1 0x40 MLOAD PUSH1 0x1 PUSH1 0x1 PUSH1 0xA0 SHL SUB SWAP1 SWAP2 AND DUP2 MSTORE PUSH1 0x20 SWAP1 RETURN JUMPDEST POP CALLVALUE PUSH2 0x12C JUMPI DUP1 PUSH1 0x3 NOT CALLDATASIZE ADD SLT PUSH2 0x12C JUMPI PUSH1 0x7 SLOAD PUSH1 0x1 PUSH1 0x1 PUSH1 0xA0 SHL SUB SWAP1 DUP3 SWAP1 DUP3 AND DUP1 EXTCODESIZE ISZERO PUSH2 0x462 JUMPI DUP2 PUSH1 0x24 SWAP2 PUSH1 0x40 MLOAD SWAP3 DUP4 DUP1 SWAP3 PUSH4 0x423164BF PUSH1 0xE1 SHL DUP3 MSTORE CALLER PUSH1 0x4 DUP4 ADD MSTORE GAS STATICCALL DUP1 ISZERO PUSH2 0x40C JUMPI PUSH2 0x5C9 JUMPI JUMPDEST POP POP PUSH1 0x20 PUSH1 0x24 SWAP2 PUSH1 0x3 SLOAD AND PUSH1 0x40 MLOAD SWAP3 DUP4 DUP1 SWAP3 PUSH4 0x18FE01C7 PUSH1 0xE2 SHL DUP3 MSTORE CALLER PUSH1 0x4 DUP4 ADD MSTORE GAS STATICCALL SWAP1 DUP2 ISZERO PUSH2 0x40C JUMPI DUP3 SWAP2 PUSH2 0x597 JUMPI JUMPDEST POP CALLER DUP3 MSTORE PUSH1 0x8 PUSH1 0x20 MSTORE PUSH1 0x40 DUP3 KECCAK256 SLOAD DUP1 DUP4 MSTORE PUSH1 0x9 PUSH1 0x20 MSTORE PUSH2 0x53A PUSH1 0x1 PUSH1 0xFF PUSH1 0x40 DUP7 KECCAK256 SLOAD AND ISZERO ISZERO EQ PUSH2 0x2902 JUMP JUMPDEST DUP1 DUP4 MSTORE PUSH1 0xB PUSH1 0x20 MSTORE PUSH2 0x557 PUSH1 0x40 DUP5 KECCAK256 SWAP3 PUSH1 0x40 MLOAD SWAP4 PUSH2 0x222 DUP6 PUSH2 0x27A7 JUMP JUMPDEST PUSH2 0x566 PUSH1 0xE0 DUP4 ADD MLOAD ISZERO ISZERO PUSH2 0x2968 JUMP JUMPDEST PUSH2 0x574 PUSH1 0xC0 DUP4 ADD MLOAD ISZERO PUSH2 0x2E69 JUMP JUMPDEST PUSH2 0x583 PUSH2 0x100 DUP4 ADD MLOAD ISZERO PUSH2 0x2E9D JUMP JUMPDEST PUSH2 0x2F6 PUSH2 0x12C PUSH2 0x2F0 PUSH1 0xE0 DUP6 ADD MLOAD TIMESTAMP PUSH2 0x2A04 JUMP JUMPDEST SWAP1 POP PUSH1 0x20 DUP2 RETURNDATASIZE PUSH1 0x20 GT PUSH2 0x5C1 JUMPI JUMPDEST DUP2 PUSH2 0x5B2 PUSH1 0x20 SWAP4 DUP4 PUSH2 0x27DE JUMP JUMPDEST DUP2 ADD SUB SLT PUSH2 0x441 JUMPI MLOAD CODESIZE PUSH2 0x50F JUMP JUMPDEST RETURNDATASIZE SWAP2 POP PUSH2 0x5A5 JUMP JUMPDEST PUSH2 0x5D2 SWAP1 PUSH2 0x277E JUMP JUMPDEST PUSH2 0x462 JUMPI DUP2 CODESIZE PUSH2 0x4DD JUMP JUMPDEST POP CALLVALUE PUSH2 0x12C JUMPI DUP1 PUSH1 0x3 NOT CALLDATASIZE ADD SLT PUSH2 0x12C JUMPI PUSH1 0x20 PUSH1 0x40 MLOAD PUSH2 0x12C DUP2 MSTORE RETURN JUMPDEST POP CALLVALUE PUSH2 0x12C JUMPI PUSH2 0x609 CALLDATASIZE PUSH2 0x289D JUMP JUMPDEST PUSH1 0x1 SLOAD PUSH1 0x40 MLOAD PUSH4 0xF0ABDA5D PUSH1 0xE0 SHL DUP2 MSTORE DUP5 SWAP2 PUSH1 0x1 PUSH1 0x1 PUSH1 0xA0 SHL SUB SWAP2 SWAP1 PUSH1 0x20 SWAP1 DUP3 SWAP1 PUSH1 0x4 SWAP1 DUP3 SWAP1 DUP7 AND GAS STATICCALL DUP1 ISZERO PUSH2 0x9EF JUMPI DUP3 SWAP2 DUP5 SWAP2 PUSH2 0x9C0 JUMPI JUMPDEST POP AND CALLER SUB PUSH2 0x462 JUMPI DUP1 PUSH1 0x7 SLOAD AND SWAP4 DUP5 EXTCODESIZE ISZERO PUSH2 0x962 JUMPI PUSH1 0x40 MLOAD PUSH4 0x423164BF PUSH1 0xE1 SHL DUP2 MSTORE DUP2 DUP4 AND PUSH1 0x4 DUP3 ADD MSTORE DUP4 DUP2 PUSH1 0x24 DUP2 DUP10 GAS STATICCALL DUP1 ISZERO PUSH2 0x966 JUMPI PUSH2 0x9AC JUMPI JUMPDEST POP PUSH1 0x24 SWAP5 PUSH1 0x20 DUP4 PUSH1 0x3 SLOAD AND PUSH1 0x40 MLOAD SWAP8 DUP9 DUP1 SWAP3 PUSH4 0x18FE01C7 PUSH1 0xE2 SHL DUP3 MSTORE DUP8 DUP8 AND PUSH1 0x4 DUP4 ADD MSTORE GAS STATICCALL SWAP6 DUP7 ISZERO PUSH2 0x966 JUMPI DUP5 SWAP7 PUSH2 0x975 JUMPI JUMPDEST POP DUP1 EXTCODESIZE ISZERO PUSH2 0x971 JUMPI DUP4 PUSH1 0x24 SWAP2 PUSH1 0x40 MLOAD SWAP3 DUP4 DUP1 SWAP3 PUSH4 0x8788EB1 PUSH1 0xE2 SHL DUP3 MSTORE DUP11 PUSH1 0x4 DUP4 ADD MSTORE GAS STATICCALL SWAP1 DUP2 ISZERO PUSH2 0x966 JUMPI DUP5 SWAP2 PUSH2 0x94E JUMPI JUMPDEST POP POP DUP2 DUP2 AND DUP4 MSTORE PUSH1 0x8 PUSH1 0x20 MSTORE PUSH1 0x40 DUP4 KECCAK256 SLOAD SWAP4 DUP5 DUP5 MSTORE PUSH1 0x9 PUSH1 0x20 MSTORE PUSH2 0x715 PUSH1 0x1 PUSH1 0xFF PUSH1 0x40 DUP8 KECCAK256 SLOAD AND ISZERO ISZERO EQ PUSH2 0x2902 JUMP JUMPDEST DUP5 DUP5 MSTORE PUSH1 0xB PUSH1 0x20 MSTORE PUSH2 0x7CF PUSH1 0x40 DUP6 KECCAK256 SWAP7 PUSH1 0x40 MLOAD SWAP8 PUSH2 0x732 DUP10 PUSH2 0x27A7 JUMP JUMPDEST PUSH1 0xD DUP2 SLOAD SWAP2 DUP3 DUP12 MSTORE PUSH1 0x1 DUP2 ADD SLOAD PUSH1 0x20 DUP13 ADD MSTORE PUSH1 0x2 DUP2 ADD SLOAD PUSH1 0x40 DUP13 ADD MSTORE PUSH1 0x3 DUP2 ADD SLOAD PUSH1 0x60 DUP13 ADD MSTORE PUSH1 0xFF PUSH1 0x4 DUP3 ADD SLOAD AND ISZERO ISZERO PUSH1 0x80 DUP13 ADD MSTORE PUSH1 0x5 DUP2 ADD SLOAD PUSH1 0xA0 DUP13 ADD MSTORE PUSH1 0xFF PUSH1 0x6 DUP3 ADD SLOAD AND ISZERO ISZERO PUSH1 0xC0 DUP13 ADD MSTORE PUSH1 0x7 DUP2 ADD SLOAD PUSH1 0xE0 DUP13 ADD MSTORE PUSH1 0x8 DUP2 ADD SLOAD PUSH2 0x100 DUP13 ADD MSTORE PUSH1 0x9 DUP2 ADD SLOAD PUSH2 0x120 DUP13 ADD MSTORE PUSH1 0xA DUP2 ADD SLOAD PUSH2 0x140 DUP13 ADD MSTORE PUSH1 0xB DUP2 ADD SLOAD PUSH2 0x160 DUP13 ADD MSTORE PUSH1 0xC DUP2 ADD SLOAD PUSH2 0x180 DUP13 ADD MSTORE ADD SLOAD PUSH2 0x1A0 DUP11 ADD MSTORE EQ PUSH2 0x2936 JUMP JUMPDEST PUSH2 0x7DE PUSH1 0x60 DUP8 ADD MLOAD ISZERO ISZERO PUSH2 0x35A9 JUMP JUMPDEST PUSH2 0x7EC PUSH1 0xA0 DUP8 ADD MLOAD ISZERO PUSH2 0x35DD JUMP JUMPDEST PUSH2 0x807 PUSH2 0x12C PUSH2 0x800 PUSH1 0x60 DUP10 ADD MLOAD TIMESTAMP PUSH2 0x2A04 JUMP JUMPDEST GT ISZERO PUSH2 0x2A27 JUMP JUMPDEST ISZERO DUP1 ISZERO PUSH1 0x80 DUP8 ADD MSTORE TIMESTAMP PUSH1 0xA0 DUP8 ADD MSTORE PUSH2 0x8DF JUMPI JUMPDEST POP POP MSTORE PUSH1 0xB PUSH1 0x20 MSTORE PUSH1 0xD PUSH2 0x1A0 PUSH1 0x40 DUP5 KECCAK256 SWAP3 DUP1 MLOAD DUP5 SSTORE PUSH1 0x20 DUP2 ADD MLOAD PUSH1 0x1 DUP6 ADD SSTORE PUSH1 0x40 DUP2 ADD MLOAD PUSH1 0x2 DUP6 ADD SSTORE PUSH1 0x60 DUP2 ADD MLOAD PUSH1 0x3 DUP6 ADD SSTORE PUSH2 0x86D PUSH1 0x80 DUP3 ADD MLOAD ISZERO ISZERO PUSH1 0x4 DUP7 ADD SWAP1 PUSH1 0xFF DUP1 NOT DUP4 SLOAD AND SWAP2 ISZERO ISZERO AND OR SWAP1 SSTORE JUMP JUMPDEST PUSH1 0xA0 DUP2 ADD MLOAD PUSH1 0x5 DUP6 ADD SSTORE PUSH2 0x896 PUSH1 0xC0 DUP3 ADD MLOAD ISZERO ISZERO PUSH1 0x6 DUP7 ADD SWAP1 PUSH1 0xFF DUP1 NOT DUP4 SLOAD AND SWAP2 ISZERO ISZERO AND OR SWAP1 SSTORE JUMP JUMPDEST PUSH1 0xE0 DUP2 ADD MLOAD PUSH1 0x7 DUP6 ADD SSTORE PUSH2 0x100 DUP2 ADD MLOAD PUSH1 0x8 DUP6 ADD SSTORE PUSH2 0x120 DUP2 ADD MLOAD PUSH1 0x9 DUP6 ADD SSTORE PUSH2 0x140 DUP2 ADD MLOAD PUSH1 0xA DUP6 ADD SSTORE PUSH2 0x160 DUP2 ADD MLOAD PUSH1 0xB DUP6 ADD SSTORE PUSH2 0x180 DUP2 ADD MLOAD PUSH1 0xC DUP6 ADD SSTORE ADD MLOAD SWAP2 ADD SSTORE DUP1 RETURN JUMPDEST DUP4 DUP4 MSTORE PUSH1 0x9 PUSH1 0x20 MSTORE PUSH1 0x40 DUP4 KECCAK256 PUSH1 0xFF NOT SWAP1 DUP2 DUP2 SLOAD AND SWAP1 SSTORE PUSH1 0xA PUSH1 0x20 MSTORE PUSH1 0x1 PUSH1 0x40 DUP6 KECCAK256 SWAP2 DUP3 SLOAD AND OR SWAP1 SSTORE DUP3 DUP1 DUP1 DUP1 PUSH2 0x1F4 CALLER DUP3 CALL ISZERO PUSH2 0x40C JUMPI DUP3 PUSH2 0x1F4 DUP2 SWAP4 DUP3 SWAP4 AND DUP3 CALL ISZERO PUSH2 0x40C JUMPI PUSH2 0x1F4 PUSH2 0x140 DUP4 ADD MSTORE PUSH2 0x1F4 PUSH2 0x180 DUP4 ADD MSTORE TIMESTAMP PUSH2 0x160 DUP4 ADD MSTORE TIMESTAMP PUSH2 0x1A0 DUP4 ADD MSTORE DUP3 CODESIZE DUP1 PUSH2 0x81A JUMP JUMPDEST PUSH2 0x957 SWAP1 PUSH2 0x277E JUMP JUMPDEST PUSH2 0x962 JUMPI DUP3 CODESIZE PUSH2 0x6E6 JUMP JUMPDEST DUP3 DUP1 REVERT JUMPDEST PUSH1 0x40 MLOAD RETURNDATASIZE DUP7 DUP3 RETURNDATACOPY RETURNDATASIZE SWAP1 REVERT JUMPDEST DUP4 DUP1 REVERT JUMPDEST SWAP4 POP SWAP5 POP PUSH1 0x20 DUP4 RETURNDATASIZE PUSH1 0x20 GT PUSH2 0x9A4 JUMPI JUMPDEST DUP2 PUSH2 0x992 PUSH1 0x20 SWAP4 DUP4 PUSH2 0x27DE JUMP JUMPDEST DUP2 ADD SUB SLT PUSH2 0x441 JUMPI DUP6 SWAP3 MLOAD SWAP5 CODESIZE PUSH2 0x6B3 JUMP JUMPDEST RETURNDATASIZE SWAP2 POP PUSH2 0x985 JUMP JUMPDEST PUSH2 0x9B6 DUP5 SWAP2 PUSH2 0x277E JUMP JUMPDEST PUSH2 0x962 JUMPI CODESIZE PUSH2 0x67F JUMP JUMPDEST PUSH2 0x9E2 SWAP2 POP PUSH1 0x20 RETURNDATASIZE PUSH1 0x20 GT PUSH2 0x9E8 JUMPI JUMPDEST PUSH2 0x9DA DUP2 DUP4 PUSH2 0x27DE JUMP JUMPDEST DUP2 ADD SWAP1 PUSH2 0x28E3 JUMP JUMPDEST CODESIZE PUSH2 0x642 JUMP JUMPDEST POP RETURNDATASIZE PUSH2 0x9D0 JUMP JUMPDEST PUSH1 0x40 MLOAD RETURNDATASIZE DUP6 DUP3 RETURNDATACOPY RETURNDATASIZE SWAP1 REVERT JUMPDEST POP CALLVALUE PUSH2 0x12C JUMPI PUSH1 0x40 CALLDATASIZE PUSH1 0x3 NOT ADD SLT PUSH2 0x12C JUMPI PUSH2 0xA14 PUSH2 0x2768 JUMP JUMPDEST SWAP1 PUSH1 0x24 CALLDATALOAD PUSH1 0x1 PUSH1 0x1 PUSH1 0x40 SHL SUB DUP2 GT PUSH2 0x462 JUMPI CALLDATASIZE PUSH1 0x23 DUP3 ADD SLT ISZERO PUSH2 0x462 JUMPI DUP1 PUSH1 0x4 ADD CALLDATALOAD SWAP3 PUSH2 0xA40 DUP5 PUSH2 0x28CC JUMP JUMPDEST SWAP2 PUSH2 0xA4E PUSH1 0x40 MLOAD SWAP4 DUP5 PUSH2 0x27DE JUMP JUMPDEST DUP5 DUP4 MSTORE PUSH1 0x20 SWAP5 PUSH1 0x24 PUSH1 0x20 DUP6 ADD SWAP2 PUSH1 0x5 SHL DUP4 ADD ADD SWAP2 CALLDATASIZE DUP4 GT PUSH2 0xA92 JUMPI PUSH1 0x24 ADD SWAP1 JUMPDEST DUP3 DUP3 LT PUSH2 0xA83 JUMPI DUP6 PUSH2 0xA80 DUP7 DUP7 PUSH2 0x2ED1 JUMP JUMPDEST DUP1 RETURN JUMPDEST DUP2 CALLDATALOAD DUP2 MSTORE SWAP1 DUP7 ADD SWAP1 DUP7 ADD PUSH2 0xA6E JUMP JUMPDEST DUP6 DUP1 REVERT JUMPDEST POP CALLVALUE PUSH2 0x12C JUMPI PUSH1 0x20 CALLDATASIZE PUSH1 0x3 NOT ADD SLT PUSH2 0x12C JUMPI PUSH2 0xAB0 PUSH2 0x2768 JUMP JUMPDEST PUSH1 0x1 SLOAD PUSH1 0x40 MLOAD PUSH4 0xF0ABDA5D PUSH1 0xE0 SHL DUP2 MSTORE PUSH1 0x1 PUSH1 0x1 PUSH1 0xA0 SHL SUB SWAP2 PUSH1 0x20 SWAP1 DUP3 SWAP1 PUSH1 0x4 SWAP1 DUP3 SWAP1 DUP7 AND GAS STATICCALL DUP1 ISZERO PUSH2 0x966 JUMPI DUP3 SWAP2 DUP6 SWAP2 PUSH2 0xCC7 JUMPI JUMPDEST POP AND CALLER SUB PUSH2 0x962 JUMPI DUP3 DUP2 PUSH1 0x7 SLOAD AND SWAP3 DUP4 EXTCODESIZE ISZERO PUSH2 0x462 JUMPI DUP2 DUP4 SWAP2 PUSH1 0x24 PUSH1 0x40 MLOAD DUP1 SWAP5 DUP2 SWAP4 PUSH4 0x423164BF PUSH1 0xE1 SHL DUP4 MSTORE AND SWAP8 DUP9 PUSH1 0x4 DUP4 ADD MSTORE GAS STATICCALL DUP1 ISZERO PUSH2 0x40C JUMPI PUSH2 0xCB3 JUMPI JUMPDEST POP POP PUSH1 0x20 SWAP1 PUSH1 0x3 SLOAD AND SWAP2 PUSH1 0x24 PUSH1 0x40 MLOAD DUP1 SWAP5 DUP2 SWAP4 PUSH4 0x18FE01C7 PUSH1 0xE2 SHL DUP4 MSTORE PUSH1 0x4 DUP4 ADD MSTORE GAS STATICCALL SWAP1 DUP2 ISZERO PUSH2 0x40C JUMPI DUP3 SWAP2 PUSH2 0xC81 JUMPI JUMPDEST POP CALLER DUP3 MSTORE PUSH1 0x8 PUSH1 0x20 MSTORE PUSH1 0x40 DUP3 KECCAK256 SLOAD DUP1 DUP4 MSTORE PUSH1 0x9 PUSH1 0x20 MSTORE PUSH2 0xB84 PUSH1 0x1 PUSH1 0xFF PUSH1 0x40 DUP7 KECCAK256 SLOAD AND ISZERO ISZERO EQ PUSH2 0x2902 JUMP JUMPDEST DUP1 DUP4 MSTORE PUSH1 0xB PUSH1 0x20 MSTORE PUSH2 0xBA1 PUSH1 0x40 DUP5 KECCAK256 SWAP3 PUSH1 0x40 MLOAD SWAP4 PUSH2 0x222 DUP6 PUSH2 0x27A7 JUMP JUMPDEST PUSH2 0xBB0 PUSH1 0x40 DUP4 ADD MLOAD ISZERO ISZERO PUSH2 0x2D99 JUMP JUMPDEST PUSH2 0xBBE PUSH1 0x60 DUP4 ADD MLOAD ISZERO PUSH2 0x2DCD JUMP JUMPDEST PUSH2 0x12C PUSH2 0xBCF PUSH1 0x40 DUP5 ADD MLOAD TIMESTAMP PUSH2 0x2A04 JUMP JUMPDEST GT ISZERO PUSH2 0xC54 JUMPI DUP3 DUP1 DUP1 DUP1 PUSH2 0x3E8 CALLER DUP3 CALL ISZERO PUSH2 0x40C JUMPI PUSH2 0x3E8 PUSH2 0x180 DUP4 ADD MSTORE TIMESTAMP PUSH2 0x1A0 DUP4 ADD MSTORE DUP3 PUSH2 0x140 DUP4 ADD MSTORE TIMESTAMP PUSH2 0x160 DUP4 ADD MSTORE DUP3 MSTORE PUSH1 0xB PUSH1 0x20 MSTORE PUSH1 0xD PUSH2 0x1A0 PUSH1 0x40 DUP5 KECCAK256 SWAP3 DUP1 MLOAD DUP5 SSTORE PUSH1 0x20 DUP2 ADD MLOAD PUSH1 0x1 DUP6 ADD SSTORE PUSH1 0x40 DUP2 ADD MLOAD PUSH1 0x2 DUP6 ADD SSTORE PUSH1 0x60 DUP2 ADD MLOAD PUSH1 0x3 DUP6 ADD SSTORE PUSH2 0x375 PUSH1 0x80 DUP3 ADD MLOAD ISZERO ISZERO PUSH1 0x4 DUP7 ADD SWAP1 PUSH1 0xFF DUP1 NOT DUP4 SLOAD AND SWAP2 ISZERO ISZERO AND OR SWAP1 SSTORE JUMP JUMPDEST PUSH1 0x40 MLOAD PUSH3 0x461BCD PUSH1 0xE5 SHL DUP2 MSTORE PUSH1 0x20 PUSH1 0x4 DUP3 ADD MSTORE PUSH1 0x5 PUSH1 0x24 DUP3 ADD MSTORE PUSH5 0x5252313137 PUSH1 0xD8 SHL PUSH1 0x44 DUP3 ADD MSTORE PUSH1 0x64 SWAP1 REVERT JUMPDEST SWAP1 POP PUSH1 0x20 DUP2 RETURNDATASIZE PUSH1 0x20 GT PUSH2 0xCAB JUMPI JUMPDEST DUP2 PUSH2 0xC9C PUSH1 0x20 SWAP4 DUP4 PUSH2 0x27DE JUMP JUMPDEST DUP2 ADD SUB SLT PUSH2 0x441 JUMPI MLOAD CODESIZE PUSH2 0xB59 JUMP JUMPDEST RETURNDATASIZE SWAP2 POP PUSH2 0xC8F JUMP JUMPDEST PUSH2 0xCBC SWAP1 PUSH2 0x277E JUMP JUMPDEST PUSH2 0x962 JUMPI DUP3 CODESIZE PUSH2 0xB27 JUMP JUMPDEST PUSH2 0xCE0 SWAP2 POP PUSH1 0x20 RETURNDATASIZE PUSH1 0x20 GT PUSH2 0x9E8 JUMPI PUSH2 0x9DA DUP2 DUP4 PUSH2 0x27DE JUMP JUMPDEST CODESIZE PUSH2 0xAE6 JUMP JUMPDEST POP CALLVALUE PUSH2 0x12C JUMPI DUP1 PUSH1 0x3 NOT CALLDATASIZE ADD SLT PUSH2 0x12C JUMPI PUSH1 0x7 SLOAD PUSH1 0x1 PUSH1 0x1 PUSH1 0xA0 SHL SUB SWAP1 DUP3 SWAP1 DUP3 AND DUP1 EXTCODESIZE ISZERO PUSH2 0x462 JUMPI DUP2 PUSH1 0x24 SWAP2 PUSH1 0x40 MLOAD SWAP3 DUP4 DUP1 SWAP3 PUSH4 0x423164BF PUSH1 0xE1 SHL DUP3 MSTORE CALLER PUSH1 0x4 DUP4 ADD MSTORE GAS STATICCALL DUP1 ISZERO PUSH2 0x40C JUMPI PUSH2 0xE84 JUMPI JUMPDEST POP POP PUSH1 0x20 PUSH1 0x24 SWAP2 PUSH1 0x3 SLOAD AND PUSH1 0x40 MLOAD SWAP3 DUP4 DUP1 SWAP3 PUSH4 0x18FE01C7 PUSH1 0xE2 SHL DUP3 MSTORE CALLER PUSH1 0x4 DUP4 ADD MSTORE GAS STATICCALL SWAP1 DUP2 ISZERO PUSH2 0x40C JUMPI DUP3 SWAP2 PUSH2 0xE52 JUMPI JUMPDEST POP CALLER DUP3 MSTORE PUSH1 0x8 PUSH1 0x20 MSTORE PUSH1 0x40 DUP3 KECCAK256 SLOAD DUP1 DUP4 MSTORE PUSH1 0x9 PUSH1 0x20 MSTORE PUSH2 0xD93 PUSH1 0x1 PUSH1 0xFF PUSH1 0x40 DUP7 KECCAK256 SLOAD AND ISZERO ISZERO EQ PUSH2 0x2902 JUMP JUMPDEST DUP1 DUP4 MSTORE PUSH1 0xB PUSH1 0x20 MSTORE PUSH2 0xDB0 PUSH1 0x40 DUP5 KECCAK256 SWAP3 PUSH1 0x40 MLOAD SWAP4 PUSH2 0x222 DUP6 PUSH2 0x27A7 JUMP JUMPDEST PUSH2 0xDBF PUSH1 0x20 DUP4 ADD MLOAD ISZERO ISZERO PUSH2 0x2AF9 JUMP JUMPDEST PUSH2 0xDCD PUSH1 0x40 DUP4 ADD MLOAD ISZERO PUSH2 0x2B2D JUMP JUMPDEST PUSH2 0xDE1 PUSH2 0x12C PUSH2 0x2F0 PUSH1 0x20 DUP6 ADD MLOAD TIMESTAMP PUSH2 0x2A04 JUMP JUMPDEST DUP3 DUP1 DUP1 DUP1 PUSH2 0x1F4 CALLER DUP3 CALL ISZERO PUSH2 0x40C JUMPI PUSH2 0x1F4 PUSH2 0x140 DUP4 ADD MSTORE TIMESTAMP PUSH2 0x160 DUP4 ADD MSTORE DUP3 MSTORE PUSH1 0xB PUSH1 0x20 MSTORE PUSH1 0xD PUSH2 0x1A0 PUSH1 0x40 DUP5 KECCAK256 SWAP3 DUP1 MLOAD DUP5 SSTORE PUSH1 0x20 DUP2 ADD MLOAD PUSH1 0x1 DUP6 ADD SSTORE PUSH1 0x40 DUP2 ADD MLOAD PUSH1 0x2 DUP6 ADD SSTORE PUSH1 0x60 DUP2 ADD MLOAD PUSH1 0x3 DUP6 ADD SSTORE PUSH2 0x375 PUSH1 0x80 DUP3 ADD MLOAD ISZERO ISZERO PUSH1 0x4 DUP7 ADD SWAP1 PUSH1 0xFF DUP1 NOT DUP4 SLOAD AND SWAP2 ISZERO ISZERO AND OR SWAP1 SSTORE JUMP JUMPDEST SWAP1 POP PUSH1 0x20 DUP2 RETURNDATASIZE PUSH1 0x20 GT PUSH2 0xE7C JUMPI JUMPDEST DUP2 PUSH2 0xE6D PUSH1 0x20 SWAP4 DUP4 PUSH2 0x27DE JUMP JUMPDEST DUP2 ADD SUB SLT PUSH2 0x441 JUMPI MLOAD CODESIZE PUSH2 0xD68 JUMP JUMPDEST RETURNDATASIZE SWAP2 POP PUSH2 0xE60 JUMP JUMPDEST PUSH2 0xE8D SWAP1 PUSH2 0x277E JUMP JUMPDEST PUSH2 0x462 JUMPI DUP2 CODESIZE PUSH2 0xD36 JUMP JUMPDEST POP CALLVALUE PUSH2 0x12C JUMPI DUP1 PUSH1 0x3 NOT CALLDATASIZE ADD SLT PUSH2 0x12C JUMPI PUSH1 0x20 PUSH1 0xE SLOAD PUSH1 0x40 MLOAD SWAP1 DUP2 MSTORE RETURN JUMPDEST POP DUP1 PUSH1 0x3 NOT CALLDATASIZE ADD SLT PUSH2 0x12C JUMPI PUSH1 0x7 SLOAD PUSH1 0x1 PUSH1 0x1 PUSH1 0xA0 SHL SUB SWAP1 DUP2 AND DUP1 EXTCODESIZE ISZERO PUSH2 0x962 JUMPI PUSH1 0x40 MLOAD SWAP1 PUSH4 0x423164BF PUSH1 0xE1 SHL DUP3 MSTORE CALLER PUSH1 0x4 DUP4 ADD MSTORE PUSH1 0x24 SWAP3 DUP5 DUP1 DUP5 DUP7 DUP2 DUP7 GAS STATICCALL SWAP4 DUP5 ISZERO PUSH2 0x122E JUMPI DUP6 SWAP5 PUSH2 0x127A JUMPI JUMPDEST POP POP PUSH1 0x20 DUP2 PUSH1 0x3 SLOAD AND PUSH1 0x40 MLOAD SWAP5 DUP6 DUP1 SWAP3 PUSH4 0x18FE01C7 PUSH1 0xE2 SHL DUP3 MSTORE CALLER PUSH1 0x4 DUP4 ADD MSTORE GAS STATICCALL SWAP3 DUP4 ISZERO PUSH2 0x126F JUMPI DUP6 SWAP4 PUSH2 0x123B JUMPI JUMPDEST POP DUP5 DUP3 EXTCODESIZE ISZERO PUSH2 0x12C JUMPI DUP1 DUP6 SWAP4 PUSH1 0x40 MLOAD SWAP5 DUP6 DUP1 SWAP3 PUSH4 0x8788EB1 PUSH1 0xE2 SHL DUP3 MSTORE DUP9 PUSH1 0x4 DUP4 ADD MSTORE GAS STATICCALL SWAP3 DUP4 ISZERO PUSH2 0x122E JUMPI DUP6 SWAP4 PUSH2 0x1215 JUMPI JUMPDEST POP POP PUSH1 0x40 SWAP1 PUSH1 0x5 SLOAD AND DUP2 MLOAD SWAP3 DUP4 DUP1 SWAP3 PUSH4 0x1E3FBAF3 PUSH1 0xE0 SHL DUP3 MSTORE CALLER PUSH1 0x4 DUP4 ADD MSTORE GAS STATICCALL DUP1 ISZERO PUSH2 0x966 JUMPI PUSH2 0xFA0 SWAP2 DUP6 SWAP2 PUSH2 0x11E4 JUMPI JUMPDEST POP ISZERO PUSH2 0x2C30 JUMP JUMPDEST CALLER DUP4 MSTORE PUSH1 0x8 PUSH1 0x20 MSTORE PUSH1 0x40 DUP4 KECCAK256 SLOAD DUP4 MSTORE PUSH1 0x9 PUSH1 0x20 MSTORE PUSH1 0xFF PUSH1 0x40 DUP5 KECCAK256 SLOAD AND PUSH2 0x11BA JUMPI PUSH2 0xFCD PUSH2 0x1F4 CALLVALUE EQ PUSH2 0x2AC7 JUMP JUMPDEST PUSH1 0xE SLOAD PUSH1 0x1 DUP2 ADD DUP2 GT PUSH2 0x11A7 JUMPI PUSH1 0x1 DUP2 ADD PUSH1 0xE SSTORE CALLER DUP5 MSTORE PUSH1 0x8 PUSH1 0x20 MSTORE PUSH1 0x1 DUP2 ADD PUSH1 0x40 DUP6 KECCAK256 SSTORE PUSH1 0x1 DUP2 ADD DUP5 MSTORE PUSH1 0xB PUSH1 0x20 MSTORE PUSH1 0x1 PUSH1 0x40 DUP6 KECCAK256 SWAP2 PUSH1 0xD PUSH1 0x40 MLOAD SWAP4 PUSH2 0x1013 DUP6 PUSH2 0x27A7 JUMP JUMPDEST PUSH1 0x2 DUP2 ADD SLOAD PUSH1 0x40 DUP7 ADD MSTORE PUSH1 0x3 DUP2 ADD SLOAD PUSH1 0x60 DUP7 ADD MSTORE PUSH1 0xFF PUSH1 0x4 DUP3 ADD SLOAD AND ISZERO ISZERO PUSH1 0x80 DUP7 ADD MSTORE PUSH1 0x5 DUP2 ADD SLOAD PUSH1 0xA0 DUP7 ADD MSTORE PUSH1 0xFF PUSH1 0x6 DUP3 ADD SLOAD AND ISZERO ISZERO PUSH1 0xC0 DUP7 ADD MSTORE PUSH1 0x7 DUP2 ADD SLOAD PUSH1 0xE0 DUP7 ADD MSTORE PUSH1 0x8 DUP2 ADD SLOAD PUSH2 0x100 DUP7 ADD MSTORE PUSH1 0x9 DUP2 ADD SLOAD PUSH2 0x120 DUP7 ADD MSTORE PUSH1 0xA DUP2 ADD SLOAD PUSH2 0x140 DUP7 ADD MSTORE PUSH1 0xB DUP2 ADD SLOAD PUSH2 0x160 DUP7 ADD MSTORE PUSH1 0xC DUP2 ADD SLOAD PUSH2 0x180 DUP7 ADD MSTORE ADD SLOAD PUSH2 0x1A0 DUP5 ADD MSTORE DUP4 DUP4 MSTORE TIMESTAMP PUSH1 0x20 DUP5 ADD MSTORE ADD DUP5 MSTORE PUSH1 0xB PUSH1 0x20 MSTORE PUSH1 0xD PUSH2 0x1A0 PUSH1 0x40 DUP7 KECCAK256 SWAP3 DUP1 MLOAD DUP5 SSTORE PUSH1 0x20 DUP2 ADD MLOAD PUSH1 0x1 DUP6 ADD SSTORE PUSH1 0x40 DUP2 ADD MLOAD PUSH1 0x2 DUP6 ADD SSTORE PUSH1 0x60 DUP2 ADD MLOAD PUSH1 0x3 DUP6 ADD SSTORE PUSH2 0x10F4 PUSH1 0x80 DUP3 ADD MLOAD ISZERO ISZERO PUSH1 0x4 DUP7 ADD SWAP1 PUSH1 0xFF DUP1 NOT DUP4 SLOAD AND SWAP2 ISZERO ISZERO AND OR SWAP1 SSTORE JUMP JUMPDEST PUSH1 0xA0 DUP2 ADD MLOAD PUSH1 0x5 DUP6 ADD SSTORE PUSH2 0x111D PUSH1 0xC0 DUP3 ADD MLOAD ISZERO ISZERO PUSH1 0x6 DUP7 ADD SWAP1 PUSH1 0xFF DUP1 NOT DUP4 SLOAD AND SWAP2 ISZERO ISZERO AND OR SWAP1 SSTORE JUMP JUMPDEST PUSH1 0xE0 DUP2 ADD MLOAD PUSH1 0x7 DUP6 ADD SSTORE PUSH2 0x100 DUP2 ADD MLOAD PUSH1 0x8 DUP6 ADD SSTORE PUSH2 0x120 DUP2 ADD MLOAD PUSH1 0x9 DUP6 ADD SSTORE PUSH2 0x140 DUP2 ADD MLOAD PUSH1 0xA DUP6 ADD SSTORE PUSH2 0x160 DUP2 ADD MLOAD PUSH1 0xB DUP6 ADD SSTORE PUSH2 0x180 DUP2 ADD MLOAD PUSH1 0xC DUP6 ADD SSTORE ADD MLOAD SWAP2 ADD SSTORE PUSH1 0x9 PUSH1 0x20 MSTORE PUSH1 0x40 DUP4 KECCAK256 PUSH1 0x1 PUSH1 0xFF NOT DUP3 SLOAD AND OR SWAP1 SSTORE DUP3 MSTORE PUSH1 0xC PUSH1 0x20 MSTORE PUSH1 0x40 DUP3 KECCAK256 DUP1 SLOAD SWAP2 PUSH1 0x1 DUP4 ADD DUP1 SWAP4 GT PUSH2 0x1195 JUMPI POP SSTORE DUP1 RETURN JUMPDEST PUSH4 0x4E487B71 PUSH1 0xE0 SHL DUP5 MSTORE PUSH1 0x11 PUSH1 0x4 MSTORE DUP4 REVERT JUMPDEST PUSH4 0x4E487B71 PUSH1 0xE0 SHL DUP5 MSTORE PUSH1 0x11 PUSH1 0x4 MSTORE DUP3 DUP5 REVERT JUMPDEST PUSH1 0x64 DUP3 PUSH1 0x4 PUSH1 0x40 MLOAD SWAP2 PUSH3 0x461BCD PUSH1 0xE5 SHL DUP4 MSTORE PUSH1 0x20 DUP3 DUP5 ADD MSTORE DUP3 ADD MSTORE PUSH4 0x52523939 PUSH1 0xE0 SHL PUSH1 0x44 DUP3 ADD MSTORE REVERT JUMPDEST PUSH2 0x1206 SWAP2 POP PUSH1 0x40 RETURNDATASIZE PUSH1 0x40 GT PUSH2 0x120E JUMPI JUMPDEST PUSH2 0x11FE DUP2 DUP4 PUSH2 0x27DE JUMP JUMPDEST DUP2 ADD SWAP1 PUSH2 0x2C13 JUMP JUMPDEST SWAP1 POP CODESIZE PUSH2 0xF99 JUMP JUMPDEST POP RETURNDATASIZE PUSH2 0x11F4 JUMP JUMPDEST PUSH2 0x1221 SWAP2 SWAP3 SWAP4 POP PUSH2 0x277E JUMP JUMPDEST PUSH2 0x971 JUMPI DUP3 SWAP1 DUP5 CODESIZE PUSH2 0xF67 JUMP JUMPDEST POP PUSH1 0x40 MLOAD SWAP1 RETURNDATASIZE SWAP1 DUP3 RETURNDATACOPY RETURNDATASIZE SWAP1 REVERT JUMPDEST SWAP1 SWAP3 POP PUSH1 0x20 DUP2 RETURNDATASIZE PUSH1 0x20 GT PUSH2 0x1267 JUMPI JUMPDEST DUP2 PUSH2 0x1257 PUSH1 0x20 SWAP4 DUP4 PUSH2 0x27DE JUMP JUMPDEST DUP2 ADD SUB SLT PUSH2 0x441 JUMPI MLOAD SWAP2 CODESIZE PUSH2 0xF34 JUMP JUMPDEST RETURNDATASIZE SWAP2 POP PUSH2 0x124A JUMP JUMPDEST PUSH1 0x40 MLOAD RETURNDATASIZE DUP8 DUP3 RETURNDATACOPY RETURNDATASIZE SWAP1 REVERT JUMPDEST PUSH2 0x1286 SWAP2 SWAP3 SWAP5 POP PUSH2 0x277E JUMP JUMPDEST PUSH2 0x971 JUMPI DUP3 SWAP2 DUP5 CODESIZE PUSH2 0xF04 JUMP JUMPDEST POP CALLVALUE PUSH2 0x12C JUMPI DUP1 PUSH1 0x3 NOT CALLDATASIZE ADD SLT PUSH2 0x12C JUMPI PUSH1 0x7 SLOAD PUSH1 0x1 PUSH1 0x1 PUSH1 0xA0 SHL SUB SWAP1 DUP3 SWAP1 DUP3 AND DUP1 EXTCODESIZE ISZERO PUSH2 0x462 JUMPI DUP2 PUSH1 0x24 SWAP2 PUSH1 0x40 MLOAD SWAP3 DUP4 DUP1 SWAP3 PUSH4 0x423164BF PUSH1 0xE1 SHL DUP3 MSTORE CALLER PUSH1 0x4 DUP4 ADD MSTORE GAS STATICCALL DUP1 ISZERO PUSH2 0x40C JUMPI PUSH2 0x13C0 JUMPI JUMPDEST POP POP PUSH1 0x20 PUSH1 0x24 SWAP2 PUSH1 0x3 SLOAD AND PUSH1 0x40 MLOAD SWAP3 DUP4 DUP1 SWAP3 PUSH4 0x18FE01C7 PUSH1 0xE2 SHL DUP3 MSTORE CALLER PUSH1 0x4 DUP4 ADD MSTORE GAS STATICCALL SWAP1 DUP2 ISZERO PUSH2 0x40C JUMPI DUP3 SWAP2 PUSH2 0x138E JUMPI JUMPDEST POP CALLER DUP3 MSTORE PUSH1 0x8 PUSH1 0x20 MSTORE PUSH1 0x40 DUP3 KECCAK256 SLOAD DUP1 DUP4 MSTORE PUSH1 0x9 PUSH1 0x20 MSTORE PUSH2 0x1340 PUSH1 0x1 PUSH1 0xFF PUSH1 0x40 DUP7 KECCAK256 SLOAD AND ISZERO ISZERO EQ PUSH2 0x2902 JUMP JUMPDEST DUP1 DUP4 MSTORE PUSH1 0xB PUSH1 0x20 MSTORE PUSH2 0x135D PUSH1 0x40 DUP5 KECCAK256 SWAP3 PUSH1 0x40 MLOAD SWAP4 PUSH2 0x222 DUP6 PUSH2 0x27A7 JUMP JUMPDEST PUSH2 0x136C PUSH1 0xA0 DUP4 ADD MLOAD ISZERO ISZERO PUSH2 0x2E01 JUMP JUMPDEST PUSH2 0x137A PUSH1 0xE0 DUP4 ADD MLOAD ISZERO PUSH2 0x2E35 JUMP JUMPDEST PUSH2 0x2F6 PUSH2 0x12C PUSH2 0x2F0 PUSH1 0xA0 DUP6 ADD MLOAD TIMESTAMP PUSH2 0x2A04 JUMP JUMPDEST SWAP1 POP PUSH1 0x20 DUP2 RETURNDATASIZE PUSH1 0x20 GT PUSH2 0x13B8 JUMPI JUMPDEST DUP2 PUSH2 0x13A9 PUSH1 0x20 SWAP4 DUP4 PUSH2 0x27DE JUMP JUMPDEST DUP2 ADD SUB SLT PUSH2 0x441 JUMPI MLOAD CODESIZE PUSH2 0x1315 JUMP JUMPDEST RETURNDATASIZE SWAP2 POP PUSH2 0x139C JUMP JUMPDEST PUSH2 0x13C9 SWAP1 PUSH2 0x277E JUMP JUMPDEST PUSH2 0x462 JUMPI DUP2 CODESIZE PUSH2 0x12E3 JUMP JUMPDEST POP CALLVALUE PUSH2 0x12C JUMPI PUSH2 0x13E3 CALLDATASIZE PUSH2 0x289D JUMP JUMPDEST PUSH1 0x1 SLOAD PUSH1 0x40 MLOAD PUSH4 0xF0ABDA5D PUSH1 0xE0 SHL DUP2 MSTORE PUSH1 0x1 PUSH1 0x1 PUSH1 0xA0 SHL SUB SWAP4 SWAP2 PUSH1 0x20 SWAP1 DUP3 SWAP1 PUSH1 0x4 SWAP1 DUP3 SWAP1 DUP9 AND GAS STATICCALL DUP1 ISZERO PUSH2 0x126F JUMPI DUP5 SWAP2 DUP7 SWAP2 PUSH2 0x16C9 JUMPI JUMPDEST POP AND CALLER SUB PUSH2 0x971 JUMPI DUP4 DUP4 PUSH1 0x7 SLOAD AND DUP1 EXTCODESIZE ISZERO PUSH2 0x462 JUMPI PUSH1 0x40 MLOAD PUSH4 0x423164BF PUSH1 0xE1 SHL DUP2 MSTORE SWAP3 DUP6 AND PUSH1 0x4 DUP5 ADD DUP2 SWAP1 MSTORE SWAP3 DUP3 DUP2 PUSH1 0x24 DUP2 DUP6 GAS STATICCALL DUP1 ISZERO PUSH2 0x9EF JUMPI PUSH2 0x16B5 JUMPI JUMPDEST POP PUSH1 0x20 PUSH1 0x24 SWAP6 PUSH1 0x3 SLOAD AND PUSH1 0x40 MLOAD SWAP7 DUP8 DUP1 SWAP3 PUSH4 0x18FE01C7 PUSH1 0xE2 SHL DUP3 MSTORE DUP8 PUSH1 0x4 DUP4 ADD MSTORE GAS STATICCALL SWAP5 DUP6 ISZERO PUSH2 0x40C JUMPI DUP3 SWAP6 PUSH2 0x167E JUMPI JUMPDEST POP DUP1 EXTCODESIZE ISZERO PUSH2 0x462 JUMPI DUP2 PUSH1 0x24 SWAP2 PUSH1 0x40 MLOAD SWAP3 DUP4 DUP1 SWAP3 PUSH4 0x8788EB1 PUSH1 0xE2 SHL DUP3 MSTORE DUP10 PUSH1 0x4 DUP4 ADD MSTORE GAS STATICCALL DUP1 ISZERO PUSH2 0x40C JUMPI PUSH2 0x166A JUMPI JUMPDEST POP MSTORE PUSH1 0x8 PUSH1 0x20 MSTORE PUSH1 0x40 DUP4 KECCAK256 SLOAD SWAP1 DUP2 DUP5 MSTORE PUSH1 0x9 PUSH1 0x20 MSTORE PUSH2 0x14E5 PUSH1 0x1 PUSH1 0xFF PUSH1 0x40 DUP8 KECCAK256 SLOAD AND ISZERO ISZERO EQ PUSH2 0x2902 JUMP JUMPDEST DUP2 DUP5 MSTORE PUSH1 0xB PUSH1 0x20 MSTORE PUSH2 0x159F PUSH1 0x40 DUP6 KECCAK256 SWAP4 PUSH1 0x40 MLOAD SWAP5 PUSH2 0x1502 DUP7 PUSH2 0x27A7 JUMP JUMPDEST PUSH1 0xD DUP2 SLOAD SWAP2 DUP3 DUP9 MSTORE PUSH1 0x1 DUP2 ADD SLOAD PUSH1 0x20 DUP10 ADD MSTORE PUSH1 0x2 DUP2 ADD SLOAD PUSH1 0x40 DUP10 ADD MSTORE PUSH1 0x3 DUP2 ADD SLOAD PUSH1 0x60 DUP10 ADD MSTORE PUSH1 0xFF PUSH1 0x4 DUP3 ADD SLOAD AND ISZERO ISZERO PUSH1 0x80 DUP10 ADD MSTORE PUSH1 0x5 DUP2 ADD SLOAD PUSH1 0xA0 DUP10 ADD MSTORE PUSH1 0xFF PUSH1 0x6 DUP3 ADD SLOAD AND ISZERO ISZERO PUSH1 0xC0 DUP10 ADD MSTORE PUSH1 0x7 DUP2 ADD SLOAD PUSH1 0xE0 DUP10 ADD MSTORE PUSH1 0x8 DUP2 ADD SLOAD PUSH2 0x100 DUP10 ADD MSTORE PUSH1 0x9 DUP2 ADD SLOAD PUSH2 0x120 DUP10 ADD MSTORE PUSH1 0xA DUP2 ADD SLOAD PUSH2 0x140 DUP10 ADD MSTORE PUSH1 0xB DUP2 ADD SLOAD PUSH2 0x160 DUP10 ADD MSTORE PUSH1 0xC DUP2 ADD SLOAD PUSH2 0x180 DUP10 ADD MSTORE ADD SLOAD PUSH2 0x1A0 DUP8 ADD MSTORE EQ PUSH2 0x2936 JUMP JUMPDEST PUSH2 0x15AE PUSH1 0xA0 DUP5 ADD MLOAD ISZERO ISZERO PUSH2 0x2E01 JUMP JUMPDEST PUSH1 0x1 PUSH1 0x80 DUP5 ADD MLOAD ISZERO ISZERO SUB PUSH2 0x163D JUMPI PUSH2 0x15CA PUSH1 0xE0 DUP5 ADD MLOAD ISZERO PUSH2 0x2E35 JUMP JUMPDEST PUSH2 0x15DE PUSH2 0x12C PUSH2 0x800 PUSH1 0xA0 DUP7 ADD MLOAD TIMESTAMP PUSH2 0x2A04 JUMP JUMPDEST ISZERO ISZERO PUSH1 0xC0 DUP4 ADD MSTORE TIMESTAMP PUSH1 0xE0 DUP4 ADD MSTORE DUP3 MSTORE PUSH1 0xB PUSH1 0x20 MSTORE PUSH1 0xD PUSH2 0x1A0 PUSH1 0x40 DUP5 KECCAK256 SWAP3 DUP1 MLOAD DUP5 SSTORE PUSH1 0x20 DUP2 ADD MLOAD PUSH1 0x1 DUP6 ADD SSTORE PUSH1 0x40 DUP2 ADD MLOAD PUSH1 0x2 DUP6 ADD SSTORE PUSH1 0x60 DUP2 ADD MLOAD PUSH1 0x3 DUP6 ADD SSTORE PUSH2 0x86D PUSH1 0x80 DUP3 ADD MLOAD ISZERO ISZERO PUSH1 0x4 DUP7 ADD SWAP1 PUSH1 0xFF DUP1 NOT DUP4 SLOAD AND SWAP2 ISZERO ISZERO AND OR SWAP1 SSTORE JUMP JUMPDEST PUSH1 0x40 MLOAD PUSH3 0x461BCD PUSH1 0xE5 SHL DUP2 MSTORE PUSH1 0x20 PUSH1 0x4 DUP3 ADD MSTORE PUSH1 0x5 PUSH1 0x24 DUP3 ADD MSTORE PUSH5 0x5252313131 PUSH1 0xD8 SHL PUSH1 0x44 DUP3 ADD MSTORE PUSH1 0x64 SWAP1 REVERT JUMPDEST PUSH2 0x1673 SWAP1 PUSH2 0x277E JUMP JUMPDEST PUSH2 0x971 JUMPI DUP4 CODESIZE PUSH2 0x14BB JUMP JUMPDEST SWAP2 POP SWAP4 POP PUSH1 0x20 DUP2 RETURNDATASIZE PUSH1 0x20 GT PUSH2 0x16AD JUMPI JUMPDEST DUP2 PUSH2 0x169B PUSH1 0x20 SWAP4 DUP4 PUSH2 0x27DE JUMP JUMPDEST DUP2 ADD SUB SLT PUSH2 0x441 JUMPI DUP5 SWAP1 MLOAD SWAP4 CODESIZE PUSH2 0x148B JUMP JUMPDEST RETURNDATASIZE SWAP2 POP PUSH2 0x168E JUMP JUMPDEST PUSH2 0x16BF DUP4 SWAP2 PUSH2 0x277E JUMP JUMPDEST PUSH2 0x462 JUMPI CODESIZE PUSH2 0x145A JUMP JUMPDEST PUSH2 0x16E2 SWAP2 POP PUSH1 0x20 RETURNDATASIZE PUSH1 0x20 GT PUSH2 0x9E8 JUMPI PUSH2 0x9DA DUP2 DUP4 PUSH2 0x27DE JUMP JUMPDEST CODESIZE PUSH2 0x141A JUMP JUMPDEST POP CALLVALUE PUSH2 0x12C JUMPI PUSH1 0x40 CALLDATASIZE PUSH1 0x3 NOT ADD SLT PUSH2 0x12C JUMPI PUSH1 0x4 CALLDATALOAD PUSH1 0x1 PUSH1 0x1 PUSH1 0x40 SHL SUB DUP2 GT PUSH2 0x462 JUMPI PUSH2 0x1719 SWAP1 CALLDATASIZE SWAP1 PUSH1 0x4 ADD PUSH2 0x27FF JUMP JUMPDEST PUSH1 0x7 SLOAD PUSH1 0x1 PUSH1 0x1 PUSH1 0xA0 SHL SUB AND DUP1 EXTCODESIZE ISZERO PUSH2 0x962 JUMPI PUSH1 0x40 MLOAD PUSH4 0x423164BF PUSH1 0xE1 SHL DUP2 MSTORE CALLER PUSH1 0x4 DUP3 ADD MSTORE DUP4 SWAP1 DUP2 DUP2 PUSH1 0x24 DUP2 DUP7 GAS STATICCALL DUP1 ISZERO PUSH2 0x40C JUMPI PUSH2 0x1B35 JUMPI JUMPDEST POP POP PUSH1 0x3 SLOAD PUSH1 0x40 MLOAD PUSH4 0x18FE01C7 PUSH1 0xE2 SHL DUP2 MSTORE CALLER PUSH1 0x4 DUP3 ADD MSTORE SWAP3 SWAP1 PUSH1 0x20 SWAP1 DUP5 SWAP1 PUSH1 0x24 SWAP1 DUP3 SWAP1 PUSH1 0x1 PUSH1 0x1 PUSH1 0xA0 SHL SUB AND GAS STATICCALL SWAP3 DUP4 ISZERO PUSH2 0x966 JUMPI DUP5 SWAP4 PUSH2 0x1B01 JUMPI JUMPDEST POP DUP2 EXTCODESIZE ISZERO PUSH2 0x971 JUMPI DUP4 PUSH1 0x40 MLOAD PUSH4 0x8788EB1 PUSH1 0xE2 SHL DUP2 MSTORE DUP5 PUSH1 0x4 DUP3 ADD MSTORE DUP2 DUP2 PUSH1 0x24 DUP2 DUP8 GAS STATICCALL DUP1 ISZERO PUSH2 0x40C JUMPI PUSH2 0x1AED JUMPI JUMPDEST POP POP CALLER DUP5 MSTORE PUSH1 0x8 PUSH1 0x20 MSTORE PUSH1 0x40 DUP5 KECCAK256 SLOAD SWAP2 DUP3 DUP6 MSTORE PUSH1 0x9 PUSH1 0x20 MSTORE PUSH2 0x17ED PUSH1 0x1 PUSH1 0xFF PUSH1 0x40 DUP9 KECCAK256 SLOAD AND ISZERO ISZERO EQ PUSH2 0x2902 JUMP JUMPDEST DUP3 DUP6 MSTORE PUSH1 0xB PUSH1 0x20 MSTORE PUSH2 0x18A7 PUSH1 0x40 DUP7 KECCAK256 SWAP5 PUSH1 0x40 MLOAD SWAP6 PUSH2 0x180A DUP8 PUSH2 0x27A7 JUMP JUMPDEST PUSH1 0xD DUP2 SLOAD SWAP2 DUP3 DUP10 MSTORE PUSH1 0x1 DUP2 ADD SLOAD PUSH1 0x20 DUP11 ADD MSTORE PUSH1 0x2 DUP2 ADD SLOAD PUSH1 0x40 DUP11 ADD MSTORE PUSH1 0x3 DUP2 ADD SLOAD PUSH1 0x60 DUP11 ADD MSTORE PUSH1 0xFF PUSH1 0x4 DUP3 ADD SLOAD AND ISZERO ISZERO PUSH1 0x80 DUP11 ADD MSTORE PUSH1 0x5 DUP2 ADD SLOAD PUSH1 0xA0 DUP11 ADD MSTORE PUSH1 0xFF PUSH1 0x6 DUP3 ADD SLOAD AND ISZERO ISZERO PUSH1 0xC0 DUP11 ADD MSTORE PUSH1 0x7 DUP2 ADD SLOAD PUSH1 0xE0 DUP11 ADD MSTORE PUSH1 0x8 DUP2 ADD SLOAD PUSH2 0x100 DUP11 ADD MSTORE PUSH1 0x9 DUP2 ADD SLOAD PUSH2 0x120 DUP11 ADD MSTORE PUSH1 0xA DUP2 ADD SLOAD PUSH2 0x140 DUP11 ADD MSTORE PUSH1 0xB DUP2 ADD SLOAD PUSH2 0x160 DUP11 ADD MSTORE PUSH1 0xC DUP2 ADD SLOAD PUSH2 0x180 DUP11 ADD MSTORE ADD SLOAD PUSH2 0x1A0 DUP9 ADD MSTORE EQ PUSH2 0x2936 JUMP JUMPDEST PUSH1 0x5 SLOAD PUSH1 0x40 DUP1 MLOAD PUSH4 0x1E3FBAF3 PUSH1 0xE0 SHL DUP2 MSTORE CALLER PUSH1 0x4 DUP3 ADD MSTORE PUSH1 0x1 PUSH1 0x1 PUSH1 0xA0 SHL SUB SWAP1 SWAP3 AND SWAP4 SWAP2 DUP8 SWAP2 DUP2 PUSH1 0x24 DUP2 DUP9 GAS STATICCALL DUP1 ISZERO PUSH2 0x40C JUMPI DUP3 SWAP2 DUP4 SWAP2 PUSH2 0x1AC8 JUMPI JUMPDEST POP PUSH2 0x18EE SWAP1 ISZERO PUSH2 0x2C30 JUMP JUMPDEST PUSH1 0x24 PUSH1 0x40 MLOAD DUP1 SWAP7 DUP2 SWAP4 PUSH4 0x60785D7B PUSH1 0xE1 SHL DUP4 MSTORE PUSH1 0x4 DUP4 ADD MSTORE GAS STATICCALL SWAP3 DUP4 ISZERO PUSH2 0x1ABD JUMPI DUP7 SWAP1 DUP8 SWAP5 PUSH2 0x1A7E JUMPI JUMPDEST POP PUSH1 0x24 CALLDATALOAD SUB PUSH2 0x1A51 JUMPI PUSH1 0x40 MLOAD PUSH2 0x194B PUSH1 0x20 DUP3 DUP2 PUSH2 0x193E DUP2 DUP4 ADD SWAP7 DUP8 DUP2 MLOAD SWAP4 DUP5 SWAP3 ADD PUSH2 0x2855 JUMP JUMPDEST DUP2 ADD SUB DUP1 DUP5 MSTORE ADD DUP3 PUSH2 0x27DE JUMP JUMPDEST MLOAD SWAP1 KECCAK256 SWAP2 DUP3 SUB PUSH2 0x1A24 JUMPI DUP5 SWAP2 DUP2 EXTCODESIZE ISZERO PUSH2 0x962 JUMPI DUP3 SWAP1 PUSH1 0x24 PUSH1 0x40 MLOAD DUP1 SWAP5 DUP2 SWAP4 PUSH4 0x4EF630A1 PUSH1 0xE1 SHL DUP4 MSTORE PUSH1 0x4 DUP4 ADD MSTORE GAS STATICCALL DUP1 ISZERO PUSH2 0x40C JUMPI PUSH2 0x1A10 JUMPI JUMPDEST POP POP PUSH2 0x1996 PUSH1 0x40 DUP4 ADD MLOAD ISZERO ISZERO PUSH2 0x2D99 JUMP JUMPDEST PUSH2 0x19A4 PUSH1 0x60 DUP4 ADD MLOAD ISZERO PUSH2 0x2DCD JUMP JUMPDEST PUSH2 0x19B8 PUSH2 0x12C PUSH2 0x800 PUSH1 0x40 DUP6 ADD MLOAD TIMESTAMP PUSH2 0x2A04 JUMP JUMPDEST TIMESTAMP PUSH1 0x60 DUP4 ADD MSTORE DUP3 MSTORE PUSH1 0xB PUSH1 0x20 MSTORE PUSH1 0xD PUSH2 0x1A0 PUSH1 0x40 DUP5 KECCAK256 SWAP3 DUP1 MLOAD DUP5 SSTORE PUSH1 0x20 DUP2 ADD MLOAD PUSH1 0x1 DUP6 ADD SSTORE PUSH1 0x40 DUP2 ADD MLOAD PUSH1 0x2 DUP6 ADD SSTORE PUSH1 0x60 DUP2 ADD MLOAD PUSH1 0x3 DUP6 ADD SSTORE PUSH2 0x86D PUSH1 0x80 DUP3 ADD MLOAD ISZERO ISZERO PUSH1 0x4 DUP7 ADD SWAP1 PUSH1 0xFF DUP1 NOT DUP4 SLOAD AND SWAP2 ISZERO ISZERO AND OR SWAP1 SSTORE JUMP JUMPDEST PUSH2 0x1A19 SWAP1 PUSH2 0x277E JUMP JUMPDEST PUSH2 0x962 JUMPI DUP3 CODESIZE PUSH2 0x1985 JUMP JUMPDEST PUSH1 0x40 MLOAD PUSH3 0x461BCD PUSH1 0xE5 SHL DUP2 MSTORE PUSH1 0x20 PUSH1 0x4 DUP3 ADD MSTORE PUSH1 0x5 PUSH1 0x24 DUP3 ADD MSTORE PUSH5 0x5252313035 PUSH1 0xD8 SHL PUSH1 0x44 DUP3 ADD MSTORE PUSH1 0x64 SWAP1 REVERT JUMPDEST PUSH1 0x40 MLOAD PUSH3 0x461BCD PUSH1 0xE5 SHL DUP2 MSTORE PUSH1 0x20 PUSH1 0x4 DUP3 ADD MSTORE PUSH1 0x5 PUSH1 0x24 DUP3 ADD MSTORE PUSH5 0x14948C4C0D PUSH1 0xDA SHL PUSH1 0x44 DUP3 ADD MSTORE PUSH1 0x64 SWAP1 REVERT JUMPDEST SWAP1 POP PUSH2 0x1A9D SWAP2 SWAP4 POP RETURNDATASIZE DUP1 DUP9 DUP4 RETURNDATACOPY PUSH2 0x1A95 DUP2 DUP4 PUSH2 0x27DE JUMP JUMPDEST DUP2 ADD SWAP1 PUSH2 0x2C62 JUMP JUMPDEST POP POP POP POP POP POP POP POP POP POP POP POP POP POP SWAP12 SWAP10 POP POP POP POP SWAP5 POP POP POP POP POP CODESIZE PUSH2 0x1918 JUMP JUMPDEST PUSH1 0x40 MLOAD RETURNDATASIZE DUP9 DUP3 RETURNDATACOPY RETURNDATASIZE SWAP1 REVERT JUMPDEST PUSH2 0x18EE SWAP3 POP PUSH2 0x1AE6 SWAP2 POP PUSH1 0x40 RETURNDATASIZE PUSH1 0x40 GT PUSH2 0x120E JUMPI PUSH2 0x11FE DUP2 DUP4 PUSH2 0x27DE JUMP JUMPDEST SWAP1 SWAP2 PUSH2 0x18E3 JUMP JUMPDEST PUSH2 0x1AF6 SWAP1 PUSH2 0x277E JUMP JUMPDEST PUSH2 0x971 JUMPI DUP4 CODESIZE PUSH2 0x17C0 JUMP JUMPDEST SWAP1 SWAP3 POP PUSH1 0x20 DUP2 RETURNDATASIZE PUSH1 0x20 GT PUSH2 0x1B2D JUMPI JUMPDEST DUP2 PUSH2 0x1B1D PUSH1 0x20 SWAP4 DUP4 PUSH2 0x27DE JUMP JUMPDEST DUP2 ADD SUB SLT PUSH2 0x441 JUMPI MLOAD SWAP2 CODESIZE PUSH2 0x1791 JUMP JUMPDEST RETURNDATASIZE SWAP2 POP PUSH2 0x1B10 JUMP JUMPDEST PUSH2 0x1B3E SWAP1 PUSH2 0x277E JUMP JUMPDEST PUSH2 0x962 JUMPI DUP3 CODESIZE PUSH2 0x1754 JUMP JUMPDEST POP CALLVALUE PUSH2 0x12C JUMPI DUP1 PUSH1 0x3 NOT CALLDATASIZE ADD SLT PUSH2 0x12C JUMPI PUSH1 0x20 PUSH1 0x40 MLOAD PUSH2 0x1F4 DUP2 MSTORE RETURN JUMPDEST POP CALLVALUE PUSH2 0x12C JUMPI PUSH1 0x20 CALLDATASIZE PUSH1 0x3 NOT ADD SLT PUSH2 0x12C JUMPI PUSH1 0x40 SWAP1 PUSH1 0x4 CALLDATALOAD DUP2 MSTORE PUSH1 0xD PUSH1 0x20 MSTORE KECCAK256 PUSH1 0x40 MLOAD PUSH2 0x1B92 DUP2 PUSH2 0x27C3 JUMP JUMPDEST DUP2 SLOAD DUP2 MSTORE PUSH2 0x1BA2 PUSH1 0x1 DUP4 ADD PUSH2 0x2B61 JUMP JUMPDEST SWAP1 PUSH1 0x20 DUP2 ADD SWAP2 DUP3 MSTORE PUSH2 0x1BF9 PUSH1 0x3 PUSH2 0x1BBB PUSH1 0x2 DUP7 ADD PUSH2 0x2B61 JUMP JUMPDEST SWAP5 DUP6 PUSH1 0x40 DUP6 ADD MSTORE ADD SLOAD SWAP2 DUP3 PUSH1 0x60 DUP3 ADD MSTORE MLOAD SWAP3 MLOAD SWAP4 PUSH2 0x1BEB PUSH1 0x40 MLOAD SWAP6 DUP7 SWAP6 DUP7 MSTORE PUSH1 0x80 PUSH1 0x20 DUP8 ADD MSTORE PUSH1 0x80 DUP7 ADD SWAP1 PUSH2 0x2878 JUMP JUMPDEST SWAP1 DUP5 DUP3 SUB PUSH1 0x40 DUP7 ADD MSTORE PUSH2 0x2878 JUMP JUMPDEST SWAP1 PUSH1 0x60 DUP4 ADD MSTORE SUB SWAP1 RETURN JUMPDEST POP CALLVALUE PUSH2 0x12C JUMPI DUP1 PUSH1 0x3 NOT CALLDATASIZE ADD SLT PUSH2 0x12C JUMPI PUSH1 0x4 SLOAD PUSH1 0x40 MLOAD PUSH1 0x1 PUSH1 0x1 PUSH1 0xA0 SHL SUB SWAP1 SWAP2 AND DUP2 MSTORE PUSH1 0x20 SWAP1 RETURN JUMPDEST POP PUSH1 0x20 CALLDATASIZE PUSH1 0x3 NOT ADD SLT PUSH2 0x12C JUMPI PUSH2 0x1C41 PUSH2 0x2768 JUMP JUMPDEST PUSH1 0x1 SLOAD PUSH1 0x40 MLOAD PUSH4 0xF0ABDA5D PUSH1 0xE0 SHL DUP2 MSTORE PUSH1 0x1 PUSH1 0x1 PUSH1 0xA0 SHL SUB SWAP3 SWAP2 PUSH1 0x20 SWAP1 DUP3 SWAP1 PUSH1 0x4 SWAP1 DUP3 SWAP1 DUP8 AND GAS STATICCALL DUP1 ISZERO PUSH2 0x966 JUMPI DUP4 SWAP2 DUP6 SWAP2 PUSH2 0x1E54 JUMPI JUMPDEST POP AND CALLER SUB PUSH2 0x962 JUMPI DUP3 DUP3 PUSH1 0x7 SLOAD AND DUP1 EXTCODESIZE ISZERO PUSH2 0x462 JUMPI PUSH1 0x40 MLOAD PUSH4 0x423164BF PUSH1 0xE1 SHL DUP2 MSTORE SWAP3 DUP5 AND PUSH1 0x4 DUP5 ADD DUP2 SWAP1 MSTORE SWAP3 DUP3 DUP2 PUSH1 0x24 DUP2 DUP6 GAS STATICCALL DUP1 ISZERO PUSH2 0x9EF JUMPI PUSH2 0x1E40 JUMPI JUMPDEST POP PUSH1 0x20 PUSH1 0x24 SWAP5 PUSH1 0x3 SLOAD AND PUSH1 0x40 MLOAD SWAP6 DUP7 DUP1 SWAP3 PUSH4 0x18FE01C7 PUSH1 0xE2 SHL DUP3 MSTORE DUP8 PUSH1 0x4 DUP4 ADD MSTORE GAS STATICCALL SWAP4 DUP5 ISZERO PUSH2 0x40C JUMPI DUP3 SWAP5 PUSH2 0x1E09 JUMPI JUMPDEST POP DUP1 EXTCODESIZE ISZERO PUSH2 0x462 JUMPI DUP2 PUSH1 0x24 SWAP2 PUSH1 0x40 MLOAD SWAP3 DUP4 DUP1 SWAP3 PUSH4 0x8788EB1 PUSH1 0xE2 SHL DUP3 MSTORE DUP9 PUSH1 0x4 DUP4 ADD MSTORE GAS STATICCALL DUP1 ISZERO PUSH2 0x40C JUMPI PUSH2 0x1DF5 JUMPI JUMPDEST POP MSTORE PUSH1 0x8 PUSH1 0x20 MSTORE PUSH1 0x40 DUP3 KECCAK256 SLOAD DUP1 DUP4 MSTORE PUSH1 0x9 PUSH1 0x20 MSTORE PUSH2 0x1D42 PUSH1 0x1 PUSH1 0xFF PUSH1 0x40 DUP7 KECCAK256 SLOAD AND ISZERO ISZERO EQ PUSH2 0x2902 JUMP JUMPDEST DUP1 DUP4 MSTORE PUSH1 0xB PUSH1 0x20 MSTORE PUSH2 0x1D5F PUSH1 0x40 DUP5 KECCAK256 SWAP3 PUSH1 0x40 MLOAD SWAP4 PUSH2 0x222 DUP6 PUSH2 0x27A7 JUMP JUMPDEST PUSH2 0x1D6C PUSH2 0x1F4 CALLVALUE EQ PUSH2 0x2AC7 JUMP JUMPDEST PUSH2 0x1D7B PUSH1 0x20 DUP4 ADD MLOAD ISZERO ISZERO PUSH2 0x2AF9 JUMP JUMPDEST PUSH2 0x1D8F PUSH2 0x12C PUSH2 0x800 PUSH1 0x20 DUP6 ADD MLOAD TIMESTAMP PUSH2 0x2A04 JUMP JUMPDEST PUSH2 0x1D9D PUSH1 0x40 DUP4 ADD MLOAD ISZERO PUSH2 0x2B2D JUMP JUMPDEST TIMESTAMP PUSH1 0x40 DUP4 ADD MSTORE DUP3 MSTORE PUSH1 0xB PUSH1 0x20 MSTORE PUSH1 0xD PUSH2 0x1A0 PUSH1 0x40 DUP5 KECCAK256 SWAP3 DUP1 MLOAD DUP5 SSTORE PUSH1 0x20 DUP2 ADD MLOAD PUSH1 0x1 DUP6 ADD SSTORE PUSH1 0x40 DUP2 ADD MLOAD PUSH1 0x2 DUP6 ADD SSTORE PUSH1 0x60 DUP2 ADD MLOAD PUSH1 0x3 DUP6 ADD SSTORE PUSH2 0x86D PUSH1 0x80 DUP3 ADD MLOAD ISZERO ISZERO PUSH1 0x4 DUP7 ADD SWAP1 PUSH1 0xFF DUP1 NOT DUP4 SLOAD AND SWAP2 ISZERO ISZERO AND OR SWAP1 SSTORE JUMP JUMPDEST PUSH2 0x1DFE SWAP1 PUSH2 0x277E JUMP JUMPDEST PUSH2 0x962 JUMPI DUP3 CODESIZE PUSH2 0x1D19 JUMP JUMPDEST SWAP2 POP SWAP3 POP PUSH1 0x20 DUP2 RETURNDATASIZE PUSH1 0x20 GT PUSH2 0x1E38 JUMPI JUMPDEST DUP2 PUSH2 0x1E26 PUSH1 0x20 SWAP4 DUP4 PUSH2 0x27DE JUMP JUMPDEST DUP2 ADD SUB SLT PUSH2 0x441 JUMPI DUP4 SWAP1 MLOAD SWAP3 CODESIZE PUSH2 0x1CE9 JUMP JUMPDEST RETURNDATASIZE SWAP2 POP PUSH2 0x1E19 JUMP JUMPDEST PUSH2 0x1E4A DUP4 SWAP2 PUSH2 0x277E JUMP JUMPDEST PUSH2 0x462 JUMPI CODESIZE PUSH2 0x1CB8 JUMP JUMPDEST PUSH2 0x1E6D SWAP2 POP PUSH1 0x20 RETURNDATASIZE PUSH1 0x20 GT PUSH2 0x9E8 JUMPI PUSH2 0x9DA DUP2 DUP4 PUSH2 0x27DE JUMP JUMPDEST CODESIZE PUSH2 0x1C78 JUMP JUMPDEST POP CALLVALUE PUSH2 0x12C JUMPI DUP1 PUSH1 0x3 NOT CALLDATASIZE ADD SLT PUSH2 0x12C JUMPI PUSH1 0x7 SLOAD PUSH1 0x1 PUSH1 0x1 PUSH1 0xA0 SHL SUB SWAP1 DUP3 SWAP1 DUP3 AND DUP1 EXTCODESIZE ISZERO PUSH2 0x462 JUMPI DUP2 PUSH1 0x24 SWAP2 PUSH1 0x40 MLOAD SWAP3 DUP4 DUP1 SWAP3 PUSH4 0x423164BF PUSH1 0xE1 SHL DUP3 MSTORE CALLER PUSH1 0x4 DUP4 ADD MSTORE GAS STATICCALL DUP1 ISZERO PUSH2 0x40C JUMPI PUSH2 0x1F9F JUMPI JUMPDEST POP POP PUSH1 0x20 PUSH1 0x24 SWAP2 PUSH1 0x3 SLOAD AND PUSH1 0x40 MLOAD SWAP3 DUP4 DUP1 SWAP3 PUSH4 0x18FE01C7 PUSH1 0xE2 SHL DUP3 MSTORE CALLER PUSH1 0x4 DUP4 ADD MSTORE GAS STATICCALL SWAP1 DUP2 ISZERO PUSH2 0x40C JUMPI DUP3 SWAP2 PUSH2 0x1F6D JUMPI JUMPDEST POP CALLER DUP3 MSTORE PUSH1 0x8 PUSH1 0x20 MSTORE PUSH1 0x40 DUP3 KECCAK256 SLOAD DUP1 DUP4 MSTORE PUSH1 0x9 PUSH1 0x20 MSTORE PUSH2 0x1F20 PUSH1 0x1 PUSH1 0xFF PUSH1 0x40 DUP7 KECCAK256 SLOAD AND ISZERO ISZERO EQ PUSH2 0x2902 JUMP JUMPDEST DUP1 DUP4 MSTORE PUSH1 0xB PUSH1 0x20 MSTORE PUSH2 0x1F3D PUSH1 0x40 DUP5 KECCAK256 SWAP3 PUSH1 0x40 MLOAD SWAP4 PUSH2 0x222 DUP6 PUSH2 0x27A7 JUMP JUMPDEST PUSH2 0x1F4C PUSH1 0xE0 DUP4 ADD MLOAD ISZERO ISZERO PUSH2 0x2968 JUMP JUMPDEST PUSH2 0x1F5E PUSH1 0x1 PUSH1 0xC0 DUP5 ADD MLOAD ISZERO ISZERO EQ PUSH2 0x299C JUMP JUMPDEST PUSH2 0x583 PUSH2 0x120 DUP4 ADD MLOAD ISZERO PUSH2 0x29D0 JUMP JUMPDEST SWAP1 POP PUSH1 0x20 DUP2 RETURNDATASIZE PUSH1 0x20 GT PUSH2 0x1F97 JUMPI JUMPDEST DUP2 PUSH2 0x1F88 PUSH1 0x20 SWAP4 DUP4 PUSH2 0x27DE JUMP JUMPDEST DUP2 ADD SUB SLT PUSH2 0x441 JUMPI MLOAD CODESIZE PUSH2 0x1EF5 JUMP JUMPDEST RETURNDATASIZE SWAP2 POP PUSH2 0x1F7B JUMP JUMPDEST PUSH2 0x1FA8 SWAP1 PUSH2 0x277E JUMP JUMPDEST PUSH2 0x462 JUMPI DUP2 CODESIZE PUSH2 0x1EC3 JUMP JUMPDEST POP CALLVALUE PUSH2 0x12C JUMPI PUSH1 0x80 CALLDATASIZE PUSH1 0x3 NOT ADD SLT PUSH2 0x12C JUMPI PUSH2 0x1FCD PUSH2 0x2768 JUMP JUMPDEST SWAP1 PUSH1 0x44 CALLDATALOAD PUSH1 0x1 PUSH1 0x1 PUSH1 0x40 SHL SUB DUP2 GT PUSH2 0x462 JUMPI PUSH2 0x1FED SWAP1 CALLDATASIZE SWAP1 PUSH1 0x4 ADD PUSH2 0x27FF JUMP JUMPDEST PUSH1 0x64 CALLDATALOAD PUSH1 0x1 PUSH1 0x1 PUSH1 0x40 SHL SUB DUP2 GT PUSH2 0x962 JUMPI PUSH2 0x200C SWAP1 CALLDATASIZE SWAP1 PUSH1 0x4 ADD PUSH2 0x27FF JUMP JUMPDEST PUSH1 0x1 SLOAD PUSH1 0x40 MLOAD PUSH4 0xF0ABDA5D PUSH1 0xE0 SHL DUP2 MSTORE SWAP2 SWAP3 SWAP2 SWAP1 PUSH1 0x20 SWAP1 DUP3 SWAP1 PUSH1 0x4 SWAP1 DUP3 SWAP1 PUSH1 0x1 PUSH1 0x1 PUSH1 0xA0 SHL SUB AND GAS STATICCALL SWAP1 DUP2 ISZERO PUSH2 0x966 JUMPI DUP5 SWAP2 PUSH2 0x2749 JUMPI JUMPDEST POP PUSH1 0x1 PUSH1 0x1 PUSH1 0xA0 SHL SUB AND CALLER SUB PUSH2 0x962 JUMPI PUSH1 0x7 SLOAD PUSH1 0x1 PUSH1 0x1 PUSH1 0xA0 SHL SUB AND SWAP4 DUP5 EXTCODESIZE ISZERO PUSH2 0x971 JUMPI PUSH1 0x40 MLOAD PUSH4 0x423164BF PUSH1 0xE1 SHL DUP2 MSTORE PUSH1 0x1 PUSH1 0x1 PUSH1 0xA0 SHL SUB DUP3 AND PUSH1 0x4 DUP3 ADD MSTORE SWAP5 DUP5 DUP7 PUSH1 0x24 DUP2 DUP5 GAS STATICCALL SWAP6 DUP7 ISZERO PUSH2 0x126F JUMPI PUSH1 0x24 SWAP7 PUSH2 0x2736 JUMPI JUMPDEST POP PUSH1 0x3 SLOAD PUSH1 0x40 MLOAD PUSH4 0x18FE01C7 PUSH1 0xE2 SHL DUP2 MSTORE PUSH1 0x1 PUSH1 0x1 PUSH1 0xA0 SHL SUB DUP5 DUP2 AND PUSH1 0x4 DUP4 ADD MSTORE SWAP1 SWAP8 PUSH1 0x20 SWAP3 DUP10 SWAP3 DUP4 SWAP2 AND GAS STATICCALL SWAP6 DUP7 ISZERO PUSH2 0x126F JUMPI DUP6 SWAP7 PUSH2 0x2702 JUMPI JUMPDEST POP DUP1 EXTCODESIZE ISZERO PUSH2 0x2544 JUMPI DUP5 PUSH1 0x24 SWAP2 PUSH1 0x40 MLOAD SWAP3 DUP4 DUP1 SWAP3 PUSH4 0x8788EB1 PUSH1 0xE2 SHL DUP3 MSTORE DUP11 PUSH1 0x4 DUP4 ADD MSTORE GAS STATICCALL DUP1 ISZERO PUSH2 0x126F JUMPI SWAP1 DUP6 SWAP2 PUSH2 0x26EE JUMPI JUMPDEST POP POP PUSH1 0x1 DUP1 PUSH1 0xA0 SHL SUB DUP2 AND DUP5 MSTORE PUSH1 0x8 PUSH1 0x20 MSTORE PUSH1 0x40 DUP5 KECCAK256 SLOAD SWAP2 DUP3 DUP6 MSTORE PUSH1 0x9 PUSH1 0x20 MSTORE PUSH2 0x213E PUSH1 0x1 PUSH1 0xFF PUSH1 0x40 DUP9 KECCAK256 SLOAD AND ISZERO ISZERO EQ PUSH2 0x2902 JUMP JUMPDEST DUP3 DUP6 MSTORE PUSH1 0xB PUSH1 0x20 MSTORE PUSH1 0x40 DUP6 KECCAK256 SWAP4 PUSH2 0x21F9 DUP8 PUSH1 0x40 MLOAD SWAP7 PUSH2 0x215C DUP9 PUSH2 0x27A7 JUMP JUMPDEST PUSH1 0xD DUP2 SLOAD SWAP2 DUP3 DUP11 MSTORE PUSH1 0x1 DUP2 ADD SLOAD PUSH1 0x20 DUP12 ADD MSTORE PUSH1 0x2 DUP2 ADD SLOAD PUSH1 0x40 DUP12 ADD MSTORE PUSH1 0x3 DUP2 ADD SLOAD PUSH1 0x60 DUP12 ADD MSTORE PUSH1 0xFF PUSH1 0x4 DUP3 ADD SLOAD AND ISZERO ISZERO PUSH1 0x80 DUP12 ADD MSTORE PUSH1 0x5 DUP2 ADD SLOAD PUSH1 0xA0 DUP12 ADD MSTORE PUSH1 0xFF PUSH1 0x6 DUP3 ADD SLOAD AND ISZERO ISZERO PUSH1 0xC0 DUP12 ADD MSTORE PUSH1 0x7 DUP2 ADD SLOAD PUSH1 0xE0 DUP12 ADD MSTORE PUSH1 0x8 DUP2 ADD SLOAD PUSH2 0x100 DUP12 ADD MSTORE PUSH1 0x9 DUP2 ADD SLOAD PUSH2 0x120 DUP12 ADD MSTORE PUSH1 0xA DUP2 ADD SLOAD PUSH2 0x140 DUP12 ADD MSTORE PUSH1 0xB DUP2 ADD SLOAD PUSH2 0x160 DUP12 ADD MSTORE PUSH1 0xC DUP2 ADD SLOAD PUSH2 0x180 DUP12 ADD MSTORE ADD SLOAD PUSH2 0x1A0 DUP10 ADD MSTORE EQ PUSH2 0x2936 JUMP JUMPDEST PUSH2 0x2208 PUSH1 0xE0 DUP7 ADD MLOAD ISZERO ISZERO PUSH2 0x2968 JUMP JUMPDEST PUSH2 0x221A PUSH1 0x1 PUSH1 0xC0 DUP8 ADD MLOAD ISZERO ISZERO EQ PUSH2 0x299C JUMP JUMPDEST PUSH2 0x2229 PUSH2 0x120 DUP7 ADD MLOAD ISZERO PUSH2 0x29D0 JUMP JUMPDEST PUSH2 0x223D PUSH2 0x12C PUSH2 0x800 PUSH1 0xE0 DUP9 ADD MLOAD TIMESTAMP PUSH2 0x2A04 JUMP JUMPDEST PUSH1 0x40 MLOAD SWAP7 PUSH2 0x224A DUP9 PUSH2 0x27C3 JUMP JUMPDEST PUSH1 0x24 CALLDATALOAD DUP9 MSTORE PUSH1 0x20 DUP9 ADD DUP4 DUP2 MSTORE DUP3 PUSH1 0x40 DUP11 ADD MSTORE TIMESTAMP PUSH1 0x60 DUP11 ADD MSTORE DUP2 DUP9 MSTORE PUSH1 0xD PUSH1 0x20 MSTORE PUSH1 0x40 DUP9 KECCAK256 SWAP1 DUP10 MLOAD DUP3 SSTORE MLOAD DUP1 MLOAD SWAP1 PUSH1 0x1 PUSH1 0x1 PUSH1 0x40 SHL SUB DUP3 GT PUSH2 0x260F JUMPI DUP2 SWAP1 PUSH2 0x2294 PUSH1 0x1 DUP6 ADD SLOAD PUSH2 0x2A59 JUMP JUMPDEST PUSH1 0x1F DUP2 GT PUSH2 0x269D JUMPI JUMPDEST POP PUSH1 0x20 SWAP1 PUSH1 0x1F DUP4 GT PUSH1 0x1 EQ PUSH2 0x262E JUMPI DUP12 SWAP3 PUSH2 0x2623 JUMPI JUMPDEST POP POP DUP2 PUSH1 0x1 SHL SWAP2 PUSH1 0x0 NOT SWAP1 PUSH1 0x3 SHL SHR NOT AND OR PUSH1 0x1 DUP3 ADD SSTORE JUMPDEST PUSH1 0x40 DUP10 ADD MLOAD SWAP9 DUP10 MLOAD PUSH1 0x1 PUSH1 0x1 PUSH1 0x40 SHL SUB DUP2 GT PUSH2 0x260F JUMPI PUSH2 0x22EE PUSH1 0x2 DUP5 ADD SLOAD PUSH2 0x2A59 JUMP JUMPDEST SWAP11 PUSH1 0x1F DUP13 GT PUSH2 0x25C7 JUMPI JUMPDEST DUP11 DUP1 SWAP13 POP SWAP8 SWAP9 SWAP10 SWAP11 POP PUSH1 0x20 SWAP1 PUSH1 0x1F DUP4 GT PUSH1 0x1 EQ PUSH2 0x2553 JUMPI SWAP2 DUP1 PUSH1 0x3 SWAP5 SWAP3 PUSH1 0x60 SWAP5 DUP12 SWAP3 PUSH2 0x2548 JUMPI JUMPDEST POP POP DUP2 PUSH1 0x1 SHL SWAP2 PUSH1 0x0 NOT SWAP1 DUP7 SHL SHR NOT AND OR PUSH1 0x2 DUP6 ADD SSTORE JUMPDEST ADD MLOAD SWAP2 ADD SSTORE PUSH1 0x3 SLOAD PUSH1 0x1 PUSH1 0x1 PUSH1 0xA0 SHL SUB AND DUP1 EXTCODESIZE ISZERO PUSH2 0x2544 JUMPI DUP5 SWAP3 DUP4 PUSH2 0x2382 SWAP4 PUSH2 0x239C PUSH1 0x40 MLOAD SWAP8 DUP9 SWAP7 DUP8 SWAP6 DUP7 SWAP5 PUSH4 0x9BE6863 PUSH1 0xE2 SHL DUP7 MSTORE PUSH1 0x4 DUP7 ADD MSTORE PUSH1 0xA0 PUSH1 0x24 DUP7 ADD MSTORE PUSH1 0xA4 DUP6 ADD SWAP1 PUSH2 0x2878 JUMP JUMPDEST PUSH1 0x24 CALLDATALOAD PUSH1 0x44 DUP6 ADD MSTORE DUP4 DUP2 SUB PUSH1 0x3 NOT ADD PUSH1 0x64 DUP6 ADD MSTORE SWAP1 PUSH2 0x2878 JUMP JUMPDEST TIMESTAMP PUSH1 0x84 DUP4 ADD MSTORE SUB SWAP3 GAS CALL DUP1 ISZERO PUSH2 0x40C JUMPI PUSH2 0x2530 JUMPI JUMPDEST POP PUSH2 0x1F4 SWAP2 DUP2 DUP1 DUP1 DUP1 DUP7 CALLER DUP3 CALL ISZERO PUSH2 0x122E JUMPI DUP2 DUP1 DUP1 DUP1 DUP7 PUSH1 0x1 PUSH1 0x1 PUSH1 0xA0 SHL SUB DUP7 AND DUP3 CALL ISZERO PUSH2 0x122E JUMPI PUSH1 0x5 SLOAD PUSH1 0x1 PUSH1 0x1 PUSH1 0xA0 SHL SUB AND SWAP1 DUP2 EXTCODESIZE ISZERO PUSH2 0x962 JUMPI PUSH1 0x40 MLOAD PUSH4 0x1BEA9C5D PUSH1 0xE1 SHL DUP2 MSTORE PUSH1 0x1 PUSH1 0x1 PUSH1 0xA0 SHL SUB SWAP1 SWAP2 AND PUSH1 0x4 DUP3 ADD MSTORE SWAP1 DUP3 SWAP1 DUP3 SWAP1 PUSH1 0x24 SWAP1 DUP3 SWAP1 DUP5 SWAP1 GAS CALL DUP1 ISZERO PUSH2 0x40C JUMPI PUSH2 0x251C JUMPI JUMPDEST POP POP DUP1 PUSH2 0x180 DUP5 ADD MSTORE PUSH2 0x140 DUP4 ADD MSTORE TIMESTAMP PUSH2 0x1A0 DUP4 ADD MSTORE TIMESTAMP PUSH2 0x160 DUP4 ADD MSTORE TIMESTAMP PUSH2 0x120 DUP4 ADD MSTORE DUP3 MSTORE PUSH1 0xB PUSH1 0x20 MSTORE PUSH1 0xD PUSH2 0x1A0 PUSH1 0x40 DUP5 KECCAK256 SWAP3 DUP1 MLOAD DUP5 SSTORE PUSH1 0x20 DUP2 ADD MLOAD PUSH1 0x1 DUP6 ADD SSTORE PUSH1 0x40 DUP2 ADD MLOAD PUSH1 0x2 DUP6 ADD SSTORE PUSH1 0x60 DUP2 ADD MLOAD PUSH1 0x3 DUP6 ADD SSTORE PUSH2 0x2499 PUSH1 0x80 DUP3 ADD MLOAD ISZERO ISZERO PUSH1 0x4 DUP7 ADD SWAP1 PUSH1 0xFF DUP1 NOT DUP4 SLOAD AND SWAP2 ISZERO ISZERO AND OR SWAP1 SSTORE JUMP JUMPDEST PUSH1 0xA0 DUP2 ADD MLOAD PUSH1 0x5 DUP6 ADD SSTORE PUSH2 0x24C2 PUSH1 0xC0 DUP3 ADD MLOAD ISZERO ISZERO PUSH1 0x6 DUP7 ADD SWAP1 PUSH1 0xFF DUP1 NOT DUP4 SLOAD AND SWAP2 ISZERO ISZERO AND OR SWAP1 SSTORE JUMP JUMPDEST PUSH1 0xE0 DUP2 ADD MLOAD PUSH1 0x7 DUP6 ADD SSTORE PUSH2 0x100 DUP2 ADD MLOAD PUSH1 0x8 DUP6 ADD SSTORE PUSH2 0x120 DUP2 ADD MLOAD PUSH1 0x9 DUP6 ADD SSTORE PUSH2 0x140 DUP2 ADD MLOAD PUSH1 0xA DUP6 ADD SSTORE PUSH2 0x160 DUP2 ADD MLOAD PUSH1 0xB DUP6 ADD SSTORE PUSH2 0x180 DUP2 ADD MLOAD PUSH1 0xC DUP6 ADD SSTORE ADD MLOAD SWAP2 ADD SSTORE PUSH1 0x9 PUSH1 0x20 MSTORE PUSH1 0x40 DUP2 KECCAK256 PUSH1 0xFF NOT DUP2 SLOAD AND SWAP1 SSTORE DUP1 RETURN JUMPDEST PUSH2 0x2525 SWAP1 PUSH2 0x277E JUMP JUMPDEST PUSH2 0x971 JUMPI DUP4 CODESIZE PUSH2 0x2423 JUMP JUMPDEST PUSH2 0x2539 SWAP1 PUSH2 0x277E JUMP JUMPDEST PUSH2 0x971 JUMPI DUP4 CODESIZE PUSH2 0x23B1 JUMP JUMPDEST DUP5 DUP1 REVERT JUMPDEST ADD MLOAD SWAP1 POP CODESIZE DUP1 PUSH2 0x231F JUMP JUMPDEST SWAP1 PUSH1 0x2 DUP6 ADD DUP10 MSTORE PUSH1 0x20 DUP10 KECCAK256 SWAP2 DUP10 JUMPDEST PUSH1 0x1F NOT DUP6 AND DUP2 LT PUSH2 0x25AC JUMPI POP SWAP3 PUSH1 0x3 SWAP5 SWAP3 PUSH1 0x1 SWAP3 PUSH1 0x60 SWAP6 DUP4 PUSH1 0x1F NOT DUP2 AND LT PUSH2 0x2594 JUMPI JUMPDEST POP POP POP DUP2 SHL ADD PUSH1 0x2 DUP6 ADD SSTORE PUSH2 0x2336 JUMP JUMPDEST ADD MLOAD PUSH1 0x0 NOT DUP4 DUP9 SHL PUSH1 0xF8 AND SHR NOT AND SWAP1 SSTORE CODESIZE DUP1 DUP1 PUSH2 0x2584 JUMP JUMPDEST DUP2 DUP4 ADD MLOAD DUP5 SSTORE DUP15 SWAP11 POP PUSH1 0x1 SWAP1 SWAP4 ADD SWAP3 PUSH1 0x20 SWAP3 DUP4 ADD SWAP3 ADD PUSH2 0x2561 JUMP JUMPDEST PUSH1 0x2 DUP5 ADD DUP12 MSTORE PUSH1 0x20 DUP12 KECCAK256 PUSH1 0x1F DUP4 ADD PUSH1 0x5 SHR DUP2 ADD PUSH1 0x20 DUP5 LT PUSH2 0x2608 JUMPI JUMPDEST PUSH1 0x1F DUP15 JUMPDEST ADD PUSH1 0x5 SHR DUP3 ADD DUP2 LT PUSH2 0x25FA JUMPI POP POP PUSH2 0x22F8 JUMP JUMPDEST DUP13 DUP2 SSTORE PUSH1 0x1 ADD PUSH1 0x1F DUP15 PUSH2 0x25E7 JUMP JUMPDEST POP DUP1 PUSH2 0x25E3 JUMP JUMPDEST PUSH4 0x4E487B71 PUSH1 0xE0 SHL DUP11 MSTORE PUSH1 0x41 PUSH1 0x4 MSTORE PUSH1 0x24 DUP11 REVERT JUMPDEST ADD MLOAD SWAP1 POP CODESIZE DUP1 PUSH2 0x22B3 JUMP JUMPDEST SWAP3 POP PUSH1 0x1 DUP5 ADD DUP12 MSTORE PUSH1 0x20 DUP12 KECCAK256 SWAP1 DUP12 SWAP4 JUMPDEST PUSH1 0x1F NOT DUP5 AND DUP6 LT PUSH2 0x2682 JUMPI PUSH1 0x1 SWAP5 POP DUP4 PUSH1 0x1F NOT DUP2 AND LT PUSH2 0x2669 JUMPI JUMPDEST POP POP POP DUP2 SHL ADD PUSH1 0x1 DUP3 ADD SSTORE PUSH2 0x22CB JUMP JUMPDEST ADD MLOAD PUSH1 0x0 NOT PUSH1 0xF8 DUP5 PUSH1 0x3 SHL AND SHR NOT AND SWAP1 SSTORE CODESIZE DUP1 DUP1 PUSH2 0x2659 JUMP JUMPDEST DUP2 DUP2 ADD MLOAD DUP4 SSTORE PUSH1 0x20 SWAP5 DUP6 ADD SWAP5 PUSH1 0x1 SWAP1 SWAP4 ADD SWAP3 SWAP1 SWAP2 ADD SWAP1 PUSH2 0x263E JUMP JUMPDEST SWAP1 SWAP2 POP PUSH1 0x1 DUP5 ADD DUP12 MSTORE PUSH1 0x20 DUP12 KECCAK256 PUSH1 0x1F DUP5 ADD PUSH1 0x5 SHR DUP2 ADD PUSH1 0x20 DUP6 LT PUSH2 0x26E7 JUMPI JUMPDEST SWAP1 DUP5 SWAP4 SWAP3 SWAP2 JUMPDEST DUP14 PUSH1 0x1F DUP5 ADD PUSH1 0x5 SHR DUP4 ADD DUP3 LT PUSH2 0x26DA JUMPI POP POP POP PUSH2 0x229D JUMP JUMPDEST DUP2 SSTORE DUP6 SWAP5 POP PUSH1 0x1 ADD PUSH2 0x26C2 JUMP JUMPDEST POP DUP1 PUSH2 0x26BC JUMP JUMPDEST PUSH2 0x26F7 SWAP1 PUSH2 0x277E JUMP JUMPDEST PUSH2 0x971 JUMPI DUP4 CODESIZE PUSH2 0x2109 JUMP JUMPDEST SWAP1 SWAP6 POP PUSH1 0x20 DUP2 RETURNDATASIZE PUSH1 0x20 GT PUSH2 0x272E JUMPI JUMPDEST DUP2 PUSH2 0x271E PUSH1 0x20 SWAP4 DUP4 PUSH2 0x27DE JUMP JUMPDEST DUP2 ADD SUB SLT PUSH2 0x441 JUMPI MLOAD SWAP5 CODESIZE PUSH2 0x20D6 JUMP JUMPDEST RETURNDATASIZE SWAP2 POP PUSH2 0x2711 JUMP JUMPDEST PUSH2 0x2742 SWAP1 SWAP6 SWAP2 SWAP6 PUSH2 0x277E JUMP JUMPDEST SWAP4 CODESIZE PUSH2 0x209B JUMP JUMPDEST PUSH2 0x2762 SWAP2 POP PUSH1 0x20 RETURNDATASIZE PUSH1 0x20 GT PUSH2 0x9E8 JUMPI PUSH2 0x9DA DUP2 DUP4 PUSH2 0x27DE JUMP JUMPDEST CODESIZE PUSH2 0x2043 JUMP JUMPDEST PUSH1 0x4 CALLDATALOAD SWAP1 PUSH1 0x1 PUSH1 0x1 PUSH1 0xA0 SHL SUB DUP3 AND DUP3 SUB PUSH2 0x441 JUMPI JUMP JUMPDEST PUSH1 0x1 PUSH1 0x1 PUSH1 0x40 SHL SUB DUP2 GT PUSH2 0x2791 JUMPI PUSH1 0x40 MSTORE JUMP JUMPDEST PUSH4 0x4E487B71 PUSH1 0xE0 SHL PUSH1 0x0 MSTORE PUSH1 0x41 PUSH1 0x4 MSTORE PUSH1 0x24 PUSH1 0x0 REVERT JUMPDEST PUSH2 0x1C0 DUP2 ADD SWAP1 DUP2 LT PUSH1 0x1 PUSH1 0x1 PUSH1 0x40 SHL SUB DUP3 GT OR PUSH2 0x2791 JUMPI PUSH1 0x40 MSTORE JUMP JUMPDEST PUSH1 0x80 DUP2 ADD SWAP1 DUP2 LT PUSH1 0x1 PUSH1 0x1 PUSH1 0x40 SHL SUB DUP3 GT OR PUSH2 0x2791 JUMPI PUSH1 0x40 MSTORE JUMP JUMPDEST SWAP1 PUSH1 0x1F DUP1 NOT SWAP2 ADD AND DUP2 ADD SWAP1 DUP2 LT PUSH1 0x1 PUSH1 0x1 PUSH1 0x40 SHL SUB DUP3 GT OR PUSH2 0x2791 JUMPI PUSH1 0x40 MSTORE JUMP JUMPDEST DUP2 PUSH1 0x1F DUP3 ADD SLT ISZERO PUSH2 0x441 JUMPI DUP1 CALLDATALOAD SWAP1 PUSH1 0x1 PUSH1 0x1 PUSH1 0x40 SHL SUB DUP3 GT PUSH2 0x2791 JUMPI PUSH1 0x40 MLOAD SWAP3 PUSH2 0x2833 PUSH1 0x1F DUP5 ADD PUSH1 0x1F NOT AND PUSH1 0x20 ADD DUP6 PUSH2 0x27DE JUMP JUMPDEST DUP3 DUP5 MSTORE PUSH1 0x20 DUP4 DUP4 ADD ADD GT PUSH2 0x441 JUMPI DUP2 PUSH1 0x0 SWAP3 PUSH1 0x20 DUP1 SWAP4 ADD DUP4 DUP7 ADD CALLDATACOPY DUP4 ADD ADD MSTORE SWAP1 JUMP JUMPDEST PUSH1 0x0 JUMPDEST DUP4 DUP2 LT PUSH2 0x2868 JUMPI POP POP PUSH1 0x0 SWAP2 ADD MSTORE JUMP JUMPDEST DUP2 DUP2 ADD MLOAD DUP4 DUP3 ADD MSTORE PUSH1 0x20 ADD PUSH2 0x2858 JUMP JUMPDEST SWAP1 PUSH1 0x20 SWAP2 PUSH2 0x2891 DUP2 MLOAD DUP1 SWAP3 DUP2 DUP6 MSTORE DUP6 DUP1 DUP7 ADD SWAP2 ADD PUSH2 0x2855 JUMP JUMPDEST PUSH1 0x1F ADD PUSH1 0x1F NOT AND ADD ADD SWAP1 JUMP JUMPDEST PUSH1 0x40 SWAP1 PUSH1 0x3 NOT ADD SLT PUSH2 0x441 JUMPI PUSH1 0x4 CALLDATALOAD PUSH1 0x1 PUSH1 0x1 PUSH1 0xA0 SHL SUB DUP2 AND DUP2 SUB PUSH2 0x441 JUMPI SWAP1 PUSH1 0x24 CALLDATALOAD DUP1 ISZERO ISZERO DUP2 SUB PUSH2 0x441 JUMPI SWAP1 JUMP JUMPDEST PUSH1 0x1 PUSH1 0x1 PUSH1 0x40 SHL SUB DUP2 GT PUSH2 0x2791 JUMPI PUSH1 0x5 SHL PUSH1 0x20 ADD SWAP1 JUMP JUMPDEST SWAP1 DUP2 PUSH1 0x20 SWAP2 SUB SLT PUSH2 0x441 JUMPI MLOAD PUSH1 0x1 PUSH1 0x1 PUSH1 0xA0 SHL SUB DUP2 AND DUP2 SUB PUSH2 0x441 JUMPI SWAP1 JUMP JUMPDEST ISZERO PUSH2 0x2909 JUMPI JUMP JUMPDEST PUSH1 0x40 MLOAD PUSH3 0x461BCD PUSH1 0xE5 SHL DUP2 MSTORE PUSH1 0x20 PUSH1 0x4 DUP3 ADD MSTORE PUSH1 0x5 PUSH1 0x24 DUP3 ADD MSTORE PUSH5 0x525231303 PUSH1 0xDC SHL PUSH1 0x44 DUP3 ADD MSTORE PUSH1 0x64 SWAP1 REVERT JUMPDEST ISZERO PUSH2 0x293D JUMPI JUMP JUMPDEST PUSH1 0x64 PUSH1 0x40 MLOAD PUSH3 0x461BCD PUSH1 0xE5 SHL DUP2 MSTORE PUSH1 0x20 PUSH1 0x4 DUP3 ADD MSTORE PUSH1 0x4 PUSH1 0x24 DUP3 ADD MSTORE PUSH4 0x2929199B PUSH1 0xE1 SHL PUSH1 0x44 DUP3 ADD MSTORE REVERT JUMPDEST ISZERO PUSH2 0x296F JUMPI JUMP JUMPDEST PUSH1 0x40 MLOAD PUSH3 0x461BCD PUSH1 0xE5 SHL DUP2 MSTORE PUSH1 0x20 PUSH1 0x4 DUP3 ADD MSTORE PUSH1 0x5 PUSH1 0x24 DUP3 ADD MSTORE PUSH5 0x5252313133 PUSH1 0xD8 SHL PUSH1 0x44 DUP3 ADD MSTORE PUSH1 0x64 SWAP1 REVERT JUMPDEST ISZERO PUSH2 0x29A3 JUMPI JUMP JUMPDEST PUSH1 0x40 MLOAD PUSH3 0x461BCD PUSH1 0xE5 SHL DUP2 MSTORE PUSH1 0x20 PUSH1 0x4 DUP3 ADD MSTORE PUSH1 0x5 PUSH1 0x24 DUP3 ADD MSTORE PUSH5 0x14948C4C4D PUSH1 0xDA SHL PUSH1 0x44 DUP3 ADD MSTORE PUSH1 0x64 SWAP1 REVERT JUMPDEST ISZERO PUSH2 0x29D7 JUMPI JUMP JUMPDEST PUSH1 0x40 MLOAD PUSH3 0x461BCD PUSH1 0xE5 SHL DUP2 MSTORE PUSH1 0x20 PUSH1 0x4 DUP3 ADD MSTORE PUSH1 0x5 PUSH1 0x24 DUP3 ADD MSTORE PUSH5 0x5252313135 PUSH1 0xD8 SHL PUSH1 0x44 DUP3 ADD MSTORE PUSH1 0x64 SWAP1 REVERT JUMPDEST SWAP2 SWAP1 DUP3 SUB SWAP2 DUP3 GT PUSH2 0x2A11 JUMPI JUMP JUMPDEST PUSH4 0x4E487B71 PUSH1 0xE0 SHL PUSH1 0x0 MSTORE PUSH1 0x11 PUSH1 0x4 MSTORE PUSH1 0x24 PUSH1 0x0 REVERT JUMPDEST ISZERO PUSH2 0x2A2E JUMPI JUMP JUMPDEST PUSH1 0x40 MLOAD PUSH3 0x461BCD PUSH1 0xE5 SHL DUP2 MSTORE PUSH1 0x20 PUSH1 0x4 DUP3 ADD MSTORE PUSH1 0x3 PUSH1 0x24 DUP3 ADD MSTORE PUSH3 0xA4A47 PUSH1 0xEB SHL PUSH1 0x44 DUP3 ADD MSTORE PUSH1 0x64 SWAP1 REVERT JUMPDEST SWAP1 PUSH1 0x1 DUP3 DUP2 SHR SWAP3 AND DUP1 ISZERO PUSH2 0x2A89 JUMPI JUMPDEST PUSH1 0x20 DUP4 LT EQ PUSH2 0x2A73 JUMPI JUMP JUMPDEST PUSH4 0x4E487B71 PUSH1 0xE0 SHL PUSH1 0x0 MSTORE PUSH1 0x22 PUSH1 0x4 MSTORE PUSH1 0x24 PUSH1 0x0 REVERT JUMPDEST SWAP2 PUSH1 0x7F AND SWAP2 PUSH2 0x2A68 JUMP JUMPDEST ISZERO PUSH2 0x2A9A JUMPI JUMP JUMPDEST PUSH1 0x40 MLOAD PUSH3 0x461BCD PUSH1 0xE5 SHL DUP2 MSTORE PUSH1 0x20 PUSH1 0x4 DUP3 ADD MSTORE PUSH1 0x5 PUSH1 0x24 DUP3 ADD MSTORE PUSH5 0x292918989B PUSH1 0xD9 SHL PUSH1 0x44 DUP3 ADD MSTORE PUSH1 0x64 SWAP1 REVERT JUMPDEST ISZERO PUSH2 0x2ACE JUMPI JUMP JUMPDEST PUSH1 0x64 PUSH1 0x40 MLOAD PUSH3 0x461BCD PUSH1 0xE5 SHL DUP2 MSTORE PUSH1 0x20 PUSH1 0x4 DUP3 ADD MSTORE PUSH1 0x4 PUSH1 0x24 DUP3 ADD MSTORE PUSH4 0xA4A4667 PUSH1 0xE3 SHL PUSH1 0x44 DUP3 ADD MSTORE REVERT JUMPDEST ISZERO PUSH2 0x2B00 JUMPI JUMP JUMPDEST PUSH1 0x40 MLOAD PUSH3 0x461BCD PUSH1 0xE5 SHL DUP2 MSTORE PUSH1 0x20 PUSH1 0x4 DUP3 ADD MSTORE PUSH1 0x5 PUSH1 0x24 DUP3 ADD MSTORE PUSH5 0x5252313031 PUSH1 0xD8 SHL PUSH1 0x44 DUP3 ADD MSTORE PUSH1 0x64 SWAP1 REVERT JUMPDEST ISZERO PUSH2 0x2B34 JUMPI JUMP JUMPDEST PUSH1 0x40 MLOAD PUSH3 0x461BCD PUSH1 0xE5 SHL DUP2 MSTORE PUSH1 0x20 PUSH1 0x4 DUP3 ADD MSTORE PUSH1 0x5 PUSH1 0x24 DUP3 ADD MSTORE PUSH5 0x2929189819 PUSH1 0xD9 SHL PUSH1 0x44 DUP3 ADD MSTORE PUSH1 0x64 SWAP1 REVERT JUMPDEST SWAP1 PUSH1 0x40 MLOAD SWAP2 DUP3 PUSH1 0x0 DUP3 SLOAD PUSH2 0x2B74 DUP2 PUSH2 0x2A59 JUMP JUMPDEST SWAP1 DUP2 DUP5 MSTORE PUSH1 0x20 SWAP5 PUSH1 0x1 SWAP2 PUSH1 0x1 DUP2 AND SWAP1 DUP2 PUSH1 0x0 EQ PUSH2 0x2BE4 JUMPI POP PUSH1 0x1 EQ PUSH2 0x2BA5 JUMPI JUMPDEST POP POP POP PUSH2 0x2BA3 SWAP3 POP SUB DUP4 PUSH2 0x27DE JUMP JUMPDEST JUMP JUMPDEST PUSH1 0x0 SWAP1 DUP2 MSTORE DUP6 DUP2 KECCAK256 SWAP6 SWAP4 POP SWAP2 SWAP1 JUMPDEST DUP2 DUP4 LT PUSH2 0x2BCC JUMPI POP POP PUSH2 0x2BA3 SWAP4 POP DUP3 ADD ADD CODESIZE DUP1 DUP1 PUSH2 0x2B94 JUMP JUMPDEST DUP6 SLOAD DUP9 DUP5 ADD DUP6 ADD MSTORE SWAP5 DUP6 ADD SWAP5 DUP8 SWAP5 POP SWAP2 DUP4 ADD SWAP2 PUSH2 0x2BB3 JUMP JUMPDEST SWAP3 POP POP POP PUSH2 0x2BA3 SWAP5 SWAP3 POP PUSH1 0xFF NOT AND DUP3 DUP5 ADD MSTORE ISZERO ISZERO PUSH1 0x5 SHL DUP3 ADD ADD CODESIZE DUP1 DUP1 PUSH2 0x2B94 JUMP JUMPDEST MLOAD SWAP1 DUP2 ISZERO ISZERO DUP3 SUB PUSH2 0x441 JUMPI JUMP JUMPDEST SWAP2 SWAP1 DUP3 PUSH1 0x40 SWAP2 SUB SLT PUSH2 0x441 JUMPI PUSH2 0x2C2D PUSH1 0x20 DUP4 MLOAD SWAP4 ADD PUSH2 0x2C06 JUMP JUMPDEST SWAP1 JUMP JUMPDEST ISZERO PUSH2 0x2C37 JUMPI JUMP JUMPDEST PUSH1 0x64 PUSH1 0x40 MLOAD PUSH3 0x461BCD PUSH1 0xE5 SHL DUP2 MSTORE PUSH1 0x20 PUSH1 0x4 DUP3 ADD MSTORE PUSH1 0x4 PUSH1 0x24 DUP3 ADD MSTORE PUSH4 0x52523333 PUSH1 0xE0 SHL PUSH1 0x44 DUP3 ADD MSTORE REVERT JUMPDEST SWAP1 PUSH2 0x320 DUP3 DUP3 SUB SLT PUSH2 0x441 JUMPI DUP2 MLOAD SWAP3 PUSH1 0x20 SWAP1 DUP2 DUP5 ADD MLOAD SWAP4 PUSH1 0x40 DUP2 ADD MLOAD SWAP4 PUSH1 0x60 DUP3 ADD MLOAD SWAP4 PUSH1 0x80 DUP4 ADD MLOAD SWAP4 PUSH1 0xA0 DUP5 ADD MLOAD SWAP4 PUSH1 0xC0 DUP2 ADD MLOAD SWAP4 PUSH1 0xE0 DUP3 ADD MLOAD SWAP4 PUSH2 0x2CAA PUSH2 0x100 DUP5 ADD PUSH2 0x2C06 JUMP JUMPDEST SWAP4 PUSH2 0x120 DUP5 ADD MLOAD SWAP4 PUSH2 0x140 DUP2 ADD MLOAD SWAP4 PUSH2 0x160 DUP3 ADD MLOAD SWAP4 PUSH2 0x2CCD PUSH2 0x180 DUP5 ADD PUSH2 0x2C06 JUMP JUMPDEST SWAP4 PUSH2 0x1A0 DUP5 ADD MLOAD SWAP4 PUSH2 0x2CE2 PUSH2 0x1C0 DUP3 ADD PUSH2 0x2C06 JUMP JUMPDEST SWAP4 PUSH2 0x1E0 DUP3 ADD MLOAD SWAP4 PUSH2 0x200 DUP4 ADD MLOAD PUSH1 0x1 PUSH1 0x1 PUSH1 0x40 SHL SUB DUP2 GT PUSH2 0x441 JUMPI DUP4 ADD SWAP2 DUP1 PUSH1 0x1F DUP5 ADD SLT ISZERO PUSH2 0x441 JUMPI DUP3 MLOAD PUSH2 0x2D17 DUP2 PUSH2 0x28CC JUMP JUMPDEST SWAP4 PUSH2 0x2D25 PUSH1 0x40 MLOAD SWAP6 DUP7 PUSH2 0x27DE JUMP JUMPDEST DUP2 DUP6 MSTORE DUP4 DUP1 DUP7 ADD SWAP3 PUSH1 0x5 SHL DUP3 ADD ADD SWAP3 DUP4 GT PUSH2 0x441 JUMPI DUP4 ADD SWAP1 JUMPDEST DUP3 DUP3 LT PUSH2 0x2D8A JUMPI POP POP POP POP SWAP2 PUSH2 0x220 DUP3 ADD MLOAD SWAP2 PUSH2 0x240 DUP2 ADD MLOAD SWAP2 PUSH2 0x2D65 PUSH2 0x260 DUP4 ADD PUSH2 0x2C06 JUMP JUMPDEST SWAP2 PUSH2 0x280 DUP2 ADD MLOAD SWAP2 PUSH2 0x2A0 DUP3 ADD MLOAD SWAP2 PUSH2 0x2C0 DUP2 ADD MLOAD SWAP2 PUSH2 0x300 PUSH2 0x2E0 DUP4 ADD MLOAD SWAP3 ADD MLOAD SWAP1 JUMP JUMPDEST DUP2 MLOAD DUP2 MSTORE SWAP1 DUP4 ADD SWAP1 DUP4 ADD PUSH2 0x2D3E JUMP JUMPDEST ISZERO PUSH2 0x2DA0 JUMPI JUMP JUMPDEST PUSH1 0x40 MLOAD PUSH3 0x461BCD PUSH1 0xE5 SHL DUP2 MSTORE PUSH1 0x20 PUSH1 0x4 DUP3 ADD MSTORE PUSH1 0x5 PUSH1 0x24 DUP3 ADD MSTORE PUSH5 0x292918981B PUSH1 0xD9 SHL PUSH1 0x44 DUP3 ADD MSTORE PUSH1 0x64 SWAP1 REVERT JUMPDEST ISZERO PUSH2 0x2DD4 JUMPI JUMP JUMPDEST PUSH1 0x40 MLOAD PUSH3 0x461BCD PUSH1 0xE5 SHL DUP2 MSTORE PUSH1 0x20 PUSH1 0x4 DUP3 ADD MSTORE PUSH1 0x5 PUSH1 0x24 DUP3 ADD MSTORE PUSH5 0x5252313037 PUSH1 0xD8 SHL PUSH1 0x44 DUP3 ADD MSTORE PUSH1 0x64 SWAP1 REVERT JUMPDEST ISZERO PUSH2 0x2E08 JUMPI JUMP JUMPDEST PUSH1 0x40 MLOAD PUSH3 0x461BCD PUSH1 0xE5 SHL DUP2 MSTORE PUSH1 0x20 PUSH1 0x4 DUP3 ADD MSTORE PUSH1 0x5 PUSH1 0x24 DUP3 ADD MSTORE PUSH5 0x525231313 PUSH1 0xDC SHL PUSH1 0x44 DUP3 ADD MSTORE PUSH1 0x64 SWAP1 REVERT JUMPDEST ISZERO PUSH2 0x2E3C JUMPI JUMP JUMPDEST PUSH1 0x40 MLOAD PUSH3 0x461BCD PUSH1 0xE5 SHL DUP2 MSTORE PUSH1 0x20 PUSH1 0x4 DUP3 ADD MSTORE PUSH1 0x5 PUSH1 0x24 DUP3 ADD MSTORE PUSH5 0x2929189899 PUSH1 0xD9 SHL PUSH1 0x44 DUP3 ADD MSTORE PUSH1 0x64 SWAP1 REVERT JUMPDEST ISZERO PUSH2 0x2E70 JUMPI JUMP JUMPDEST PUSH1 0x40 MLOAD PUSH3 0x461BCD PUSH1 0xE5 SHL DUP2 MSTORE PUSH1 0x20 PUSH1 0x4 DUP3 ADD MSTORE PUSH1 0x5 PUSH1 0x24 DUP3 ADD MSTORE PUSH5 0xA4A462627 PUSH1 0xDB SHL PUSH1 0x44 DUP3 ADD MSTORE PUSH1 0x64 SWAP1 REVERT JUMPDEST ISZERO PUSH2 0x2EA4 JUMPI JUMP JUMPDEST PUSH1 0x40 MLOAD PUSH3 0x461BCD PUSH1 0xE5 SHL DUP2 MSTORE PUSH1 0x20 PUSH1 0x4 DUP3 ADD MSTORE PUSH1 0x5 PUSH1 0x24 DUP3 ADD MSTORE PUSH5 0x5252313139 PUSH1 0xD8 SHL PUSH1 0x44 DUP3 ADD MSTORE PUSH1 0x64 SWAP1 REVERT JUMPDEST PUSH1 0x1 SLOAD PUSH1 0x40 MLOAD PUSH4 0xF0ABDA5D PUSH1 0xE0 SHL DUP2 MSTORE PUSH1 0x0 SWAP4 SWAP2 PUSH1 0x20 SWAP1 DUP3 SWAP1 PUSH1 0x4 SWAP1 DUP3 SWAP1 PUSH1 0x1 PUSH1 0x1 PUSH1 0xA0 SHL SUB AND GAS STATICCALL SWAP1 DUP2 ISZERO PUSH2 0x966 JUMPI DUP5 SWAP2 PUSH2 0x358A JUMPI JUMPDEST POP PUSH1 0x1 PUSH1 0x1 PUSH1 0xA0 SHL SUB AND CALLER SUB PUSH2 0x962 JUMPI PUSH1 0x7 SLOAD PUSH1 0x1 PUSH1 0x1 PUSH1 0xA0 SHL SUB AND SWAP4 DUP5 EXTCODESIZE ISZERO PUSH2 0x971 JUMPI PUSH1 0x40 MLOAD PUSH4 0x423164BF PUSH1 0xE1 SHL DUP2 MSTORE PUSH1 0x1 PUSH1 0x1 PUSH1 0xA0 SHL SUB DUP5 AND PUSH1 0x4 DUP3 ADD MSTORE SWAP5 DUP5 DUP7 PUSH1 0x24 DUP2 DUP5 GAS STATICCALL SWAP6 DUP7 ISZERO PUSH2 0x126F JUMPI PUSH1 0x24 SWAP7 PUSH2 0x3577 JUMPI JUMPDEST POP PUSH1 0x3 SLOAD PUSH1 0x40 MLOAD PUSH4 0x18FE01C7 PUSH1 0xE2 SHL DUP2 MSTORE PUSH1 0x1 PUSH1 0x1 PUSH1 0xA0 SHL SUB DUP7 DUP2 AND PUSH1 0x4 DUP4 ADD MSTORE SWAP1 SWAP8 PUSH1 0x20 SWAP3 DUP10 SWAP3 DUP4 SWAP2 AND GAS STATICCALL SWAP6 DUP7 ISZERO PUSH2 0x126F JUMPI DUP6 SWAP7 PUSH2 0x3543 JUMPI JUMPDEST POP DUP1 EXTCODESIZE ISZERO PUSH2 0x2544 JUMPI DUP5 PUSH1 0x24 SWAP2 PUSH1 0x40 MLOAD SWAP3 DUP4 DUP1 SWAP3 PUSH4 0x8788EB1 PUSH1 0xE2 SHL DUP3 MSTORE DUP11 PUSH1 0x4 DUP4 ADD MSTORE GAS STATICCALL DUP1 ISZERO PUSH2 0x126F JUMPI SWAP1 DUP6 SWAP2 PUSH2 0x352F JUMPI JUMPDEST POP POP PUSH1 0x1 DUP1 PUSH1 0xA0 SHL SUB DUP4 AND DUP5 MSTORE PUSH1 0x8 PUSH1 0x20 MSTORE PUSH1 0x40 DUP5 KECCAK256 SLOAD SWAP5 DUP6 DUP6 MSTORE PUSH1 0x9 PUSH1 0x20 MSTORE PUSH2 0x3003 PUSH1 0x1 PUSH1 0xFF PUSH1 0x40 DUP9 KECCAK256 SLOAD AND ISZERO ISZERO EQ PUSH2 0x2902 JUMP JUMPDEST DUP6 DUP6 MSTORE PUSH1 0xB PUSH1 0x20 MSTORE PUSH2 0x30BD PUSH1 0x40 DUP7 KECCAK256 SWAP2 PUSH1 0x40 MLOAD SWAP3 PUSH2 0x3020 DUP5 PUSH2 0x27A7 JUMP JUMPDEST PUSH1 0xD DUP2 SLOAD SWAP2 DUP3 DUP7 MSTORE PUSH1 0x1 DUP2 ADD SLOAD PUSH1 0x20 DUP8 ADD MSTORE PUSH1 0x2 DUP2 ADD SLOAD PUSH1 0x40 DUP8 ADD MSTORE PUSH1 0x3 DUP2 ADD SLOAD PUSH1 0x60 DUP8 ADD MSTORE PUSH1 0xFF PUSH1 0x4 DUP3 ADD SLOAD AND ISZERO ISZERO PUSH1 0x80 DUP8 ADD MSTORE PUSH1 0x5 DUP2 ADD SLOAD PUSH1 0xA0 DUP8 ADD MSTORE PUSH1 0xFF PUSH1 0x6 DUP3 ADD SLOAD AND ISZERO ISZERO PUSH1 0xC0 DUP8 ADD MSTORE PUSH1 0x7 DUP2 ADD SLOAD PUSH1 0xE0 DUP8 ADD MSTORE PUSH1 0x8 DUP2 ADD SLOAD PUSH2 0x100 DUP8 ADD MSTORE PUSH1 0x9 DUP2 ADD SLOAD PUSH2 0x120 DUP8 ADD MSTORE PUSH1 0xA DUP2 ADD SLOAD PUSH2 0x140 DUP8 ADD MSTORE PUSH1 0xB DUP2 ADD SLOAD PUSH2 0x160 DUP8 ADD MSTORE PUSH1 0xC DUP2 ADD SLOAD PUSH2 0x180 DUP8 ADD MSTORE ADD SLOAD PUSH2 0x1A0 DUP6 ADD MSTORE EQ PUSH2 0x2936 JUMP JUMPDEST PUSH2 0x30CC PUSH1 0xE0 DUP3 ADD MLOAD ISZERO ISZERO PUSH2 0x2968 JUMP JUMPDEST PUSH2 0x30DA PUSH1 0xC0 DUP3 ADD MLOAD ISZERO PUSH2 0x2E69 JUMP JUMPDEST PUSH2 0x30E9 PUSH2 0x100 DUP3 ADD MLOAD ISZERO PUSH2 0x2E9D JUMP JUMPDEST PUSH2 0x30FD PUSH2 0x12C PUSH2 0x800 PUSH1 0xE0 DUP5 ADD MLOAD TIMESTAMP PUSH2 0x2A04 JUMP JUMPDEST PUSH1 0x5 SLOAD PUSH1 0x40 DUP1 MLOAD PUSH4 0x1E3FBAF3 PUSH1 0xE0 SHL DUP2 MSTORE CALLER PUSH1 0x4 DUP3 ADD MSTORE PUSH1 0x1 PUSH1 0x1 PUSH1 0xA0 SHL SUB SWAP1 SWAP3 AND SWAP8 SWAP2 SWAP1 DUP2 PUSH1 0x24 DUP2 DUP12 GAS STATICCALL DUP1 ISZERO PUSH2 0x341F JUMPI SWAP1 DUP8 SWAP2 DUP3 SWAP2 DUP4 SWAP2 PUSH2 0x350A JUMPI JUMPDEST POP PUSH2 0x3146 SWAP1 ISZERO PUSH2 0x2C30 JUMP JUMPDEST PUSH1 0x24 PUSH1 0x40 MLOAD DUP1 SWAP11 DUP2 SWAP4 PUSH4 0x60785D7B PUSH1 0xE1 SHL DUP4 MSTORE PUSH1 0x4 DUP4 ADD MSTORE GAS STATICCALL DUP1 ISZERO PUSH2 0x1ABD JUMPI DUP7 SWAP8 DUP8 SWAP1 DUP9 SWAP3 PUSH2 0x34D1 JUMPI JUMPDEST POP TIMESTAMP PUSH2 0x100 DUP6 ADD MSTORE PUSH1 0x40 MLOAD PUSH1 0x20 DUP2 ADD SWAP1 DUP2 DUP2 DUP10 MLOAD SWAP2 PUSH1 0x20 DUP12 ADD SWAP3 DUP14 JUMPDEST DUP2 DUP2 LT PUSH2 0x34B8 JUMPI POP POP PUSH2 0x31A9 SWAP3 POP SUB PUSH1 0x1F NOT DUP2 ADD DUP4 MSTORE DUP3 PUSH2 0x27DE JUMP JUMPDEST MLOAD SWAP1 KECCAK256 SUB PUSH2 0x342A JUMPI PUSH1 0x1 SLOAD PUSH1 0x40 MLOAD PUSH4 0x7C447701 PUSH1 0xE1 SHL DUP2 MSTORE PUSH1 0x4 DUP2 ADD SWAP10 SWAP1 SWAP10 MSTORE PUSH1 0x80 SWAP1 DUP10 SWAP1 PUSH1 0x24 SWAP1 DUP3 SWAP1 PUSH1 0x1 PUSH1 0x1 PUSH1 0xA0 SHL SUB AND GAS STATICCALL SWAP8 DUP9 ISZERO PUSH2 0x341F JUMPI DUP8 SWAP9 PUSH2 0x33E4 JUMPI JUMPDEST POP SWAP5 DUP7 SWAP6 JUMPDEST DUP6 MLOAD DUP8 LT ISZERO PUSH2 0x3234 JUMPI PUSH1 0x20 DUP8 PUSH1 0x5 SHL DUP8 ADD ADD MLOAD SWAP1 DUP2 DUP2 LT PUSH1 0x0 EQ PUSH2 0x3223 JUMPI DUP9 MSTORE PUSH1 0x20 MSTORE PUSH1 0x1 PUSH1 0x40 DUP9 KECCAK256 JUMPDEST SWAP7 ADD SWAP6 PUSH2 0x31F1 JUMP JUMPDEST SWAP1 DUP9 MSTORE PUSH1 0x20 MSTORE PUSH1 0x1 PUSH1 0x40 DUP9 KECCAK256 PUSH2 0x321B JUMP JUMPDEST DUP8 SWAP5 SWAP9 SWAP2 SWAP4 SWAP7 POP PUSH1 0x1 SWAP3 SWAP6 POP EQ SUB PUSH2 0x3365 JUMPI DUP2 SWAP1 DUP2 SWAP1 DUP2 SWAP1 PUSH2 0x3E8 SWAP1 PUSH1 0x1 PUSH1 0x1 PUSH1 0xA0 SHL SUB AND DUP3 CALL ISZERO PUSH2 0x40C JUMPI PUSH2 0x3E8 PUSH2 0x140 DUP4 ADD MSTORE TIMESTAMP PUSH2 0x160 DUP4 ADD MSTORE DUP3 PUSH2 0x180 DUP4 ADD MSTORE TIMESTAMP PUSH2 0x1A0 DUP4 ADD MSTORE DUP3 MSTORE PUSH1 0xB PUSH1 0x20 MSTORE PUSH1 0xD PUSH2 0x1A0 PUSH1 0x40 DUP5 KECCAK256 SWAP3 DUP1 MLOAD DUP5 SSTORE PUSH1 0x20 DUP2 ADD MLOAD PUSH1 0x1 DUP6 ADD SSTORE PUSH1 0x40 DUP2 ADD MLOAD PUSH1 0x2 DUP6 ADD SSTORE PUSH1 0x60 DUP2 ADD MLOAD PUSH1 0x3 DUP6 ADD SSTORE PUSH2 0x32D0 PUSH1 0x80 DUP3 ADD MLOAD ISZERO ISZERO PUSH1 0x4 DUP7 ADD SWAP1 PUSH1 0xFF DUP1 NOT DUP4 SLOAD AND SWAP2 ISZERO ISZERO AND OR SWAP1 SSTORE JUMP JUMPDEST PUSH1 0xA0 DUP2 ADD MLOAD PUSH1 0x5 DUP6 ADD SSTORE PUSH2 0x32F9 PUSH1 0xC0 DUP3 ADD MLOAD ISZERO ISZERO PUSH1 0x6 DUP7 ADD SWAP1 PUSH1 0xFF DUP1 NOT DUP4 SLOAD AND SWAP2 ISZERO ISZERO AND OR SWAP1 SSTORE JUMP JUMPDEST PUSH1 0xE0 DUP2 ADD MLOAD PUSH1 0x7 DUP6 ADD SSTORE PUSH2 0x100 DUP2 ADD MLOAD PUSH1 0x8 DUP6 ADD SSTORE PUSH2 0x120 DUP2 ADD MLOAD PUSH1 0x9 DUP6 ADD SSTORE PUSH2 0x140 DUP2 ADD MLOAD PUSH1 0xA DUP6 ADD SSTORE PUSH2 0x160 DUP2 ADD MLOAD PUSH1 0xB DUP6 ADD SSTORE PUSH2 0x180 DUP2 ADD MLOAD PUSH1 0xC DUP6 ADD SSTORE ADD MLOAD SWAP2 ADD SSTORE PUSH1 0x9 PUSH1 0x20 MSTORE PUSH1 0x1 PUSH1 0x40 DUP1 DUP4 KECCAK256 SWAP3 PUSH1 0xFF NOT SWAP4 DUP5 DUP2 SLOAD AND SWAP1 SSTORE PUSH1 0xA PUSH1 0x20 MSTORE KECCAK256 SWAP2 DUP3 SLOAD AND OR SWAP1 SSTORE JUMP JUMPDEST POP DUP1 DUP1 DUP1 PUSH2 0x3E8 CALLER DUP3 CALL ISZERO PUSH2 0x40C JUMPI PUSH2 0x3E8 PUSH2 0x180 DUP4 ADD MSTORE TIMESTAMP PUSH2 0x1A0 DUP4 ADD MSTORE DUP3 PUSH2 0x140 DUP4 ADD MSTORE TIMESTAMP PUSH2 0x160 DUP4 ADD MSTORE DUP3 MSTORE PUSH1 0xB PUSH1 0x20 MSTORE PUSH1 0xD PUSH2 0x1A0 PUSH1 0x40 DUP5 KECCAK256 SWAP3 DUP1 MLOAD DUP5 SSTORE PUSH1 0x20 DUP2 ADD MLOAD PUSH1 0x1 DUP6 ADD SSTORE PUSH1 0x40 DUP2 ADD MLOAD PUSH1 0x2 DUP6 ADD SSTORE PUSH1 0x60 DUP2 ADD MLOAD PUSH1 0x3 DUP6 ADD SSTORE PUSH2 0x32D0 PUSH1 0x80 DUP3 ADD MLOAD ISZERO ISZERO PUSH1 0x4 DUP7 ADD SWAP1 PUSH1 0xFF DUP1 NOT DUP4 SLOAD AND SWAP2 ISZERO ISZERO AND OR SWAP1 SSTORE JUMP JUMPDEST SWAP1 SWAP8 POP PUSH1 0x80 DUP2 RETURNDATASIZE PUSH1 0x80 GT PUSH2 0x3417 JUMPI JUMPDEST DUP2 PUSH2 0x3400 PUSH1 0x80 SWAP4 DUP4 PUSH2 0x27DE JUMP JUMPDEST DUP2 ADD SUB SLT PUSH2 0x3413 JUMPI PUSH1 0x60 ADD MLOAD SWAP7 CODESIZE PUSH2 0x31EC JUMP JUMPDEST DUP7 DUP1 REVERT JUMPDEST RETURNDATASIZE SWAP2 POP PUSH2 0x33F3 JUMP JUMPDEST PUSH1 0x40 MLOAD RETURNDATASIZE DUP10 DUP3 RETURNDATACOPY RETURNDATASIZE SWAP1 REVERT JUMPDEST POP SWAP3 POP SWAP3 DUP5 DUP1 DUP1 SWAP4 SWAP8 POP PUSH2 0x3E8 DUP2 SWAP4 PUSH1 0x1 DUP1 PUSH1 0xA0 SHL SUB AND DUP3 CALL ISZERO PUSH2 0x40C JUMPI PUSH2 0x3E8 PUSH2 0x140 DUP4 ADD MSTORE TIMESTAMP PUSH2 0x160 DUP4 ADD MSTORE DUP3 PUSH2 0x180 DUP4 ADD MSTORE TIMESTAMP PUSH2 0x1A0 DUP4 ADD MSTORE DUP3 MSTORE PUSH1 0xB PUSH1 0x20 MSTORE PUSH1 0xD PUSH2 0x1A0 PUSH1 0x40 DUP5 KECCAK256 SWAP3 DUP1 MLOAD DUP5 SSTORE PUSH1 0x20 DUP2 ADD MLOAD PUSH1 0x1 DUP6 ADD SSTORE PUSH1 0x40 DUP2 ADD MLOAD PUSH1 0x2 DUP6 ADD SSTORE PUSH1 0x60 DUP2 ADD MLOAD PUSH1 0x3 DUP6 ADD SSTORE PUSH2 0x32D0 PUSH1 0x80 DUP3 ADD MLOAD ISZERO ISZERO PUSH1 0x4 DUP7 ADD SWAP1 PUSH1 0xFF DUP1 NOT DUP4 SLOAD AND SWAP2 ISZERO ISZERO AND OR SWAP1 SSTORE JUMP JUMPDEST DUP5 MLOAD DUP4 MSTORE PUSH1 0x20 SWAP5 DUP6 ADD SWAP5 DUP7 SWAP5 POP SWAP1 SWAP3 ADD SWAP2 PUSH1 0x1 ADD PUSH2 0x318D JUMP JUMPDEST SWAP2 POP POP PUSH2 0x34E9 SWAP2 SWAP8 POP RETURNDATASIZE DUP1 DUP9 DUP4 RETURNDATACOPY PUSH2 0x1A95 DUP2 DUP4 PUSH2 0x27DE JUMP JUMPDEST POP POP POP POP POP POP POP POP POP POP POP POP POP POP SWAP9 POP POP POP POP SWAP12 SWAP6 POP SWAP3 POP POP POP SWAP8 CODESIZE PUSH2 0x3171 JUMP JUMPDEST PUSH2 0x3146 SWAP3 POP PUSH2 0x3528 SWAP2 POP PUSH1 0x40 RETURNDATASIZE PUSH1 0x40 GT PUSH2 0x120E JUMPI PUSH2 0x11FE DUP2 DUP4 PUSH2 0x27DE JUMP JUMPDEST SWAP1 SWAP2 PUSH2 0x313B JUMP JUMPDEST PUSH2 0x3538 SWAP1 PUSH2 0x277E JUMP JUMPDEST PUSH2 0x971 JUMPI DUP4 CODESIZE PUSH2 0x2FCE JUMP JUMPDEST SWAP1 SWAP6 POP PUSH1 0x20 DUP2 RETURNDATASIZE PUSH1 0x20 GT PUSH2 0x356F JUMPI JUMPDEST DUP2 PUSH2 0x355F PUSH1 0x20 SWAP4 DUP4 PUSH2 0x27DE JUMP JUMPDEST DUP2 ADD SUB SLT PUSH2 0x441 JUMPI MLOAD SWAP5 CODESIZE PUSH2 0x2F9B JUMP JUMPDEST RETURNDATASIZE SWAP2 POP PUSH2 0x3552 JUMP JUMPDEST PUSH2 0x3583 SWAP1 SWAP6 SWAP2 SWAP6 PUSH2 0x277E JUMP JUMPDEST SWAP4 CODESIZE PUSH2 0x2F60 JUMP JUMPDEST PUSH2 0x35A3 SWAP2 POP PUSH1 0x20 RETURNDATASIZE PUSH1 0x20 GT PUSH2 0x9E8 JUMPI PUSH2 0x9DA DUP2 DUP4 PUSH2 0x27DE JUMP JUMPDEST CODESIZE PUSH2 0x2F08 JUMP JUMPDEST ISZERO PUSH2 0x35B0 JUMPI JUMP JUMPDEST PUSH1 0x40 MLOAD PUSH3 0x461BCD PUSH1 0xE5 SHL DUP2 MSTORE PUSH1 0x20 PUSH1 0x4 DUP3 ADD MSTORE PUSH1 0x5 PUSH1 0x24 DUP3 ADD MSTORE PUSH5 0xA4A462607 PUSH1 0xDB SHL PUSH1 0x44 DUP3 ADD MSTORE PUSH1 0x64 SWAP1 REVERT JUMPDEST ISZERO PUSH2 0x35E4 JUMPI JUMP JUMPDEST PUSH1 0x40 MLOAD PUSH3 0x461BCD PUSH1 0xE5 SHL DUP2 MSTORE PUSH1 0x20 PUSH1 0x4 DUP3 ADD MSTORE PUSH1 0x5 PUSH1 0x24 DUP3 ADD MSTORE PUSH5 0x5252313039 PUSH1 0xD8 SHL PUSH1 0x44 DUP3 ADD MSTORE PUSH1 0x64 SWAP1 REVERT INVALID LOG2 PUSH5 0x6970667358 0x22 SLT KECCAK256 DUP5 SUB SWAP7 SDIV 0x26 DUP16 JUMPI DUP14 0xED 0xE2 PUSH3 0x374D38 ISZERO PUSH30 0x8CFCA21C50A79C65C502CCBC6C11224F64736F6C63430008160033000000 "
		},
		"gasEstimates": {
			"creation": {
				"codeDepositCost": "2779000",
				"executionCost": "infinite",
				"totalCost": "infinite"
			},
			"external": {
				"VPApplNumberGenerator()": "2475",
				"addr_SC_C_Govt()": "2714",
				"addr_SC_C_VC_1()": "2345",
				"addr_SC_Requirements_Check()": "2697",
				"addr_SC_VC_Govt()": "2650",
				"discloseProof(address,bytes32[])": "infinite",
				"getVPDetails(uint256)": "infinite",
				"initiateVPApplAndlockMoney()": "infinite",
				"lockMoneyByGovt(address)": "infinite",
				"lockingAmount()": "262",
				"quit1ByC()": "infinite",
				"quit2ByGovt(address)": "infinite",
				"quit3ByC()": "infinite",
				"quit4ByC()": "infinite",
				"quit5ByC()": "infinite",
				"quit6ByC()": "infinite",
				"sendConsent1(address,bool)": "infinite",
				"sendConsent2(address,bool)": "infinite",
				"sendVaccinationProof(string,bytes32)": "infinite",
				"timeLimit()": "482",
				"uploadVPInfoAndGetPayment(address,bytes32,string,string)": "infinite"
			}
		},
		"methodIdentifiers": {
			"VPApplNumberGenerator()": "747abf49",
			"addr_SC_C_Govt()": "fb41503c",
			"addr_SC_C_VC_1()": "1b9a87ee",
			"addr_SC_Requirements_Check()": "ed929ca5",
			"addr_SC_VC_Govt()": "e6864fe5",
			"discloseProof(address,bytes32[])": "a871317f",
			"getVPDetails(uint256)": "206a5092",
			"initiateVPApplAndlockMoney()": "6bda43f7",
			"lockMoneyByGovt(address)": "1814b591",
			"lockingAmount()": "25ab292e",
			"quit1ByC()": "83f713d2",
			"quit2ByGovt(address)": "9874e75b",
			"quit3ByC()": "ead65127",
			"quit4ByC()": "656844a5",
			"quit5ByC()": "ddf4ddc7",
			"quit6ByC()": "1401096e",
			"sendConsent1(address,bool)": "b1fdacb2",
			"sendConsent2(address,bool)": "4e9a1efa",
			"sendVaccinationProof(string,bytes32)": "2b6b2004",
			"timeLimit()": "c08d1fe5",
			"uploadVPInfoAndGetPayment(address,bytes32,string,string)": "0166a6dc"
		}
	},
	"abi": [
		{
			"inputs": [
				{
					"internalType": "address",
					"name": "_addr_SC_VC_Govt",
					"type": "address"
				},
				{
					"internalType": "address",
					"name": "_addr_SC_C_Govt",
					"type": "address"
				},
				{
					"internalType": "address",
					"name": "_addr_SC_C_VC_1",
					"type": "address"
				},
				{
					"internalType": "address",
					"name": "_addr_SC_Requirements_Check",
					"type": "address"
				}
			],
			"stateMutability": "nonpayable",
			"type": "constructor"
		},
		{
			"inputs": [],
			"name": "VPApplNumberGenerator",
			"outputs": [
				{
					"internalType": "uint256",
					"name": "",
					"type": "uint256"
				}
			],
			"stateMutability": "view",
			"type": "function"
		},
		{
			"inputs": [],
			"name": "addr_SC_C_Govt",
			"outputs": [
				{
					"internalType": "address",
					"name": "",
					"type": "address"
				}
			],
			"stateMutability": "view",
			"type": "function"
		},
		{
			"inputs": [],
			"name": "addr_SC_C_VC_1",
			"outputs": [
				{
					"internalType": "address",
					"name": "",
					"type": "address"
				}
			],
			"stateMutability": "view",
			"type": "function"
		},
		{
			"inputs": [],
			"name": "addr_SC_Requirements_Check",
			"outputs": [
				{
					"internalType": "address",
					"name": "",
					"type": "address"
				}
			],
			"stateMutability": "view",
			"type": "function"
		},
		{
			"inputs": [],
			"name": "addr_SC_VC_Govt",
			"outputs": [
				{
					"internalType": "address",
					"name": "",
					"type": "address"
				}
			],
			"stateMutability": "view",
			"type": "function"
		},
		{
			"inputs": [
				{
					"internalType": "address",
					"name": "_cAddr",
					"type": "address"
				},
				{
					"internalType": "bytes32[]",
					"name": "_hashes",
					"type": "bytes32[]"
				}
			],
			"name": "discloseProof",
			"outputs": [],
			"stateMutability": "nonpayable",
			"type": "function"
		},
		{
			"inputs": [
				{
					"internalType": "uint256",
					"name": "_tokenID",
					"type": "uint256"
				}
			],
			"name": "getVPDetails",
			"outputs": [
				{
					"internalType": "bytes32",
					"name": "",
					"type": "bytes32"
				},
				{
					"internalType": "string",
					"name": "",
					"type": "string"
				},
				{
					"internalType": "string",
					"name": "",
					"type": "string"
				},
				{
					"internalType": "uint256",
					"name": "",
					"type": "uint256"
				}
			],
			"stateMutability": "view",
			"type": "function"
		},
		{
			"inputs": [],
			"name": "initiateVPApplAndlockMoney",
			"outputs": [],
			"stateMutability": "payable",
			"type": "function"
		},
		{
			"inputs": [
				{
					"internalType": "address",
					"name": "_cAddr",
					"type": "address"
				}
			],
			"name": "lockMoneyByGovt",
			"outputs": [],
			"stateMutability": "payable",
			"type": "function"
		},
		{
			"inputs": [],
			"name": "lockingAmount",
			"outputs": [
				{
					"internalType": "uint256",
					"name": "",
					"type": "uint256"
				}
			],
			"stateMutability": "view",
			"type": "function"
		},
		{
			"inputs": [],
			"name": "quit1ByC",
			"outputs": [],
			"stateMutability": "nonpayable",
			"type": "function"
		},
		{
			"inputs": [
				{
					"internalType": "address",
					"name": "_cAddr",
					"type": "address"
				}
			],
			"name": "quit2ByGovt",
			"outputs": [],
			"stateMutability": "nonpayable",
			"type": "function"
		},
		{
			"inputs": [],
			"name": "quit3ByC",
			"outputs": [],
			"stateMutability": "nonpayable",
			"type": "function"
		},
		{
			"inputs": [],
			"name": "quit4ByC",
			"outputs": [],
			"stateMutability": "nonpayable",
			"type": "function"
		},
		{
			"inputs": [],
			"name": "quit5ByC",
			"outputs": [],
			"stateMutability": "nonpayable",
			"type": "function"
		},
		{
			"inputs": [],
			"name": "quit6ByC",
			"outputs": [],
			"stateMutability": "nonpayable",
			"type": "function"
		},
		{
			"inputs": [
				{
					"internalType": "address",
					"name": "_cAddr",
					"type": "address"
				},
				{
					"internalType": "bool",
					"name": "_consent1",
					"type": "bool"
				}
			],
			"name": "sendConsent1",
			"outputs": [],
			"stateMutability": "nonpayable",
			"type": "function"
		},
		{
			"inputs": [
				{
					"internalType": "address",
					"name": "_cAddr",
					"type": "address"
				},
				{
					"internalType": "bool",
					"name": "_consent2",
					"type": "bool"
				}
			],
			"name": "sendConsent2",
			"outputs": [],
			"stateMutability": "nonpayable",
			"type": "function"
		},
		{
			"inputs": [
				{
					"internalType": "string",
					"name": "_vID",
					"type": "string"
				},
				{
					"internalType": "bytes32",
					"name": "_commit_MT_Proof",
					"type": "bytes32"
				}
			],
			"name": "sendVaccinationProof",
			"outputs": [],
			"stateMutability": "nonpayable",
			"type": "function"
		},
		{
			"inputs": [],
			"name": "timeLimit",
			"outputs": [
				{
					"internalType": "uint256",
					"name": "",
					"type": "uint256"
				}
			],
			"stateMutability": "view",
			"type": "function"
		},
		{
			"inputs": [
				{
					"internalType": "address",
					"name": "_cAddr",
					"type": "address"
				},
				{
					"internalType": "bytes32",
					"name": "_MD_VP",
					"type": "bytes32"
				},
				{
					"internalType": "string",
					"name": "_sign",
					"type": "string"
				},
				{
					"internalType": "string",
					"name": "_cID",
					"type": "string"
				}
			],
			"name": "uploadVPInfoAndGetPayment",
			"outputs": [],
			"stateMutability": "nonpayable",
			"type": "function"
		}
	]
}