{
	"data": {
		"bytecode": {
			"linkReferences": {},
			"object": "60803461008457601f6118c338819003918201601f19168301916001600160401b038311848410176100895780849260209460405283398101031261008457516001600160a01b03811690819003610084576000600855600060095560018060a01b031981816000541617600055600154161760015560405161182390816100a08239f35b600080fd5b634e487b7160e01b600052604160045260246000fdfe608080604052600436101561001357600080fd5b60003560e01c9081630c8f87551461152d5750806317cb011c14610e9757806326f9a18c14610b605780632f581b6d14610ab157806363f8071c14610a695780636b34123b14610a4b57806374d5f446146107295780637e98c518146106fd5780638914a8a014610668578063902e927014610637578063a10cb877146105c7578063ad5ba4fa1461058d578063c08d1fe514610570578063c0b85b1c14610552578063e7f3a4b51461049e5763f8052b6c146100cf57600080fd5b3461042e5760208060031936011261042e576004359060018060a01b036001928184541660405163f0abda5d60e01b81528481600481855afa801561043a578491600091610471575b501633146104465760405163521105af60e01b815233600482015260249493929184908290879082905afa90811561043a57600091610408575b506103de573360005260058352604060002054600052600683526040600020546103b457806000526006835260406000205461038a57336000526002835260406000205493846000526003948585528660ff604060002054161515146102e9575b60005284845260ff604060002054166102c057600854908682018092116102ac57506102829291816005926008558060005260048652604060002090604051946101fc86611579565b8786016040870191606088019360ff8860048801549760808c019889520154169660a08a019715158852338a52835242845280855260005260048a5260406000209751166bffffffffffffffffffffffff60a01b885416178755518a870155516002860155518785015551600484015551151591019060ff801983541691151516179055565b6008543360005260028252806040600020556000525260406000209060ff19825416179055600080f35b634e487b7160e01b60009081526011600452fd5b8360046064926040519262461bcd60e51b845282840152820152635252323960e01b6044820152fd5b6004855260406000206040516102fe81611579565b858254168152888201548782015260028201549081604082015288830154606082015260a060ff600560048601549586608086015201541615159101528015159182610381575b508161036b575b50156101b35780600052858552604060002060ff1981541690556101b3565b61012c915061037a90426117e0565b113861034c565b15915038610345565b60405162461bcd60e51b8152600481810185905281860152630a4a464760e31b6044820152606490fd5b60405162461bcd60e51b8152600481810185905281860152630a4a46c760e31b6044820152606490fd5b60405162461bcd60e51b8152600481810185905281860152635252323760e01b6044820152606490fd5b90508381813d8311610433575b61041f81836115e9565b8101031261042e575138610152565b600080fd5b503d610415565b6040513d6000823e3d90fd5b60405162461bcd60e51b815260048082018690526024820152632929191b60e11b6044820152606490fd5b6104919150863d8811610497575b61048981836115e9565b8101906117c1565b38610118565b503d61047f565b3461042e57602036600319011261042e576004356000526007602052610535608060406000206105066003604051926104d6846115b1565b805484526001810154602085015260ff60028201548181161515604087015260081c161515606085015201611741565b918291015280519061054860208201516060604084015193015192604051958695608087526080870190611781565b9160208601528482036040860152611781565b9060608301520390f35b3461042e57600036600319011261042e576020600854604051908152f35b3461042e57600036600319011261042e57602060405161012c8152f35b3461042e57602036600319011261042e576001600160a01b036105ae611563565b1660005260026020526020604060002054604051908152f35b3461042e57602036600319011261042e57600435600052600460205260c0604060002060018060a01b0381541690600181015490600281015460038201549060ff6005600485015494015416936040519586526020860152604085015260608401526080830152151560a0820152f35b3461042e57602036600319011261042e576004356000526003602052602060ff604060002054166040519015158152f35b3461042e57602036600319011261042e5760043560005260076020526080604060002060405190610698826115b1565b80548252600181015491602081019283526002820154906106d66003604083019460ff85161515865260ff606085019560081c161515855201611741565b85820152519251915115159051151591604051938452602084015260408301526060820152f35b3461042e57602036600319011261042e5760043560005260066020526020604060002054604051908152f35b3461042e5760208060031936011261042e576004359081600052600781526040600020916040519261075a846115b1565b80548452600190818101548486019081526002820154906107986003604089019460ff85161515865260ff60608b019560081c161515855201611741565b9460808801958652848452600083526000526007865260406000209651875551838701556107d96002870192511515839060ff801983541691151516179055565b51151561ff0082549160081b169061ff0019161790556003840191519182519182519167ffffffffffffffff9283811161097657806108188354611662565b95601f968781116109fa575b5088908783116001146109975760009261098c575b5050600019600383901b1c191690831b1790555b84840151600487015560058601926040850151958651938411610976576108748554611662565b828111610930575b50809184116001146108c157509180809260609695946006986000946108b6575b50501b916000199060031b1c19161790555b0151910155005b01519250898061089d565b91939495601f1984168660005283600020936000905b8282106109195750509160069795939185606098969410610900575b505050811b0190556108af565b015160001960f88460031b161c191690558780806108f3565b8088869782949787015181550196019401906108d7565b85600052816000208380870160051c82019284881061096d575b0160051c019084905b82811061096157505061087c565b60008155018490610953565b9250819261094a565b634e487b7160e01b600052604160045260246000fd5b015190508980610839565b90859350601f19831691856000528a6000209260005b8c8282106109e457505084116109cb575b505050811b01905561084d565b015160001960f88460031b161c191690558980806109be565b83850151865589979095019493840193016109ad565b90915083600052886000208780850160051c8201928b8610610a42575b918791869594930160051c01915b828110610a33575050610824565b60008155859450879101610a25565b92508192610a17565b3461042e57600036600319011261042e576020600954604051908152f35b3461042e57602036600319011261042e576001600160a01b03610a8a611563565b16600052600560205260406000205460005260066020526020604060002054604051908152f35b3461042e57602036600319011261042e5760043560005260076020526040600020805460018201549160ff610aed600360028401549301611741565b91604051948594855260208501528181161515604085015260081c161515606083015260a060808301526060610b53610b338351608060a0870152610120860190611781565b602084015160c08601526040840151858203609f190160e0870152611781565b9101516101008301520390f35b3461042e5760a036600319011261042e5760043567ffffffffffffffff60243581811161042e57610b9590369060040161160b565b9160643582811161042e57610bae90369060040161160b565b8160005260209260078452604060002094604051958691610bce836115b1565b815483526001958683015491888501928352610c0b600360028601549560ff606060408a0199828a1615158b52019760081c161515875201611741565b9660808b0197885288855260405191610c2383611595565b82526044358a830152604082015260843560608201528652600052600787526040600020975188555185880155610c6d6002880192511515839060ff801983541691151516179055565b51151561ff0082549160081b169061ff0019161790556003850191519283519283518381116109765780610ca18354611662565b95601f96878111610e46575b508890878311600114610de357600092610dd8575b5050600019600383901b1c191690831b1790555b8484015160048701556005860192604085015195865193841161097657610cfd8554611662565b828111610d92575b5080918411600114610d3d57509180809260609695946006986000946108b65750501b916000199060031b1c19161790550151910155005b91939495601f1984168660005283600020936000905b828210610d7b575050916006979593918560609896941061090057505050811b0190556108af565b808886978294978701518155019601940190610d53565b85600052816000208380870160051c820192848810610dcf575b0160051c019084905b828110610dc3575050610d05565b60008155018490610db5565b92508192610dac565b015190508980610cc2565b90859350601f19831691856000528a6000209260005b8c828210610e305750508411610e17575b505050811b019055610cd6565b015160001960f88460031b161c19169055898080610e0a565b8385015186558997909501949384019301610df9565b90915083600052886000208780850160051c8201928b8610610e8e575b918791869594930160051c01915b828110610e7f575050610cad565b60008155859450879101610e71565b92508192610e63565b3461042e57604036600319011261042e57610eb0611563565b6024359081151580920361042e5760015460405163f0abda5d60e01b815290602090829060049082906001600160a01b03165afa90811561043a5760009161150e575b506001600160a01b031633036114e3576001600160a01b03166000818152600260205260409020549182156114b857826000526003602052600160ff6040600020541615150361148d5782600052600460205260406000209160405192610f5984611579565b80546001600160a01b0316845260018101546020850152600281015460408501526003810154606085015260048101546080850181905260059091015460ff16151560a08501526114625761012c610fb56040850151426117e0565b116114375782516001600160a01b03160361140c574260808301526001036113fc57600160a0820152600954916001830183116113e657600183016009556020820151600052600660205260018301604060002055600160208301519360405161101e81611595565b60405161102a816115cd565b60008152815260006020820152604051611043816115cd565b6000815260408201526000606082015260405195611060876115b1565b865282820160208701526000604087015260006060870152608086015201600052600760205260806040600020938051855560208101516001860155600285016110bc60408301511515829060ff801983541691151516179055565b6060820151151561ff0082549160081b169061ff001916179055015192835180519067ffffffffffffffff82116109765781906110fc6003850154611662565b601f8111611393575b50602090601f831160011461132157600092611316575b50508160011b916000199060031b1c19161760038201555b60208401516004820155604084015180519067ffffffffffffffff8211610976576111626005840154611662565b601f81116112cf575b50602090601f83116001146112575795826006936060936112389960009261124c575b50508160011b916000199060031b1c19161760058501555b0151910155602082015160018060a01b0383511660005260056020526040600020555b6000526004602052600560a0604060002092600180831b038151166bffffffffffffffffffffffff831b855416178455602081015160018501556040810151600285015560608101516003850155608081015160048501550151151591019060ff801983541691151516179055565b60036020526040600020805460ff19169055005b01519050898061118e565b906005840160005260206000209160005b601f19851681106112b75750836060936112389993600193600697601f1981161061129e575b505050811b0160058501556111a6565b015160001960f88460031b161c1916905589808061128e565b91926020600181928685015181550194019201611268565b600584016000526020600020601f840160051c81016020851061130f575b601f830160051c8201811061130357505061116b565b600081556001016112ed565b50806112ed565b01519050868061111c565b9250600384016000526020600020906000935b601f1984168510611378576001945083601f1981161061135f575b505050811b016003820155611134565b015160001960f88460031b161c1916905586808061134f565b81810151835560209485019460019093019290910190611334565b909150600384016000526020600020601f840160051c8101602085106113df575b90849392915b601f830160051c820181106113d0575050611105565b600081558594506001016113ba565b50806113b4565b634e487b7160e01b600052601160045260246000fd5b61123891600060a08301526111c9565b606460405162461bcd60e51b81526020600482015260046024820152632929199960e11b6044820152fd5b60405162461bcd60e51b81526020600482015260036024820152620a4a4760eb1b6044820152606490fd5b606460405162461bcd60e51b81526020600482015260046024820152635252323160e01b6044820152fd5b606460405162461bcd60e51b81526020600482015260046024820152635252333160e01b6044820152fd5b606460405162461bcd60e51b81526020600482015260046024820152630525233360e41b6044820152fd5b60405162461bcd60e51b815260206004820152600360248201526252523160e81b6044820152606490fd5b611527915060203d6020116104975761048981836115e9565b83610ef3565b3461042e57602036600319011261042e576020906001600160a01b03611551611563565b16600052600582526040600020548152f35b600435906001600160a01b038216820361042e57565b60c0810190811067ffffffffffffffff82111761097657604052565b6080810190811067ffffffffffffffff82111761097657604052565b60a0810190811067ffffffffffffffff82111761097657604052565b6020810190811067ffffffffffffffff82111761097657604052565b90601f8019910116810190811067ffffffffffffffff82111761097657604052565b81601f8201121561042e5780359067ffffffffffffffff82116109765760405192611640601f8401601f1916602001856115e9565b8284526020838301011161042e57816000926020809301838601378301015290565b90600182811c92168015611692575b602083101461167c57565b634e487b7160e01b600052602260045260246000fd5b91607f1691611671565b906040519182600082546116af81611662565b9081845260209460019160018116908160001461171f57506001146116e0575b5050506116de925003836115e9565b565b600090815285812095935091905b8183106117075750506116de93508201013880806116cf565b855488840185015294850194879450918301916116ee565b925050506116de94925060ff191682840152151560051b8201013880806116cf565b9060405161174e81611595565b60606003829461175d8161169c565b8452600181015460208501526117756002820161169c565b60408501520154910152565b919082519283825260005b8481106117ad575050826000602080949584010152601f8019910116010190565b60208183018101518483018201520161178c565b9081602091031261042e57516001600160a01b038116810361042e5790565b919082039182116113e65756fea264697066735822122035ef5b23e503cdaceb804e55555e98401d4ad35e074eb9d3b53d10fa1c0bb5bc64736f6c63430008160033",
			"opcodes": "PUSH1 0x80 CALLVALUE PUSH2 0x84 JUMPI PUSH1 0x1F PUSH2 0x18C3 CODESIZE DUP2 SWAP1 SUB SWAP2 DUP3 ADD PUSH1 0x1F NOT AND DUP4 ADD SWAP2 PUSH1 0x1 PUSH1 0x1 PUSH1 0x40 SHL SUB DUP4 GT DUP5 DUP5 LT OR PUSH2 0x89 JUMPI DUP1 DUP5 SWAP3 PUSH1 0x20 SWAP5 PUSH1 0x40 MSTORE DUP4 CODECOPY DUP2 ADD SUB SLT PUSH2 0x84 JUMPI MLOAD PUSH1 0x1 PUSH1 0x1 PUSH1 0xA0 SHL SUB DUP2 AND SWAP1 DUP2 SWAP1 SUB PUSH2 0x84 JUMPI PUSH1 0x0 PUSH1 0x8 SSTORE PUSH1 0x0 PUSH1 0x9 SSTORE PUSH1 0x1 DUP1 PUSH1 0xA0 SHL SUB NOT DUP2 DUP2 PUSH1 0x0 SLOAD AND OR PUSH1 0x0 SSTORE PUSH1 0x1 SLOAD AND OR PUSH1 0x1 SSTORE PUSH1 0x40 MLOAD PUSH2 0x1823 SWAP1 DUP2 PUSH2 0xA0 DUP3 CODECOPY RETURN JUMPDEST PUSH1 0x0 DUP1 REVERT JUMPDEST PUSH4 0x4E487B71 PUSH1 0xE0 SHL PUSH1 0x0 MSTORE PUSH1 0x41 PUSH1 0x4 MSTORE PUSH1 0x24 PUSH1 0x0 REVERT INVALID PUSH1 0x80 DUP1 PUSH1 0x40 MSTORE PUSH1 0x4 CALLDATASIZE LT ISZERO PUSH2 0x13 JUMPI PUSH1 0x0 DUP1 REVERT JUMPDEST PUSH1 0x0 CALLDATALOAD PUSH1 0xE0 SHR SWAP1 DUP2 PUSH4 0xC8F8755 EQ PUSH2 0x152D JUMPI POP DUP1 PUSH4 0x17CB011C EQ PUSH2 0xE97 JUMPI DUP1 PUSH4 0x26F9A18C EQ PUSH2 0xB60 JUMPI DUP1 PUSH4 0x2F581B6D EQ PUSH2 0xAB1 JUMPI DUP1 PUSH4 0x63F8071C EQ PUSH2 0xA69 JUMPI DUP1 PUSH4 0x6B34123B EQ PUSH2 0xA4B JUMPI DUP1 PUSH4 0x74D5F446 EQ PUSH2 0x729 JUMPI DUP1 PUSH4 0x7E98C518 EQ PUSH2 0x6FD JUMPI DUP1 PUSH4 0x8914A8A0 EQ PUSH2 0x668 JUMPI DUP1 PUSH4 0x902E9270 EQ PUSH2 0x637 JUMPI DUP1 PUSH4 0xA10CB877 EQ PUSH2 0x5C7 JUMPI DUP1 PUSH4 0xAD5BA4FA EQ PUSH2 0x58D JUMPI DUP1 PUSH4 0xC08D1FE5 EQ PUSH2 0x570 JUMPI DUP1 PUSH4 0xC0B85B1C EQ PUSH2 0x552 JUMPI DUP1 PUSH4 0xE7F3A4B5 EQ PUSH2 0x49E JUMPI PUSH4 0xF8052B6C EQ PUSH2 0xCF JUMPI PUSH1 0x0 DUP1 REVERT JUMPDEST CALLVALUE PUSH2 0x42E JUMPI PUSH1 0x20 DUP1 PUSH1 0x3 NOT CALLDATASIZE ADD SLT PUSH2 0x42E JUMPI PUSH1 0x4 CALLDATALOAD SWAP1 PUSH1 0x1 DUP1 PUSH1 0xA0 SHL SUB PUSH1 0x1 SWAP3 DUP2 DUP5 SLOAD AND PUSH1 0x40 MLOAD PUSH4 0xF0ABDA5D PUSH1 0xE0 SHL DUP2 MSTORE DUP5 DUP2 PUSH1 0x4 DUP2 DUP6 GAS STATICCALL DUP1 ISZERO PUSH2 0x43A JUMPI DUP5 SWAP2 PUSH1 0x0 SWAP2 PUSH2 0x471 JUMPI JUMPDEST POP AND CALLER EQ PUSH2 0x446 JUMPI PUSH1 0x40 MLOAD PUSH4 0x521105AF PUSH1 0xE0 SHL DUP2 MSTORE CALLER PUSH1 0x4 DUP3 ADD MSTORE PUSH1 0x24 SWAP5 SWAP4 SWAP3 SWAP2 DUP5 SWAP1 DUP3 SWAP1 DUP8 SWAP1 DUP3 SWAP1 GAS STATICCALL SWAP1 DUP2 ISZERO PUSH2 0x43A JUMPI PUSH1 0x0 SWAP2 PUSH2 0x408 JUMPI JUMPDEST POP PUSH2 0x3DE JUMPI CALLER PUSH1 0x0 MSTORE PUSH1 0x5 DUP4 MSTORE PUSH1 0x40 PUSH1 0x0 KECCAK256 SLOAD PUSH1 0x0 MSTORE PUSH1 0x6 DUP4 MSTORE PUSH1 0x40 PUSH1 0x0 KECCAK256 SLOAD PUSH2 0x3B4 JUMPI DUP1 PUSH1 0x0 MSTORE PUSH1 0x6 DUP4 MSTORE PUSH1 0x40 PUSH1 0x0 KECCAK256 SLOAD PUSH2 0x38A JUMPI CALLER PUSH1 0x0 MSTORE PUSH1 0x2 DUP4 MSTORE PUSH1 0x40 PUSH1 0x0 KECCAK256 SLOAD SWAP4 DUP5 PUSH1 0x0 MSTORE PUSH1 0x3 SWAP5 DUP6 DUP6 MSTORE DUP7 PUSH1 0xFF PUSH1 0x40 PUSH1 0x0 KECCAK256 SLOAD AND ISZERO ISZERO EQ PUSH2 0x2E9 JUMPI JUMPDEST PUSH1 0x0 MSTORE DUP5 DUP5 MSTORE PUSH1 0xFF PUSH1 0x40 PUSH1 0x0 KECCAK256 SLOAD AND PUSH2 0x2C0 JUMPI PUSH1 0x8 SLOAD SWAP1 DUP7 DUP3 ADD DUP1 SWAP3 GT PUSH2 0x2AC JUMPI POP PUSH2 0x282 SWAP3 SWAP2 DUP2 PUSH1 0x5 SWAP3 PUSH1 0x8 SSTORE DUP1 PUSH1 0x0 MSTORE PUSH1 0x4 DUP7 MSTORE PUSH1 0x40 PUSH1 0x0 KECCAK256 SWAP1 PUSH1 0x40 MLOAD SWAP5 PUSH2 0x1FC DUP7 PUSH2 0x1579 JUMP JUMPDEST DUP8 DUP7 ADD PUSH1 0x40 DUP8 ADD SWAP2 PUSH1 0x60 DUP9 ADD SWAP4 PUSH1 0xFF DUP9 PUSH1 0x4 DUP9 ADD SLOAD SWAP8 PUSH1 0x80 DUP13 ADD SWAP9 DUP10 MSTORE ADD SLOAD AND SWAP7 PUSH1 0xA0 DUP11 ADD SWAP8 ISZERO ISZERO DUP9 MSTORE CALLER DUP11 MSTORE DUP4 MSTORE TIMESTAMP DUP5 MSTORE DUP1 DUP6 MSTORE PUSH1 0x0 MSTORE PUSH1 0x4 DUP11 MSTORE PUSH1 0x40 PUSH1 0x0 KECCAK256 SWAP8 MLOAD AND PUSH12 0xFFFFFFFFFFFFFFFFFFFFFFFF PUSH1 0xA0 SHL DUP9 SLOAD AND OR DUP8 SSTORE MLOAD DUP11 DUP8 ADD SSTORE MLOAD PUSH1 0x2 DUP7 ADD SSTORE MLOAD DUP8 DUP6 ADD SSTORE MLOAD PUSH1 0x4 DUP5 ADD SSTORE MLOAD ISZERO ISZERO SWAP2 ADD SWAP1 PUSH1 0xFF DUP1 NOT DUP4 SLOAD AND SWAP2 ISZERO ISZERO AND OR SWAP1 SSTORE JUMP JUMPDEST PUSH1 0x8 SLOAD CALLER PUSH1 0x0 MSTORE PUSH1 0x2 DUP3 MSTORE DUP1 PUSH1 0x40 PUSH1 0x0 KECCAK256 SSTORE PUSH1 0x0 MSTORE MSTORE PUSH1 0x40 PUSH1 0x0 KECCAK256 SWAP1 PUSH1 0xFF NOT DUP3 SLOAD AND OR SWAP1 SSTORE PUSH1 0x0 DUP1 RETURN JUMPDEST PUSH4 0x4E487B71 PUSH1 0xE0 SHL PUSH1 0x0 SWAP1 DUP2 MSTORE PUSH1 0x11 PUSH1 0x4 MSTORE REVERT JUMPDEST DUP4 PUSH1 0x4 PUSH1 0x64 SWAP3 PUSH1 0x40 MLOAD SWAP3 PUSH3 0x461BCD PUSH1 0xE5 SHL DUP5 MSTORE DUP3 DUP5 ADD MSTORE DUP3 ADD MSTORE PUSH4 0x52523239 PUSH1 0xE0 SHL PUSH1 0x44 DUP3 ADD MSTORE REVERT JUMPDEST PUSH1 0x4 DUP6 MSTORE PUSH1 0x40 PUSH1 0x0 KECCAK256 PUSH1 0x40 MLOAD PUSH2 0x2FE DUP2 PUSH2 0x1579 JUMP JUMPDEST DUP6 DUP3 SLOAD AND DUP2 MSTORE DUP9 DUP3 ADD SLOAD DUP8 DUP3 ADD MSTORE PUSH1 0x2 DUP3 ADD SLOAD SWAP1 DUP2 PUSH1 0x40 DUP3 ADD MSTORE DUP9 DUP4 ADD SLOAD PUSH1 0x60 DUP3 ADD MSTORE PUSH1 0xA0 PUSH1 0xFF PUSH1 0x5 PUSH1 0x4 DUP7 ADD SLOAD SWAP6 DUP7 PUSH1 0x80 DUP7 ADD MSTORE ADD SLOAD AND ISZERO ISZERO SWAP2 ADD MSTORE DUP1 ISZERO ISZERO SWAP2 DUP3 PUSH2 0x381 JUMPI JUMPDEST POP DUP2 PUSH2 0x36B JUMPI JUMPDEST POP ISZERO PUSH2 0x1B3 JUMPI DUP1 PUSH1 0x0 MSTORE DUP6 DUP6 MSTORE PUSH1 0x40 PUSH1 0x0 KECCAK256 PUSH1 0xFF NOT DUP2 SLOAD AND SWAP1 SSTORE PUSH2 0x1B3 JUMP JUMPDEST PUSH2 0x12C SWAP2 POP PUSH2 0x37A SWAP1 TIMESTAMP PUSH2 0x17E0 JUMP JUMPDEST GT CODESIZE PUSH2 0x34C JUMP JUMPDEST ISZERO SWAP2 POP CODESIZE PUSH2 0x345 JUMP JUMPDEST PUSH1 0x40 MLOAD PUSH3 0x461BCD PUSH1 0xE5 SHL DUP2 MSTORE PUSH1 0x4 DUP2 DUP2 ADD DUP6 SWAP1 MSTORE DUP2 DUP7 ADD MSTORE PUSH4 0xA4A4647 PUSH1 0xE3 SHL PUSH1 0x44 DUP3 ADD MSTORE PUSH1 0x64 SWAP1 REVERT JUMPDEST PUSH1 0x40 MLOAD PUSH3 0x461BCD PUSH1 0xE5 SHL DUP2 MSTORE PUSH1 0x4 DUP2 DUP2 ADD DUP6 SWAP1 MSTORE DUP2 DUP7 ADD MSTORE PUSH4 0xA4A46C7 PUSH1 0xE3 SHL PUSH1 0x44 DUP3 ADD MSTORE PUSH1 0x64 SWAP1 REVERT JUMPDEST PUSH1 0x40 MLOAD PUSH3 0x461BCD PUSH1 0xE5 SHL DUP2 MSTORE PUSH1 0x4 DUP2 DUP2 ADD DUP6 SWAP1 MSTORE DUP2 DUP7 ADD MSTORE PUSH4 0x52523237 PUSH1 0xE0 SHL PUSH1 0x44 DUP3 ADD MSTORE PUSH1 0x64 SWAP1 REVERT JUMPDEST SWAP1 POP DUP4 DUP2 DUP2 RETURNDATASIZE DUP4 GT PUSH2 0x433 JUMPI JUMPDEST PUSH2 0x41F DUP2 DUP4 PUSH2 0x15E9 JUMP JUMPDEST DUP2 ADD SUB SLT PUSH2 0x42E JUMPI MLOAD CODESIZE PUSH2 0x152 JUMP JUMPDEST PUSH1 0x0 DUP1 REVERT JUMPDEST POP RETURNDATASIZE PUSH2 0x415 JUMP JUMPDEST PUSH1 0x40 MLOAD RETURNDATASIZE PUSH1 0x0 DUP3 RETURNDATACOPY RETURNDATASIZE SWAP1 REVERT JUMPDEST PUSH1 0x40 MLOAD PUSH3 0x461BCD PUSH1 0xE5 SHL DUP2 MSTORE PUSH1 0x4 DUP1 DUP3 ADD DUP7 SWAP1 MSTORE PUSH1 0x24 DUP3 ADD MSTORE PUSH4 0x2929191B PUSH1 0xE1 SHL PUSH1 0x44 DUP3 ADD MSTORE PUSH1 0x64 SWAP1 REVERT JUMPDEST PUSH2 0x491 SWAP2 POP DUP7 RETURNDATASIZE DUP9 GT PUSH2 0x497 JUMPI JUMPDEST PUSH2 0x489 DUP2 DUP4 PUSH2 0x15E9 JUMP JUMPDEST DUP2 ADD SWAP1 PUSH2 0x17C1 JUMP JUMPDEST CODESIZE PUSH2 0x118 JUMP JUMPDEST POP RETURNDATASIZE PUSH2 0x47F JUMP JUMPDEST CALLVALUE PUSH2 0x42E JUMPI PUSH1 0x20 CALLDATASIZE PUSH1 0x3 NOT ADD SLT PUSH2 0x42E JUMPI PUSH1 0x4 CALLDATALOAD PUSH1 0x0 MSTORE PUSH1 0x7 PUSH1 0x20 MSTORE PUSH2 0x535 PUSH1 0x80 PUSH1 0x40 PUSH1 0x0 KECCAK256 PUSH2 0x506 PUSH1 0x3 PUSH1 0x40 MLOAD SWAP3 PUSH2 0x4D6 DUP5 PUSH2 0x15B1 JUMP JUMPDEST DUP1 SLOAD DUP5 MSTORE PUSH1 0x1 DUP2 ADD SLOAD PUSH1 0x20 DUP6 ADD MSTORE PUSH1 0xFF PUSH1 0x2 DUP3 ADD SLOAD DUP2 DUP2 AND ISZERO ISZERO PUSH1 0x40 DUP8 ADD MSTORE PUSH1 0x8 SHR AND ISZERO ISZERO PUSH1 0x60 DUP6 ADD MSTORE ADD PUSH2 0x1741 JUMP JUMPDEST SWAP2 DUP3 SWAP2 ADD MSTORE DUP1 MLOAD SWAP1 PUSH2 0x548 PUSH1 0x20 DUP3 ADD MLOAD PUSH1 0x60 PUSH1 0x40 DUP5 ADD MLOAD SWAP4 ADD MLOAD SWAP3 PUSH1 0x40 MLOAD SWAP6 DUP7 SWAP6 PUSH1 0x80 DUP8 MSTORE PUSH1 0x80 DUP8 ADD SWAP1 PUSH2 0x1781 JUMP JUMPDEST SWAP2 PUSH1 0x20 DUP7 ADD MSTORE DUP5 DUP3 SUB PUSH1 0x40 DUP7 ADD MSTORE PUSH2 0x1781 JUMP JUMPDEST SWAP1 PUSH1 0x60 DUP4 ADD MSTORE SUB SWAP1 RETURN JUMPDEST CALLVALUE PUSH2 0x42E JUMPI PUSH1 0x0 CALLDATASIZE PUSH1 0x3 NOT ADD SLT PUSH2 0x42E JUMPI PUSH1 0x20 PUSH1 0x8 SLOAD PUSH1 0x40 MLOAD SWAP1 DUP2 MSTORE RETURN JUMPDEST CALLVALUE PUSH2 0x42E JUMPI PUSH1 0x0 CALLDATASIZE PUSH1 0x3 NOT ADD SLT PUSH2 0x42E JUMPI PUSH1 0x20 PUSH1 0x40 MLOAD PUSH2 0x12C DUP2 MSTORE RETURN JUMPDEST CALLVALUE PUSH2 0x42E JUMPI PUSH1 0x20 CALLDATASIZE PUSH1 0x3 NOT ADD SLT PUSH2 0x42E JUMPI PUSH1 0x1 PUSH1 0x1 PUSH1 0xA0 SHL SUB PUSH2 0x5AE PUSH2 0x1563 JUMP JUMPDEST AND PUSH1 0x0 MSTORE PUSH1 0x2 PUSH1 0x20 MSTORE PUSH1 0x20 PUSH1 0x40 PUSH1 0x0 KECCAK256 SLOAD PUSH1 0x40 MLOAD SWAP1 DUP2 MSTORE RETURN JUMPDEST CALLVALUE PUSH2 0x42E JUMPI PUSH1 0x20 CALLDATASIZE PUSH1 0x3 NOT ADD SLT PUSH2 0x42E JUMPI PUSH1 0x4 CALLDATALOAD PUSH1 0x0 MSTORE PUSH1 0x4 PUSH1 0x20 MSTORE PUSH1 0xC0 PUSH1 0x40 PUSH1 0x0 KECCAK256 PUSH1 0x1 DUP1 PUSH1 0xA0 SHL SUB DUP2 SLOAD AND SWAP1 PUSH1 0x1 DUP2 ADD SLOAD SWAP1 PUSH1 0x2 DUP2 ADD SLOAD PUSH1 0x3 DUP3 ADD SLOAD SWAP1 PUSH1 0xFF PUSH1 0x5 PUSH1 0x4 DUP6 ADD SLOAD SWAP5 ADD SLOAD AND SWAP4 PUSH1 0x40 MLOAD SWAP6 DUP7 MSTORE PUSH1 0x20 DUP7 ADD MSTORE PUSH1 0x40 DUP6 ADD MSTORE PUSH1 0x60 DUP5 ADD MSTORE PUSH1 0x80 DUP4 ADD MSTORE ISZERO ISZERO PUSH1 0xA0 DUP3 ADD MSTORE RETURN JUMPDEST CALLVALUE PUSH2 0x42E JUMPI PUSH1 0x20 CALLDATASIZE PUSH1 0x3 NOT ADD SLT PUSH2 0x42E JUMPI PUSH1 0x4 CALLDATALOAD PUSH1 0x0 MSTORE PUSH1 0x3 PUSH1 0x20 MSTORE PUSH1 0x20 PUSH1 0xFF PUSH1 0x40 PUSH1 0x0 KECCAK256 SLOAD AND PUSH1 0x40 MLOAD SWAP1 ISZERO ISZERO DUP2 MSTORE RETURN JUMPDEST CALLVALUE PUSH2 0x42E JUMPI PUSH1 0x20 CALLDATASIZE PUSH1 0x3 NOT ADD SLT PUSH2 0x42E JUMPI PUSH1 0x4 CALLDATALOAD PUSH1 0x0 MSTORE PUSH1 0x7 PUSH1 0x20 MSTORE PUSH1 0x80 PUSH1 0x40 PUSH1 0x0 KECCAK256 PUSH1 0x40 MLOAD SWAP1 PUSH2 0x698 DUP3 PUSH2 0x15B1 JUMP JUMPDEST DUP1 SLOAD DUP3 MSTORE PUSH1 0x1 DUP2 ADD SLOAD SWAP2 PUSH1 0x20 DUP2 ADD SWAP3 DUP4 MSTORE PUSH1 0x2 DUP3 ADD SLOAD SWAP1 PUSH2 0x6D6 PUSH1 0x3 PUSH1 0x40 DUP4 ADD SWAP5 PUSH1 0xFF DUP6 AND ISZERO ISZERO DUP7 MSTORE PUSH1 0xFF PUSH1 0x60 DUP6 ADD SWAP6 PUSH1 0x8 SHR AND ISZERO ISZERO DUP6 MSTORE ADD PUSH2 0x1741 JUMP JUMPDEST DUP6 DUP3 ADD MSTORE MLOAD SWAP3 MLOAD SWAP2 MLOAD ISZERO ISZERO SWAP1 MLOAD ISZERO ISZERO SWAP2 PUSH1 0x40 MLOAD SWAP4 DUP5 MSTORE PUSH1 0x20 DUP5 ADD MSTORE PUSH1 0x40 DUP4 ADD MSTORE PUSH1 0x60 DUP3 ADD MSTORE RETURN JUMPDEST CALLVALUE PUSH2 0x42E JUMPI PUSH1 0x20 CALLDATASIZE PUSH1 0x3 NOT ADD SLT PUSH2 0x42E JUMPI PUSH1 0x4 CALLDATALOAD PUSH1 0x0 MSTORE PUSH1 0x6 PUSH1 0x20 MSTORE PUSH1 0x20 PUSH1 0x40 PUSH1 0x0 KECCAK256 SLOAD PUSH1 0x40 MLOAD SWAP1 DUP2 MSTORE RETURN JUMPDEST CALLVALUE PUSH2 0x42E JUMPI PUSH1 0x20 DUP1 PUSH1 0x3 NOT CALLDATASIZE ADD SLT PUSH2 0x42E JUMPI PUSH1 0x4 CALLDATALOAD SWAP1 DUP2 PUSH1 0x0 MSTORE PUSH1 0x7 DUP2 MSTORE PUSH1 0x40 PUSH1 0x0 KECCAK256 SWAP2 PUSH1 0x40 MLOAD SWAP3 PUSH2 0x75A DUP5 PUSH2 0x15B1 JUMP JUMPDEST DUP1 SLOAD DUP5 MSTORE PUSH1 0x1 SWAP1 DUP2 DUP2 ADD SLOAD DUP5 DUP7 ADD SWAP1 DUP2 MSTORE PUSH1 0x2 DUP3 ADD SLOAD SWAP1 PUSH2 0x798 PUSH1 0x3 PUSH1 0x40 DUP10 ADD SWAP5 PUSH1 0xFF DUP6 AND ISZERO ISZERO DUP7 MSTORE PUSH1 0xFF PUSH1 0x60 DUP12 ADD SWAP6 PUSH1 0x8 SHR AND ISZERO ISZERO DUP6 MSTORE ADD PUSH2 0x1741 JUMP JUMPDEST SWAP5 PUSH1 0x80 DUP9 ADD SWAP6 DUP7 MSTORE DUP5 DUP5 MSTORE PUSH1 0x0 DUP4 MSTORE PUSH1 0x0 MSTORE PUSH1 0x7 DUP7 MSTORE PUSH1 0x40 PUSH1 0x0 KECCAK256 SWAP7 MLOAD DUP8 SSTORE MLOAD DUP4 DUP8 ADD SSTORE PUSH2 0x7D9 PUSH1 0x2 DUP8 ADD SWAP3 MLOAD ISZERO ISZERO DUP4 SWAP1 PUSH1 0xFF DUP1 NOT DUP4 SLOAD AND SWAP2 ISZERO ISZERO AND OR SWAP1 SSTORE JUMP JUMPDEST MLOAD ISZERO ISZERO PUSH2 0xFF00 DUP3 SLOAD SWAP2 PUSH1 0x8 SHL AND SWAP1 PUSH2 0xFF00 NOT AND OR SWAP1 SSTORE PUSH1 0x3 DUP5 ADD SWAP2 MLOAD SWAP2 DUP3 MLOAD SWAP2 DUP3 MLOAD SWAP2 PUSH8 0xFFFFFFFFFFFFFFFF SWAP3 DUP4 DUP2 GT PUSH2 0x976 JUMPI DUP1 PUSH2 0x818 DUP4 SLOAD PUSH2 0x1662 JUMP JUMPDEST SWAP6 PUSH1 0x1F SWAP7 DUP8 DUP2 GT PUSH2 0x9FA JUMPI JUMPDEST POP DUP9 SWAP1 DUP8 DUP4 GT PUSH1 0x1 EQ PUSH2 0x997 JUMPI PUSH1 0x0 SWAP3 PUSH2 0x98C JUMPI JUMPDEST POP POP PUSH1 0x0 NOT PUSH1 0x3 DUP4 SWAP1 SHL SHR NOT AND SWAP1 DUP4 SHL OR SWAP1 SSTORE JUMPDEST DUP5 DUP5 ADD MLOAD PUSH1 0x4 DUP8 ADD SSTORE PUSH1 0x5 DUP7 ADD SWAP3 PUSH1 0x40 DUP6 ADD MLOAD SWAP6 DUP7 MLOAD SWAP4 DUP5 GT PUSH2 0x976 JUMPI PUSH2 0x874 DUP6 SLOAD PUSH2 0x1662 JUMP JUMPDEST DUP3 DUP2 GT PUSH2 0x930 JUMPI JUMPDEST POP DUP1 SWAP2 DUP5 GT PUSH1 0x1 EQ PUSH2 0x8C1 JUMPI POP SWAP2 DUP1 DUP1 SWAP3 PUSH1 0x60 SWAP7 SWAP6 SWAP5 PUSH1 0x6 SWAP9 PUSH1 0x0 SWAP5 PUSH2 0x8B6 JUMPI JUMPDEST POP POP SHL SWAP2 PUSH1 0x0 NOT SWAP1 PUSH1 0x3 SHL SHR NOT AND OR SWAP1 SSTORE JUMPDEST ADD MLOAD SWAP2 ADD SSTORE STOP JUMPDEST ADD MLOAD SWAP3 POP DUP10 DUP1 PUSH2 0x89D JUMP JUMPDEST SWAP2 SWAP4 SWAP5 SWAP6 PUSH1 0x1F NOT DUP5 AND DUP7 PUSH1 0x0 MSTORE DUP4 PUSH1 0x0 KECCAK256 SWAP4 PUSH1 0x0 SWAP1 JUMPDEST DUP3 DUP3 LT PUSH2 0x919 JUMPI POP POP SWAP2 PUSH1 0x6 SWAP8 SWAP6 SWAP4 SWAP2 DUP6 PUSH1 0x60 SWAP9 SWAP7 SWAP5 LT PUSH2 0x900 JUMPI JUMPDEST POP POP POP DUP2 SHL ADD SWAP1 SSTORE PUSH2 0x8AF JUMP JUMPDEST ADD MLOAD PUSH1 0x0 NOT PUSH1 0xF8 DUP5 PUSH1 0x3 SHL AND SHR NOT AND SWAP1 SSTORE DUP8 DUP1 DUP1 PUSH2 0x8F3 JUMP JUMPDEST DUP1 DUP9 DUP7 SWAP8 DUP3 SWAP5 SWAP8 DUP8 ADD MLOAD DUP2 SSTORE ADD SWAP7 ADD SWAP5 ADD SWAP1 PUSH2 0x8D7 JUMP JUMPDEST DUP6 PUSH1 0x0 MSTORE DUP2 PUSH1 0x0 KECCAK256 DUP4 DUP1 DUP8 ADD PUSH1 0x5 SHR DUP3 ADD SWAP3 DUP5 DUP9 LT PUSH2 0x96D JUMPI JUMPDEST ADD PUSH1 0x5 SHR ADD SWAP1 DUP5 SWAP1 JUMPDEST DUP3 DUP2 LT PUSH2 0x961 JUMPI POP POP PUSH2 0x87C JUMP JUMPDEST PUSH1 0x0 DUP2 SSTORE ADD DUP5 SWAP1 PUSH2 0x953 JUMP JUMPDEST SWAP3 POP DUP2 SWAP3 PUSH2 0x94A JUMP JUMPDEST PUSH4 0x4E487B71 PUSH1 0xE0 SHL PUSH1 0x0 MSTORE PUSH1 0x41 PUSH1 0x4 MSTORE PUSH1 0x24 PUSH1 0x0 REVERT JUMPDEST ADD MLOAD SWAP1 POP DUP10 DUP1 PUSH2 0x839 JUMP JUMPDEST SWAP1 DUP6 SWAP4 POP PUSH1 0x1F NOT DUP4 AND SWAP2 DUP6 PUSH1 0x0 MSTORE DUP11 PUSH1 0x0 KECCAK256 SWAP3 PUSH1 0x0 JUMPDEST DUP13 DUP3 DUP3 LT PUSH2 0x9E4 JUMPI POP POP DUP5 GT PUSH2 0x9CB JUMPI JUMPDEST POP POP POP DUP2 SHL ADD SWAP1 SSTORE PUSH2 0x84D JUMP JUMPDEST ADD MLOAD PUSH1 0x0 NOT PUSH1 0xF8 DUP5 PUSH1 0x3 SHL AND SHR NOT AND SWAP1 SSTORE DUP10 DUP1 DUP1 PUSH2 0x9BE JUMP JUMPDEST DUP4 DUP6 ADD MLOAD DUP7 SSTORE DUP10 SWAP8 SWAP1 SWAP6 ADD SWAP5 SWAP4 DUP5 ADD SWAP4 ADD PUSH2 0x9AD JUMP JUMPDEST SWAP1 SWAP2 POP DUP4 PUSH1 0x0 MSTORE DUP9 PUSH1 0x0 KECCAK256 DUP8 DUP1 DUP6 ADD PUSH1 0x5 SHR DUP3 ADD SWAP3 DUP12 DUP7 LT PUSH2 0xA42 JUMPI JUMPDEST SWAP2 DUP8 SWAP2 DUP7 SWAP6 SWAP5 SWAP4 ADD PUSH1 0x5 SHR ADD SWAP2 JUMPDEST DUP3 DUP2 LT PUSH2 0xA33 JUMPI POP POP PUSH2 0x824 JUMP JUMPDEST PUSH1 0x0 DUP2 SSTORE DUP6 SWAP5 POP DUP8 SWAP2 ADD PUSH2 0xA25 JUMP JUMPDEST SWAP3 POP DUP2 SWAP3 PUSH2 0xA17 JUMP JUMPDEST CALLVALUE PUSH2 0x42E JUMPI PUSH1 0x0 CALLDATASIZE PUSH1 0x3 NOT ADD SLT PUSH2 0x42E JUMPI PUSH1 0x20 PUSH1 0x9 SLOAD PUSH1 0x40 MLOAD SWAP1 DUP2 MSTORE RETURN JUMPDEST CALLVALUE PUSH2 0x42E JUMPI PUSH1 0x20 CALLDATASIZE PUSH1 0x3 NOT ADD SLT PUSH2 0x42E JUMPI PUSH1 0x1 PUSH1 0x1 PUSH1 0xA0 SHL SUB PUSH2 0xA8A PUSH2 0x1563 JUMP JUMPDEST AND PUSH1 0x0 MSTORE PUSH1 0x5 PUSH1 0x20 MSTORE PUSH1 0x40 PUSH1 0x0 KECCAK256 SLOAD PUSH1 0x0 MSTORE PUSH1 0x6 PUSH1 0x20 MSTORE PUSH1 0x20 PUSH1 0x40 PUSH1 0x0 KECCAK256 SLOAD PUSH1 0x40 MLOAD SWAP1 DUP2 MSTORE RETURN JUMPDEST CALLVALUE PUSH2 0x42E JUMPI PUSH1 0x20 CALLDATASIZE PUSH1 0x3 NOT ADD SLT PUSH2 0x42E JUMPI PUSH1 0x4 CALLDATALOAD PUSH1 0x0 MSTORE PUSH1 0x7 PUSH1 0x20 MSTORE PUSH1 0x40 PUSH1 0x0 KECCAK256 DUP1 SLOAD PUSH1 0x1 DUP3 ADD SLOAD SWAP2 PUSH1 0xFF PUSH2 0xAED PUSH1 0x3 PUSH1 0x2 DUP5 ADD SLOAD SWAP4 ADD PUSH2 0x1741 JUMP JUMPDEST SWAP2 PUSH1 0x40 MLOAD SWAP5 DUP6 SWAP5 DUP6 MSTORE PUSH1 0x20 DUP6 ADD MSTORE DUP2 DUP2 AND ISZERO ISZERO PUSH1 0x40 DUP6 ADD MSTORE PUSH1 0x8 SHR AND ISZERO ISZERO PUSH1 0x60 DUP4 ADD MSTORE PUSH1 0xA0 PUSH1 0x80 DUP4 ADD MSTORE PUSH1 0x60 PUSH2 0xB53 PUSH2 0xB33 DUP4 MLOAD PUSH1 0x80 PUSH1 0xA0 DUP8 ADD MSTORE PUSH2 0x120 DUP7 ADD SWAP1 PUSH2 0x1781 JUMP JUMPDEST PUSH1 0x20 DUP5 ADD MLOAD PUSH1 0xC0 DUP7 ADD MSTORE PUSH1 0x40 DUP5 ADD MLOAD DUP6 DUP3 SUB PUSH1 0x9F NOT ADD PUSH1 0xE0 DUP8 ADD MSTORE PUSH2 0x1781 JUMP JUMPDEST SWAP2 ADD MLOAD PUSH2 0x100 DUP4 ADD MSTORE SUB SWAP1 RETURN JUMPDEST CALLVALUE PUSH2 0x42E JUMPI PUSH1 0xA0 CALLDATASIZE PUSH1 0x3 NOT ADD SLT PUSH2 0x42E JUMPI PUSH1 0x4 CALLDATALOAD PUSH8 0xFFFFFFFFFFFFFFFF PUSH1 0x24 CALLDATALOAD DUP2 DUP2 GT PUSH2 0x42E JUMPI PUSH2 0xB95 SWAP1 CALLDATASIZE SWAP1 PUSH1 0x4 ADD PUSH2 0x160B JUMP JUMPDEST SWAP2 PUSH1 0x64 CALLDATALOAD DUP3 DUP2 GT PUSH2 0x42E JUMPI PUSH2 0xBAE SWAP1 CALLDATASIZE SWAP1 PUSH1 0x4 ADD PUSH2 0x160B JUMP JUMPDEST DUP2 PUSH1 0x0 MSTORE PUSH1 0x20 SWAP3 PUSH1 0x7 DUP5 MSTORE PUSH1 0x40 PUSH1 0x0 KECCAK256 SWAP5 PUSH1 0x40 MLOAD SWAP6 DUP7 SWAP2 PUSH2 0xBCE DUP4 PUSH2 0x15B1 JUMP JUMPDEST DUP2 SLOAD DUP4 MSTORE PUSH1 0x1 SWAP6 DUP7 DUP4 ADD SLOAD SWAP2 DUP9 DUP6 ADD SWAP3 DUP4 MSTORE PUSH2 0xC0B PUSH1 0x3 PUSH1 0x2 DUP7 ADD SLOAD SWAP6 PUSH1 0xFF PUSH1 0x60 PUSH1 0x40 DUP11 ADD SWAP10 DUP3 DUP11 AND ISZERO ISZERO DUP12 MSTORE ADD SWAP8 PUSH1 0x8 SHR AND ISZERO ISZERO DUP8 MSTORE ADD PUSH2 0x1741 JUMP JUMPDEST SWAP7 PUSH1 0x80 DUP12 ADD SWAP8 DUP9 MSTORE DUP9 DUP6 MSTORE PUSH1 0x40 MLOAD SWAP2 PUSH2 0xC23 DUP4 PUSH2 0x1595 JUMP JUMPDEST DUP3 MSTORE PUSH1 0x44 CALLDATALOAD DUP11 DUP4 ADD MSTORE PUSH1 0x40 DUP3 ADD MSTORE PUSH1 0x84 CALLDATALOAD PUSH1 0x60 DUP3 ADD MSTORE DUP7 MSTORE PUSH1 0x0 MSTORE PUSH1 0x7 DUP8 MSTORE PUSH1 0x40 PUSH1 0x0 KECCAK256 SWAP8 MLOAD DUP9 SSTORE MLOAD DUP6 DUP9 ADD SSTORE PUSH2 0xC6D PUSH1 0x2 DUP9 ADD SWAP3 MLOAD ISZERO ISZERO DUP4 SWAP1 PUSH1 0xFF DUP1 NOT DUP4 SLOAD AND SWAP2 ISZERO ISZERO AND OR SWAP1 SSTORE JUMP JUMPDEST MLOAD ISZERO ISZERO PUSH2 0xFF00 DUP3 SLOAD SWAP2 PUSH1 0x8 SHL AND SWAP1 PUSH2 0xFF00 NOT AND OR SWAP1 SSTORE PUSH1 0x3 DUP6 ADD SWAP2 MLOAD SWAP3 DUP4 MLOAD SWAP3 DUP4 MLOAD DUP4 DUP2 GT PUSH2 0x976 JUMPI DUP1 PUSH2 0xCA1 DUP4 SLOAD PUSH2 0x1662 JUMP JUMPDEST SWAP6 PUSH1 0x1F SWAP7 DUP8 DUP2 GT PUSH2 0xE46 JUMPI JUMPDEST POP DUP9 SWAP1 DUP8 DUP4 GT PUSH1 0x1 EQ PUSH2 0xDE3 JUMPI PUSH1 0x0 SWAP3 PUSH2 0xDD8 JUMPI JUMPDEST POP POP PUSH1 0x0 NOT PUSH1 0x3 DUP4 SWAP1 SHL SHR NOT AND SWAP1 DUP4 SHL OR SWAP1 SSTORE JUMPDEST DUP5 DUP5 ADD MLOAD PUSH1 0x4 DUP8 ADD SSTORE PUSH1 0x5 DUP7 ADD SWAP3 PUSH1 0x40 DUP6 ADD MLOAD SWAP6 DUP7 MLOAD SWAP4 DUP5 GT PUSH2 0x976 JUMPI PUSH2 0xCFD DUP6 SLOAD PUSH2 0x1662 JUMP JUMPDEST DUP3 DUP2 GT PUSH2 0xD92 JUMPI JUMPDEST POP DUP1 SWAP2 DUP5 GT PUSH1 0x1 EQ PUSH2 0xD3D JUMPI POP SWAP2 DUP1 DUP1 SWAP3 PUSH1 0x60 SWAP7 SWAP6 SWAP5 PUSH1 0x6 SWAP9 PUSH1 0x0 SWAP5 PUSH2 0x8B6 JUMPI POP POP SHL SWAP2 PUSH1 0x0 NOT SWAP1 PUSH1 0x3 SHL SHR NOT AND OR SWAP1 SSTORE ADD MLOAD SWAP2 ADD SSTORE STOP JUMPDEST SWAP2 SWAP4 SWAP5 SWAP6 PUSH1 0x1F NOT DUP5 AND DUP7 PUSH1 0x0 MSTORE DUP4 PUSH1 0x0 KECCAK256 SWAP4 PUSH1 0x0 SWAP1 JUMPDEST DUP3 DUP3 LT PUSH2 0xD7B JUMPI POP POP SWAP2 PUSH1 0x6 SWAP8 SWAP6 SWAP4 SWAP2 DUP6 PUSH1 0x60 SWAP9 SWAP7 SWAP5 LT PUSH2 0x900 JUMPI POP POP POP DUP2 SHL ADD SWAP1 SSTORE PUSH2 0x8AF JUMP JUMPDEST DUP1 DUP9 DUP7 SWAP8 DUP3 SWAP5 SWAP8 DUP8 ADD MLOAD DUP2 SSTORE ADD SWAP7 ADD SWAP5 ADD SWAP1 PUSH2 0xD53 JUMP JUMPDEST DUP6 PUSH1 0x0 MSTORE DUP2 PUSH1 0x0 KECCAK256 DUP4 DUP1 DUP8 ADD PUSH1 0x5 SHR DUP3 ADD SWAP3 DUP5 DUP9 LT PUSH2 0xDCF JUMPI JUMPDEST ADD PUSH1 0x5 SHR ADD SWAP1 DUP5 SWAP1 JUMPDEST DUP3 DUP2 LT PUSH2 0xDC3 JUMPI POP POP PUSH2 0xD05 JUMP JUMPDEST PUSH1 0x0 DUP2 SSTORE ADD DUP5 SWAP1 PUSH2 0xDB5 JUMP JUMPDEST SWAP3 POP DUP2 SWAP3 PUSH2 0xDAC JUMP JUMPDEST ADD MLOAD SWAP1 POP DUP10 DUP1 PUSH2 0xCC2 JUMP JUMPDEST SWAP1 DUP6 SWAP4 POP PUSH1 0x1F NOT DUP4 AND SWAP2 DUP6 PUSH1 0x0 MSTORE DUP11 PUSH1 0x0 KECCAK256 SWAP3 PUSH1 0x0 JUMPDEST DUP13 DUP3 DUP3 LT PUSH2 0xE30 JUMPI POP POP DUP5 GT PUSH2 0xE17 JUMPI JUMPDEST POP POP POP DUP2 SHL ADD SWAP1 SSTORE PUSH2 0xCD6 JUMP JUMPDEST ADD MLOAD PUSH1 0x0 NOT PUSH1 0xF8 DUP5 PUSH1 0x3 SHL AND SHR NOT AND SWAP1 SSTORE DUP10 DUP1 DUP1 PUSH2 0xE0A JUMP JUMPDEST DUP4 DUP6 ADD MLOAD DUP7 SSTORE DUP10 SWAP8 SWAP1 SWAP6 ADD SWAP5 SWAP4 DUP5 ADD SWAP4 ADD PUSH2 0xDF9 JUMP JUMPDEST SWAP1 SWAP2 POP DUP4 PUSH1 0x0 MSTORE DUP9 PUSH1 0x0 KECCAK256 DUP8 DUP1 DUP6 ADD PUSH1 0x5 SHR DUP3 ADD SWAP3 DUP12 DUP7 LT PUSH2 0xE8E JUMPI JUMPDEST SWAP2 DUP8 SWAP2 DUP7 SWAP6 SWAP5 SWAP4 ADD PUSH1 0x5 SHR ADD SWAP2 JUMPDEST DUP3 DUP2 LT PUSH2 0xE7F JUMPI POP POP PUSH2 0xCAD JUMP JUMPDEST PUSH1 0x0 DUP2 SSTORE DUP6 SWAP5 POP DUP8 SWAP2 ADD PUSH2 0xE71 JUMP JUMPDEST SWAP3 POP DUP2 SWAP3 PUSH2 0xE63 JUMP JUMPDEST CALLVALUE PUSH2 0x42E JUMPI PUSH1 0x40 CALLDATASIZE PUSH1 0x3 NOT ADD SLT PUSH2 0x42E JUMPI PUSH2 0xEB0 PUSH2 0x1563 JUMP JUMPDEST PUSH1 0x24 CALLDATALOAD SWAP1 DUP2 ISZERO ISZERO DUP1 SWAP3 SUB PUSH2 0x42E JUMPI PUSH1 0x1 SLOAD PUSH1 0x40 MLOAD PUSH4 0xF0ABDA5D PUSH1 0xE0 SHL DUP2 MSTORE SWAP1 PUSH1 0x20 SWAP1 DUP3 SWAP1 PUSH1 0x4 SWAP1 DUP3 SWAP1 PUSH1 0x1 PUSH1 0x1 PUSH1 0xA0 SHL SUB AND GAS STATICCALL SWAP1 DUP2 ISZERO PUSH2 0x43A JUMPI PUSH1 0x0 SWAP2 PUSH2 0x150E JUMPI JUMPDEST POP PUSH1 0x1 PUSH1 0x1 PUSH1 0xA0 SHL SUB AND CALLER SUB PUSH2 0x14E3 JUMPI PUSH1 0x1 PUSH1 0x1 PUSH1 0xA0 SHL SUB AND PUSH1 0x0 DUP2 DUP2 MSTORE PUSH1 0x2 PUSH1 0x20 MSTORE PUSH1 0x40 SWAP1 KECCAK256 SLOAD SWAP2 DUP3 ISZERO PUSH2 0x14B8 JUMPI DUP3 PUSH1 0x0 MSTORE PUSH1 0x3 PUSH1 0x20 MSTORE PUSH1 0x1 PUSH1 0xFF PUSH1 0x40 PUSH1 0x0 KECCAK256 SLOAD AND ISZERO ISZERO SUB PUSH2 0x148D JUMPI DUP3 PUSH1 0x0 MSTORE PUSH1 0x4 PUSH1 0x20 MSTORE PUSH1 0x40 PUSH1 0x0 KECCAK256 SWAP2 PUSH1 0x40 MLOAD SWAP3 PUSH2 0xF59 DUP5 PUSH2 0x1579 JUMP JUMPDEST DUP1 SLOAD PUSH1 0x1 PUSH1 0x1 PUSH1 0xA0 SHL SUB AND DUP5 MSTORE PUSH1 0x1 DUP2 ADD SLOAD PUSH1 0x20 DUP6 ADD MSTORE PUSH1 0x2 DUP2 ADD SLOAD PUSH1 0x40 DUP6 ADD MSTORE PUSH1 0x3 DUP2 ADD SLOAD PUSH1 0x60 DUP6 ADD MSTORE PUSH1 0x4 DUP2 ADD SLOAD PUSH1 0x80 DUP6 ADD DUP2 SWAP1 MSTORE PUSH1 0x5 SWAP1 SWAP2 ADD SLOAD PUSH1 0xFF AND ISZERO ISZERO PUSH1 0xA0 DUP6 ADD MSTORE PUSH2 0x1462 JUMPI PUSH2 0x12C PUSH2 0xFB5 PUSH1 0x40 DUP6 ADD MLOAD TIMESTAMP PUSH2 0x17E0 JUMP JUMPDEST GT PUSH2 0x1437 JUMPI DUP3 MLOAD PUSH1 0x1 PUSH1 0x1 PUSH1 0xA0 SHL SUB AND SUB PUSH2 0x140C JUMPI TIMESTAMP PUSH1 0x80 DUP4 ADD MSTORE PUSH1 0x1 SUB PUSH2 0x13FC JUMPI PUSH1 0x1 PUSH1 0xA0 DUP3 ADD MSTORE PUSH1 0x9 SLOAD SWAP2 PUSH1 0x1 DUP4 ADD DUP4 GT PUSH2 0x13E6 JUMPI PUSH1 0x1 DUP4 ADD PUSH1 0x9 SSTORE PUSH1 0x20 DUP3 ADD MLOAD PUSH1 0x0 MSTORE PUSH1 0x6 PUSH1 0x20 MSTORE PUSH1 0x1 DUP4 ADD PUSH1 0x40 PUSH1 0x0 KECCAK256 SSTORE PUSH1 0x1 PUSH1 0x20 DUP4 ADD MLOAD SWAP4 PUSH1 0x40 MLOAD PUSH2 0x101E DUP2 PUSH2 0x1595 JUMP JUMPDEST PUSH1 0x40 MLOAD PUSH2 0x102A DUP2 PUSH2 0x15CD JUMP JUMPDEST PUSH1 0x0 DUP2 MSTORE DUP2 MSTORE PUSH1 0x0 PUSH1 0x20 DUP3 ADD MSTORE PUSH1 0x40 MLOAD PUSH2 0x1043 DUP2 PUSH2 0x15CD JUMP JUMPDEST PUSH1 0x0 DUP2 MSTORE PUSH1 0x40 DUP3 ADD MSTORE PUSH1 0x0 PUSH1 0x60 DUP3 ADD MSTORE PUSH1 0x40 MLOAD SWAP6 PUSH2 0x1060 DUP8 PUSH2 0x15B1 JUMP JUMPDEST DUP7 MSTORE DUP3 DUP3 ADD PUSH1 0x20 DUP8 ADD MSTORE PUSH1 0x0 PUSH1 0x40 DUP8 ADD MSTORE PUSH1 0x0 PUSH1 0x60 DUP8 ADD MSTORE PUSH1 0x80 DUP7 ADD MSTORE ADD PUSH1 0x0 MSTORE PUSH1 0x7 PUSH1 0x20 MSTORE PUSH1 0x80 PUSH1 0x40 PUSH1 0x0 KECCAK256 SWAP4 DUP1 MLOAD DUP6 SSTORE PUSH1 0x20 DUP2 ADD MLOAD PUSH1 0x1 DUP7 ADD SSTORE PUSH1 0x2 DUP6 ADD PUSH2 0x10BC PUSH1 0x40 DUP4 ADD MLOAD ISZERO ISZERO DUP3 SWAP1 PUSH1 0xFF DUP1 NOT DUP4 SLOAD AND SWAP2 ISZERO ISZERO AND OR SWAP1 SSTORE JUMP JUMPDEST PUSH1 0x60 DUP3 ADD MLOAD ISZERO ISZERO PUSH2 0xFF00 DUP3 SLOAD SWAP2 PUSH1 0x8 SHL AND SWAP1 PUSH2 0xFF00 NOT AND OR SWAP1 SSTORE ADD MLOAD SWAP3 DUP4 MLOAD DUP1 MLOAD SWAP1 PUSH8 0xFFFFFFFFFFFFFFFF DUP3 GT PUSH2 0x976 JUMPI DUP2 SWAP1 PUSH2 0x10FC PUSH1 0x3 DUP6 ADD SLOAD PUSH2 0x1662 JUMP JUMPDEST PUSH1 0x1F DUP2 GT PUSH2 0x1393 JUMPI JUMPDEST POP PUSH1 0x20 SWAP1 PUSH1 0x1F DUP4 GT PUSH1 0x1 EQ PUSH2 0x1321 JUMPI PUSH1 0x0 SWAP3 PUSH2 0x1316 JUMPI JUMPDEST POP POP DUP2 PUSH1 0x1 SHL SWAP2 PUSH1 0x0 NOT SWAP1 PUSH1 0x3 SHL SHR NOT AND OR PUSH1 0x3 DUP3 ADD SSTORE JUMPDEST PUSH1 0x20 DUP5 ADD MLOAD PUSH1 0x4 DUP3 ADD SSTORE PUSH1 0x40 DUP5 ADD MLOAD DUP1 MLOAD SWAP1 PUSH8 0xFFFFFFFFFFFFFFFF DUP3 GT PUSH2 0x976 JUMPI PUSH2 0x1162 PUSH1 0x5 DUP5 ADD SLOAD PUSH2 0x1662 JUMP JUMPDEST PUSH1 0x1F DUP2 GT PUSH2 0x12CF JUMPI JUMPDEST POP PUSH1 0x20 SWAP1 PUSH1 0x1F DUP4 GT PUSH1 0x1 EQ PUSH2 0x1257 JUMPI SWAP6 DUP3 PUSH1 0x6 SWAP4 PUSH1 0x60 SWAP4 PUSH2 0x1238 SWAP10 PUSH1 0x0 SWAP3 PUSH2 0x124C JUMPI JUMPDEST POP POP DUP2 PUSH1 0x1 SHL SWAP2 PUSH1 0x0 NOT SWAP1 PUSH1 0x3 SHL SHR NOT AND OR PUSH1 0x5 DUP6 ADD SSTORE JUMPDEST ADD MLOAD SWAP2 ADD SSTORE PUSH1 0x20 DUP3 ADD MLOAD PUSH1 0x1 DUP1 PUSH1 0xA0 SHL SUB DUP4 MLOAD AND PUSH1 0x0 MSTORE PUSH1 0x5 PUSH1 0x20 MSTORE PUSH1 0x40 PUSH1 0x0 KECCAK256 SSTORE JUMPDEST PUSH1 0x0 MSTORE PUSH1 0x4 PUSH1 0x20 MSTORE PUSH1 0x5 PUSH1 0xA0 PUSH1 0x40 PUSH1 0x0 KECCAK256 SWAP3 PUSH1 0x1 DUP1 DUP4 SHL SUB DUP2 MLOAD AND PUSH12 0xFFFFFFFFFFFFFFFFFFFFFFFF DUP4 SHL DUP6 SLOAD AND OR DUP5 SSTORE PUSH1 0x20 DUP2 ADD MLOAD PUSH1 0x1 DUP6 ADD SSTORE PUSH1 0x40 DUP2 ADD MLOAD PUSH1 0x2 DUP6 ADD SSTORE PUSH1 0x60 DUP2 ADD MLOAD PUSH1 0x3 DUP6 ADD SSTORE PUSH1 0x80 DUP2 ADD MLOAD PUSH1 0x4 DUP6 ADD SSTORE ADD MLOAD ISZERO ISZERO SWAP2 ADD SWAP1 PUSH1 0xFF DUP1 NOT DUP4 SLOAD AND SWAP2 ISZERO ISZERO AND OR SWAP1 SSTORE JUMP JUMPDEST PUSH1 0x3 PUSH1 0x20 MSTORE PUSH1 0x40 PUSH1 0x0 KECCAK256 DUP1 SLOAD PUSH1 0xFF NOT AND SWAP1 SSTORE STOP JUMPDEST ADD MLOAD SWAP1 POP DUP10 DUP1 PUSH2 0x118E JUMP JUMPDEST SWAP1 PUSH1 0x5 DUP5 ADD PUSH1 0x0 MSTORE PUSH1 0x20 PUSH1 0x0 KECCAK256 SWAP2 PUSH1 0x0 JUMPDEST PUSH1 0x1F NOT DUP6 AND DUP2 LT PUSH2 0x12B7 JUMPI POP DUP4 PUSH1 0x60 SWAP4 PUSH2 0x1238 SWAP10 SWAP4 PUSH1 0x1 SWAP4 PUSH1 0x6 SWAP8 PUSH1 0x1F NOT DUP2 AND LT PUSH2 0x129E JUMPI JUMPDEST POP POP POP DUP2 SHL ADD PUSH1 0x5 DUP6 ADD SSTORE PUSH2 0x11A6 JUMP JUMPDEST ADD MLOAD PUSH1 0x0 NOT PUSH1 0xF8 DUP5 PUSH1 0x3 SHL AND SHR NOT AND SWAP1 SSTORE DUP10 DUP1 DUP1 PUSH2 0x128E JUMP JUMPDEST SWAP2 SWAP3 PUSH1 0x20 PUSH1 0x1 DUP2 SWAP3 DUP7 DUP6 ADD MLOAD DUP2 SSTORE ADD SWAP5 ADD SWAP3 ADD PUSH2 0x1268 JUMP JUMPDEST PUSH1 0x5 DUP5 ADD PUSH1 0x0 MSTORE PUSH1 0x20 PUSH1 0x0 KECCAK256 PUSH1 0x1F DUP5 ADD PUSH1 0x5 SHR DUP2 ADD PUSH1 0x20 DUP6 LT PUSH2 0x130F JUMPI JUMPDEST PUSH1 0x1F DUP4 ADD PUSH1 0x5 SHR DUP3 ADD DUP2 LT PUSH2 0x1303 JUMPI POP POP PUSH2 0x116B JUMP JUMPDEST PUSH1 0x0 DUP2 SSTORE PUSH1 0x1 ADD PUSH2 0x12ED JUMP JUMPDEST POP DUP1 PUSH2 0x12ED JUMP JUMPDEST ADD MLOAD SWAP1 POP DUP7 DUP1 PUSH2 0x111C JUMP JUMPDEST SWAP3 POP PUSH1 0x3 DUP5 ADD PUSH1 0x0 MSTORE PUSH1 0x20 PUSH1 0x0 KECCAK256 SWAP1 PUSH1 0x0 SWAP4 JUMPDEST PUSH1 0x1F NOT DUP5 AND DUP6 LT PUSH2 0x1378 JUMPI PUSH1 0x1 SWAP5 POP DUP4 PUSH1 0x1F NOT DUP2 AND LT PUSH2 0x135F JUMPI JUMPDEST POP POP POP DUP2 SHL ADD PUSH1 0x3 DUP3 ADD SSTORE PUSH2 0x1134 JUMP JUMPDEST ADD MLOAD PUSH1 0x0 NOT PUSH1 0xF8 DUP5 PUSH1 0x3 SHL AND SHR NOT AND SWAP1 SSTORE DUP7 DUP1 DUP1 PUSH2 0x134F JUMP JUMPDEST DUP2 DUP2 ADD MLOAD DUP4 SSTORE PUSH1 0x20 SWAP5 DUP6 ADD SWAP5 PUSH1 0x1 SWAP1 SWAP4 ADD SWAP3 SWAP1 SWAP2 ADD SWAP1 PUSH2 0x1334 JUMP JUMPDEST SWAP1 SWAP2 POP PUSH1 0x3 DUP5 ADD PUSH1 0x0 MSTORE PUSH1 0x20 PUSH1 0x0 KECCAK256 PUSH1 0x1F DUP5 ADD PUSH1 0x5 SHR DUP2 ADD PUSH1 0x20 DUP6 LT PUSH2 0x13DF JUMPI JUMPDEST SWAP1 DUP5 SWAP4 SWAP3 SWAP2 JUMPDEST PUSH1 0x1F DUP4 ADD PUSH1 0x5 SHR DUP3 ADD DUP2 LT PUSH2 0x13D0 JUMPI POP POP PUSH2 0x1105 JUMP JUMPDEST PUSH1 0x0 DUP2 SSTORE DUP6 SWAP5 POP PUSH1 0x1 ADD PUSH2 0x13BA JUMP JUMPDEST POP DUP1 PUSH2 0x13B4 JUMP JUMPDEST PUSH4 0x4E487B71 PUSH1 0xE0 SHL PUSH1 0x0 MSTORE PUSH1 0x11 PUSH1 0x4 MSTORE PUSH1 0x24 PUSH1 0x0 REVERT JUMPDEST PUSH2 0x1238 SWAP2 PUSH1 0x0 PUSH1 0xA0 DUP4 ADD MSTORE PUSH2 0x11C9 JUMP JUMPDEST PUSH1 0x64 PUSH1 0x40 MLOAD PUSH3 0x461BCD PUSH1 0xE5 SHL DUP2 MSTORE PUSH1 0x20 PUSH1 0x4 DUP3 ADD MSTORE PUSH1 0x4 PUSH1 0x24 DUP3 ADD MSTORE PUSH4 0x29291999 PUSH1 0xE1 SHL PUSH1 0x44 DUP3 ADD MSTORE REVERT JUMPDEST PUSH1 0x40 MLOAD PUSH3 0x461BCD PUSH1 0xE5 SHL DUP2 MSTORE PUSH1 0x20 PUSH1 0x4 DUP3 ADD MSTORE PUSH1 0x3 PUSH1 0x24 DUP3 ADD MSTORE PUSH3 0xA4A47 PUSH1 0xEB SHL PUSH1 0x44 DUP3 ADD MSTORE PUSH1 0x64 SWAP1 REVERT JUMPDEST PUSH1 0x64 PUSH1 0x40 MLOAD PUSH3 0x461BCD PUSH1 0xE5 SHL DUP2 MSTORE PUSH1 0x20 PUSH1 0x4 DUP3 ADD MSTORE PUSH1 0x4 PUSH1 0x24 DUP3 ADD MSTORE PUSH4 0x52523231 PUSH1 0xE0 SHL PUSH1 0x44 DUP3 ADD MSTORE REVERT JUMPDEST PUSH1 0x64 PUSH1 0x40 MLOAD PUSH3 0x461BCD PUSH1 0xE5 SHL DUP2 MSTORE PUSH1 0x20 PUSH1 0x4 DUP3 ADD MSTORE PUSH1 0x4 PUSH1 0x24 DUP3 ADD MSTORE PUSH4 0x52523331 PUSH1 0xE0 SHL PUSH1 0x44 DUP3 ADD MSTORE REVERT JUMPDEST PUSH1 0x64 PUSH1 0x40 MLOAD PUSH3 0x461BCD PUSH1 0xE5 SHL DUP2 MSTORE PUSH1 0x20 PUSH1 0x4 DUP3 ADD MSTORE PUSH1 0x4 PUSH1 0x24 DUP3 ADD MSTORE PUSH4 0x5252333 PUSH1 0xE4 SHL PUSH1 0x44 DUP3 ADD MSTORE REVERT JUMPDEST PUSH1 0x40 MLOAD PUSH3 0x461BCD PUSH1 0xE5 SHL DUP2 MSTORE PUSH1 0x20 PUSH1 0x4 DUP3 ADD MSTORE PUSH1 0x3 PUSH1 0x24 DUP3 ADD MSTORE PUSH3 0x525231 PUSH1 0xE8 SHL PUSH1 0x44 DUP3 ADD MSTORE PUSH1 0x64 SWAP1 REVERT JUMPDEST PUSH2 0x1527 SWAP2 POP PUSH1 0x20 RETURNDATASIZE PUSH1 0x20 GT PUSH2 0x497 JUMPI PUSH2 0x489 DUP2 DUP4 PUSH2 0x15E9 JUMP JUMPDEST DUP4 PUSH2 0xEF3 JUMP JUMPDEST CALLVALUE PUSH2 0x42E JUMPI PUSH1 0x20 CALLDATASIZE PUSH1 0x3 NOT ADD SLT PUSH2 0x42E JUMPI PUSH1 0x20 SWAP1 PUSH1 0x1 PUSH1 0x1 PUSH1 0xA0 SHL SUB PUSH2 0x1551 PUSH2 0x1563 JUMP JUMPDEST AND PUSH1 0x0 MSTORE PUSH1 0x5 DUP3 MSTORE PUSH1 0x40 PUSH1 0x0 KECCAK256 SLOAD DUP2 MSTORE RETURN JUMPDEST PUSH1 0x4 CALLDATALOAD SWAP1 PUSH1 0x1 PUSH1 0x1 PUSH1 0xA0 SHL SUB DUP3 AND DUP3 SUB PUSH2 0x42E JUMPI JUMP JUMPDEST PUSH1 0xC0 DUP2 ADD SWAP1 DUP2 LT PUSH8 0xFFFFFFFFFFFFFFFF DUP3 GT OR PUSH2 0x976 JUMPI PUSH1 0x40 MSTORE JUMP JUMPDEST PUSH1 0x80 DUP2 ADD SWAP1 DUP2 LT PUSH8 0xFFFFFFFFFFFFFFFF DUP3 GT OR PUSH2 0x976 JUMPI PUSH1 0x40 MSTORE JUMP JUMPDEST PUSH1 0xA0 DUP2 ADD SWAP1 DUP2 LT PUSH8 0xFFFFFFFFFFFFFFFF DUP3 GT OR PUSH2 0x976 JUMPI PUSH1 0x40 MSTORE JUMP JUMPDEST PUSH1 0x20 DUP2 ADD SWAP1 DUP2 LT PUSH8 0xFFFFFFFFFFFFFFFF DUP3 GT OR PUSH2 0x976 JUMPI PUSH1 0x40 MSTORE JUMP JUMPDEST SWAP1 PUSH1 0x1F DUP1 NOT SWAP2 ADD AND DUP2 ADD SWAP1 DUP2 LT PUSH8 0xFFFFFFFFFFFFFFFF DUP3 GT OR PUSH2 0x976 JUMPI PUSH1 0x40 MSTORE JUMP JUMPDEST DUP2 PUSH1 0x1F DUP3 ADD SLT ISZERO PUSH2 0x42E JUMPI DUP1 CALLDATALOAD SWAP1 PUSH8 0xFFFFFFFFFFFFFFFF DUP3 GT PUSH2 0x976 JUMPI PUSH1 0x40 MLOAD SWAP3 PUSH2 0x1640 PUSH1 0x1F DUP5 ADD PUSH1 0x1F NOT AND PUSH1 0x20 ADD DUP6 PUSH2 0x15E9 JUMP JUMPDEST DUP3 DUP5 MSTORE PUSH1 0x20 DUP4 DUP4 ADD ADD GT PUSH2 0x42E JUMPI DUP2 PUSH1 0x0 SWAP3 PUSH1 0x20 DUP1 SWAP4 ADD DUP4 DUP7 ADD CALLDATACOPY DUP4 ADD ADD MSTORE SWAP1 JUMP JUMPDEST SWAP1 PUSH1 0x1 DUP3 DUP2 SHR SWAP3 AND DUP1 ISZERO PUSH2 0x1692 JUMPI JUMPDEST PUSH1 0x20 DUP4 LT EQ PUSH2 0x167C JUMPI JUMP JUMPDEST PUSH4 0x4E487B71 PUSH1 0xE0 SHL PUSH1 0x0 MSTORE PUSH1 0x22 PUSH1 0x4 MSTORE PUSH1 0x24 PUSH1 0x0 REVERT JUMPDEST SWAP2 PUSH1 0x7F AND SWAP2 PUSH2 0x1671 JUMP JUMPDEST SWAP1 PUSH1 0x40 MLOAD SWAP2 DUP3 PUSH1 0x0 DUP3 SLOAD PUSH2 0x16AF DUP2 PUSH2 0x1662 JUMP JUMPDEST SWAP1 DUP2 DUP5 MSTORE PUSH1 0x20 SWAP5 PUSH1 0x1 SWAP2 PUSH1 0x1 DUP2 AND SWAP1 DUP2 PUSH1 0x0 EQ PUSH2 0x171F JUMPI POP PUSH1 0x1 EQ PUSH2 0x16E0 JUMPI JUMPDEST POP POP POP PUSH2 0x16DE SWAP3 POP SUB DUP4 PUSH2 0x15E9 JUMP JUMPDEST JUMP JUMPDEST PUSH1 0x0 SWAP1 DUP2 MSTORE DUP6 DUP2 KECCAK256 SWAP6 SWAP4 POP SWAP2 SWAP1 JUMPDEST DUP2 DUP4 LT PUSH2 0x1707 JUMPI POP POP PUSH2 0x16DE SWAP4 POP DUP3 ADD ADD CODESIZE DUP1 DUP1 PUSH2 0x16CF JUMP JUMPDEST DUP6 SLOAD DUP9 DUP5 ADD DUP6 ADD MSTORE SWAP5 DUP6 ADD SWAP5 DUP8 SWAP5 POP SWAP2 DUP4 ADD SWAP2 PUSH2 0x16EE JUMP JUMPDEST SWAP3 POP POP POP PUSH2 0x16DE SWAP5 SWAP3 POP PUSH1 0xFF NOT AND DUP3 DUP5 ADD MSTORE ISZERO ISZERO PUSH1 0x5 SHL DUP3 ADD ADD CODESIZE DUP1 DUP1 PUSH2 0x16CF JUMP JUMPDEST SWAP1 PUSH1 0x40 MLOAD PUSH2 0x174E DUP2 PUSH2 0x1595 JUMP JUMPDEST PUSH1 0x60 PUSH1 0x3 DUP3 SWAP5 PUSH2 0x175D DUP2 PUSH2 0x169C JUMP JUMPDEST DUP5 MSTORE PUSH1 0x1 DUP2 ADD SLOAD PUSH1 0x20 DUP6 ADD MSTORE PUSH2 0x1775 PUSH1 0x2 DUP3 ADD PUSH2 0x169C JUMP JUMPDEST PUSH1 0x40 DUP6 ADD MSTORE ADD SLOAD SWAP2 ADD MSTORE JUMP JUMPDEST SWAP2 SWAP1 DUP3 MLOAD SWAP3 DUP4 DUP3 MSTORE PUSH1 0x0 JUMPDEST DUP5 DUP2 LT PUSH2 0x17AD JUMPI POP POP DUP3 PUSH1 0x0 PUSH1 0x20 DUP1 SWAP5 SWAP6 DUP5 ADD ADD MSTORE PUSH1 0x1F DUP1 NOT SWAP2 ADD AND ADD ADD SWAP1 JUMP JUMPDEST PUSH1 0x20 DUP2 DUP4 ADD DUP2 ADD MLOAD DUP5 DUP4 ADD DUP3 ADD MSTORE ADD PUSH2 0x178C JUMP JUMPDEST SWAP1 DUP2 PUSH1 0x20 SWAP2 SUB SLT PUSH2 0x42E JUMPI MLOAD PUSH1 0x1 PUSH1 0x1 PUSH1 0xA0 SHL SUB DUP2 AND DUP2 SUB PUSH2 0x42E JUMPI SWAP1 JUMP JUMPDEST SWAP2 SWAP1 DUP3 SUB SWAP2 DUP3 GT PUSH2 0x13E6 JUMPI JUMP INVALID LOG2 PUSH5 0x6970667358 0x22 SLT KECCAK256 CALLDATALOAD 0xEF JUMPDEST 0x23 0xE5 SUB 0xCD 0xAC 0xEB DUP1 0x4E SSTORE SSTORE 0x5E SWAP9 BLOCKHASH SAR 0x4A 0xD3 0x5E SMOD 0x4E 0xB9 0xD3 0xB5 RETURNDATASIZE LT STATICCALL SHR SIGNEXTEND 0xB5 0xBC PUSH5 0x736F6C6343 STOP ADDMOD AND STOP CALLER "
		},
		"gasEstimates": {
			"creation": {
				"codeDepositCost": "1235800",
				"executionCost": "infinite",
				"totalCost": "infinite"
			},
			"external": {
				"applForTokenID(bytes32)": "infinite",
				"citizenAddrToCitizenHash(address)": "2401",
				"citizenHashToTokenID(bytes32)": "2478",
				"citizenTokenAppl(uint256)": "13209",
				"citizenTokenApplUnderProcess(uint256)": "2534",
				"getCitizen(uint256)": "infinite",
				"getTokenID(address)": "4660",
				"getVaccinePassport(uint256)": "infinite",
				"issueVaccinePassport(uint256,string,bytes32,string,uint256)": "infinite",
				"latestTokenApplNumber(address)": "2651",
				"setVaccinationStatus(uint256)": "infinite",
				"timeLimit()": "419",
				"tokenApplNumberGenerator()": "2544",
				"tokenIDGenerator()": "2368",
				"tokenIDToCitizenDetails(uint256)": "infinite",
				"verifyTokenAppl(address,bool)": "infinite"
			}
		},
		"methodIdentifiers": {
			"applForTokenID(bytes32)": "f8052b6c",
			"citizenAddrToCitizenHash(address)": "0c8f8755",
			"citizenHashToTokenID(bytes32)": "7e98c518",
			"citizenTokenAppl(uint256)": "a10cb877",
			"citizenTokenApplUnderProcess(uint256)": "902e9270",
			"getCitizen(uint256)": "8914a8a0",
			"getTokenID(address)": "63f8071c",
			"getVaccinePassport(uint256)": "e7f3a4b5",
			"issueVaccinePassport(uint256,string,bytes32,string,uint256)": "26f9a18c",
			"latestTokenApplNumber(address)": "ad5ba4fa",
			"setVaccinationStatus(uint256)": "74d5f446",
			"timeLimit()": "c08d1fe5",
			"tokenApplNumberGenerator()": "c0b85b1c",
			"tokenIDGenerator()": "6b34123b",
			"tokenIDToCitizenDetails(uint256)": "2f581b6d",
			"verifyTokenAppl(address,bool)": "17cb011c"
		}
	},
	"abi": [
		{
			"inputs": [
				{
					"internalType": "address",
					"name": "_addr_SC_VC_Govt",
					"type": "address"
				}
			],
			"stateMutability": "nonpayable",
			"type": "constructor"
		},
		{
			"inputs": [
				{
					"internalType": "bytes32",
					"name": "_commit_citizen_info",
					"type": "bytes32"
				}
			],
			"name": "applForTokenID",
			"outputs": [],
			"stateMutability": "nonpayable",
			"type": "function"
		},
		{
			"inputs": [
				{
					"internalType": "address",
					"name": "",
					"type": "address"
				}
			],
			"name": "citizenAddrToCitizenHash",
			"outputs": [
				{
					"internalType": "bytes32",
					"name": "",
					"type": "bytes32"
				}
			],
			"stateMutability": "view",
			"type": "function"
		},
		{
			"inputs": [
				{
					"internalType": "bytes32",
					"name": "",
					"type": "bytes32"
				}
			],
			"name": "citizenHashToTokenID",
			"outputs": [
				{
					"internalType": "uint256",
					"name": "",
					"type": "uint256"
				}
			],
			"stateMutability": "view",
			"type": "function"
		},
		{
			"inputs": [
				{
					"internalType": "uint256",
					"name": "",
					"type": "uint256"
				}
			],
			"name": "citizenTokenAppl",
			"outputs": [
				{
					"internalType": "address",
					"name": "applicant_addr",
					"type": "address"
				},
				{
					"internalType": "bytes32",
					"name": "commit_citizen_info",
					"type": "bytes32"
				},
				{
					"internalType": "uint256",
					"name": "timestamp_token_appl",
					"type": "uint256"
				},
				{
					"internalType": "uint256",
					"name": "token_appl_number",
					"type": "uint256"
				},
				{
					"internalType": "uint256",
					"name": "timestamp_token_appl_verification",
					"type": "uint256"
				},
				{
					"internalType": "bool",
					"name": "token_appl_verification_result",
					"type": "bool"
				}
			],
			"stateMutability": "view",
			"type": "function"
		},
		{
			"inputs": [
				{
					"internalType": "uint256",
					"name": "",
					"type": "uint256"
				}
			],
			"name": "citizenTokenApplUnderProcess",
			"outputs": [
				{
					"internalType": "bool",
					"name": "",
					"type": "bool"
				}
			],
			"stateMutability": "view",
			"type": "function"
		},
		{
			"inputs": [
				{
					"internalType": "uint256",
					"name": "_tokenID",
					"type": "uint256"
				}
			],
			"name": "getCitizen",
			"outputs": [
				{
					"internalType": "bytes32",
					"name": "",
					"type": "bytes32"
				},
				{
					"internalType": "uint256",
					"name": "",
					"type": "uint256"
				},
				{
					"internalType": "bool",
					"name": "",
					"type": "bool"
				},
				{
					"internalType": "bool",
					"name": "",
					"type": "bool"
				}
			],
			"stateMutability": "view",
			"type": "function"
		},
		{
			"inputs": [
				{
					"internalType": "address",
					"name": "_cAddr",
					"type": "address"
				}
			],
			"name": "getTokenID",
			"outputs": [
				{
					"internalType": "uint256",
					"name": "",
					"type": "uint256"
				}
			],
			"stateMutability": "view",
			"type": "function"
		},
		{
			"inputs": [
				{
					"internalType": "uint256",
					"name": "_tokenID",
					"type": "uint256"
				}
			],
			"name": "getVaccinePassport",
			"outputs": [
				{
					"internalType": "string",
					"name": "",
					"type": "string"
				},
				{
					"internalType": "bytes32",
					"name": "",
					"type": "bytes32"
				},
				{
					"internalType": "string",
					"name": "",
					"type": "string"
				},
				{
					"internalType": "uint256",
					"name": "",
					"type": "uint256"
				}
			],
			"stateMutability": "view",
			"type": "function"
		},
		{
			"inputs": [
				{
					"internalType": "uint256",
					"name": "_tokenID",
					"type": "uint256"
				},
				{
					"internalType": "string",
					"name": "_cID",
					"type": "string"
				},
				{
					"internalType": "bytes32",
					"name": "_message_digest_vp",
					"type": "bytes32"
				},
				{
					"internalType": "string",
					"name": "_sig_on_message_digest_vp",
					"type": "string"
				},
				{
					"internalType": "uint256",
					"name": "_timestamp_create_vp",
					"type": "uint256"
				}
			],
			"name": "issueVaccinePassport",
			"outputs": [],
			"stateMutability": "nonpayable",
			"type": "function"
		},
		{
			"inputs": [
				{
					"internalType": "address",
					"name": "",
					"type": "address"
				}
			],
			"name": "latestTokenApplNumber",
			"outputs": [
				{
					"internalType": "uint256",
					"name": "",
					"type": "uint256"
				}
			],
			"stateMutability": "view",
			"type": "function"
		},
		{
			"inputs": [
				{
					"internalType": "uint256",
					"name": "_tokenID",
					"type": "uint256"
				}
			],
			"name": "setVaccinationStatus",
			"outputs": [],
			"stateMutability": "nonpayable",
			"type": "function"
		},
		{
			"inputs": [],
			"name": "timeLimit",
			"outputs": [
				{
					"internalType": "uint256",
					"name": "",
					"type": "uint256"
				}
			],
			"stateMutability": "view",
			"type": "function"
		},
		{
			"inputs": [],
			"name": "tokenApplNumberGenerator",
			"outputs": [
				{
					"internalType": "uint256",
					"name": "",
					"type": "uint256"
				}
			],
			"stateMutability": "view",
			"type": "function"
		},
		{
			"inputs": [],
			"name": "tokenIDGenerator",
			"outputs": [
				{
					"internalType": "uint256",
					"name": "",
					"type": "uint256"
				}
			],
			"stateMutability": "view",
			"type": "function"
		},
		{
			"inputs": [
				{
					"internalType": "uint256",
					"name": "",
					"type": "uint256"
				}
			],
			"name": "tokenIDToCitizenDetails",
			"outputs": [
				{
					"internalType": "bytes32",
					"name": "citizen_info_digest",
					"type": "bytes32"
				},
				{
					"internalType": "uint256",
					"name": "tokenID",
					"type": "uint256"
				},
				{
					"internalType": "bool",
					"name": "vaccination_status",
					"type": "bool"
				},
				{
					"internalType": "bool",
					"name": "vaccine_passport_issued",
					"type": "bool"
				},
				{
					"components": [
						{
							"internalType": "string",
							"name": "cID",
							"type": "string"
						},
						{
							"internalType": "bytes32",
							"name": "message_digest_vp",
							"type": "bytes32"
						},
						{
							"internalType": "string",
							"name": "sig_on_message_digest_vp",
							"type": "string"
						},
						{
							"internalType": "uint256",
							"name": "timestamp_create_vp",
							"type": "uint256"
						}
					],
					"internalType": "struct SC_C_Govt.VaccinePassport",
					"name": "vp",
					"type": "tuple"
				}
			],
			"stateMutability": "view",
			"type": "function"
		},
		{
			"inputs": [
				{
					"internalType": "address",
					"name": "_applicant_addr",
					"type": "address"
				},
				{
					"internalType": "bool",
					"name": "_decision",
					"type": "bool"
				}
			],
			"name": "verifyTokenAppl",
			"outputs": [],
			"stateMutability": "nonpayable",
			"type": "function"
		}
	]
}