{
	"data": {
		"bytecode": {
			"linkReferences": {},
			"object": "60803461007f57601f61202a38819003918201601f19168301916001600160401b038311848410176100845780849260209460405283398101031261007f57516001600160a01b0381169081900361007f57600060025560018060a01b0319818160005416176000556001541617600155604051611f8f908161009b8239f35b600080fd5b634e487b7160e01b600052604160045260246000fdfe6080604052600436101561001257600080fd5b60003560e01c80630d022806146119de578063177e8b00146118245780632d848e99146117d7578063348b6ca11461170f5780634bdb4e40146114675780635127b905146112d357806378135e8714610f9a578063a3bf5b9a14610e97578063ae3be00e14610b89578063c06cb2aa1461096f578063d0c93609146106d6578063de5a03d614610451578063e0067adc146101085763f13f309d146100b657600080fd5b34610103576040366003190112610103576100cf611be5565b600435600052600460205260406000209060018060a01b0316600052602052602060ff604060002054166040519015158152f35b600080fd5b3461010357602036600319011261010357600435151580610443575b61012d90611c59565b6004356000526003602052604060002060ff600c6040519261014e84611c8b565b8054845260018060a01b0360018201541660208501526002810154604085015260018060a01b03600382015416606085015260048101546080850152600581015460a0850152600681015460c085015282600782015416151560e085015260088101546101008501526009810154610120850152600a810154610140850152600b81015461016085015201541615156101808201526024602060018060a01b0360015416604051928380926318fe01c760e21b82523360048301525afa80156103e65760009061040f575b6102299150604083015114611ce0565b61023861016082015115611d12565b60408101516000526005602052604060002060018060a01b03606083015116600052602052610273600160ff60406000205416151514611d44565b61028260c08201511515611e93565b61010081015115806103f2575b61029890611dcb565b6101f46000808080843382f1156103e65760608201516000918291829182916001600160a01b031682f1156103e6574261016082015260043560005260036020526040600020815181556103b6600182019160018060a01b03602085015116926001600160601b0360a01b9384825416179055604084015192836002830155600382019060018060a01b03606087015116908254161790556080840151600482015560a0840151600582015560c0840151600682015561036d60e08501511515600783019060ff801983541691151516179055565b61010084015160088201556101208401516009820155610140840151600a820155610160840151600b820155600c610180850151151591019060ff801983541691151516179055565b60009081526005602090815260408083206060909401516001600160a01b0316835292905220805460ff19169055005b6040513d6000823e3d90fd5b5061029861012c61040760c084015142611da8565b11905061028f565b506020813d60201161043b575b8161042960209383611cbe565b81010312610103576102299051610219565b3d915061041c565b506002546004351115610124565b346101035760208060031936011261010357600435801515806106ca575b61047890611c59565b60005260038152604060002060405161049081611c8b565b8154815260018060a01b0390816001840154168482015260028301549060408101918252610549836003860154169283606084015260048601546080840152600586015460a0840152600686015460c084015260ff600787015416151560e084015260088601546101008401526105406009870154946101208501958652600a88015494610140810195865261018060ff600c600b8c01549b61016085019c8d5201541615159101523314611ce0565b51945115611d12565b83600052600585526040600020336000528552610572600160ff60406000205416151514611d44565b61057e82511515611d76565b83600052600485526040600020336000528552600160ff6040600020541615150361069f5761012c6105c2600094936105bb6105c9945115611dfd565b5142611da8565b1115611e2f565b600154169160246040518094819363e7f3a4b560e01b835260048301525afa80156103e65760009160009060009261062f575b509261062b9161061a94604051958695606087526060870190611c34565b928501528382036040850152611c34565b0390f35b925050503d806000833e6106438183611cbe565b8101916080828403126101035781519067ffffffffffffffff918281116101035784610670918501611f04565b818401519360408101519384116101035761061a9561062b946106939201611f04565b909390925090936105fc565b60405162461bcd60e51b8152600480820187905260248201526329291c1b60e11b6044820152606490fd5b5060025481111561046f565b3461010357602036600319011261010357600435151580610961575b6106fb90611c59565b600435600052600360205260406000206107be6040519161071b83611c8b565b8054835260018101546001600160a01b039081166020850152600282015460408501526003820154166060840181905260048201546080850152600582015460a0850152600682015460c0850152600782015460ff908116151560e086015260088301546101008601526009830154610120860152600a830154610140860152600b830154610160860152600c9092015490911615156101808401523314611ce0565b6107cd61016082015115611d12565b60408101516000526005602052604060002060018060a01b03606083015116600052602052610808600160ff60406000205416151514611d44565b6101008101511561093657600160e082015115150361090b5761012081015115806108ed575b61083790611dcb565b60008080806103e83382f1156103e6574261016082015260043560005260036020526040600020815181556103b6600182019160018060a01b03602085015116926001600160601b0360a01b9384825416179055604084015192836002830155600382019060018060a01b03606087015116908254161790556080840151600482015560a0840151600582015560c0840151600682015561036d60e08501511515600783019060ff801983541691151516179055565b5061083761012c61090361010084015142611da8565b11905061082e565b606460405162461bcd60e51b815260206004820152600460248201526314948e0d60e21b6044820152fd5b606460405162461bcd60e51b81526020600482015260046024820152635252383360e01b6044820152fd5b5060025460043511156106f2565b3461010357602080600319360112610103576004359081151580610b7d575b61099790611c59565b81600052600381526040600020916040516109b181611c8b565b8354815260018060a01b03918260018601541680858401526002860154926040810193845284600388015416966060820197885260048101546080830152600581015460a0830152600681015460c0830152610a6d60ff6007830154169160e084019215158352610a6660088201549561010086019687526009830154956101208101968752600a84015461014082015261018060ff600c600b87015496610160850197885201541615159101523314611ce0565b5115611d12565b8451600052600587526040600020868951166000528752610a9a600160ff60406000205416151514611d44565b825115610b525760019051151503610b275751610afc5761012c6105c2610ac2925142611da8565b600052600383524260096040600020015551600052600482526040600020925116600052526040600020600160ff19825416179055600080f35b60405162461bcd60e51b8152600480820187905260248201526329291c1960e11b6044820152606490fd5b60405162461bcd60e51b815260048082018890526024820152635252383160e01b6044820152606490fd5b60405162461bcd60e51b815260048082018990526024820152630525238360e41b6044820152606490fd5b5060025482111561098e565b3461010357610b9736611bc6565b81151580610e8b575b610ba990611c59565b816000526003602052604060002090610c6b60405192610bc884611c8b565b8054845260018101546001600160a01b039081166020860152600282015460408601526003820154166060850181905260048201546080860152600582015460a0860152600682015460c0860152600782015460ff908116151560e087015260088301546101008701526009830154610120870152600a830154610140870152600b830154610160870152600c9092015490911615156101808501523314611ce0565b610c7a61016083015115611d12565b60408201516000526005602052604060002033600052602052610ca9600160ff60406000205416151514611d44565b60c082015115610e6057610100820151610e3557610cd161012c6105c260c085015142611da8565b15801560e083015242610100830152610dca575b610dc8916000526003602052600c610180604060002092805184556001840160018060a01b03602083015116906001600160601b0360a01b918282541617905560408201516002860155600385019060018060a01b03606084015116908254161790556080810151600485015560a0810151600585015560c08101516006850155610d8560e08201511515600786019060ff801983541691151516179055565b61010081015160088501556101208101516009850155610140810151600a850155610160810151600b8501550151151591019060ff801983541691151516179055565b005b6101f46000808080843382f1156103e65760208201516000918291829182916001600160a01b031682f1156103e6574261016082015260408082015160009081526005602090815282822060608501516001600160a01b03168352905220805460ff19169055610ce5565b606460405162461bcd60e51b81526020600482015260046024820152635252373960e01b6044820152fd5b606460405162461bcd60e51b81526020600482015260046024820152630a4a46e760e31b6044820152fd5b50600254821115610ba0565b346101035760208060031936011261010357610eb1611bfb565b90602460018060a01b03828160015416604051938480926318fe01c760e21b82523360048301525afa9182156103e657600092610f6b575b50610ef5821515611ec5565b81600052600483526040600020931692836000528252600160ff60406000205416151503610f40576000526004815260406000209160005252604060002060ff198154169055600080f35b60405162461bcd60e51b815260048082018490526024820152630a4a470760e31b6044820152606490fd5b9091508281813d8311610f93575b610f838183611cbe565b8101031261010357519084610ee9565b503d610f79565b602036600319011261010357610fae611bfb565b6001546040516318fe01c760e21b81526001600160a01b039283166004820181905290929091602491166020848381845afa9384156103e65760009461129e575b5060808291610fff861515611ec5565b60405192838092630448a54560e51b82528860048301525afa9081156103e657600090600092611251575b50600190151503611227576001901515036111fb5782600052600560205260406000203360005260205260ff604060002054166111d15761106e6101f43414611e61565b6002549060001982146111bd5750906001828161118c94016002556040519261109684611c8b565b82820184526020840152846040840152336060840152426080840152600060a0840152600060c0840152600060e084015260006101008401526000610120840152600061014084015260006101608401526000610180840152016000526003602052600c610180604060002092805184556001840160018060a01b03602083015116906001600160601b0360a01b918282541617905560408201516002860155600385019060018060a01b03606084015116908254161790556080810151600485015560a0810151600585015560c08101516006850155610d8560e08201511515600786019060ff801983541691151516179055565b60005260056020526040600020336000526020526040600020600160ff198254161790556020600254604051908152f35b634e487b7160e01b60009081526011600452fd5b60649060046040519162461bcd60e51b8352602082840152820152635252363960e01b6044820152fd5b60649060056040519162461bcd60e51b83526020600484015282015264052523132360dc1b6044820152fd5b60648260046040519162461bcd60e51b8352602082840152820152635252393760e01b6044820152fd5b9150506080813d608011611296575b8161126d60809383611cbe565b8101031261010357600161128f606061128860408501611ef7565b9301611ef7565b919061102a565b3d9150611260565b9093506020813d6020116112cb575b816112ba60209383611cbe565b810103126101035751926080610fef565b3d91506112ad565b3461010357602036600319011261010357600435151580611459575b6112f890611c59565b600435600052600360205260406000206113186040519161071b83611c8b565b61132761016082015115611d12565b60408101516000526005602052604060002060018060a01b03606083015116600052602052611362600160ff60406000205416151514611d44565b61137160808201511515611e93565b60c0810151158061143c575b61138690611dcb565b60008080806101f43382f1156103e6574261016082015260043560005260036020526040600020815181556103b6600182019160018060a01b03602085015116926001600160601b0360a01b9384825416179055604084015192836002830155600382019060018060a01b03606087015116908254161790556080840151600482015560a0840151600582015560c0840151600682015561036d60e08501511515600783019060ff801983541691151516179055565b5061138661012c611451608084015142611da8565b11905061137d565b5060025460043511156112ef565b604036600319011261010357600435151580611701575b61148790611c59565b6004356000526003602052604060002060ff600c604051926114a884611c8b565b8054845260018060a01b0360018201541660208501526002810154604085015260018060a01b03600382015416606085015260048101546080850152600581015460a0850152600681015460c085015282600782015416151560e085015260088101546101008501526009810154610120850152600a810154610140850152600b81015461016085015201541615156101808201526024602060018060a01b0360015416604051928380926318fe01c760e21b82523360048301525afa9081156103e6576000916116cf575b5061158481604084015114611ce0565b61159361016083015115611d12565b6000526005602052604060002060018060a01b036060830151166000526020526115c9600160ff60406000205416151514611d44565b6115d66101f43414611e61565b60c08101516116a457806115f761012c6105c26080610dc895015142611da8565b4260c082015260243560a08201526004356000526003602052600c610180604060002092805184556001840160018060a01b03602083015116906001600160601b0360a01b918282541617905560408201516002860155600385019060018060a01b03606084015116908254161790556080810151600485015560a0810151600585015560c08101516006850155610d8560e08201511515600786019060ff801983541691151516179055565b606460405162461bcd60e51b81526020600482015260046024820152635252373760e01b6044820152fd5b90506020813d6020116116f9575b816116ea60209383611cbe565b81010312610103575182611574565b3d91506116dd565b50600254600435111561147e565b346101035760203660031901126101035760043560005260036020526101a0604060002080549060018060a01b0390816001820154169160028201549060038301541660048301546005840154600685015460ff60078701541691600887015493600988015495600a8901549760ff600c600b8c01549b0154169a6040519c8d5260208d015260408c015260608b015260808a015260a089015260c0880152151560e08701526101008601526101208501526101408401526101608301521515610180820152f35b34610103576040366003190112610103576117f0611be5565b600435600052600560205260406000209060018060a01b0316600052602052602060ff604060002054166040519015158152f35b346101035761183236611bc6565b90801515806119d2575b61184590611c59565b80600052600360205260406000206118636040519161071b83611c8b565b60408101519261187861016083015115611d12565b8360005260056020526040600020336000526020526118a3600160ff60406000205416151514611d44565b6118b261014083015115611dfd565b6118c761012c6105c261012085015142611da8565b4261014083015215156101808201526101f46000808080843382f1156103e65760208201516000918291829182916001600160a01b031682f1156103e6576119ac91426101608301526000526003602052600c610180604060002092805184556001840160018060a01b03602083015116906001600160601b0360a01b918282541617905560408201516002860155600385019060018060a01b03606084015116908254161790556080810151600485015560a0810151600585015560c08101516006850155610d8560e08201511515600786019060ff801983541691151516179055565b6000526005602052604060002033600052602052604060002060ff198154169055600080f35b5060025481111561183c565b3461010357602036600319011261010357600435151580611bb8575b611a0390611c59565b6004356000526003602052604060002060ff600c60405192611a2484611c8b565b8054845260018060a01b0360018201541660208501526002810154604085015260018060a01b03600382015416606085015260048101546080850152600581015460a0850152600681015460c085015282600782015416151560e085015260088101546101008501526009810154610120850152600a810154610140850152600b81015461016085015201541615156101808201526024602060018060a01b0360015416604051928380926318fe01c760e21b82523360048301525afa80156103e657600090611b84575b611aff9150604083015114611ce0565b611b0e61016082015115611d12565b60408101516000526005602052604060002060018060a01b03606083015116600052602052611b49600160ff60406000205416151514611d44565b611b596101208201511515611d76565b6101408101511580611b6e5761083790611dcb565b5061083761012c61090361012084015142611da8565b506020813d602011611bb0575b81611b9e60209383611cbe565b8101031261010357611aff9051611aef565b3d9150611b91565b5060025460043511156119fa565b6040906003190112610103576004359060243580151581036101035790565b602435906001600160a01b038216820361010357565b600435906001600160a01b038216820361010357565b60005b838110611c245750506000910152565b8181015183820152602001611c14565b90602091611c4d81518092818552858086019101611c11565b601f01601f1916010190565b15611c6057565b606460405162461bcd60e51b815260206004820152600460248201526329291b9960e11b6044820152fd5b6101a0810190811067ffffffffffffffff821117611ca857604052565b634e487b7160e01b600052604160045260246000fd5b90601f8019910116810190811067ffffffffffffffff821117611ca857604052565b15611ce757565b606460405162461bcd60e51b81526020600482015260046024820152635252373360e01b6044820152fd5b15611d1957565b606460405162461bcd60e51b815260206004820152600460248201526314948dcd60e21b6044820152fd5b15611d4b57565b606460405162461bcd60e51b81526020600482015260046024820152630525237360e41b6044820152fd5b15611d7d57565b606460405162461bcd60e51b81526020600482015260046024820152635252383560e01b6044820152fd5b91908203918211611db557565b634e487b7160e01b600052601160045260246000fd5b15611dd257565b606460405162461bcd60e51b815260206004820152600460248201526329291b9b60e11b6044820152fd5b15611e0457565b606460405162461bcd60e51b81526020600482015260046024820152635252383760e01b6044820152fd5b15611e3657565b60405162461bcd60e51b81526020600482015260036024820152620a4a4760eb1b6044820152606490fd5b15611e6857565b606460405162461bcd60e51b81526020600482015260046024820152635252373160e01b6044820152fd5b15611e9a57565b606460405162461bcd60e51b81526020600482015260046024820152635252373560e01b6044820152fd5b15611ecc57565b606460405162461bcd60e51b81526020600482015260046024820152635252363160e01b6044820152fd5b5190811515820361010357565b81601f8201121561010357805167ffffffffffffffff8111611ca85760405192611f38601f8301601f191660200185611cbe565b8184526020828401011161010357611f569160208085019101611c11565b9056fea26469706673582212204441cc39c47bc34f0852241c73c77d94a8a07ff1ebcaa86d69c85ca89a74fc8064736f6c63430008160033",
			"opcodes": "PUSH1 0x80 CALLVALUE PUSH2 0x7F JUMPI PUSH1 0x1F PUSH2 0x202A CODESIZE DUP2 SWAP1 SUB SWAP2 DUP3 ADD PUSH1 0x1F NOT AND DUP4 ADD SWAP2 PUSH1 0x1 PUSH1 0x1 PUSH1 0x40 SHL SUB DUP4 GT DUP5 DUP5 LT OR PUSH2 0x84 JUMPI DUP1 DUP5 SWAP3 PUSH1 0x20 SWAP5 PUSH1 0x40 MSTORE DUP4 CODECOPY DUP2 ADD SUB SLT PUSH2 0x7F JUMPI MLOAD PUSH1 0x1 PUSH1 0x1 PUSH1 0xA0 SHL SUB DUP2 AND SWAP1 DUP2 SWAP1 SUB PUSH2 0x7F JUMPI PUSH1 0x0 PUSH1 0x2 SSTORE PUSH1 0x1 DUP1 PUSH1 0xA0 SHL SUB NOT DUP2 DUP2 PUSH1 0x0 SLOAD AND OR PUSH1 0x0 SSTORE PUSH1 0x1 SLOAD AND OR PUSH1 0x1 SSTORE PUSH1 0x40 MLOAD PUSH2 0x1F8F SWAP1 DUP2 PUSH2 0x9B DUP3 CODECOPY RETURN JUMPDEST PUSH1 0x0 DUP1 REVERT JUMPDEST PUSH4 0x4E487B71 PUSH1 0xE0 SHL PUSH1 0x0 MSTORE PUSH1 0x41 PUSH1 0x4 MSTORE PUSH1 0x24 PUSH1 0x0 REVERT INVALID PUSH1 0x80 PUSH1 0x40 MSTORE PUSH1 0x4 CALLDATASIZE LT ISZERO PUSH2 0x12 JUMPI PUSH1 0x0 DUP1 REVERT JUMPDEST PUSH1 0x0 CALLDATALOAD PUSH1 0xE0 SHR DUP1 PUSH4 0xD022806 EQ PUSH2 0x19DE JUMPI DUP1 PUSH4 0x177E8B00 EQ PUSH2 0x1824 JUMPI DUP1 PUSH4 0x2D848E99 EQ PUSH2 0x17D7 JUMPI DUP1 PUSH4 0x348B6CA1 EQ PUSH2 0x170F JUMPI DUP1 PUSH4 0x4BDB4E40 EQ PUSH2 0x1467 JUMPI DUP1 PUSH4 0x5127B905 EQ PUSH2 0x12D3 JUMPI DUP1 PUSH4 0x78135E87 EQ PUSH2 0xF9A JUMPI DUP1 PUSH4 0xA3BF5B9A EQ PUSH2 0xE97 JUMPI DUP1 PUSH4 0xAE3BE00E EQ PUSH2 0xB89 JUMPI DUP1 PUSH4 0xC06CB2AA EQ PUSH2 0x96F JUMPI DUP1 PUSH4 0xD0C93609 EQ PUSH2 0x6D6 JUMPI DUP1 PUSH4 0xDE5A03D6 EQ PUSH2 0x451 JUMPI DUP1 PUSH4 0xE0067ADC EQ PUSH2 0x108 JUMPI PUSH4 0xF13F309D EQ PUSH2 0xB6 JUMPI PUSH1 0x0 DUP1 REVERT JUMPDEST CALLVALUE PUSH2 0x103 JUMPI PUSH1 0x40 CALLDATASIZE PUSH1 0x3 NOT ADD SLT PUSH2 0x103 JUMPI PUSH2 0xCF PUSH2 0x1BE5 JUMP JUMPDEST PUSH1 0x4 CALLDATALOAD PUSH1 0x0 MSTORE PUSH1 0x4 PUSH1 0x20 MSTORE PUSH1 0x40 PUSH1 0x0 KECCAK256 SWAP1 PUSH1 0x1 DUP1 PUSH1 0xA0 SHL SUB AND PUSH1 0x0 MSTORE PUSH1 0x20 MSTORE PUSH1 0x20 PUSH1 0xFF PUSH1 0x40 PUSH1 0x0 KECCAK256 SLOAD AND PUSH1 0x40 MLOAD SWAP1 ISZERO ISZERO DUP2 MSTORE RETURN JUMPDEST PUSH1 0x0 DUP1 REVERT JUMPDEST CALLVALUE PUSH2 0x103 JUMPI PUSH1 0x20 CALLDATASIZE PUSH1 0x3 NOT ADD SLT PUSH2 0x103 JUMPI PUSH1 0x4 CALLDATALOAD ISZERO ISZERO DUP1 PUSH2 0x443 JUMPI JUMPDEST PUSH2 0x12D SWAP1 PUSH2 0x1C59 JUMP JUMPDEST PUSH1 0x4 CALLDATALOAD PUSH1 0x0 MSTORE PUSH1 0x3 PUSH1 0x20 MSTORE PUSH1 0x40 PUSH1 0x0 KECCAK256 PUSH1 0xFF PUSH1 0xC PUSH1 0x40 MLOAD SWAP3 PUSH2 0x14E DUP5 PUSH2 0x1C8B JUMP JUMPDEST DUP1 SLOAD DUP5 MSTORE PUSH1 0x1 DUP1 PUSH1 0xA0 SHL SUB PUSH1 0x1 DUP3 ADD SLOAD AND PUSH1 0x20 DUP6 ADD MSTORE PUSH1 0x2 DUP2 ADD SLOAD PUSH1 0x40 DUP6 ADD MSTORE PUSH1 0x1 DUP1 PUSH1 0xA0 SHL SUB PUSH1 0x3 DUP3 ADD SLOAD AND PUSH1 0x60 DUP6 ADD MSTORE PUSH1 0x4 DUP2 ADD SLOAD PUSH1 0x80 DUP6 ADD MSTORE PUSH1 0x5 DUP2 ADD SLOAD PUSH1 0xA0 DUP6 ADD MSTORE PUSH1 0x6 DUP2 ADD SLOAD PUSH1 0xC0 DUP6 ADD MSTORE DUP3 PUSH1 0x7 DUP3 ADD SLOAD AND ISZERO ISZERO PUSH1 0xE0 DUP6 ADD MSTORE PUSH1 0x8 DUP2 ADD SLOAD PUSH2 0x100 DUP6 ADD MSTORE PUSH1 0x9 DUP2 ADD SLOAD PUSH2 0x120 DUP6 ADD MSTORE PUSH1 0xA DUP2 ADD SLOAD PUSH2 0x140 DUP6 ADD MSTORE PUSH1 0xB DUP2 ADD SLOAD PUSH2 0x160 DUP6 ADD MSTORE ADD SLOAD AND ISZERO ISZERO PUSH2 0x180 DUP3 ADD MSTORE PUSH1 0x24 PUSH1 0x20 PUSH1 0x1 DUP1 PUSH1 0xA0 SHL SUB PUSH1 0x1 SLOAD AND PUSH1 0x40 MLOAD SWAP3 DUP4 DUP1 SWAP3 PUSH4 0x18FE01C7 PUSH1 0xE2 SHL DUP3 MSTORE CALLER PUSH1 0x4 DUP4 ADD MSTORE GAS STATICCALL DUP1 ISZERO PUSH2 0x3E6 JUMPI PUSH1 0x0 SWAP1 PUSH2 0x40F JUMPI JUMPDEST PUSH2 0x229 SWAP2 POP PUSH1 0x40 DUP4 ADD MLOAD EQ PUSH2 0x1CE0 JUMP JUMPDEST PUSH2 0x238 PUSH2 0x160 DUP3 ADD MLOAD ISZERO PUSH2 0x1D12 JUMP JUMPDEST PUSH1 0x40 DUP2 ADD MLOAD PUSH1 0x0 MSTORE PUSH1 0x5 PUSH1 0x20 MSTORE PUSH1 0x40 PUSH1 0x0 KECCAK256 PUSH1 0x1 DUP1 PUSH1 0xA0 SHL SUB PUSH1 0x60 DUP4 ADD MLOAD AND PUSH1 0x0 MSTORE PUSH1 0x20 MSTORE PUSH2 0x273 PUSH1 0x1 PUSH1 0xFF PUSH1 0x40 PUSH1 0x0 KECCAK256 SLOAD AND ISZERO ISZERO EQ PUSH2 0x1D44 JUMP JUMPDEST PUSH2 0x282 PUSH1 0xC0 DUP3 ADD MLOAD ISZERO ISZERO PUSH2 0x1E93 JUMP JUMPDEST PUSH2 0x100 DUP2 ADD MLOAD ISZERO DUP1 PUSH2 0x3F2 JUMPI JUMPDEST PUSH2 0x298 SWAP1 PUSH2 0x1DCB JUMP JUMPDEST PUSH2 0x1F4 PUSH1 0x0 DUP1 DUP1 DUP1 DUP5 CALLER DUP3 CALL ISZERO PUSH2 0x3E6 JUMPI PUSH1 0x60 DUP3 ADD MLOAD PUSH1 0x0 SWAP2 DUP3 SWAP2 DUP3 SWAP2 DUP3 SWAP2 PUSH1 0x1 PUSH1 0x1 PUSH1 0xA0 SHL SUB AND DUP3 CALL ISZERO PUSH2 0x3E6 JUMPI TIMESTAMP PUSH2 0x160 DUP3 ADD MSTORE PUSH1 0x4 CALLDATALOAD PUSH1 0x0 MSTORE PUSH1 0x3 PUSH1 0x20 MSTORE PUSH1 0x40 PUSH1 0x0 KECCAK256 DUP2 MLOAD DUP2 SSTORE PUSH2 0x3B6 PUSH1 0x1 DUP3 ADD SWAP2 PUSH1 0x1 DUP1 PUSH1 0xA0 SHL SUB PUSH1 0x20 DUP6 ADD MLOAD AND SWAP3 PUSH1 0x1 PUSH1 0x1 PUSH1 0x60 SHL SUB PUSH1 0xA0 SHL SWAP4 DUP5 DUP3 SLOAD AND OR SWAP1 SSTORE PUSH1 0x40 DUP5 ADD MLOAD SWAP3 DUP4 PUSH1 0x2 DUP4 ADD SSTORE PUSH1 0x3 DUP3 ADD SWAP1 PUSH1 0x1 DUP1 PUSH1 0xA0 SHL SUB PUSH1 0x60 DUP8 ADD MLOAD AND SWAP1 DUP3 SLOAD AND OR SWAP1 SSTORE PUSH1 0x80 DUP5 ADD MLOAD PUSH1 0x4 DUP3 ADD SSTORE PUSH1 0xA0 DUP5 ADD MLOAD PUSH1 0x5 DUP3 ADD SSTORE PUSH1 0xC0 DUP5 ADD MLOAD PUSH1 0x6 DUP3 ADD SSTORE PUSH2 0x36D PUSH1 0xE0 DUP6 ADD MLOAD ISZERO ISZERO PUSH1 0x7 DUP4 ADD SWAP1 PUSH1 0xFF DUP1 NOT DUP4 SLOAD AND SWAP2 ISZERO ISZERO AND OR SWAP1 SSTORE JUMP JUMPDEST PUSH2 0x100 DUP5 ADD MLOAD PUSH1 0x8 DUP3 ADD SSTORE PUSH2 0x120 DUP5 ADD MLOAD PUSH1 0x9 DUP3 ADD SSTORE PUSH2 0x140 DUP5 ADD MLOAD PUSH1 0xA DUP3 ADD SSTORE PUSH2 0x160 DUP5 ADD MLOAD PUSH1 0xB DUP3 ADD SSTORE PUSH1 0xC PUSH2 0x180 DUP6 ADD MLOAD ISZERO ISZERO SWAP2 ADD SWAP1 PUSH1 0xFF DUP1 NOT DUP4 SLOAD AND SWAP2 ISZERO ISZERO AND OR SWAP1 SSTORE JUMP JUMPDEST PUSH1 0x0 SWAP1 DUP2 MSTORE PUSH1 0x5 PUSH1 0x20 SWAP1 DUP2 MSTORE PUSH1 0x40 DUP1 DUP4 KECCAK256 PUSH1 0x60 SWAP1 SWAP5 ADD MLOAD PUSH1 0x1 PUSH1 0x1 PUSH1 0xA0 SHL SUB AND DUP4 MSTORE SWAP3 SWAP1 MSTORE KECCAK256 DUP1 SLOAD PUSH1 0xFF NOT AND SWAP1 SSTORE STOP JUMPDEST PUSH1 0x40 MLOAD RETURNDATASIZE PUSH1 0x0 DUP3 RETURNDATACOPY RETURNDATASIZE SWAP1 REVERT JUMPDEST POP PUSH2 0x298 PUSH2 0x12C PUSH2 0x407 PUSH1 0xC0 DUP5 ADD MLOAD TIMESTAMP PUSH2 0x1DA8 JUMP JUMPDEST GT SWAP1 POP PUSH2 0x28F JUMP JUMPDEST POP PUSH1 0x20 DUP2 RETURNDATASIZE PUSH1 0x20 GT PUSH2 0x43B JUMPI JUMPDEST DUP2 PUSH2 0x429 PUSH1 0x20 SWAP4 DUP4 PUSH2 0x1CBE JUMP JUMPDEST DUP2 ADD SUB SLT PUSH2 0x103 JUMPI PUSH2 0x229 SWAP1 MLOAD PUSH2 0x219 JUMP JUMPDEST RETURNDATASIZE SWAP2 POP PUSH2 0x41C JUMP JUMPDEST POP PUSH1 0x2 SLOAD PUSH1 0x4 CALLDATALOAD GT ISZERO PUSH2 0x124 JUMP JUMPDEST CALLVALUE PUSH2 0x103 JUMPI PUSH1 0x20 DUP1 PUSH1 0x3 NOT CALLDATASIZE ADD SLT PUSH2 0x103 JUMPI PUSH1 0x4 CALLDATALOAD DUP1 ISZERO ISZERO DUP1 PUSH2 0x6CA JUMPI JUMPDEST PUSH2 0x478 SWAP1 PUSH2 0x1C59 JUMP JUMPDEST PUSH1 0x0 MSTORE PUSH1 0x3 DUP2 MSTORE PUSH1 0x40 PUSH1 0x0 KECCAK256 PUSH1 0x40 MLOAD PUSH2 0x490 DUP2 PUSH2 0x1C8B JUMP JUMPDEST DUP2 SLOAD DUP2 MSTORE PUSH1 0x1 DUP1 PUSH1 0xA0 SHL SUB SWAP1 DUP2 PUSH1 0x1 DUP5 ADD SLOAD AND DUP5 DUP3 ADD MSTORE PUSH1 0x2 DUP4 ADD SLOAD SWAP1 PUSH1 0x40 DUP2 ADD SWAP2 DUP3 MSTORE PUSH2 0x549 DUP4 PUSH1 0x3 DUP7 ADD SLOAD AND SWAP3 DUP4 PUSH1 0x60 DUP5 ADD MSTORE PUSH1 0x4 DUP7 ADD SLOAD PUSH1 0x80 DUP5 ADD MSTORE PUSH1 0x5 DUP7 ADD SLOAD PUSH1 0xA0 DUP5 ADD MSTORE PUSH1 0x6 DUP7 ADD SLOAD PUSH1 0xC0 DUP5 ADD MSTORE PUSH1 0xFF PUSH1 0x7 DUP8 ADD SLOAD AND ISZERO ISZERO PUSH1 0xE0 DUP5 ADD MSTORE PUSH1 0x8 DUP7 ADD SLOAD PUSH2 0x100 DUP5 ADD MSTORE PUSH2 0x540 PUSH1 0x9 DUP8 ADD SLOAD SWAP5 PUSH2 0x120 DUP6 ADD SWAP6 DUP7 MSTORE PUSH1 0xA DUP9 ADD SLOAD SWAP5 PUSH2 0x140 DUP2 ADD SWAP6 DUP7 MSTORE PUSH2 0x180 PUSH1 0xFF PUSH1 0xC PUSH1 0xB DUP13 ADD SLOAD SWAP12 PUSH2 0x160 DUP6 ADD SWAP13 DUP14 MSTORE ADD SLOAD AND ISZERO ISZERO SWAP2 ADD MSTORE CALLER EQ PUSH2 0x1CE0 JUMP JUMPDEST MLOAD SWAP5 MLOAD ISZERO PUSH2 0x1D12 JUMP JUMPDEST DUP4 PUSH1 0x0 MSTORE PUSH1 0x5 DUP6 MSTORE PUSH1 0x40 PUSH1 0x0 KECCAK256 CALLER PUSH1 0x0 MSTORE DUP6 MSTORE PUSH2 0x572 PUSH1 0x1 PUSH1 0xFF PUSH1 0x40 PUSH1 0x0 KECCAK256 SLOAD AND ISZERO ISZERO EQ PUSH2 0x1D44 JUMP JUMPDEST PUSH2 0x57E DUP3 MLOAD ISZERO ISZERO PUSH2 0x1D76 JUMP JUMPDEST DUP4 PUSH1 0x0 MSTORE PUSH1 0x4 DUP6 MSTORE PUSH1 0x40 PUSH1 0x0 KECCAK256 CALLER PUSH1 0x0 MSTORE DUP6 MSTORE PUSH1 0x1 PUSH1 0xFF PUSH1 0x40 PUSH1 0x0 KECCAK256 SLOAD AND ISZERO ISZERO SUB PUSH2 0x69F JUMPI PUSH2 0x12C PUSH2 0x5C2 PUSH1 0x0 SWAP5 SWAP4 PUSH2 0x5BB PUSH2 0x5C9 SWAP5 MLOAD ISZERO PUSH2 0x1DFD JUMP JUMPDEST MLOAD TIMESTAMP PUSH2 0x1DA8 JUMP JUMPDEST GT ISZERO PUSH2 0x1E2F JUMP JUMPDEST PUSH1 0x1 SLOAD AND SWAP2 PUSH1 0x24 PUSH1 0x40 MLOAD DUP1 SWAP5 DUP2 SWAP4 PUSH4 0xE7F3A4B5 PUSH1 0xE0 SHL DUP4 MSTORE PUSH1 0x4 DUP4 ADD MSTORE GAS STATICCALL DUP1 ISZERO PUSH2 0x3E6 JUMPI PUSH1 0x0 SWAP2 PUSH1 0x0 SWAP1 PUSH1 0x0 SWAP3 PUSH2 0x62F JUMPI JUMPDEST POP SWAP3 PUSH2 0x62B SWAP2 PUSH2 0x61A SWAP5 PUSH1 0x40 MLOAD SWAP6 DUP7 SWAP6 PUSH1 0x60 DUP8 MSTORE PUSH1 0x60 DUP8 ADD SWAP1 PUSH2 0x1C34 JUMP JUMPDEST SWAP3 DUP6 ADD MSTORE DUP4 DUP3 SUB PUSH1 0x40 DUP6 ADD MSTORE PUSH2 0x1C34 JUMP JUMPDEST SUB SWAP1 RETURN JUMPDEST SWAP3 POP POP POP RETURNDATASIZE DUP1 PUSH1 0x0 DUP4 RETURNDATACOPY PUSH2 0x643 DUP2 DUP4 PUSH2 0x1CBE JUMP JUMPDEST DUP2 ADD SWAP2 PUSH1 0x80 DUP3 DUP5 SUB SLT PUSH2 0x103 JUMPI DUP2 MLOAD SWAP1 PUSH8 0xFFFFFFFFFFFFFFFF SWAP2 DUP3 DUP2 GT PUSH2 0x103 JUMPI DUP5 PUSH2 0x670 SWAP2 DUP6 ADD PUSH2 0x1F04 JUMP JUMPDEST DUP2 DUP5 ADD MLOAD SWAP4 PUSH1 0x40 DUP2 ADD MLOAD SWAP4 DUP5 GT PUSH2 0x103 JUMPI PUSH2 0x61A SWAP6 PUSH2 0x62B SWAP5 PUSH2 0x693 SWAP3 ADD PUSH2 0x1F04 JUMP JUMPDEST SWAP1 SWAP4 SWAP1 SWAP3 POP SWAP1 SWAP4 PUSH2 0x5FC JUMP JUMPDEST PUSH1 0x40 MLOAD PUSH3 0x461BCD PUSH1 0xE5 SHL DUP2 MSTORE PUSH1 0x4 DUP1 DUP3 ADD DUP8 SWAP1 MSTORE PUSH1 0x24 DUP3 ADD MSTORE PUSH4 0x29291C1B PUSH1 0xE1 SHL PUSH1 0x44 DUP3 ADD MSTORE PUSH1 0x64 SWAP1 REVERT JUMPDEST POP PUSH1 0x2 SLOAD DUP2 GT ISZERO PUSH2 0x46F JUMP JUMPDEST CALLVALUE PUSH2 0x103 JUMPI PUSH1 0x20 CALLDATASIZE PUSH1 0x3 NOT ADD SLT PUSH2 0x103 JUMPI PUSH1 0x4 CALLDATALOAD ISZERO ISZERO DUP1 PUSH2 0x961 JUMPI JUMPDEST PUSH2 0x6FB SWAP1 PUSH2 0x1C59 JUMP JUMPDEST PUSH1 0x4 CALLDATALOAD PUSH1 0x0 MSTORE PUSH1 0x3 PUSH1 0x20 MSTORE PUSH1 0x40 PUSH1 0x0 KECCAK256 PUSH2 0x7BE PUSH1 0x40 MLOAD SWAP2 PUSH2 0x71B DUP4 PUSH2 0x1C8B JUMP JUMPDEST DUP1 SLOAD DUP4 MSTORE PUSH1 0x1 DUP2 ADD SLOAD PUSH1 0x1 PUSH1 0x1 PUSH1 0xA0 SHL SUB SWAP1 DUP2 AND PUSH1 0x20 DUP6 ADD MSTORE PUSH1 0x2 DUP3 ADD SLOAD PUSH1 0x40 DUP6 ADD MSTORE PUSH1 0x3 DUP3 ADD SLOAD AND PUSH1 0x60 DUP5 ADD DUP2 SWAP1 MSTORE PUSH1 0x4 DUP3 ADD SLOAD PUSH1 0x80 DUP6 ADD MSTORE PUSH1 0x5 DUP3 ADD SLOAD PUSH1 0xA0 DUP6 ADD MSTORE PUSH1 0x6 DUP3 ADD SLOAD PUSH1 0xC0 DUP6 ADD MSTORE PUSH1 0x7 DUP3 ADD SLOAD PUSH1 0xFF SWAP1 DUP2 AND ISZERO ISZERO PUSH1 0xE0 DUP7 ADD MSTORE PUSH1 0x8 DUP4 ADD SLOAD PUSH2 0x100 DUP7 ADD MSTORE PUSH1 0x9 DUP4 ADD SLOAD PUSH2 0x120 DUP7 ADD MSTORE PUSH1 0xA DUP4 ADD SLOAD PUSH2 0x140 DUP7 ADD MSTORE PUSH1 0xB DUP4 ADD SLOAD PUSH2 0x160 DUP7 ADD MSTORE PUSH1 0xC SWAP1 SWAP3 ADD SLOAD SWAP1 SWAP2 AND ISZERO ISZERO PUSH2 0x180 DUP5 ADD MSTORE CALLER EQ PUSH2 0x1CE0 JUMP JUMPDEST PUSH2 0x7CD PUSH2 0x160 DUP3 ADD MLOAD ISZERO PUSH2 0x1D12 JUMP JUMPDEST PUSH1 0x40 DUP2 ADD MLOAD PUSH1 0x0 MSTORE PUSH1 0x5 PUSH1 0x20 MSTORE PUSH1 0x40 PUSH1 0x0 KECCAK256 PUSH1 0x1 DUP1 PUSH1 0xA0 SHL SUB PUSH1 0x60 DUP4 ADD MLOAD AND PUSH1 0x0 MSTORE PUSH1 0x20 MSTORE PUSH2 0x808 PUSH1 0x1 PUSH1 0xFF PUSH1 0x40 PUSH1 0x0 KECCAK256 SLOAD AND ISZERO ISZERO EQ PUSH2 0x1D44 JUMP JUMPDEST PUSH2 0x100 DUP2 ADD MLOAD ISZERO PUSH2 0x936 JUMPI PUSH1 0x1 PUSH1 0xE0 DUP3 ADD MLOAD ISZERO ISZERO SUB PUSH2 0x90B JUMPI PUSH2 0x120 DUP2 ADD MLOAD ISZERO DUP1 PUSH2 0x8ED JUMPI JUMPDEST PUSH2 0x837 SWAP1 PUSH2 0x1DCB JUMP JUMPDEST PUSH1 0x0 DUP1 DUP1 DUP1 PUSH2 0x3E8 CALLER DUP3 CALL ISZERO PUSH2 0x3E6 JUMPI TIMESTAMP PUSH2 0x160 DUP3 ADD MSTORE PUSH1 0x4 CALLDATALOAD PUSH1 0x0 MSTORE PUSH1 0x3 PUSH1 0x20 MSTORE PUSH1 0x40 PUSH1 0x0 KECCAK256 DUP2 MLOAD DUP2 SSTORE PUSH2 0x3B6 PUSH1 0x1 DUP3 ADD SWAP2 PUSH1 0x1 DUP1 PUSH1 0xA0 SHL SUB PUSH1 0x20 DUP6 ADD MLOAD AND SWAP3 PUSH1 0x1 PUSH1 0x1 PUSH1 0x60 SHL SUB PUSH1 0xA0 SHL SWAP4 DUP5 DUP3 SLOAD AND OR SWAP1 SSTORE PUSH1 0x40 DUP5 ADD MLOAD SWAP3 DUP4 PUSH1 0x2 DUP4 ADD SSTORE PUSH1 0x3 DUP3 ADD SWAP1 PUSH1 0x1 DUP1 PUSH1 0xA0 SHL SUB PUSH1 0x60 DUP8 ADD MLOAD AND SWAP1 DUP3 SLOAD AND OR SWAP1 SSTORE PUSH1 0x80 DUP5 ADD MLOAD PUSH1 0x4 DUP3 ADD SSTORE PUSH1 0xA0 DUP5 ADD MLOAD PUSH1 0x5 DUP3 ADD SSTORE PUSH1 0xC0 DUP5 ADD MLOAD PUSH1 0x6 DUP3 ADD SSTORE PUSH2 0x36D PUSH1 0xE0 DUP6 ADD MLOAD ISZERO ISZERO PUSH1 0x7 DUP4 ADD SWAP1 PUSH1 0xFF DUP1 NOT DUP4 SLOAD AND SWAP2 ISZERO ISZERO AND OR SWAP1 SSTORE JUMP JUMPDEST POP PUSH2 0x837 PUSH2 0x12C PUSH2 0x903 PUSH2 0x100 DUP5 ADD MLOAD TIMESTAMP PUSH2 0x1DA8 JUMP JUMPDEST GT SWAP1 POP PUSH2 0x82E JUMP JUMPDEST PUSH1 0x64 PUSH1 0x40 MLOAD PUSH3 0x461BCD PUSH1 0xE5 SHL DUP2 MSTORE PUSH1 0x20 PUSH1 0x4 DUP3 ADD MSTORE PUSH1 0x4 PUSH1 0x24 DUP3 ADD MSTORE PUSH4 0x14948E0D PUSH1 0xE2 SHL PUSH1 0x44 DUP3 ADD MSTORE REVERT JUMPDEST PUSH1 0x64 PUSH1 0x40 MLOAD PUSH3 0x461BCD PUSH1 0xE5 SHL DUP2 MSTORE PUSH1 0x20 PUSH1 0x4 DUP3 ADD MSTORE PUSH1 0x4 PUSH1 0x24 DUP3 ADD MSTORE PUSH4 0x52523833 PUSH1 0xE0 SHL PUSH1 0x44 DUP3 ADD MSTORE REVERT JUMPDEST POP PUSH1 0x2 SLOAD PUSH1 0x4 CALLDATALOAD GT ISZERO PUSH2 0x6F2 JUMP JUMPDEST CALLVALUE PUSH2 0x103 JUMPI PUSH1 0x20 DUP1 PUSH1 0x3 NOT CALLDATASIZE ADD SLT PUSH2 0x103 JUMPI PUSH1 0x4 CALLDATALOAD SWAP1 DUP2 ISZERO ISZERO DUP1 PUSH2 0xB7D JUMPI JUMPDEST PUSH2 0x997 SWAP1 PUSH2 0x1C59 JUMP JUMPDEST DUP2 PUSH1 0x0 MSTORE PUSH1 0x3 DUP2 MSTORE PUSH1 0x40 PUSH1 0x0 KECCAK256 SWAP2 PUSH1 0x40 MLOAD PUSH2 0x9B1 DUP2 PUSH2 0x1C8B JUMP JUMPDEST DUP4 SLOAD DUP2 MSTORE PUSH1 0x1 DUP1 PUSH1 0xA0 SHL SUB SWAP2 DUP3 PUSH1 0x1 DUP7 ADD SLOAD AND DUP1 DUP6 DUP5 ADD MSTORE PUSH1 0x2 DUP7 ADD SLOAD SWAP3 PUSH1 0x40 DUP2 ADD SWAP4 DUP5 MSTORE DUP5 PUSH1 0x3 DUP9 ADD SLOAD AND SWAP7 PUSH1 0x60 DUP3 ADD SWAP8 DUP9 MSTORE PUSH1 0x4 DUP2 ADD SLOAD PUSH1 0x80 DUP4 ADD MSTORE PUSH1 0x5 DUP2 ADD SLOAD PUSH1 0xA0 DUP4 ADD MSTORE PUSH1 0x6 DUP2 ADD SLOAD PUSH1 0xC0 DUP4 ADD MSTORE PUSH2 0xA6D PUSH1 0xFF PUSH1 0x7 DUP4 ADD SLOAD AND SWAP2 PUSH1 0xE0 DUP5 ADD SWAP3 ISZERO ISZERO DUP4 MSTORE PUSH2 0xA66 PUSH1 0x8 DUP3 ADD SLOAD SWAP6 PUSH2 0x100 DUP7 ADD SWAP7 DUP8 MSTORE PUSH1 0x9 DUP4 ADD SLOAD SWAP6 PUSH2 0x120 DUP2 ADD SWAP7 DUP8 MSTORE PUSH1 0xA DUP5 ADD SLOAD PUSH2 0x140 DUP3 ADD MSTORE PUSH2 0x180 PUSH1 0xFF PUSH1 0xC PUSH1 0xB DUP8 ADD SLOAD SWAP7 PUSH2 0x160 DUP6 ADD SWAP8 DUP9 MSTORE ADD SLOAD AND ISZERO ISZERO SWAP2 ADD MSTORE CALLER EQ PUSH2 0x1CE0 JUMP JUMPDEST MLOAD ISZERO PUSH2 0x1D12 JUMP JUMPDEST DUP5 MLOAD PUSH1 0x0 MSTORE PUSH1 0x5 DUP8 MSTORE PUSH1 0x40 PUSH1 0x0 KECCAK256 DUP7 DUP10 MLOAD AND PUSH1 0x0 MSTORE DUP8 MSTORE PUSH2 0xA9A PUSH1 0x1 PUSH1 0xFF PUSH1 0x40 PUSH1 0x0 KECCAK256 SLOAD AND ISZERO ISZERO EQ PUSH2 0x1D44 JUMP JUMPDEST DUP3 MLOAD ISZERO PUSH2 0xB52 JUMPI PUSH1 0x1 SWAP1 MLOAD ISZERO ISZERO SUB PUSH2 0xB27 JUMPI MLOAD PUSH2 0xAFC JUMPI PUSH2 0x12C PUSH2 0x5C2 PUSH2 0xAC2 SWAP3 MLOAD TIMESTAMP PUSH2 0x1DA8 JUMP JUMPDEST PUSH1 0x0 MSTORE PUSH1 0x3 DUP4 MSTORE TIMESTAMP PUSH1 0x9 PUSH1 0x40 PUSH1 0x0 KECCAK256 ADD SSTORE MLOAD PUSH1 0x0 MSTORE PUSH1 0x4 DUP3 MSTORE PUSH1 0x40 PUSH1 0x0 KECCAK256 SWAP3 MLOAD AND PUSH1 0x0 MSTORE MSTORE PUSH1 0x40 PUSH1 0x0 KECCAK256 PUSH1 0x1 PUSH1 0xFF NOT DUP3 SLOAD AND OR SWAP1 SSTORE PUSH1 0x0 DUP1 RETURN JUMPDEST PUSH1 0x40 MLOAD PUSH3 0x461BCD PUSH1 0xE5 SHL DUP2 MSTORE PUSH1 0x4 DUP1 DUP3 ADD DUP8 SWAP1 MSTORE PUSH1 0x24 DUP3 ADD MSTORE PUSH4 0x29291C19 PUSH1 0xE1 SHL PUSH1 0x44 DUP3 ADD MSTORE PUSH1 0x64 SWAP1 REVERT JUMPDEST PUSH1 0x40 MLOAD PUSH3 0x461BCD PUSH1 0xE5 SHL DUP2 MSTORE PUSH1 0x4 DUP1 DUP3 ADD DUP9 SWAP1 MSTORE PUSH1 0x24 DUP3 ADD MSTORE PUSH4 0x52523831 PUSH1 0xE0 SHL PUSH1 0x44 DUP3 ADD MSTORE PUSH1 0x64 SWAP1 REVERT JUMPDEST PUSH1 0x40 MLOAD PUSH3 0x461BCD PUSH1 0xE5 SHL DUP2 MSTORE PUSH1 0x4 DUP1 DUP3 ADD DUP10 SWAP1 MSTORE PUSH1 0x24 DUP3 ADD MSTORE PUSH4 0x5252383 PUSH1 0xE4 SHL PUSH1 0x44 DUP3 ADD MSTORE PUSH1 0x64 SWAP1 REVERT JUMPDEST POP PUSH1 0x2 SLOAD DUP3 GT ISZERO PUSH2 0x98E JUMP JUMPDEST CALLVALUE PUSH2 0x103 JUMPI PUSH2 0xB97 CALLDATASIZE PUSH2 0x1BC6 JUMP JUMPDEST DUP2 ISZERO ISZERO DUP1 PUSH2 0xE8B JUMPI JUMPDEST PUSH2 0xBA9 SWAP1 PUSH2 0x1C59 JUMP JUMPDEST DUP2 PUSH1 0x0 MSTORE PUSH1 0x3 PUSH1 0x20 MSTORE PUSH1 0x40 PUSH1 0x0 KECCAK256 SWAP1 PUSH2 0xC6B PUSH1 0x40 MLOAD SWAP3 PUSH2 0xBC8 DUP5 PUSH2 0x1C8B JUMP JUMPDEST DUP1 SLOAD DUP5 MSTORE PUSH1 0x1 DUP2 ADD SLOAD PUSH1 0x1 PUSH1 0x1 PUSH1 0xA0 SHL SUB SWAP1 DUP2 AND PUSH1 0x20 DUP7 ADD MSTORE PUSH1 0x2 DUP3 ADD SLOAD PUSH1 0x40 DUP7 ADD MSTORE PUSH1 0x3 DUP3 ADD SLOAD AND PUSH1 0x60 DUP6 ADD DUP2 SWAP1 MSTORE PUSH1 0x4 DUP3 ADD SLOAD PUSH1 0x80 DUP7 ADD MSTORE PUSH1 0x5 DUP3 ADD SLOAD PUSH1 0xA0 DUP7 ADD MSTORE PUSH1 0x6 DUP3 ADD SLOAD PUSH1 0xC0 DUP7 ADD MSTORE PUSH1 0x7 DUP3 ADD SLOAD PUSH1 0xFF SWAP1 DUP2 AND ISZERO ISZERO PUSH1 0xE0 DUP8 ADD MSTORE PUSH1 0x8 DUP4 ADD SLOAD PUSH2 0x100 DUP8 ADD MSTORE PUSH1 0x9 DUP4 ADD SLOAD PUSH2 0x120 DUP8 ADD MSTORE PUSH1 0xA DUP4 ADD SLOAD PUSH2 0x140 DUP8 ADD MSTORE PUSH1 0xB DUP4 ADD SLOAD PUSH2 0x160 DUP8 ADD MSTORE PUSH1 0xC SWAP1 SWAP3 ADD SLOAD SWAP1 SWAP2 AND ISZERO ISZERO PUSH2 0x180 DUP6 ADD MSTORE CALLER EQ PUSH2 0x1CE0 JUMP JUMPDEST PUSH2 0xC7A PUSH2 0x160 DUP4 ADD MLOAD ISZERO PUSH2 0x1D12 JUMP JUMPDEST PUSH1 0x40 DUP3 ADD MLOAD PUSH1 0x0 MSTORE PUSH1 0x5 PUSH1 0x20 MSTORE PUSH1 0x40 PUSH1 0x0 KECCAK256 CALLER PUSH1 0x0 MSTORE PUSH1 0x20 MSTORE PUSH2 0xCA9 PUSH1 0x1 PUSH1 0xFF PUSH1 0x40 PUSH1 0x0 KECCAK256 SLOAD AND ISZERO ISZERO EQ PUSH2 0x1D44 JUMP JUMPDEST PUSH1 0xC0 DUP3 ADD MLOAD ISZERO PUSH2 0xE60 JUMPI PUSH2 0x100 DUP3 ADD MLOAD PUSH2 0xE35 JUMPI PUSH2 0xCD1 PUSH2 0x12C PUSH2 0x5C2 PUSH1 0xC0 DUP6 ADD MLOAD TIMESTAMP PUSH2 0x1DA8 JUMP JUMPDEST ISZERO DUP1 ISZERO PUSH1 0xE0 DUP4 ADD MSTORE TIMESTAMP PUSH2 0x100 DUP4 ADD MSTORE PUSH2 0xDCA JUMPI JUMPDEST PUSH2 0xDC8 SWAP2 PUSH1 0x0 MSTORE PUSH1 0x3 PUSH1 0x20 MSTORE PUSH1 0xC PUSH2 0x180 PUSH1 0x40 PUSH1 0x0 KECCAK256 SWAP3 DUP1 MLOAD DUP5 SSTORE PUSH1 0x1 DUP5 ADD PUSH1 0x1 DUP1 PUSH1 0xA0 SHL SUB PUSH1 0x20 DUP4 ADD MLOAD AND SWAP1 PUSH1 0x1 PUSH1 0x1 PUSH1 0x60 SHL SUB PUSH1 0xA0 SHL SWAP2 DUP3 DUP3 SLOAD AND OR SWAP1 SSTORE PUSH1 0x40 DUP3 ADD MLOAD PUSH1 0x2 DUP7 ADD SSTORE PUSH1 0x3 DUP6 ADD SWAP1 PUSH1 0x1 DUP1 PUSH1 0xA0 SHL SUB PUSH1 0x60 DUP5 ADD MLOAD AND SWAP1 DUP3 SLOAD AND OR SWAP1 SSTORE PUSH1 0x80 DUP2 ADD MLOAD PUSH1 0x4 DUP6 ADD SSTORE PUSH1 0xA0 DUP2 ADD MLOAD PUSH1 0x5 DUP6 ADD SSTORE PUSH1 0xC0 DUP2 ADD MLOAD PUSH1 0x6 DUP6 ADD SSTORE PUSH2 0xD85 PUSH1 0xE0 DUP3 ADD MLOAD ISZERO ISZERO PUSH1 0x7 DUP7 ADD SWAP1 PUSH1 0xFF DUP1 NOT DUP4 SLOAD AND SWAP2 ISZERO ISZERO AND OR SWAP1 SSTORE JUMP JUMPDEST PUSH2 0x100 DUP2 ADD MLOAD PUSH1 0x8 DUP6 ADD SSTORE PUSH2 0x120 DUP2 ADD MLOAD PUSH1 0x9 DUP6 ADD SSTORE PUSH2 0x140 DUP2 ADD MLOAD PUSH1 0xA DUP6 ADD SSTORE PUSH2 0x160 DUP2 ADD MLOAD PUSH1 0xB DUP6 ADD SSTORE ADD MLOAD ISZERO ISZERO SWAP2 ADD SWAP1 PUSH1 0xFF DUP1 NOT DUP4 SLOAD AND SWAP2 ISZERO ISZERO AND OR SWAP1 SSTORE JUMP JUMPDEST STOP JUMPDEST PUSH2 0x1F4 PUSH1 0x0 DUP1 DUP1 DUP1 DUP5 CALLER DUP3 CALL ISZERO PUSH2 0x3E6 JUMPI PUSH1 0x20 DUP3 ADD MLOAD PUSH1 0x0 SWAP2 DUP3 SWAP2 DUP3 SWAP2 DUP3 SWAP2 PUSH1 0x1 PUSH1 0x1 PUSH1 0xA0 SHL SUB AND DUP3 CALL ISZERO PUSH2 0x3E6 JUMPI TIMESTAMP PUSH2 0x160 DUP3 ADD MSTORE PUSH1 0x40 DUP1 DUP3 ADD MLOAD PUSH1 0x0 SWAP1 DUP2 MSTORE PUSH1 0x5 PUSH1 0x20 SWAP1 DUP2 MSTORE DUP3 DUP3 KECCAK256 PUSH1 0x60 DUP6 ADD MLOAD PUSH1 0x1 PUSH1 0x1 PUSH1 0xA0 SHL SUB AND DUP4 MSTORE SWAP1 MSTORE KECCAK256 DUP1 SLOAD PUSH1 0xFF NOT AND SWAP1 SSTORE PUSH2 0xCE5 JUMP JUMPDEST PUSH1 0x64 PUSH1 0x40 MLOAD PUSH3 0x461BCD PUSH1 0xE5 SHL DUP2 MSTORE PUSH1 0x20 PUSH1 0x4 DUP3 ADD MSTORE PUSH1 0x4 PUSH1 0x24 DUP3 ADD MSTORE PUSH4 0x52523739 PUSH1 0xE0 SHL PUSH1 0x44 DUP3 ADD MSTORE REVERT JUMPDEST PUSH1 0x64 PUSH1 0x40 MLOAD PUSH3 0x461BCD PUSH1 0xE5 SHL DUP2 MSTORE PUSH1 0x20 PUSH1 0x4 DUP3 ADD MSTORE PUSH1 0x4 PUSH1 0x24 DUP3 ADD MSTORE PUSH4 0xA4A46E7 PUSH1 0xE3 SHL PUSH1 0x44 DUP3 ADD MSTORE REVERT JUMPDEST POP PUSH1 0x2 SLOAD DUP3 GT ISZERO PUSH2 0xBA0 JUMP JUMPDEST CALLVALUE PUSH2 0x103 JUMPI PUSH1 0x20 DUP1 PUSH1 0x3 NOT CALLDATASIZE ADD SLT PUSH2 0x103 JUMPI PUSH2 0xEB1 PUSH2 0x1BFB JUMP JUMPDEST SWAP1 PUSH1 0x24 PUSH1 0x1 DUP1 PUSH1 0xA0 SHL SUB DUP3 DUP2 PUSH1 0x1 SLOAD AND PUSH1 0x40 MLOAD SWAP4 DUP5 DUP1 SWAP3 PUSH4 0x18FE01C7 PUSH1 0xE2 SHL DUP3 MSTORE CALLER PUSH1 0x4 DUP4 ADD MSTORE GAS STATICCALL SWAP2 DUP3 ISZERO PUSH2 0x3E6 JUMPI PUSH1 0x0 SWAP3 PUSH2 0xF6B JUMPI JUMPDEST POP PUSH2 0xEF5 DUP3 ISZERO ISZERO PUSH2 0x1EC5 JUMP JUMPDEST DUP2 PUSH1 0x0 MSTORE PUSH1 0x4 DUP4 MSTORE PUSH1 0x40 PUSH1 0x0 KECCAK256 SWAP4 AND SWAP3 DUP4 PUSH1 0x0 MSTORE DUP3 MSTORE PUSH1 0x1 PUSH1 0xFF PUSH1 0x40 PUSH1 0x0 KECCAK256 SLOAD AND ISZERO ISZERO SUB PUSH2 0xF40 JUMPI PUSH1 0x0 MSTORE PUSH1 0x4 DUP2 MSTORE PUSH1 0x40 PUSH1 0x0 KECCAK256 SWAP2 PUSH1 0x0 MSTORE MSTORE PUSH1 0x40 PUSH1 0x0 KECCAK256 PUSH1 0xFF NOT DUP2 SLOAD AND SWAP1 SSTORE PUSH1 0x0 DUP1 RETURN JUMPDEST PUSH1 0x40 MLOAD PUSH3 0x461BCD PUSH1 0xE5 SHL DUP2 MSTORE PUSH1 0x4 DUP1 DUP3 ADD DUP5 SWAP1 MSTORE PUSH1 0x24 DUP3 ADD MSTORE PUSH4 0xA4A4707 PUSH1 0xE3 SHL PUSH1 0x44 DUP3 ADD MSTORE PUSH1 0x64 SWAP1 REVERT JUMPDEST SWAP1 SWAP2 POP DUP3 DUP2 DUP2 RETURNDATASIZE DUP4 GT PUSH2 0xF93 JUMPI JUMPDEST PUSH2 0xF83 DUP2 DUP4 PUSH2 0x1CBE JUMP JUMPDEST DUP2 ADD SUB SLT PUSH2 0x103 JUMPI MLOAD SWAP1 DUP5 PUSH2 0xEE9 JUMP JUMPDEST POP RETURNDATASIZE PUSH2 0xF79 JUMP JUMPDEST PUSH1 0x20 CALLDATASIZE PUSH1 0x3 NOT ADD SLT PUSH2 0x103 JUMPI PUSH2 0xFAE PUSH2 0x1BFB JUMP JUMPDEST PUSH1 0x1 SLOAD PUSH1 0x40 MLOAD PUSH4 0x18FE01C7 PUSH1 0xE2 SHL DUP2 MSTORE PUSH1 0x1 PUSH1 0x1 PUSH1 0xA0 SHL SUB SWAP3 DUP4 AND PUSH1 0x4 DUP3 ADD DUP2 SWAP1 MSTORE SWAP1 SWAP3 SWAP1 SWAP2 PUSH1 0x24 SWAP2 AND PUSH1 0x20 DUP5 DUP4 DUP2 DUP5 GAS STATICCALL SWAP4 DUP5 ISZERO PUSH2 0x3E6 JUMPI PUSH1 0x0 SWAP5 PUSH2 0x129E JUMPI JUMPDEST POP PUSH1 0x80 DUP3 SWAP2 PUSH2 0xFFF DUP7 ISZERO ISZERO PUSH2 0x1EC5 JUMP JUMPDEST PUSH1 0x40 MLOAD SWAP3 DUP4 DUP1 SWAP3 PUSH4 0x448A545 PUSH1 0xE5 SHL DUP3 MSTORE DUP9 PUSH1 0x4 DUP4 ADD MSTORE GAS STATICCALL SWAP1 DUP2 ISZERO PUSH2 0x3E6 JUMPI PUSH1 0x0 SWAP1 PUSH1 0x0 SWAP3 PUSH2 0x1251 JUMPI JUMPDEST POP PUSH1 0x1 SWAP1 ISZERO ISZERO SUB PUSH2 0x1227 JUMPI PUSH1 0x1 SWAP1 ISZERO ISZERO SUB PUSH2 0x11FB JUMPI DUP3 PUSH1 0x0 MSTORE PUSH1 0x5 PUSH1 0x20 MSTORE PUSH1 0x40 PUSH1 0x0 KECCAK256 CALLER PUSH1 0x0 MSTORE PUSH1 0x20 MSTORE PUSH1 0xFF PUSH1 0x40 PUSH1 0x0 KECCAK256 SLOAD AND PUSH2 0x11D1 JUMPI PUSH2 0x106E PUSH2 0x1F4 CALLVALUE EQ PUSH2 0x1E61 JUMP JUMPDEST PUSH1 0x2 SLOAD SWAP1 PUSH1 0x0 NOT DUP3 EQ PUSH2 0x11BD JUMPI POP SWAP1 PUSH1 0x1 DUP3 DUP2 PUSH2 0x118C SWAP5 ADD PUSH1 0x2 SSTORE PUSH1 0x40 MLOAD SWAP3 PUSH2 0x1096 DUP5 PUSH2 0x1C8B JUMP JUMPDEST DUP3 DUP3 ADD DUP5 MSTORE PUSH1 0x20 DUP5 ADD MSTORE DUP5 PUSH1 0x40 DUP5 ADD MSTORE CALLER PUSH1 0x60 DUP5 ADD MSTORE TIMESTAMP PUSH1 0x80 DUP5 ADD MSTORE PUSH1 0x0 PUSH1 0xA0 DUP5 ADD MSTORE PUSH1 0x0 PUSH1 0xC0 DUP5 ADD MSTORE PUSH1 0x0 PUSH1 0xE0 DUP5 ADD MSTORE PUSH1 0x0 PUSH2 0x100 DUP5 ADD MSTORE PUSH1 0x0 PUSH2 0x120 DUP5 ADD MSTORE PUSH1 0x0 PUSH2 0x140 DUP5 ADD MSTORE PUSH1 0x0 PUSH2 0x160 DUP5 ADD MSTORE PUSH1 0x0 PUSH2 0x180 DUP5 ADD MSTORE ADD PUSH1 0x0 MSTORE PUSH1 0x3 PUSH1 0x20 MSTORE PUSH1 0xC PUSH2 0x180 PUSH1 0x40 PUSH1 0x0 KECCAK256 SWAP3 DUP1 MLOAD DUP5 SSTORE PUSH1 0x1 DUP5 ADD PUSH1 0x1 DUP1 PUSH1 0xA0 SHL SUB PUSH1 0x20 DUP4 ADD MLOAD AND SWAP1 PUSH1 0x1 PUSH1 0x1 PUSH1 0x60 SHL SUB PUSH1 0xA0 SHL SWAP2 DUP3 DUP3 SLOAD AND OR SWAP1 SSTORE PUSH1 0x40 DUP3 ADD MLOAD PUSH1 0x2 DUP7 ADD SSTORE PUSH1 0x3 DUP6 ADD SWAP1 PUSH1 0x1 DUP1 PUSH1 0xA0 SHL SUB PUSH1 0x60 DUP5 ADD MLOAD AND SWAP1 DUP3 SLOAD AND OR SWAP1 SSTORE PUSH1 0x80 DUP2 ADD MLOAD PUSH1 0x4 DUP6 ADD SSTORE PUSH1 0xA0 DUP2 ADD MLOAD PUSH1 0x5 DUP6 ADD SSTORE PUSH1 0xC0 DUP2 ADD MLOAD PUSH1 0x6 DUP6 ADD SSTORE PUSH2 0xD85 PUSH1 0xE0 DUP3 ADD MLOAD ISZERO ISZERO PUSH1 0x7 DUP7 ADD SWAP1 PUSH1 0xFF DUP1 NOT DUP4 SLOAD AND SWAP2 ISZERO ISZERO AND OR SWAP1 SSTORE JUMP JUMPDEST PUSH1 0x0 MSTORE PUSH1 0x5 PUSH1 0x20 MSTORE PUSH1 0x40 PUSH1 0x0 KECCAK256 CALLER PUSH1 0x0 MSTORE PUSH1 0x20 MSTORE PUSH1 0x40 PUSH1 0x0 KECCAK256 PUSH1 0x1 PUSH1 0xFF NOT DUP3 SLOAD AND OR SWAP1 SSTORE PUSH1 0x20 PUSH1 0x2 SLOAD PUSH1 0x40 MLOAD SWAP1 DUP2 MSTORE RETURN JUMPDEST PUSH4 0x4E487B71 PUSH1 0xE0 SHL PUSH1 0x0 SWAP1 DUP2 MSTORE PUSH1 0x11 PUSH1 0x4 MSTORE REVERT JUMPDEST PUSH1 0x64 SWAP1 PUSH1 0x4 PUSH1 0x40 MLOAD SWAP2 PUSH3 0x461BCD PUSH1 0xE5 SHL DUP4 MSTORE PUSH1 0x20 DUP3 DUP5 ADD MSTORE DUP3 ADD MSTORE PUSH4 0x52523639 PUSH1 0xE0 SHL PUSH1 0x44 DUP3 ADD MSTORE REVERT JUMPDEST PUSH1 0x64 SWAP1 PUSH1 0x5 PUSH1 0x40 MLOAD SWAP2 PUSH3 0x461BCD PUSH1 0xE5 SHL DUP4 MSTORE PUSH1 0x20 PUSH1 0x4 DUP5 ADD MSTORE DUP3 ADD MSTORE PUSH5 0x525231323 PUSH1 0xDC SHL PUSH1 0x44 DUP3 ADD MSTORE REVERT JUMPDEST PUSH1 0x64 DUP3 PUSH1 0x4 PUSH1 0x40 MLOAD SWAP2 PUSH3 0x461BCD PUSH1 0xE5 SHL DUP4 MSTORE PUSH1 0x20 DUP3 DUP5 ADD MSTORE DUP3 ADD MSTORE PUSH4 0x52523937 PUSH1 0xE0 SHL PUSH1 0x44 DUP3 ADD MSTORE REVERT JUMPDEST SWAP2 POP POP PUSH1 0x80 DUP2 RETURNDATASIZE PUSH1 0x80 GT PUSH2 0x1296 JUMPI JUMPDEST DUP2 PUSH2 0x126D PUSH1 0x80 SWAP4 DUP4 PUSH2 0x1CBE JUMP JUMPDEST DUP2 ADD SUB SLT PUSH2 0x103 JUMPI PUSH1 0x1 PUSH2 0x128F PUSH1 0x60 PUSH2 0x1288 PUSH1 0x40 DUP6 ADD PUSH2 0x1EF7 JUMP JUMPDEST SWAP4 ADD PUSH2 0x1EF7 JUMP JUMPDEST SWAP2 SWAP1 PUSH2 0x102A JUMP JUMPDEST RETURNDATASIZE SWAP2 POP PUSH2 0x1260 JUMP JUMPDEST SWAP1 SWAP4 POP PUSH1 0x20 DUP2 RETURNDATASIZE PUSH1 0x20 GT PUSH2 0x12CB JUMPI JUMPDEST DUP2 PUSH2 0x12BA PUSH1 0x20 SWAP4 DUP4 PUSH2 0x1CBE JUMP JUMPDEST DUP2 ADD SUB SLT PUSH2 0x103 JUMPI MLOAD SWAP3 PUSH1 0x80 PUSH2 0xFEF JUMP JUMPDEST RETURNDATASIZE SWAP2 POP PUSH2 0x12AD JUMP JUMPDEST CALLVALUE PUSH2 0x103 JUMPI PUSH1 0x20 CALLDATASIZE PUSH1 0x3 NOT ADD SLT PUSH2 0x103 JUMPI PUSH1 0x4 CALLDATALOAD ISZERO ISZERO DUP1 PUSH2 0x1459 JUMPI JUMPDEST PUSH2 0x12F8 SWAP1 PUSH2 0x1C59 JUMP JUMPDEST PUSH1 0x4 CALLDATALOAD PUSH1 0x0 MSTORE PUSH1 0x3 PUSH1 0x20 MSTORE PUSH1 0x40 PUSH1 0x0 KECCAK256 PUSH2 0x1318 PUSH1 0x40 MLOAD SWAP2 PUSH2 0x71B DUP4 PUSH2 0x1C8B JUMP JUMPDEST PUSH2 0x1327 PUSH2 0x160 DUP3 ADD MLOAD ISZERO PUSH2 0x1D12 JUMP JUMPDEST PUSH1 0x40 DUP2 ADD MLOAD PUSH1 0x0 MSTORE PUSH1 0x5 PUSH1 0x20 MSTORE PUSH1 0x40 PUSH1 0x0 KECCAK256 PUSH1 0x1 DUP1 PUSH1 0xA0 SHL SUB PUSH1 0x60 DUP4 ADD MLOAD AND PUSH1 0x0 MSTORE PUSH1 0x20 MSTORE PUSH2 0x1362 PUSH1 0x1 PUSH1 0xFF PUSH1 0x40 PUSH1 0x0 KECCAK256 SLOAD AND ISZERO ISZERO EQ PUSH2 0x1D44 JUMP JUMPDEST PUSH2 0x1371 PUSH1 0x80 DUP3 ADD MLOAD ISZERO ISZERO PUSH2 0x1E93 JUMP JUMPDEST PUSH1 0xC0 DUP2 ADD MLOAD ISZERO DUP1 PUSH2 0x143C JUMPI JUMPDEST PUSH2 0x1386 SWAP1 PUSH2 0x1DCB JUMP JUMPDEST PUSH1 0x0 DUP1 DUP1 DUP1 PUSH2 0x1F4 CALLER DUP3 CALL ISZERO PUSH2 0x3E6 JUMPI TIMESTAMP PUSH2 0x160 DUP3 ADD MSTORE PUSH1 0x4 CALLDATALOAD PUSH1 0x0 MSTORE PUSH1 0x3 PUSH1 0x20 MSTORE PUSH1 0x40 PUSH1 0x0 KECCAK256 DUP2 MLOAD DUP2 SSTORE PUSH2 0x3B6 PUSH1 0x1 DUP3 ADD SWAP2 PUSH1 0x1 DUP1 PUSH1 0xA0 SHL SUB PUSH1 0x20 DUP6 ADD MLOAD AND SWAP3 PUSH1 0x1 PUSH1 0x1 PUSH1 0x60 SHL SUB PUSH1 0xA0 SHL SWAP4 DUP5 DUP3 SLOAD AND OR SWAP1 SSTORE PUSH1 0x40 DUP5 ADD MLOAD SWAP3 DUP4 PUSH1 0x2 DUP4 ADD SSTORE PUSH1 0x3 DUP3 ADD SWAP1 PUSH1 0x1 DUP1 PUSH1 0xA0 SHL SUB PUSH1 0x60 DUP8 ADD MLOAD AND SWAP1 DUP3 SLOAD AND OR SWAP1 SSTORE PUSH1 0x80 DUP5 ADD MLOAD PUSH1 0x4 DUP3 ADD SSTORE PUSH1 0xA0 DUP5 ADD MLOAD PUSH1 0x5 DUP3 ADD SSTORE PUSH1 0xC0 DUP5 ADD MLOAD PUSH1 0x6 DUP3 ADD SSTORE PUSH2 0x36D PUSH1 0xE0 DUP6 ADD MLOAD ISZERO ISZERO PUSH1 0x7 DUP4 ADD SWAP1 PUSH1 0xFF DUP1 NOT DUP4 SLOAD AND SWAP2 ISZERO ISZERO AND OR SWAP1 SSTORE JUMP JUMPDEST POP PUSH2 0x1386 PUSH2 0x12C PUSH2 0x1451 PUSH1 0x80 DUP5 ADD MLOAD TIMESTAMP PUSH2 0x1DA8 JUMP JUMPDEST GT SWAP1 POP PUSH2 0x137D JUMP JUMPDEST POP PUSH1 0x2 SLOAD PUSH1 0x4 CALLDATALOAD GT ISZERO PUSH2 0x12EF JUMP JUMPDEST PUSH1 0x40 CALLDATASIZE PUSH1 0x3 NOT ADD SLT PUSH2 0x103 JUMPI PUSH1 0x4 CALLDATALOAD ISZERO ISZERO DUP1 PUSH2 0x1701 JUMPI JUMPDEST PUSH2 0x1487 SWAP1 PUSH2 0x1C59 JUMP JUMPDEST PUSH1 0x4 CALLDATALOAD PUSH1 0x0 MSTORE PUSH1 0x3 PUSH1 0x20 MSTORE PUSH1 0x40 PUSH1 0x0 KECCAK256 PUSH1 0xFF PUSH1 0xC PUSH1 0x40 MLOAD SWAP3 PUSH2 0x14A8 DUP5 PUSH2 0x1C8B JUMP JUMPDEST DUP1 SLOAD DUP5 MSTORE PUSH1 0x1 DUP1 PUSH1 0xA0 SHL SUB PUSH1 0x1 DUP3 ADD SLOAD AND PUSH1 0x20 DUP6 ADD MSTORE PUSH1 0x2 DUP2 ADD SLOAD PUSH1 0x40 DUP6 ADD MSTORE PUSH1 0x1 DUP1 PUSH1 0xA0 SHL SUB PUSH1 0x3 DUP3 ADD SLOAD AND PUSH1 0x60 DUP6 ADD MSTORE PUSH1 0x4 DUP2 ADD SLOAD PUSH1 0x80 DUP6 ADD MSTORE PUSH1 0x5 DUP2 ADD SLOAD PUSH1 0xA0 DUP6 ADD MSTORE PUSH1 0x6 DUP2 ADD SLOAD PUSH1 0xC0 DUP6 ADD MSTORE DUP3 PUSH1 0x7 DUP3 ADD SLOAD AND ISZERO ISZERO PUSH1 0xE0 DUP6 ADD MSTORE PUSH1 0x8 DUP2 ADD SLOAD PUSH2 0x100 DUP6 ADD MSTORE PUSH1 0x9 DUP2 ADD SLOAD PUSH2 0x120 DUP6 ADD MSTORE PUSH1 0xA DUP2 ADD SLOAD PUSH2 0x140 DUP6 ADD MSTORE PUSH1 0xB DUP2 ADD SLOAD PUSH2 0x160 DUP6 ADD MSTORE ADD SLOAD AND ISZERO ISZERO PUSH2 0x180 DUP3 ADD MSTORE PUSH1 0x24 PUSH1 0x20 PUSH1 0x1 DUP1 PUSH1 0xA0 SHL SUB PUSH1 0x1 SLOAD AND PUSH1 0x40 MLOAD SWAP3 DUP4 DUP1 SWAP3 PUSH4 0x18FE01C7 PUSH1 0xE2 SHL DUP3 MSTORE CALLER PUSH1 0x4 DUP4 ADD MSTORE GAS STATICCALL SWAP1 DUP2 ISZERO PUSH2 0x3E6 JUMPI PUSH1 0x0 SWAP2 PUSH2 0x16CF JUMPI JUMPDEST POP PUSH2 0x1584 DUP2 PUSH1 0x40 DUP5 ADD MLOAD EQ PUSH2 0x1CE0 JUMP JUMPDEST PUSH2 0x1593 PUSH2 0x160 DUP4 ADD MLOAD ISZERO PUSH2 0x1D12 JUMP JUMPDEST PUSH1 0x0 MSTORE PUSH1 0x5 PUSH1 0x20 MSTORE PUSH1 0x40 PUSH1 0x0 KECCAK256 PUSH1 0x1 DUP1 PUSH1 0xA0 SHL SUB PUSH1 0x60 DUP4 ADD MLOAD AND PUSH1 0x0 MSTORE PUSH1 0x20 MSTORE PUSH2 0x15C9 PUSH1 0x1 PUSH1 0xFF PUSH1 0x40 PUSH1 0x0 KECCAK256 SLOAD AND ISZERO ISZERO EQ PUSH2 0x1D44 JUMP JUMPDEST PUSH2 0x15D6 PUSH2 0x1F4 CALLVALUE EQ PUSH2 0x1E61 JUMP JUMPDEST PUSH1 0xC0 DUP2 ADD MLOAD PUSH2 0x16A4 JUMPI DUP1 PUSH2 0x15F7 PUSH2 0x12C PUSH2 0x5C2 PUSH1 0x80 PUSH2 0xDC8 SWAP6 ADD MLOAD TIMESTAMP PUSH2 0x1DA8 JUMP JUMPDEST TIMESTAMP PUSH1 0xC0 DUP3 ADD MSTORE PUSH1 0x24 CALLDATALOAD PUSH1 0xA0 DUP3 ADD MSTORE PUSH1 0x4 CALLDATALOAD PUSH1 0x0 MSTORE PUSH1 0x3 PUSH1 0x20 MSTORE PUSH1 0xC PUSH2 0x180 PUSH1 0x40 PUSH1 0x0 KECCAK256 SWAP3 DUP1 MLOAD DUP5 SSTORE PUSH1 0x1 DUP5 ADD PUSH1 0x1 DUP1 PUSH1 0xA0 SHL SUB PUSH1 0x20 DUP4 ADD MLOAD AND SWAP1 PUSH1 0x1 PUSH1 0x1 PUSH1 0x60 SHL SUB PUSH1 0xA0 SHL SWAP2 DUP3 DUP3 SLOAD AND OR SWAP1 SSTORE PUSH1 0x40 DUP3 ADD MLOAD PUSH1 0x2 DUP7 ADD SSTORE PUSH1 0x3 DUP6 ADD SWAP1 PUSH1 0x1 DUP1 PUSH1 0xA0 SHL SUB PUSH1 0x60 DUP5 ADD MLOAD AND SWAP1 DUP3 SLOAD AND OR SWAP1 SSTORE PUSH1 0x80 DUP2 ADD MLOAD PUSH1 0x4 DUP6 ADD SSTORE PUSH1 0xA0 DUP2 ADD MLOAD PUSH1 0x5 DUP6 ADD SSTORE PUSH1 0xC0 DUP2 ADD MLOAD PUSH1 0x6 DUP6 ADD SSTORE PUSH2 0xD85 PUSH1 0xE0 DUP3 ADD MLOAD ISZERO ISZERO PUSH1 0x7 DUP7 ADD SWAP1 PUSH1 0xFF DUP1 NOT DUP4 SLOAD AND SWAP2 ISZERO ISZERO AND OR SWAP1 SSTORE JUMP JUMPDEST PUSH1 0x64 PUSH1 0x40 MLOAD PUSH3 0x461BCD PUSH1 0xE5 SHL DUP2 MSTORE PUSH1 0x20 PUSH1 0x4 DUP3 ADD MSTORE PUSH1 0x4 PUSH1 0x24 DUP3 ADD MSTORE PUSH4 0x52523737 PUSH1 0xE0 SHL PUSH1 0x44 DUP3 ADD MSTORE REVERT JUMPDEST SWAP1 POP PUSH1 0x20 DUP2 RETURNDATASIZE PUSH1 0x20 GT PUSH2 0x16F9 JUMPI JUMPDEST DUP2 PUSH2 0x16EA PUSH1 0x20 SWAP4 DUP4 PUSH2 0x1CBE JUMP JUMPDEST DUP2 ADD SUB SLT PUSH2 0x103 JUMPI MLOAD DUP3 PUSH2 0x1574 JUMP JUMPDEST RETURNDATASIZE SWAP2 POP PUSH2 0x16DD JUMP JUMPDEST POP PUSH1 0x2 SLOAD PUSH1 0x4 CALLDATALOAD GT ISZERO PUSH2 0x147E JUMP JUMPDEST CALLVALUE PUSH2 0x103 JUMPI PUSH1 0x20 CALLDATASIZE PUSH1 0x3 NOT ADD SLT PUSH2 0x103 JUMPI PUSH1 0x4 CALLDATALOAD PUSH1 0x0 MSTORE PUSH1 0x3 PUSH1 0x20 MSTORE PUSH2 0x1A0 PUSH1 0x40 PUSH1 0x0 KECCAK256 DUP1 SLOAD SWAP1 PUSH1 0x1 DUP1 PUSH1 0xA0 SHL SUB SWAP1 DUP2 PUSH1 0x1 DUP3 ADD SLOAD AND SWAP2 PUSH1 0x2 DUP3 ADD SLOAD SWAP1 PUSH1 0x3 DUP4 ADD SLOAD AND PUSH1 0x4 DUP4 ADD SLOAD PUSH1 0x5 DUP5 ADD SLOAD PUSH1 0x6 DUP6 ADD SLOAD PUSH1 0xFF PUSH1 0x7 DUP8 ADD SLOAD AND SWAP2 PUSH1 0x8 DUP8 ADD SLOAD SWAP4 PUSH1 0x9 DUP9 ADD SLOAD SWAP6 PUSH1 0xA DUP10 ADD SLOAD SWAP8 PUSH1 0xFF PUSH1 0xC PUSH1 0xB DUP13 ADD SLOAD SWAP12 ADD SLOAD AND SWAP11 PUSH1 0x40 MLOAD SWAP13 DUP14 MSTORE PUSH1 0x20 DUP14 ADD MSTORE PUSH1 0x40 DUP13 ADD MSTORE PUSH1 0x60 DUP12 ADD MSTORE PUSH1 0x80 DUP11 ADD MSTORE PUSH1 0xA0 DUP10 ADD MSTORE PUSH1 0xC0 DUP9 ADD MSTORE ISZERO ISZERO PUSH1 0xE0 DUP8 ADD MSTORE PUSH2 0x100 DUP7 ADD MSTORE PUSH2 0x120 DUP6 ADD MSTORE PUSH2 0x140 DUP5 ADD MSTORE PUSH2 0x160 DUP4 ADD MSTORE ISZERO ISZERO PUSH2 0x180 DUP3 ADD MSTORE RETURN JUMPDEST CALLVALUE PUSH2 0x103 JUMPI PUSH1 0x40 CALLDATASIZE PUSH1 0x3 NOT ADD SLT PUSH2 0x103 JUMPI PUSH2 0x17F0 PUSH2 0x1BE5 JUMP JUMPDEST PUSH1 0x4 CALLDATALOAD PUSH1 0x0 MSTORE PUSH1 0x5 PUSH1 0x20 MSTORE PUSH1 0x40 PUSH1 0x0 KECCAK256 SWAP1 PUSH1 0x1 DUP1 PUSH1 0xA0 SHL SUB AND PUSH1 0x0 MSTORE PUSH1 0x20 MSTORE PUSH1 0x20 PUSH1 0xFF PUSH1 0x40 PUSH1 0x0 KECCAK256 SLOAD AND PUSH1 0x40 MLOAD SWAP1 ISZERO ISZERO DUP2 MSTORE RETURN JUMPDEST CALLVALUE PUSH2 0x103 JUMPI PUSH2 0x1832 CALLDATASIZE PUSH2 0x1BC6 JUMP JUMPDEST SWAP1 DUP1 ISZERO ISZERO DUP1 PUSH2 0x19D2 JUMPI JUMPDEST PUSH2 0x1845 SWAP1 PUSH2 0x1C59 JUMP JUMPDEST DUP1 PUSH1 0x0 MSTORE PUSH1 0x3 PUSH1 0x20 MSTORE PUSH1 0x40 PUSH1 0x0 KECCAK256 PUSH2 0x1863 PUSH1 0x40 MLOAD SWAP2 PUSH2 0x71B DUP4 PUSH2 0x1C8B JUMP JUMPDEST PUSH1 0x40 DUP2 ADD MLOAD SWAP3 PUSH2 0x1878 PUSH2 0x160 DUP4 ADD MLOAD ISZERO PUSH2 0x1D12 JUMP JUMPDEST DUP4 PUSH1 0x0 MSTORE PUSH1 0x5 PUSH1 0x20 MSTORE PUSH1 0x40 PUSH1 0x0 KECCAK256 CALLER PUSH1 0x0 MSTORE PUSH1 0x20 MSTORE PUSH2 0x18A3 PUSH1 0x1 PUSH1 0xFF PUSH1 0x40 PUSH1 0x0 KECCAK256 SLOAD AND ISZERO ISZERO EQ PUSH2 0x1D44 JUMP JUMPDEST PUSH2 0x18B2 PUSH2 0x140 DUP4 ADD MLOAD ISZERO PUSH2 0x1DFD JUMP JUMPDEST PUSH2 0x18C7 PUSH2 0x12C PUSH2 0x5C2 PUSH2 0x120 DUP6 ADD MLOAD TIMESTAMP PUSH2 0x1DA8 JUMP JUMPDEST TIMESTAMP PUSH2 0x140 DUP4 ADD MSTORE ISZERO ISZERO PUSH2 0x180 DUP3 ADD MSTORE PUSH2 0x1F4 PUSH1 0x0 DUP1 DUP1 DUP1 DUP5 CALLER DUP3 CALL ISZERO PUSH2 0x3E6 JUMPI PUSH1 0x20 DUP3 ADD MLOAD PUSH1 0x0 SWAP2 DUP3 SWAP2 DUP3 SWAP2 DUP3 SWAP2 PUSH1 0x1 PUSH1 0x1 PUSH1 0xA0 SHL SUB AND DUP3 CALL ISZERO PUSH2 0x3E6 JUMPI PUSH2 0x19AC SWAP2 TIMESTAMP PUSH2 0x160 DUP4 ADD MSTORE PUSH1 0x0 MSTORE PUSH1 0x3 PUSH1 0x20 MSTORE PUSH1 0xC PUSH2 0x180 PUSH1 0x40 PUSH1 0x0 KECCAK256 SWAP3 DUP1 MLOAD DUP5 SSTORE PUSH1 0x1 DUP5 ADD PUSH1 0x1 DUP1 PUSH1 0xA0 SHL SUB PUSH1 0x20 DUP4 ADD MLOAD AND SWAP1 PUSH1 0x1 PUSH1 0x1 PUSH1 0x60 SHL SUB PUSH1 0xA0 SHL SWAP2 DUP3 DUP3 SLOAD AND OR SWAP1 SSTORE PUSH1 0x40 DUP3 ADD MLOAD PUSH1 0x2 DUP7 ADD SSTORE PUSH1 0x3 DUP6 ADD SWAP1 PUSH1 0x1 DUP1 PUSH1 0xA0 SHL SUB PUSH1 0x60 DUP5 ADD MLOAD AND SWAP1 DUP3 SLOAD AND OR SWAP1 SSTORE PUSH1 0x80 DUP2 ADD MLOAD PUSH1 0x4 DUP6 ADD SSTORE PUSH1 0xA0 DUP2 ADD MLOAD PUSH1 0x5 DUP6 ADD SSTORE PUSH1 0xC0 DUP2 ADD MLOAD PUSH1 0x6 DUP6 ADD SSTORE PUSH2 0xD85 PUSH1 0xE0 DUP3 ADD MLOAD ISZERO ISZERO PUSH1 0x7 DUP7 ADD SWAP1 PUSH1 0xFF DUP1 NOT DUP4 SLOAD AND SWAP2 ISZERO ISZERO AND OR SWAP1 SSTORE JUMP JUMPDEST PUSH1 0x0 MSTORE PUSH1 0x5 PUSH1 0x20 MSTORE PUSH1 0x40 PUSH1 0x0 KECCAK256 CALLER PUSH1 0x0 MSTORE PUSH1 0x20 MSTORE PUSH1 0x40 PUSH1 0x0 KECCAK256 PUSH1 0xFF NOT DUP2 SLOAD AND SWAP1 SSTORE PUSH1 0x0 DUP1 RETURN JUMPDEST POP PUSH1 0x2 SLOAD DUP2 GT ISZERO PUSH2 0x183C JUMP JUMPDEST CALLVALUE PUSH2 0x103 JUMPI PUSH1 0x20 CALLDATASIZE PUSH1 0x3 NOT ADD SLT PUSH2 0x103 JUMPI PUSH1 0x4 CALLDATALOAD ISZERO ISZERO DUP1 PUSH2 0x1BB8 JUMPI JUMPDEST PUSH2 0x1A03 SWAP1 PUSH2 0x1C59 JUMP JUMPDEST PUSH1 0x4 CALLDATALOAD PUSH1 0x0 MSTORE PUSH1 0x3 PUSH1 0x20 MSTORE PUSH1 0x40 PUSH1 0x0 KECCAK256 PUSH1 0xFF PUSH1 0xC PUSH1 0x40 MLOAD SWAP3 PUSH2 0x1A24 DUP5 PUSH2 0x1C8B JUMP JUMPDEST DUP1 SLOAD DUP5 MSTORE PUSH1 0x1 DUP1 PUSH1 0xA0 SHL SUB PUSH1 0x1 DUP3 ADD SLOAD AND PUSH1 0x20 DUP6 ADD MSTORE PUSH1 0x2 DUP2 ADD SLOAD PUSH1 0x40 DUP6 ADD MSTORE PUSH1 0x1 DUP1 PUSH1 0xA0 SHL SUB PUSH1 0x3 DUP3 ADD SLOAD AND PUSH1 0x60 DUP6 ADD MSTORE PUSH1 0x4 DUP2 ADD SLOAD PUSH1 0x80 DUP6 ADD MSTORE PUSH1 0x5 DUP2 ADD SLOAD PUSH1 0xA0 DUP6 ADD MSTORE PUSH1 0x6 DUP2 ADD SLOAD PUSH1 0xC0 DUP6 ADD MSTORE DUP3 PUSH1 0x7 DUP3 ADD SLOAD AND ISZERO ISZERO PUSH1 0xE0 DUP6 ADD MSTORE PUSH1 0x8 DUP2 ADD SLOAD PUSH2 0x100 DUP6 ADD MSTORE PUSH1 0x9 DUP2 ADD SLOAD PUSH2 0x120 DUP6 ADD MSTORE PUSH1 0xA DUP2 ADD SLOAD PUSH2 0x140 DUP6 ADD MSTORE PUSH1 0xB DUP2 ADD SLOAD PUSH2 0x160 DUP6 ADD MSTORE ADD SLOAD AND ISZERO ISZERO PUSH2 0x180 DUP3 ADD MSTORE PUSH1 0x24 PUSH1 0x20 PUSH1 0x1 DUP1 PUSH1 0xA0 SHL SUB PUSH1 0x1 SLOAD AND PUSH1 0x40 MLOAD SWAP3 DUP4 DUP1 SWAP3 PUSH4 0x18FE01C7 PUSH1 0xE2 SHL DUP3 MSTORE CALLER PUSH1 0x4 DUP4 ADD MSTORE GAS STATICCALL DUP1 ISZERO PUSH2 0x3E6 JUMPI PUSH1 0x0 SWAP1 PUSH2 0x1B84 JUMPI JUMPDEST PUSH2 0x1AFF SWAP2 POP PUSH1 0x40 DUP4 ADD MLOAD EQ PUSH2 0x1CE0 JUMP JUMPDEST PUSH2 0x1B0E PUSH2 0x160 DUP3 ADD MLOAD ISZERO PUSH2 0x1D12 JUMP JUMPDEST PUSH1 0x40 DUP2 ADD MLOAD PUSH1 0x0 MSTORE PUSH1 0x5 PUSH1 0x20 MSTORE PUSH1 0x40 PUSH1 0x0 KECCAK256 PUSH1 0x1 DUP1 PUSH1 0xA0 SHL SUB PUSH1 0x60 DUP4 ADD MLOAD AND PUSH1 0x0 MSTORE PUSH1 0x20 MSTORE PUSH2 0x1B49 PUSH1 0x1 PUSH1 0xFF PUSH1 0x40 PUSH1 0x0 KECCAK256 SLOAD AND ISZERO ISZERO EQ PUSH2 0x1D44 JUMP JUMPDEST PUSH2 0x1B59 PUSH2 0x120 DUP3 ADD MLOAD ISZERO ISZERO PUSH2 0x1D76 JUMP JUMPDEST PUSH2 0x140 DUP2 ADD MLOAD ISZERO DUP1 PUSH2 0x1B6E JUMPI PUSH2 0x837 SWAP1 PUSH2 0x1DCB JUMP JUMPDEST POP PUSH2 0x837 PUSH2 0x12C PUSH2 0x903 PUSH2 0x120 DUP5 ADD MLOAD TIMESTAMP PUSH2 0x1DA8 JUMP JUMPDEST POP PUSH1 0x20 DUP2 RETURNDATASIZE PUSH1 0x20 GT PUSH2 0x1BB0 JUMPI JUMPDEST DUP2 PUSH2 0x1B9E PUSH1 0x20 SWAP4 DUP4 PUSH2 0x1CBE JUMP JUMPDEST DUP2 ADD SUB SLT PUSH2 0x103 JUMPI PUSH2 0x1AFF SWAP1 MLOAD PUSH2 0x1AEF JUMP JUMPDEST RETURNDATASIZE SWAP2 POP PUSH2 0x1B91 JUMP JUMPDEST POP PUSH1 0x2 SLOAD PUSH1 0x4 CALLDATALOAD GT ISZERO PUSH2 0x19FA JUMP JUMPDEST PUSH1 0x40 SWAP1 PUSH1 0x3 NOT ADD SLT PUSH2 0x103 JUMPI PUSH1 0x4 CALLDATALOAD SWAP1 PUSH1 0x24 CALLDATALOAD DUP1 ISZERO ISZERO DUP2 SUB PUSH2 0x103 JUMPI SWAP1 JUMP JUMPDEST PUSH1 0x24 CALLDATALOAD SWAP1 PUSH1 0x1 PUSH1 0x1 PUSH1 0xA0 SHL SUB DUP3 AND DUP3 SUB PUSH2 0x103 JUMPI JUMP JUMPDEST PUSH1 0x4 CALLDATALOAD SWAP1 PUSH1 0x1 PUSH1 0x1 PUSH1 0xA0 SHL SUB DUP3 AND DUP3 SUB PUSH2 0x103 JUMPI JUMP JUMPDEST PUSH1 0x0 JUMPDEST DUP4 DUP2 LT PUSH2 0x1C24 JUMPI POP POP PUSH1 0x0 SWAP2 ADD MSTORE JUMP JUMPDEST DUP2 DUP2 ADD MLOAD DUP4 DUP3 ADD MSTORE PUSH1 0x20 ADD PUSH2 0x1C14 JUMP JUMPDEST SWAP1 PUSH1 0x20 SWAP2 PUSH2 0x1C4D DUP2 MLOAD DUP1 SWAP3 DUP2 DUP6 MSTORE DUP6 DUP1 DUP7 ADD SWAP2 ADD PUSH2 0x1C11 JUMP JUMPDEST PUSH1 0x1F ADD PUSH1 0x1F NOT AND ADD ADD SWAP1 JUMP JUMPDEST ISZERO PUSH2 0x1C60 JUMPI JUMP JUMPDEST PUSH1 0x64 PUSH1 0x40 MLOAD PUSH3 0x461BCD PUSH1 0xE5 SHL DUP2 MSTORE PUSH1 0x20 PUSH1 0x4 DUP3 ADD MSTORE PUSH1 0x4 PUSH1 0x24 DUP3 ADD MSTORE PUSH4 0x29291B99 PUSH1 0xE1 SHL PUSH1 0x44 DUP3 ADD MSTORE REVERT JUMPDEST PUSH2 0x1A0 DUP2 ADD SWAP1 DUP2 LT PUSH8 0xFFFFFFFFFFFFFFFF DUP3 GT OR PUSH2 0x1CA8 JUMPI PUSH1 0x40 MSTORE JUMP JUMPDEST PUSH4 0x4E487B71 PUSH1 0xE0 SHL PUSH1 0x0 MSTORE PUSH1 0x41 PUSH1 0x4 MSTORE PUSH1 0x24 PUSH1 0x0 REVERT JUMPDEST SWAP1 PUSH1 0x1F DUP1 NOT SWAP2 ADD AND DUP2 ADD SWAP1 DUP2 LT PUSH8 0xFFFFFFFFFFFFFFFF DUP3 GT OR PUSH2 0x1CA8 JUMPI PUSH1 0x40 MSTORE JUMP JUMPDEST ISZERO PUSH2 0x1CE7 JUMPI JUMP JUMPDEST PUSH1 0x64 PUSH1 0x40 MLOAD PUSH3 0x461BCD PUSH1 0xE5 SHL DUP2 MSTORE PUSH1 0x20 PUSH1 0x4 DUP3 ADD MSTORE PUSH1 0x4 PUSH1 0x24 DUP3 ADD MSTORE PUSH4 0x52523733 PUSH1 0xE0 SHL PUSH1 0x44 DUP3 ADD MSTORE REVERT JUMPDEST ISZERO PUSH2 0x1D19 JUMPI JUMP JUMPDEST PUSH1 0x64 PUSH1 0x40 MLOAD PUSH3 0x461BCD PUSH1 0xE5 SHL DUP2 MSTORE PUSH1 0x20 PUSH1 0x4 DUP3 ADD MSTORE PUSH1 0x4 PUSH1 0x24 DUP3 ADD MSTORE PUSH4 0x14948DCD PUSH1 0xE2 SHL PUSH1 0x44 DUP3 ADD MSTORE REVERT JUMPDEST ISZERO PUSH2 0x1D4B JUMPI JUMP JUMPDEST PUSH1 0x64 PUSH1 0x40 MLOAD PUSH3 0x461BCD PUSH1 0xE5 SHL DUP2 MSTORE PUSH1 0x20 PUSH1 0x4 DUP3 ADD MSTORE PUSH1 0x4 PUSH1 0x24 DUP3 ADD MSTORE PUSH4 0x5252373 PUSH1 0xE4 SHL PUSH1 0x44 DUP3 ADD MSTORE REVERT JUMPDEST ISZERO PUSH2 0x1D7D JUMPI JUMP JUMPDEST PUSH1 0x64 PUSH1 0x40 MLOAD PUSH3 0x461BCD PUSH1 0xE5 SHL DUP2 MSTORE PUSH1 0x20 PUSH1 0x4 DUP3 ADD MSTORE PUSH1 0x4 PUSH1 0x24 DUP3 ADD MSTORE PUSH4 0x52523835 PUSH1 0xE0 SHL PUSH1 0x44 DUP3 ADD MSTORE REVERT JUMPDEST SWAP2 SWAP1 DUP3 SUB SWAP2 DUP3 GT PUSH2 0x1DB5 JUMPI JUMP JUMPDEST PUSH4 0x4E487B71 PUSH1 0xE0 SHL PUSH1 0x0 MSTORE PUSH1 0x11 PUSH1 0x4 MSTORE PUSH1 0x24 PUSH1 0x0 REVERT JUMPDEST ISZERO PUSH2 0x1DD2 JUMPI JUMP JUMPDEST PUSH1 0x64 PUSH1 0x40 MLOAD PUSH3 0x461BCD PUSH1 0xE5 SHL DUP2 MSTORE PUSH1 0x20 PUSH1 0x4 DUP3 ADD MSTORE PUSH1 0x4 PUSH1 0x24 DUP3 ADD MSTORE PUSH4 0x29291B9B PUSH1 0xE1 SHL PUSH1 0x44 DUP3 ADD MSTORE REVERT JUMPDEST ISZERO PUSH2 0x1E04 JUMPI JUMP JUMPDEST PUSH1 0x64 PUSH1 0x40 MLOAD PUSH3 0x461BCD PUSH1 0xE5 SHL DUP2 MSTORE PUSH1 0x20 PUSH1 0x4 DUP3 ADD MSTORE PUSH1 0x4 PUSH1 0x24 DUP3 ADD MSTORE PUSH4 0x52523837 PUSH1 0xE0 SHL PUSH1 0x44 DUP3 ADD MSTORE REVERT JUMPDEST ISZERO PUSH2 0x1E36 JUMPI JUMP JUMPDEST PUSH1 0x40 MLOAD PUSH3 0x461BCD PUSH1 0xE5 SHL DUP2 MSTORE PUSH1 0x20 PUSH1 0x4 DUP3 ADD MSTORE PUSH1 0x3 PUSH1 0x24 DUP3 ADD MSTORE PUSH3 0xA4A47 PUSH1 0xEB SHL PUSH1 0x44 DUP3 ADD MSTORE PUSH1 0x64 SWAP1 REVERT JUMPDEST ISZERO PUSH2 0x1E68 JUMPI JUMP JUMPDEST PUSH1 0x64 PUSH1 0x40 MLOAD PUSH3 0x461BCD PUSH1 0xE5 SHL DUP2 MSTORE PUSH1 0x20 PUSH1 0x4 DUP3 ADD MSTORE PUSH1 0x4 PUSH1 0x24 DUP3 ADD MSTORE PUSH4 0x52523731 PUSH1 0xE0 SHL PUSH1 0x44 DUP3 ADD MSTORE REVERT JUMPDEST ISZERO PUSH2 0x1E9A JUMPI JUMP JUMPDEST PUSH1 0x64 PUSH1 0x40 MLOAD PUSH3 0x461BCD PUSH1 0xE5 SHL DUP2 MSTORE PUSH1 0x20 PUSH1 0x4 DUP3 ADD MSTORE PUSH1 0x4 PUSH1 0x24 DUP3 ADD MSTORE PUSH4 0x52523735 PUSH1 0xE0 SHL PUSH1 0x44 DUP3 ADD MSTORE REVERT JUMPDEST ISZERO PUSH2 0x1ECC JUMPI JUMP JUMPDEST PUSH1 0x64 PUSH1 0x40 MLOAD PUSH3 0x461BCD PUSH1 0xE5 SHL DUP2 MSTORE PUSH1 0x20 PUSH1 0x4 DUP3 ADD MSTORE PUSH1 0x4 PUSH1 0x24 DUP3 ADD MSTORE PUSH4 0x52523631 PUSH1 0xE0 SHL PUSH1 0x44 DUP3 ADD MSTORE REVERT JUMPDEST MLOAD SWAP1 DUP2 ISZERO ISZERO DUP3 SUB PUSH2 0x103 JUMPI JUMP JUMPDEST DUP2 PUSH1 0x1F DUP3 ADD SLT ISZERO PUSH2 0x103 JUMPI DUP1 MLOAD PUSH8 0xFFFFFFFFFFFFFFFF DUP2 GT PUSH2 0x1CA8 JUMPI PUSH1 0x40 MLOAD SWAP3 PUSH2 0x1F38 PUSH1 0x1F DUP4 ADD PUSH1 0x1F NOT AND PUSH1 0x20 ADD DUP6 PUSH2 0x1CBE JUMP JUMPDEST DUP2 DUP5 MSTORE PUSH1 0x20 DUP3 DUP5 ADD ADD GT PUSH2 0x103 JUMPI PUSH2 0x1F56 SWAP2 PUSH1 0x20 DUP1 DUP6 ADD SWAP2 ADD PUSH2 0x1C11 JUMP JUMPDEST SWAP1 JUMP INVALID LOG2 PUSH5 0x6970667358 0x22 SLT KECCAK256 PREVRANDAO COINBASE 0xCC CODECOPY 0xC4 PUSH28 0xC34F0852241C73C77D94A8A07FF1EBCAA86D69C85CA89A74FC806473 PUSH16 0x6C634300081600330000000000000000 "
		},
		"gasEstimates": {
			"creation": {
				"codeDepositCost": "1615800",
				"executionCost": "infinite",
				"totalCost": "infinite"
			},
			"external": {
				"accessControl(uint256,address)": "2765",
				"fetchVPInfo(uint256)": "infinite",
				"grantAccessPermission(uint256)": "79494",
				"lockMoney(address)": "infinite",
				"lockMoneyAndcommitRK(uint256,bytes32)": "infinite",
				"provideConsent(uint256,bool)": "infinite",
				"quit1ByVF(uint256)": "infinite",
				"quit2ByC(uint256)": "infinite",
				"quit3ByVF(uint256)": "infinite",
				"quit4ByC(uint256)": "infinite",
				"revokePermission(address)": "infinite",
				"verificationProtocolCurrentlyRuns(uint256,address)": "2526",
				"verificationResult(uint256,bool)": "infinite",
				"verifyVP(uint256)": "27948"
			}
		},
		"methodIdentifiers": {
			"accessControl(uint256,address)": "f13f309d",
			"fetchVPInfo(uint256)": "de5a03d6",
			"grantAccessPermission(uint256)": "c06cb2aa",
			"lockMoney(address)": "78135e87",
			"lockMoneyAndcommitRK(uint256,bytes32)": "4bdb4e40",
			"provideConsent(uint256,bool)": "ae3be00e",
			"quit1ByVF(uint256)": "5127b905",
			"quit2ByC(uint256)": "e0067adc",
			"quit3ByVF(uint256)": "d0c93609",
			"quit4ByC(uint256)": "0d022806",
			"revokePermission(address)": "a3bf5b9a",
			"verificationProtocolCurrentlyRuns(uint256,address)": "2d848e99",
			"verificationResult(uint256,bool)": "177e8b00",
			"verifyVP(uint256)": "348b6ca1"
		}
	},
	"abi": [
		{
			"inputs": [
				{
					"internalType": "address",
					"name": "_addr_SC_C_Govt",
					"type": "address"
				}
			],
			"stateMutability": "nonpayable",
			"type": "constructor"
		},
		{
			"inputs": [
				{
					"internalType": "uint256",
					"name": "",
					"type": "uint256"
				},
				{
					"internalType": "address",
					"name": "",
					"type": "address"
				}
			],
			"name": "accessControl",
			"outputs": [
				{
					"internalType": "bool",
					"name": "",
					"type": "bool"
				}
			],
			"stateMutability": "view",
			"type": "function"
		},
		{
			"inputs": [
				{
					"internalType": "uint256",
					"name": "_verificationTaskID",
					"type": "uint256"
				}
			],
			"name": "fetchVPInfo",
			"outputs": [
				{
					"internalType": "string",
					"name": "",
					"type": "string"
				},
				{
					"internalType": "bytes32",
					"name": "",
					"type": "bytes32"
				},
				{
					"internalType": "string",
					"name": "",
					"type": "string"
				}
			],
			"stateMutability": "view",
			"type": "function"
		},
		{
			"inputs": [
				{
					"internalType": "uint256",
					"name": "_verificationTaskID",
					"type": "uint256"
				}
			],
			"name": "grantAccessPermission",
			"outputs": [],
			"stateMutability": "nonpayable",
			"type": "function"
		},
		{
			"inputs": [
				{
					"internalType": "address",
					"name": "_cAddr",
					"type": "address"
				}
			],
			"name": "lockMoney",
			"outputs": [
				{
					"internalType": "uint256",
					"name": "",
					"type": "uint256"
				}
			],
			"stateMutability": "payable",
			"type": "function"
		},
		{
			"inputs": [
				{
					"internalType": "uint256",
					"name": "_verificationTaskID",
					"type": "uint256"
				},
				{
					"internalType": "bytes32",
					"name": "_commitRK",
					"type": "bytes32"
				}
			],
			"name": "lockMoneyAndcommitRK",
			"outputs": [],
			"stateMutability": "payable",
			"type": "function"
		},
		{
			"inputs": [
				{
					"internalType": "uint256",
					"name": "_verificationTaskID",
					"type": "uint256"
				},
				{
					"internalType": "bool",
					"name": "_decision",
					"type": "bool"
				}
			],
			"name": "provideConsent",
			"outputs": [],
			"stateMutability": "nonpayable",
			"type": "function"
		},
		{
			"inputs": [
				{
					"internalType": "uint256",
					"name": "_verificationTaskID",
					"type": "uint256"
				}
			],
			"name": "quit1ByVF",
			"outputs": [],
			"stateMutability": "nonpayable",
			"type": "function"
		},
		{
			"inputs": [
				{
					"internalType": "uint256",
					"name": "_verificationTaskID",
					"type": "uint256"
				}
			],
			"name": "quit2ByC",
			"outputs": [],
			"stateMutability": "nonpayable",
			"type": "function"
		},
		{
			"inputs": [
				{
					"internalType": "uint256",
					"name": "_verificationTaskID",
					"type": "uint256"
				}
			],
			"name": "quit3ByVF",
			"outputs": [],
			"stateMutability": "nonpayable",
			"type": "function"
		},
		{
			"inputs": [
				{
					"internalType": "uint256",
					"name": "_verificationTaskID",
					"type": "uint256"
				}
			],
			"name": "quit4ByC",
			"outputs": [],
			"stateMutability": "nonpayable",
			"type": "function"
		},
		{
			"inputs": [
				{
					"internalType": "address",
					"name": "_vfAddr",
					"type": "address"
				}
			],
			"name": "revokePermission",
			"outputs": [],
			"stateMutability": "nonpayable",
			"type": "function"
		},
		{
			"inputs": [
				{
					"internalType": "uint256",
					"name": "",
					"type": "uint256"
				},
				{
					"internalType": "address",
					"name": "",
					"type": "address"
				}
			],
			"name": "verificationProtocolCurrentlyRuns",
			"outputs": [
				{
					"internalType": "bool",
					"name": "",
					"type": "bool"
				}
			],
			"stateMutability": "view",
			"type": "function"
		},
		{
			"inputs": [
				{
					"internalType": "uint256",
					"name": "_verificationTaskID",
					"type": "uint256"
				},
				{
					"internalType": "bool",
					"name": "_result",
					"type": "bool"
				}
			],
			"name": "verificationResult",
			"outputs": [],
			"stateMutability": "nonpayable",
			"type": "function"
		},
		{
			"inputs": [
				{
					"internalType": "uint256",
					"name": "",
					"type": "uint256"
				}
			],
			"name": "verifyVP",
			"outputs": [
				{
					"internalType": "uint256",
					"name": "verificationTaskID",
					"type": "uint256"
				},
				{
					"internalType": "address",
					"name": "cAddr",
					"type": "address"
				},
				{
					"internalType": "uint256",
					"name": "tokenID",
					"type": "uint256"
				},
				{
					"internalType": "address",
					"name": "vfAddr",
					"type": "address"
				},
				{
					"internalType": "uint256",
					"name": "timestamp_lock_money_by_VF",
					"type": "uint256"
				},
				{
					"internalType": "bytes32",
					"name": "commit_RK",
					"type": "bytes32"
				},
				{
					"internalType": "uint256",
					"name": "timestamp_lock_money_and_commit_RK_by_C",
					"type": "uint256"
				},
				{
					"internalType": "bool",
					"name": "consent",
					"type": "bool"
				},
				{
					"internalType": "uint256",
					"name": "timestamp_provide_consent",
					"type": "uint256"
				},
				{
					"internalType": "uint256",
					"name": "timestamp_grant_permission",
					"type": "uint256"
				},
				{
					"internalType": "uint256",
					"name": "timestamp_verification_result",
					"type": "uint256"
				},
				{
					"internalType": "uint256",
					"name": "timestamp_unlock_money",
					"type": "uint256"
				},
				{
					"internalType": "bool",
					"name": "isValidVP",
					"type": "bool"
				}
			],
			"stateMutability": "view",
			"type": "function"
		}
	]
}