{
	"data": {
		"bytecode": {
			"linkReferences": {},
			"object": "608034620000ce57601f620059da38819003918201601f19168301916001600160401b03831184841017620000d357808492606094604052833981010312620000ce576200004d81620000e9565b6200006960406200006160208501620000e9565b9301620000e9565b6000600a5560018060a01b03808093169360018060a01b03199480866000541617600055856001541617600155168084600254161760025583600354161760035516908181600454161760045560055416176005556040516158db9081620000ff8239f35b600080fd5b634e487b7160e01b600052604160045260246000fd5b51906001600160a01b0382168203620000ce5756fe61020080604052600436101561001457600080fd5b600090813560e01c90816302d96d3714614ef1575080631e3fbaf314614ea357806322398d21146147e857806325ab292e146147cb5780632d710bfe146141fe57806337d538ba14613e1d578063643f98f61461372557806372def90a146133d85780637514728614612dbd5780638adc430c14612861578063ba7b8138146121d7578063bc488b1614611e10578063c08d1fe514611df3578063c0f0baf614611a84578063c252819d14611a45578063dae411c614611a27578063e5edf70c1461141c578063f489579e14610e4b578063f8bf23df14610af6578063fb7be2471461079d5763fe33e0d11461010957600080fd5b3461079a57604036600319011261079a57610122615635565b6005546001600160a01b031690813b156106a357604051630fcb260b60e41b815233600482015283908181602481875afa801561069857610786575b505060018060a01b038116835260066020526040832054908184526007602052610193600160ff6040872054161515146156b1565b8184526009602052836040812093604051946101ae86615674565b8054865260018101546020870152600281015460408701526003810154606087015260048101546080870152600581015460a0870152600681015460c0870152600781015460e087015260ff60088201541615156101008701526009810154610120870152600a810154610140870152600b81015461016087015260ff600c820154161515610180870152600d8101546101a087015260ff600e8201541615156101c0870152600f8101546101e087015260405180602060108401549182815201906010840186526020862090865b81811061076d575050509061029781601894930382615690565b61020088015260118101546102208801526012810154610240880152601381015460ff161515610260880152601481015461028088015260158101546102a088015260168101546102c088015260178101546102e0880152015461030086015260015460405163521105af60e01b81523360048201526001600160a01b039091169390602081602481885afa90811561072a578491610735575b50608060249560405196878092636287fa1360e11b82528560048301525afa90811561072a57849585926106ec575b509061037461037b9260208a015114615841565b15156157dd565b6003546040516318fe01c760e21b81526001600160a01b0392831660048201529160209183916024918391165afa9081156106e15783916106a7575b506103c486518214615715565b813b156106a3578290602460405180948193639490d07560e01b835260048301525afa801561069857610680575b50506080830151156106555760e083015161062a5761042261012c61041b608086015142615747565b111561576a565b60a083015260243560c08301524260e0830152825260096020526040822090805182556020810151600183015560408101516002830155606081015160038301556080810151600483015560a0810151600583015560c0810151600683015560e081015160078301556104ab6101008201511515600884019060ff801983541691151516179055565b6101208101516009830155610140810151600a830155610160810151600b8301556104ec6101808201511515600c84019060ff801983541691151516179055565b6101a0810151600d8301556105176101c08201511515600e84019060ff801983541691151516179055565b6101e0810151600f83015560108201610200820151908151916001600160401b03831161061657600160401b83116106165781548383558084106105f0575b5060200190855260208520855b8381106105dc578686601861030088610220810151601185015561024081015160128501556105a86102608201511515601386019060ff801983541691151516179055565b61028081015160148501556102a081015160158501556102c081015160168501556102e08101516017850155015191015580f35b600190602084519401938184015501610563565b828752836020882091820191015b81811061060b5750610556565b8781556001016105fe565b634e487b7160e01b86526041600452602486fd5b606460405162461bcd60e51b815260206004820152600460248201526329291a1b60e11b6044820152fd5b606460405162461bcd60e51b81526020600482015260046024820152635252343560e01b6044820152fd5b6106899061564b565b6106945783386103f2565b8380fd5b6040513d84823e3d90fd5b8280fd5b9250506020823d6020116106d9575b816106c360209383615690565b810103126106d457859151386103b7565b600080fd5b3d91506106b6565b6040513d85823e3d90fd5b610374965061037b92506107179060803d608011610723575b61070f8183615690565b8101906157bb565b50979150969250610360565b503d610705565b6040513d86823e3d90fd5b9350506020833d602011610765575b8161075160209383615690565b810103126106d45791518692906080610331565b3d9150610744565b825484528b97506020909301926001928301920161027d565b61078f9061564b565b6106a357823861015e565b80fd5b503461079a57604036600319011261079a57808080806103e86107be615635565b6001600160a01b031682f115610aea576024358152600960205260408120604051906107e982615674565b8054825260018101546020830152600281015460408301526003810154606083015260048101546080830152600581015460a0830152600681015460c0830152600781015460e083015260ff60088201541615156101008301526009810154610120830152600a810154610140830152600b81015461016083015260ff600c820154161515610180830152600d8101546101a083015260ff600e8201541615156101c0830152600f8101546101e083015260405180602060108401549182815201906010840186526020862090865b818110610ad457505050906108d281601494930382615690565b6102008401526011810154610220840152601281015461024084015260ff601382015416151561026084015201546102808201526103e86102e082015242610300820152816102a0820152426102c0820152602435825260096020526040822090805182556020810151600183015560408101516002830155606081015160038301556080810151600483015560a0810151600583015560c0810151600683015560e0810151600783015561099d6101008201511515600884019060ff801983541691151516179055565b6101208101516009830155610140810151600a830155610160810151600b8301556109de6101808201511515600c84019060ff801983541691151516179055565b6101a0810151600d830155610a096101c08201511515600e84019060ff801983541691151516179055565b6101e0810151600f83015560108201610200820151908151916001600160401b03831161061657600160401b8311610616578154838355808410610aae575b5060200190855260208520855b838110610a9a578686601861030088610220810151601185015561024081015160128501556105a86102608201511515601386019060ff801983541691151516179055565b600190602084519401938184015501610a55565b828752836020882091820191015b818110610ac95750610a48565b878155600101610abc565b82548452602090930192600192830192016108b8565b604051903d90823e3d90fd5b503461079a57604036600319011261079a57808080806101f4610b17615635565b6001600160a01b031682f115610aea57602435815260096020526040812060405190610b4282615674565b8054825260018101546020830152600281015460408301526003810154606083015260048101546080830152600581015460a0830152600681015460c0830152600781015460e083015260ff60088201541615156101008301526009810154610120830152600a810154610140830152600b81015461016083015260ff600c820154161515610180830152600d8101546101a083015260ff600e8201541615156101c0830152600f8101546101e083015260405180602060108401549182815201906010840186526020862090865b818110610e355750505090610c2b81601894930382615690565b6102008401526011810154610220840152601281015461024084015260ff6013820154161515610260840152601481015461028084015260178101546102e084015201546103008201526101f46102a0820152426102c0820152602435825260096020526040822090805182556020810151600183015560408101516002830155606081015160038301556080810151600483015560a0810151600583015560c0810151600683015560e08101516007830155610cfe6101008201511515600884019060ff801983541691151516179055565b6101208101516009830155610140810151600a830155610160810151600b830155610d3f6101808201511515600c84019060ff801983541691151516179055565b6101a0810151600d830155610d6a6101c08201511515600e84019060ff801983541691151516179055565b6101e0810151600f83015560108201610200820151908151916001600160401b03831161061657600160401b8311610616578154838355808410610e0f575b5060200190855260208520855b838110610dfb578686601861030088610220810151601185015561024081015160128501556105a86102608201511515601386019060ff801983541691151516179055565b600190602084519401938184015501610db6565b828752836020882091820191015b818110610e2a5750610da9565b878155600101610e1d565b8254845260209093019260019283019201610c11565b503461079a57602036600319011261079a576005546001600160a01b0391908216803b156113a85760405163423164bf60e11b81523360048201528281602481855afa80156106e157611408575b50602060249360035416604051948580926318fe01c760e21b82523360048301525afa9283156106985782936113d4575b50803b156113a857604051639490d07560e01b8152600481018490528281602481855afa80156106e1579083916113c0575b5050803b156113a8576040516318bc1f8560e01b815260048035908201528281602481855afa80156106e1579083916113ac575b5050803b156113a857816024916040519283809263856cb9e760e01b825260043560048301525afa801561069857908291611394575b5050338152600660205260408120548152600760205260ff60408220541661136957600a546001810181116113555760018101600a556001810182526009602052604082209260405193610fb985615674565b8054855260018101546020860152600281015460408601526003810154606086015260048101546080860152600581015460a0860152600681015460c0860152600781015460e086015260ff60088201541615156101008601526009810154610120860152600a810154610140860152600b81015461016086015260ff600c820154161515610180860152600d8101546101a086015260ff600e8201541615156101c0860152600f8101546101e086015260405180602060108401549182815201906010840187526020872090875b81811061133f57505050906110a281601894930382615690565b6102008701526011810154610220870152601281015461024087015260ff6013820154161515610260870152601481015461028087015260158101546102a087015260168101546102c087015260178101546102e0870152015461030085015283526004356020840152426040840152600181018252600960205260408220835181556020840151600182015560408401516002820155606084015160038201556080840151600482015560a0840151600582015560c0840151600682015560e0840151600782015561118b6101008501511515600883019060ff801983541691151516179055565b6101208401516009820155610140840151600a820155610160840151600b8201556111cc6101808501511515600c83019060ff801983541691151516179055565b6101a0840151600d8201556111f76101c08501511515600e83019060ff801983541691151516179055565b6101e0840151600f820155610200840151938451946001600160401b03861161132b57600160401b861161132b576010830154866010850155808710611301575b50602001946010830185526020852095855b8281106112ed578660018787601861030089610220810151601185015561024081015160128501556112926102608201511515601386019060ff801983541691151516179055565b61028081015160148501556102a081015160158501556102c081015160168501556102e08101516017850155015191015533835260066020528181016040842055018152600760205260408120600160ff1982541617905580f35b60019060208351930192818a01550161124a565b60108401865260208620908782015b8183018110611320575050611238565b878155600101611310565b634e487b7160e01b85526041600452602485fd5b8254845260209093019260019283019201611088565b634e487b7160e01b82526011600452602482fd5b606460405162461bcd60e51b81526020600482015260046024820152635252333360e01b6044820152fd5b61139d9061564b565b61079a578038610f66565b5080fd5b6113b59061564b565b6113a8578138610f30565b6113c99061564b565b6113a8578138610efc565b9092506020813d602011611400575b816113f060209383615690565b810103126106d457519138610eca565b3d91506113e3565b611412839161564b565b6113a85738610e99565b50602036600319011261079a57611431615635565b6005546001600160a01b0316803b156106a357604051630fcb260b60e41b815233600482015283908181602481865afa801561069857611a13575b505060018060a01b0382168352600660205260408320549081845260076020526114a1600160ff6040872054161515146156b1565b81845260096020526040842092604051936114bb85615674565b8054855260018101546020860152600281015460408601526003810154606086015260048101546080860152600581015460a0860152600681015460c0860152600781015460e086015260ff60088201541615156101008601526009810154610120860152600a810154610140860152600b81015461016086015260ff600c820154161515610180860152600d8101546101a086015260ff600e8201541615156101c0860152600f8101546101e086015260405180602060108401549182815201906010840189526020892090895b8181106119fd5750505091816115a860189360249796950382615690565b61020088015260118101546102208801526012810154610240880152601381015460ff161515610260880152601481015461028088015260158101546102a088015260168101546102c088015260178101546102e0880152015461030086015260015460405163521105af60e01b81523360048201529360209185919082906001600160a01b03165afa9283156119f25786936119be575b5060208501518303611993578592823b15610694576040519063856cb9e760e01b825260048201528381602481865afa90811561072a57849161197f575b50506003546040516318fe01c760e21b81526001600160a01b0392831660048201529160209183916024918391165afa9081156106e157839161194a575b506116c985518214615715565b813b156106a3578290602460405180948193639490d07560e01b835260048301525afa801561069857611936575b50506117066101f43414615873565b60408201511561190b5760608201516118e05761172d61012c61041b604085015142615747565b426060830152825260096020526040822090805182556020810151600183015560408101516002830155606081015160038301556080810151600483015560a0810151600583015560c0810151600683015560e081015160078301556117a96101008201511515600884019060ff801983541691151516179055565b6101208101516009830155610140810151600a830155610160810151600b8301556117ea6101808201511515600c84019060ff801983541691151516179055565b6101a0810151600d8301556118156101c08201511515600e84019060ff801983541691151516179055565b6101e0810151600f83015560108201610200820151908151916001600160401b03831161061657600160401b83116106165781548383558084106118ba575b5060200190855260208520855b8381106118a6578686601861030088610220810151601185015561024081015160128501556105a86102608201511515601386019060ff801983541691151516179055565b600190602084519401938184015501611861565b828752836020882091820191015b8181106118d55750611854565b8781556001016118c8565b606460405162461bcd60e51b81526020600482015260046024820152630525234360e41b6044820152fd5b606460405162461bcd60e51b81526020600482015260046024820152635252333960e01b6044820152fd5b61193f9061564b565b6106a35782386116f7565b9250506020823d602011611977575b8161196660209383615690565b810103126106d457849151386116bc565b3d9150611959565b6119889061564b565b6106a357823861167e565b606460405162461bcd60e51b81526020600482015260046024820152635252333560e01b6044820152fd5b9092506020813d6020116119ea575b816119da60209383615690565b810103126106d457519138611640565b3d91506119cd565b6040513d88823e3d90fd5b825484526020909301926001928301920161158a565b611a1c9061564b565b6106a357823861146c565b503461079a578060031936011261079a576020600a54604051908152f35b503461079a57602036600319011261079a57600435815260076020526040812060ff199081815416905560086020526001604083209182541617905580f35b503461079a57602036600319011261079a57600435815260096020526040812060405190611ab182615674565b8054825260018101546020830152600281015460408301526003810154606083015260048101546080830152600581015460a0830152600681015460c0830152600781015460e083015260ff60088201541615156101008301526009810154610120830152600a810154610140830152600b81015461016083015260ff600c820154161515610180830152600d8101546101a083015260ff600e8201541615156101c0830152600f8101546101e08301526040518060805260206010830154918281520190816101c0526010830185526020852090855b818110611ddd575050608051611ba2928190039150615690565b608051610200830152601181015460c05260c051610220830152601281015460e05260e051610240830152601381015460ff166101005261010051151561026083015260148101546101205261012051610280830152601581015461014052610140516102a0830152601681015461016052610160516102c0830152601781015461018052610180516102e0830152601801546101a0526101a05161030082015280519060208101516101e05260408101516060820151608083015160a084015160c085015160e086015161010087015115159061012088015192610140890151946101608a0151966101808b01511515986101a08c01519a6101c08d015115159c6101e001519d60405160a05260a051526101e05160a0516020015260a0516040015260a0516060015260a0516080015260a05160a0015260a05160c0015260a05160e0015260a051610100015260a051610120015260a051610140015260a051610160015260a051610180015260a0516101a0015260a0516101c0015260a0516101e0015260a05161020001610320905260a0515060805151908160a051610320015260a05161034001916101c051915b818110611dc7578360c05161022060a051015260e05161024060a051015261010051151561026060a05101526101205161028060a0510152610140516102a060a0510152610160516102c060a0510152610180516102e060a05101526101a05161030060a051015260a051900360a051f35b8251845260209384019390920191600101611d55565b8254845260209093019260019283019201611b88565b503461079a578060031936011261079a57602060405161012c8152f35b503461079a57604036600319011261079a576004356001600160401b0381116113a857366023820112156113a8578060040135906001600160401b0382116121c3578160051b60405192611e676020830185615690565b835260246020840191830101913683116121bf57602401905b8282106121af5750505060243582526009602052604082209060405191611ea683615674565b8054835260018101546020840152600281015460408401526003810154606084015260048101546080840152600581015460a0840152600681015460c0840152600781015460e084015260ff60088201541615156101008401526009810154610120840152600a810154610140840152600b81015461016084015260ff600c820154161515610180840152600d8101546101a084015260ff600e8201541615156101c0840152600f8101546101e08401526010810160405190816020825491828152019187526020872090875b818110612199575050508160189392611f8d920390615690565b601281015461024085015260ff6013820154161515610260850152601481015461028085015260158101546102a085015260168101546102c085015260178101546102e0850152015461030083015261020082015242610220820152602435825260096020526040822090805182556020810151600183015560408101516002830155606081015160038301556080810151600483015560a0810151600583015560c0810151600683015560e081015160078301556120626101008201511515600884019060ff801983541691151516179055565b6101208101516009830155610140810151600a830155610160810151600b8301556120a36101808201511515600c84019060ff801983541691151516179055565b6101a0810151600d8301556120ce6101c08201511515600e84019060ff801983541691151516179055565b6101e0810151600f83015560108201610200820151908151916001600160401b03831161061657600160401b8311610616578154838355808410612173575b5060200190855260208520855b83811061215f578686601861030088610220810151601185015561024081015160128501556105a86102608201511515601386019060ff801983541691151516179055565b60019060208451940193818401550161211a565b828752836020882091820191015b81811061218e575061210d565b878155600101612181565b8254845260209093019260019283019201611f73565b8135815260209182019101611e80565b8480fd5b634e487b7160e01b83526041600452602483fd5b503461079a576121e636615616565b6005546001600160a01b03169190823b156106945760405163423164bf60e11b815233600482015284908181602481885afa80156106985761284d575b505033845260066020526040842054918285526007602052612250600160ff6040882054161515146156b1565b82855260096020528460408120946040519561226b87615674565b8054875260018101546020880152600281015460408801526003810154606088015260048101546080880152600581015460a0880152600681015460c0880152600781015460e088015260ff60088201541615156101008801526009810154610120880152600a810154610140880152600b81015461016088015260ff600c820154161515610180880152600d8101546101a088015260ff600e8201541615156101c0880152600f8101546101e088015260405180602060108401549182815201906010840186526020862090865b818110612834575050509061235481601894930382615690565b61020089015260118101546102208901526012810154610240890152601381015460ff161515610260890152601481015461028089015260158101546102a089015260168101546102c089015260178101546102e089015201546103008701526003546040516318fe01c760e21b815233600482015290602090829060249082906001600160a01b03165afa9081156106e15783916127ff575b506123fb87518214615715565b813b156106a3578290602460405180948193639490d07560e01b835260048301525afa8015610698576127eb575b505061243a602085015182146156e3565b600154604051636287fa1360e11b81526004810183905290608090829060249082906001600160a01b03165afa9081156119f25761249291879188916127c2575b506124879015156157dd565b60a08601511461580f565b60e0840151156127975761012084015161276c5784916124bc61012c61041b60e088015142615747565b1580156101008601524261012086015261267e575b505260096020526040822090805182556020810151600183015560408101516002830155606081015160038301556080810151600483015560a0810151600583015560c0810151600683015560e081015160078301556125476101008201511515600884019060ff801983541691151516179055565b6101208101516009830155610140810151600a830155610160810151600b8301556125886101808201511515600c84019060ff801983541691151516179055565b6101a0810151600d8301556125b36101c08201511515600e84019060ff801983541691151516179055565b6101e0810151600f83015560108201610200820151908151916001600160401b03831161061657600160401b8311610616578154838355808410612658575b5060200190855260208520855b838110612644578686601861030088610220810151601185015561024081015160128501556105a86102608201511515601386019060ff801983541691151516179055565b6001906020845194019381840155016125ff565b828752836020882091820191015b81811061267357506125f2565b878155600101612666565b82825260076020526040822060ff1990818154169055600860205260016040842091825416179055818080806101f43382f11561275f57600154604051635fcb671960e11b81526004810192909252602090829060249082906001600160a01b03165afa90811561069857826101f4819382938391612730575b506001600160a01b031682f115610698576101f46102e08301526101f46102a083015242610300830152426102c083015282386124d1565b612752915060203d602011612758575b61274a8183615690565b81019061579c565b386126f8565b503d612740565b50604051903d90823e3d90fd5b606460405162461bcd60e51b81526020600482015260046024820152635252343960e01b6044820152fd5b606460405162461bcd60e51b81526020600482015260046024820152630a4a468760e31b6044820152fd5b61248792506127e0915060803d6080116107235761070f8183615690565b50929150919061247b565b6127f49061564b565b6121bf578438612429565b9250506020823d60201161282c575b8161281b60209383615690565b810103126106d457869151386123ee565b3d915061280e565b825484528c97506020909301926001928301920161233a565b6128569061564b565b610694578338612223565b50602036600319011261079a576005546001600160a01b0316803b156113a85760405163423164bf60e11b815233600482015282908181602481865afa801561069857612da9575b50503382526006602052604082205480835260076020526128d5600160ff6040862054161515146156b1565b8083526009602052826040812092604051936128f085615674565b8054855260018101546020860152600281015460408601526003810154606086015260048101546080860152600581015460a0860152600681015460c0860152600781015460e086015260ff60088201541615156101008601526009810154610120860152600a810154610140860152600b81015461016086015260ff600c820154161515610180860152600d8101546101a086015260ff600e8201541615156101c0860152600f8101546101e086015260405180602060108401549182815201906010840186526020862090865b818110612d9057505050906129d981601894930382615690565b61020087015260118101546102208701526012810154610240870152601381015460ff161515610260870152601481015461028087015260158101546102a087015260168101546102c087015260178101546102e087015201546103008501526003546040516318fe01c760e21b815233600482015290602090829060249082906001600160a01b03165afa9081156106e1578391612d5b575b50612a8085518214615715565b813b156106a35760405190639490d07560e01b825260048201528281602481855afa9081156106e1578391612d47575b5050612ac36020850151600435146156e3565b803b156113a857816024916040519283809263856cb9e760e01b825260043560048301525afa801561069857612d33575b5050612b036101f43414615873565b606082015115612d08576080820151612cdd57612b2a61012c61041b606085015142615747565b426080830152825260096020526040822090805182556020810151600183015560408101516002830155606081015160038301556080810151600483015560a0810151600583015560c0810151600683015560e08101516007830155612ba66101008201511515600884019060ff801983541691151516179055565b6101208101516009830155610140810151600a830155610160810151600b830155612be76101808201511515600c84019060ff801983541691151516179055565b6101a0810151600d830155612c126101c08201511515600e84019060ff801983541691151516179055565b6101e0810151600f83015560108201610200820151908151916001600160401b03831161061657600160401b8311610616578154838355808410612cb7575b5060200190855260208520855b838110612ca3578686601861030088610220810151601185015561024081015160128501556105a86102608201511515601386019060ff801983541691151516179055565b600190602084519401938184015501612c5e565b828752836020882091820191015b818110612cd25750612c51565b878155600101612cc5565b606460405162461bcd60e51b815260206004820152600460248201526329291a1960e11b6044820152fd5b606460405162461bcd60e51b81526020600482015260046024820152635252343160e01b6044820152fd5b612d3c9061564b565b6106a3578238612af4565b612d509061564b565b6113a8578138612ab0565b9250506020823d602011612d88575b81612d7760209383615690565b810103126106d45784915138612a73565b3d9150612d6a565b825484528a9750602090930192600192830192016129bf565b612db29061564b565b6113a85781386128a9565b503461079a57612dcc36615616565b6005546001600160a01b031690813b156106945760405163423164bf60e11b815233600482015284908181602481875afa8015610698576133c4575b50503384526006602052836040812054928382526007602052612e36600160ff6040852054161515146156b1565b8382526009602052604082209460405195612e5087615674565b8054875260018101546020880152600281015460408801526003810154606088015260048101546080880152600581015460a0880152600681015460c0880152600781015460e088015260ff60088201541615156101008801526009810154610120880152600a810154610140880152600b81015461016088015260ff600c820154161515610180880152600d8101546101a088015260ff600e8201541615156101c0880152600f8101546101e088015260405180602060108401549182815201906010840187526020872090875b8181106133ab5750505090612f3981601894930382615690565b6102008901526011810154610220890152601281015461024089015260ff6013820154161515610260890152601481015461028089015260158101546102a089015260168101546102c089015260178101546102e08901520154610300870152612fa8602087015182146156e3565b6003546040516318fe01c760e21b815233600482015290602090829060249082906001600160a01b03165afa90811561072a578491613376575b50612fef87518214615715565b823b156106945760405190639490d07560e01b825260048201528381602481865afa90811561072a578491613362575b5050600154604051636287fa1360e11b81526004810192909252608090829060249082906001600160a01b03165afa9081156106e1576130799184918591613339575b5061306e9015156157dd565b60a08701511461580f565b610140850151813b156106a35782906024604051809481936306f2f72160e01b835260048301525afa801561069857613325575b50506101a0830151156132fa5760016101808401511515036132cf576101e08301516132a4576130e861012c61041b6101a086015142615747565b15156101c0830152426101e0830152825260096020526040822090805182556020810151600183015560408101516002830155606081015160038301556080810151600483015560a0810151600583015560c0810151600683015560e0810151600783015561316d6101008201511515600884019060ff801983541691151516179055565b6101208101516009830155610140810151600a830155610160810151600b8301556131ae6101808201511515600c84019060ff801983541691151516179055565b6101a0810151600d8301556131d96101c08201511515600e84019060ff801983541691151516179055565b6101e0810151600f83015560108201610200820151908151916001600160401b03831161061657600160401b831161061657815483835580841061327e575b5060200190855260208520855b83811061326a578686601861030088610220810151601185015561024081015160128501556105a86102608201511515601386019060ff801983541691151516179055565b600190602084519401938184015501613225565b828752836020882091820191015b8181106132995750613218565b87815560010161328c565b606460405162461bcd60e51b81526020600482015260046024820152635252353760e01b6044820152fd5b606460405162461bcd60e51b815260206004820152600460248201526329291a9b60e11b6044820152fd5b606460405162461bcd60e51b81526020600482015260046024820152635252353560e01b6044820152fd5b61332e9061564b565b6106945783386130ad565b61306e9250613357915060803d6080116107235761070f8183615690565b509291509190613062565b61336b9061564b565b6106a357823861301f565b9350506020833d6020116133a3575b8161339260209383615690565b810103126106d45786925138612fe2565b3d9150613385565b825484528c985060209093019260019283019201612f1f565b6133cd9061564b565b610694578338612e08565b503461079a57604036600319011261079a57808080806103e86133f9615635565b6001600160a01b031682f115610aea5760243581526009602052604081206040519061342482615674565b8054825260018101546020830152600281015460408301526003810154606083015260048101546080830152600581015460a0830152600681015460c0830152600781015460e083015260ff60088201541615156101008301526009810154610120830152600a810154610140830152600b81015461016083015260ff600c820154161515610180830152600d8101546101a083015260ff600e8201541615156101c0830152600f8101546101e083015260405180602060108401549182815201906010840186526020862090865b81811061370f575050509061350d81601494930382615690565b6102008401526011810154610220840152601281015461024084015260ff601382015416151561026084015201546102808201526103e86102a0820152426102c0820152816102e082015242610300820152602435825260096020526040822090805182556020810151600183015560408101516002830155606081015160038301556080810151600483015560a0810151600583015560c0810151600683015560e081015160078301556135d86101008201511515600884019060ff801983541691151516179055565b6101208101516009830155610140810151600a830155610160810151600b8301556136196101808201511515600c84019060ff801983541691151516179055565b6101a0810151600d8301556136446101c08201511515600e84019060ff801983541691151516179055565b6101e0810151600f83015560108201610200820151908151916001600160401b03831161061657600160401b83116106165781548383558084106136e9575b5060200190855260208520855b8381106136d5578686601861030088610220810151601185015561024081015160128501556105a86102608201511515601386019060ff801983541691151516179055565b600190602084519401938184015501613690565b828752836020882091820191015b8181106137045750613683565b8781556001016136f7565b82548452602090930192600192830192016134f3565b503461079a57604036600319011261079a5761373f615635565b6005546001600160a01b0316803b156106a357604051630fcb260b60e41b815233600482015283908181602481865afa801561069857613e09575b505060018060a01b038216835260066020528260408120549182825260076020526137b0600160ff6040852054161515146156b1565b82825260096020526040822093604051946137ca86615674565b8054865260018101546020870152600281015460408701526003810154606087015260048101546080870152600581015460a0870152600681015460c0870152600781015460e087015260ff60088201541615156101008701526009810154610120870152600a810154610140870152600b81015461016087015260ff600c820154161515610180870152600d8101546101a087015260ff600e8201541615156101c0870152600f8101546101e087015260405180602060108401549182815201906010840187526020872090875b818110613df057505050906138b381601894930382615690565b61020088015260118101546102208801526012810154610240880152601381015460ff161515610260880152601481015461028088015260158101546102a088015260168101546102c088015260178101546102e0880152015461030086015260015460405163521105af60e01b81523360048201526001600160a01b0390911690602081602481855afa908115613de5578591613dae575b5060809061395f60208901518214615841565b602460405180948193636287fa1360e11b835260048301525afa90811561072a576139989185918691613339575061306e9015156157dd565b813b156106a357604051630ca44d5760e41b815260243560048201528381602481865afa90811561072a578491613d9a575b50506003546040516318fe01c760e21b81526001600160a01b0392831660048201529160209183916024918391165afa9081156106e1578391613d65575b50613a1585518214615715565b813b156106a3578290602460405180948193639490d07560e01b835260048301525afa801561069857613d51575b505061012082015115613d26576001610100830151151503613cfb57610160820151613cd057613a7e61012c61041b61012085015142615747565b60243561014083015242610160830152825260096020526040822090805182556020810151600183015560408101516002830155606081015160038301556080810151600483015560a0810151600583015560c0810151600683015560e08101516007830155613b046101008201511515600884019060ff801983541691151516179055565b6101208101516009830155610140810151600a830155610160810151600b830155613b456101808201511515600c84019060ff801983541691151516179055565b6101a0810151600d830155613b706101c08201511515600e84019060ff801983541691151516179055565b6101e0810151600f8301556102008101518051906001600160401b03821161132b57600160401b821161132b576010840154826010860155808310613ca6575b5060200160108401855260208520855b838110613c9257868660186103008861022081015160118501556102408101516012850155613c056102608201511515601386019060ff801983541691151516179055565b61028081015160148501556102a081015160158501556102c081015160168501556102e08101516017850155015191015560015481906001600160a01b0316803b15613c8f5781809160446040518094819363774af93f60e11b83526024356004840152600260248401525af1801561069857613c7f5750f35b613c889061564b565b61079a5780f35b50fd5b600190602084519401938184015501613bc0565b60108501865260208620908382015b8183018110613cc5575050613bb0565b878155600101613cb5565b606460405162461bcd60e51b815260206004820152600460248201526329291a9960e11b6044820152fd5b606460405162461bcd60e51b81526020600482015260046024820152635252353160e01b6044820152fd5b606460405162461bcd60e51b81526020600482015260046024820152630525235360e41b6044820152fd5b613d5a9061564b565b6106a3578238613a43565b9250506020823d602011613d92575b81613d8160209383615690565b810103126106d45784915138613a08565b3d9150613d74565b613da39061564b565b6106a35782386139ca565b9450506020843d602011613ddd575b81613dca60209383615690565b810103126106d45760808794519061394c565b3d9150613dbd565b6040513d87823e3d90fd5b825484528b985060209093019260019283019201613899565b613e129061564b565b6106a357823861377a565b503461079a57602036600319011261079a576001600160a01b03613e3f615635565b1680825260066020526040822054808352600960205282604081209260405193613e6885615674565b8054855260018101546020860152600281015460408601526003810154606086015260048101546080860152600581015460a0860152600681015460c0860152600781015460e086015260ff60088201541615156101008601526009810154610120860152600a810154610140860152600b81015461016086015260ff600c820154161515610180860152600d8101546101a086015260ff600e8201541615156101c0860152600f8101546101e086015260405180602060108401549182815201906010840186526020862090865b8181106141e55750505081613f4d910382615690565b6102008601526011810154610220860152601281015461024086015260ff60138201541615156102608601526014810154610280860152601581015490816102a087015260168101546102c08701526018601782015491826102e08901520154806103008801521591826141d9575b50816141d0575b50613fcc575080f35b81806101f4819382f115610698576101f46102e083015242610300830152825260096020526040822090805182556020810151600183015560408101516002830155606081015160038301556080810151600483015560a0810151600583015560c0810151600683015560e081015160078301556140606101008201511515600884019060ff801983541691151516179055565b6101208101516009830155610140810151600a830155610160810151600b8301556140a16101808201511515600c84019060ff801983541691151516179055565b6101a0810151600d8301556140cc6101c08201511515600e84019060ff801983541691151516179055565b6101e0810151600f83015560108201610200820151908151916001600160401b03831161061657600160401b83116106165781548383558084106141aa575b5060200190855260208520855b83811061419657505050506103008161022060189301516011850155610240810151601285015561415f6102608201511515601386019060ff801983541691151516179055565b61028081015160148501556102a081015160158501556102c081015160168501556102e08101516017850155015191015538808280f35b600190602084519401938184015501614118565b828752836020882091820191015b8181106141c5575061410b565b8781556001016141b8565b90501538613fc3565b6101f414915038613fbc565b825484528a975060209093019260019283019201613f37565b503461079a57602036600319011261079a57614218615635565b6005546001600160a01b0316803b156106a357604051630fcb260b60e41b815233600482015283908181602481865afa8015610698576147b7575b505060018060a01b03821683526006602052826040812054918282526007602052614289600160ff6040852054161515146156b1565b82825260096020526040822093604051946142a386615674565b8054865260018101546020870152600281015460408701526003810154606087015260048101546080870152600581015460a0870152600681015460c0870152600781015460e087015260ff60088201541615156101008701526009810154610120870152600a810154610140870152600b81015461016087015260ff600c820154161515610180870152600d8101546101a087015260ff600e8201541615156101c0870152600f8101546101e087015260405180602060108401549182815201906010840187526020872090875b81811061479e575050509061438c81601894930382615690565b61020088015260118101546102208801526012810154610240880152601381015460ff161515610260880152601481015461028088015260158101546102a088015260168101546102c088015260178101546102e0880152015461030086015260015460405163521105af60e01b815233600482015290602090829060249082906001600160a01b03165afa90811561072a578491614766575b5061443690602087015114615841565b6003546040516318fe01c760e21b81526001600160a01b0392831660048201529160209183916024918391165afa9081156106e1578391614731575b5061447f85518214615715565b813b156106a3578290602460405180948193639490d07560e01b835260048301525afa80156106985761471d575b50506101e0820151156146f25760016101c08301511515036146c7576144de61025861041b6101e085015142615747565b61024082015161469c5742610240830152825260096020526040822090805182556020810151600183015560408101516002830155606081015160038301556080810151600483015560a0810151600583015560c0810151600683015560e081015160078301556145656101008201511515600884019060ff801983541691151516179055565b6101208101516009830155610140810151600a830155610160810151600b8301556145a66101808201511515600c84019060ff801983541691151516179055565b6101a0810151600d8301556145d16101c08201511515600e84019060ff801983541691151516179055565b6101e0810151600f83015560108201610200820151908151916001600160401b03831161061657600160401b8311610616578154838355808410614676575b5060200190855260208520855b838110614662578686601861030088610220810151601185015561024081015160128501556105a86102608201511515601386019060ff801983541691151516179055565b60019060208451940193818401550161461d565b828752836020882091820191015b8181106146915750614610565b878155600101614684565b606460405162461bcd60e51b81526020600482015260046024820152635252383960e01b6044820152fd5b606460405162461bcd60e51b815260206004820152600460248201526314948d8d60e21b6044820152fd5b606460405162461bcd60e51b81526020600482015260046024820152630a4a46a760e31b6044820152fd5b6147269061564b565b6106a35782386144ad565b9250506020823d60201161475e575b8161474d60209383615690565b810103126106d45784915138614472565b3d9150614740565b9350506020833d602011614796575b8161478260209383615690565b810103126106d45761443686935190614426565b3d9150614775565b825484528b985060209093019260019283019201614372565b6147c09061564b565b6106a3578238614253565b503461079a578060031936011261079a5760206040516101f48152f35b503461079a576147f736615616565b6005546001600160a01b03169190823b156106945760405163423164bf60e11b815233600482015284908181602481885afa801561069857614e8f575b505033845260066020526040842054918285526007602052614861600160ff6040882054161515146156b1565b82855260096020528460408120946040519561487c87615674565b8054875260018101546020880152600281015460408801526003810154606088015260048101546080880152600581015460a0880152600681015460c0880152600781015460e088015260ff60088201541615156101008801526009810154610120880152600a810154610140880152600b81015461016088015260ff600c820154161515610180880152600d8101546101a088015260ff600e8201541615156101c0880152600f8101546101e088015260405180602060108401549182815201906010840186526020862090865b818110614e76575050509061496581601894930382615690565b6102008901526011810154610220890152601281015461024089015260ff6013820154161515610260890152601481015461028089015260158101546102a089015260168101546102c089015260178101546102e089015201546103008701526149d4602087015184146156e3565b6003546040516318fe01c760e21b815233600482015290602090829060249082906001600160a01b03165afa9081156106e1578391614e41575b50614a1b87518214615715565b813b156106a35760405190639490d07560e01b825260048201528281602481855afa9081156106e1578391614e2d575b5050600154604051636287fa1360e11b81526004810185905290608090829060249082906001600160a01b03165afa9081156106e157614aa59184918591614e04575b50614a9a9015156157dd565b60a08801511461580f565b610140860151813b156106a35782906024604051809481936306f2f72160e01b835260048301525afa801561069857614df0575b505061016084015115614dc5576101a0840151614d9a578491614b0761012c61041b61016088015142615747565b158015610180860152426101a0860152614cc9575b505260096020526040822090805182556020810151600183015560408101516002830155606081015160038301556080810151600483015560a0810151600583015560c0810151600683015560e08101516007830155614b926101008201511515600884019060ff801983541691151516179055565b6101208101516009830155610140810151600a830155610160810151600b830155614bd36101808201511515600c84019060ff801983541691151516179055565b6101a0810151600d830155614bfe6101c08201511515600e84019060ff801983541691151516179055565b6101e0810151600f83015560108201610200820151908151916001600160401b03831161061657600160401b8311610616578154838355808410614ca3575b5060200190855260208520855b838110614c8f578686601861030088610220810151601185015561024081015160128501556105a86102608201511515601386019060ff801983541691151516179055565b600190602084519401938184015501614c4a565b828752836020882091820191015b818110614cbe5750614c3d565b878155600101614cb1565b82825260076020526040822060ff1990818154169055600860205260016040842091825416179055818080806101f43382f11561275f57600154604051635fcb671960e11b81526004810192909252602090829060249082906001600160a01b03165afa90811561069857826101f4819382938391614d7b575b506001600160a01b031682f115610698576101f46102e08301526101f46102a083015242610300830152426102c08301528238614b1c565b614d94915060203d6020116127585761274a8183615690565b38614d43565b606460405162461bcd60e51b815260206004820152600460248201526314948d4d60e21b6044820152fd5b606460405162461bcd60e51b81526020600482015260046024820152635252353360e01b6044820152fd5b614df99061564b565b6121bf578438614ad9565b614a9a9250614e22915060803d6080116107235761070f8183615690565b509291509190614a8e565b614e369061564b565b6113a8578138614a4b565b9250506020823d602011614e6e575b81614e5d60209383615690565b810103126106d45786915138614a0e565b3d9150614e50565b825484528c97506020909301926001928301920161494b565b614e989061564b565b610694578338614834565b503461079a57602036600319011261079a576040906001600160a01b03614ec8615635565b168152600660205260ff8280832054928381526007602052205416825191825215156020820152f35b9050346113a857614f0136615616565b60055491926001600160a01b0390921691823b156121bf5763423164bf60e11b81523360048201528481602481865afa8015613de557615603575b5033845260066020526040842054918285526007602052614f68600160ff6040882054161515146156b1565b8285526009602052604085209360405194614f8286615674565b8054865260018101546020870152600281015460408701526003810154606087015260048101546080870152600581015460a0870152600681015460c0870152600781015460e087015260ff60088201541615156101008701526009810154610120870152600a810154610140870152600b81015461016087015260ff600c820154161515610180870152600d8101546101a087015260ff600e8201541615156101c0870152600f8101546101e08701526040518060206010840154918281520190601084018a5260208a20908a5b8181106155ed575050509061506b81601894930382615690565b6102008801526011810154610220880152601281015461024088015260ff6013820154161515610260880152601481015461028088015260158101546102a088015260168101546102c088015260178101546102e088015201546103008601526150da602086015182146156e3565b6003546040516318fe01c760e21b8152336004820152926001600160a01b03909116908790602085602481865afa9485156106985782956155b6575b5061512388518614615715565b803b156113a8578160249160405192838092639490d07560e01b82528960048301525afa80156106985761559e575b5050610240860151156155735761517461012c61041b61024089015142615747565b61028086015161554857600187941515806102608901524261028089015214615347575b5050505260096020526040822090805182556020810151600183015560408101516002830155606081015160038301556080810151600483015560a0810151600583015560c0810151600683015560e081015160078301556152106101008201511515600884019060ff801983541691151516179055565b6101208101516009830155610140810151600a830155610160810151600b8301556152516101808201511515600c84019060ff801983541691151516179055565b6101a0810151600d83015561527c6101c08201511515600e84019060ff801983541691151516179055565b6101e0810151600f83015560108201610200820151908151916001600160401b03831161061657600160401b8311610616578154838355808410615321575b5060200190855260208520855b83811061530d578686601861030088610220810151601185015561024081015160128501556105a86102608201511515601386019060ff801983541691151516179055565b6001906020845194019381840155016152c8565b828752836020882091820191015b81811061533c57506152bb565b87815560010161532f565b803b1561069457838091602460405180948193633a6afa2360e11b83528860048401525af190811561072a578491615534575b5050600154604051635fcb671960e11b81526004810192909252602090829060249082906001600160a01b03165afa9081156106e1578391615515575b50828080806101f46001600160a01b03861682f115610698576001546001600160a01b031690813b1561069457604051633080989960e01b81526001600160a01b0390911660048201529083908290602490829084905af19081156106e1578391615501575b50506101f46102a0850152426102c085015260018060a01b0360015416610140850151813b1561069457839160448392604051948593849263774af93f60e11b84526004840152600160248401525af19081156106e15783916154ed575b50506003546001600160a01b031690813b156106a3578291602483926040519485938492633a6afa2360e11b845260048401525af18015610698576154d9575b50819052600760205260408320805460ff1916905582388080615198565b6154e29061564b565b6106a35782386154bb565b6154f69061564b565b6113a857813861547b565b61550a9061564b565b6113a857813861541d565b61552e915060203d6020116127585761274a8183615690565b386153b7565b61553d9061564b565b6106a357823861537a565b606460405162461bcd60e51b81526020600482015260046024820152635252393160e01b6044820152fd5b606460405162461bcd60e51b81526020600482015260046024820152630525239360e41b6044820152fd5b6155a79061564b565b6155b2578638615152565b8680fd5b915093506020813d6020116155e5575b816155d360209383615690565b810103126106d4578790519338615116565b3d91506155c6565b8254845260209093019260019283019201615051565b61560f9094919461564b565b9238614f3c565b60409060031901126106d4576004359060243580151581036106d45790565b600435906001600160a01b03821682036106d457565b6001600160401b03811161565e57604052565b634e487b7160e01b600052604160045260246000fd5b61032081019081106001600160401b0382111761565e57604052565b90601f801991011681019081106001600160401b0382111761565e57604052565b156156b857565b606460405162461bcd60e51b815260206004820152600460248201526314948ccd60e21b6044820152fd5b156156ea57565b606460405162461bcd60e51b81526020600482015260046024820152635252333760e01b6044820152fd5b1561571c57565b606460405162461bcd60e51b81526020600482015260046024820152632929199b60e11b6044820152fd5b9190820391821161575457565b634e487b7160e01b600052601160045260246000fd5b1561577157565b60405162461bcd60e51b81526020600482015260036024820152620a4a4760eb1b6044820152606490fd5b908160209103126106d457516001600160a01b03811681036106d45790565b91908260809103126106d4578151916020810151916060604083015192015190565b156157e457565b606460405162461bcd60e51b815260206004820152600460248201526314948d0d60e21b6044820152fd5b1561581657565b606460405162461bcd60e51b81526020600482015260046024820152635252343760e01b6044820152fd5b1561584857565b606460405162461bcd60e51b81526020600482015260046024820152635252343360e01b6044820152fd5b1561587a57565b606460405162461bcd60e51b81526020600482015260046024820152630a4a466760e31b6044820152fdfea264697066735822122012e75c48580815678a637890051f930e5c231567209b42c8a939e78498edfa8d64736f6c63430008160033",
			"opcodes": "PUSH1 0x80 CALLVALUE PUSH3 0xCE JUMPI PUSH1 0x1F PUSH3 0x59DA CODESIZE DUP2 SWAP1 SUB SWAP2 DUP3 ADD PUSH1 0x1F NOT AND DUP4 ADD SWAP2 PUSH1 0x1 PUSH1 0x1 PUSH1 0x40 SHL SUB DUP4 GT DUP5 DUP5 LT OR PUSH3 0xD3 JUMPI DUP1 DUP5 SWAP3 PUSH1 0x60 SWAP5 PUSH1 0x40 MSTORE DUP4 CODECOPY DUP2 ADD SUB SLT PUSH3 0xCE JUMPI PUSH3 0x4D DUP2 PUSH3 0xE9 JUMP JUMPDEST PUSH3 0x69 PUSH1 0x40 PUSH3 0x61 PUSH1 0x20 DUP6 ADD PUSH3 0xE9 JUMP JUMPDEST SWAP4 ADD PUSH3 0xE9 JUMP JUMPDEST PUSH1 0x0 PUSH1 0xA SSTORE PUSH1 0x1 DUP1 PUSH1 0xA0 SHL SUB DUP1 DUP1 SWAP4 AND SWAP4 PUSH1 0x1 DUP1 PUSH1 0xA0 SHL SUB NOT SWAP5 DUP1 DUP7 PUSH1 0x0 SLOAD AND OR PUSH1 0x0 SSTORE DUP6 PUSH1 0x1 SLOAD AND OR PUSH1 0x1 SSTORE AND DUP1 DUP5 PUSH1 0x2 SLOAD AND OR PUSH1 0x2 SSTORE DUP4 PUSH1 0x3 SLOAD AND OR PUSH1 0x3 SSTORE AND SWAP1 DUP2 DUP2 PUSH1 0x4 SLOAD AND OR PUSH1 0x4 SSTORE PUSH1 0x5 SLOAD AND OR PUSH1 0x5 SSTORE PUSH1 0x40 MLOAD PUSH2 0x58DB SWAP1 DUP2 PUSH3 0xFF DUP3 CODECOPY RETURN JUMPDEST PUSH1 0x0 DUP1 REVERT JUMPDEST PUSH4 0x4E487B71 PUSH1 0xE0 SHL PUSH1 0x0 MSTORE PUSH1 0x41 PUSH1 0x4 MSTORE PUSH1 0x24 PUSH1 0x0 REVERT JUMPDEST MLOAD SWAP1 PUSH1 0x1 PUSH1 0x1 PUSH1 0xA0 SHL SUB DUP3 AND DUP3 SUB PUSH3 0xCE JUMPI JUMP INVALID PUSH2 0x200 DUP1 PUSH1 0x40 MSTORE PUSH1 0x4 CALLDATASIZE LT ISZERO PUSH2 0x14 JUMPI PUSH1 0x0 DUP1 REVERT JUMPDEST PUSH1 0x0 SWAP1 DUP2 CALLDATALOAD PUSH1 0xE0 SHR SWAP1 DUP2 PUSH4 0x2D96D37 EQ PUSH2 0x4EF1 JUMPI POP DUP1 PUSH4 0x1E3FBAF3 EQ PUSH2 0x4EA3 JUMPI DUP1 PUSH4 0x22398D21 EQ PUSH2 0x47E8 JUMPI DUP1 PUSH4 0x25AB292E EQ PUSH2 0x47CB JUMPI DUP1 PUSH4 0x2D710BFE EQ PUSH2 0x41FE JUMPI DUP1 PUSH4 0x37D538BA EQ PUSH2 0x3E1D JUMPI DUP1 PUSH4 0x643F98F6 EQ PUSH2 0x3725 JUMPI DUP1 PUSH4 0x72DEF90A EQ PUSH2 0x33D8 JUMPI DUP1 PUSH4 0x75147286 EQ PUSH2 0x2DBD JUMPI DUP1 PUSH4 0x8ADC430C EQ PUSH2 0x2861 JUMPI DUP1 PUSH4 0xBA7B8138 EQ PUSH2 0x21D7 JUMPI DUP1 PUSH4 0xBC488B16 EQ PUSH2 0x1E10 JUMPI DUP1 PUSH4 0xC08D1FE5 EQ PUSH2 0x1DF3 JUMPI DUP1 PUSH4 0xC0F0BAF6 EQ PUSH2 0x1A84 JUMPI DUP1 PUSH4 0xC252819D EQ PUSH2 0x1A45 JUMPI DUP1 PUSH4 0xDAE411C6 EQ PUSH2 0x1A27 JUMPI DUP1 PUSH4 0xE5EDF70C EQ PUSH2 0x141C JUMPI DUP1 PUSH4 0xF489579E EQ PUSH2 0xE4B JUMPI DUP1 PUSH4 0xF8BF23DF EQ PUSH2 0xAF6 JUMPI DUP1 PUSH4 0xFB7BE247 EQ PUSH2 0x79D JUMPI PUSH4 0xFE33E0D1 EQ PUSH2 0x109 JUMPI PUSH1 0x0 DUP1 REVERT JUMPDEST CALLVALUE PUSH2 0x79A JUMPI PUSH1 0x40 CALLDATASIZE PUSH1 0x3 NOT ADD SLT PUSH2 0x79A JUMPI PUSH2 0x122 PUSH2 0x5635 JUMP JUMPDEST PUSH1 0x5 SLOAD PUSH1 0x1 PUSH1 0x1 PUSH1 0xA0 SHL SUB AND SWAP1 DUP2 EXTCODESIZE ISZERO PUSH2 0x6A3 JUMPI PUSH1 0x40 MLOAD PUSH4 0xFCB260B PUSH1 0xE4 SHL DUP2 MSTORE CALLER PUSH1 0x4 DUP3 ADD MSTORE DUP4 SWAP1 DUP2 DUP2 PUSH1 0x24 DUP2 DUP8 GAS STATICCALL DUP1 ISZERO PUSH2 0x698 JUMPI PUSH2 0x786 JUMPI JUMPDEST POP POP PUSH1 0x1 DUP1 PUSH1 0xA0 SHL SUB DUP2 AND DUP4 MSTORE PUSH1 0x6 PUSH1 0x20 MSTORE PUSH1 0x40 DUP4 KECCAK256 SLOAD SWAP1 DUP2 DUP5 MSTORE PUSH1 0x7 PUSH1 0x20 MSTORE PUSH2 0x193 PUSH1 0x1 PUSH1 0xFF PUSH1 0x40 DUP8 KECCAK256 SLOAD AND ISZERO ISZERO EQ PUSH2 0x56B1 JUMP JUMPDEST DUP2 DUP5 MSTORE PUSH1 0x9 PUSH1 0x20 MSTORE DUP4 PUSH1 0x40 DUP2 KECCAK256 SWAP4 PUSH1 0x40 MLOAD SWAP5 PUSH2 0x1AE DUP7 PUSH2 0x5674 JUMP JUMPDEST DUP1 SLOAD DUP7 MSTORE PUSH1 0x1 DUP2 ADD SLOAD PUSH1 0x20 DUP8 ADD MSTORE PUSH1 0x2 DUP2 ADD SLOAD PUSH1 0x40 DUP8 ADD MSTORE PUSH1 0x3 DUP2 ADD SLOAD PUSH1 0x60 DUP8 ADD MSTORE PUSH1 0x4 DUP2 ADD SLOAD PUSH1 0x80 DUP8 ADD MSTORE PUSH1 0x5 DUP2 ADD SLOAD PUSH1 0xA0 DUP8 ADD MSTORE PUSH1 0x6 DUP2 ADD SLOAD PUSH1 0xC0 DUP8 ADD MSTORE PUSH1 0x7 DUP2 ADD SLOAD PUSH1 0xE0 DUP8 ADD MSTORE PUSH1 0xFF PUSH1 0x8 DUP3 ADD SLOAD AND ISZERO ISZERO PUSH2 0x100 DUP8 ADD MSTORE PUSH1 0x9 DUP2 ADD SLOAD PUSH2 0x120 DUP8 ADD MSTORE PUSH1 0xA DUP2 ADD SLOAD PUSH2 0x140 DUP8 ADD MSTORE PUSH1 0xB DUP2 ADD SLOAD PUSH2 0x160 DUP8 ADD MSTORE PUSH1 0xFF PUSH1 0xC DUP3 ADD SLOAD AND ISZERO ISZERO PUSH2 0x180 DUP8 ADD MSTORE PUSH1 0xD DUP2 ADD SLOAD PUSH2 0x1A0 DUP8 ADD MSTORE PUSH1 0xFF PUSH1 0xE DUP3 ADD SLOAD AND ISZERO ISZERO PUSH2 0x1C0 DUP8 ADD MSTORE PUSH1 0xF DUP2 ADD SLOAD PUSH2 0x1E0 DUP8 ADD MSTORE PUSH1 0x40 MLOAD DUP1 PUSH1 0x20 PUSH1 0x10 DUP5 ADD SLOAD SWAP2 DUP3 DUP2 MSTORE ADD SWAP1 PUSH1 0x10 DUP5 ADD DUP7 MSTORE PUSH1 0x20 DUP7 KECCAK256 SWAP1 DUP7 JUMPDEST DUP2 DUP2 LT PUSH2 0x76D JUMPI POP POP POP SWAP1 PUSH2 0x297 DUP2 PUSH1 0x18 SWAP5 SWAP4 SUB DUP3 PUSH2 0x5690 JUMP JUMPDEST PUSH2 0x200 DUP9 ADD MSTORE PUSH1 0x11 DUP2 ADD SLOAD PUSH2 0x220 DUP9 ADD MSTORE PUSH1 0x12 DUP2 ADD SLOAD PUSH2 0x240 DUP9 ADD MSTORE PUSH1 0x13 DUP2 ADD SLOAD PUSH1 0xFF AND ISZERO ISZERO PUSH2 0x260 DUP9 ADD MSTORE PUSH1 0x14 DUP2 ADD SLOAD PUSH2 0x280 DUP9 ADD MSTORE PUSH1 0x15 DUP2 ADD SLOAD PUSH2 0x2A0 DUP9 ADD MSTORE PUSH1 0x16 DUP2 ADD SLOAD PUSH2 0x2C0 DUP9 ADD MSTORE PUSH1 0x17 DUP2 ADD SLOAD PUSH2 0x2E0 DUP9 ADD MSTORE ADD SLOAD PUSH2 0x300 DUP7 ADD MSTORE PUSH1 0x1 SLOAD PUSH1 0x40 MLOAD PUSH4 0x521105AF PUSH1 0xE0 SHL DUP2 MSTORE CALLER PUSH1 0x4 DUP3 ADD MSTORE PUSH1 0x1 PUSH1 0x1 PUSH1 0xA0 SHL SUB SWAP1 SWAP2 AND SWAP4 SWAP1 PUSH1 0x20 DUP2 PUSH1 0x24 DUP2 DUP9 GAS STATICCALL SWAP1 DUP2 ISZERO PUSH2 0x72A JUMPI DUP5 SWAP2 PUSH2 0x735 JUMPI JUMPDEST POP PUSH1 0x80 PUSH1 0x24 SWAP6 PUSH1 0x40 MLOAD SWAP7 DUP8 DUP1 SWAP3 PUSH4 0x6287FA13 PUSH1 0xE1 SHL DUP3 MSTORE DUP6 PUSH1 0x4 DUP4 ADD MSTORE GAS STATICCALL SWAP1 DUP2 ISZERO PUSH2 0x72A JUMPI DUP5 SWAP6 DUP6 SWAP3 PUSH2 0x6EC JUMPI JUMPDEST POP SWAP1 PUSH2 0x374 PUSH2 0x37B SWAP3 PUSH1 0x20 DUP11 ADD MLOAD EQ PUSH2 0x5841 JUMP JUMPDEST ISZERO ISZERO PUSH2 0x57DD JUMP JUMPDEST PUSH1 0x3 SLOAD PUSH1 0x40 MLOAD PUSH4 0x18FE01C7 PUSH1 0xE2 SHL DUP2 MSTORE PUSH1 0x1 PUSH1 0x1 PUSH1 0xA0 SHL SUB SWAP3 DUP4 AND PUSH1 0x4 DUP3 ADD MSTORE SWAP2 PUSH1 0x20 SWAP2 DUP4 SWAP2 PUSH1 0x24 SWAP2 DUP4 SWAP2 AND GAS STATICCALL SWAP1 DUP2 ISZERO PUSH2 0x6E1 JUMPI DUP4 SWAP2 PUSH2 0x6A7 JUMPI JUMPDEST POP PUSH2 0x3C4 DUP7 MLOAD DUP3 EQ PUSH2 0x5715 JUMP JUMPDEST DUP2 EXTCODESIZE ISZERO PUSH2 0x6A3 JUMPI DUP3 SWAP1 PUSH1 0x24 PUSH1 0x40 MLOAD DUP1 SWAP5 DUP2 SWAP4 PUSH4 0x9490D075 PUSH1 0xE0 SHL DUP4 MSTORE PUSH1 0x4 DUP4 ADD MSTORE GAS STATICCALL DUP1 ISZERO PUSH2 0x698 JUMPI PUSH2 0x680 JUMPI JUMPDEST POP POP PUSH1 0x80 DUP4 ADD MLOAD ISZERO PUSH2 0x655 JUMPI PUSH1 0xE0 DUP4 ADD MLOAD PUSH2 0x62A JUMPI PUSH2 0x422 PUSH2 0x12C PUSH2 0x41B PUSH1 0x80 DUP7 ADD MLOAD TIMESTAMP PUSH2 0x5747 JUMP JUMPDEST GT ISZERO PUSH2 0x576A JUMP JUMPDEST PUSH1 0xA0 DUP4 ADD MSTORE PUSH1 0x24 CALLDATALOAD PUSH1 0xC0 DUP4 ADD MSTORE TIMESTAMP PUSH1 0xE0 DUP4 ADD MSTORE DUP3 MSTORE PUSH1 0x9 PUSH1 0x20 MSTORE PUSH1 0x40 DUP3 KECCAK256 SWAP1 DUP1 MLOAD DUP3 SSTORE PUSH1 0x20 DUP2 ADD MLOAD PUSH1 0x1 DUP4 ADD SSTORE PUSH1 0x40 DUP2 ADD MLOAD PUSH1 0x2 DUP4 ADD SSTORE PUSH1 0x60 DUP2 ADD MLOAD PUSH1 0x3 DUP4 ADD SSTORE PUSH1 0x80 DUP2 ADD MLOAD PUSH1 0x4 DUP4 ADD SSTORE PUSH1 0xA0 DUP2 ADD MLOAD PUSH1 0x5 DUP4 ADD SSTORE PUSH1 0xC0 DUP2 ADD MLOAD PUSH1 0x6 DUP4 ADD SSTORE PUSH1 0xE0 DUP2 ADD MLOAD PUSH1 0x7 DUP4 ADD SSTORE PUSH2 0x4AB PUSH2 0x100 DUP3 ADD MLOAD ISZERO ISZERO PUSH1 0x8 DUP5 ADD SWAP1 PUSH1 0xFF DUP1 NOT DUP4 SLOAD AND SWAP2 ISZERO ISZERO AND OR SWAP1 SSTORE JUMP JUMPDEST PUSH2 0x120 DUP2 ADD MLOAD PUSH1 0x9 DUP4 ADD SSTORE PUSH2 0x140 DUP2 ADD MLOAD PUSH1 0xA DUP4 ADD SSTORE PUSH2 0x160 DUP2 ADD MLOAD PUSH1 0xB DUP4 ADD SSTORE PUSH2 0x4EC PUSH2 0x180 DUP3 ADD MLOAD ISZERO ISZERO PUSH1 0xC DUP5 ADD SWAP1 PUSH1 0xFF DUP1 NOT DUP4 SLOAD AND SWAP2 ISZERO ISZERO AND OR SWAP1 SSTORE JUMP JUMPDEST PUSH2 0x1A0 DUP2 ADD MLOAD PUSH1 0xD DUP4 ADD SSTORE PUSH2 0x517 PUSH2 0x1C0 DUP3 ADD MLOAD ISZERO ISZERO PUSH1 0xE DUP5 ADD SWAP1 PUSH1 0xFF DUP1 NOT DUP4 SLOAD AND SWAP2 ISZERO ISZERO AND OR SWAP1 SSTORE JUMP JUMPDEST PUSH2 0x1E0 DUP2 ADD MLOAD PUSH1 0xF DUP4 ADD SSTORE PUSH1 0x10 DUP3 ADD PUSH2 0x200 DUP3 ADD MLOAD SWAP1 DUP2 MLOAD SWAP2 PUSH1 0x1 PUSH1 0x1 PUSH1 0x40 SHL SUB DUP4 GT PUSH2 0x616 JUMPI PUSH1 0x1 PUSH1 0x40 SHL DUP4 GT PUSH2 0x616 JUMPI DUP2 SLOAD DUP4 DUP4 SSTORE DUP1 DUP5 LT PUSH2 0x5F0 JUMPI JUMPDEST POP PUSH1 0x20 ADD SWAP1 DUP6 MSTORE PUSH1 0x20 DUP6 KECCAK256 DUP6 JUMPDEST DUP4 DUP2 LT PUSH2 0x5DC JUMPI DUP7 DUP7 PUSH1 0x18 PUSH2 0x300 DUP9 PUSH2 0x220 DUP2 ADD MLOAD PUSH1 0x11 DUP6 ADD SSTORE PUSH2 0x240 DUP2 ADD MLOAD PUSH1 0x12 DUP6 ADD SSTORE PUSH2 0x5A8 PUSH2 0x260 DUP3 ADD MLOAD ISZERO ISZERO PUSH1 0x13 DUP7 ADD SWAP1 PUSH1 0xFF DUP1 NOT DUP4 SLOAD AND SWAP2 ISZERO ISZERO AND OR SWAP1 SSTORE JUMP JUMPDEST PUSH2 0x280 DUP2 ADD MLOAD PUSH1 0x14 DUP6 ADD SSTORE PUSH2 0x2A0 DUP2 ADD MLOAD PUSH1 0x15 DUP6 ADD SSTORE PUSH2 0x2C0 DUP2 ADD MLOAD PUSH1 0x16 DUP6 ADD SSTORE PUSH2 0x2E0 DUP2 ADD MLOAD PUSH1 0x17 DUP6 ADD SSTORE ADD MLOAD SWAP2 ADD SSTORE DUP1 RETURN JUMPDEST PUSH1 0x1 SWAP1 PUSH1 0x20 DUP5 MLOAD SWAP5 ADD SWAP4 DUP2 DUP5 ADD SSTORE ADD PUSH2 0x563 JUMP JUMPDEST DUP3 DUP8 MSTORE DUP4 PUSH1 0x20 DUP9 KECCAK256 SWAP2 DUP3 ADD SWAP2 ADD JUMPDEST DUP2 DUP2 LT PUSH2 0x60B JUMPI POP PUSH2 0x556 JUMP JUMPDEST DUP8 DUP2 SSTORE PUSH1 0x1 ADD PUSH2 0x5FE JUMP JUMPDEST PUSH4 0x4E487B71 PUSH1 0xE0 SHL DUP7 MSTORE PUSH1 0x41 PUSH1 0x4 MSTORE PUSH1 0x24 DUP7 REVERT JUMPDEST PUSH1 0x64 PUSH1 0x40 MLOAD PUSH3 0x461BCD PUSH1 0xE5 SHL DUP2 MSTORE PUSH1 0x20 PUSH1 0x4 DUP3 ADD MSTORE PUSH1 0x4 PUSH1 0x24 DUP3 ADD MSTORE PUSH4 0x29291A1B PUSH1 0xE1 SHL PUSH1 0x44 DUP3 ADD MSTORE REVERT JUMPDEST PUSH1 0x64 PUSH1 0x40 MLOAD PUSH3 0x461BCD PUSH1 0xE5 SHL DUP2 MSTORE PUSH1 0x20 PUSH1 0x4 DUP3 ADD MSTORE PUSH1 0x4 PUSH1 0x24 DUP3 ADD MSTORE PUSH4 0x52523435 PUSH1 0xE0 SHL PUSH1 0x44 DUP3 ADD MSTORE REVERT JUMPDEST PUSH2 0x689 SWAP1 PUSH2 0x564B JUMP JUMPDEST PUSH2 0x694 JUMPI DUP4 CODESIZE PUSH2 0x3F2 JUMP JUMPDEST DUP4 DUP1 REVERT JUMPDEST PUSH1 0x40 MLOAD RETURNDATASIZE DUP5 DUP3 RETURNDATACOPY RETURNDATASIZE SWAP1 REVERT JUMPDEST DUP3 DUP1 REVERT JUMPDEST SWAP3 POP POP PUSH1 0x20 DUP3 RETURNDATASIZE PUSH1 0x20 GT PUSH2 0x6D9 JUMPI JUMPDEST DUP2 PUSH2 0x6C3 PUSH1 0x20 SWAP4 DUP4 PUSH2 0x5690 JUMP JUMPDEST DUP2 ADD SUB SLT PUSH2 0x6D4 JUMPI DUP6 SWAP2 MLOAD CODESIZE PUSH2 0x3B7 JUMP JUMPDEST PUSH1 0x0 DUP1 REVERT JUMPDEST RETURNDATASIZE SWAP2 POP PUSH2 0x6B6 JUMP JUMPDEST PUSH1 0x40 MLOAD RETURNDATASIZE DUP6 DUP3 RETURNDATACOPY RETURNDATASIZE SWAP1 REVERT JUMPDEST PUSH2 0x374 SWAP7 POP PUSH2 0x37B SWAP3 POP PUSH2 0x717 SWAP1 PUSH1 0x80 RETURNDATASIZE PUSH1 0x80 GT PUSH2 0x723 JUMPI JUMPDEST PUSH2 0x70F DUP2 DUP4 PUSH2 0x5690 JUMP JUMPDEST DUP2 ADD SWAP1 PUSH2 0x57BB JUMP JUMPDEST POP SWAP8 SWAP2 POP SWAP7 SWAP3 POP PUSH2 0x360 JUMP JUMPDEST POP RETURNDATASIZE PUSH2 0x705 JUMP JUMPDEST PUSH1 0x40 MLOAD RETURNDATASIZE DUP7 DUP3 RETURNDATACOPY RETURNDATASIZE SWAP1 REVERT JUMPDEST SWAP4 POP POP PUSH1 0x20 DUP4 RETURNDATASIZE PUSH1 0x20 GT PUSH2 0x765 JUMPI JUMPDEST DUP2 PUSH2 0x751 PUSH1 0x20 SWAP4 DUP4 PUSH2 0x5690 JUMP JUMPDEST DUP2 ADD SUB SLT PUSH2 0x6D4 JUMPI SWAP2 MLOAD DUP7 SWAP3 SWAP1 PUSH1 0x80 PUSH2 0x331 JUMP JUMPDEST RETURNDATASIZE SWAP2 POP PUSH2 0x744 JUMP JUMPDEST DUP3 SLOAD DUP5 MSTORE DUP12 SWAP8 POP PUSH1 0x20 SWAP1 SWAP4 ADD SWAP3 PUSH1 0x1 SWAP3 DUP4 ADD SWAP3 ADD PUSH2 0x27D JUMP JUMPDEST PUSH2 0x78F SWAP1 PUSH2 0x564B JUMP JUMPDEST PUSH2 0x6A3 JUMPI DUP3 CODESIZE PUSH2 0x15E JUMP JUMPDEST DUP1 REVERT JUMPDEST POP CALLVALUE PUSH2 0x79A JUMPI PUSH1 0x40 CALLDATASIZE PUSH1 0x3 NOT ADD SLT PUSH2 0x79A JUMPI DUP1 DUP1 DUP1 DUP1 PUSH2 0x3E8 PUSH2 0x7BE PUSH2 0x5635 JUMP JUMPDEST PUSH1 0x1 PUSH1 0x1 PUSH1 0xA0 SHL SUB AND DUP3 CALL ISZERO PUSH2 0xAEA JUMPI PUSH1 0x24 CALLDATALOAD DUP2 MSTORE PUSH1 0x9 PUSH1 0x20 MSTORE PUSH1 0x40 DUP2 KECCAK256 PUSH1 0x40 MLOAD SWAP1 PUSH2 0x7E9 DUP3 PUSH2 0x5674 JUMP JUMPDEST DUP1 SLOAD DUP3 MSTORE PUSH1 0x1 DUP2 ADD SLOAD PUSH1 0x20 DUP4 ADD MSTORE PUSH1 0x2 DUP2 ADD SLOAD PUSH1 0x40 DUP4 ADD MSTORE PUSH1 0x3 DUP2 ADD SLOAD PUSH1 0x60 DUP4 ADD MSTORE PUSH1 0x4 DUP2 ADD SLOAD PUSH1 0x80 DUP4 ADD MSTORE PUSH1 0x5 DUP2 ADD SLOAD PUSH1 0xA0 DUP4 ADD MSTORE PUSH1 0x6 DUP2 ADD SLOAD PUSH1 0xC0 DUP4 ADD MSTORE PUSH1 0x7 DUP2 ADD SLOAD PUSH1 0xE0 DUP4 ADD MSTORE PUSH1 0xFF PUSH1 0x8 DUP3 ADD SLOAD AND ISZERO ISZERO PUSH2 0x100 DUP4 ADD MSTORE PUSH1 0x9 DUP2 ADD SLOAD PUSH2 0x120 DUP4 ADD MSTORE PUSH1 0xA DUP2 ADD SLOAD PUSH2 0x140 DUP4 ADD MSTORE PUSH1 0xB DUP2 ADD SLOAD PUSH2 0x160 DUP4 ADD MSTORE PUSH1 0xFF PUSH1 0xC DUP3 ADD SLOAD AND ISZERO ISZERO PUSH2 0x180 DUP4 ADD MSTORE PUSH1 0xD DUP2 ADD SLOAD PUSH2 0x1A0 DUP4 ADD MSTORE PUSH1 0xFF PUSH1 0xE DUP3 ADD SLOAD AND ISZERO ISZERO PUSH2 0x1C0 DUP4 ADD MSTORE PUSH1 0xF DUP2 ADD SLOAD PUSH2 0x1E0 DUP4 ADD MSTORE PUSH1 0x40 MLOAD DUP1 PUSH1 0x20 PUSH1 0x10 DUP5 ADD SLOAD SWAP2 DUP3 DUP2 MSTORE ADD SWAP1 PUSH1 0x10 DUP5 ADD DUP7 MSTORE PUSH1 0x20 DUP7 KECCAK256 SWAP1 DUP7 JUMPDEST DUP2 DUP2 LT PUSH2 0xAD4 JUMPI POP POP POP SWAP1 PUSH2 0x8D2 DUP2 PUSH1 0x14 SWAP5 SWAP4 SUB DUP3 PUSH2 0x5690 JUMP JUMPDEST PUSH2 0x200 DUP5 ADD MSTORE PUSH1 0x11 DUP2 ADD SLOAD PUSH2 0x220 DUP5 ADD MSTORE PUSH1 0x12 DUP2 ADD SLOAD PUSH2 0x240 DUP5 ADD MSTORE PUSH1 0xFF PUSH1 0x13 DUP3 ADD SLOAD AND ISZERO ISZERO PUSH2 0x260 DUP5 ADD MSTORE ADD SLOAD PUSH2 0x280 DUP3 ADD MSTORE PUSH2 0x3E8 PUSH2 0x2E0 DUP3 ADD MSTORE TIMESTAMP PUSH2 0x300 DUP3 ADD MSTORE DUP2 PUSH2 0x2A0 DUP3 ADD MSTORE TIMESTAMP PUSH2 0x2C0 DUP3 ADD MSTORE PUSH1 0x24 CALLDATALOAD DUP3 MSTORE PUSH1 0x9 PUSH1 0x20 MSTORE PUSH1 0x40 DUP3 KECCAK256 SWAP1 DUP1 MLOAD DUP3 SSTORE PUSH1 0x20 DUP2 ADD MLOAD PUSH1 0x1 DUP4 ADD SSTORE PUSH1 0x40 DUP2 ADD MLOAD PUSH1 0x2 DUP4 ADD SSTORE PUSH1 0x60 DUP2 ADD MLOAD PUSH1 0x3 DUP4 ADD SSTORE PUSH1 0x80 DUP2 ADD MLOAD PUSH1 0x4 DUP4 ADD SSTORE PUSH1 0xA0 DUP2 ADD MLOAD PUSH1 0x5 DUP4 ADD SSTORE PUSH1 0xC0 DUP2 ADD MLOAD PUSH1 0x6 DUP4 ADD SSTORE PUSH1 0xE0 DUP2 ADD MLOAD PUSH1 0x7 DUP4 ADD SSTORE PUSH2 0x99D PUSH2 0x100 DUP3 ADD MLOAD ISZERO ISZERO PUSH1 0x8 DUP5 ADD SWAP1 PUSH1 0xFF DUP1 NOT DUP4 SLOAD AND SWAP2 ISZERO ISZERO AND OR SWAP1 SSTORE JUMP JUMPDEST PUSH2 0x120 DUP2 ADD MLOAD PUSH1 0x9 DUP4 ADD SSTORE PUSH2 0x140 DUP2 ADD MLOAD PUSH1 0xA DUP4 ADD SSTORE PUSH2 0x160 DUP2 ADD MLOAD PUSH1 0xB DUP4 ADD SSTORE PUSH2 0x9DE PUSH2 0x180 DUP3 ADD MLOAD ISZERO ISZERO PUSH1 0xC DUP5 ADD SWAP1 PUSH1 0xFF DUP1 NOT DUP4 SLOAD AND SWAP2 ISZERO ISZERO AND OR SWAP1 SSTORE JUMP JUMPDEST PUSH2 0x1A0 DUP2 ADD MLOAD PUSH1 0xD DUP4 ADD SSTORE PUSH2 0xA09 PUSH2 0x1C0 DUP3 ADD MLOAD ISZERO ISZERO PUSH1 0xE DUP5 ADD SWAP1 PUSH1 0xFF DUP1 NOT DUP4 SLOAD AND SWAP2 ISZERO ISZERO AND OR SWAP1 SSTORE JUMP JUMPDEST PUSH2 0x1E0 DUP2 ADD MLOAD PUSH1 0xF DUP4 ADD SSTORE PUSH1 0x10 DUP3 ADD PUSH2 0x200 DUP3 ADD MLOAD SWAP1 DUP2 MLOAD SWAP2 PUSH1 0x1 PUSH1 0x1 PUSH1 0x40 SHL SUB DUP4 GT PUSH2 0x616 JUMPI PUSH1 0x1 PUSH1 0x40 SHL DUP4 GT PUSH2 0x616 JUMPI DUP2 SLOAD DUP4 DUP4 SSTORE DUP1 DUP5 LT PUSH2 0xAAE JUMPI JUMPDEST POP PUSH1 0x20 ADD SWAP1 DUP6 MSTORE PUSH1 0x20 DUP6 KECCAK256 DUP6 JUMPDEST DUP4 DUP2 LT PUSH2 0xA9A JUMPI DUP7 DUP7 PUSH1 0x18 PUSH2 0x300 DUP9 PUSH2 0x220 DUP2 ADD MLOAD PUSH1 0x11 DUP6 ADD SSTORE PUSH2 0x240 DUP2 ADD MLOAD PUSH1 0x12 DUP6 ADD SSTORE PUSH2 0x5A8 PUSH2 0x260 DUP3 ADD MLOAD ISZERO ISZERO PUSH1 0x13 DUP7 ADD SWAP1 PUSH1 0xFF DUP1 NOT DUP4 SLOAD AND SWAP2 ISZERO ISZERO AND OR SWAP1 SSTORE JUMP JUMPDEST PUSH1 0x1 SWAP1 PUSH1 0x20 DUP5 MLOAD SWAP5 ADD SWAP4 DUP2 DUP5 ADD SSTORE ADD PUSH2 0xA55 JUMP JUMPDEST DUP3 DUP8 MSTORE DUP4 PUSH1 0x20 DUP9 KECCAK256 SWAP2 DUP3 ADD SWAP2 ADD JUMPDEST DUP2 DUP2 LT PUSH2 0xAC9 JUMPI POP PUSH2 0xA48 JUMP JUMPDEST DUP8 DUP2 SSTORE PUSH1 0x1 ADD PUSH2 0xABC JUMP JUMPDEST DUP3 SLOAD DUP5 MSTORE PUSH1 0x20 SWAP1 SWAP4 ADD SWAP3 PUSH1 0x1 SWAP3 DUP4 ADD SWAP3 ADD PUSH2 0x8B8 JUMP JUMPDEST PUSH1 0x40 MLOAD SWAP1 RETURNDATASIZE SWAP1 DUP3 RETURNDATACOPY RETURNDATASIZE SWAP1 REVERT JUMPDEST POP CALLVALUE PUSH2 0x79A JUMPI PUSH1 0x40 CALLDATASIZE PUSH1 0x3 NOT ADD SLT PUSH2 0x79A JUMPI DUP1 DUP1 DUP1 DUP1 PUSH2 0x1F4 PUSH2 0xB17 PUSH2 0x5635 JUMP JUMPDEST PUSH1 0x1 PUSH1 0x1 PUSH1 0xA0 SHL SUB AND DUP3 CALL ISZERO PUSH2 0xAEA JUMPI PUSH1 0x24 CALLDATALOAD DUP2 MSTORE PUSH1 0x9 PUSH1 0x20 MSTORE PUSH1 0x40 DUP2 KECCAK256 PUSH1 0x40 MLOAD SWAP1 PUSH2 0xB42 DUP3 PUSH2 0x5674 JUMP JUMPDEST DUP1 SLOAD DUP3 MSTORE PUSH1 0x1 DUP2 ADD SLOAD PUSH1 0x20 DUP4 ADD MSTORE PUSH1 0x2 DUP2 ADD SLOAD PUSH1 0x40 DUP4 ADD MSTORE PUSH1 0x3 DUP2 ADD SLOAD PUSH1 0x60 DUP4 ADD MSTORE PUSH1 0x4 DUP2 ADD SLOAD PUSH1 0x80 DUP4 ADD MSTORE PUSH1 0x5 DUP2 ADD SLOAD PUSH1 0xA0 DUP4 ADD MSTORE PUSH1 0x6 DUP2 ADD SLOAD PUSH1 0xC0 DUP4 ADD MSTORE PUSH1 0x7 DUP2 ADD SLOAD PUSH1 0xE0 DUP4 ADD MSTORE PUSH1 0xFF PUSH1 0x8 DUP3 ADD SLOAD AND ISZERO ISZERO PUSH2 0x100 DUP4 ADD MSTORE PUSH1 0x9 DUP2 ADD SLOAD PUSH2 0x120 DUP4 ADD MSTORE PUSH1 0xA DUP2 ADD SLOAD PUSH2 0x140 DUP4 ADD MSTORE PUSH1 0xB DUP2 ADD SLOAD PUSH2 0x160 DUP4 ADD MSTORE PUSH1 0xFF PUSH1 0xC DUP3 ADD SLOAD AND ISZERO ISZERO PUSH2 0x180 DUP4 ADD MSTORE PUSH1 0xD DUP2 ADD SLOAD PUSH2 0x1A0 DUP4 ADD MSTORE PUSH1 0xFF PUSH1 0xE DUP3 ADD SLOAD AND ISZERO ISZERO PUSH2 0x1C0 DUP4 ADD MSTORE PUSH1 0xF DUP2 ADD SLOAD PUSH2 0x1E0 DUP4 ADD MSTORE PUSH1 0x40 MLOAD DUP1 PUSH1 0x20 PUSH1 0x10 DUP5 ADD SLOAD SWAP2 DUP3 DUP2 MSTORE ADD SWAP1 PUSH1 0x10 DUP5 ADD DUP7 MSTORE PUSH1 0x20 DUP7 KECCAK256 SWAP1 DUP7 JUMPDEST DUP2 DUP2 LT PUSH2 0xE35 JUMPI POP POP POP SWAP1 PUSH2 0xC2B DUP2 PUSH1 0x18 SWAP5 SWAP4 SUB DUP3 PUSH2 0x5690 JUMP JUMPDEST PUSH2 0x200 DUP5 ADD MSTORE PUSH1 0x11 DUP2 ADD SLOAD PUSH2 0x220 DUP5 ADD MSTORE PUSH1 0x12 DUP2 ADD SLOAD PUSH2 0x240 DUP5 ADD MSTORE PUSH1 0xFF PUSH1 0x13 DUP3 ADD SLOAD AND ISZERO ISZERO PUSH2 0x260 DUP5 ADD MSTORE PUSH1 0x14 DUP2 ADD SLOAD PUSH2 0x280 DUP5 ADD MSTORE PUSH1 0x17 DUP2 ADD SLOAD PUSH2 0x2E0 DUP5 ADD MSTORE ADD SLOAD PUSH2 0x300 DUP3 ADD MSTORE PUSH2 0x1F4 PUSH2 0x2A0 DUP3 ADD MSTORE TIMESTAMP PUSH2 0x2C0 DUP3 ADD MSTORE PUSH1 0x24 CALLDATALOAD DUP3 MSTORE PUSH1 0x9 PUSH1 0x20 MSTORE PUSH1 0x40 DUP3 KECCAK256 SWAP1 DUP1 MLOAD DUP3 SSTORE PUSH1 0x20 DUP2 ADD MLOAD PUSH1 0x1 DUP4 ADD SSTORE PUSH1 0x40 DUP2 ADD MLOAD PUSH1 0x2 DUP4 ADD SSTORE PUSH1 0x60 DUP2 ADD MLOAD PUSH1 0x3 DUP4 ADD SSTORE PUSH1 0x80 DUP2 ADD MLOAD PUSH1 0x4 DUP4 ADD SSTORE PUSH1 0xA0 DUP2 ADD MLOAD PUSH1 0x5 DUP4 ADD SSTORE PUSH1 0xC0 DUP2 ADD MLOAD PUSH1 0x6 DUP4 ADD SSTORE PUSH1 0xE0 DUP2 ADD MLOAD PUSH1 0x7 DUP4 ADD SSTORE PUSH2 0xCFE PUSH2 0x100 DUP3 ADD MLOAD ISZERO ISZERO PUSH1 0x8 DUP5 ADD SWAP1 PUSH1 0xFF DUP1 NOT DUP4 SLOAD AND SWAP2 ISZERO ISZERO AND OR SWAP1 SSTORE JUMP JUMPDEST PUSH2 0x120 DUP2 ADD MLOAD PUSH1 0x9 DUP4 ADD SSTORE PUSH2 0x140 DUP2 ADD MLOAD PUSH1 0xA DUP4 ADD SSTORE PUSH2 0x160 DUP2 ADD MLOAD PUSH1 0xB DUP4 ADD SSTORE PUSH2 0xD3F PUSH2 0x180 DUP3 ADD MLOAD ISZERO ISZERO PUSH1 0xC DUP5 ADD SWAP1 PUSH1 0xFF DUP1 NOT DUP4 SLOAD AND SWAP2 ISZERO ISZERO AND OR SWAP1 SSTORE JUMP JUMPDEST PUSH2 0x1A0 DUP2 ADD MLOAD PUSH1 0xD DUP4 ADD SSTORE PUSH2 0xD6A PUSH2 0x1C0 DUP3 ADD MLOAD ISZERO ISZERO PUSH1 0xE DUP5 ADD SWAP1 PUSH1 0xFF DUP1 NOT DUP4 SLOAD AND SWAP2 ISZERO ISZERO AND OR SWAP1 SSTORE JUMP JUMPDEST PUSH2 0x1E0 DUP2 ADD MLOAD PUSH1 0xF DUP4 ADD SSTORE PUSH1 0x10 DUP3 ADD PUSH2 0x200 DUP3 ADD MLOAD SWAP1 DUP2 MLOAD SWAP2 PUSH1 0x1 PUSH1 0x1 PUSH1 0x40 SHL SUB DUP4 GT PUSH2 0x616 JUMPI PUSH1 0x1 PUSH1 0x40 SHL DUP4 GT PUSH2 0x616 JUMPI DUP2 SLOAD DUP4 DUP4 SSTORE DUP1 DUP5 LT PUSH2 0xE0F JUMPI JUMPDEST POP PUSH1 0x20 ADD SWAP1 DUP6 MSTORE PUSH1 0x20 DUP6 KECCAK256 DUP6 JUMPDEST DUP4 DUP2 LT PUSH2 0xDFB JUMPI DUP7 DUP7 PUSH1 0x18 PUSH2 0x300 DUP9 PUSH2 0x220 DUP2 ADD MLOAD PUSH1 0x11 DUP6 ADD SSTORE PUSH2 0x240 DUP2 ADD MLOAD PUSH1 0x12 DUP6 ADD SSTORE PUSH2 0x5A8 PUSH2 0x260 DUP3 ADD MLOAD ISZERO ISZERO PUSH1 0x13 DUP7 ADD SWAP1 PUSH1 0xFF DUP1 NOT DUP4 SLOAD AND SWAP2 ISZERO ISZERO AND OR SWAP1 SSTORE JUMP JUMPDEST PUSH1 0x1 SWAP1 PUSH1 0x20 DUP5 MLOAD SWAP5 ADD SWAP4 DUP2 DUP5 ADD SSTORE ADD PUSH2 0xDB6 JUMP JUMPDEST DUP3 DUP8 MSTORE DUP4 PUSH1 0x20 DUP9 KECCAK256 SWAP2 DUP3 ADD SWAP2 ADD JUMPDEST DUP2 DUP2 LT PUSH2 0xE2A JUMPI POP PUSH2 0xDA9 JUMP JUMPDEST DUP8 DUP2 SSTORE PUSH1 0x1 ADD PUSH2 0xE1D JUMP JUMPDEST DUP3 SLOAD DUP5 MSTORE PUSH1 0x20 SWAP1 SWAP4 ADD SWAP3 PUSH1 0x1 SWAP3 DUP4 ADD SWAP3 ADD PUSH2 0xC11 JUMP JUMPDEST POP CALLVALUE PUSH2 0x79A JUMPI PUSH1 0x20 CALLDATASIZE PUSH1 0x3 NOT ADD SLT PUSH2 0x79A JUMPI PUSH1 0x5 SLOAD PUSH1 0x1 PUSH1 0x1 PUSH1 0xA0 SHL SUB SWAP2 SWAP1 DUP3 AND DUP1 EXTCODESIZE ISZERO PUSH2 0x13A8 JUMPI PUSH1 0x40 MLOAD PUSH4 0x423164BF PUSH1 0xE1 SHL DUP2 MSTORE CALLER PUSH1 0x4 DUP3 ADD MSTORE DUP3 DUP2 PUSH1 0x24 DUP2 DUP6 GAS STATICCALL DUP1 ISZERO PUSH2 0x6E1 JUMPI PUSH2 0x1408 JUMPI JUMPDEST POP PUSH1 0x20 PUSH1 0x24 SWAP4 PUSH1 0x3 SLOAD AND PUSH1 0x40 MLOAD SWAP5 DUP6 DUP1 SWAP3 PUSH4 0x18FE01C7 PUSH1 0xE2 SHL DUP3 MSTORE CALLER PUSH1 0x4 DUP4 ADD MSTORE GAS STATICCALL SWAP3 DUP4 ISZERO PUSH2 0x698 JUMPI DUP3 SWAP4 PUSH2 0x13D4 JUMPI JUMPDEST POP DUP1 EXTCODESIZE ISZERO PUSH2 0x13A8 JUMPI PUSH1 0x40 MLOAD PUSH4 0x9490D075 PUSH1 0xE0 SHL DUP2 MSTORE PUSH1 0x4 DUP2 ADD DUP5 SWAP1 MSTORE DUP3 DUP2 PUSH1 0x24 DUP2 DUP6 GAS STATICCALL DUP1 ISZERO PUSH2 0x6E1 JUMPI SWAP1 DUP4 SWAP2 PUSH2 0x13C0 JUMPI JUMPDEST POP POP DUP1 EXTCODESIZE ISZERO PUSH2 0x13A8 JUMPI PUSH1 0x40 MLOAD PUSH4 0x18BC1F85 PUSH1 0xE0 SHL DUP2 MSTORE PUSH1 0x4 DUP1 CALLDATALOAD SWAP1 DUP3 ADD MSTORE DUP3 DUP2 PUSH1 0x24 DUP2 DUP6 GAS STATICCALL DUP1 ISZERO PUSH2 0x6E1 JUMPI SWAP1 DUP4 SWAP2 PUSH2 0x13AC JUMPI JUMPDEST POP POP DUP1 EXTCODESIZE ISZERO PUSH2 0x13A8 JUMPI DUP2 PUSH1 0x24 SWAP2 PUSH1 0x40 MLOAD SWAP3 DUP4 DUP1 SWAP3 PUSH4 0x856CB9E7 PUSH1 0xE0 SHL DUP3 MSTORE PUSH1 0x4 CALLDATALOAD PUSH1 0x4 DUP4 ADD MSTORE GAS STATICCALL DUP1 ISZERO PUSH2 0x698 JUMPI SWAP1 DUP3 SWAP2 PUSH2 0x1394 JUMPI JUMPDEST POP POP CALLER DUP2 MSTORE PUSH1 0x6 PUSH1 0x20 MSTORE PUSH1 0x40 DUP2 KECCAK256 SLOAD DUP2 MSTORE PUSH1 0x7 PUSH1 0x20 MSTORE PUSH1 0xFF PUSH1 0x40 DUP3 KECCAK256 SLOAD AND PUSH2 0x1369 JUMPI PUSH1 0xA SLOAD PUSH1 0x1 DUP2 ADD DUP2 GT PUSH2 0x1355 JUMPI PUSH1 0x1 DUP2 ADD PUSH1 0xA SSTORE PUSH1 0x1 DUP2 ADD DUP3 MSTORE PUSH1 0x9 PUSH1 0x20 MSTORE PUSH1 0x40 DUP3 KECCAK256 SWAP3 PUSH1 0x40 MLOAD SWAP4 PUSH2 0xFB9 DUP6 PUSH2 0x5674 JUMP JUMPDEST DUP1 SLOAD DUP6 MSTORE PUSH1 0x1 DUP2 ADD SLOAD PUSH1 0x20 DUP7 ADD MSTORE PUSH1 0x2 DUP2 ADD SLOAD PUSH1 0x40 DUP7 ADD MSTORE PUSH1 0x3 DUP2 ADD SLOAD PUSH1 0x60 DUP7 ADD MSTORE PUSH1 0x4 DUP2 ADD SLOAD PUSH1 0x80 DUP7 ADD MSTORE PUSH1 0x5 DUP2 ADD SLOAD PUSH1 0xA0 DUP7 ADD MSTORE PUSH1 0x6 DUP2 ADD SLOAD PUSH1 0xC0 DUP7 ADD MSTORE PUSH1 0x7 DUP2 ADD SLOAD PUSH1 0xE0 DUP7 ADD MSTORE PUSH1 0xFF PUSH1 0x8 DUP3 ADD SLOAD AND ISZERO ISZERO PUSH2 0x100 DUP7 ADD MSTORE PUSH1 0x9 DUP2 ADD SLOAD PUSH2 0x120 DUP7 ADD MSTORE PUSH1 0xA DUP2 ADD SLOAD PUSH2 0x140 DUP7 ADD MSTORE PUSH1 0xB DUP2 ADD SLOAD PUSH2 0x160 DUP7 ADD MSTORE PUSH1 0xFF PUSH1 0xC DUP3 ADD SLOAD AND ISZERO ISZERO PUSH2 0x180 DUP7 ADD MSTORE PUSH1 0xD DUP2 ADD SLOAD PUSH2 0x1A0 DUP7 ADD MSTORE PUSH1 0xFF PUSH1 0xE DUP3 ADD SLOAD AND ISZERO ISZERO PUSH2 0x1C0 DUP7 ADD MSTORE PUSH1 0xF DUP2 ADD SLOAD PUSH2 0x1E0 DUP7 ADD MSTORE PUSH1 0x40 MLOAD DUP1 PUSH1 0x20 PUSH1 0x10 DUP5 ADD SLOAD SWAP2 DUP3 DUP2 MSTORE ADD SWAP1 PUSH1 0x10 DUP5 ADD DUP8 MSTORE PUSH1 0x20 DUP8 KECCAK256 SWAP1 DUP8 JUMPDEST DUP2 DUP2 LT PUSH2 0x133F JUMPI POP POP POP SWAP1 PUSH2 0x10A2 DUP2 PUSH1 0x18 SWAP5 SWAP4 SUB DUP3 PUSH2 0x5690 JUMP JUMPDEST PUSH2 0x200 DUP8 ADD MSTORE PUSH1 0x11 DUP2 ADD SLOAD PUSH2 0x220 DUP8 ADD MSTORE PUSH1 0x12 DUP2 ADD SLOAD PUSH2 0x240 DUP8 ADD MSTORE PUSH1 0xFF PUSH1 0x13 DUP3 ADD SLOAD AND ISZERO ISZERO PUSH2 0x260 DUP8 ADD MSTORE PUSH1 0x14 DUP2 ADD SLOAD PUSH2 0x280 DUP8 ADD MSTORE PUSH1 0x15 DUP2 ADD SLOAD PUSH2 0x2A0 DUP8 ADD MSTORE PUSH1 0x16 DUP2 ADD SLOAD PUSH2 0x2C0 DUP8 ADD MSTORE PUSH1 0x17 DUP2 ADD SLOAD PUSH2 0x2E0 DUP8 ADD MSTORE ADD SLOAD PUSH2 0x300 DUP6 ADD MSTORE DUP4 MSTORE PUSH1 0x4 CALLDATALOAD PUSH1 0x20 DUP5 ADD MSTORE TIMESTAMP PUSH1 0x40 DUP5 ADD MSTORE PUSH1 0x1 DUP2 ADD DUP3 MSTORE PUSH1 0x9 PUSH1 0x20 MSTORE PUSH1 0x40 DUP3 KECCAK256 DUP4 MLOAD DUP2 SSTORE PUSH1 0x20 DUP5 ADD MLOAD PUSH1 0x1 DUP3 ADD SSTORE PUSH1 0x40 DUP5 ADD MLOAD PUSH1 0x2 DUP3 ADD SSTORE PUSH1 0x60 DUP5 ADD MLOAD PUSH1 0x3 DUP3 ADD SSTORE PUSH1 0x80 DUP5 ADD MLOAD PUSH1 0x4 DUP3 ADD SSTORE PUSH1 0xA0 DUP5 ADD MLOAD PUSH1 0x5 DUP3 ADD SSTORE PUSH1 0xC0 DUP5 ADD MLOAD PUSH1 0x6 DUP3 ADD SSTORE PUSH1 0xE0 DUP5 ADD MLOAD PUSH1 0x7 DUP3 ADD SSTORE PUSH2 0x118B PUSH2 0x100 DUP6 ADD MLOAD ISZERO ISZERO PUSH1 0x8 DUP4 ADD SWAP1 PUSH1 0xFF DUP1 NOT DUP4 SLOAD AND SWAP2 ISZERO ISZERO AND OR SWAP1 SSTORE JUMP JUMPDEST PUSH2 0x120 DUP5 ADD MLOAD PUSH1 0x9 DUP3 ADD SSTORE PUSH2 0x140 DUP5 ADD MLOAD PUSH1 0xA DUP3 ADD SSTORE PUSH2 0x160 DUP5 ADD MLOAD PUSH1 0xB DUP3 ADD SSTORE PUSH2 0x11CC PUSH2 0x180 DUP6 ADD MLOAD ISZERO ISZERO PUSH1 0xC DUP4 ADD SWAP1 PUSH1 0xFF DUP1 NOT DUP4 SLOAD AND SWAP2 ISZERO ISZERO AND OR SWAP1 SSTORE JUMP JUMPDEST PUSH2 0x1A0 DUP5 ADD MLOAD PUSH1 0xD DUP3 ADD SSTORE PUSH2 0x11F7 PUSH2 0x1C0 DUP6 ADD MLOAD ISZERO ISZERO PUSH1 0xE DUP4 ADD SWAP1 PUSH1 0xFF DUP1 NOT DUP4 SLOAD AND SWAP2 ISZERO ISZERO AND OR SWAP1 SSTORE JUMP JUMPDEST PUSH2 0x1E0 DUP5 ADD MLOAD PUSH1 0xF DUP3 ADD SSTORE PUSH2 0x200 DUP5 ADD MLOAD SWAP4 DUP5 MLOAD SWAP5 PUSH1 0x1 PUSH1 0x1 PUSH1 0x40 SHL SUB DUP7 GT PUSH2 0x132B JUMPI PUSH1 0x1 PUSH1 0x40 SHL DUP7 GT PUSH2 0x132B JUMPI PUSH1 0x10 DUP4 ADD SLOAD DUP7 PUSH1 0x10 DUP6 ADD SSTORE DUP1 DUP8 LT PUSH2 0x1301 JUMPI JUMPDEST POP PUSH1 0x20 ADD SWAP5 PUSH1 0x10 DUP4 ADD DUP6 MSTORE PUSH1 0x20 DUP6 KECCAK256 SWAP6 DUP6 JUMPDEST DUP3 DUP2 LT PUSH2 0x12ED JUMPI DUP7 PUSH1 0x1 DUP8 DUP8 PUSH1 0x18 PUSH2 0x300 DUP10 PUSH2 0x220 DUP2 ADD MLOAD PUSH1 0x11 DUP6 ADD SSTORE PUSH2 0x240 DUP2 ADD MLOAD PUSH1 0x12 DUP6 ADD SSTORE PUSH2 0x1292 PUSH2 0x260 DUP3 ADD MLOAD ISZERO ISZERO PUSH1 0x13 DUP7 ADD SWAP1 PUSH1 0xFF DUP1 NOT DUP4 SLOAD AND SWAP2 ISZERO ISZERO AND OR SWAP1 SSTORE JUMP JUMPDEST PUSH2 0x280 DUP2 ADD MLOAD PUSH1 0x14 DUP6 ADD SSTORE PUSH2 0x2A0 DUP2 ADD MLOAD PUSH1 0x15 DUP6 ADD SSTORE PUSH2 0x2C0 DUP2 ADD MLOAD PUSH1 0x16 DUP6 ADD SSTORE PUSH2 0x2E0 DUP2 ADD MLOAD PUSH1 0x17 DUP6 ADD SSTORE ADD MLOAD SWAP2 ADD SSTORE CALLER DUP4 MSTORE PUSH1 0x6 PUSH1 0x20 MSTORE DUP2 DUP2 ADD PUSH1 0x40 DUP5 KECCAK256 SSTORE ADD DUP2 MSTORE PUSH1 0x7 PUSH1 0x20 MSTORE PUSH1 0x40 DUP2 KECCAK256 PUSH1 0x1 PUSH1 0xFF NOT DUP3 SLOAD AND OR SWAP1 SSTORE DUP1 RETURN JUMPDEST PUSH1 0x1 SWAP1 PUSH1 0x20 DUP4 MLOAD SWAP4 ADD SWAP3 DUP2 DUP11 ADD SSTORE ADD PUSH2 0x124A JUMP JUMPDEST PUSH1 0x10 DUP5 ADD DUP7 MSTORE PUSH1 0x20 DUP7 KECCAK256 SWAP1 DUP8 DUP3 ADD JUMPDEST DUP2 DUP4 ADD DUP2 LT PUSH2 0x1320 JUMPI POP POP PUSH2 0x1238 JUMP JUMPDEST DUP8 DUP2 SSTORE PUSH1 0x1 ADD PUSH2 0x1310 JUMP JUMPDEST PUSH4 0x4E487B71 PUSH1 0xE0 SHL DUP6 MSTORE PUSH1 0x41 PUSH1 0x4 MSTORE PUSH1 0x24 DUP6 REVERT JUMPDEST DUP3 SLOAD DUP5 MSTORE PUSH1 0x20 SWAP1 SWAP4 ADD SWAP3 PUSH1 0x1 SWAP3 DUP4 ADD SWAP3 ADD PUSH2 0x1088 JUMP JUMPDEST PUSH4 0x4E487B71 PUSH1 0xE0 SHL DUP3 MSTORE PUSH1 0x11 PUSH1 0x4 MSTORE PUSH1 0x24 DUP3 REVERT JUMPDEST PUSH1 0x64 PUSH1 0x40 MLOAD PUSH3 0x461BCD PUSH1 0xE5 SHL DUP2 MSTORE PUSH1 0x20 PUSH1 0x4 DUP3 ADD MSTORE PUSH1 0x4 PUSH1 0x24 DUP3 ADD MSTORE PUSH4 0x52523333 PUSH1 0xE0 SHL PUSH1 0x44 DUP3 ADD MSTORE REVERT JUMPDEST PUSH2 0x139D SWAP1 PUSH2 0x564B JUMP JUMPDEST PUSH2 0x79A JUMPI DUP1 CODESIZE PUSH2 0xF66 JUMP JUMPDEST POP DUP1 REVERT JUMPDEST PUSH2 0x13B5 SWAP1 PUSH2 0x564B JUMP JUMPDEST PUSH2 0x13A8 JUMPI DUP2 CODESIZE PUSH2 0xF30 JUMP JUMPDEST PUSH2 0x13C9 SWAP1 PUSH2 0x564B JUMP JUMPDEST PUSH2 0x13A8 JUMPI DUP2 CODESIZE PUSH2 0xEFC JUMP JUMPDEST SWAP1 SWAP3 POP PUSH1 0x20 DUP2 RETURNDATASIZE PUSH1 0x20 GT PUSH2 0x1400 JUMPI JUMPDEST DUP2 PUSH2 0x13F0 PUSH1 0x20 SWAP4 DUP4 PUSH2 0x5690 JUMP JUMPDEST DUP2 ADD SUB SLT PUSH2 0x6D4 JUMPI MLOAD SWAP2 CODESIZE PUSH2 0xECA JUMP JUMPDEST RETURNDATASIZE SWAP2 POP PUSH2 0x13E3 JUMP JUMPDEST PUSH2 0x1412 DUP4 SWAP2 PUSH2 0x564B JUMP JUMPDEST PUSH2 0x13A8 JUMPI CODESIZE PUSH2 0xE99 JUMP JUMPDEST POP PUSH1 0x20 CALLDATASIZE PUSH1 0x3 NOT ADD SLT PUSH2 0x79A JUMPI PUSH2 0x1431 PUSH2 0x5635 JUMP JUMPDEST PUSH1 0x5 SLOAD PUSH1 0x1 PUSH1 0x1 PUSH1 0xA0 SHL SUB AND DUP1 EXTCODESIZE ISZERO PUSH2 0x6A3 JUMPI PUSH1 0x40 MLOAD PUSH4 0xFCB260B PUSH1 0xE4 SHL DUP2 MSTORE CALLER PUSH1 0x4 DUP3 ADD MSTORE DUP4 SWAP1 DUP2 DUP2 PUSH1 0x24 DUP2 DUP7 GAS STATICCALL DUP1 ISZERO PUSH2 0x698 JUMPI PUSH2 0x1A13 JUMPI JUMPDEST POP POP PUSH1 0x1 DUP1 PUSH1 0xA0 SHL SUB DUP3 AND DUP4 MSTORE PUSH1 0x6 PUSH1 0x20 MSTORE PUSH1 0x40 DUP4 KECCAK256 SLOAD SWAP1 DUP2 DUP5 MSTORE PUSH1 0x7 PUSH1 0x20 MSTORE PUSH2 0x14A1 PUSH1 0x1 PUSH1 0xFF PUSH1 0x40 DUP8 KECCAK256 SLOAD AND ISZERO ISZERO EQ PUSH2 0x56B1 JUMP JUMPDEST DUP2 DUP5 MSTORE PUSH1 0x9 PUSH1 0x20 MSTORE PUSH1 0x40 DUP5 KECCAK256 SWAP3 PUSH1 0x40 MLOAD SWAP4 PUSH2 0x14BB DUP6 PUSH2 0x5674 JUMP JUMPDEST DUP1 SLOAD DUP6 MSTORE PUSH1 0x1 DUP2 ADD SLOAD PUSH1 0x20 DUP7 ADD MSTORE PUSH1 0x2 DUP2 ADD SLOAD PUSH1 0x40 DUP7 ADD MSTORE PUSH1 0x3 DUP2 ADD SLOAD PUSH1 0x60 DUP7 ADD MSTORE PUSH1 0x4 DUP2 ADD SLOAD PUSH1 0x80 DUP7 ADD MSTORE PUSH1 0x5 DUP2 ADD SLOAD PUSH1 0xA0 DUP7 ADD MSTORE PUSH1 0x6 DUP2 ADD SLOAD PUSH1 0xC0 DUP7 ADD MSTORE PUSH1 0x7 DUP2 ADD SLOAD PUSH1 0xE0 DUP7 ADD MSTORE PUSH1 0xFF PUSH1 0x8 DUP3 ADD SLOAD AND ISZERO ISZERO PUSH2 0x100 DUP7 ADD MSTORE PUSH1 0x9 DUP2 ADD SLOAD PUSH2 0x120 DUP7 ADD MSTORE PUSH1 0xA DUP2 ADD SLOAD PUSH2 0x140 DUP7 ADD MSTORE PUSH1 0xB DUP2 ADD SLOAD PUSH2 0x160 DUP7 ADD MSTORE PUSH1 0xFF PUSH1 0xC DUP3 ADD SLOAD AND ISZERO ISZERO PUSH2 0x180 DUP7 ADD MSTORE PUSH1 0xD DUP2 ADD SLOAD PUSH2 0x1A0 DUP7 ADD MSTORE PUSH1 0xFF PUSH1 0xE DUP3 ADD SLOAD AND ISZERO ISZERO PUSH2 0x1C0 DUP7 ADD MSTORE PUSH1 0xF DUP2 ADD SLOAD PUSH2 0x1E0 DUP7 ADD MSTORE PUSH1 0x40 MLOAD DUP1 PUSH1 0x20 PUSH1 0x10 DUP5 ADD SLOAD SWAP2 DUP3 DUP2 MSTORE ADD SWAP1 PUSH1 0x10 DUP5 ADD DUP10 MSTORE PUSH1 0x20 DUP10 KECCAK256 SWAP1 DUP10 JUMPDEST DUP2 DUP2 LT PUSH2 0x19FD JUMPI POP POP POP SWAP2 DUP2 PUSH2 0x15A8 PUSH1 0x18 SWAP4 PUSH1 0x24 SWAP8 SWAP7 SWAP6 SUB DUP3 PUSH2 0x5690 JUMP JUMPDEST PUSH2 0x200 DUP9 ADD MSTORE PUSH1 0x11 DUP2 ADD SLOAD PUSH2 0x220 DUP9 ADD MSTORE PUSH1 0x12 DUP2 ADD SLOAD PUSH2 0x240 DUP9 ADD MSTORE PUSH1 0x13 DUP2 ADD SLOAD PUSH1 0xFF AND ISZERO ISZERO PUSH2 0x260 DUP9 ADD MSTORE PUSH1 0x14 DUP2 ADD SLOAD PUSH2 0x280 DUP9 ADD MSTORE PUSH1 0x15 DUP2 ADD SLOAD PUSH2 0x2A0 DUP9 ADD MSTORE PUSH1 0x16 DUP2 ADD SLOAD PUSH2 0x2C0 DUP9 ADD MSTORE PUSH1 0x17 DUP2 ADD SLOAD PUSH2 0x2E0 DUP9 ADD MSTORE ADD SLOAD PUSH2 0x300 DUP7 ADD MSTORE PUSH1 0x1 SLOAD PUSH1 0x40 MLOAD PUSH4 0x521105AF PUSH1 0xE0 SHL DUP2 MSTORE CALLER PUSH1 0x4 DUP3 ADD MSTORE SWAP4 PUSH1 0x20 SWAP2 DUP6 SWAP2 SWAP1 DUP3 SWAP1 PUSH1 0x1 PUSH1 0x1 PUSH1 0xA0 SHL SUB AND GAS STATICCALL SWAP3 DUP4 ISZERO PUSH2 0x19F2 JUMPI DUP7 SWAP4 PUSH2 0x19BE JUMPI JUMPDEST POP PUSH1 0x20 DUP6 ADD MLOAD DUP4 SUB PUSH2 0x1993 JUMPI DUP6 SWAP3 DUP3 EXTCODESIZE ISZERO PUSH2 0x694 JUMPI PUSH1 0x40 MLOAD SWAP1 PUSH4 0x856CB9E7 PUSH1 0xE0 SHL DUP3 MSTORE PUSH1 0x4 DUP3 ADD MSTORE DUP4 DUP2 PUSH1 0x24 DUP2 DUP7 GAS STATICCALL SWAP1 DUP2 ISZERO PUSH2 0x72A JUMPI DUP5 SWAP2 PUSH2 0x197F JUMPI JUMPDEST POP POP PUSH1 0x3 SLOAD PUSH1 0x40 MLOAD PUSH4 0x18FE01C7 PUSH1 0xE2 SHL DUP2 MSTORE PUSH1 0x1 PUSH1 0x1 PUSH1 0xA0 SHL SUB SWAP3 DUP4 AND PUSH1 0x4 DUP3 ADD MSTORE SWAP2 PUSH1 0x20 SWAP2 DUP4 SWAP2 PUSH1 0x24 SWAP2 DUP4 SWAP2 AND GAS STATICCALL SWAP1 DUP2 ISZERO PUSH2 0x6E1 JUMPI DUP4 SWAP2 PUSH2 0x194A JUMPI JUMPDEST POP PUSH2 0x16C9 DUP6 MLOAD DUP3 EQ PUSH2 0x5715 JUMP JUMPDEST DUP2 EXTCODESIZE ISZERO PUSH2 0x6A3 JUMPI DUP3 SWAP1 PUSH1 0x24 PUSH1 0x40 MLOAD DUP1 SWAP5 DUP2 SWAP4 PUSH4 0x9490D075 PUSH1 0xE0 SHL DUP4 MSTORE PUSH1 0x4 DUP4 ADD MSTORE GAS STATICCALL DUP1 ISZERO PUSH2 0x698 JUMPI PUSH2 0x1936 JUMPI JUMPDEST POP POP PUSH2 0x1706 PUSH2 0x1F4 CALLVALUE EQ PUSH2 0x5873 JUMP JUMPDEST PUSH1 0x40 DUP3 ADD MLOAD ISZERO PUSH2 0x190B JUMPI PUSH1 0x60 DUP3 ADD MLOAD PUSH2 0x18E0 JUMPI PUSH2 0x172D PUSH2 0x12C PUSH2 0x41B PUSH1 0x40 DUP6 ADD MLOAD TIMESTAMP PUSH2 0x5747 JUMP JUMPDEST TIMESTAMP PUSH1 0x60 DUP4 ADD MSTORE DUP3 MSTORE PUSH1 0x9 PUSH1 0x20 MSTORE PUSH1 0x40 DUP3 KECCAK256 SWAP1 DUP1 MLOAD DUP3 SSTORE PUSH1 0x20 DUP2 ADD MLOAD PUSH1 0x1 DUP4 ADD SSTORE PUSH1 0x40 DUP2 ADD MLOAD PUSH1 0x2 DUP4 ADD SSTORE PUSH1 0x60 DUP2 ADD MLOAD PUSH1 0x3 DUP4 ADD SSTORE PUSH1 0x80 DUP2 ADD MLOAD PUSH1 0x4 DUP4 ADD SSTORE PUSH1 0xA0 DUP2 ADD MLOAD PUSH1 0x5 DUP4 ADD SSTORE PUSH1 0xC0 DUP2 ADD MLOAD PUSH1 0x6 DUP4 ADD SSTORE PUSH1 0xE0 DUP2 ADD MLOAD PUSH1 0x7 DUP4 ADD SSTORE PUSH2 0x17A9 PUSH2 0x100 DUP3 ADD MLOAD ISZERO ISZERO PUSH1 0x8 DUP5 ADD SWAP1 PUSH1 0xFF DUP1 NOT DUP4 SLOAD AND SWAP2 ISZERO ISZERO AND OR SWAP1 SSTORE JUMP JUMPDEST PUSH2 0x120 DUP2 ADD MLOAD PUSH1 0x9 DUP4 ADD SSTORE PUSH2 0x140 DUP2 ADD MLOAD PUSH1 0xA DUP4 ADD SSTORE PUSH2 0x160 DUP2 ADD MLOAD PUSH1 0xB DUP4 ADD SSTORE PUSH2 0x17EA PUSH2 0x180 DUP3 ADD MLOAD ISZERO ISZERO PUSH1 0xC DUP5 ADD SWAP1 PUSH1 0xFF DUP1 NOT DUP4 SLOAD AND SWAP2 ISZERO ISZERO AND OR SWAP1 SSTORE JUMP JUMPDEST PUSH2 0x1A0 DUP2 ADD MLOAD PUSH1 0xD DUP4 ADD SSTORE PUSH2 0x1815 PUSH2 0x1C0 DUP3 ADD MLOAD ISZERO ISZERO PUSH1 0xE DUP5 ADD SWAP1 PUSH1 0xFF DUP1 NOT DUP4 SLOAD AND SWAP2 ISZERO ISZERO AND OR SWAP1 SSTORE JUMP JUMPDEST PUSH2 0x1E0 DUP2 ADD MLOAD PUSH1 0xF DUP4 ADD SSTORE PUSH1 0x10 DUP3 ADD PUSH2 0x200 DUP3 ADD MLOAD SWAP1 DUP2 MLOAD SWAP2 PUSH1 0x1 PUSH1 0x1 PUSH1 0x40 SHL SUB DUP4 GT PUSH2 0x616 JUMPI PUSH1 0x1 PUSH1 0x40 SHL DUP4 GT PUSH2 0x616 JUMPI DUP2 SLOAD DUP4 DUP4 SSTORE DUP1 DUP5 LT PUSH2 0x18BA JUMPI JUMPDEST POP PUSH1 0x20 ADD SWAP1 DUP6 MSTORE PUSH1 0x20 DUP6 KECCAK256 DUP6 JUMPDEST DUP4 DUP2 LT PUSH2 0x18A6 JUMPI DUP7 DUP7 PUSH1 0x18 PUSH2 0x300 DUP9 PUSH2 0x220 DUP2 ADD MLOAD PUSH1 0x11 DUP6 ADD SSTORE PUSH2 0x240 DUP2 ADD MLOAD PUSH1 0x12 DUP6 ADD SSTORE PUSH2 0x5A8 PUSH2 0x260 DUP3 ADD MLOAD ISZERO ISZERO PUSH1 0x13 DUP7 ADD SWAP1 PUSH1 0xFF DUP1 NOT DUP4 SLOAD AND SWAP2 ISZERO ISZERO AND OR SWAP1 SSTORE JUMP JUMPDEST PUSH1 0x1 SWAP1 PUSH1 0x20 DUP5 MLOAD SWAP5 ADD SWAP4 DUP2 DUP5 ADD SSTORE ADD PUSH2 0x1861 JUMP JUMPDEST DUP3 DUP8 MSTORE DUP4 PUSH1 0x20 DUP9 KECCAK256 SWAP2 DUP3 ADD SWAP2 ADD JUMPDEST DUP2 DUP2 LT PUSH2 0x18D5 JUMPI POP PUSH2 0x1854 JUMP JUMPDEST DUP8 DUP2 SSTORE PUSH1 0x1 ADD PUSH2 0x18C8 JUMP JUMPDEST PUSH1 0x64 PUSH1 0x40 MLOAD PUSH3 0x461BCD PUSH1 0xE5 SHL DUP2 MSTORE PUSH1 0x20 PUSH1 0x4 DUP3 ADD MSTORE PUSH1 0x4 PUSH1 0x24 DUP3 ADD MSTORE PUSH4 0x5252343 PUSH1 0xE4 SHL PUSH1 0x44 DUP3 ADD MSTORE REVERT JUMPDEST PUSH1 0x64 PUSH1 0x40 MLOAD PUSH3 0x461BCD PUSH1 0xE5 SHL DUP2 MSTORE PUSH1 0x20 PUSH1 0x4 DUP3 ADD MSTORE PUSH1 0x4 PUSH1 0x24 DUP3 ADD MSTORE PUSH4 0x52523339 PUSH1 0xE0 SHL PUSH1 0x44 DUP3 ADD MSTORE REVERT JUMPDEST PUSH2 0x193F SWAP1 PUSH2 0x564B JUMP JUMPDEST PUSH2 0x6A3 JUMPI DUP3 CODESIZE PUSH2 0x16F7 JUMP JUMPDEST SWAP3 POP POP PUSH1 0x20 DUP3 RETURNDATASIZE PUSH1 0x20 GT PUSH2 0x1977 JUMPI JUMPDEST DUP2 PUSH2 0x1966 PUSH1 0x20 SWAP4 DUP4 PUSH2 0x5690 JUMP JUMPDEST DUP2 ADD SUB SLT PUSH2 0x6D4 JUMPI DUP5 SWAP2 MLOAD CODESIZE PUSH2 0x16BC JUMP JUMPDEST RETURNDATASIZE SWAP2 POP PUSH2 0x1959 JUMP JUMPDEST PUSH2 0x1988 SWAP1 PUSH2 0x564B JUMP JUMPDEST PUSH2 0x6A3 JUMPI DUP3 CODESIZE PUSH2 0x167E JUMP JUMPDEST PUSH1 0x64 PUSH1 0x40 MLOAD PUSH3 0x461BCD PUSH1 0xE5 SHL DUP2 MSTORE PUSH1 0x20 PUSH1 0x4 DUP3 ADD MSTORE PUSH1 0x4 PUSH1 0x24 DUP3 ADD MSTORE PUSH4 0x52523335 PUSH1 0xE0 SHL PUSH1 0x44 DUP3 ADD MSTORE REVERT JUMPDEST SWAP1 SWAP3 POP PUSH1 0x20 DUP2 RETURNDATASIZE PUSH1 0x20 GT PUSH2 0x19EA JUMPI JUMPDEST DUP2 PUSH2 0x19DA PUSH1 0x20 SWAP4 DUP4 PUSH2 0x5690 JUMP JUMPDEST DUP2 ADD SUB SLT PUSH2 0x6D4 JUMPI MLOAD SWAP2 CODESIZE PUSH2 0x1640 JUMP JUMPDEST RETURNDATASIZE SWAP2 POP PUSH2 0x19CD JUMP JUMPDEST PUSH1 0x40 MLOAD RETURNDATASIZE DUP9 DUP3 RETURNDATACOPY RETURNDATASIZE SWAP1 REVERT JUMPDEST DUP3 SLOAD DUP5 MSTORE PUSH1 0x20 SWAP1 SWAP4 ADD SWAP3 PUSH1 0x1 SWAP3 DUP4 ADD SWAP3 ADD PUSH2 0x158A JUMP JUMPDEST PUSH2 0x1A1C SWAP1 PUSH2 0x564B JUMP JUMPDEST PUSH2 0x6A3 JUMPI DUP3 CODESIZE PUSH2 0x146C JUMP JUMPDEST POP CALLVALUE PUSH2 0x79A JUMPI DUP1 PUSH1 0x3 NOT CALLDATASIZE ADD SLT PUSH2 0x79A JUMPI PUSH1 0x20 PUSH1 0xA SLOAD PUSH1 0x40 MLOAD SWAP1 DUP2 MSTORE RETURN JUMPDEST POP CALLVALUE PUSH2 0x79A JUMPI PUSH1 0x20 CALLDATASIZE PUSH1 0x3 NOT ADD SLT PUSH2 0x79A JUMPI PUSH1 0x4 CALLDATALOAD DUP2 MSTORE PUSH1 0x7 PUSH1 0x20 MSTORE PUSH1 0x40 DUP2 KECCAK256 PUSH1 0xFF NOT SWAP1 DUP2 DUP2 SLOAD AND SWAP1 SSTORE PUSH1 0x8 PUSH1 0x20 MSTORE PUSH1 0x1 PUSH1 0x40 DUP4 KECCAK256 SWAP2 DUP3 SLOAD AND OR SWAP1 SSTORE DUP1 RETURN JUMPDEST POP CALLVALUE PUSH2 0x79A JUMPI PUSH1 0x20 CALLDATASIZE PUSH1 0x3 NOT ADD SLT PUSH2 0x79A JUMPI PUSH1 0x4 CALLDATALOAD DUP2 MSTORE PUSH1 0x9 PUSH1 0x20 MSTORE PUSH1 0x40 DUP2 KECCAK256 PUSH1 0x40 MLOAD SWAP1 PUSH2 0x1AB1 DUP3 PUSH2 0x5674 JUMP JUMPDEST DUP1 SLOAD DUP3 MSTORE PUSH1 0x1 DUP2 ADD SLOAD PUSH1 0x20 DUP4 ADD MSTORE PUSH1 0x2 DUP2 ADD SLOAD PUSH1 0x40 DUP4 ADD MSTORE PUSH1 0x3 DUP2 ADD SLOAD PUSH1 0x60 DUP4 ADD MSTORE PUSH1 0x4 DUP2 ADD SLOAD PUSH1 0x80 DUP4 ADD MSTORE PUSH1 0x5 DUP2 ADD SLOAD PUSH1 0xA0 DUP4 ADD MSTORE PUSH1 0x6 DUP2 ADD SLOAD PUSH1 0xC0 DUP4 ADD MSTORE PUSH1 0x7 DUP2 ADD SLOAD PUSH1 0xE0 DUP4 ADD MSTORE PUSH1 0xFF PUSH1 0x8 DUP3 ADD SLOAD AND ISZERO ISZERO PUSH2 0x100 DUP4 ADD MSTORE PUSH1 0x9 DUP2 ADD SLOAD PUSH2 0x120 DUP4 ADD MSTORE PUSH1 0xA DUP2 ADD SLOAD PUSH2 0x140 DUP4 ADD MSTORE PUSH1 0xB DUP2 ADD SLOAD PUSH2 0x160 DUP4 ADD MSTORE PUSH1 0xFF PUSH1 0xC DUP3 ADD SLOAD AND ISZERO ISZERO PUSH2 0x180 DUP4 ADD MSTORE PUSH1 0xD DUP2 ADD SLOAD PUSH2 0x1A0 DUP4 ADD MSTORE PUSH1 0xFF PUSH1 0xE DUP3 ADD SLOAD AND ISZERO ISZERO PUSH2 0x1C0 DUP4 ADD MSTORE PUSH1 0xF DUP2 ADD SLOAD PUSH2 0x1E0 DUP4 ADD MSTORE PUSH1 0x40 MLOAD DUP1 PUSH1 0x80 MSTORE PUSH1 0x20 PUSH1 0x10 DUP4 ADD SLOAD SWAP2 DUP3 DUP2 MSTORE ADD SWAP1 DUP2 PUSH2 0x1C0 MSTORE PUSH1 0x10 DUP4 ADD DUP6 MSTORE PUSH1 0x20 DUP6 KECCAK256 SWAP1 DUP6 JUMPDEST DUP2 DUP2 LT PUSH2 0x1DDD JUMPI POP POP PUSH1 0x80 MLOAD PUSH2 0x1BA2 SWAP3 DUP2 SWAP1 SUB SWAP2 POP PUSH2 0x5690 JUMP JUMPDEST PUSH1 0x80 MLOAD PUSH2 0x200 DUP4 ADD MSTORE PUSH1 0x11 DUP2 ADD SLOAD PUSH1 0xC0 MSTORE PUSH1 0xC0 MLOAD PUSH2 0x220 DUP4 ADD MSTORE PUSH1 0x12 DUP2 ADD SLOAD PUSH1 0xE0 MSTORE PUSH1 0xE0 MLOAD PUSH2 0x240 DUP4 ADD MSTORE PUSH1 0x13 DUP2 ADD SLOAD PUSH1 0xFF AND PUSH2 0x100 MSTORE PUSH2 0x100 MLOAD ISZERO ISZERO PUSH2 0x260 DUP4 ADD MSTORE PUSH1 0x14 DUP2 ADD SLOAD PUSH2 0x120 MSTORE PUSH2 0x120 MLOAD PUSH2 0x280 DUP4 ADD MSTORE PUSH1 0x15 DUP2 ADD SLOAD PUSH2 0x140 MSTORE PUSH2 0x140 MLOAD PUSH2 0x2A0 DUP4 ADD MSTORE PUSH1 0x16 DUP2 ADD SLOAD PUSH2 0x160 MSTORE PUSH2 0x160 MLOAD PUSH2 0x2C0 DUP4 ADD MSTORE PUSH1 0x17 DUP2 ADD SLOAD PUSH2 0x180 MSTORE PUSH2 0x180 MLOAD PUSH2 0x2E0 DUP4 ADD MSTORE PUSH1 0x18 ADD SLOAD PUSH2 0x1A0 MSTORE PUSH2 0x1A0 MLOAD PUSH2 0x300 DUP3 ADD MSTORE DUP1 MLOAD SWAP1 PUSH1 0x20 DUP2 ADD MLOAD PUSH2 0x1E0 MSTORE PUSH1 0x40 DUP2 ADD MLOAD PUSH1 0x60 DUP3 ADD MLOAD PUSH1 0x80 DUP4 ADD MLOAD PUSH1 0xA0 DUP5 ADD MLOAD PUSH1 0xC0 DUP6 ADD MLOAD PUSH1 0xE0 DUP7 ADD MLOAD PUSH2 0x100 DUP8 ADD MLOAD ISZERO ISZERO SWAP1 PUSH2 0x120 DUP9 ADD MLOAD SWAP3 PUSH2 0x140 DUP10 ADD MLOAD SWAP5 PUSH2 0x160 DUP11 ADD MLOAD SWAP7 PUSH2 0x180 DUP12 ADD MLOAD ISZERO ISZERO SWAP9 PUSH2 0x1A0 DUP13 ADD MLOAD SWAP11 PUSH2 0x1C0 DUP14 ADD MLOAD ISZERO ISZERO SWAP13 PUSH2 0x1E0 ADD MLOAD SWAP14 PUSH1 0x40 MLOAD PUSH1 0xA0 MSTORE PUSH1 0xA0 MLOAD MSTORE PUSH2 0x1E0 MLOAD PUSH1 0xA0 MLOAD PUSH1 0x20 ADD MSTORE PUSH1 0xA0 MLOAD PUSH1 0x40 ADD MSTORE PUSH1 0xA0 MLOAD PUSH1 0x60 ADD MSTORE PUSH1 0xA0 MLOAD PUSH1 0x80 ADD MSTORE PUSH1 0xA0 MLOAD PUSH1 0xA0 ADD MSTORE PUSH1 0xA0 MLOAD PUSH1 0xC0 ADD MSTORE PUSH1 0xA0 MLOAD PUSH1 0xE0 ADD MSTORE PUSH1 0xA0 MLOAD PUSH2 0x100 ADD MSTORE PUSH1 0xA0 MLOAD PUSH2 0x120 ADD MSTORE PUSH1 0xA0 MLOAD PUSH2 0x140 ADD MSTORE PUSH1 0xA0 MLOAD PUSH2 0x160 ADD MSTORE PUSH1 0xA0 MLOAD PUSH2 0x180 ADD MSTORE PUSH1 0xA0 MLOAD PUSH2 0x1A0 ADD MSTORE PUSH1 0xA0 MLOAD PUSH2 0x1C0 ADD MSTORE PUSH1 0xA0 MLOAD PUSH2 0x1E0 ADD MSTORE PUSH1 0xA0 MLOAD PUSH2 0x200 ADD PUSH2 0x320 SWAP1 MSTORE PUSH1 0xA0 MLOAD POP PUSH1 0x80 MLOAD MLOAD SWAP1 DUP2 PUSH1 0xA0 MLOAD PUSH2 0x320 ADD MSTORE PUSH1 0xA0 MLOAD PUSH2 0x340 ADD SWAP2 PUSH2 0x1C0 MLOAD SWAP2 JUMPDEST DUP2 DUP2 LT PUSH2 0x1DC7 JUMPI DUP4 PUSH1 0xC0 MLOAD PUSH2 0x220 PUSH1 0xA0 MLOAD ADD MSTORE PUSH1 0xE0 MLOAD PUSH2 0x240 PUSH1 0xA0 MLOAD ADD MSTORE PUSH2 0x100 MLOAD ISZERO ISZERO PUSH2 0x260 PUSH1 0xA0 MLOAD ADD MSTORE PUSH2 0x120 MLOAD PUSH2 0x280 PUSH1 0xA0 MLOAD ADD MSTORE PUSH2 0x140 MLOAD PUSH2 0x2A0 PUSH1 0xA0 MLOAD ADD MSTORE PUSH2 0x160 MLOAD PUSH2 0x2C0 PUSH1 0xA0 MLOAD ADD MSTORE PUSH2 0x180 MLOAD PUSH2 0x2E0 PUSH1 0xA0 MLOAD ADD MSTORE PUSH2 0x1A0 MLOAD PUSH2 0x300 PUSH1 0xA0 MLOAD ADD MSTORE PUSH1 0xA0 MLOAD SWAP1 SUB PUSH1 0xA0 MLOAD RETURN JUMPDEST DUP3 MLOAD DUP5 MSTORE PUSH1 0x20 SWAP4 DUP5 ADD SWAP4 SWAP1 SWAP3 ADD SWAP2 PUSH1 0x1 ADD PUSH2 0x1D55 JUMP JUMPDEST DUP3 SLOAD DUP5 MSTORE PUSH1 0x20 SWAP1 SWAP4 ADD SWAP3 PUSH1 0x1 SWAP3 DUP4 ADD SWAP3 ADD PUSH2 0x1B88 JUMP JUMPDEST POP CALLVALUE PUSH2 0x79A JUMPI DUP1 PUSH1 0x3 NOT CALLDATASIZE ADD SLT PUSH2 0x79A JUMPI PUSH1 0x20 PUSH1 0x40 MLOAD PUSH2 0x12C DUP2 MSTORE RETURN JUMPDEST POP CALLVALUE PUSH2 0x79A JUMPI PUSH1 0x40 CALLDATASIZE PUSH1 0x3 NOT ADD SLT PUSH2 0x79A JUMPI PUSH1 0x4 CALLDATALOAD PUSH1 0x1 PUSH1 0x1 PUSH1 0x40 SHL SUB DUP2 GT PUSH2 0x13A8 JUMPI CALLDATASIZE PUSH1 0x23 DUP3 ADD SLT ISZERO PUSH2 0x13A8 JUMPI DUP1 PUSH1 0x4 ADD CALLDATALOAD SWAP1 PUSH1 0x1 PUSH1 0x1 PUSH1 0x40 SHL SUB DUP3 GT PUSH2 0x21C3 JUMPI DUP2 PUSH1 0x5 SHL PUSH1 0x40 MLOAD SWAP3 PUSH2 0x1E67 PUSH1 0x20 DUP4 ADD DUP6 PUSH2 0x5690 JUMP JUMPDEST DUP4 MSTORE PUSH1 0x24 PUSH1 0x20 DUP5 ADD SWAP2 DUP4 ADD ADD SWAP2 CALLDATASIZE DUP4 GT PUSH2 0x21BF JUMPI PUSH1 0x24 ADD SWAP1 JUMPDEST DUP3 DUP3 LT PUSH2 0x21AF JUMPI POP POP POP PUSH1 0x24 CALLDATALOAD DUP3 MSTORE PUSH1 0x9 PUSH1 0x20 MSTORE PUSH1 0x40 DUP3 KECCAK256 SWAP1 PUSH1 0x40 MLOAD SWAP2 PUSH2 0x1EA6 DUP4 PUSH2 0x5674 JUMP JUMPDEST DUP1 SLOAD DUP4 MSTORE PUSH1 0x1 DUP2 ADD SLOAD PUSH1 0x20 DUP5 ADD MSTORE PUSH1 0x2 DUP2 ADD SLOAD PUSH1 0x40 DUP5 ADD MSTORE PUSH1 0x3 DUP2 ADD SLOAD PUSH1 0x60 DUP5 ADD MSTORE PUSH1 0x4 DUP2 ADD SLOAD PUSH1 0x80 DUP5 ADD MSTORE PUSH1 0x5 DUP2 ADD SLOAD PUSH1 0xA0 DUP5 ADD MSTORE PUSH1 0x6 DUP2 ADD SLOAD PUSH1 0xC0 DUP5 ADD MSTORE PUSH1 0x7 DUP2 ADD SLOAD PUSH1 0xE0 DUP5 ADD MSTORE PUSH1 0xFF PUSH1 0x8 DUP3 ADD SLOAD AND ISZERO ISZERO PUSH2 0x100 DUP5 ADD MSTORE PUSH1 0x9 DUP2 ADD SLOAD PUSH2 0x120 DUP5 ADD MSTORE PUSH1 0xA DUP2 ADD SLOAD PUSH2 0x140 DUP5 ADD MSTORE PUSH1 0xB DUP2 ADD SLOAD PUSH2 0x160 DUP5 ADD MSTORE PUSH1 0xFF PUSH1 0xC DUP3 ADD SLOAD AND ISZERO ISZERO PUSH2 0x180 DUP5 ADD MSTORE PUSH1 0xD DUP2 ADD SLOAD PUSH2 0x1A0 DUP5 ADD MSTORE PUSH1 0xFF PUSH1 0xE DUP3 ADD SLOAD AND ISZERO ISZERO PUSH2 0x1C0 DUP5 ADD MSTORE PUSH1 0xF DUP2 ADD SLOAD PUSH2 0x1E0 DUP5 ADD MSTORE PUSH1 0x10 DUP2 ADD PUSH1 0x40 MLOAD SWAP1 DUP2 PUSH1 0x20 DUP3 SLOAD SWAP2 DUP3 DUP2 MSTORE ADD SWAP2 DUP8 MSTORE PUSH1 0x20 DUP8 KECCAK256 SWAP1 DUP8 JUMPDEST DUP2 DUP2 LT PUSH2 0x2199 JUMPI POP POP POP DUP2 PUSH1 0x18 SWAP4 SWAP3 PUSH2 0x1F8D SWAP3 SUB SWAP1 PUSH2 0x5690 JUMP JUMPDEST PUSH1 0x12 DUP2 ADD SLOAD PUSH2 0x240 DUP6 ADD MSTORE PUSH1 0xFF PUSH1 0x13 DUP3 ADD SLOAD AND ISZERO ISZERO PUSH2 0x260 DUP6 ADD MSTORE PUSH1 0x14 DUP2 ADD SLOAD PUSH2 0x280 DUP6 ADD MSTORE PUSH1 0x15 DUP2 ADD SLOAD PUSH2 0x2A0 DUP6 ADD MSTORE PUSH1 0x16 DUP2 ADD SLOAD PUSH2 0x2C0 DUP6 ADD MSTORE PUSH1 0x17 DUP2 ADD SLOAD PUSH2 0x2E0 DUP6 ADD MSTORE ADD SLOAD PUSH2 0x300 DUP4 ADD MSTORE PUSH2 0x200 DUP3 ADD MSTORE TIMESTAMP PUSH2 0x220 DUP3 ADD MSTORE PUSH1 0x24 CALLDATALOAD DUP3 MSTORE PUSH1 0x9 PUSH1 0x20 MSTORE PUSH1 0x40 DUP3 KECCAK256 SWAP1 DUP1 MLOAD DUP3 SSTORE PUSH1 0x20 DUP2 ADD MLOAD PUSH1 0x1 DUP4 ADD SSTORE PUSH1 0x40 DUP2 ADD MLOAD PUSH1 0x2 DUP4 ADD SSTORE PUSH1 0x60 DUP2 ADD MLOAD PUSH1 0x3 DUP4 ADD SSTORE PUSH1 0x80 DUP2 ADD MLOAD PUSH1 0x4 DUP4 ADD SSTORE PUSH1 0xA0 DUP2 ADD MLOAD PUSH1 0x5 DUP4 ADD SSTORE PUSH1 0xC0 DUP2 ADD MLOAD PUSH1 0x6 DUP4 ADD SSTORE PUSH1 0xE0 DUP2 ADD MLOAD PUSH1 0x7 DUP4 ADD SSTORE PUSH2 0x2062 PUSH2 0x100 DUP3 ADD MLOAD ISZERO ISZERO PUSH1 0x8 DUP5 ADD SWAP1 PUSH1 0xFF DUP1 NOT DUP4 SLOAD AND SWAP2 ISZERO ISZERO AND OR SWAP1 SSTORE JUMP JUMPDEST PUSH2 0x120 DUP2 ADD MLOAD PUSH1 0x9 DUP4 ADD SSTORE PUSH2 0x140 DUP2 ADD MLOAD PUSH1 0xA DUP4 ADD SSTORE PUSH2 0x160 DUP2 ADD MLOAD PUSH1 0xB DUP4 ADD SSTORE PUSH2 0x20A3 PUSH2 0x180 DUP3 ADD MLOAD ISZERO ISZERO PUSH1 0xC DUP5 ADD SWAP1 PUSH1 0xFF DUP1 NOT DUP4 SLOAD AND SWAP2 ISZERO ISZERO AND OR SWAP1 SSTORE JUMP JUMPDEST PUSH2 0x1A0 DUP2 ADD MLOAD PUSH1 0xD DUP4 ADD SSTORE PUSH2 0x20CE PUSH2 0x1C0 DUP3 ADD MLOAD ISZERO ISZERO PUSH1 0xE DUP5 ADD SWAP1 PUSH1 0xFF DUP1 NOT DUP4 SLOAD AND SWAP2 ISZERO ISZERO AND OR SWAP1 SSTORE JUMP JUMPDEST PUSH2 0x1E0 DUP2 ADD MLOAD PUSH1 0xF DUP4 ADD SSTORE PUSH1 0x10 DUP3 ADD PUSH2 0x200 DUP3 ADD MLOAD SWAP1 DUP2 MLOAD SWAP2 PUSH1 0x1 PUSH1 0x1 PUSH1 0x40 SHL SUB DUP4 GT PUSH2 0x616 JUMPI PUSH1 0x1 PUSH1 0x40 SHL DUP4 GT PUSH2 0x616 JUMPI DUP2 SLOAD DUP4 DUP4 SSTORE DUP1 DUP5 LT PUSH2 0x2173 JUMPI JUMPDEST POP PUSH1 0x20 ADD SWAP1 DUP6 MSTORE PUSH1 0x20 DUP6 KECCAK256 DUP6 JUMPDEST DUP4 DUP2 LT PUSH2 0x215F JUMPI DUP7 DUP7 PUSH1 0x18 PUSH2 0x300 DUP9 PUSH2 0x220 DUP2 ADD MLOAD PUSH1 0x11 DUP6 ADD SSTORE PUSH2 0x240 DUP2 ADD MLOAD PUSH1 0x12 DUP6 ADD SSTORE PUSH2 0x5A8 PUSH2 0x260 DUP3 ADD MLOAD ISZERO ISZERO PUSH1 0x13 DUP7 ADD SWAP1 PUSH1 0xFF DUP1 NOT DUP4 SLOAD AND SWAP2 ISZERO ISZERO AND OR SWAP1 SSTORE JUMP JUMPDEST PUSH1 0x1 SWAP1 PUSH1 0x20 DUP5 MLOAD SWAP5 ADD SWAP4 DUP2 DUP5 ADD SSTORE ADD PUSH2 0x211A JUMP JUMPDEST DUP3 DUP8 MSTORE DUP4 PUSH1 0x20 DUP9 KECCAK256 SWAP2 DUP3 ADD SWAP2 ADD JUMPDEST DUP2 DUP2 LT PUSH2 0x218E JUMPI POP PUSH2 0x210D JUMP JUMPDEST DUP8 DUP2 SSTORE PUSH1 0x1 ADD PUSH2 0x2181 JUMP JUMPDEST DUP3 SLOAD DUP5 MSTORE PUSH1 0x20 SWAP1 SWAP4 ADD SWAP3 PUSH1 0x1 SWAP3 DUP4 ADD SWAP3 ADD PUSH2 0x1F73 JUMP JUMPDEST DUP2 CALLDATALOAD DUP2 MSTORE PUSH1 0x20 SWAP2 DUP3 ADD SWAP2 ADD PUSH2 0x1E80 JUMP JUMPDEST DUP5 DUP1 REVERT JUMPDEST PUSH4 0x4E487B71 PUSH1 0xE0 SHL DUP4 MSTORE PUSH1 0x41 PUSH1 0x4 MSTORE PUSH1 0x24 DUP4 REVERT JUMPDEST POP CALLVALUE PUSH2 0x79A JUMPI PUSH2 0x21E6 CALLDATASIZE PUSH2 0x5616 JUMP JUMPDEST PUSH1 0x5 SLOAD PUSH1 0x1 PUSH1 0x1 PUSH1 0xA0 SHL SUB AND SWAP2 SWAP1 DUP3 EXTCODESIZE ISZERO PUSH2 0x694 JUMPI PUSH1 0x40 MLOAD PUSH4 0x423164BF PUSH1 0xE1 SHL DUP2 MSTORE CALLER PUSH1 0x4 DUP3 ADD MSTORE DUP5 SWAP1 DUP2 DUP2 PUSH1 0x24 DUP2 DUP9 GAS STATICCALL DUP1 ISZERO PUSH2 0x698 JUMPI PUSH2 0x284D JUMPI JUMPDEST POP POP CALLER DUP5 MSTORE PUSH1 0x6 PUSH1 0x20 MSTORE PUSH1 0x40 DUP5 KECCAK256 SLOAD SWAP2 DUP3 DUP6 MSTORE PUSH1 0x7 PUSH1 0x20 MSTORE PUSH2 0x2250 PUSH1 0x1 PUSH1 0xFF PUSH1 0x40 DUP9 KECCAK256 SLOAD AND ISZERO ISZERO EQ PUSH2 0x56B1 JUMP JUMPDEST DUP3 DUP6 MSTORE PUSH1 0x9 PUSH1 0x20 MSTORE DUP5 PUSH1 0x40 DUP2 KECCAK256 SWAP5 PUSH1 0x40 MLOAD SWAP6 PUSH2 0x226B DUP8 PUSH2 0x5674 JUMP JUMPDEST DUP1 SLOAD DUP8 MSTORE PUSH1 0x1 DUP2 ADD SLOAD PUSH1 0x20 DUP9 ADD MSTORE PUSH1 0x2 DUP2 ADD SLOAD PUSH1 0x40 DUP9 ADD MSTORE PUSH1 0x3 DUP2 ADD SLOAD PUSH1 0x60 DUP9 ADD MSTORE PUSH1 0x4 DUP2 ADD SLOAD PUSH1 0x80 DUP9 ADD MSTORE PUSH1 0x5 DUP2 ADD SLOAD PUSH1 0xA0 DUP9 ADD MSTORE PUSH1 0x6 DUP2 ADD SLOAD PUSH1 0xC0 DUP9 ADD MSTORE PUSH1 0x7 DUP2 ADD SLOAD PUSH1 0xE0 DUP9 ADD MSTORE PUSH1 0xFF PUSH1 0x8 DUP3 ADD SLOAD AND ISZERO ISZERO PUSH2 0x100 DUP9 ADD MSTORE PUSH1 0x9 DUP2 ADD SLOAD PUSH2 0x120 DUP9 ADD MSTORE PUSH1 0xA DUP2 ADD SLOAD PUSH2 0x140 DUP9 ADD MSTORE PUSH1 0xB DUP2 ADD SLOAD PUSH2 0x160 DUP9 ADD MSTORE PUSH1 0xFF PUSH1 0xC DUP3 ADD SLOAD AND ISZERO ISZERO PUSH2 0x180 DUP9 ADD MSTORE PUSH1 0xD DUP2 ADD SLOAD PUSH2 0x1A0 DUP9 ADD MSTORE PUSH1 0xFF PUSH1 0xE DUP3 ADD SLOAD AND ISZERO ISZERO PUSH2 0x1C0 DUP9 ADD MSTORE PUSH1 0xF DUP2 ADD SLOAD PUSH2 0x1E0 DUP9 ADD MSTORE PUSH1 0x40 MLOAD DUP1 PUSH1 0x20 PUSH1 0x10 DUP5 ADD SLOAD SWAP2 DUP3 DUP2 MSTORE ADD SWAP1 PUSH1 0x10 DUP5 ADD DUP7 MSTORE PUSH1 0x20 DUP7 KECCAK256 SWAP1 DUP7 JUMPDEST DUP2 DUP2 LT PUSH2 0x2834 JUMPI POP POP POP SWAP1 PUSH2 0x2354 DUP2 PUSH1 0x18 SWAP5 SWAP4 SUB DUP3 PUSH2 0x5690 JUMP JUMPDEST PUSH2 0x200 DUP10 ADD MSTORE PUSH1 0x11 DUP2 ADD SLOAD PUSH2 0x220 DUP10 ADD MSTORE PUSH1 0x12 DUP2 ADD SLOAD PUSH2 0x240 DUP10 ADD MSTORE PUSH1 0x13 DUP2 ADD SLOAD PUSH1 0xFF AND ISZERO ISZERO PUSH2 0x260 DUP10 ADD MSTORE PUSH1 0x14 DUP2 ADD SLOAD PUSH2 0x280 DUP10 ADD MSTORE PUSH1 0x15 DUP2 ADD SLOAD PUSH2 0x2A0 DUP10 ADD MSTORE PUSH1 0x16 DUP2 ADD SLOAD PUSH2 0x2C0 DUP10 ADD MSTORE PUSH1 0x17 DUP2 ADD SLOAD PUSH2 0x2E0 DUP10 ADD MSTORE ADD SLOAD PUSH2 0x300 DUP8 ADD MSTORE PUSH1 0x3 SLOAD PUSH1 0x40 MLOAD PUSH4 0x18FE01C7 PUSH1 0xE2 SHL DUP2 MSTORE CALLER PUSH1 0x4 DUP3 ADD MSTORE SWAP1 PUSH1 0x20 SWAP1 DUP3 SWAP1 PUSH1 0x24 SWAP1 DUP3 SWAP1 PUSH1 0x1 PUSH1 0x1 PUSH1 0xA0 SHL SUB AND GAS STATICCALL SWAP1 DUP2 ISZERO PUSH2 0x6E1 JUMPI DUP4 SWAP2 PUSH2 0x27FF JUMPI JUMPDEST POP PUSH2 0x23FB DUP8 MLOAD DUP3 EQ PUSH2 0x5715 JUMP JUMPDEST DUP2 EXTCODESIZE ISZERO PUSH2 0x6A3 JUMPI DUP3 SWAP1 PUSH1 0x24 PUSH1 0x40 MLOAD DUP1 SWAP5 DUP2 SWAP4 PUSH4 0x9490D075 PUSH1 0xE0 SHL DUP4 MSTORE PUSH1 0x4 DUP4 ADD MSTORE GAS STATICCALL DUP1 ISZERO PUSH2 0x698 JUMPI PUSH2 0x27EB JUMPI JUMPDEST POP POP PUSH2 0x243A PUSH1 0x20 DUP6 ADD MLOAD DUP3 EQ PUSH2 0x56E3 JUMP JUMPDEST PUSH1 0x1 SLOAD PUSH1 0x40 MLOAD PUSH4 0x6287FA13 PUSH1 0xE1 SHL DUP2 MSTORE PUSH1 0x4 DUP2 ADD DUP4 SWAP1 MSTORE SWAP1 PUSH1 0x80 SWAP1 DUP3 SWAP1 PUSH1 0x24 SWAP1 DUP3 SWAP1 PUSH1 0x1 PUSH1 0x1 PUSH1 0xA0 SHL SUB AND GAS STATICCALL SWAP1 DUP2 ISZERO PUSH2 0x19F2 JUMPI PUSH2 0x2492 SWAP2 DUP8 SWAP2 DUP9 SWAP2 PUSH2 0x27C2 JUMPI JUMPDEST POP PUSH2 0x2487 SWAP1 ISZERO ISZERO PUSH2 0x57DD JUMP JUMPDEST PUSH1 0xA0 DUP7 ADD MLOAD EQ PUSH2 0x580F JUMP JUMPDEST PUSH1 0xE0 DUP5 ADD MLOAD ISZERO PUSH2 0x2797 JUMPI PUSH2 0x120 DUP5 ADD MLOAD PUSH2 0x276C JUMPI DUP5 SWAP2 PUSH2 0x24BC PUSH2 0x12C PUSH2 0x41B PUSH1 0xE0 DUP9 ADD MLOAD TIMESTAMP PUSH2 0x5747 JUMP JUMPDEST ISZERO DUP1 ISZERO PUSH2 0x100 DUP7 ADD MSTORE TIMESTAMP PUSH2 0x120 DUP7 ADD MSTORE PUSH2 0x267E JUMPI JUMPDEST POP MSTORE PUSH1 0x9 PUSH1 0x20 MSTORE PUSH1 0x40 DUP3 KECCAK256 SWAP1 DUP1 MLOAD DUP3 SSTORE PUSH1 0x20 DUP2 ADD MLOAD PUSH1 0x1 DUP4 ADD SSTORE PUSH1 0x40 DUP2 ADD MLOAD PUSH1 0x2 DUP4 ADD SSTORE PUSH1 0x60 DUP2 ADD MLOAD PUSH1 0x3 DUP4 ADD SSTORE PUSH1 0x80 DUP2 ADD MLOAD PUSH1 0x4 DUP4 ADD SSTORE PUSH1 0xA0 DUP2 ADD MLOAD PUSH1 0x5 DUP4 ADD SSTORE PUSH1 0xC0 DUP2 ADD MLOAD PUSH1 0x6 DUP4 ADD SSTORE PUSH1 0xE0 DUP2 ADD MLOAD PUSH1 0x7 DUP4 ADD SSTORE PUSH2 0x2547 PUSH2 0x100 DUP3 ADD MLOAD ISZERO ISZERO PUSH1 0x8 DUP5 ADD SWAP1 PUSH1 0xFF DUP1 NOT DUP4 SLOAD AND SWAP2 ISZERO ISZERO AND OR SWAP1 SSTORE JUMP JUMPDEST PUSH2 0x120 DUP2 ADD MLOAD PUSH1 0x9 DUP4 ADD SSTORE PUSH2 0x140 DUP2 ADD MLOAD PUSH1 0xA DUP4 ADD SSTORE PUSH2 0x160 DUP2 ADD MLOAD PUSH1 0xB DUP4 ADD SSTORE PUSH2 0x2588 PUSH2 0x180 DUP3 ADD MLOAD ISZERO ISZERO PUSH1 0xC DUP5 ADD SWAP1 PUSH1 0xFF DUP1 NOT DUP4 SLOAD AND SWAP2 ISZERO ISZERO AND OR SWAP1 SSTORE JUMP JUMPDEST PUSH2 0x1A0 DUP2 ADD MLOAD PUSH1 0xD DUP4 ADD SSTORE PUSH2 0x25B3 PUSH2 0x1C0 DUP3 ADD MLOAD ISZERO ISZERO PUSH1 0xE DUP5 ADD SWAP1 PUSH1 0xFF DUP1 NOT DUP4 SLOAD AND SWAP2 ISZERO ISZERO AND OR SWAP1 SSTORE JUMP JUMPDEST PUSH2 0x1E0 DUP2 ADD MLOAD PUSH1 0xF DUP4 ADD SSTORE PUSH1 0x10 DUP3 ADD PUSH2 0x200 DUP3 ADD MLOAD SWAP1 DUP2 MLOAD SWAP2 PUSH1 0x1 PUSH1 0x1 PUSH1 0x40 SHL SUB DUP4 GT PUSH2 0x616 JUMPI PUSH1 0x1 PUSH1 0x40 SHL DUP4 GT PUSH2 0x616 JUMPI DUP2 SLOAD DUP4 DUP4 SSTORE DUP1 DUP5 LT PUSH2 0x2658 JUMPI JUMPDEST POP PUSH1 0x20 ADD SWAP1 DUP6 MSTORE PUSH1 0x20 DUP6 KECCAK256 DUP6 JUMPDEST DUP4 DUP2 LT PUSH2 0x2644 JUMPI DUP7 DUP7 PUSH1 0x18 PUSH2 0x300 DUP9 PUSH2 0x220 DUP2 ADD MLOAD PUSH1 0x11 DUP6 ADD SSTORE PUSH2 0x240 DUP2 ADD MLOAD PUSH1 0x12 DUP6 ADD SSTORE PUSH2 0x5A8 PUSH2 0x260 DUP3 ADD MLOAD ISZERO ISZERO PUSH1 0x13 DUP7 ADD SWAP1 PUSH1 0xFF DUP1 NOT DUP4 SLOAD AND SWAP2 ISZERO ISZERO AND OR SWAP1 SSTORE JUMP JUMPDEST PUSH1 0x1 SWAP1 PUSH1 0x20 DUP5 MLOAD SWAP5 ADD SWAP4 DUP2 DUP5 ADD SSTORE ADD PUSH2 0x25FF JUMP JUMPDEST DUP3 DUP8 MSTORE DUP4 PUSH1 0x20 DUP9 KECCAK256 SWAP2 DUP3 ADD SWAP2 ADD JUMPDEST DUP2 DUP2 LT PUSH2 0x2673 JUMPI POP PUSH2 0x25F2 JUMP JUMPDEST DUP8 DUP2 SSTORE PUSH1 0x1 ADD PUSH2 0x2666 JUMP JUMPDEST DUP3 DUP3 MSTORE PUSH1 0x7 PUSH1 0x20 MSTORE PUSH1 0x40 DUP3 KECCAK256 PUSH1 0xFF NOT SWAP1 DUP2 DUP2 SLOAD AND SWAP1 SSTORE PUSH1 0x8 PUSH1 0x20 MSTORE PUSH1 0x1 PUSH1 0x40 DUP5 KECCAK256 SWAP2 DUP3 SLOAD AND OR SWAP1 SSTORE DUP2 DUP1 DUP1 DUP1 PUSH2 0x1F4 CALLER DUP3 CALL ISZERO PUSH2 0x275F JUMPI PUSH1 0x1 SLOAD PUSH1 0x40 MLOAD PUSH4 0x5FCB6719 PUSH1 0xE1 SHL DUP2 MSTORE PUSH1 0x4 DUP2 ADD SWAP3 SWAP1 SWAP3 MSTORE PUSH1 0x20 SWAP1 DUP3 SWAP1 PUSH1 0x24 SWAP1 DUP3 SWAP1 PUSH1 0x1 PUSH1 0x1 PUSH1 0xA0 SHL SUB AND GAS STATICCALL SWAP1 DUP2 ISZERO PUSH2 0x698 JUMPI DUP3 PUSH2 0x1F4 DUP2 SWAP4 DUP3 SWAP4 DUP4 SWAP2 PUSH2 0x2730 JUMPI JUMPDEST POP PUSH1 0x1 PUSH1 0x1 PUSH1 0xA0 SHL SUB AND DUP3 CALL ISZERO PUSH2 0x698 JUMPI PUSH2 0x1F4 PUSH2 0x2E0 DUP4 ADD MSTORE PUSH2 0x1F4 PUSH2 0x2A0 DUP4 ADD MSTORE TIMESTAMP PUSH2 0x300 DUP4 ADD MSTORE TIMESTAMP PUSH2 0x2C0 DUP4 ADD MSTORE DUP3 CODESIZE PUSH2 0x24D1 JUMP JUMPDEST PUSH2 0x2752 SWAP2 POP PUSH1 0x20 RETURNDATASIZE PUSH1 0x20 GT PUSH2 0x2758 JUMPI JUMPDEST PUSH2 0x274A DUP2 DUP4 PUSH2 0x5690 JUMP JUMPDEST DUP2 ADD SWAP1 PUSH2 0x579C JUMP JUMPDEST CODESIZE PUSH2 0x26F8 JUMP JUMPDEST POP RETURNDATASIZE PUSH2 0x2740 JUMP JUMPDEST POP PUSH1 0x40 MLOAD SWAP1 RETURNDATASIZE SWAP1 DUP3 RETURNDATACOPY RETURNDATASIZE SWAP1 REVERT JUMPDEST PUSH1 0x64 PUSH1 0x40 MLOAD PUSH3 0x461BCD PUSH1 0xE5 SHL DUP2 MSTORE PUSH1 0x20 PUSH1 0x4 DUP3 ADD MSTORE PUSH1 0x4 PUSH1 0x24 DUP3 ADD MSTORE PUSH4 0x52523439 PUSH1 0xE0 SHL PUSH1 0x44 DUP3 ADD MSTORE REVERT JUMPDEST PUSH1 0x64 PUSH1 0x40 MLOAD PUSH3 0x461BCD PUSH1 0xE5 SHL DUP2 MSTORE PUSH1 0x20 PUSH1 0x4 DUP3 ADD MSTORE PUSH1 0x4 PUSH1 0x24 DUP3 ADD MSTORE PUSH4 0xA4A4687 PUSH1 0xE3 SHL PUSH1 0x44 DUP3 ADD MSTORE REVERT JUMPDEST PUSH2 0x2487 SWAP3 POP PUSH2 0x27E0 SWAP2 POP PUSH1 0x80 RETURNDATASIZE PUSH1 0x80 GT PUSH2 0x723 JUMPI PUSH2 0x70F DUP2 DUP4 PUSH2 0x5690 JUMP JUMPDEST POP SWAP3 SWAP2 POP SWAP2 SWAP1 PUSH2 0x247B JUMP JUMPDEST PUSH2 0x27F4 SWAP1 PUSH2 0x564B JUMP JUMPDEST PUSH2 0x21BF JUMPI DUP5 CODESIZE PUSH2 0x2429 JUMP JUMPDEST SWAP3 POP POP PUSH1 0x20 DUP3 RETURNDATASIZE PUSH1 0x20 GT PUSH2 0x282C JUMPI JUMPDEST DUP2 PUSH2 0x281B PUSH1 0x20 SWAP4 DUP4 PUSH2 0x5690 JUMP JUMPDEST DUP2 ADD SUB SLT PUSH2 0x6D4 JUMPI DUP7 SWAP2 MLOAD CODESIZE PUSH2 0x23EE JUMP JUMPDEST RETURNDATASIZE SWAP2 POP PUSH2 0x280E JUMP JUMPDEST DUP3 SLOAD DUP5 MSTORE DUP13 SWAP8 POP PUSH1 0x20 SWAP1 SWAP4 ADD SWAP3 PUSH1 0x1 SWAP3 DUP4 ADD SWAP3 ADD PUSH2 0x233A JUMP JUMPDEST PUSH2 0x2856 SWAP1 PUSH2 0x564B JUMP JUMPDEST PUSH2 0x694 JUMPI DUP4 CODESIZE PUSH2 0x2223 JUMP JUMPDEST POP PUSH1 0x20 CALLDATASIZE PUSH1 0x3 NOT ADD SLT PUSH2 0x79A JUMPI PUSH1 0x5 SLOAD PUSH1 0x1 PUSH1 0x1 PUSH1 0xA0 SHL SUB AND DUP1 EXTCODESIZE ISZERO PUSH2 0x13A8 JUMPI PUSH1 0x40 MLOAD PUSH4 0x423164BF PUSH1 0xE1 SHL DUP2 MSTORE CALLER PUSH1 0x4 DUP3 ADD MSTORE DUP3 SWAP1 DUP2 DUP2 PUSH1 0x24 DUP2 DUP7 GAS STATICCALL DUP1 ISZERO PUSH2 0x698 JUMPI PUSH2 0x2DA9 JUMPI JUMPDEST POP POP CALLER DUP3 MSTORE PUSH1 0x6 PUSH1 0x20 MSTORE PUSH1 0x40 DUP3 KECCAK256 SLOAD DUP1 DUP4 MSTORE PUSH1 0x7 PUSH1 0x20 MSTORE PUSH2 0x28D5 PUSH1 0x1 PUSH1 0xFF PUSH1 0x40 DUP7 KECCAK256 SLOAD AND ISZERO ISZERO EQ PUSH2 0x56B1 JUMP JUMPDEST DUP1 DUP4 MSTORE PUSH1 0x9 PUSH1 0x20 MSTORE DUP3 PUSH1 0x40 DUP2 KECCAK256 SWAP3 PUSH1 0x40 MLOAD SWAP4 PUSH2 0x28F0 DUP6 PUSH2 0x5674 JUMP JUMPDEST DUP1 SLOAD DUP6 MSTORE PUSH1 0x1 DUP2 ADD SLOAD PUSH1 0x20 DUP7 ADD MSTORE PUSH1 0x2 DUP2 ADD SLOAD PUSH1 0x40 DUP7 ADD MSTORE PUSH1 0x3 DUP2 ADD SLOAD PUSH1 0x60 DUP7 ADD MSTORE PUSH1 0x4 DUP2 ADD SLOAD PUSH1 0x80 DUP7 ADD MSTORE PUSH1 0x5 DUP2 ADD SLOAD PUSH1 0xA0 DUP7 ADD MSTORE PUSH1 0x6 DUP2 ADD SLOAD PUSH1 0xC0 DUP7 ADD MSTORE PUSH1 0x7 DUP2 ADD SLOAD PUSH1 0xE0 DUP7 ADD MSTORE PUSH1 0xFF PUSH1 0x8 DUP3 ADD SLOAD AND ISZERO ISZERO PUSH2 0x100 DUP7 ADD MSTORE PUSH1 0x9 DUP2 ADD SLOAD PUSH2 0x120 DUP7 ADD MSTORE PUSH1 0xA DUP2 ADD SLOAD PUSH2 0x140 DUP7 ADD MSTORE PUSH1 0xB DUP2 ADD SLOAD PUSH2 0x160 DUP7 ADD MSTORE PUSH1 0xFF PUSH1 0xC DUP3 ADD SLOAD AND ISZERO ISZERO PUSH2 0x180 DUP7 ADD MSTORE PUSH1 0xD DUP2 ADD SLOAD PUSH2 0x1A0 DUP7 ADD MSTORE PUSH1 0xFF PUSH1 0xE DUP3 ADD SLOAD AND ISZERO ISZERO PUSH2 0x1C0 DUP7 ADD MSTORE PUSH1 0xF DUP2 ADD SLOAD PUSH2 0x1E0 DUP7 ADD MSTORE PUSH1 0x40 MLOAD DUP1 PUSH1 0x20 PUSH1 0x10 DUP5 ADD SLOAD SWAP2 DUP3 DUP2 MSTORE ADD SWAP1 PUSH1 0x10 DUP5 ADD DUP7 MSTORE PUSH1 0x20 DUP7 KECCAK256 SWAP1 DUP7 JUMPDEST DUP2 DUP2 LT PUSH2 0x2D90 JUMPI POP POP POP SWAP1 PUSH2 0x29D9 DUP2 PUSH1 0x18 SWAP5 SWAP4 SUB DUP3 PUSH2 0x5690 JUMP JUMPDEST PUSH2 0x200 DUP8 ADD MSTORE PUSH1 0x11 DUP2 ADD SLOAD PUSH2 0x220 DUP8 ADD MSTORE PUSH1 0x12 DUP2 ADD SLOAD PUSH2 0x240 DUP8 ADD MSTORE PUSH1 0x13 DUP2 ADD SLOAD PUSH1 0xFF AND ISZERO ISZERO PUSH2 0x260 DUP8 ADD MSTORE PUSH1 0x14 DUP2 ADD SLOAD PUSH2 0x280 DUP8 ADD MSTORE PUSH1 0x15 DUP2 ADD SLOAD PUSH2 0x2A0 DUP8 ADD MSTORE PUSH1 0x16 DUP2 ADD SLOAD PUSH2 0x2C0 DUP8 ADD MSTORE PUSH1 0x17 DUP2 ADD SLOAD PUSH2 0x2E0 DUP8 ADD MSTORE ADD SLOAD PUSH2 0x300 DUP6 ADD MSTORE PUSH1 0x3 SLOAD PUSH1 0x40 MLOAD PUSH4 0x18FE01C7 PUSH1 0xE2 SHL DUP2 MSTORE CALLER PUSH1 0x4 DUP3 ADD MSTORE SWAP1 PUSH1 0x20 SWAP1 DUP3 SWAP1 PUSH1 0x24 SWAP1 DUP3 SWAP1 PUSH1 0x1 PUSH1 0x1 PUSH1 0xA0 SHL SUB AND GAS STATICCALL SWAP1 DUP2 ISZERO PUSH2 0x6E1 JUMPI DUP4 SWAP2 PUSH2 0x2D5B JUMPI JUMPDEST POP PUSH2 0x2A80 DUP6 MLOAD DUP3 EQ PUSH2 0x5715 JUMP JUMPDEST DUP2 EXTCODESIZE ISZERO PUSH2 0x6A3 JUMPI PUSH1 0x40 MLOAD SWAP1 PUSH4 0x9490D075 PUSH1 0xE0 SHL DUP3 MSTORE PUSH1 0x4 DUP3 ADD MSTORE DUP3 DUP2 PUSH1 0x24 DUP2 DUP6 GAS STATICCALL SWAP1 DUP2 ISZERO PUSH2 0x6E1 JUMPI DUP4 SWAP2 PUSH2 0x2D47 JUMPI JUMPDEST POP POP PUSH2 0x2AC3 PUSH1 0x20 DUP6 ADD MLOAD PUSH1 0x4 CALLDATALOAD EQ PUSH2 0x56E3 JUMP JUMPDEST DUP1 EXTCODESIZE ISZERO PUSH2 0x13A8 JUMPI DUP2 PUSH1 0x24 SWAP2 PUSH1 0x40 MLOAD SWAP3 DUP4 DUP1 SWAP3 PUSH4 0x856CB9E7 PUSH1 0xE0 SHL DUP3 MSTORE PUSH1 0x4 CALLDATALOAD PUSH1 0x4 DUP4 ADD MSTORE GAS STATICCALL DUP1 ISZERO PUSH2 0x698 JUMPI PUSH2 0x2D33 JUMPI JUMPDEST POP POP PUSH2 0x2B03 PUSH2 0x1F4 CALLVALUE EQ PUSH2 0x5873 JUMP JUMPDEST PUSH1 0x60 DUP3 ADD MLOAD ISZERO PUSH2 0x2D08 JUMPI PUSH1 0x80 DUP3 ADD MLOAD PUSH2 0x2CDD JUMPI PUSH2 0x2B2A PUSH2 0x12C PUSH2 0x41B PUSH1 0x60 DUP6 ADD MLOAD TIMESTAMP PUSH2 0x5747 JUMP JUMPDEST TIMESTAMP PUSH1 0x80 DUP4 ADD MSTORE DUP3 MSTORE PUSH1 0x9 PUSH1 0x20 MSTORE PUSH1 0x40 DUP3 KECCAK256 SWAP1 DUP1 MLOAD DUP3 SSTORE PUSH1 0x20 DUP2 ADD MLOAD PUSH1 0x1 DUP4 ADD SSTORE PUSH1 0x40 DUP2 ADD MLOAD PUSH1 0x2 DUP4 ADD SSTORE PUSH1 0x60 DUP2 ADD MLOAD PUSH1 0x3 DUP4 ADD SSTORE PUSH1 0x80 DUP2 ADD MLOAD PUSH1 0x4 DUP4 ADD SSTORE PUSH1 0xA0 DUP2 ADD MLOAD PUSH1 0x5 DUP4 ADD SSTORE PUSH1 0xC0 DUP2 ADD MLOAD PUSH1 0x6 DUP4 ADD SSTORE PUSH1 0xE0 DUP2 ADD MLOAD PUSH1 0x7 DUP4 ADD SSTORE PUSH2 0x2BA6 PUSH2 0x100 DUP3 ADD MLOAD ISZERO ISZERO PUSH1 0x8 DUP5 ADD SWAP1 PUSH1 0xFF DUP1 NOT DUP4 SLOAD AND SWAP2 ISZERO ISZERO AND OR SWAP1 SSTORE JUMP JUMPDEST PUSH2 0x120 DUP2 ADD MLOAD PUSH1 0x9 DUP4 ADD SSTORE PUSH2 0x140 DUP2 ADD MLOAD PUSH1 0xA DUP4 ADD SSTORE PUSH2 0x160 DUP2 ADD MLOAD PUSH1 0xB DUP4 ADD SSTORE PUSH2 0x2BE7 PUSH2 0x180 DUP3 ADD MLOAD ISZERO ISZERO PUSH1 0xC DUP5 ADD SWAP1 PUSH1 0xFF DUP1 NOT DUP4 SLOAD AND SWAP2 ISZERO ISZERO AND OR SWAP1 SSTORE JUMP JUMPDEST PUSH2 0x1A0 DUP2 ADD MLOAD PUSH1 0xD DUP4 ADD SSTORE PUSH2 0x2C12 PUSH2 0x1C0 DUP3 ADD MLOAD ISZERO ISZERO PUSH1 0xE DUP5 ADD SWAP1 PUSH1 0xFF DUP1 NOT DUP4 SLOAD AND SWAP2 ISZERO ISZERO AND OR SWAP1 SSTORE JUMP JUMPDEST PUSH2 0x1E0 DUP2 ADD MLOAD PUSH1 0xF DUP4 ADD SSTORE PUSH1 0x10 DUP3 ADD PUSH2 0x200 DUP3 ADD MLOAD SWAP1 DUP2 MLOAD SWAP2 PUSH1 0x1 PUSH1 0x1 PUSH1 0x40 SHL SUB DUP4 GT PUSH2 0x616 JUMPI PUSH1 0x1 PUSH1 0x40 SHL DUP4 GT PUSH2 0x616 JUMPI DUP2 SLOAD DUP4 DUP4 SSTORE DUP1 DUP5 LT PUSH2 0x2CB7 JUMPI JUMPDEST POP PUSH1 0x20 ADD SWAP1 DUP6 MSTORE PUSH1 0x20 DUP6 KECCAK256 DUP6 JUMPDEST DUP4 DUP2 LT PUSH2 0x2CA3 JUMPI DUP7 DUP7 PUSH1 0x18 PUSH2 0x300 DUP9 PUSH2 0x220 DUP2 ADD MLOAD PUSH1 0x11 DUP6 ADD SSTORE PUSH2 0x240 DUP2 ADD MLOAD PUSH1 0x12 DUP6 ADD SSTORE PUSH2 0x5A8 PUSH2 0x260 DUP3 ADD MLOAD ISZERO ISZERO PUSH1 0x13 DUP7 ADD SWAP1 PUSH1 0xFF DUP1 NOT DUP4 SLOAD AND SWAP2 ISZERO ISZERO AND OR SWAP1 SSTORE JUMP JUMPDEST PUSH1 0x1 SWAP1 PUSH1 0x20 DUP5 MLOAD SWAP5 ADD SWAP4 DUP2 DUP5 ADD SSTORE ADD PUSH2 0x2C5E JUMP JUMPDEST DUP3 DUP8 MSTORE DUP4 PUSH1 0x20 DUP9 KECCAK256 SWAP2 DUP3 ADD SWAP2 ADD JUMPDEST DUP2 DUP2 LT PUSH2 0x2CD2 JUMPI POP PUSH2 0x2C51 JUMP JUMPDEST DUP8 DUP2 SSTORE PUSH1 0x1 ADD PUSH2 0x2CC5 JUMP JUMPDEST PUSH1 0x64 PUSH1 0x40 MLOAD PUSH3 0x461BCD PUSH1 0xE5 SHL DUP2 MSTORE PUSH1 0x20 PUSH1 0x4 DUP3 ADD MSTORE PUSH1 0x4 PUSH1 0x24 DUP3 ADD MSTORE PUSH4 0x29291A19 PUSH1 0xE1 SHL PUSH1 0x44 DUP3 ADD MSTORE REVERT JUMPDEST PUSH1 0x64 PUSH1 0x40 MLOAD PUSH3 0x461BCD PUSH1 0xE5 SHL DUP2 MSTORE PUSH1 0x20 PUSH1 0x4 DUP3 ADD MSTORE PUSH1 0x4 PUSH1 0x24 DUP3 ADD MSTORE PUSH4 0x52523431 PUSH1 0xE0 SHL PUSH1 0x44 DUP3 ADD MSTORE REVERT JUMPDEST PUSH2 0x2D3C SWAP1 PUSH2 0x564B JUMP JUMPDEST PUSH2 0x6A3 JUMPI DUP3 CODESIZE PUSH2 0x2AF4 JUMP JUMPDEST PUSH2 0x2D50 SWAP1 PUSH2 0x564B JUMP JUMPDEST PUSH2 0x13A8 JUMPI DUP2 CODESIZE PUSH2 0x2AB0 JUMP JUMPDEST SWAP3 POP POP PUSH1 0x20 DUP3 RETURNDATASIZE PUSH1 0x20 GT PUSH2 0x2D88 JUMPI JUMPDEST DUP2 PUSH2 0x2D77 PUSH1 0x20 SWAP4 DUP4 PUSH2 0x5690 JUMP JUMPDEST DUP2 ADD SUB SLT PUSH2 0x6D4 JUMPI DUP5 SWAP2 MLOAD CODESIZE PUSH2 0x2A73 JUMP JUMPDEST RETURNDATASIZE SWAP2 POP PUSH2 0x2D6A JUMP JUMPDEST DUP3 SLOAD DUP5 MSTORE DUP11 SWAP8 POP PUSH1 0x20 SWAP1 SWAP4 ADD SWAP3 PUSH1 0x1 SWAP3 DUP4 ADD SWAP3 ADD PUSH2 0x29BF JUMP JUMPDEST PUSH2 0x2DB2 SWAP1 PUSH2 0x564B JUMP JUMPDEST PUSH2 0x13A8 JUMPI DUP2 CODESIZE PUSH2 0x28A9 JUMP JUMPDEST POP CALLVALUE PUSH2 0x79A JUMPI PUSH2 0x2DCC CALLDATASIZE PUSH2 0x5616 JUMP JUMPDEST PUSH1 0x5 SLOAD PUSH1 0x1 PUSH1 0x1 PUSH1 0xA0 SHL SUB AND SWAP1 DUP2 EXTCODESIZE ISZERO PUSH2 0x694 JUMPI PUSH1 0x40 MLOAD PUSH4 0x423164BF PUSH1 0xE1 SHL DUP2 MSTORE CALLER PUSH1 0x4 DUP3 ADD MSTORE DUP5 SWAP1 DUP2 DUP2 PUSH1 0x24 DUP2 DUP8 GAS STATICCALL DUP1 ISZERO PUSH2 0x698 JUMPI PUSH2 0x33C4 JUMPI JUMPDEST POP POP CALLER DUP5 MSTORE PUSH1 0x6 PUSH1 0x20 MSTORE DUP4 PUSH1 0x40 DUP2 KECCAK256 SLOAD SWAP3 DUP4 DUP3 MSTORE PUSH1 0x7 PUSH1 0x20 MSTORE PUSH2 0x2E36 PUSH1 0x1 PUSH1 0xFF PUSH1 0x40 DUP6 KECCAK256 SLOAD AND ISZERO ISZERO EQ PUSH2 0x56B1 JUMP JUMPDEST DUP4 DUP3 MSTORE PUSH1 0x9 PUSH1 0x20 MSTORE PUSH1 0x40 DUP3 KECCAK256 SWAP5 PUSH1 0x40 MLOAD SWAP6 PUSH2 0x2E50 DUP8 PUSH2 0x5674 JUMP JUMPDEST DUP1 SLOAD DUP8 MSTORE PUSH1 0x1 DUP2 ADD SLOAD PUSH1 0x20 DUP9 ADD MSTORE PUSH1 0x2 DUP2 ADD SLOAD PUSH1 0x40 DUP9 ADD MSTORE PUSH1 0x3 DUP2 ADD SLOAD PUSH1 0x60 DUP9 ADD MSTORE PUSH1 0x4 DUP2 ADD SLOAD PUSH1 0x80 DUP9 ADD MSTORE PUSH1 0x5 DUP2 ADD SLOAD PUSH1 0xA0 DUP9 ADD MSTORE PUSH1 0x6 DUP2 ADD SLOAD PUSH1 0xC0 DUP9 ADD MSTORE PUSH1 0x7 DUP2 ADD SLOAD PUSH1 0xE0 DUP9 ADD MSTORE PUSH1 0xFF PUSH1 0x8 DUP3 ADD SLOAD AND ISZERO ISZERO PUSH2 0x100 DUP9 ADD MSTORE PUSH1 0x9 DUP2 ADD SLOAD PUSH2 0x120 DUP9 ADD MSTORE PUSH1 0xA DUP2 ADD SLOAD PUSH2 0x140 DUP9 ADD MSTORE PUSH1 0xB DUP2 ADD SLOAD PUSH2 0x160 DUP9 ADD MSTORE PUSH1 0xFF PUSH1 0xC DUP3 ADD SLOAD AND ISZERO ISZERO PUSH2 0x180 DUP9 ADD MSTORE PUSH1 0xD DUP2 ADD SLOAD PUSH2 0x1A0 DUP9 ADD MSTORE PUSH1 0xFF PUSH1 0xE DUP3 ADD SLOAD AND ISZERO ISZERO PUSH2 0x1C0 DUP9 ADD MSTORE PUSH1 0xF DUP2 ADD SLOAD PUSH2 0x1E0 DUP9 ADD MSTORE PUSH1 0x40 MLOAD DUP1 PUSH1 0x20 PUSH1 0x10 DUP5 ADD SLOAD SWAP2 DUP3 DUP2 MSTORE ADD SWAP1 PUSH1 0x10 DUP5 ADD DUP8 MSTORE PUSH1 0x20 DUP8 KECCAK256 SWAP1 DUP8 JUMPDEST DUP2 DUP2 LT PUSH2 0x33AB JUMPI POP POP POP SWAP1 PUSH2 0x2F39 DUP2 PUSH1 0x18 SWAP5 SWAP4 SUB DUP3 PUSH2 0x5690 JUMP JUMPDEST PUSH2 0x200 DUP10 ADD MSTORE PUSH1 0x11 DUP2 ADD SLOAD PUSH2 0x220 DUP10 ADD MSTORE PUSH1 0x12 DUP2 ADD SLOAD PUSH2 0x240 DUP10 ADD MSTORE PUSH1 0xFF PUSH1 0x13 DUP3 ADD SLOAD AND ISZERO ISZERO PUSH2 0x260 DUP10 ADD MSTORE PUSH1 0x14 DUP2 ADD SLOAD PUSH2 0x280 DUP10 ADD MSTORE PUSH1 0x15 DUP2 ADD SLOAD PUSH2 0x2A0 DUP10 ADD MSTORE PUSH1 0x16 DUP2 ADD SLOAD PUSH2 0x2C0 DUP10 ADD MSTORE PUSH1 0x17 DUP2 ADD SLOAD PUSH2 0x2E0 DUP10 ADD MSTORE ADD SLOAD PUSH2 0x300 DUP8 ADD MSTORE PUSH2 0x2FA8 PUSH1 0x20 DUP8 ADD MLOAD DUP3 EQ PUSH2 0x56E3 JUMP JUMPDEST PUSH1 0x3 SLOAD PUSH1 0x40 MLOAD PUSH4 0x18FE01C7 PUSH1 0xE2 SHL DUP2 MSTORE CALLER PUSH1 0x4 DUP3 ADD MSTORE SWAP1 PUSH1 0x20 SWAP1 DUP3 SWAP1 PUSH1 0x24 SWAP1 DUP3 SWAP1 PUSH1 0x1 PUSH1 0x1 PUSH1 0xA0 SHL SUB AND GAS STATICCALL SWAP1 DUP2 ISZERO PUSH2 0x72A JUMPI DUP5 SWAP2 PUSH2 0x3376 JUMPI JUMPDEST POP PUSH2 0x2FEF DUP8 MLOAD DUP3 EQ PUSH2 0x5715 JUMP JUMPDEST DUP3 EXTCODESIZE ISZERO PUSH2 0x694 JUMPI PUSH1 0x40 MLOAD SWAP1 PUSH4 0x9490D075 PUSH1 0xE0 SHL DUP3 MSTORE PUSH1 0x4 DUP3 ADD MSTORE DUP4 DUP2 PUSH1 0x24 DUP2 DUP7 GAS STATICCALL SWAP1 DUP2 ISZERO PUSH2 0x72A JUMPI DUP5 SWAP2 PUSH2 0x3362 JUMPI JUMPDEST POP POP PUSH1 0x1 SLOAD PUSH1 0x40 MLOAD PUSH4 0x6287FA13 PUSH1 0xE1 SHL DUP2 MSTORE PUSH1 0x4 DUP2 ADD SWAP3 SWAP1 SWAP3 MSTORE PUSH1 0x80 SWAP1 DUP3 SWAP1 PUSH1 0x24 SWAP1 DUP3 SWAP1 PUSH1 0x1 PUSH1 0x1 PUSH1 0xA0 SHL SUB AND GAS STATICCALL SWAP1 DUP2 ISZERO PUSH2 0x6E1 JUMPI PUSH2 0x3079 SWAP2 DUP5 SWAP2 DUP6 SWAP2 PUSH2 0x3339 JUMPI JUMPDEST POP PUSH2 0x306E SWAP1 ISZERO ISZERO PUSH2 0x57DD JUMP JUMPDEST PUSH1 0xA0 DUP8 ADD MLOAD EQ PUSH2 0x580F JUMP JUMPDEST PUSH2 0x140 DUP6 ADD MLOAD DUP2 EXTCODESIZE ISZERO PUSH2 0x6A3 JUMPI DUP3 SWAP1 PUSH1 0x24 PUSH1 0x40 MLOAD DUP1 SWAP5 DUP2 SWAP4 PUSH4 0x6F2F721 PUSH1 0xE0 SHL DUP4 MSTORE PUSH1 0x4 DUP4 ADD MSTORE GAS STATICCALL DUP1 ISZERO PUSH2 0x698 JUMPI PUSH2 0x3325 JUMPI JUMPDEST POP POP PUSH2 0x1A0 DUP4 ADD MLOAD ISZERO PUSH2 0x32FA JUMPI PUSH1 0x1 PUSH2 0x180 DUP5 ADD MLOAD ISZERO ISZERO SUB PUSH2 0x32CF JUMPI PUSH2 0x1E0 DUP4 ADD MLOAD PUSH2 0x32A4 JUMPI PUSH2 0x30E8 PUSH2 0x12C PUSH2 0x41B PUSH2 0x1A0 DUP7 ADD MLOAD TIMESTAMP PUSH2 0x5747 JUMP JUMPDEST ISZERO ISZERO PUSH2 0x1C0 DUP4 ADD MSTORE TIMESTAMP PUSH2 0x1E0 DUP4 ADD MSTORE DUP3 MSTORE PUSH1 0x9 PUSH1 0x20 MSTORE PUSH1 0x40 DUP3 KECCAK256 SWAP1 DUP1 MLOAD DUP3 SSTORE PUSH1 0x20 DUP2 ADD MLOAD PUSH1 0x1 DUP4 ADD SSTORE PUSH1 0x40 DUP2 ADD MLOAD PUSH1 0x2 DUP4 ADD SSTORE PUSH1 0x60 DUP2 ADD MLOAD PUSH1 0x3 DUP4 ADD SSTORE PUSH1 0x80 DUP2 ADD MLOAD PUSH1 0x4 DUP4 ADD SSTORE PUSH1 0xA0 DUP2 ADD MLOAD PUSH1 0x5 DUP4 ADD SSTORE PUSH1 0xC0 DUP2 ADD MLOAD PUSH1 0x6 DUP4 ADD SSTORE PUSH1 0xE0 DUP2 ADD MLOAD PUSH1 0x7 DUP4 ADD SSTORE PUSH2 0x316D PUSH2 0x100 DUP3 ADD MLOAD ISZERO ISZERO PUSH1 0x8 DUP5 ADD SWAP1 PUSH1 0xFF DUP1 NOT DUP4 SLOAD AND SWAP2 ISZERO ISZERO AND OR SWAP1 SSTORE JUMP JUMPDEST PUSH2 0x120 DUP2 ADD MLOAD PUSH1 0x9 DUP4 ADD SSTORE PUSH2 0x140 DUP2 ADD MLOAD PUSH1 0xA DUP4 ADD SSTORE PUSH2 0x160 DUP2 ADD MLOAD PUSH1 0xB DUP4 ADD SSTORE PUSH2 0x31AE PUSH2 0x180 DUP3 ADD MLOAD ISZERO ISZERO PUSH1 0xC DUP5 ADD SWAP1 PUSH1 0xFF DUP1 NOT DUP4 SLOAD AND SWAP2 ISZERO ISZERO AND OR SWAP1 SSTORE JUMP JUMPDEST PUSH2 0x1A0 DUP2 ADD MLOAD PUSH1 0xD DUP4 ADD SSTORE PUSH2 0x31D9 PUSH2 0x1C0 DUP3 ADD MLOAD ISZERO ISZERO PUSH1 0xE DUP5 ADD SWAP1 PUSH1 0xFF DUP1 NOT DUP4 SLOAD AND SWAP2 ISZERO ISZERO AND OR SWAP1 SSTORE JUMP JUMPDEST PUSH2 0x1E0 DUP2 ADD MLOAD PUSH1 0xF DUP4 ADD SSTORE PUSH1 0x10 DUP3 ADD PUSH2 0x200 DUP3 ADD MLOAD SWAP1 DUP2 MLOAD SWAP2 PUSH1 0x1 PUSH1 0x1 PUSH1 0x40 SHL SUB DUP4 GT PUSH2 0x616 JUMPI PUSH1 0x1 PUSH1 0x40 SHL DUP4 GT PUSH2 0x616 JUMPI DUP2 SLOAD DUP4 DUP4 SSTORE DUP1 DUP5 LT PUSH2 0x327E JUMPI JUMPDEST POP PUSH1 0x20 ADD SWAP1 DUP6 MSTORE PUSH1 0x20 DUP6 KECCAK256 DUP6 JUMPDEST DUP4 DUP2 LT PUSH2 0x326A JUMPI DUP7 DUP7 PUSH1 0x18 PUSH2 0x300 DUP9 PUSH2 0x220 DUP2 ADD MLOAD PUSH1 0x11 DUP6 ADD SSTORE PUSH2 0x240 DUP2 ADD MLOAD PUSH1 0x12 DUP6 ADD SSTORE PUSH2 0x5A8 PUSH2 0x260 DUP3 ADD MLOAD ISZERO ISZERO PUSH1 0x13 DUP7 ADD SWAP1 PUSH1 0xFF DUP1 NOT DUP4 SLOAD AND SWAP2 ISZERO ISZERO AND OR SWAP1 SSTORE JUMP JUMPDEST PUSH1 0x1 SWAP1 PUSH1 0x20 DUP5 MLOAD SWAP5 ADD SWAP4 DUP2 DUP5 ADD SSTORE ADD PUSH2 0x3225 JUMP JUMPDEST DUP3 DUP8 MSTORE DUP4 PUSH1 0x20 DUP9 KECCAK256 SWAP2 DUP3 ADD SWAP2 ADD JUMPDEST DUP2 DUP2 LT PUSH2 0x3299 JUMPI POP PUSH2 0x3218 JUMP JUMPDEST DUP8 DUP2 SSTORE PUSH1 0x1 ADD PUSH2 0x328C JUMP JUMPDEST PUSH1 0x64 PUSH1 0x40 MLOAD PUSH3 0x461BCD PUSH1 0xE5 SHL DUP2 MSTORE PUSH1 0x20 PUSH1 0x4 DUP3 ADD MSTORE PUSH1 0x4 PUSH1 0x24 DUP3 ADD MSTORE PUSH4 0x52523537 PUSH1 0xE0 SHL PUSH1 0x44 DUP3 ADD MSTORE REVERT JUMPDEST PUSH1 0x64 PUSH1 0x40 MLOAD PUSH3 0x461BCD PUSH1 0xE5 SHL DUP2 MSTORE PUSH1 0x20 PUSH1 0x4 DUP3 ADD MSTORE PUSH1 0x4 PUSH1 0x24 DUP3 ADD MSTORE PUSH4 0x29291A9B PUSH1 0xE1 SHL PUSH1 0x44 DUP3 ADD MSTORE REVERT JUMPDEST PUSH1 0x64 PUSH1 0x40 MLOAD PUSH3 0x461BCD PUSH1 0xE5 SHL DUP2 MSTORE PUSH1 0x20 PUSH1 0x4 DUP3 ADD MSTORE PUSH1 0x4 PUSH1 0x24 DUP3 ADD MSTORE PUSH4 0x52523535 PUSH1 0xE0 SHL PUSH1 0x44 DUP3 ADD MSTORE REVERT JUMPDEST PUSH2 0x332E SWAP1 PUSH2 0x564B JUMP JUMPDEST PUSH2 0x694 JUMPI DUP4 CODESIZE PUSH2 0x30AD JUMP JUMPDEST PUSH2 0x306E SWAP3 POP PUSH2 0x3357 SWAP2 POP PUSH1 0x80 RETURNDATASIZE PUSH1 0x80 GT PUSH2 0x723 JUMPI PUSH2 0x70F DUP2 DUP4 PUSH2 0x5690 JUMP JUMPDEST POP SWAP3 SWAP2 POP SWAP2 SWAP1 PUSH2 0x3062 JUMP JUMPDEST PUSH2 0x336B SWAP1 PUSH2 0x564B JUMP JUMPDEST PUSH2 0x6A3 JUMPI DUP3 CODESIZE PUSH2 0x301F JUMP JUMPDEST SWAP4 POP POP PUSH1 0x20 DUP4 RETURNDATASIZE PUSH1 0x20 GT PUSH2 0x33A3 JUMPI JUMPDEST DUP2 PUSH2 0x3392 PUSH1 0x20 SWAP4 DUP4 PUSH2 0x5690 JUMP JUMPDEST DUP2 ADD SUB SLT PUSH2 0x6D4 JUMPI DUP7 SWAP3 MLOAD CODESIZE PUSH2 0x2FE2 JUMP JUMPDEST RETURNDATASIZE SWAP2 POP PUSH2 0x3385 JUMP JUMPDEST DUP3 SLOAD DUP5 MSTORE DUP13 SWAP9 POP PUSH1 0x20 SWAP1 SWAP4 ADD SWAP3 PUSH1 0x1 SWAP3 DUP4 ADD SWAP3 ADD PUSH2 0x2F1F JUMP JUMPDEST PUSH2 0x33CD SWAP1 PUSH2 0x564B JUMP JUMPDEST PUSH2 0x694 JUMPI DUP4 CODESIZE PUSH2 0x2E08 JUMP JUMPDEST POP CALLVALUE PUSH2 0x79A JUMPI PUSH1 0x40 CALLDATASIZE PUSH1 0x3 NOT ADD SLT PUSH2 0x79A JUMPI DUP1 DUP1 DUP1 DUP1 PUSH2 0x3E8 PUSH2 0x33F9 PUSH2 0x5635 JUMP JUMPDEST PUSH1 0x1 PUSH1 0x1 PUSH1 0xA0 SHL SUB AND DUP3 CALL ISZERO PUSH2 0xAEA JUMPI PUSH1 0x24 CALLDATALOAD DUP2 MSTORE PUSH1 0x9 PUSH1 0x20 MSTORE PUSH1 0x40 DUP2 KECCAK256 PUSH1 0x40 MLOAD SWAP1 PUSH2 0x3424 DUP3 PUSH2 0x5674 JUMP JUMPDEST DUP1 SLOAD DUP3 MSTORE PUSH1 0x1 DUP2 ADD SLOAD PUSH1 0x20 DUP4 ADD MSTORE PUSH1 0x2 DUP2 ADD SLOAD PUSH1 0x40 DUP4 ADD MSTORE PUSH1 0x3 DUP2 ADD SLOAD PUSH1 0x60 DUP4 ADD MSTORE PUSH1 0x4 DUP2 ADD SLOAD PUSH1 0x80 DUP4 ADD MSTORE PUSH1 0x5 DUP2 ADD SLOAD PUSH1 0xA0 DUP4 ADD MSTORE PUSH1 0x6 DUP2 ADD SLOAD PUSH1 0xC0 DUP4 ADD MSTORE PUSH1 0x7 DUP2 ADD SLOAD PUSH1 0xE0 DUP4 ADD MSTORE PUSH1 0xFF PUSH1 0x8 DUP3 ADD SLOAD AND ISZERO ISZERO PUSH2 0x100 DUP4 ADD MSTORE PUSH1 0x9 DUP2 ADD SLOAD PUSH2 0x120 DUP4 ADD MSTORE PUSH1 0xA DUP2 ADD SLOAD PUSH2 0x140 DUP4 ADD MSTORE PUSH1 0xB DUP2 ADD SLOAD PUSH2 0x160 DUP4 ADD MSTORE PUSH1 0xFF PUSH1 0xC DUP3 ADD SLOAD AND ISZERO ISZERO PUSH2 0x180 DUP4 ADD MSTORE PUSH1 0xD DUP2 ADD SLOAD PUSH2 0x1A0 DUP4 ADD MSTORE PUSH1 0xFF PUSH1 0xE DUP3 ADD SLOAD AND ISZERO ISZERO PUSH2 0x1C0 DUP4 ADD MSTORE PUSH1 0xF DUP2 ADD SLOAD PUSH2 0x1E0 DUP4 ADD MSTORE PUSH1 0x40 MLOAD DUP1 PUSH1 0x20 PUSH1 0x10 DUP5 ADD SLOAD SWAP2 DUP3 DUP2 MSTORE ADD SWAP1 PUSH1 0x10 DUP5 ADD DUP7 MSTORE PUSH1 0x20 DUP7 KECCAK256 SWAP1 DUP7 JUMPDEST DUP2 DUP2 LT PUSH2 0x370F JUMPI POP POP POP SWAP1 PUSH2 0x350D DUP2 PUSH1 0x14 SWAP5 SWAP4 SUB DUP3 PUSH2 0x5690 JUMP JUMPDEST PUSH2 0x200 DUP5 ADD MSTORE PUSH1 0x11 DUP2 ADD SLOAD PUSH2 0x220 DUP5 ADD MSTORE PUSH1 0x12 DUP2 ADD SLOAD PUSH2 0x240 DUP5 ADD MSTORE PUSH1 0xFF PUSH1 0x13 DUP3 ADD SLOAD AND ISZERO ISZERO PUSH2 0x260 DUP5 ADD MSTORE ADD SLOAD PUSH2 0x280 DUP3 ADD MSTORE PUSH2 0x3E8 PUSH2 0x2A0 DUP3 ADD MSTORE TIMESTAMP PUSH2 0x2C0 DUP3 ADD MSTORE DUP2 PUSH2 0x2E0 DUP3 ADD MSTORE TIMESTAMP PUSH2 0x300 DUP3 ADD MSTORE PUSH1 0x24 CALLDATALOAD DUP3 MSTORE PUSH1 0x9 PUSH1 0x20 MSTORE PUSH1 0x40 DUP3 KECCAK256 SWAP1 DUP1 MLOAD DUP3 SSTORE PUSH1 0x20 DUP2 ADD MLOAD PUSH1 0x1 DUP4 ADD SSTORE PUSH1 0x40 DUP2 ADD MLOAD PUSH1 0x2 DUP4 ADD SSTORE PUSH1 0x60 DUP2 ADD MLOAD PUSH1 0x3 DUP4 ADD SSTORE PUSH1 0x80 DUP2 ADD MLOAD PUSH1 0x4 DUP4 ADD SSTORE PUSH1 0xA0 DUP2 ADD MLOAD PUSH1 0x5 DUP4 ADD SSTORE PUSH1 0xC0 DUP2 ADD MLOAD PUSH1 0x6 DUP4 ADD SSTORE PUSH1 0xE0 DUP2 ADD MLOAD PUSH1 0x7 DUP4 ADD SSTORE PUSH2 0x35D8 PUSH2 0x100 DUP3 ADD MLOAD ISZERO ISZERO PUSH1 0x8 DUP5 ADD SWAP1 PUSH1 0xFF DUP1 NOT DUP4 SLOAD AND SWAP2 ISZERO ISZERO AND OR SWAP1 SSTORE JUMP JUMPDEST PUSH2 0x120 DUP2 ADD MLOAD PUSH1 0x9 DUP4 ADD SSTORE PUSH2 0x140 DUP2 ADD MLOAD PUSH1 0xA DUP4 ADD SSTORE PUSH2 0x160 DUP2 ADD MLOAD PUSH1 0xB DUP4 ADD SSTORE PUSH2 0x3619 PUSH2 0x180 DUP3 ADD MLOAD ISZERO ISZERO PUSH1 0xC DUP5 ADD SWAP1 PUSH1 0xFF DUP1 NOT DUP4 SLOAD AND SWAP2 ISZERO ISZERO AND OR SWAP1 SSTORE JUMP JUMPDEST PUSH2 0x1A0 DUP2 ADD MLOAD PUSH1 0xD DUP4 ADD SSTORE PUSH2 0x3644 PUSH2 0x1C0 DUP3 ADD MLOAD ISZERO ISZERO PUSH1 0xE DUP5 ADD SWAP1 PUSH1 0xFF DUP1 NOT DUP4 SLOAD AND SWAP2 ISZERO ISZERO AND OR SWAP1 SSTORE JUMP JUMPDEST PUSH2 0x1E0 DUP2 ADD MLOAD PUSH1 0xF DUP4 ADD SSTORE PUSH1 0x10 DUP3 ADD PUSH2 0x200 DUP3 ADD MLOAD SWAP1 DUP2 MLOAD SWAP2 PUSH1 0x1 PUSH1 0x1 PUSH1 0x40 SHL SUB DUP4 GT PUSH2 0x616 JUMPI PUSH1 0x1 PUSH1 0x40 SHL DUP4 GT PUSH2 0x616 JUMPI DUP2 SLOAD DUP4 DUP4 SSTORE DUP1 DUP5 LT PUSH2 0x36E9 JUMPI JUMPDEST POP PUSH1 0x20 ADD SWAP1 DUP6 MSTORE PUSH1 0x20 DUP6 KECCAK256 DUP6 JUMPDEST DUP4 DUP2 LT PUSH2 0x36D5 JUMPI DUP7 DUP7 PUSH1 0x18 PUSH2 0x300 DUP9 PUSH2 0x220 DUP2 ADD MLOAD PUSH1 0x11 DUP6 ADD SSTORE PUSH2 0x240 DUP2 ADD MLOAD PUSH1 0x12 DUP6 ADD SSTORE PUSH2 0x5A8 PUSH2 0x260 DUP3 ADD MLOAD ISZERO ISZERO PUSH1 0x13 DUP7 ADD SWAP1 PUSH1 0xFF DUP1 NOT DUP4 SLOAD AND SWAP2 ISZERO ISZERO AND OR SWAP1 SSTORE JUMP JUMPDEST PUSH1 0x1 SWAP1 PUSH1 0x20 DUP5 MLOAD SWAP5 ADD SWAP4 DUP2 DUP5 ADD SSTORE ADD PUSH2 0x3690 JUMP JUMPDEST DUP3 DUP8 MSTORE DUP4 PUSH1 0x20 DUP9 KECCAK256 SWAP2 DUP3 ADD SWAP2 ADD JUMPDEST DUP2 DUP2 LT PUSH2 0x3704 JUMPI POP PUSH2 0x3683 JUMP JUMPDEST DUP8 DUP2 SSTORE PUSH1 0x1 ADD PUSH2 0x36F7 JUMP JUMPDEST DUP3 SLOAD DUP5 MSTORE PUSH1 0x20 SWAP1 SWAP4 ADD SWAP3 PUSH1 0x1 SWAP3 DUP4 ADD SWAP3 ADD PUSH2 0x34F3 JUMP JUMPDEST POP CALLVALUE PUSH2 0x79A JUMPI PUSH1 0x40 CALLDATASIZE PUSH1 0x3 NOT ADD SLT PUSH2 0x79A JUMPI PUSH2 0x373F PUSH2 0x5635 JUMP JUMPDEST PUSH1 0x5 SLOAD PUSH1 0x1 PUSH1 0x1 PUSH1 0xA0 SHL SUB AND DUP1 EXTCODESIZE ISZERO PUSH2 0x6A3 JUMPI PUSH1 0x40 MLOAD PUSH4 0xFCB260B PUSH1 0xE4 SHL DUP2 MSTORE CALLER PUSH1 0x4 DUP3 ADD MSTORE DUP4 SWAP1 DUP2 DUP2 PUSH1 0x24 DUP2 DUP7 GAS STATICCALL DUP1 ISZERO PUSH2 0x698 JUMPI PUSH2 0x3E09 JUMPI JUMPDEST POP POP PUSH1 0x1 DUP1 PUSH1 0xA0 SHL SUB DUP3 AND DUP4 MSTORE PUSH1 0x6 PUSH1 0x20 MSTORE DUP3 PUSH1 0x40 DUP2 KECCAK256 SLOAD SWAP2 DUP3 DUP3 MSTORE PUSH1 0x7 PUSH1 0x20 MSTORE PUSH2 0x37B0 PUSH1 0x1 PUSH1 0xFF PUSH1 0x40 DUP6 KECCAK256 SLOAD AND ISZERO ISZERO EQ PUSH2 0x56B1 JUMP JUMPDEST DUP3 DUP3 MSTORE PUSH1 0x9 PUSH1 0x20 MSTORE PUSH1 0x40 DUP3 KECCAK256 SWAP4 PUSH1 0x40 MLOAD SWAP5 PUSH2 0x37CA DUP7 PUSH2 0x5674 JUMP JUMPDEST DUP1 SLOAD DUP7 MSTORE PUSH1 0x1 DUP2 ADD SLOAD PUSH1 0x20 DUP8 ADD MSTORE PUSH1 0x2 DUP2 ADD SLOAD PUSH1 0x40 DUP8 ADD MSTORE PUSH1 0x3 DUP2 ADD SLOAD PUSH1 0x60 DUP8 ADD MSTORE PUSH1 0x4 DUP2 ADD SLOAD PUSH1 0x80 DUP8 ADD MSTORE PUSH1 0x5 DUP2 ADD SLOAD PUSH1 0xA0 DUP8 ADD MSTORE PUSH1 0x6 DUP2 ADD SLOAD PUSH1 0xC0 DUP8 ADD MSTORE PUSH1 0x7 DUP2 ADD SLOAD PUSH1 0xE0 DUP8 ADD MSTORE PUSH1 0xFF PUSH1 0x8 DUP3 ADD SLOAD AND ISZERO ISZERO PUSH2 0x100 DUP8 ADD MSTORE PUSH1 0x9 DUP2 ADD SLOAD PUSH2 0x120 DUP8 ADD MSTORE PUSH1 0xA DUP2 ADD SLOAD PUSH2 0x140 DUP8 ADD MSTORE PUSH1 0xB DUP2 ADD SLOAD PUSH2 0x160 DUP8 ADD MSTORE PUSH1 0xFF PUSH1 0xC DUP3 ADD SLOAD AND ISZERO ISZERO PUSH2 0x180 DUP8 ADD MSTORE PUSH1 0xD DUP2 ADD SLOAD PUSH2 0x1A0 DUP8 ADD MSTORE PUSH1 0xFF PUSH1 0xE DUP3 ADD SLOAD AND ISZERO ISZERO PUSH2 0x1C0 DUP8 ADD MSTORE PUSH1 0xF DUP2 ADD SLOAD PUSH2 0x1E0 DUP8 ADD MSTORE PUSH1 0x40 MLOAD DUP1 PUSH1 0x20 PUSH1 0x10 DUP5 ADD SLOAD SWAP2 DUP3 DUP2 MSTORE ADD SWAP1 PUSH1 0x10 DUP5 ADD DUP8 MSTORE PUSH1 0x20 DUP8 KECCAK256 SWAP1 DUP8 JUMPDEST DUP2 DUP2 LT PUSH2 0x3DF0 JUMPI POP POP POP SWAP1 PUSH2 0x38B3 DUP2 PUSH1 0x18 SWAP5 SWAP4 SUB DUP3 PUSH2 0x5690 JUMP JUMPDEST PUSH2 0x200 DUP9 ADD MSTORE PUSH1 0x11 DUP2 ADD SLOAD PUSH2 0x220 DUP9 ADD MSTORE PUSH1 0x12 DUP2 ADD SLOAD PUSH2 0x240 DUP9 ADD MSTORE PUSH1 0x13 DUP2 ADD SLOAD PUSH1 0xFF AND ISZERO ISZERO PUSH2 0x260 DUP9 ADD MSTORE PUSH1 0x14 DUP2 ADD SLOAD PUSH2 0x280 DUP9 ADD MSTORE PUSH1 0x15 DUP2 ADD SLOAD PUSH2 0x2A0 DUP9 ADD MSTORE PUSH1 0x16 DUP2 ADD SLOAD PUSH2 0x2C0 DUP9 ADD MSTORE PUSH1 0x17 DUP2 ADD SLOAD PUSH2 0x2E0 DUP9 ADD MSTORE ADD SLOAD PUSH2 0x300 DUP7 ADD MSTORE PUSH1 0x1 SLOAD PUSH1 0x40 MLOAD PUSH4 0x521105AF PUSH1 0xE0 SHL DUP2 MSTORE CALLER PUSH1 0x4 DUP3 ADD MSTORE PUSH1 0x1 PUSH1 0x1 PUSH1 0xA0 SHL SUB SWAP1 SWAP2 AND SWAP1 PUSH1 0x20 DUP2 PUSH1 0x24 DUP2 DUP6 GAS STATICCALL SWAP1 DUP2 ISZERO PUSH2 0x3DE5 JUMPI DUP6 SWAP2 PUSH2 0x3DAE JUMPI JUMPDEST POP PUSH1 0x80 SWAP1 PUSH2 0x395F PUSH1 0x20 DUP10 ADD MLOAD DUP3 EQ PUSH2 0x5841 JUMP JUMPDEST PUSH1 0x24 PUSH1 0x40 MLOAD DUP1 SWAP5 DUP2 SWAP4 PUSH4 0x6287FA13 PUSH1 0xE1 SHL DUP4 MSTORE PUSH1 0x4 DUP4 ADD MSTORE GAS STATICCALL SWAP1 DUP2 ISZERO PUSH2 0x72A JUMPI PUSH2 0x3998 SWAP2 DUP6 SWAP2 DUP7 SWAP2 PUSH2 0x3339 JUMPI POP PUSH2 0x306E SWAP1 ISZERO ISZERO PUSH2 0x57DD JUMP JUMPDEST DUP2 EXTCODESIZE ISZERO PUSH2 0x6A3 JUMPI PUSH1 0x40 MLOAD PUSH4 0xCA44D57 PUSH1 0xE4 SHL DUP2 MSTORE PUSH1 0x24 CALLDATALOAD PUSH1 0x4 DUP3 ADD MSTORE DUP4 DUP2 PUSH1 0x24 DUP2 DUP7 GAS STATICCALL SWAP1 DUP2 ISZERO PUSH2 0x72A JUMPI DUP5 SWAP2 PUSH2 0x3D9A JUMPI JUMPDEST POP POP PUSH1 0x3 SLOAD PUSH1 0x40 MLOAD PUSH4 0x18FE01C7 PUSH1 0xE2 SHL DUP2 MSTORE PUSH1 0x1 PUSH1 0x1 PUSH1 0xA0 SHL SUB SWAP3 DUP4 AND PUSH1 0x4 DUP3 ADD MSTORE SWAP2 PUSH1 0x20 SWAP2 DUP4 SWAP2 PUSH1 0x24 SWAP2 DUP4 SWAP2 AND GAS STATICCALL SWAP1 DUP2 ISZERO PUSH2 0x6E1 JUMPI DUP4 SWAP2 PUSH2 0x3D65 JUMPI JUMPDEST POP PUSH2 0x3A15 DUP6 MLOAD DUP3 EQ PUSH2 0x5715 JUMP JUMPDEST DUP2 EXTCODESIZE ISZERO PUSH2 0x6A3 JUMPI DUP3 SWAP1 PUSH1 0x24 PUSH1 0x40 MLOAD DUP1 SWAP5 DUP2 SWAP4 PUSH4 0x9490D075 PUSH1 0xE0 SHL DUP4 MSTORE PUSH1 0x4 DUP4 ADD MSTORE GAS STATICCALL DUP1 ISZERO PUSH2 0x698 JUMPI PUSH2 0x3D51 JUMPI JUMPDEST POP POP PUSH2 0x120 DUP3 ADD MLOAD ISZERO PUSH2 0x3D26 JUMPI PUSH1 0x1 PUSH2 0x100 DUP4 ADD MLOAD ISZERO ISZERO SUB PUSH2 0x3CFB JUMPI PUSH2 0x160 DUP3 ADD MLOAD PUSH2 0x3CD0 JUMPI PUSH2 0x3A7E PUSH2 0x12C PUSH2 0x41B PUSH2 0x120 DUP6 ADD MLOAD TIMESTAMP PUSH2 0x5747 JUMP JUMPDEST PUSH1 0x24 CALLDATALOAD PUSH2 0x140 DUP4 ADD MSTORE TIMESTAMP PUSH2 0x160 DUP4 ADD MSTORE DUP3 MSTORE PUSH1 0x9 PUSH1 0x20 MSTORE PUSH1 0x40 DUP3 KECCAK256 SWAP1 DUP1 MLOAD DUP3 SSTORE PUSH1 0x20 DUP2 ADD MLOAD PUSH1 0x1 DUP4 ADD SSTORE PUSH1 0x40 DUP2 ADD MLOAD PUSH1 0x2 DUP4 ADD SSTORE PUSH1 0x60 DUP2 ADD MLOAD PUSH1 0x3 DUP4 ADD SSTORE PUSH1 0x80 DUP2 ADD MLOAD PUSH1 0x4 DUP4 ADD SSTORE PUSH1 0xA0 DUP2 ADD MLOAD PUSH1 0x5 DUP4 ADD SSTORE PUSH1 0xC0 DUP2 ADD MLOAD PUSH1 0x6 DUP4 ADD SSTORE PUSH1 0xE0 DUP2 ADD MLOAD PUSH1 0x7 DUP4 ADD SSTORE PUSH2 0x3B04 PUSH2 0x100 DUP3 ADD MLOAD ISZERO ISZERO PUSH1 0x8 DUP5 ADD SWAP1 PUSH1 0xFF DUP1 NOT DUP4 SLOAD AND SWAP2 ISZERO ISZERO AND OR SWAP1 SSTORE JUMP JUMPDEST PUSH2 0x120 DUP2 ADD MLOAD PUSH1 0x9 DUP4 ADD SSTORE PUSH2 0x140 DUP2 ADD MLOAD PUSH1 0xA DUP4 ADD SSTORE PUSH2 0x160 DUP2 ADD MLOAD PUSH1 0xB DUP4 ADD SSTORE PUSH2 0x3B45 PUSH2 0x180 DUP3 ADD MLOAD ISZERO ISZERO PUSH1 0xC DUP5 ADD SWAP1 PUSH1 0xFF DUP1 NOT DUP4 SLOAD AND SWAP2 ISZERO ISZERO AND OR SWAP1 SSTORE JUMP JUMPDEST PUSH2 0x1A0 DUP2 ADD MLOAD PUSH1 0xD DUP4 ADD SSTORE PUSH2 0x3B70 PUSH2 0x1C0 DUP3 ADD MLOAD ISZERO ISZERO PUSH1 0xE DUP5 ADD SWAP1 PUSH1 0xFF DUP1 NOT DUP4 SLOAD AND SWAP2 ISZERO ISZERO AND OR SWAP1 SSTORE JUMP JUMPDEST PUSH2 0x1E0 DUP2 ADD MLOAD PUSH1 0xF DUP4 ADD SSTORE PUSH2 0x200 DUP2 ADD MLOAD DUP1 MLOAD SWAP1 PUSH1 0x1 PUSH1 0x1 PUSH1 0x40 SHL SUB DUP3 GT PUSH2 0x132B JUMPI PUSH1 0x1 PUSH1 0x40 SHL DUP3 GT PUSH2 0x132B JUMPI PUSH1 0x10 DUP5 ADD SLOAD DUP3 PUSH1 0x10 DUP7 ADD SSTORE DUP1 DUP4 LT PUSH2 0x3CA6 JUMPI JUMPDEST POP PUSH1 0x20 ADD PUSH1 0x10 DUP5 ADD DUP6 MSTORE PUSH1 0x20 DUP6 KECCAK256 DUP6 JUMPDEST DUP4 DUP2 LT PUSH2 0x3C92 JUMPI DUP7 DUP7 PUSH1 0x18 PUSH2 0x300 DUP9 PUSH2 0x220 DUP2 ADD MLOAD PUSH1 0x11 DUP6 ADD SSTORE PUSH2 0x240 DUP2 ADD MLOAD PUSH1 0x12 DUP6 ADD SSTORE PUSH2 0x3C05 PUSH2 0x260 DUP3 ADD MLOAD ISZERO ISZERO PUSH1 0x13 DUP7 ADD SWAP1 PUSH1 0xFF DUP1 NOT DUP4 SLOAD AND SWAP2 ISZERO ISZERO AND OR SWAP1 SSTORE JUMP JUMPDEST PUSH2 0x280 DUP2 ADD MLOAD PUSH1 0x14 DUP6 ADD SSTORE PUSH2 0x2A0 DUP2 ADD MLOAD PUSH1 0x15 DUP6 ADD SSTORE PUSH2 0x2C0 DUP2 ADD MLOAD PUSH1 0x16 DUP6 ADD SSTORE PUSH2 0x2E0 DUP2 ADD MLOAD PUSH1 0x17 DUP6 ADD SSTORE ADD MLOAD SWAP2 ADD SSTORE PUSH1 0x1 SLOAD DUP2 SWAP1 PUSH1 0x1 PUSH1 0x1 PUSH1 0xA0 SHL SUB AND DUP1 EXTCODESIZE ISZERO PUSH2 0x3C8F JUMPI DUP2 DUP1 SWAP2 PUSH1 0x44 PUSH1 0x40 MLOAD DUP1 SWAP5 DUP2 SWAP4 PUSH4 0x774AF93F PUSH1 0xE1 SHL DUP4 MSTORE PUSH1 0x24 CALLDATALOAD PUSH1 0x4 DUP5 ADD MSTORE PUSH1 0x2 PUSH1 0x24 DUP5 ADD MSTORE GAS CALL DUP1 ISZERO PUSH2 0x698 JUMPI PUSH2 0x3C7F JUMPI POP RETURN JUMPDEST PUSH2 0x3C88 SWAP1 PUSH2 0x564B JUMP JUMPDEST PUSH2 0x79A JUMPI DUP1 RETURN JUMPDEST POP REVERT JUMPDEST PUSH1 0x1 SWAP1 PUSH1 0x20 DUP5 MLOAD SWAP5 ADD SWAP4 DUP2 DUP5 ADD SSTORE ADD PUSH2 0x3BC0 JUMP JUMPDEST PUSH1 0x10 DUP6 ADD DUP7 MSTORE PUSH1 0x20 DUP7 KECCAK256 SWAP1 DUP4 DUP3 ADD JUMPDEST DUP2 DUP4 ADD DUP2 LT PUSH2 0x3CC5 JUMPI POP POP PUSH2 0x3BB0 JUMP JUMPDEST DUP8 DUP2 SSTORE PUSH1 0x1 ADD PUSH2 0x3CB5 JUMP JUMPDEST PUSH1 0x64 PUSH1 0x40 MLOAD PUSH3 0x461BCD PUSH1 0xE5 SHL DUP2 MSTORE PUSH1 0x20 PUSH1 0x4 DUP3 ADD MSTORE PUSH1 0x4 PUSH1 0x24 DUP3 ADD MSTORE PUSH4 0x29291A99 PUSH1 0xE1 SHL PUSH1 0x44 DUP3 ADD MSTORE REVERT JUMPDEST PUSH1 0x64 PUSH1 0x40 MLOAD PUSH3 0x461BCD PUSH1 0xE5 SHL DUP2 MSTORE PUSH1 0x20 PUSH1 0x4 DUP3 ADD MSTORE PUSH1 0x4 PUSH1 0x24 DUP3 ADD MSTORE PUSH4 0x52523531 PUSH1 0xE0 SHL PUSH1 0x44 DUP3 ADD MSTORE REVERT JUMPDEST PUSH1 0x64 PUSH1 0x40 MLOAD PUSH3 0x461BCD PUSH1 0xE5 SHL DUP2 MSTORE PUSH1 0x20 PUSH1 0x4 DUP3 ADD MSTORE PUSH1 0x4 PUSH1 0x24 DUP3 ADD MSTORE PUSH4 0x5252353 PUSH1 0xE4 SHL PUSH1 0x44 DUP3 ADD MSTORE REVERT JUMPDEST PUSH2 0x3D5A SWAP1 PUSH2 0x564B JUMP JUMPDEST PUSH2 0x6A3 JUMPI DUP3 CODESIZE PUSH2 0x3A43 JUMP JUMPDEST SWAP3 POP POP PUSH1 0x20 DUP3 RETURNDATASIZE PUSH1 0x20 GT PUSH2 0x3D92 JUMPI JUMPDEST DUP2 PUSH2 0x3D81 PUSH1 0x20 SWAP4 DUP4 PUSH2 0x5690 JUMP JUMPDEST DUP2 ADD SUB SLT PUSH2 0x6D4 JUMPI DUP5 SWAP2 MLOAD CODESIZE PUSH2 0x3A08 JUMP JUMPDEST RETURNDATASIZE SWAP2 POP PUSH2 0x3D74 JUMP JUMPDEST PUSH2 0x3DA3 SWAP1 PUSH2 0x564B JUMP JUMPDEST PUSH2 0x6A3 JUMPI DUP3 CODESIZE PUSH2 0x39CA JUMP JUMPDEST SWAP5 POP POP PUSH1 0x20 DUP5 RETURNDATASIZE PUSH1 0x20 GT PUSH2 0x3DDD JUMPI JUMPDEST DUP2 PUSH2 0x3DCA PUSH1 0x20 SWAP4 DUP4 PUSH2 0x5690 JUMP JUMPDEST DUP2 ADD SUB SLT PUSH2 0x6D4 JUMPI PUSH1 0x80 DUP8 SWAP5 MLOAD SWAP1 PUSH2 0x394C JUMP JUMPDEST RETURNDATASIZE SWAP2 POP PUSH2 0x3DBD JUMP JUMPDEST PUSH1 0x40 MLOAD RETURNDATASIZE DUP8 DUP3 RETURNDATACOPY RETURNDATASIZE SWAP1 REVERT JUMPDEST DUP3 SLOAD DUP5 MSTORE DUP12 SWAP9 POP PUSH1 0x20 SWAP1 SWAP4 ADD SWAP3 PUSH1 0x1 SWAP3 DUP4 ADD SWAP3 ADD PUSH2 0x3899 JUMP JUMPDEST PUSH2 0x3E12 SWAP1 PUSH2 0x564B JUMP JUMPDEST PUSH2 0x6A3 JUMPI DUP3 CODESIZE PUSH2 0x377A JUMP JUMPDEST POP CALLVALUE PUSH2 0x79A JUMPI PUSH1 0x20 CALLDATASIZE PUSH1 0x3 NOT ADD SLT PUSH2 0x79A JUMPI PUSH1 0x1 PUSH1 0x1 PUSH1 0xA0 SHL SUB PUSH2 0x3E3F PUSH2 0x5635 JUMP JUMPDEST AND DUP1 DUP3 MSTORE PUSH1 0x6 PUSH1 0x20 MSTORE PUSH1 0x40 DUP3 KECCAK256 SLOAD DUP1 DUP4 MSTORE PUSH1 0x9 PUSH1 0x20 MSTORE DUP3 PUSH1 0x40 DUP2 KECCAK256 SWAP3 PUSH1 0x40 MLOAD SWAP4 PUSH2 0x3E68 DUP6 PUSH2 0x5674 JUMP JUMPDEST DUP1 SLOAD DUP6 MSTORE PUSH1 0x1 DUP2 ADD SLOAD PUSH1 0x20 DUP7 ADD MSTORE PUSH1 0x2 DUP2 ADD SLOAD PUSH1 0x40 DUP7 ADD MSTORE PUSH1 0x3 DUP2 ADD SLOAD PUSH1 0x60 DUP7 ADD MSTORE PUSH1 0x4 DUP2 ADD SLOAD PUSH1 0x80 DUP7 ADD MSTORE PUSH1 0x5 DUP2 ADD SLOAD PUSH1 0xA0 DUP7 ADD MSTORE PUSH1 0x6 DUP2 ADD SLOAD PUSH1 0xC0 DUP7 ADD MSTORE PUSH1 0x7 DUP2 ADD SLOAD PUSH1 0xE0 DUP7 ADD MSTORE PUSH1 0xFF PUSH1 0x8 DUP3 ADD SLOAD AND ISZERO ISZERO PUSH2 0x100 DUP7 ADD MSTORE PUSH1 0x9 DUP2 ADD SLOAD PUSH2 0x120 DUP7 ADD MSTORE PUSH1 0xA DUP2 ADD SLOAD PUSH2 0x140 DUP7 ADD MSTORE PUSH1 0xB DUP2 ADD SLOAD PUSH2 0x160 DUP7 ADD MSTORE PUSH1 0xFF PUSH1 0xC DUP3 ADD SLOAD AND ISZERO ISZERO PUSH2 0x180 DUP7 ADD MSTORE PUSH1 0xD DUP2 ADD SLOAD PUSH2 0x1A0 DUP7 ADD MSTORE PUSH1 0xFF PUSH1 0xE DUP3 ADD SLOAD AND ISZERO ISZERO PUSH2 0x1C0 DUP7 ADD MSTORE PUSH1 0xF DUP2 ADD SLOAD PUSH2 0x1E0 DUP7 ADD MSTORE PUSH1 0x40 MLOAD DUP1 PUSH1 0x20 PUSH1 0x10 DUP5 ADD SLOAD SWAP2 DUP3 DUP2 MSTORE ADD SWAP1 PUSH1 0x10 DUP5 ADD DUP7 MSTORE PUSH1 0x20 DUP7 KECCAK256 SWAP1 DUP7 JUMPDEST DUP2 DUP2 LT PUSH2 0x41E5 JUMPI POP POP POP DUP2 PUSH2 0x3F4D SWAP2 SUB DUP3 PUSH2 0x5690 JUMP JUMPDEST PUSH2 0x200 DUP7 ADD MSTORE PUSH1 0x11 DUP2 ADD SLOAD PUSH2 0x220 DUP7 ADD MSTORE PUSH1 0x12 DUP2 ADD SLOAD PUSH2 0x240 DUP7 ADD MSTORE PUSH1 0xFF PUSH1 0x13 DUP3 ADD SLOAD AND ISZERO ISZERO PUSH2 0x260 DUP7 ADD MSTORE PUSH1 0x14 DUP2 ADD SLOAD PUSH2 0x280 DUP7 ADD MSTORE PUSH1 0x15 DUP2 ADD SLOAD SWAP1 DUP2 PUSH2 0x2A0 DUP8 ADD MSTORE PUSH1 0x16 DUP2 ADD SLOAD PUSH2 0x2C0 DUP8 ADD MSTORE PUSH1 0x18 PUSH1 0x17 DUP3 ADD SLOAD SWAP2 DUP3 PUSH2 0x2E0 DUP10 ADD MSTORE ADD SLOAD DUP1 PUSH2 0x300 DUP9 ADD MSTORE ISZERO SWAP2 DUP3 PUSH2 0x41D9 JUMPI JUMPDEST POP DUP2 PUSH2 0x41D0 JUMPI JUMPDEST POP PUSH2 0x3FCC JUMPI POP DUP1 RETURN JUMPDEST DUP2 DUP1 PUSH2 0x1F4 DUP2 SWAP4 DUP3 CALL ISZERO PUSH2 0x698 JUMPI PUSH2 0x1F4 PUSH2 0x2E0 DUP4 ADD MSTORE TIMESTAMP PUSH2 0x300 DUP4 ADD MSTORE DUP3 MSTORE PUSH1 0x9 PUSH1 0x20 MSTORE PUSH1 0x40 DUP3 KECCAK256 SWAP1 DUP1 MLOAD DUP3 SSTORE PUSH1 0x20 DUP2 ADD MLOAD PUSH1 0x1 DUP4 ADD SSTORE PUSH1 0x40 DUP2 ADD MLOAD PUSH1 0x2 DUP4 ADD SSTORE PUSH1 0x60 DUP2 ADD MLOAD PUSH1 0x3 DUP4 ADD SSTORE PUSH1 0x80 DUP2 ADD MLOAD PUSH1 0x4 DUP4 ADD SSTORE PUSH1 0xA0 DUP2 ADD MLOAD PUSH1 0x5 DUP4 ADD SSTORE PUSH1 0xC0 DUP2 ADD MLOAD PUSH1 0x6 DUP4 ADD SSTORE PUSH1 0xE0 DUP2 ADD MLOAD PUSH1 0x7 DUP4 ADD SSTORE PUSH2 0x4060 PUSH2 0x100 DUP3 ADD MLOAD ISZERO ISZERO PUSH1 0x8 DUP5 ADD SWAP1 PUSH1 0xFF DUP1 NOT DUP4 SLOAD AND SWAP2 ISZERO ISZERO AND OR SWAP1 SSTORE JUMP JUMPDEST PUSH2 0x120 DUP2 ADD MLOAD PUSH1 0x9 DUP4 ADD SSTORE PUSH2 0x140 DUP2 ADD MLOAD PUSH1 0xA DUP4 ADD SSTORE PUSH2 0x160 DUP2 ADD MLOAD PUSH1 0xB DUP4 ADD SSTORE PUSH2 0x40A1 PUSH2 0x180 DUP3 ADD MLOAD ISZERO ISZERO PUSH1 0xC DUP5 ADD SWAP1 PUSH1 0xFF DUP1 NOT DUP4 SLOAD AND SWAP2 ISZERO ISZERO AND OR SWAP1 SSTORE JUMP JUMPDEST PUSH2 0x1A0 DUP2 ADD MLOAD PUSH1 0xD DUP4 ADD SSTORE PUSH2 0x40CC PUSH2 0x1C0 DUP3 ADD MLOAD ISZERO ISZERO PUSH1 0xE DUP5 ADD SWAP1 PUSH1 0xFF DUP1 NOT DUP4 SLOAD AND SWAP2 ISZERO ISZERO AND OR SWAP1 SSTORE JUMP JUMPDEST PUSH2 0x1E0 DUP2 ADD MLOAD PUSH1 0xF DUP4 ADD SSTORE PUSH1 0x10 DUP3 ADD PUSH2 0x200 DUP3 ADD MLOAD SWAP1 DUP2 MLOAD SWAP2 PUSH1 0x1 PUSH1 0x1 PUSH1 0x40 SHL SUB DUP4 GT PUSH2 0x616 JUMPI PUSH1 0x1 PUSH1 0x40 SHL DUP4 GT PUSH2 0x616 JUMPI DUP2 SLOAD DUP4 DUP4 SSTORE DUP1 DUP5 LT PUSH2 0x41AA JUMPI JUMPDEST POP PUSH1 0x20 ADD SWAP1 DUP6 MSTORE PUSH1 0x20 DUP6 KECCAK256 DUP6 JUMPDEST DUP4 DUP2 LT PUSH2 0x4196 JUMPI POP POP POP POP PUSH2 0x300 DUP2 PUSH2 0x220 PUSH1 0x18 SWAP4 ADD MLOAD PUSH1 0x11 DUP6 ADD SSTORE PUSH2 0x240 DUP2 ADD MLOAD PUSH1 0x12 DUP6 ADD SSTORE PUSH2 0x415F PUSH2 0x260 DUP3 ADD MLOAD ISZERO ISZERO PUSH1 0x13 DUP7 ADD SWAP1 PUSH1 0xFF DUP1 NOT DUP4 SLOAD AND SWAP2 ISZERO ISZERO AND OR SWAP1 SSTORE JUMP JUMPDEST PUSH2 0x280 DUP2 ADD MLOAD PUSH1 0x14 DUP6 ADD SSTORE PUSH2 0x2A0 DUP2 ADD MLOAD PUSH1 0x15 DUP6 ADD SSTORE PUSH2 0x2C0 DUP2 ADD MLOAD PUSH1 0x16 DUP6 ADD SSTORE PUSH2 0x2E0 DUP2 ADD MLOAD PUSH1 0x17 DUP6 ADD SSTORE ADD MLOAD SWAP2 ADD SSTORE CODESIZE DUP1 DUP3 DUP1 RETURN JUMPDEST PUSH1 0x1 SWAP1 PUSH1 0x20 DUP5 MLOAD SWAP5 ADD SWAP4 DUP2 DUP5 ADD SSTORE ADD PUSH2 0x4118 JUMP JUMPDEST DUP3 DUP8 MSTORE DUP4 PUSH1 0x20 DUP9 KECCAK256 SWAP2 DUP3 ADD SWAP2 ADD JUMPDEST DUP2 DUP2 LT PUSH2 0x41C5 JUMPI POP PUSH2 0x410B JUMP JUMPDEST DUP8 DUP2 SSTORE PUSH1 0x1 ADD PUSH2 0x41B8 JUMP JUMPDEST SWAP1 POP ISZERO CODESIZE PUSH2 0x3FC3 JUMP JUMPDEST PUSH2 0x1F4 EQ SWAP2 POP CODESIZE PUSH2 0x3FBC JUMP JUMPDEST DUP3 SLOAD DUP5 MSTORE DUP11 SWAP8 POP PUSH1 0x20 SWAP1 SWAP4 ADD SWAP3 PUSH1 0x1 SWAP3 DUP4 ADD SWAP3 ADD PUSH2 0x3F37 JUMP JUMPDEST POP CALLVALUE PUSH2 0x79A JUMPI PUSH1 0x20 CALLDATASIZE PUSH1 0x3 NOT ADD SLT PUSH2 0x79A JUMPI PUSH2 0x4218 PUSH2 0x5635 JUMP JUMPDEST PUSH1 0x5 SLOAD PUSH1 0x1 PUSH1 0x1 PUSH1 0xA0 SHL SUB AND DUP1 EXTCODESIZE ISZERO PUSH2 0x6A3 JUMPI PUSH1 0x40 MLOAD PUSH4 0xFCB260B PUSH1 0xE4 SHL DUP2 MSTORE CALLER PUSH1 0x4 DUP3 ADD MSTORE DUP4 SWAP1 DUP2 DUP2 PUSH1 0x24 DUP2 DUP7 GAS STATICCALL DUP1 ISZERO PUSH2 0x698 JUMPI PUSH2 0x47B7 JUMPI JUMPDEST POP POP PUSH1 0x1 DUP1 PUSH1 0xA0 SHL SUB DUP3 AND DUP4 MSTORE PUSH1 0x6 PUSH1 0x20 MSTORE DUP3 PUSH1 0x40 DUP2 KECCAK256 SLOAD SWAP2 DUP3 DUP3 MSTORE PUSH1 0x7 PUSH1 0x20 MSTORE PUSH2 0x4289 PUSH1 0x1 PUSH1 0xFF PUSH1 0x40 DUP6 KECCAK256 SLOAD AND ISZERO ISZERO EQ PUSH2 0x56B1 JUMP JUMPDEST DUP3 DUP3 MSTORE PUSH1 0x9 PUSH1 0x20 MSTORE PUSH1 0x40 DUP3 KECCAK256 SWAP4 PUSH1 0x40 MLOAD SWAP5 PUSH2 0x42A3 DUP7 PUSH2 0x5674 JUMP JUMPDEST DUP1 SLOAD DUP7 MSTORE PUSH1 0x1 DUP2 ADD SLOAD PUSH1 0x20 DUP8 ADD MSTORE PUSH1 0x2 DUP2 ADD SLOAD PUSH1 0x40 DUP8 ADD MSTORE PUSH1 0x3 DUP2 ADD SLOAD PUSH1 0x60 DUP8 ADD MSTORE PUSH1 0x4 DUP2 ADD SLOAD PUSH1 0x80 DUP8 ADD MSTORE PUSH1 0x5 DUP2 ADD SLOAD PUSH1 0xA0 DUP8 ADD MSTORE PUSH1 0x6 DUP2 ADD SLOAD PUSH1 0xC0 DUP8 ADD MSTORE PUSH1 0x7 DUP2 ADD SLOAD PUSH1 0xE0 DUP8 ADD MSTORE PUSH1 0xFF PUSH1 0x8 DUP3 ADD SLOAD AND ISZERO ISZERO PUSH2 0x100 DUP8 ADD MSTORE PUSH1 0x9 DUP2 ADD SLOAD PUSH2 0x120 DUP8 ADD MSTORE PUSH1 0xA DUP2 ADD SLOAD PUSH2 0x140 DUP8 ADD MSTORE PUSH1 0xB DUP2 ADD SLOAD PUSH2 0x160 DUP8 ADD MSTORE PUSH1 0xFF PUSH1 0xC DUP3 ADD SLOAD AND ISZERO ISZERO PUSH2 0x180 DUP8 ADD MSTORE PUSH1 0xD DUP2 ADD SLOAD PUSH2 0x1A0 DUP8 ADD MSTORE PUSH1 0xFF PUSH1 0xE DUP3 ADD SLOAD AND ISZERO ISZERO PUSH2 0x1C0 DUP8 ADD MSTORE PUSH1 0xF DUP2 ADD SLOAD PUSH2 0x1E0 DUP8 ADD MSTORE PUSH1 0x40 MLOAD DUP1 PUSH1 0x20 PUSH1 0x10 DUP5 ADD SLOAD SWAP2 DUP3 DUP2 MSTORE ADD SWAP1 PUSH1 0x10 DUP5 ADD DUP8 MSTORE PUSH1 0x20 DUP8 KECCAK256 SWAP1 DUP8 JUMPDEST DUP2 DUP2 LT PUSH2 0x479E JUMPI POP POP POP SWAP1 PUSH2 0x438C DUP2 PUSH1 0x18 SWAP5 SWAP4 SUB DUP3 PUSH2 0x5690 JUMP JUMPDEST PUSH2 0x200 DUP9 ADD MSTORE PUSH1 0x11 DUP2 ADD SLOAD PUSH2 0x220 DUP9 ADD MSTORE PUSH1 0x12 DUP2 ADD SLOAD PUSH2 0x240 DUP9 ADD MSTORE PUSH1 0x13 DUP2 ADD SLOAD PUSH1 0xFF AND ISZERO ISZERO PUSH2 0x260 DUP9 ADD MSTORE PUSH1 0x14 DUP2 ADD SLOAD PUSH2 0x280 DUP9 ADD MSTORE PUSH1 0x15 DUP2 ADD SLOAD PUSH2 0x2A0 DUP9 ADD MSTORE PUSH1 0x16 DUP2 ADD SLOAD PUSH2 0x2C0 DUP9 ADD MSTORE PUSH1 0x17 DUP2 ADD SLOAD PUSH2 0x2E0 DUP9 ADD MSTORE ADD SLOAD PUSH2 0x300 DUP7 ADD MSTORE PUSH1 0x1 SLOAD PUSH1 0x40 MLOAD PUSH4 0x521105AF PUSH1 0xE0 SHL DUP2 MSTORE CALLER PUSH1 0x4 DUP3 ADD MSTORE SWAP1 PUSH1 0x20 SWAP1 DUP3 SWAP1 PUSH1 0x24 SWAP1 DUP3 SWAP1 PUSH1 0x1 PUSH1 0x1 PUSH1 0xA0 SHL SUB AND GAS STATICCALL SWAP1 DUP2 ISZERO PUSH2 0x72A JUMPI DUP5 SWAP2 PUSH2 0x4766 JUMPI JUMPDEST POP PUSH2 0x4436 SWAP1 PUSH1 0x20 DUP8 ADD MLOAD EQ PUSH2 0x5841 JUMP JUMPDEST PUSH1 0x3 SLOAD PUSH1 0x40 MLOAD PUSH4 0x18FE01C7 PUSH1 0xE2 SHL DUP2 MSTORE PUSH1 0x1 PUSH1 0x1 PUSH1 0xA0 SHL SUB SWAP3 DUP4 AND PUSH1 0x4 DUP3 ADD MSTORE SWAP2 PUSH1 0x20 SWAP2 DUP4 SWAP2 PUSH1 0x24 SWAP2 DUP4 SWAP2 AND GAS STATICCALL SWAP1 DUP2 ISZERO PUSH2 0x6E1 JUMPI DUP4 SWAP2 PUSH2 0x4731 JUMPI JUMPDEST POP PUSH2 0x447F DUP6 MLOAD DUP3 EQ PUSH2 0x5715 JUMP JUMPDEST DUP2 EXTCODESIZE ISZERO PUSH2 0x6A3 JUMPI DUP3 SWAP1 PUSH1 0x24 PUSH1 0x40 MLOAD DUP1 SWAP5 DUP2 SWAP4 PUSH4 0x9490D075 PUSH1 0xE0 SHL DUP4 MSTORE PUSH1 0x4 DUP4 ADD MSTORE GAS STATICCALL DUP1 ISZERO PUSH2 0x698 JUMPI PUSH2 0x471D JUMPI JUMPDEST POP POP PUSH2 0x1E0 DUP3 ADD MLOAD ISZERO PUSH2 0x46F2 JUMPI PUSH1 0x1 PUSH2 0x1C0 DUP4 ADD MLOAD ISZERO ISZERO SUB PUSH2 0x46C7 JUMPI PUSH2 0x44DE PUSH2 0x258 PUSH2 0x41B PUSH2 0x1E0 DUP6 ADD MLOAD TIMESTAMP PUSH2 0x5747 JUMP JUMPDEST PUSH2 0x240 DUP3 ADD MLOAD PUSH2 0x469C JUMPI TIMESTAMP PUSH2 0x240 DUP4 ADD MSTORE DUP3 MSTORE PUSH1 0x9 PUSH1 0x20 MSTORE PUSH1 0x40 DUP3 KECCAK256 SWAP1 DUP1 MLOAD DUP3 SSTORE PUSH1 0x20 DUP2 ADD MLOAD PUSH1 0x1 DUP4 ADD SSTORE PUSH1 0x40 DUP2 ADD MLOAD PUSH1 0x2 DUP4 ADD SSTORE PUSH1 0x60 DUP2 ADD MLOAD PUSH1 0x3 DUP4 ADD SSTORE PUSH1 0x80 DUP2 ADD MLOAD PUSH1 0x4 DUP4 ADD SSTORE PUSH1 0xA0 DUP2 ADD MLOAD PUSH1 0x5 DUP4 ADD SSTORE PUSH1 0xC0 DUP2 ADD MLOAD PUSH1 0x6 DUP4 ADD SSTORE PUSH1 0xE0 DUP2 ADD MLOAD PUSH1 0x7 DUP4 ADD SSTORE PUSH2 0x4565 PUSH2 0x100 DUP3 ADD MLOAD ISZERO ISZERO PUSH1 0x8 DUP5 ADD SWAP1 PUSH1 0xFF DUP1 NOT DUP4 SLOAD AND SWAP2 ISZERO ISZERO AND OR SWAP1 SSTORE JUMP JUMPDEST PUSH2 0x120 DUP2 ADD MLOAD PUSH1 0x9 DUP4 ADD SSTORE PUSH2 0x140 DUP2 ADD MLOAD PUSH1 0xA DUP4 ADD SSTORE PUSH2 0x160 DUP2 ADD MLOAD PUSH1 0xB DUP4 ADD SSTORE PUSH2 0x45A6 PUSH2 0x180 DUP3 ADD MLOAD ISZERO ISZERO PUSH1 0xC DUP5 ADD SWAP1 PUSH1 0xFF DUP1 NOT DUP4 SLOAD AND SWAP2 ISZERO ISZERO AND OR SWAP1 SSTORE JUMP JUMPDEST PUSH2 0x1A0 DUP2 ADD MLOAD PUSH1 0xD DUP4 ADD SSTORE PUSH2 0x45D1 PUSH2 0x1C0 DUP3 ADD MLOAD ISZERO ISZERO PUSH1 0xE DUP5 ADD SWAP1 PUSH1 0xFF DUP1 NOT DUP4 SLOAD AND SWAP2 ISZERO ISZERO AND OR SWAP1 SSTORE JUMP JUMPDEST PUSH2 0x1E0 DUP2 ADD MLOAD PUSH1 0xF DUP4 ADD SSTORE PUSH1 0x10 DUP3 ADD PUSH2 0x200 DUP3 ADD MLOAD SWAP1 DUP2 MLOAD SWAP2 PUSH1 0x1 PUSH1 0x1 PUSH1 0x40 SHL SUB DUP4 GT PUSH2 0x616 JUMPI PUSH1 0x1 PUSH1 0x40 SHL DUP4 GT PUSH2 0x616 JUMPI DUP2 SLOAD DUP4 DUP4 SSTORE DUP1 DUP5 LT PUSH2 0x4676 JUMPI JUMPDEST POP PUSH1 0x20 ADD SWAP1 DUP6 MSTORE PUSH1 0x20 DUP6 KECCAK256 DUP6 JUMPDEST DUP4 DUP2 LT PUSH2 0x4662 JUMPI DUP7 DUP7 PUSH1 0x18 PUSH2 0x300 DUP9 PUSH2 0x220 DUP2 ADD MLOAD PUSH1 0x11 DUP6 ADD SSTORE PUSH2 0x240 DUP2 ADD MLOAD PUSH1 0x12 DUP6 ADD SSTORE PUSH2 0x5A8 PUSH2 0x260 DUP3 ADD MLOAD ISZERO ISZERO PUSH1 0x13 DUP7 ADD SWAP1 PUSH1 0xFF DUP1 NOT DUP4 SLOAD AND SWAP2 ISZERO ISZERO AND OR SWAP1 SSTORE JUMP JUMPDEST PUSH1 0x1 SWAP1 PUSH1 0x20 DUP5 MLOAD SWAP5 ADD SWAP4 DUP2 DUP5 ADD SSTORE ADD PUSH2 0x461D JUMP JUMPDEST DUP3 DUP8 MSTORE DUP4 PUSH1 0x20 DUP9 KECCAK256 SWAP2 DUP3 ADD SWAP2 ADD JUMPDEST DUP2 DUP2 LT PUSH2 0x4691 JUMPI POP PUSH2 0x4610 JUMP JUMPDEST DUP8 DUP2 SSTORE PUSH1 0x1 ADD PUSH2 0x4684 JUMP JUMPDEST PUSH1 0x64 PUSH1 0x40 MLOAD PUSH3 0x461BCD PUSH1 0xE5 SHL DUP2 MSTORE PUSH1 0x20 PUSH1 0x4 DUP3 ADD MSTORE PUSH1 0x4 PUSH1 0x24 DUP3 ADD MSTORE PUSH4 0x52523839 PUSH1 0xE0 SHL PUSH1 0x44 DUP3 ADD MSTORE REVERT JUMPDEST PUSH1 0x64 PUSH1 0x40 MLOAD PUSH3 0x461BCD PUSH1 0xE5 SHL DUP2 MSTORE PUSH1 0x20 PUSH1 0x4 DUP3 ADD MSTORE PUSH1 0x4 PUSH1 0x24 DUP3 ADD MSTORE PUSH4 0x14948D8D PUSH1 0xE2 SHL PUSH1 0x44 DUP3 ADD MSTORE REVERT JUMPDEST PUSH1 0x64 PUSH1 0x40 MLOAD PUSH3 0x461BCD PUSH1 0xE5 SHL DUP2 MSTORE PUSH1 0x20 PUSH1 0x4 DUP3 ADD MSTORE PUSH1 0x4 PUSH1 0x24 DUP3 ADD MSTORE PUSH4 0xA4A46A7 PUSH1 0xE3 SHL PUSH1 0x44 DUP3 ADD MSTORE REVERT JUMPDEST PUSH2 0x4726 SWAP1 PUSH2 0x564B JUMP JUMPDEST PUSH2 0x6A3 JUMPI DUP3 CODESIZE PUSH2 0x44AD JUMP JUMPDEST SWAP3 POP POP PUSH1 0x20 DUP3 RETURNDATASIZE PUSH1 0x20 GT PUSH2 0x475E JUMPI JUMPDEST DUP2 PUSH2 0x474D PUSH1 0x20 SWAP4 DUP4 PUSH2 0x5690 JUMP JUMPDEST DUP2 ADD SUB SLT PUSH2 0x6D4 JUMPI DUP5 SWAP2 MLOAD CODESIZE PUSH2 0x4472 JUMP JUMPDEST RETURNDATASIZE SWAP2 POP PUSH2 0x4740 JUMP JUMPDEST SWAP4 POP POP PUSH1 0x20 DUP4 RETURNDATASIZE PUSH1 0x20 GT PUSH2 0x4796 JUMPI JUMPDEST DUP2 PUSH2 0x4782 PUSH1 0x20 SWAP4 DUP4 PUSH2 0x5690 JUMP JUMPDEST DUP2 ADD SUB SLT PUSH2 0x6D4 JUMPI PUSH2 0x4436 DUP7 SWAP4 MLOAD SWAP1 PUSH2 0x4426 JUMP JUMPDEST RETURNDATASIZE SWAP2 POP PUSH2 0x4775 JUMP JUMPDEST DUP3 SLOAD DUP5 MSTORE DUP12 SWAP9 POP PUSH1 0x20 SWAP1 SWAP4 ADD SWAP3 PUSH1 0x1 SWAP3 DUP4 ADD SWAP3 ADD PUSH2 0x4372 JUMP JUMPDEST PUSH2 0x47C0 SWAP1 PUSH2 0x564B JUMP JUMPDEST PUSH2 0x6A3 JUMPI DUP3 CODESIZE PUSH2 0x4253 JUMP JUMPDEST POP CALLVALUE PUSH2 0x79A JUMPI DUP1 PUSH1 0x3 NOT CALLDATASIZE ADD SLT PUSH2 0x79A JUMPI PUSH1 0x20 PUSH1 0x40 MLOAD PUSH2 0x1F4 DUP2 MSTORE RETURN JUMPDEST POP CALLVALUE PUSH2 0x79A JUMPI PUSH2 0x47F7 CALLDATASIZE PUSH2 0x5616 JUMP JUMPDEST PUSH1 0x5 SLOAD PUSH1 0x1 PUSH1 0x1 PUSH1 0xA0 SHL SUB AND SWAP2 SWAP1 DUP3 EXTCODESIZE ISZERO PUSH2 0x694 JUMPI PUSH1 0x40 MLOAD PUSH4 0x423164BF PUSH1 0xE1 SHL DUP2 MSTORE CALLER PUSH1 0x4 DUP3 ADD MSTORE DUP5 SWAP1 DUP2 DUP2 PUSH1 0x24 DUP2 DUP9 GAS STATICCALL DUP1 ISZERO PUSH2 0x698 JUMPI PUSH2 0x4E8F JUMPI JUMPDEST POP POP CALLER DUP5 MSTORE PUSH1 0x6 PUSH1 0x20 MSTORE PUSH1 0x40 DUP5 KECCAK256 SLOAD SWAP2 DUP3 DUP6 MSTORE PUSH1 0x7 PUSH1 0x20 MSTORE PUSH2 0x4861 PUSH1 0x1 PUSH1 0xFF PUSH1 0x40 DUP9 KECCAK256 SLOAD AND ISZERO ISZERO EQ PUSH2 0x56B1 JUMP JUMPDEST DUP3 DUP6 MSTORE PUSH1 0x9 PUSH1 0x20 MSTORE DUP5 PUSH1 0x40 DUP2 KECCAK256 SWAP5 PUSH1 0x40 MLOAD SWAP6 PUSH2 0x487C DUP8 PUSH2 0x5674 JUMP JUMPDEST DUP1 SLOAD DUP8 MSTORE PUSH1 0x1 DUP2 ADD SLOAD PUSH1 0x20 DUP9 ADD MSTORE PUSH1 0x2 DUP2 ADD SLOAD PUSH1 0x40 DUP9 ADD MSTORE PUSH1 0x3 DUP2 ADD SLOAD PUSH1 0x60 DUP9 ADD MSTORE PUSH1 0x4 DUP2 ADD SLOAD PUSH1 0x80 DUP9 ADD MSTORE PUSH1 0x5 DUP2 ADD SLOAD PUSH1 0xA0 DUP9 ADD MSTORE PUSH1 0x6 DUP2 ADD SLOAD PUSH1 0xC0 DUP9 ADD MSTORE PUSH1 0x7 DUP2 ADD SLOAD PUSH1 0xE0 DUP9 ADD MSTORE PUSH1 0xFF PUSH1 0x8 DUP3 ADD SLOAD AND ISZERO ISZERO PUSH2 0x100 DUP9 ADD MSTORE PUSH1 0x9 DUP2 ADD SLOAD PUSH2 0x120 DUP9 ADD MSTORE PUSH1 0xA DUP2 ADD SLOAD PUSH2 0x140 DUP9 ADD MSTORE PUSH1 0xB DUP2 ADD SLOAD PUSH2 0x160 DUP9 ADD MSTORE PUSH1 0xFF PUSH1 0xC DUP3 ADD SLOAD AND ISZERO ISZERO PUSH2 0x180 DUP9 ADD MSTORE PUSH1 0xD DUP2 ADD SLOAD PUSH2 0x1A0 DUP9 ADD MSTORE PUSH1 0xFF PUSH1 0xE DUP3 ADD SLOAD AND ISZERO ISZERO PUSH2 0x1C0 DUP9 ADD MSTORE PUSH1 0xF DUP2 ADD SLOAD PUSH2 0x1E0 DUP9 ADD MSTORE PUSH1 0x40 MLOAD DUP1 PUSH1 0x20 PUSH1 0x10 DUP5 ADD SLOAD SWAP2 DUP3 DUP2 MSTORE ADD SWAP1 PUSH1 0x10 DUP5 ADD DUP7 MSTORE PUSH1 0x20 DUP7 KECCAK256 SWAP1 DUP7 JUMPDEST DUP2 DUP2 LT PUSH2 0x4E76 JUMPI POP POP POP SWAP1 PUSH2 0x4965 DUP2 PUSH1 0x18 SWAP5 SWAP4 SUB DUP3 PUSH2 0x5690 JUMP JUMPDEST PUSH2 0x200 DUP10 ADD MSTORE PUSH1 0x11 DUP2 ADD SLOAD PUSH2 0x220 DUP10 ADD MSTORE PUSH1 0x12 DUP2 ADD SLOAD PUSH2 0x240 DUP10 ADD MSTORE PUSH1 0xFF PUSH1 0x13 DUP3 ADD SLOAD AND ISZERO ISZERO PUSH2 0x260 DUP10 ADD MSTORE PUSH1 0x14 DUP2 ADD SLOAD PUSH2 0x280 DUP10 ADD MSTORE PUSH1 0x15 DUP2 ADD SLOAD PUSH2 0x2A0 DUP10 ADD MSTORE PUSH1 0x16 DUP2 ADD SLOAD PUSH2 0x2C0 DUP10 ADD MSTORE PUSH1 0x17 DUP2 ADD SLOAD PUSH2 0x2E0 DUP10 ADD MSTORE ADD SLOAD PUSH2 0x300 DUP8 ADD MSTORE PUSH2 0x49D4 PUSH1 0x20 DUP8 ADD MLOAD DUP5 EQ PUSH2 0x56E3 JUMP JUMPDEST PUSH1 0x3 SLOAD PUSH1 0x40 MLOAD PUSH4 0x18FE01C7 PUSH1 0xE2 SHL DUP2 MSTORE CALLER PUSH1 0x4 DUP3 ADD MSTORE SWAP1 PUSH1 0x20 SWAP1 DUP3 SWAP1 PUSH1 0x24 SWAP1 DUP3 SWAP1 PUSH1 0x1 PUSH1 0x1 PUSH1 0xA0 SHL SUB AND GAS STATICCALL SWAP1 DUP2 ISZERO PUSH2 0x6E1 JUMPI DUP4 SWAP2 PUSH2 0x4E41 JUMPI JUMPDEST POP PUSH2 0x4A1B DUP8 MLOAD DUP3 EQ PUSH2 0x5715 JUMP JUMPDEST DUP2 EXTCODESIZE ISZERO PUSH2 0x6A3 JUMPI PUSH1 0x40 MLOAD SWAP1 PUSH4 0x9490D075 PUSH1 0xE0 SHL DUP3 MSTORE PUSH1 0x4 DUP3 ADD MSTORE DUP3 DUP2 PUSH1 0x24 DUP2 DUP6 GAS STATICCALL SWAP1 DUP2 ISZERO PUSH2 0x6E1 JUMPI DUP4 SWAP2 PUSH2 0x4E2D JUMPI JUMPDEST POP POP PUSH1 0x1 SLOAD PUSH1 0x40 MLOAD PUSH4 0x6287FA13 PUSH1 0xE1 SHL DUP2 MSTORE PUSH1 0x4 DUP2 ADD DUP6 SWAP1 MSTORE SWAP1 PUSH1 0x80 SWAP1 DUP3 SWAP1 PUSH1 0x24 SWAP1 DUP3 SWAP1 PUSH1 0x1 PUSH1 0x1 PUSH1 0xA0 SHL SUB AND GAS STATICCALL SWAP1 DUP2 ISZERO PUSH2 0x6E1 JUMPI PUSH2 0x4AA5 SWAP2 DUP5 SWAP2 DUP6 SWAP2 PUSH2 0x4E04 JUMPI JUMPDEST POP PUSH2 0x4A9A SWAP1 ISZERO ISZERO PUSH2 0x57DD JUMP JUMPDEST PUSH1 0xA0 DUP9 ADD MLOAD EQ PUSH2 0x580F JUMP JUMPDEST PUSH2 0x140 DUP7 ADD MLOAD DUP2 EXTCODESIZE ISZERO PUSH2 0x6A3 JUMPI DUP3 SWAP1 PUSH1 0x24 PUSH1 0x40 MLOAD DUP1 SWAP5 DUP2 SWAP4 PUSH4 0x6F2F721 PUSH1 0xE0 SHL DUP4 MSTORE PUSH1 0x4 DUP4 ADD MSTORE GAS STATICCALL DUP1 ISZERO PUSH2 0x698 JUMPI PUSH2 0x4DF0 JUMPI JUMPDEST POP POP PUSH2 0x160 DUP5 ADD MLOAD ISZERO PUSH2 0x4DC5 JUMPI PUSH2 0x1A0 DUP5 ADD MLOAD PUSH2 0x4D9A JUMPI DUP5 SWAP2 PUSH2 0x4B07 PUSH2 0x12C PUSH2 0x41B PUSH2 0x160 DUP9 ADD MLOAD TIMESTAMP PUSH2 0x5747 JUMP JUMPDEST ISZERO DUP1 ISZERO PUSH2 0x180 DUP7 ADD MSTORE TIMESTAMP PUSH2 0x1A0 DUP7 ADD MSTORE PUSH2 0x4CC9 JUMPI JUMPDEST POP MSTORE PUSH1 0x9 PUSH1 0x20 MSTORE PUSH1 0x40 DUP3 KECCAK256 SWAP1 DUP1 MLOAD DUP3 SSTORE PUSH1 0x20 DUP2 ADD MLOAD PUSH1 0x1 DUP4 ADD SSTORE PUSH1 0x40 DUP2 ADD MLOAD PUSH1 0x2 DUP4 ADD SSTORE PUSH1 0x60 DUP2 ADD MLOAD PUSH1 0x3 DUP4 ADD SSTORE PUSH1 0x80 DUP2 ADD MLOAD PUSH1 0x4 DUP4 ADD SSTORE PUSH1 0xA0 DUP2 ADD MLOAD PUSH1 0x5 DUP4 ADD SSTORE PUSH1 0xC0 DUP2 ADD MLOAD PUSH1 0x6 DUP4 ADD SSTORE PUSH1 0xE0 DUP2 ADD MLOAD PUSH1 0x7 DUP4 ADD SSTORE PUSH2 0x4B92 PUSH2 0x100 DUP3 ADD MLOAD ISZERO ISZERO PUSH1 0x8 DUP5 ADD SWAP1 PUSH1 0xFF DUP1 NOT DUP4 SLOAD AND SWAP2 ISZERO ISZERO AND OR SWAP1 SSTORE JUMP JUMPDEST PUSH2 0x120 DUP2 ADD MLOAD PUSH1 0x9 DUP4 ADD SSTORE PUSH2 0x140 DUP2 ADD MLOAD PUSH1 0xA DUP4 ADD SSTORE PUSH2 0x160 DUP2 ADD MLOAD PUSH1 0xB DUP4 ADD SSTORE PUSH2 0x4BD3 PUSH2 0x180 DUP3 ADD MLOAD ISZERO ISZERO PUSH1 0xC DUP5 ADD SWAP1 PUSH1 0xFF DUP1 NOT DUP4 SLOAD AND SWAP2 ISZERO ISZERO AND OR SWAP1 SSTORE JUMP JUMPDEST PUSH2 0x1A0 DUP2 ADD MLOAD PUSH1 0xD DUP4 ADD SSTORE PUSH2 0x4BFE PUSH2 0x1C0 DUP3 ADD MLOAD ISZERO ISZERO PUSH1 0xE DUP5 ADD SWAP1 PUSH1 0xFF DUP1 NOT DUP4 SLOAD AND SWAP2 ISZERO ISZERO AND OR SWAP1 SSTORE JUMP JUMPDEST PUSH2 0x1E0 DUP2 ADD MLOAD PUSH1 0xF DUP4 ADD SSTORE PUSH1 0x10 DUP3 ADD PUSH2 0x200 DUP3 ADD MLOAD SWAP1 DUP2 MLOAD SWAP2 PUSH1 0x1 PUSH1 0x1 PUSH1 0x40 SHL SUB DUP4 GT PUSH2 0x616 JUMPI PUSH1 0x1 PUSH1 0x40 SHL DUP4 GT PUSH2 0x616 JUMPI DUP2 SLOAD DUP4 DUP4 SSTORE DUP1 DUP5 LT PUSH2 0x4CA3 JUMPI JUMPDEST POP PUSH1 0x20 ADD SWAP1 DUP6 MSTORE PUSH1 0x20 DUP6 KECCAK256 DUP6 JUMPDEST DUP4 DUP2 LT PUSH2 0x4C8F JUMPI DUP7 DUP7 PUSH1 0x18 PUSH2 0x300 DUP9 PUSH2 0x220 DUP2 ADD MLOAD PUSH1 0x11 DUP6 ADD SSTORE PUSH2 0x240 DUP2 ADD MLOAD PUSH1 0x12 DUP6 ADD SSTORE PUSH2 0x5A8 PUSH2 0x260 DUP3 ADD MLOAD ISZERO ISZERO PUSH1 0x13 DUP7 ADD SWAP1 PUSH1 0xFF DUP1 NOT DUP4 SLOAD AND SWAP2 ISZERO ISZERO AND OR SWAP1 SSTORE JUMP JUMPDEST PUSH1 0x1 SWAP1 PUSH1 0x20 DUP5 MLOAD SWAP5 ADD SWAP4 DUP2 DUP5 ADD SSTORE ADD PUSH2 0x4C4A JUMP JUMPDEST DUP3 DUP8 MSTORE DUP4 PUSH1 0x20 DUP9 KECCAK256 SWAP2 DUP3 ADD SWAP2 ADD JUMPDEST DUP2 DUP2 LT PUSH2 0x4CBE JUMPI POP PUSH2 0x4C3D JUMP JUMPDEST DUP8 DUP2 SSTORE PUSH1 0x1 ADD PUSH2 0x4CB1 JUMP JUMPDEST DUP3 DUP3 MSTORE PUSH1 0x7 PUSH1 0x20 MSTORE PUSH1 0x40 DUP3 KECCAK256 PUSH1 0xFF NOT SWAP1 DUP2 DUP2 SLOAD AND SWAP1 SSTORE PUSH1 0x8 PUSH1 0x20 MSTORE PUSH1 0x1 PUSH1 0x40 DUP5 KECCAK256 SWAP2 DUP3 SLOAD AND OR SWAP1 SSTORE DUP2 DUP1 DUP1 DUP1 PUSH2 0x1F4 CALLER DUP3 CALL ISZERO PUSH2 0x275F JUMPI PUSH1 0x1 SLOAD PUSH1 0x40 MLOAD PUSH4 0x5FCB6719 PUSH1 0xE1 SHL DUP2 MSTORE PUSH1 0x4 DUP2 ADD SWAP3 SWAP1 SWAP3 MSTORE PUSH1 0x20 SWAP1 DUP3 SWAP1 PUSH1 0x24 SWAP1 DUP3 SWAP1 PUSH1 0x1 PUSH1 0x1 PUSH1 0xA0 SHL SUB AND GAS STATICCALL SWAP1 DUP2 ISZERO PUSH2 0x698 JUMPI DUP3 PUSH2 0x1F4 DUP2 SWAP4 DUP3 SWAP4 DUP4 SWAP2 PUSH2 0x4D7B JUMPI JUMPDEST POP PUSH1 0x1 PUSH1 0x1 PUSH1 0xA0 SHL SUB AND DUP3 CALL ISZERO PUSH2 0x698 JUMPI PUSH2 0x1F4 PUSH2 0x2E0 DUP4 ADD MSTORE PUSH2 0x1F4 PUSH2 0x2A0 DUP4 ADD MSTORE TIMESTAMP PUSH2 0x300 DUP4 ADD MSTORE TIMESTAMP PUSH2 0x2C0 DUP4 ADD MSTORE DUP3 CODESIZE PUSH2 0x4B1C JUMP JUMPDEST PUSH2 0x4D94 SWAP2 POP PUSH1 0x20 RETURNDATASIZE PUSH1 0x20 GT PUSH2 0x2758 JUMPI PUSH2 0x274A DUP2 DUP4 PUSH2 0x5690 JUMP JUMPDEST CODESIZE PUSH2 0x4D43 JUMP JUMPDEST PUSH1 0x64 PUSH1 0x40 MLOAD PUSH3 0x461BCD PUSH1 0xE5 SHL DUP2 MSTORE PUSH1 0x20 PUSH1 0x4 DUP3 ADD MSTORE PUSH1 0x4 PUSH1 0x24 DUP3 ADD MSTORE PUSH4 0x14948D4D PUSH1 0xE2 SHL PUSH1 0x44 DUP3 ADD MSTORE REVERT JUMPDEST PUSH1 0x64 PUSH1 0x40 MLOAD PUSH3 0x461BCD PUSH1 0xE5 SHL DUP2 MSTORE PUSH1 0x20 PUSH1 0x4 DUP3 ADD MSTORE PUSH1 0x4 PUSH1 0x24 DUP3 ADD MSTORE PUSH4 0x52523533 PUSH1 0xE0 SHL PUSH1 0x44 DUP3 ADD MSTORE REVERT JUMPDEST PUSH2 0x4DF9 SWAP1 PUSH2 0x564B JUMP JUMPDEST PUSH2 0x21BF JUMPI DUP5 CODESIZE PUSH2 0x4AD9 JUMP JUMPDEST PUSH2 0x4A9A SWAP3 POP PUSH2 0x4E22 SWAP2 POP PUSH1 0x80 RETURNDATASIZE PUSH1 0x80 GT PUSH2 0x723 JUMPI PUSH2 0x70F DUP2 DUP4 PUSH2 0x5690 JUMP JUMPDEST POP SWAP3 SWAP2 POP SWAP2 SWAP1 PUSH2 0x4A8E JUMP JUMPDEST PUSH2 0x4E36 SWAP1 PUSH2 0x564B JUMP JUMPDEST PUSH2 0x13A8 JUMPI DUP2 CODESIZE PUSH2 0x4A4B JUMP JUMPDEST SWAP3 POP POP PUSH1 0x20 DUP3 RETURNDATASIZE PUSH1 0x20 GT PUSH2 0x4E6E JUMPI JUMPDEST DUP2 PUSH2 0x4E5D PUSH1 0x20 SWAP4 DUP4 PUSH2 0x5690 JUMP JUMPDEST DUP2 ADD SUB SLT PUSH2 0x6D4 JUMPI DUP7 SWAP2 MLOAD CODESIZE PUSH2 0x4A0E JUMP JUMPDEST RETURNDATASIZE SWAP2 POP PUSH2 0x4E50 JUMP JUMPDEST DUP3 SLOAD DUP5 MSTORE DUP13 SWAP8 POP PUSH1 0x20 SWAP1 SWAP4 ADD SWAP3 PUSH1 0x1 SWAP3 DUP4 ADD SWAP3 ADD PUSH2 0x494B JUMP JUMPDEST PUSH2 0x4E98 SWAP1 PUSH2 0x564B JUMP JUMPDEST PUSH2 0x694 JUMPI DUP4 CODESIZE PUSH2 0x4834 JUMP JUMPDEST POP CALLVALUE PUSH2 0x79A JUMPI PUSH1 0x20 CALLDATASIZE PUSH1 0x3 NOT ADD SLT PUSH2 0x79A JUMPI PUSH1 0x40 SWAP1 PUSH1 0x1 PUSH1 0x1 PUSH1 0xA0 SHL SUB PUSH2 0x4EC8 PUSH2 0x5635 JUMP JUMPDEST AND DUP2 MSTORE PUSH1 0x6 PUSH1 0x20 MSTORE PUSH1 0xFF DUP3 DUP1 DUP4 KECCAK256 SLOAD SWAP3 DUP4 DUP2 MSTORE PUSH1 0x7 PUSH1 0x20 MSTORE KECCAK256 SLOAD AND DUP3 MLOAD SWAP2 DUP3 MSTORE ISZERO ISZERO PUSH1 0x20 DUP3 ADD MSTORE RETURN JUMPDEST SWAP1 POP CALLVALUE PUSH2 0x13A8 JUMPI PUSH2 0x4F01 CALLDATASIZE PUSH2 0x5616 JUMP JUMPDEST PUSH1 0x5 SLOAD SWAP2 SWAP3 PUSH1 0x1 PUSH1 0x1 PUSH1 0xA0 SHL SUB SWAP1 SWAP3 AND SWAP2 DUP3 EXTCODESIZE ISZERO PUSH2 0x21BF JUMPI PUSH4 0x423164BF PUSH1 0xE1 SHL DUP2 MSTORE CALLER PUSH1 0x4 DUP3 ADD MSTORE DUP5 DUP2 PUSH1 0x24 DUP2 DUP7 GAS STATICCALL DUP1 ISZERO PUSH2 0x3DE5 JUMPI PUSH2 0x5603 JUMPI JUMPDEST POP CALLER DUP5 MSTORE PUSH1 0x6 PUSH1 0x20 MSTORE PUSH1 0x40 DUP5 KECCAK256 SLOAD SWAP2 DUP3 DUP6 MSTORE PUSH1 0x7 PUSH1 0x20 MSTORE PUSH2 0x4F68 PUSH1 0x1 PUSH1 0xFF PUSH1 0x40 DUP9 KECCAK256 SLOAD AND ISZERO ISZERO EQ PUSH2 0x56B1 JUMP JUMPDEST DUP3 DUP6 MSTORE PUSH1 0x9 PUSH1 0x20 MSTORE PUSH1 0x40 DUP6 KECCAK256 SWAP4 PUSH1 0x40 MLOAD SWAP5 PUSH2 0x4F82 DUP7 PUSH2 0x5674 JUMP JUMPDEST DUP1 SLOAD DUP7 MSTORE PUSH1 0x1 DUP2 ADD SLOAD PUSH1 0x20 DUP8 ADD MSTORE PUSH1 0x2 DUP2 ADD SLOAD PUSH1 0x40 DUP8 ADD MSTORE PUSH1 0x3 DUP2 ADD SLOAD PUSH1 0x60 DUP8 ADD MSTORE PUSH1 0x4 DUP2 ADD SLOAD PUSH1 0x80 DUP8 ADD MSTORE PUSH1 0x5 DUP2 ADD SLOAD PUSH1 0xA0 DUP8 ADD MSTORE PUSH1 0x6 DUP2 ADD SLOAD PUSH1 0xC0 DUP8 ADD MSTORE PUSH1 0x7 DUP2 ADD SLOAD PUSH1 0xE0 DUP8 ADD MSTORE PUSH1 0xFF PUSH1 0x8 DUP3 ADD SLOAD AND ISZERO ISZERO PUSH2 0x100 DUP8 ADD MSTORE PUSH1 0x9 DUP2 ADD SLOAD PUSH2 0x120 DUP8 ADD MSTORE PUSH1 0xA DUP2 ADD SLOAD PUSH2 0x140 DUP8 ADD MSTORE PUSH1 0xB DUP2 ADD SLOAD PUSH2 0x160 DUP8 ADD MSTORE PUSH1 0xFF PUSH1 0xC DUP3 ADD SLOAD AND ISZERO ISZERO PUSH2 0x180 DUP8 ADD MSTORE PUSH1 0xD DUP2 ADD SLOAD PUSH2 0x1A0 DUP8 ADD MSTORE PUSH1 0xFF PUSH1 0xE DUP3 ADD SLOAD AND ISZERO ISZERO PUSH2 0x1C0 DUP8 ADD MSTORE PUSH1 0xF DUP2 ADD SLOAD PUSH2 0x1E0 DUP8 ADD MSTORE PUSH1 0x40 MLOAD DUP1 PUSH1 0x20 PUSH1 0x10 DUP5 ADD SLOAD SWAP2 DUP3 DUP2 MSTORE ADD SWAP1 PUSH1 0x10 DUP5 ADD DUP11 MSTORE PUSH1 0x20 DUP11 KECCAK256 SWAP1 DUP11 JUMPDEST DUP2 DUP2 LT PUSH2 0x55ED JUMPI POP POP POP SWAP1 PUSH2 0x506B DUP2 PUSH1 0x18 SWAP5 SWAP4 SUB DUP3 PUSH2 0x5690 JUMP JUMPDEST PUSH2 0x200 DUP9 ADD MSTORE PUSH1 0x11 DUP2 ADD SLOAD PUSH2 0x220 DUP9 ADD MSTORE PUSH1 0x12 DUP2 ADD SLOAD PUSH2 0x240 DUP9 ADD MSTORE PUSH1 0xFF PUSH1 0x13 DUP3 ADD SLOAD AND ISZERO ISZERO PUSH2 0x260 DUP9 ADD MSTORE PUSH1 0x14 DUP2 ADD SLOAD PUSH2 0x280 DUP9 ADD MSTORE PUSH1 0x15 DUP2 ADD SLOAD PUSH2 0x2A0 DUP9 ADD MSTORE PUSH1 0x16 DUP2 ADD SLOAD PUSH2 0x2C0 DUP9 ADD MSTORE PUSH1 0x17 DUP2 ADD SLOAD PUSH2 0x2E0 DUP9 ADD MSTORE ADD SLOAD PUSH2 0x300 DUP7 ADD MSTORE PUSH2 0x50DA PUSH1 0x20 DUP7 ADD MLOAD DUP3 EQ PUSH2 0x56E3 JUMP JUMPDEST PUSH1 0x3 SLOAD PUSH1 0x40 MLOAD PUSH4 0x18FE01C7 PUSH1 0xE2 SHL DUP2 MSTORE CALLER PUSH1 0x4 DUP3 ADD MSTORE SWAP3 PUSH1 0x1 PUSH1 0x1 PUSH1 0xA0 SHL SUB SWAP1 SWAP2 AND SWAP1 DUP8 SWAP1 PUSH1 0x20 DUP6 PUSH1 0x24 DUP2 DUP7 GAS STATICCALL SWAP5 DUP6 ISZERO PUSH2 0x698 JUMPI DUP3 SWAP6 PUSH2 0x55B6 JUMPI JUMPDEST POP PUSH2 0x5123 DUP9 MLOAD DUP7 EQ PUSH2 0x5715 JUMP JUMPDEST DUP1 EXTCODESIZE ISZERO PUSH2 0x13A8 JUMPI DUP2 PUSH1 0x24 SWAP2 PUSH1 0x40 MLOAD SWAP3 DUP4 DUP1 SWAP3 PUSH4 0x9490D075 PUSH1 0xE0 SHL DUP3 MSTORE DUP10 PUSH1 0x4 DUP4 ADD MSTORE GAS STATICCALL DUP1 ISZERO PUSH2 0x698 JUMPI PUSH2 0x559E JUMPI JUMPDEST POP POP PUSH2 0x240 DUP7 ADD MLOAD ISZERO PUSH2 0x5573 JUMPI PUSH2 0x5174 PUSH2 0x12C PUSH2 0x41B PUSH2 0x240 DUP10 ADD MLOAD TIMESTAMP PUSH2 0x5747 JUMP JUMPDEST PUSH2 0x280 DUP7 ADD MLOAD PUSH2 0x5548 JUMPI PUSH1 0x1 DUP8 SWAP5 ISZERO ISZERO DUP1 PUSH2 0x260 DUP10 ADD MSTORE TIMESTAMP PUSH2 0x280 DUP10 ADD MSTORE EQ PUSH2 0x5347 JUMPI JUMPDEST POP POP POP MSTORE PUSH1 0x9 PUSH1 0x20 MSTORE PUSH1 0x40 DUP3 KECCAK256 SWAP1 DUP1 MLOAD DUP3 SSTORE PUSH1 0x20 DUP2 ADD MLOAD PUSH1 0x1 DUP4 ADD SSTORE PUSH1 0x40 DUP2 ADD MLOAD PUSH1 0x2 DUP4 ADD SSTORE PUSH1 0x60 DUP2 ADD MLOAD PUSH1 0x3 DUP4 ADD SSTORE PUSH1 0x80 DUP2 ADD MLOAD PUSH1 0x4 DUP4 ADD SSTORE PUSH1 0xA0 DUP2 ADD MLOAD PUSH1 0x5 DUP4 ADD SSTORE PUSH1 0xC0 DUP2 ADD MLOAD PUSH1 0x6 DUP4 ADD SSTORE PUSH1 0xE0 DUP2 ADD MLOAD PUSH1 0x7 DUP4 ADD SSTORE PUSH2 0x5210 PUSH2 0x100 DUP3 ADD MLOAD ISZERO ISZERO PUSH1 0x8 DUP5 ADD SWAP1 PUSH1 0xFF DUP1 NOT DUP4 SLOAD AND SWAP2 ISZERO ISZERO AND OR SWAP1 SSTORE JUMP JUMPDEST PUSH2 0x120 DUP2 ADD MLOAD PUSH1 0x9 DUP4 ADD SSTORE PUSH2 0x140 DUP2 ADD MLOAD PUSH1 0xA DUP4 ADD SSTORE PUSH2 0x160 DUP2 ADD MLOAD PUSH1 0xB DUP4 ADD SSTORE PUSH2 0x5251 PUSH2 0x180 DUP3 ADD MLOAD ISZERO ISZERO PUSH1 0xC DUP5 ADD SWAP1 PUSH1 0xFF DUP1 NOT DUP4 SLOAD AND SWAP2 ISZERO ISZERO AND OR SWAP1 SSTORE JUMP JUMPDEST PUSH2 0x1A0 DUP2 ADD MLOAD PUSH1 0xD DUP4 ADD SSTORE PUSH2 0x527C PUSH2 0x1C0 DUP3 ADD MLOAD ISZERO ISZERO PUSH1 0xE DUP5 ADD SWAP1 PUSH1 0xFF DUP1 NOT DUP4 SLOAD AND SWAP2 ISZERO ISZERO AND OR SWAP1 SSTORE JUMP JUMPDEST PUSH2 0x1E0 DUP2 ADD MLOAD PUSH1 0xF DUP4 ADD SSTORE PUSH1 0x10 DUP3 ADD PUSH2 0x200 DUP3 ADD MLOAD SWAP1 DUP2 MLOAD SWAP2 PUSH1 0x1 PUSH1 0x1 PUSH1 0x40 SHL SUB DUP4 GT PUSH2 0x616 JUMPI PUSH1 0x1 PUSH1 0x40 SHL DUP4 GT PUSH2 0x616 JUMPI DUP2 SLOAD DUP4 DUP4 SSTORE DUP1 DUP5 LT PUSH2 0x5321 JUMPI JUMPDEST POP PUSH1 0x20 ADD SWAP1 DUP6 MSTORE PUSH1 0x20 DUP6 KECCAK256 DUP6 JUMPDEST DUP4 DUP2 LT PUSH2 0x530D JUMPI DUP7 DUP7 PUSH1 0x18 PUSH2 0x300 DUP9 PUSH2 0x220 DUP2 ADD MLOAD PUSH1 0x11 DUP6 ADD SSTORE PUSH2 0x240 DUP2 ADD MLOAD PUSH1 0x12 DUP6 ADD SSTORE PUSH2 0x5A8 PUSH2 0x260 DUP3 ADD MLOAD ISZERO ISZERO PUSH1 0x13 DUP7 ADD SWAP1 PUSH1 0xFF DUP1 NOT DUP4 SLOAD AND SWAP2 ISZERO ISZERO AND OR SWAP1 SSTORE JUMP JUMPDEST PUSH1 0x1 SWAP1 PUSH1 0x20 DUP5 MLOAD SWAP5 ADD SWAP4 DUP2 DUP5 ADD SSTORE ADD PUSH2 0x52C8 JUMP JUMPDEST DUP3 DUP8 MSTORE DUP4 PUSH1 0x20 DUP9 KECCAK256 SWAP2 DUP3 ADD SWAP2 ADD JUMPDEST DUP2 DUP2 LT PUSH2 0x533C JUMPI POP PUSH2 0x52BB JUMP JUMPDEST DUP8 DUP2 SSTORE PUSH1 0x1 ADD PUSH2 0x532F JUMP JUMPDEST DUP1 EXTCODESIZE ISZERO PUSH2 0x694 JUMPI DUP4 DUP1 SWAP2 PUSH1 0x24 PUSH1 0x40 MLOAD DUP1 SWAP5 DUP2 SWAP4 PUSH4 0x3A6AFA23 PUSH1 0xE1 SHL DUP4 MSTORE DUP9 PUSH1 0x4 DUP5 ADD MSTORE GAS CALL SWAP1 DUP2 ISZERO PUSH2 0x72A JUMPI DUP5 SWAP2 PUSH2 0x5534 JUMPI JUMPDEST POP POP PUSH1 0x1 SLOAD PUSH1 0x40 MLOAD PUSH4 0x5FCB6719 PUSH1 0xE1 SHL DUP2 MSTORE PUSH1 0x4 DUP2 ADD SWAP3 SWAP1 SWAP3 MSTORE PUSH1 0x20 SWAP1 DUP3 SWAP1 PUSH1 0x24 SWAP1 DUP3 SWAP1 PUSH1 0x1 PUSH1 0x1 PUSH1 0xA0 SHL SUB AND GAS STATICCALL SWAP1 DUP2 ISZERO PUSH2 0x6E1 JUMPI DUP4 SWAP2 PUSH2 0x5515 JUMPI JUMPDEST POP DUP3 DUP1 DUP1 DUP1 PUSH2 0x1F4 PUSH1 0x1 PUSH1 0x1 PUSH1 0xA0 SHL SUB DUP7 AND DUP3 CALL ISZERO PUSH2 0x698 JUMPI PUSH1 0x1 SLOAD PUSH1 0x1 PUSH1 0x1 PUSH1 0xA0 SHL SUB AND SWAP1 DUP2 EXTCODESIZE ISZERO PUSH2 0x694 JUMPI PUSH1 0x40 MLOAD PUSH4 0x30809899 PUSH1 0xE0 SHL DUP2 MSTORE PUSH1 0x1 PUSH1 0x1 PUSH1 0xA0 SHL SUB SWAP1 SWAP2 AND PUSH1 0x4 DUP3 ADD MSTORE SWAP1 DUP4 SWAP1 DUP3 SWAP1 PUSH1 0x24 SWAP1 DUP3 SWAP1 DUP5 SWAP1 GAS CALL SWAP1 DUP2 ISZERO PUSH2 0x6E1 JUMPI DUP4 SWAP2 PUSH2 0x5501 JUMPI JUMPDEST POP POP PUSH2 0x1F4 PUSH2 0x2A0 DUP6 ADD MSTORE TIMESTAMP PUSH2 0x2C0 DUP6 ADD MSTORE PUSH1 0x1 DUP1 PUSH1 0xA0 SHL SUB PUSH1 0x1 SLOAD AND PUSH2 0x140 DUP6 ADD MLOAD DUP2 EXTCODESIZE ISZERO PUSH2 0x694 JUMPI DUP4 SWAP2 PUSH1 0x44 DUP4 SWAP3 PUSH1 0x40 MLOAD SWAP5 DUP6 SWAP4 DUP5 SWAP3 PUSH4 0x774AF93F PUSH1 0xE1 SHL DUP5 MSTORE PUSH1 0x4 DUP5 ADD MSTORE PUSH1 0x1 PUSH1 0x24 DUP5 ADD MSTORE GAS CALL SWAP1 DUP2 ISZERO PUSH2 0x6E1 JUMPI DUP4 SWAP2 PUSH2 0x54ED JUMPI JUMPDEST POP POP PUSH1 0x3 SLOAD PUSH1 0x1 PUSH1 0x1 PUSH1 0xA0 SHL SUB AND SWAP1 DUP2 EXTCODESIZE ISZERO PUSH2 0x6A3 JUMPI DUP3 SWAP2 PUSH1 0x24 DUP4 SWAP3 PUSH1 0x40 MLOAD SWAP5 DUP6 SWAP4 DUP5 SWAP3 PUSH4 0x3A6AFA23 PUSH1 0xE1 SHL DUP5 MSTORE PUSH1 0x4 DUP5 ADD MSTORE GAS CALL DUP1 ISZERO PUSH2 0x698 JUMPI PUSH2 0x54D9 JUMPI JUMPDEST POP DUP2 SWAP1 MSTORE PUSH1 0x7 PUSH1 0x20 MSTORE PUSH1 0x40 DUP4 KECCAK256 DUP1 SLOAD PUSH1 0xFF NOT AND SWAP1 SSTORE DUP3 CODESIZE DUP1 DUP1 PUSH2 0x5198 JUMP JUMPDEST PUSH2 0x54E2 SWAP1 PUSH2 0x564B JUMP JUMPDEST PUSH2 0x6A3 JUMPI DUP3 CODESIZE PUSH2 0x54BB JUMP JUMPDEST PUSH2 0x54F6 SWAP1 PUSH2 0x564B JUMP JUMPDEST PUSH2 0x13A8 JUMPI DUP2 CODESIZE PUSH2 0x547B JUMP JUMPDEST PUSH2 0x550A SWAP1 PUSH2 0x564B JUMP JUMPDEST PUSH2 0x13A8 JUMPI DUP2 CODESIZE PUSH2 0x541D JUMP JUMPDEST PUSH2 0x552E SWAP2 POP PUSH1 0x20 RETURNDATASIZE PUSH1 0x20 GT PUSH2 0x2758 JUMPI PUSH2 0x274A DUP2 DUP4 PUSH2 0x5690 JUMP JUMPDEST CODESIZE PUSH2 0x53B7 JUMP JUMPDEST PUSH2 0x553D SWAP1 PUSH2 0x564B JUMP JUMPDEST PUSH2 0x6A3 JUMPI DUP3 CODESIZE PUSH2 0x537A JUMP JUMPDEST PUSH1 0x64 PUSH1 0x40 MLOAD PUSH3 0x461BCD PUSH1 0xE5 SHL DUP2 MSTORE PUSH1 0x20 PUSH1 0x4 DUP3 ADD MSTORE PUSH1 0x4 PUSH1 0x24 DUP3 ADD MSTORE PUSH4 0x52523931 PUSH1 0xE0 SHL PUSH1 0x44 DUP3 ADD MSTORE REVERT JUMPDEST PUSH1 0x64 PUSH1 0x40 MLOAD PUSH3 0x461BCD PUSH1 0xE5 SHL DUP2 MSTORE PUSH1 0x20 PUSH1 0x4 DUP3 ADD MSTORE PUSH1 0x4 PUSH1 0x24 DUP3 ADD MSTORE PUSH4 0x5252393 PUSH1 0xE4 SHL PUSH1 0x44 DUP3 ADD MSTORE REVERT JUMPDEST PUSH2 0x55A7 SWAP1 PUSH2 0x564B JUMP JUMPDEST PUSH2 0x55B2 JUMPI DUP7 CODESIZE PUSH2 0x5152 JUMP JUMPDEST DUP7 DUP1 REVERT JUMPDEST SWAP2 POP SWAP4 POP PUSH1 0x20 DUP2 RETURNDATASIZE PUSH1 0x20 GT PUSH2 0x55E5 JUMPI JUMPDEST DUP2 PUSH2 0x55D3 PUSH1 0x20 SWAP4 DUP4 PUSH2 0x5690 JUMP JUMPDEST DUP2 ADD SUB SLT PUSH2 0x6D4 JUMPI DUP8 SWAP1 MLOAD SWAP4 CODESIZE PUSH2 0x5116 JUMP JUMPDEST RETURNDATASIZE SWAP2 POP PUSH2 0x55C6 JUMP JUMPDEST DUP3 SLOAD DUP5 MSTORE PUSH1 0x20 SWAP1 SWAP4 ADD SWAP3 PUSH1 0x1 SWAP3 DUP4 ADD SWAP3 ADD PUSH2 0x5051 JUMP JUMPDEST PUSH2 0x560F SWAP1 SWAP5 SWAP2 SWAP5 PUSH2 0x564B JUMP JUMPDEST SWAP3 CODESIZE PUSH2 0x4F3C JUMP JUMPDEST PUSH1 0x40 SWAP1 PUSH1 0x3 NOT ADD SLT PUSH2 0x6D4 JUMPI PUSH1 0x4 CALLDATALOAD SWAP1 PUSH1 0x24 CALLDATALOAD DUP1 ISZERO ISZERO DUP2 SUB PUSH2 0x6D4 JUMPI SWAP1 JUMP JUMPDEST PUSH1 0x4 CALLDATALOAD SWAP1 PUSH1 0x1 PUSH1 0x1 PUSH1 0xA0 SHL SUB DUP3 AND DUP3 SUB PUSH2 0x6D4 JUMPI JUMP JUMPDEST PUSH1 0x1 PUSH1 0x1 PUSH1 0x40 SHL SUB DUP2 GT PUSH2 0x565E JUMPI PUSH1 0x40 MSTORE JUMP JUMPDEST PUSH4 0x4E487B71 PUSH1 0xE0 SHL PUSH1 0x0 MSTORE PUSH1 0x41 PUSH1 0x4 MSTORE PUSH1 0x24 PUSH1 0x0 REVERT JUMPDEST PUSH2 0x320 DUP2 ADD SWAP1 DUP2 LT PUSH1 0x1 PUSH1 0x1 PUSH1 0x40 SHL SUB DUP3 GT OR PUSH2 0x565E JUMPI PUSH1 0x40 MSTORE JUMP JUMPDEST SWAP1 PUSH1 0x1F DUP1 NOT SWAP2 ADD AND DUP2 ADD SWAP1 DUP2 LT PUSH1 0x1 PUSH1 0x1 PUSH1 0x40 SHL SUB DUP3 GT OR PUSH2 0x565E JUMPI PUSH1 0x40 MSTORE JUMP JUMPDEST ISZERO PUSH2 0x56B8 JUMPI JUMP JUMPDEST PUSH1 0x64 PUSH1 0x40 MLOAD PUSH3 0x461BCD PUSH1 0xE5 SHL DUP2 MSTORE PUSH1 0x20 PUSH1 0x4 DUP3 ADD MSTORE PUSH1 0x4 PUSH1 0x24 DUP3 ADD MSTORE PUSH4 0x14948CCD PUSH1 0xE2 SHL PUSH1 0x44 DUP3 ADD MSTORE REVERT JUMPDEST ISZERO PUSH2 0x56EA JUMPI JUMP JUMPDEST PUSH1 0x64 PUSH1 0x40 MLOAD PUSH3 0x461BCD PUSH1 0xE5 SHL DUP2 MSTORE PUSH1 0x20 PUSH1 0x4 DUP3 ADD MSTORE PUSH1 0x4 PUSH1 0x24 DUP3 ADD MSTORE PUSH4 0x52523337 PUSH1 0xE0 SHL PUSH1 0x44 DUP3 ADD MSTORE REVERT JUMPDEST ISZERO PUSH2 0x571C JUMPI JUMP JUMPDEST PUSH1 0x64 PUSH1 0x40 MLOAD PUSH3 0x461BCD PUSH1 0xE5 SHL DUP2 MSTORE PUSH1 0x20 PUSH1 0x4 DUP3 ADD MSTORE PUSH1 0x4 PUSH1 0x24 DUP3 ADD MSTORE PUSH4 0x2929199B PUSH1 0xE1 SHL PUSH1 0x44 DUP3 ADD MSTORE REVERT JUMPDEST SWAP2 SWAP1 DUP3 SUB SWAP2 DUP3 GT PUSH2 0x5754 JUMPI JUMP JUMPDEST PUSH4 0x4E487B71 PUSH1 0xE0 SHL PUSH1 0x0 MSTORE PUSH1 0x11 PUSH1 0x4 MSTORE PUSH1 0x24 PUSH1 0x0 REVERT JUMPDEST ISZERO PUSH2 0x5771 JUMPI JUMP JUMPDEST PUSH1 0x40 MLOAD PUSH3 0x461BCD PUSH1 0xE5 SHL DUP2 MSTORE PUSH1 0x20 PUSH1 0x4 DUP3 ADD MSTORE PUSH1 0x3 PUSH1 0x24 DUP3 ADD MSTORE PUSH3 0xA4A47 PUSH1 0xEB SHL PUSH1 0x44 DUP3 ADD MSTORE PUSH1 0x64 SWAP1 REVERT JUMPDEST SWAP1 DUP2 PUSH1 0x20 SWAP2 SUB SLT PUSH2 0x6D4 JUMPI MLOAD PUSH1 0x1 PUSH1 0x1 PUSH1 0xA0 SHL SUB DUP2 AND DUP2 SUB PUSH2 0x6D4 JUMPI SWAP1 JUMP JUMPDEST SWAP2 SWAP1 DUP3 PUSH1 0x80 SWAP2 SUB SLT PUSH2 0x6D4 JUMPI DUP2 MLOAD SWAP2 PUSH1 0x20 DUP2 ADD MLOAD SWAP2 PUSH1 0x60 PUSH1 0x40 DUP4 ADD MLOAD SWAP3 ADD MLOAD SWAP1 JUMP JUMPDEST ISZERO PUSH2 0x57E4 JUMPI JUMP JUMPDEST PUSH1 0x64 PUSH1 0x40 MLOAD PUSH3 0x461BCD PUSH1 0xE5 SHL DUP2 MSTORE PUSH1 0x20 PUSH1 0x4 DUP3 ADD MSTORE PUSH1 0x4 PUSH1 0x24 DUP3 ADD MSTORE PUSH4 0x14948D0D PUSH1 0xE2 SHL PUSH1 0x44 DUP3 ADD MSTORE REVERT JUMPDEST ISZERO PUSH2 0x5816 JUMPI JUMP JUMPDEST PUSH1 0x64 PUSH1 0x40 MLOAD PUSH3 0x461BCD PUSH1 0xE5 SHL DUP2 MSTORE PUSH1 0x20 PUSH1 0x4 DUP3 ADD MSTORE PUSH1 0x4 PUSH1 0x24 DUP3 ADD MSTORE PUSH4 0x52523437 PUSH1 0xE0 SHL PUSH1 0x44 DUP3 ADD MSTORE REVERT JUMPDEST ISZERO PUSH2 0x5848 JUMPI JUMP JUMPDEST PUSH1 0x64 PUSH1 0x40 MLOAD PUSH3 0x461BCD PUSH1 0xE5 SHL DUP2 MSTORE PUSH1 0x20 PUSH1 0x4 DUP3 ADD MSTORE PUSH1 0x4 PUSH1 0x24 DUP3 ADD MSTORE PUSH4 0x52523433 PUSH1 0xE0 SHL PUSH1 0x44 DUP3 ADD MSTORE REVERT JUMPDEST ISZERO PUSH2 0x587A JUMPI JUMP JUMPDEST PUSH1 0x64 PUSH1 0x40 MLOAD PUSH3 0x461BCD PUSH1 0xE5 SHL DUP2 MSTORE PUSH1 0x20 PUSH1 0x4 DUP3 ADD MSTORE PUSH1 0x4 PUSH1 0x24 DUP3 ADD MSTORE PUSH4 0xA4A4667 PUSH1 0xE3 SHL PUSH1 0x44 DUP3 ADD MSTORE REVERT INVALID LOG2 PUSH5 0x6970667358 0x22 SLT KECCAK256 SLT 0xE7 0x5C BASEFEE PC ADDMOD ISZERO PUSH8 0x8A637890051F930E 0x5C 0x23 ISZERO PUSH8 0x209B42C8A939E784 SWAP9 0xED STATICCALL DUP14 PUSH5 0x736F6C6343 STOP ADDMOD AND STOP CALLER "
		},
		"gasEstimates": {
			"creation": {
				"codeDepositCost": "4549400",
				"executionCost": "infinite",
				"totalCost": "infinite"
			},
			"external": {
				"abortProtocol(uint256)": "49015",
				"acknowledgeVaccination(uint256,bool)": "infinite",
				"commitMTProof(address,bytes32)": "infinite",
				"commitVialID(address,bytes32)": "infinite",
				"getProtocolDetails(uint256)": "infinite",
				"getProtocolNoAndStatus(address)": "4671",
				"injectingProtocolNumberGenerator()": "2632",
				"lockMoneyByC(uint256)": "infinite",
				"lockMoneyByVC(address)": "infinite",
				"lockingAmount()": "265",
				"payDueAmountOfCitizen(address)": "infinite",
				"penalizeCAndTransferMoneyToVC(address,uint256)": "infinite",
				"penalizeVCAndTransferMoneyToC(address,uint256)": "infinite",
				"provideConsent1(uint256,bool)": "infinite",
				"provideConsent2(uint256,bool)": "infinite",
				"provideConsent3(uint256,bool)": "infinite",
				"registerVaccinationTimestamp(address)": "infinite",
				"sendTokenID(uint256)": "infinite",
				"submitProof(bytes32[],uint256)": "infinite",
				"timeLimit()": "463",
				"transferMoneyToVC(address,uint256)": "infinite"
			}
		},
		"methodIdentifiers": {
			"abortProtocol(uint256)": "c252819d",
			"acknowledgeVaccination(uint256,bool)": "02d96d37",
			"commitMTProof(address,bytes32)": "fe33e0d1",
			"commitVialID(address,bytes32)": "643f98f6",
			"getProtocolDetails(uint256)": "c0f0baf6",
			"getProtocolNoAndStatus(address)": "1e3fbaf3",
			"injectingProtocolNumberGenerator()": "dae411c6",
			"lockMoneyByC(uint256)": "8adc430c",
			"lockMoneyByVC(address)": "e5edf70c",
			"lockingAmount()": "25ab292e",
			"payDueAmountOfCitizen(address)": "37d538ba",
			"penalizeCAndTransferMoneyToVC(address,uint256)": "72def90a",
			"penalizeVCAndTransferMoneyToC(address,uint256)": "fb7be247",
			"provideConsent1(uint256,bool)": "ba7b8138",
			"provideConsent2(uint256,bool)": "22398d21",
			"provideConsent3(uint256,bool)": "75147286",
			"registerVaccinationTimestamp(address)": "2d710bfe",
			"sendTokenID(uint256)": "f489579e",
			"submitProof(bytes32[],uint256)": "bc488b16",
			"timeLimit()": "c08d1fe5",
			"transferMoneyToVC(address,uint256)": "f8bf23df"
		}
	},
	"abi": [
		{
			"inputs": [
				{
					"internalType": "address",
					"name": "_addr_SC_VC_Govt",
					"type": "address"
				},
				{
					"internalType": "address",
					"name": "_addr_SC_C_Govt",
					"type": "address"
				},
				{
					"internalType": "address",
					"name": "_addr_SC_Requirements_check",
					"type": "address"
				}
			],
			"stateMutability": "nonpayable",
			"type": "constructor"
		},
		{
			"inputs": [
				{
					"internalType": "uint256",
					"name": "_latestProtocolNo",
					"type": "uint256"
				}
			],
			"name": "abortProtocol",
			"outputs": [],
			"stateMutability": "nonpayable",
			"type": "function"
		},
		{
			"inputs": [
				{
					"internalType": "uint256",
					"name": "_vcID",
					"type": "uint256"
				},
				{
					"internalType": "bool",
					"name": "_ack",
					"type": "bool"
				}
			],
			"name": "acknowledgeVaccination",
			"outputs": [],
			"stateMutability": "nonpayable",
			"type": "function"
		},
		{
			"inputs": [
				{
					"internalType": "address",
					"name": "_cAddr",
					"type": "address"
				},
				{
					"internalType": "bytes32",
					"name": "_commit_MT_Proof",
					"type": "bytes32"
				}
			],
			"name": "commitMTProof",
			"outputs": [],
			"stateMutability": "nonpayable",
			"type": "function"
		},
		{
			"inputs": [
				{
					"internalType": "address",
					"name": "_cAddr",
					"type": "address"
				},
				{
					"internalType": "bytes32",
					"name": "_commit_vID",
					"type": "bytes32"
				}
			],
			"name": "commitVialID",
			"outputs": [],
			"stateMutability": "nonpayable",
			"type": "function"
		},
		{
			"inputs": [
				{
					"internalType": "uint256",
					"name": "_latestProtocolNo",
					"type": "uint256"
				}
			],
			"name": "getProtocolDetails",
			"outputs": [
				{
					"internalType": "uint256",
					"name": "",
					"type": "uint256"
				},
				{
					"internalType": "uint256",
					"name": "",
					"type": "uint256"
				},
				{
					"internalType": "uint256",
					"name": "",
					"type": "uint256"
				},
				{
					"internalType": "uint256",
					"name": "",
					"type": "uint256"
				},
				{
					"internalType": "uint256",
					"name": "",
					"type": "uint256"
				},
				{
					"internalType": "uint256",
					"name": "",
					"type": "uint256"
				},
				{
					"internalType": "bytes32",
					"name": "",
					"type": "bytes32"
				},
				{
					"internalType": "uint256",
					"name": "",
					"type": "uint256"
				},
				{
					"internalType": "bool",
					"name": "",
					"type": "bool"
				},
				{
					"internalType": "uint256",
					"name": "",
					"type": "uint256"
				},
				{
					"internalType": "bytes32",
					"name": "",
					"type": "bytes32"
				},
				{
					"internalType": "uint256",
					"name": "",
					"type": "uint256"
				},
				{
					"internalType": "bool",
					"name": "",
					"type": "bool"
				},
				{
					"internalType": "uint256",
					"name": "",
					"type": "uint256"
				},
				{
					"internalType": "bool",
					"name": "",
					"type": "bool"
				},
				{
					"internalType": "uint256",
					"name": "",
					"type": "uint256"
				},
				{
					"internalType": "bytes32[]",
					"name": "",
					"type": "bytes32[]"
				},
				{
					"internalType": "uint256",
					"name": "",
					"type": "uint256"
				},
				{
					"internalType": "uint256",
					"name": "",
					"type": "uint256"
				},
				{
					"internalType": "bool",
					"name": "",
					"type": "bool"
				},
				{
					"internalType": "uint256",
					"name": "",
					"type": "uint256"
				},
				{
					"internalType": "uint256",
					"name": "",
					"type": "uint256"
				},
				{
					"internalType": "uint256",
					"name": "",
					"type": "uint256"
				},
				{
					"internalType": "uint256",
					"name": "",
					"type": "uint256"
				},
				{
					"internalType": "uint256",
					"name": "",
					"type": "uint256"
				}
			],
			"stateMutability": "view",
			"type": "function"
		},
		{
			"inputs": [
				{
					"internalType": "address",
					"name": "_cAddr",
					"type": "address"
				}
			],
			"name": "getProtocolNoAndStatus",
			"outputs": [
				{
					"internalType": "uint256",
					"name": "",
					"type": "uint256"
				},
				{
					"internalType": "bool",
					"name": "",
					"type": "bool"
				}
			],
			"stateMutability": "view",
			"type": "function"
		},
		{
			"inputs": [],
			"name": "injectingProtocolNumberGenerator",
			"outputs": [
				{
					"internalType": "uint256",
					"name": "",
					"type": "uint256"
				}
			],
			"stateMutability": "view",
			"type": "function"
		},
		{
			"inputs": [
				{
					"internalType": "uint256",
					"name": "_vcID",
					"type": "uint256"
				}
			],
			"name": "lockMoneyByC",
			"outputs": [],
			"stateMutability": "payable",
			"type": "function"
		},
		{
			"inputs": [
				{
					"internalType": "address",
					"name": "_cAddr",
					"type": "address"
				}
			],
			"name": "lockMoneyByVC",
			"outputs": [],
			"stateMutability": "payable",
			"type": "function"
		},
		{
			"inputs": [],
			"name": "lockingAmount",
			"outputs": [
				{
					"internalType": "uint256",
					"name": "",
					"type": "uint256"
				}
			],
			"stateMutability": "view",
			"type": "function"
		},
		{
			"inputs": [
				{
					"internalType": "address",
					"name": "_cAddr",
					"type": "address"
				}
			],
			"name": "payDueAmountOfCitizen",
			"outputs": [],
			"stateMutability": "nonpayable",
			"type": "function"
		},
		{
			"inputs": [
				{
					"internalType": "address",
					"name": "_vcAddr",
					"type": "address"
				},
				{
					"internalType": "uint256",
					"name": "_latestProtocolNo",
					"type": "uint256"
				}
			],
			"name": "penalizeCAndTransferMoneyToVC",
			"outputs": [],
			"stateMutability": "nonpayable",
			"type": "function"
		},
		{
			"inputs": [
				{
					"internalType": "address",
					"name": "_cAddr",
					"type": "address"
				},
				{
					"internalType": "uint256",
					"name": "_latestProtocolNo",
					"type": "uint256"
				}
			],
			"name": "penalizeVCAndTransferMoneyToC",
			"outputs": [],
			"stateMutability": "nonpayable",
			"type": "function"
		},
		{
			"inputs": [
				{
					"internalType": "uint256",
					"name": "_vcID",
					"type": "uint256"
				},
				{
					"internalType": "bool",
					"name": "_consent1",
					"type": "bool"
				}
			],
			"name": "provideConsent1",
			"outputs": [],
			"stateMutability": "nonpayable",
			"type": "function"
		},
		{
			"inputs": [
				{
					"internalType": "uint256",
					"name": "_vcID",
					"type": "uint256"
				},
				{
					"internalType": "bool",
					"name": "_consent2",
					"type": "bool"
				}
			],
			"name": "provideConsent2",
			"outputs": [],
			"stateMutability": "nonpayable",
			"type": "function"
		},
		{
			"inputs": [
				{
					"internalType": "uint256",
					"name": "_vcID",
					"type": "uint256"
				},
				{
					"internalType": "bool",
					"name": "_consent3",
					"type": "bool"
				}
			],
			"name": "provideConsent3",
			"outputs": [],
			"stateMutability": "nonpayable",
			"type": "function"
		},
		{
			"inputs": [
				{
					"internalType": "address",
					"name": "_cAddr",
					"type": "address"
				}
			],
			"name": "registerVaccinationTimestamp",
			"outputs": [],
			"stateMutability": "nonpayable",
			"type": "function"
		},
		{
			"inputs": [
				{
					"internalType": "uint256",
					"name": "_vcID",
					"type": "uint256"
				}
			],
			"name": "sendTokenID",
			"outputs": [],
			"stateMutability": "nonpayable",
			"type": "function"
		},
		{
			"inputs": [
				{
					"internalType": "bytes32[]",
					"name": "_hashes",
					"type": "bytes32[]"
				},
				{
					"internalType": "uint256",
					"name": "_latestProtocolNo",
					"type": "uint256"
				}
			],
			"name": "submitProof",
			"outputs": [],
			"stateMutability": "nonpayable",
			"type": "function"
		},
		{
			"inputs": [],
			"name": "timeLimit",
			"outputs": [
				{
					"internalType": "uint256",
					"name": "",
					"type": "uint256"
				}
			],
			"stateMutability": "view",
			"type": "function"
		},
		{
			"inputs": [
				{
					"internalType": "address",
					"name": "_vcAddr",
					"type": "address"
				},
				{
					"internalType": "uint256",
					"name": "_latestProtocolNo",
					"type": "uint256"
				}
			],
			"name": "transferMoneyToVC",
			"outputs": [],
			"stateMutability": "nonpayable",
			"type": "function"
		}
	]
}