{
	"data": {
		"bytecode": {
			"linkReferences": {},
			"object": "60803461009d57601f610a3b38819003918201601f19168301916001600160401b038311848410176100a257808492604094855283398101031261009d57610052602061004b836100b8565b92016100b8565b9060018060a01b038091169160018060a01b03199280846000541617600055836001541617600155169081816002541617600255600354161760035560405161096e90816100cd8239f35b600080fd5b634e487b7160e01b600052604160045260246000fd5b51906001600160a01b038216820361009d5756fe6080604081815260048036101561001557600080fd5b600092833560e01c90816306f2f721146108015750806318bc1f851461074b57806321e23ac41461066f5780638462c97e14610488578063856cb9e7146103d55780639490d075146103245780639dec61421461027d578063ca44d570146101c15763fcb260b01461008657600080fd5b346101bd57602091826003193601126101b95781356001600160a01b03818116918290036101a457600154169082519063521105af60e01b8252848201528481602481855afa9081156101af57908591879161017c575b506024845180948193636a7ae72360e11b8352888301525afa8015610172578590610139575b60019150151503610112578380f35b60649350519162461bcd60e51b83528183015260248201526329291b1960e11b6044820152fd5b508381813d831161016b575b61014f81836108a5565b81010312610167576101626001916108fb565b610103565b8480fd5b503d610145565b82513d87823e3d90fd5b82819392503d83116101a8575b61019381836108a5565b810103126101a457849051386100dd565b8580fd5b503d610189565b83513d88823e3d90fd5b8380fd5b8280fd5b5090346101bd5760203660031901126101bd57600154815163cde20b0560e01b815283358482015290602090829060249082906001600160a01b03165afa908115610273579060ff918591610244575b501661021b578280f35b60649250519062461bcd60e51b82526020818301526024820152635252393560e01b6044820152fd5b610266915060203d60201161026c575b61025e81836108a5565b8101906108dd565b38610211565b503d610254565b82513d86823e3d90fd5b5090346101bd5760203660031901126101bd57600154815163cde20b0560e01b815283358482015290602090829060249082906001600160a01b03165afa9081156102735760019160ff918691610305575b5016036102da578280f35b906020606492519162461bcd60e51b83528201526005602482015264525231303360d81b6044820152fd5b61031e915060203d60201161026c5761025e81836108a5565b386102cf565b5090346101bd5760203660031901126101bd576003548151630448a54560e51b815283358482015290608090829060249082906001600160a01b03165afa9081156102735784916103a2575b50610379578280f35b60649250519062461bcd60e51b82526020818301526024820152635252363360e01b6044820152fd5b6103c4915060803d6080116103ce575b6103bc81836108a5565b810190610908565b5091505038610370565b503d6103b2565b5090346101bd5760203660031901126101bd576001548151636287fa1360e11b815283358482015290608090829060249082906001600160a01b03165afa908115610273578491610454575b501561042b578280f35b60649250519062461bcd60e51b825260208183015260248201526314948d0d60e21b6044820152fd5b90506080813d608011610480575b8161046f608093836108a5565b810103126101b95781015138610421565b3d9150610462565b50346101bd57602091826003193601126101b95781356001600160a01b03818116918290036101a4578060015416835163f0abda5d60e01b815286818781855afa908115610665579083918991610627575b501683146105ff578560249185519283809263521105af60e01b8252878a8301525afa9081156105f55787916105c4575b5061059b578490600354169160248451809481936318fe01c760e21b8352888301525afa90811561017257859161056e575b5015610547578380f35b60649350519162461bcd60e51b8352818301526024820152635252363160e01b6044820152fd5b90508381813d8311610594575b61058581836108a5565b8101031261016757513861053d565b503d61057b565b505060649350519162461bcd60e51b8352818301526024820152635252323760e01b6044820152fd5b90508581813d83116105ee575b6105db81836108a5565b810103126105ea57513861050b565b8680fd5b503d6105d1565b84513d89823e3d90fd5b6064868686519162461bcd60e51b8352818301526024820152632929191b60e11b6044820152fd5b809250888092503d831161065e575b61064081836108a5565b8101031261065a5751828116810361065a578290386104da565b8780fd5b503d610636565b85513d8a823e3d90fd5b5090346101bd5760203660031901126101bd576003548151630448a54560e51b815283358482015290608090829060249082906001600160a01b03165afa9081156102735784908592610723575b506001901515036106f9576106d0578280f35b60649250519062461bcd60e51b82526020818301526024820152630a4a472760e31b6044820152fd5b815162461bcd60e51b815260208185015260248101849052635252393760e01b6044820152606490fd5b60019250610740915060803d6080116103ce576103bc81836108a5565b9392509050906106bd565b50346101bd57602091826003193601126101b9576001548151636a7ae72360e11b8152833584820152908490829060249082906001600160a01b03165afa80156101725785906107cc575b600191501515036107a5578380f35b60649350519162461bcd60e51b8352818301526024820152635252313760e01b6044820152fd5b508381813d83116107fa575b6107e281836108a5565b81010312610167576107f56001916108fb565b610796565b503d6107d8565b84939150346101b95760203660031901126101b95760015463cde20b0560e01b8252833584830152602090829060249082906001600160a01b03165afa9081156102735760029160ff918691610886575b50160361085d578280f35b60649250519062461bcd60e51b825260208183015260248201526329291c9b60e11b6044820152fd5b61089f915060203d60201161026c5761025e81836108a5565b86610852565b90601f8019910116810190811067ffffffffffffffff8211176108c757604052565b634e487b7160e01b600052604160045260246000fd5b908160209103126108f6575160ff811681036108f65790565b600080fd5b519081151582036108f657565b91908260809103126108f657815191602081015191610935606061092e604085016108fb565b93016108fb565b9056fea2646970667358221220142167014e4f3c398e95ffaa32907f84ac9e78d7e65b18ad382196aa7b2a251a64736f6c63430008160033",
			"opcodes": "PUSH1 0x80 CALLVALUE PUSH2 0x9D JUMPI PUSH1 0x1F PUSH2 0xA3B CODESIZE DUP2 SWAP1 SUB SWAP2 DUP3 ADD PUSH1 0x1F NOT AND DUP4 ADD SWAP2 PUSH1 0x1 PUSH1 0x1 PUSH1 0x40 SHL SUB DUP4 GT DUP5 DUP5 LT OR PUSH2 0xA2 JUMPI DUP1 DUP5 SWAP3 PUSH1 0x40 SWAP5 DUP6 MSTORE DUP4 CODECOPY DUP2 ADD SUB SLT PUSH2 0x9D JUMPI PUSH2 0x52 PUSH1 0x20 PUSH2 0x4B DUP4 PUSH2 0xB8 JUMP JUMPDEST SWAP3 ADD PUSH2 0xB8 JUMP JUMPDEST SWAP1 PUSH1 0x1 DUP1 PUSH1 0xA0 SHL SUB DUP1 SWAP2 AND SWAP2 PUSH1 0x1 DUP1 PUSH1 0xA0 SHL SUB NOT SWAP3 DUP1 DUP5 PUSH1 0x0 SLOAD AND OR PUSH1 0x0 SSTORE DUP4 PUSH1 0x1 SLOAD AND OR PUSH1 0x1 SSTORE AND SWAP1 DUP2 DUP2 PUSH1 0x2 SLOAD AND OR PUSH1 0x2 SSTORE PUSH1 0x3 SLOAD AND OR PUSH1 0x3 SSTORE PUSH1 0x40 MLOAD PUSH2 0x96E SWAP1 DUP2 PUSH2 0xCD DUP3 CODECOPY RETURN JUMPDEST PUSH1 0x0 DUP1 REVERT JUMPDEST PUSH4 0x4E487B71 PUSH1 0xE0 SHL PUSH1 0x0 MSTORE PUSH1 0x41 PUSH1 0x4 MSTORE PUSH1 0x24 PUSH1 0x0 REVERT JUMPDEST MLOAD SWAP1 PUSH1 0x1 PUSH1 0x1 PUSH1 0xA0 SHL SUB DUP3 AND DUP3 SUB PUSH2 0x9D JUMPI JUMP INVALID PUSH1 0x80 PUSH1 0x40 DUP2 DUP2 MSTORE PUSH1 0x4 DUP1 CALLDATASIZE LT ISZERO PUSH2 0x15 JUMPI PUSH1 0x0 DUP1 REVERT JUMPDEST PUSH1 0x0 SWAP3 DUP4 CALLDATALOAD PUSH1 0xE0 SHR SWAP1 DUP2 PUSH4 0x6F2F721 EQ PUSH2 0x801 JUMPI POP DUP1 PUSH4 0x18BC1F85 EQ PUSH2 0x74B JUMPI DUP1 PUSH4 0x21E23AC4 EQ PUSH2 0x66F JUMPI DUP1 PUSH4 0x8462C97E EQ PUSH2 0x488 JUMPI DUP1 PUSH4 0x856CB9E7 EQ PUSH2 0x3D5 JUMPI DUP1 PUSH4 0x9490D075 EQ PUSH2 0x324 JUMPI DUP1 PUSH4 0x9DEC6142 EQ PUSH2 0x27D JUMPI DUP1 PUSH4 0xCA44D570 EQ PUSH2 0x1C1 JUMPI PUSH4 0xFCB260B0 EQ PUSH2 0x86 JUMPI PUSH1 0x0 DUP1 REVERT JUMPDEST CALLVALUE PUSH2 0x1BD JUMPI PUSH1 0x20 SWAP2 DUP3 PUSH1 0x3 NOT CALLDATASIZE ADD SLT PUSH2 0x1B9 JUMPI DUP2 CALLDATALOAD PUSH1 0x1 PUSH1 0x1 PUSH1 0xA0 SHL SUB DUP2 DUP2 AND SWAP2 DUP3 SWAP1 SUB PUSH2 0x1A4 JUMPI PUSH1 0x1 SLOAD AND SWAP1 DUP3 MLOAD SWAP1 PUSH4 0x521105AF PUSH1 0xE0 SHL DUP3 MSTORE DUP5 DUP3 ADD MSTORE DUP5 DUP2 PUSH1 0x24 DUP2 DUP6 GAS STATICCALL SWAP1 DUP2 ISZERO PUSH2 0x1AF JUMPI SWAP1 DUP6 SWAP2 DUP8 SWAP2 PUSH2 0x17C JUMPI JUMPDEST POP PUSH1 0x24 DUP5 MLOAD DUP1 SWAP5 DUP2 SWAP4 PUSH4 0x6A7AE723 PUSH1 0xE1 SHL DUP4 MSTORE DUP9 DUP4 ADD MSTORE GAS STATICCALL DUP1 ISZERO PUSH2 0x172 JUMPI DUP6 SWAP1 PUSH2 0x139 JUMPI JUMPDEST PUSH1 0x1 SWAP2 POP ISZERO ISZERO SUB PUSH2 0x112 JUMPI DUP4 DUP1 RETURN JUMPDEST PUSH1 0x64 SWAP4 POP MLOAD SWAP2 PUSH3 0x461BCD PUSH1 0xE5 SHL DUP4 MSTORE DUP2 DUP4 ADD MSTORE PUSH1 0x24 DUP3 ADD MSTORE PUSH4 0x29291B19 PUSH1 0xE1 SHL PUSH1 0x44 DUP3 ADD MSTORE REVERT JUMPDEST POP DUP4 DUP2 DUP2 RETURNDATASIZE DUP4 GT PUSH2 0x16B JUMPI JUMPDEST PUSH2 0x14F DUP2 DUP4 PUSH2 0x8A5 JUMP JUMPDEST DUP2 ADD SUB SLT PUSH2 0x167 JUMPI PUSH2 0x162 PUSH1 0x1 SWAP2 PUSH2 0x8FB JUMP JUMPDEST PUSH2 0x103 JUMP JUMPDEST DUP5 DUP1 REVERT JUMPDEST POP RETURNDATASIZE PUSH2 0x145 JUMP JUMPDEST DUP3 MLOAD RETURNDATASIZE DUP8 DUP3 RETURNDATACOPY RETURNDATASIZE SWAP1 REVERT JUMPDEST DUP3 DUP2 SWAP4 SWAP3 POP RETURNDATASIZE DUP4 GT PUSH2 0x1A8 JUMPI JUMPDEST PUSH2 0x193 DUP2 DUP4 PUSH2 0x8A5 JUMP JUMPDEST DUP2 ADD SUB SLT PUSH2 0x1A4 JUMPI DUP5 SWAP1 MLOAD CODESIZE PUSH2 0xDD JUMP JUMPDEST DUP6 DUP1 REVERT JUMPDEST POP RETURNDATASIZE PUSH2 0x189 JUMP JUMPDEST DUP4 MLOAD RETURNDATASIZE DUP9 DUP3 RETURNDATACOPY RETURNDATASIZE SWAP1 REVERT JUMPDEST DUP4 DUP1 REVERT JUMPDEST DUP3 DUP1 REVERT JUMPDEST POP SWAP1 CALLVALUE PUSH2 0x1BD JUMPI PUSH1 0x20 CALLDATASIZE PUSH1 0x3 NOT ADD SLT PUSH2 0x1BD JUMPI PUSH1 0x1 SLOAD DUP2 MLOAD PUSH4 0xCDE20B05 PUSH1 0xE0 SHL DUP2 MSTORE DUP4 CALLDATALOAD DUP5 DUP3 ADD MSTORE SWAP1 PUSH1 0x20 SWAP1 DUP3 SWAP1 PUSH1 0x24 SWAP1 DUP3 SWAP1 PUSH1 0x1 PUSH1 0x1 PUSH1 0xA0 SHL SUB AND GAS STATICCALL SWAP1 DUP2 ISZERO PUSH2 0x273 JUMPI SWAP1 PUSH1 0xFF SWAP2 DUP6 SWAP2 PUSH2 0x244 JUMPI JUMPDEST POP AND PUSH2 0x21B JUMPI DUP3 DUP1 RETURN JUMPDEST PUSH1 0x64 SWAP3 POP MLOAD SWAP1 PUSH3 0x461BCD PUSH1 0xE5 SHL DUP3 MSTORE PUSH1 0x20 DUP2 DUP4 ADD MSTORE PUSH1 0x24 DUP3 ADD MSTORE PUSH4 0x52523935 PUSH1 0xE0 SHL PUSH1 0x44 DUP3 ADD MSTORE REVERT JUMPDEST PUSH2 0x266 SWAP2 POP PUSH1 0x20 RETURNDATASIZE PUSH1 0x20 GT PUSH2 0x26C JUMPI JUMPDEST PUSH2 0x25E DUP2 DUP4 PUSH2 0x8A5 JUMP JUMPDEST DUP2 ADD SWAP1 PUSH2 0x8DD JUMP JUMPDEST CODESIZE PUSH2 0x211 JUMP JUMPDEST POP RETURNDATASIZE PUSH2 0x254 JUMP JUMPDEST DUP3 MLOAD RETURNDATASIZE DUP7 DUP3 RETURNDATACOPY RETURNDATASIZE SWAP1 REVERT JUMPDEST POP SWAP1 CALLVALUE PUSH2 0x1BD JUMPI PUSH1 0x20 CALLDATASIZE PUSH1 0x3 NOT ADD SLT PUSH2 0x1BD JUMPI PUSH1 0x1 SLOAD DUP2 MLOAD PUSH4 0xCDE20B05 PUSH1 0xE0 SHL DUP2 MSTORE DUP4 CALLDATALOAD DUP5 DUP3 ADD MSTORE SWAP1 PUSH1 0x20 SWAP1 DUP3 SWAP1 PUSH1 0x24 SWAP1 DUP3 SWAP1 PUSH1 0x1 PUSH1 0x1 PUSH1 0xA0 SHL SUB AND GAS STATICCALL SWAP1 DUP2 ISZERO PUSH2 0x273 JUMPI PUSH1 0x1 SWAP2 PUSH1 0xFF SWAP2 DUP7 SWAP2 PUSH2 0x305 JUMPI JUMPDEST POP AND SUB PUSH2 0x2DA JUMPI DUP3 DUP1 RETURN JUMPDEST SWAP1 PUSH1 0x20 PUSH1 0x64 SWAP3 MLOAD SWAP2 PUSH3 0x461BCD PUSH1 0xE5 SHL DUP4 MSTORE DUP3 ADD MSTORE PUSH1 0x5 PUSH1 0x24 DUP3 ADD MSTORE PUSH5 0x5252313033 PUSH1 0xD8 SHL PUSH1 0x44 DUP3 ADD MSTORE REVERT JUMPDEST PUSH2 0x31E SWAP2 POP PUSH1 0x20 RETURNDATASIZE PUSH1 0x20 GT PUSH2 0x26C JUMPI PUSH2 0x25E DUP2 DUP4 PUSH2 0x8A5 JUMP JUMPDEST CODESIZE PUSH2 0x2CF JUMP JUMPDEST POP SWAP1 CALLVALUE PUSH2 0x1BD JUMPI PUSH1 0x20 CALLDATASIZE PUSH1 0x3 NOT ADD SLT PUSH2 0x1BD JUMPI PUSH1 0x3 SLOAD DUP2 MLOAD PUSH4 0x448A545 PUSH1 0xE5 SHL DUP2 MSTORE DUP4 CALLDATALOAD DUP5 DUP3 ADD MSTORE SWAP1 PUSH1 0x80 SWAP1 DUP3 SWAP1 PUSH1 0x24 SWAP1 DUP3 SWAP1 PUSH1 0x1 PUSH1 0x1 PUSH1 0xA0 SHL SUB AND GAS STATICCALL SWAP1 DUP2 ISZERO PUSH2 0x273 JUMPI DUP5 SWAP2 PUSH2 0x3A2 JUMPI JUMPDEST POP PUSH2 0x379 JUMPI DUP3 DUP1 RETURN JUMPDEST PUSH1 0x64 SWAP3 POP MLOAD SWAP1 PUSH3 0x461BCD PUSH1 0xE5 SHL DUP3 MSTORE PUSH1 0x20 DUP2 DUP4 ADD MSTORE PUSH1 0x24 DUP3 ADD MSTORE PUSH4 0x52523633 PUSH1 0xE0 SHL PUSH1 0x44 DUP3 ADD MSTORE REVERT JUMPDEST PUSH2 0x3C4 SWAP2 POP PUSH1 0x80 RETURNDATASIZE PUSH1 0x80 GT PUSH2 0x3CE JUMPI JUMPDEST PUSH2 0x3BC DUP2 DUP4 PUSH2 0x8A5 JUMP JUMPDEST DUP2 ADD SWAP1 PUSH2 0x908 JUMP JUMPDEST POP SWAP2 POP POP CODESIZE PUSH2 0x370 JUMP JUMPDEST POP RETURNDATASIZE PUSH2 0x3B2 JUMP JUMPDEST POP SWAP1 CALLVALUE PUSH2 0x1BD JUMPI PUSH1 0x20 CALLDATASIZE PUSH1 0x3 NOT ADD SLT PUSH2 0x1BD JUMPI PUSH1 0x1 SLOAD DUP2 MLOAD PUSH4 0x6287FA13 PUSH1 0xE1 SHL DUP2 MSTORE DUP4 CALLDATALOAD DUP5 DUP3 ADD MSTORE SWAP1 PUSH1 0x80 SWAP1 DUP3 SWAP1 PUSH1 0x24 SWAP1 DUP3 SWAP1 PUSH1 0x1 PUSH1 0x1 PUSH1 0xA0 SHL SUB AND GAS STATICCALL SWAP1 DUP2 ISZERO PUSH2 0x273 JUMPI DUP5 SWAP2 PUSH2 0x454 JUMPI JUMPDEST POP ISZERO PUSH2 0x42B JUMPI DUP3 DUP1 RETURN JUMPDEST PUSH1 0x64 SWAP3 POP MLOAD SWAP1 PUSH3 0x461BCD PUSH1 0xE5 SHL DUP3 MSTORE PUSH1 0x20 DUP2 DUP4 ADD MSTORE PUSH1 0x24 DUP3 ADD MSTORE PUSH4 0x14948D0D PUSH1 0xE2 SHL PUSH1 0x44 DUP3 ADD MSTORE REVERT JUMPDEST SWAP1 POP PUSH1 0x80 DUP2 RETURNDATASIZE PUSH1 0x80 GT PUSH2 0x480 JUMPI JUMPDEST DUP2 PUSH2 0x46F PUSH1 0x80 SWAP4 DUP4 PUSH2 0x8A5 JUMP JUMPDEST DUP2 ADD SUB SLT PUSH2 0x1B9 JUMPI DUP2 ADD MLOAD CODESIZE PUSH2 0x421 JUMP JUMPDEST RETURNDATASIZE SWAP2 POP PUSH2 0x462 JUMP JUMPDEST POP CALLVALUE PUSH2 0x1BD JUMPI PUSH1 0x20 SWAP2 DUP3 PUSH1 0x3 NOT CALLDATASIZE ADD SLT PUSH2 0x1B9 JUMPI DUP2 CALLDATALOAD PUSH1 0x1 PUSH1 0x1 PUSH1 0xA0 SHL SUB DUP2 DUP2 AND SWAP2 DUP3 SWAP1 SUB PUSH2 0x1A4 JUMPI DUP1 PUSH1 0x1 SLOAD AND DUP4 MLOAD PUSH4 0xF0ABDA5D PUSH1 0xE0 SHL DUP2 MSTORE DUP7 DUP2 DUP8 DUP2 DUP6 GAS STATICCALL SWAP1 DUP2 ISZERO PUSH2 0x665 JUMPI SWAP1 DUP4 SWAP2 DUP10 SWAP2 PUSH2 0x627 JUMPI JUMPDEST POP AND DUP4 EQ PUSH2 0x5FF JUMPI DUP6 PUSH1 0x24 SWAP2 DUP6 MLOAD SWAP3 DUP4 DUP1 SWAP3 PUSH4 0x521105AF PUSH1 0xE0 SHL DUP3 MSTORE DUP8 DUP11 DUP4 ADD MSTORE GAS STATICCALL SWAP1 DUP2 ISZERO PUSH2 0x5F5 JUMPI DUP8 SWAP2 PUSH2 0x5C4 JUMPI JUMPDEST POP PUSH2 0x59B JUMPI DUP5 SWAP1 PUSH1 0x3 SLOAD AND SWAP2 PUSH1 0x24 DUP5 MLOAD DUP1 SWAP5 DUP2 SWAP4 PUSH4 0x18FE01C7 PUSH1 0xE2 SHL DUP4 MSTORE DUP9 DUP4 ADD MSTORE GAS STATICCALL SWAP1 DUP2 ISZERO PUSH2 0x172 JUMPI DUP6 SWAP2 PUSH2 0x56E JUMPI JUMPDEST POP ISZERO PUSH2 0x547 JUMPI DUP4 DUP1 RETURN JUMPDEST PUSH1 0x64 SWAP4 POP MLOAD SWAP2 PUSH3 0x461BCD PUSH1 0xE5 SHL DUP4 MSTORE DUP2 DUP4 ADD MSTORE PUSH1 0x24 DUP3 ADD MSTORE PUSH4 0x52523631 PUSH1 0xE0 SHL PUSH1 0x44 DUP3 ADD MSTORE REVERT JUMPDEST SWAP1 POP DUP4 DUP2 DUP2 RETURNDATASIZE DUP4 GT PUSH2 0x594 JUMPI JUMPDEST PUSH2 0x585 DUP2 DUP4 PUSH2 0x8A5 JUMP JUMPDEST DUP2 ADD SUB SLT PUSH2 0x167 JUMPI MLOAD CODESIZE PUSH2 0x53D JUMP JUMPDEST POP RETURNDATASIZE PUSH2 0x57B JUMP JUMPDEST POP POP PUSH1 0x64 SWAP4 POP MLOAD SWAP2 PUSH3 0x461BCD PUSH1 0xE5 SHL DUP4 MSTORE DUP2 DUP4 ADD MSTORE PUSH1 0x24 DUP3 ADD MSTORE PUSH4 0x52523237 PUSH1 0xE0 SHL PUSH1 0x44 DUP3 ADD MSTORE REVERT JUMPDEST SWAP1 POP DUP6 DUP2 DUP2 RETURNDATASIZE DUP4 GT PUSH2 0x5EE JUMPI JUMPDEST PUSH2 0x5DB DUP2 DUP4 PUSH2 0x8A5 JUMP JUMPDEST DUP2 ADD SUB SLT PUSH2 0x5EA JUMPI MLOAD CODESIZE PUSH2 0x50B JUMP JUMPDEST DUP7 DUP1 REVERT JUMPDEST POP RETURNDATASIZE PUSH2 0x5D1 JUMP JUMPDEST DUP5 MLOAD RETURNDATASIZE DUP10 DUP3 RETURNDATACOPY RETURNDATASIZE SWAP1 REVERT JUMPDEST PUSH1 0x64 DUP7 DUP7 DUP7 MLOAD SWAP2 PUSH3 0x461BCD PUSH1 0xE5 SHL DUP4 MSTORE DUP2 DUP4 ADD MSTORE PUSH1 0x24 DUP3 ADD MSTORE PUSH4 0x2929191B PUSH1 0xE1 SHL PUSH1 0x44 DUP3 ADD MSTORE REVERT JUMPDEST DUP1 SWAP3 POP DUP9 DUP1 SWAP3 POP RETURNDATASIZE DUP4 GT PUSH2 0x65E JUMPI JUMPDEST PUSH2 0x640 DUP2 DUP4 PUSH2 0x8A5 JUMP JUMPDEST DUP2 ADD SUB SLT PUSH2 0x65A JUMPI MLOAD DUP3 DUP2 AND DUP2 SUB PUSH2 0x65A JUMPI DUP3 SWAP1 CODESIZE PUSH2 0x4DA JUMP JUMPDEST DUP8 DUP1 REVERT JUMPDEST POP RETURNDATASIZE PUSH2 0x636 JUMP JUMPDEST DUP6 MLOAD RETURNDATASIZE DUP11 DUP3 RETURNDATACOPY RETURNDATASIZE SWAP1 REVERT JUMPDEST POP SWAP1 CALLVALUE PUSH2 0x1BD JUMPI PUSH1 0x20 CALLDATASIZE PUSH1 0x3 NOT ADD SLT PUSH2 0x1BD JUMPI PUSH1 0x3 SLOAD DUP2 MLOAD PUSH4 0x448A545 PUSH1 0xE5 SHL DUP2 MSTORE DUP4 CALLDATALOAD DUP5 DUP3 ADD MSTORE SWAP1 PUSH1 0x80 SWAP1 DUP3 SWAP1 PUSH1 0x24 SWAP1 DUP3 SWAP1 PUSH1 0x1 PUSH1 0x1 PUSH1 0xA0 SHL SUB AND GAS STATICCALL SWAP1 DUP2 ISZERO PUSH2 0x273 JUMPI DUP5 SWAP1 DUP6 SWAP3 PUSH2 0x723 JUMPI JUMPDEST POP PUSH1 0x1 SWAP1 ISZERO ISZERO SUB PUSH2 0x6F9 JUMPI PUSH2 0x6D0 JUMPI DUP3 DUP1 RETURN JUMPDEST PUSH1 0x64 SWAP3 POP MLOAD SWAP1 PUSH3 0x461BCD PUSH1 0xE5 SHL DUP3 MSTORE PUSH1 0x20 DUP2 DUP4 ADD MSTORE PUSH1 0x24 DUP3 ADD MSTORE PUSH4 0xA4A4727 PUSH1 0xE3 SHL PUSH1 0x44 DUP3 ADD MSTORE REVERT JUMPDEST DUP2 MLOAD PUSH3 0x461BCD PUSH1 0xE5 SHL DUP2 MSTORE PUSH1 0x20 DUP2 DUP6 ADD MSTORE PUSH1 0x24 DUP2 ADD DUP5 SWAP1 MSTORE PUSH4 0x52523937 PUSH1 0xE0 SHL PUSH1 0x44 DUP3 ADD MSTORE PUSH1 0x64 SWAP1 REVERT JUMPDEST PUSH1 0x1 SWAP3 POP PUSH2 0x740 SWAP2 POP PUSH1 0x80 RETURNDATASIZE PUSH1 0x80 GT PUSH2 0x3CE JUMPI PUSH2 0x3BC DUP2 DUP4 PUSH2 0x8A5 JUMP JUMPDEST SWAP4 SWAP3 POP SWAP1 POP SWAP1 PUSH2 0x6BD JUMP JUMPDEST POP CALLVALUE PUSH2 0x1BD JUMPI PUSH1 0x20 SWAP2 DUP3 PUSH1 0x3 NOT CALLDATASIZE ADD SLT PUSH2 0x1B9 JUMPI PUSH1 0x1 SLOAD DUP2 MLOAD PUSH4 0x6A7AE723 PUSH1 0xE1 SHL DUP2 MSTORE DUP4 CALLDATALOAD DUP5 DUP3 ADD MSTORE SWAP1 DUP5 SWAP1 DUP3 SWAP1 PUSH1 0x24 SWAP1 DUP3 SWAP1 PUSH1 0x1 PUSH1 0x1 PUSH1 0xA0 SHL SUB AND GAS STATICCALL DUP1 ISZERO PUSH2 0x172 JUMPI DUP6 SWAP1 PUSH2 0x7CC JUMPI JUMPDEST PUSH1 0x1 SWAP2 POP ISZERO ISZERO SUB PUSH2 0x7A5 JUMPI DUP4 DUP1 RETURN JUMPDEST PUSH1 0x64 SWAP4 POP MLOAD SWAP2 PUSH3 0x461BCD PUSH1 0xE5 SHL DUP4 MSTORE DUP2 DUP4 ADD MSTORE PUSH1 0x24 DUP3 ADD MSTORE PUSH4 0x52523137 PUSH1 0xE0 SHL PUSH1 0x44 DUP3 ADD MSTORE REVERT JUMPDEST POP DUP4 DUP2 DUP2 RETURNDATASIZE DUP4 GT PUSH2 0x7FA JUMPI JUMPDEST PUSH2 0x7E2 DUP2 DUP4 PUSH2 0x8A5 JUMP JUMPDEST DUP2 ADD SUB SLT PUSH2 0x167 JUMPI PUSH2 0x7F5 PUSH1 0x1 SWAP2 PUSH2 0x8FB JUMP JUMPDEST PUSH2 0x796 JUMP JUMPDEST POP RETURNDATASIZE PUSH2 0x7D8 JUMP JUMPDEST DUP5 SWAP4 SWAP2 POP CALLVALUE PUSH2 0x1B9 JUMPI PUSH1 0x20 CALLDATASIZE PUSH1 0x3 NOT ADD SLT PUSH2 0x1B9 JUMPI PUSH1 0x1 SLOAD PUSH4 0xCDE20B05 PUSH1 0xE0 SHL DUP3 MSTORE DUP4 CALLDATALOAD DUP5 DUP4 ADD MSTORE PUSH1 0x20 SWAP1 DUP3 SWAP1 PUSH1 0x24 SWAP1 DUP3 SWAP1 PUSH1 0x1 PUSH1 0x1 PUSH1 0xA0 SHL SUB AND GAS STATICCALL SWAP1 DUP2 ISZERO PUSH2 0x273 JUMPI PUSH1 0x2 SWAP2 PUSH1 0xFF SWAP2 DUP7 SWAP2 PUSH2 0x886 JUMPI JUMPDEST POP AND SUB PUSH2 0x85D JUMPI DUP3 DUP1 RETURN JUMPDEST PUSH1 0x64 SWAP3 POP MLOAD SWAP1 PUSH3 0x461BCD PUSH1 0xE5 SHL DUP3 MSTORE PUSH1 0x20 DUP2 DUP4 ADD MSTORE PUSH1 0x24 DUP3 ADD MSTORE PUSH4 0x29291C9B PUSH1 0xE1 SHL PUSH1 0x44 DUP3 ADD MSTORE REVERT JUMPDEST PUSH2 0x89F SWAP2 POP PUSH1 0x20 RETURNDATASIZE PUSH1 0x20 GT PUSH2 0x26C JUMPI PUSH2 0x25E DUP2 DUP4 PUSH2 0x8A5 JUMP JUMPDEST DUP7 PUSH2 0x852 JUMP JUMPDEST SWAP1 PUSH1 0x1F DUP1 NOT SWAP2 ADD AND DUP2 ADD SWAP1 DUP2 LT PUSH8 0xFFFFFFFFFFFFFFFF DUP3 GT OR PUSH2 0x8C7 JUMPI PUSH1 0x40 MSTORE JUMP JUMPDEST PUSH4 0x4E487B71 PUSH1 0xE0 SHL PUSH1 0x0 MSTORE PUSH1 0x41 PUSH1 0x4 MSTORE PUSH1 0x24 PUSH1 0x0 REVERT JUMPDEST SWAP1 DUP2 PUSH1 0x20 SWAP2 SUB SLT PUSH2 0x8F6 JUMPI MLOAD PUSH1 0xFF DUP2 AND DUP2 SUB PUSH2 0x8F6 JUMPI SWAP1 JUMP JUMPDEST PUSH1 0x0 DUP1 REVERT JUMPDEST MLOAD SWAP1 DUP2 ISZERO ISZERO DUP3 SUB PUSH2 0x8F6 JUMPI JUMP JUMPDEST SWAP2 SWAP1 DUP3 PUSH1 0x80 SWAP2 SUB SLT PUSH2 0x8F6 JUMPI DUP2 MLOAD SWAP2 PUSH1 0x20 DUP2 ADD MLOAD SWAP2 PUSH2 0x935 PUSH1 0x60 PUSH2 0x92E PUSH1 0x40 DUP6 ADD PUSH2 0x8FB JUMP JUMPDEST SWAP4 ADD PUSH2 0x8FB JUMP JUMPDEST SWAP1 JUMP INVALID LOG2 PUSH5 0x6970667358 0x22 SLT KECCAK256 EQ 0x21 PUSH8 0x14E4F3C398E95FF 0xAA ORIGIN SWAP1 PUSH32 0x84AC9E78D7E65B18AD382196AA7B2A251A64736F6C6343000816003300000000 "
		},
		"gasEstimates": {
			"creation": {
				"codeDepositCost": "482800",
				"executionCost": "infinite",
				"totalCost": "infinite"
			},
			"external": {
				"checkForCitizenNotYetVaccinated(uint256)": "infinite",
				"checkForRegisteredVC(address)": "infinite",
				"checkForRegisteredVC(uint256)": "infinite",
				"checkForSpentVaccineVial(bytes32)": "infinite",
				"checkForUnderProtocolExecVaccineVial(bytes32)": "infinite",
				"checkForUnusedVaccineVial(bytes32)": "infinite",
				"checkForVaccineStock(uint256)": "infinite",
				"checkForValidCitizenTokenID(address)": "infinite",
				"checkVaccinationAndVPStatusOfCitizen(uint256)": "infinite"
			}
		},
		"methodIdentifiers": {
			"checkForCitizenNotYetVaccinated(uint256)": "9490d075",
			"checkForRegisteredVC(address)": "fcb260b0",
			"checkForRegisteredVC(uint256)": "18bc1f85",
			"checkForSpentVaccineVial(bytes32)": "9dec6142",
			"checkForUnderProtocolExecVaccineVial(bytes32)": "06f2f721",
			"checkForUnusedVaccineVial(bytes32)": "ca44d570",
			"checkForVaccineStock(uint256)": "856cb9e7",
			"checkForValidCitizenTokenID(address)": "8462c97e",
			"checkVaccinationAndVPStatusOfCitizen(uint256)": "21e23ac4"
		}
	},
	"abi": [
		{
			"inputs": [
				{
					"internalType": "address",
					"name": "_addr_SC_VC_Govt",
					"type": "address"
				},
				{
					"internalType": "address",
					"name": "_addr_SC_C_Govt",
					"type": "address"
				}
			],
			"stateMutability": "nonpayable",
			"type": "constructor"
		},
		{
			"inputs": [
				{
					"internalType": "uint256",
					"name": "_tokenID",
					"type": "uint256"
				}
			],
			"name": "checkForCitizenNotYetVaccinated",
			"outputs": [],
			"stateMutability": "view",
			"type": "function"
		},
		{
			"inputs": [
				{
					"internalType": "uint256",
					"name": "_vcID",
					"type": "uint256"
				}
			],
			"name": "checkForRegisteredVC",
			"outputs": [],
			"stateMutability": "view",
			"type": "function"
		},
		{
			"inputs": [
				{
					"internalType": "address",
					"name": "_party",
					"type": "address"
				}
			],
			"name": "checkForRegisteredVC",
			"outputs": [],
			"stateMutability": "view",
			"type": "function"
		},
		{
			"inputs": [
				{
					"internalType": "bytes32",
					"name": "_vialHash",
					"type": "bytes32"
				}
			],
			"name": "checkForSpentVaccineVial",
			"outputs": [],
			"stateMutability": "view",
			"type": "function"
		},
		{
			"inputs": [
				{
					"internalType": "bytes32",
					"name": "_vialHash",
					"type": "bytes32"
				}
			],
			"name": "checkForUnderProtocolExecVaccineVial",
			"outputs": [],
			"stateMutability": "view",
			"type": "function"
		},
		{
			"inputs": [
				{
					"internalType": "bytes32",
					"name": "_vialHash",
					"type": "bytes32"
				}
			],
			"name": "checkForUnusedVaccineVial",
			"outputs": [],
			"stateMutability": "view",
			"type": "function"
		},
		{
			"inputs": [
				{
					"internalType": "uint256",
					"name": "_vcID",
					"type": "uint256"
				}
			],
			"name": "checkForVaccineStock",
			"outputs": [],
			"stateMutability": "view",
			"type": "function"
		},
		{
			"inputs": [
				{
					"internalType": "address",
					"name": "_party",
					"type": "address"
				}
			],
			"name": "checkForValidCitizenTokenID",
			"outputs": [],
			"stateMutability": "view",
			"type": "function"
		},
		{
			"inputs": [
				{
					"internalType": "uint256",
					"name": "_tokenID",
					"type": "uint256"
				}
			],
			"name": "checkVaccinationAndVPStatusOfCitizen",
			"outputs": [],
			"stateMutability": "view",
			"type": "function"
		}
	]
}