{
	"Updated Smart Contracts/SC_VC_Govt.sol": {
		"SC_VC_Govt": {
			"abi": [
				{
					"inputs": [],
					"stateMutability": "nonpayable",
					"type": "constructor"
				},
				{
					"inputs": [
						{
							"internalType": "uint256",
							"name": "",
							"type": "uint256"
						}
					],
					"name": "amountToBeRefundedToGovt",
					"outputs": [
						{
							"internalType": "uint256",
							"name": "",
							"type": "uint256"
						}
					],
					"stateMutability": "view",
					"type": "function"
				},
				{
					"inputs": [
						{
							"internalType": "address",
							"name": "_vcAddr",
							"type": "address"
						},
						{
							"internalType": "bytes32",
							"name": "_hash_of_appl",
							"type": "bytes32"
						}
					],
					"name": "applHash",
					"outputs": [],
					"stateMutability": "nonpayable",
					"type": "function"
				},
				{
					"inputs": [
						{
							"internalType": "uint256",
							"name": "_cardinality",
							"type": "uint256"
						},
						{
							"internalType": "bytes32",
							"name": "_MR",
							"type": "bytes32"
						},
						{
							"internalType": "uint256",
							"name": "_vcID",
							"type": "uint256"
						}
					],
					"name": "commitVaccineSet",
					"outputs": [],
					"stateMutability": "payable",
					"type": "function"
				},
				{
					"inputs": [
						{
							"internalType": "uint256",
							"name": "_applID",
							"type": "uint256"
						},
						{
							"internalType": "bool",
							"name": "_decision",
							"type": "bool"
						}
					],
					"name": "decideOnAcceptanceAppl",
					"outputs": [],
					"stateMutability": "nonpayable",
					"type": "function"
				},
				{
					"inputs": [
						{
							"internalType": "bool",
							"name": "_decision",
							"type": "bool"
						}
					],
					"name": "decideOnAcceptanceHash",
					"outputs": [],
					"stateMutability": "nonpayable",
					"type": "function"
				},
				{
					"inputs": [
						{
							"internalType": "bool",
							"name": "_decision",
							"type": "bool"
						}
					],
					"name": "decideOnAcceptanceVaccineSet",
					"outputs": [],
					"stateMutability": "nonpayable",
					"type": "function"
				},
				{
					"inputs": [],
					"name": "getBalance",
					"outputs": [
						{
							"internalType": "uint256",
							"name": "",
							"type": "uint256"
						}
					],
					"stateMutability": "view",
					"type": "function"
				},
				{
					"inputs": [],
					"name": "getGovt",
					"outputs": [
						{
							"internalType": "address",
							"name": "",
							"type": "address"
						}
					],
					"stateMutability": "view",
					"type": "function"
				},
				{
					"inputs": [
						{
							"internalType": "uint256",
							"name": "_stockID",
							"type": "uint256"
						}
					],
					"name": "getStockInfo",
					"outputs": [
						{
							"internalType": "uint256",
							"name": "",
							"type": "uint256"
						},
						{
							"internalType": "uint256",
							"name": "",
							"type": "uint256"
						},
						{
							"internalType": "uint256",
							"name": "",
							"type": "uint256"
						},
						{
							"internalType": "bytes32",
							"name": "",
							"type": "bytes32"
						}
					],
					"stateMutability": "view",
					"type": "function"
				},
				{
					"inputs": [
						{
							"internalType": "uint256",
							"name": "_vcID",
							"type": "uint256"
						}
					],
					"name": "getVC",
					"outputs": [
						{
							"internalType": "uint256",
							"name": "",
							"type": "uint256"
						},
						{
							"internalType": "uint256",
							"name": "",
							"type": "uint256"
						},
						{
							"internalType": "uint256",
							"name": "",
							"type": "uint256"
						},
						{
							"internalType": "uint256",
							"name": "",
							"type": "uint256"
						}
					],
					"stateMutability": "view",
					"type": "function"
				},
				{
					"inputs": [
						{
							"internalType": "uint256",
							"name": "",
							"type": "uint256"
						}
					],
					"name": "getVCFromvcID",
					"outputs": [
						{
							"internalType": "uint256",
							"name": "vcID",
							"type": "uint256"
						},
						{
							"internalType": "uint256",
							"name": "currentStockID",
							"type": "uint256"
						},
						{
							"internalType": "uint256",
							"name": "no_of_vaccine_vials_remaining",
							"type": "uint256"
						},
						{
							"internalType": "uint256",
							"name": "money_earned",
							"type": "uint256"
						}
					],
					"stateMutability": "view",
					"type": "function"
				},
				{
					"inputs": [
						{
							"internalType": "bytes32",
							"name": "_vialHash",
							"type": "bytes32"
						}
					],
					"name": "getVialState",
					"outputs": [
						{
							"internalType": "uint8",
							"name": "",
							"type": "uint8"
						}
					],
					"stateMutability": "view",
					"type": "function"
				},
				{
					"inputs": [
						{
							"internalType": "uint256",
							"name": "_vcID",
							"type": "uint256"
						}
					],
					"name": "getvcAddr",
					"outputs": [
						{
							"internalType": "address",
							"name": "",
							"type": "address"
						}
					],
					"stateMutability": "view",
					"type": "function"
				},
				{
					"inputs": [
						{
							"internalType": "address",
							"name": "_vcAddr",
							"type": "address"
						}
					],
					"name": "getvcID",
					"outputs": [
						{
							"internalType": "uint256",
							"name": "",
							"type": "uint256"
						}
					],
					"stateMutability": "view",
					"type": "function"
				},
				{
					"inputs": [],
					"name": "govt",
					"outputs": [
						{
							"internalType": "address",
							"name": "",
							"type": "address"
						}
					],
					"stateMutability": "view",
					"type": "function"
				},
				{
					"inputs": [
						{
							"internalType": "uint256",
							"name": "_vcID",
							"type": "uint256"
						}
					],
					"name": "isValidVC",
					"outputs": [
						{
							"internalType": "bool",
							"name": "",
							"type": "bool"
						}
					],
					"stateMutability": "view",
					"type": "function"
				},
				{
					"inputs": [
						{
							"internalType": "uint256",
							"name": "",
							"type": "uint256"
						}
					],
					"name": "latestVCRefillApplNumber",
					"outputs": [
						{
							"internalType": "uint256",
							"name": "",
							"type": "uint256"
						}
					],
					"stateMutability": "view",
					"type": "function"
				},
				{
					"inputs": [
						{
							"internalType": "address",
							"name": "",
							"type": "address"
						}
					],
					"name": "latestVCRegistrationApplNumber",
					"outputs": [
						{
							"internalType": "uint256",
							"name": "",
							"type": "uint256"
						}
					],
					"stateMutability": "view",
					"type": "function"
				},
				{
					"inputs": [
						{
							"internalType": "uint256",
							"name": "",
							"type": "uint256"
						}
					],
					"name": "lockedServiceChargeForVC",
					"outputs": [
						{
							"internalType": "uint256",
							"name": "",
							"type": "uint256"
						}
					],
					"stateMutability": "view",
					"type": "function"
				},
				{
					"inputs": [
						{
							"internalType": "address",
							"name": "_vcAddr",
							"type": "address"
						}
					],
					"name": "payServiceCharge",
					"outputs": [],
					"stateMutability": "nonpayable",
					"type": "function"
				},
				{
					"inputs": [],
					"name": "perVaccineServiceCharge",
					"outputs": [
						{
							"internalType": "uint256",
							"name": "",
							"type": "uint256"
						}
					],
					"stateMutability": "view",
					"type": "function"
				},
				{
					"inputs": [],
					"name": "refillApplIDGenerator",
					"outputs": [
						{
							"internalType": "uint256",
							"name": "",
							"type": "uint256"
						}
					],
					"stateMutability": "view",
					"type": "function"
				},
				{
					"inputs": [],
					"name": "refillStockAppl",
					"outputs": [],
					"stateMutability": "nonpayable",
					"type": "function"
				},
				{
					"inputs": [
						{
							"internalType": "uint256",
							"name": "",
							"type": "uint256"
						},
						{
							"internalType": "uint256",
							"name": "",
							"type": "uint256"
						}
					],
					"name": "refillVaccineAppl",
					"outputs": [
						{
							"internalType": "uint256",
							"name": "timestamp_refill_Appl",
							"type": "uint256"
						},
						{
							"internalType": "uint256",
							"name": "cardinality_of_set",
							"type": "uint256"
						},
						{
							"internalType": "bytes32",
							"name": "commitment_vaccine_set",
							"type": "bytes32"
						},
						{
							"internalType": "uint256",
							"name": "timestamp_commit_vaccine_set",
							"type": "uint256"
						},
						{
							"internalType": "bool",
							"name": "accept_vaccine_set",
							"type": "bool"
						},
						{
							"internalType": "uint256",
							"name": "timestamp_accept_vaccine_set",
							"type": "uint256"
						}
					],
					"stateMutability": "view",
					"type": "function"
				},
				{
					"inputs": [],
					"name": "regApplIDGenerator",
					"outputs": [
						{
							"internalType": "uint256",
							"name": "",
							"type": "uint256"
						}
					],
					"stateMutability": "view",
					"type": "function"
				},
				{
					"inputs": [],
					"name": "serviceChargeAmount",
					"outputs": [
						{
							"internalType": "uint256",
							"name": "",
							"type": "uint256"
						}
					],
					"stateMutability": "pure",
					"type": "function"
				},
				{
					"inputs": [
						{
							"internalType": "bytes32",
							"name": "_vialHash",
							"type": "bytes32"
						},
						{
							"internalType": "uint8",
							"name": "_state",
							"type": "uint8"
						}
					],
					"name": "setVialState",
					"outputs": [],
					"stateMutability": "nonpayable",
					"type": "function"
				},
				{
					"inputs": [],
					"name": "stockIDGenerator",
					"outputs": [
						{
							"internalType": "uint256",
							"name": "",
							"type": "uint256"
						}
					],
					"stateMutability": "view",
					"type": "function"
				},
				{
					"inputs": [
						{
							"internalType": "uint256",
							"name": "_vcID",
							"type": "uint256"
						}
					],
					"name": "takeAwayLockedMoney",
					"outputs": [],
					"stateMutability": "nonpayable",
					"type": "function"
				},
				{
					"inputs": [],
					"name": "timeLimit",
					"outputs": [
						{
							"internalType": "uint256",
							"name": "",
							"type": "uint256"
						}
					],
					"stateMutability": "view",
					"type": "function"
				},
				{
					"inputs": [],
					"name": "timestampAppl",
					"outputs": [],
					"stateMutability": "nonpayable",
					"type": "function"
				},
				{
					"inputs": [
						{
							"internalType": "uint256",
							"name": "",
							"type": "uint256"
						}
					],
					"name": "vaccineStockBelongsTo",
					"outputs": [
						{
							"internalType": "uint256",
							"name": "",
							"type": "uint256"
						}
					],
					"stateMutability": "view",
					"type": "function"
				},
				{
					"inputs": [
						{
							"internalType": "uint256",
							"name": "",
							"type": "uint256"
						}
					],
					"name": "vaccineStockDetails",
					"outputs": [
						{
							"internalType": "uint256",
							"name": "stockID",
							"type": "uint256"
						},
						{
							"internalType": "uint256",
							"name": "timestamp_stock",
							"type": "uint256"
						},
						{
							"internalType": "uint256",
							"name": "no_of_vaccine_vials_supplied",
							"type": "uint256"
						},
						{
							"internalType": "bytes32",
							"name": "stock_MR",
							"type": "bytes32"
						}
					],
					"stateMutability": "view",
					"type": "function"
				},
				{
					"inputs": [
						{
							"internalType": "address",
							"name": "",
							"type": "address"
						}
					],
					"name": "vcAddrTovcID",
					"outputs": [
						{
							"internalType": "uint256",
							"name": "",
							"type": "uint256"
						}
					],
					"stateMutability": "view",
					"type": "function"
				},
				{
					"inputs": [],
					"name": "vcIDGenerator",
					"outputs": [
						{
							"internalType": "uint256",
							"name": "",
							"type": "uint256"
						}
					],
					"stateMutability": "view",
					"type": "function"
				},
				{
					"inputs": [
						{
							"internalType": "uint256",
							"name": "",
							"type": "uint256"
						}
					],
					"name": "vcIDTovcAddr",
					"outputs": [
						{
							"internalType": "address",
							"name": "",
							"type": "address"
						}
					],
					"stateMutability": "view",
					"type": "function"
				},
				{
					"inputs": [
						{
							"internalType": "uint256",
							"name": "",
							"type": "uint256"
						}
					],
					"name": "vcRefillApplBelongsTo",
					"outputs": [
						{
							"internalType": "uint256",
							"name": "",
							"type": "uint256"
						}
					],
					"stateMutability": "view",
					"type": "function"
				},
				{
					"inputs": [
						{
							"internalType": "uint256",
							"name": "",
							"type": "uint256"
						}
					],
					"name": "vcRefillApplUnderProcess",
					"outputs": [
						{
							"internalType": "bool",
							"name": "",
							"type": "bool"
						}
					],
					"stateMutability": "view",
					"type": "function"
				},
				{
					"inputs": [
						{
							"internalType": "address",
							"name": "",
							"type": "address"
						},
						{
							"internalType": "uint256",
							"name": "",
							"type": "uint256"
						}
					],
					"name": "vcRegistrationAppl",
					"outputs": [
						{
							"internalType": "uint256",
							"name": "timestamp_reg_appl",
							"type": "uint256"
						},
						{
							"internalType": "bytes32",
							"name": "hash_of_reg_appl",
							"type": "bytes32"
						},
						{
							"internalType": "uint256",
							"name": "timestamp_hash_reg_appl",
							"type": "uint256"
						},
						{
							"internalType": "bool",
							"name": "acceptance_of_reg_appl_hash",
							"type": "bool"
						},
						{
							"internalType": "uint256",
							"name": "timestamp_acceptance_reg_appl_hash",
							"type": "uint256"
						},
						{
							"internalType": "bool",
							"name": "acceptance_of_reg_appl",
							"type": "bool"
						},
						{
							"internalType": "uint256",
							"name": "timestamp_acceptance_reg_appl",
							"type": "uint256"
						},
						{
							"internalType": "uint256",
							"name": "applID",
							"type": "uint256"
						}
					],
					"stateMutability": "view",
					"type": "function"
				},
				{
					"inputs": [
						{
							"internalType": "uint256",
							"name": "",
							"type": "uint256"
						}
					],
					"name": "vcRegistrationApplBelongsTo",
					"outputs": [
						{
							"internalType": "address",
							"name": "",
							"type": "address"
						}
					],
					"stateMutability": "view",
					"type": "function"
				},
				{
					"inputs": [
						{
							"internalType": "address",
							"name": "",
							"type": "address"
						}
					],
					"name": "vcRegistrationApplUnderProcess",
					"outputs": [
						{
							"internalType": "bool",
							"name": "",
							"type": "bool"
						}
					],
					"stateMutability": "view",
					"type": "function"
				},
				{
					"inputs": [
						{
							"internalType": "bytes32",
							"name": "",
							"type": "bytes32"
						}
					],
					"name": "vialState",
					"outputs": [
						{
							"internalType": "enum SC_VC_Govt.VialState",
							"name": "",
							"type": "uint8"
						}
					],
					"stateMutability": "view",
					"type": "function"
				}
			],
			"devdoc": {
				"kind": "dev",
				"methods": {},
				"version": 1
			},
			"evm": {
				"assembly": "    /* \"Updated Smart Contracts/SC_VC_Govt.sol\":74:17119  contract SC_VC_Govt... */\n  0x80\n  dup1\n  0x40\n  mstore\n  jumpi(tag_1, callvalue)\n    /* \"Updated Smart Contracts/SC_VC_Govt.sol\":2970:2971  0 */\n  0x00\n  0x11\n    /* \"Updated Smart Contracts/SC_VC_Govt.sol\":74:17119  contract SC_VC_Govt... */\n  dup2\n  swap1\n  sstore\n    /* \"Updated Smart Contracts/SC_VC_Govt.sol\":3017:3018  0 */\n  0x12\n    /* \"Updated Smart Contracts/SC_VC_Govt.sol\":74:17119  contract SC_VC_Govt... */\n  dup2\n  swap1\n  sstore\n    /* \"Updated Smart Contracts/SC_VC_Govt.sol\":3056:3057  0 */\n  0x13\n    /* \"Updated Smart Contracts/SC_VC_Govt.sol\":74:17119  contract SC_VC_Govt... */\n  dup2\n  swap1\n  sstore\n    /* \"Updated Smart Contracts/SC_VC_Govt.sol\":3098:3099  0 */\n  0x14\n    /* \"Updated Smart Contracts/SC_VC_Govt.sol\":74:17119  contract SC_VC_Govt... */\n  dup2\n  swap1\n  sstore\n  dup1\n  sload\n  not(sub(shl(0xa0, 0x01), 0x01))\n  and\n    /* \"Updated Smart Contracts/SC_VC_Govt.sol\":3146:3156  msg.sender */\n  caller\n    /* \"Updated Smart Contracts/SC_VC_Govt.sol\":74:17119  contract SC_VC_Govt... */\n  or\n  swap1\n  sstore\n  dataSize(sub_0)\n  swap1\n  dup2\n  dataOffset(sub_0)\n  dup3\n  codecopy\n  return\ntag_1:\n  0x00\n  dup1\n  revert\nstop\n\nsub_0: assembly {\n        /* \"Updated Smart Contracts/SC_VC_Govt.sol\":74:17119  contract SC_VC_Govt... */\n      0x80\n      dup1\n      0x40\n      mstore\n      jumpi(tag_20, iszero(lt(calldatasize, 0x04)))\n      0x00\n      dup1\n      revert\n    tag_20:\n      0xe0\n      calldataload(0x00)\n      dup2\n      shr\n      swap2\n      dup3\n      0x12065fe0\n      eq\n      tag_22\n      jumpi\n      pop\n      dup2\n      0x1aaaf8a3\n      eq\n      tag_24\n      jumpi\n      dup2\n      0x1abb3cb3\n      eq\n      tag_26\n      jumpi\n      dup2\n      0x1c598771\n      eq\n      tag_86\n      jumpi\n      dup2\n      0x1cc48983\n      eq\n      tag_42\n      jumpi\n      dup2\n      0x20992ee6\n      eq\n      tag_56\n      jumpi\n      dup2\n      0x24913a26\n      eq\n      tag_34\n      jumpi\n      dup2\n      0x2d6ba1ee\n      eq\n      tag_36\n      jumpi\n      dup2\n      0x30809899\n      eq\n      tag_38\n      jumpi\n      dup2\n      0x3616a4fc\n      eq\n      tag_40\n      jumpi\n      dup2\n      0x4163c6a9\n      eq\n      tag_42\n      jumpi\n      dup2\n      0x4598e9db\n      eq\n      tag_44\n      jumpi\n      dup2\n      0x4667fab2\n      eq\n      tag_46\n      jumpi\n      dup2\n      0x4acc3b94\n      eq\n      tag_48\n      jumpi\n      dup2\n      0x4b230744\n      eq\n      tag_50\n      jumpi\n      dup2\n      0x4c5fe3ba\n      eq\n      tag_52\n      jumpi\n      dup2\n      0x4ee00c00\n      eq\n      tag_54\n      jumpi\n      dup2\n      0x521105af\n      eq\n      tag_56\n      jumpi\n      dup2\n      0x5d840c3d\n      eq\n      tag_58\n      jumpi\n      dup2\n      0x62c419ae\n      eq\n      tag_60\n      jumpi\n      dup2\n      0x6dcbd957\n      eq\n      tag_62\n      jumpi\n      dup2\n      0x74cb2918\n      eq\n      tag_64\n      jumpi\n      dup2\n      0x8f9e0f58\n      eq\n      tag_66\n      jumpi\n      dup2\n      0x9a6114f8\n      eq\n      tag_68\n      jumpi\n      dup2\n      0x9b8ade16\n      eq\n      tag_70\n      jumpi\n      dup2\n      0xa596bdb0\n      eq\n      tag_72\n      jumpi\n      dup2\n      0xaf223ac2\n      eq\n      tag_74\n      jumpi\n      dup2\n      0xaf7f659d\n      eq\n      tag_76\n      jumpi\n      dup2\n      0xb3c00500\n      eq\n      tag_78\n      jumpi\n      dup2\n      0xb4b89ffb\n      eq\n      tag_80\n      jumpi\n      dup2\n      0xb4cd7689\n      eq\n      tag_82\n      jumpi\n      dup2\n      0xbd1a7c73\n      eq\n      tag_84\n      jumpi\n      pop\n      dup1\n      0xbf96ce32\n      eq\n      tag_86\n      jumpi\n      dup1\n      0xc08d1fe5\n      eq\n      tag_88\n      jumpi\n      dup1\n      0xc50ff426\n      eq\n      tag_90\n      jumpi\n      dup1\n      0xcde20b05\n      eq\n      tag_92\n      jumpi\n      dup1\n      0xd4f5ce46\n      eq\n      tag_94\n      jumpi\n      dup1\n      0xd9382c1b\n      eq\n      tag_102\n      jumpi\n      dup1\n      0xe6da13e5\n      eq\n      tag_98\n      jumpi\n      dup1\n      0xee95f27e\n      eq\n      tag_100\n      jumpi\n      dup1\n      0xf0abda5d\n      eq\n      tag_102\n      jumpi\n      0xf888ee02\n      eq\n      tag_104\n      jumpi\n      0x00\n      dup1\n      revert\n    tag_104:\n      jumpi(tag_108, callvalue)\n      jumpi(tag_108, slt(add(not(0x03), calldatasize), 0x20))\n      mstore(0x00, calldataload(0x04))\n        /* \"Updated Smart Contracts/SC_VC_Govt.sol\":4755:4774  vaccineStockDetails */\n      0x0d\n        /* \"Updated Smart Contracts/SC_VC_Govt.sol\":74:17119  contract SC_VC_Govt... */\n      0x20\n      mstore\n      keccak256(0x00, 0x40)\n      tag_110\n      tag_6\n      jump\t// in\n    tag_110:\n      swap1\n      tag_111\n      0x60\n      dup3\n      sload\n      swap3\n      dup4\n      dup6\n      mstore\n      0x01\n      dup2\n      add\n      sload\n      swap5\n      dup6\n      0x20\n      dup3\n      add\n      mstore\n      0x03\n      0x02\n      dup4\n      add\n      sload\n      swap3\n      dup4\n      0x40\n      dup5\n      add\n      mstore\n      add\n      sload\n      swap3\n      dup4\n      swap2\n      add\n      mstore\n      mload(0x40)\n      swap5\n      dup6\n      swap5\n      dup6\n      swap1\n      swap5\n      swap4\n      swap3\n      0x60\n      swap3\n      0x80\n      dup4\n      add\n      swap7\n      dup4\n      mstore\n      0x20\n      dup4\n      add\n      mstore\n      0x40\n      dup3\n      add\n      mstore\n      add\n      mstore\n      jump\n    tag_111:\n      sub\n      swap1\n      return\n    tag_108:\n      0x00\n      dup1\n      revert\n    tag_102:\n      jumpi(tag_108, callvalue)\n      jumpi(tag_108, slt(add(not(0x03), calldatasize), 0x00))\n      sload(0x00)\n      mload(0x40)\n      sub(shl(0xa0, 0x01), 0x01)\n      swap1\n      swap2\n      and\n      dup2\n      mstore\n      0x20\n      swap1\n      return\n    tag_100:\n      jumpi(tag_108, callvalue)\n      jumpi(tag_108, slt(add(not(0x03), calldatasize), 0x40))\n      calldataload(0x24)\n      0xff\n      dup2\n      and\n      dup1\n      swap2\n      sub\n      tag_108\n      jumpi\n        /* \"Updated Smart Contracts/SC_VC_Govt.sol\":4510:4544  VialState.UNDER_PROTOCOL_EXECUTION */\n      0x02\n        /* \"Updated Smart Contracts/SC_VC_Govt.sol\":4494:4545  _state <= uint8(VialState.UNDER_PROTOCOL_EXECUTION) */\n      dup2\n      gt\n        /* \"Updated Smart Contracts/SC_VC_Govt.sol\":74:17119  contract SC_VC_Govt... */\n      tag_122\n      jumpi\n      0x03\n      dup2\n      lt\n      iszero\n      tag_124\n      jumpi\n      mstore(0x00, calldataload(0x04))\n        /* \"Updated Smart Contracts/SC_VC_Govt.sol\":4561:4570  vialState */\n      0x10\n        /* \"Updated Smart Contracts/SC_VC_Govt.sol\":74:17119  contract SC_VC_Govt... */\n      0x20\n      mstore\n      keccak256(0x00, 0x40)\n      swap1\n      not(0xff)\n      dup3\n      sload\n      and\n      or\n      swap1\n      sstore\n      0x00\n      dup1\n      return\n    tag_124:\n      mstore(0x00, shl(0xe0, 0x4e487b71))\n      mstore(0x04, 0x21)\n      revert(0x00, 0x24)\n    tag_122:\n      mload(0x40)\n      shl(0xe5, 0x461bcd)\n      dup2\n      mstore\n      0x20\n      0x04\n      dup3\n      add\n      mstore\n      0x00\n      0x24\n      dup3\n      add\n      mstore\n      0x44\n      swap1\n      revert\n    tag_98:\n      jumpi(tag_108, callvalue)\n      jumpi(tag_108, slt(add(not(0x03), calldatasize), 0x20))\n      calldataload(0x04)\n      0x00\n      swap1\n      dup2\n      mstore\n        /* \"Updated Smart Contracts/SC_VC_Govt.sol\":2360:2417  mapping(uint256=>VaccineStock) public vaccineStockDetails */\n      0x0d\n        /* \"Updated Smart Contracts/SC_VC_Govt.sol\":74:17119  contract SC_VC_Govt... */\n      0x20\n      swap1\n      dup2\n      mstore\n      0x40\n      swap2\n      dup3\n      swap1\n      keccak256\n      dup1\n      sload\n      0x01\n        /* \"Updated Smart Contracts/SC_VC_Govt.sol\":2360:2417  mapping(uint256=>VaccineStock) public vaccineStockDetails */\n      dup3\n      add\n        /* \"Updated Smart Contracts/SC_VC_Govt.sol\":74:17119  contract SC_VC_Govt... */\n      sload\n        /* \"Updated Smart Contracts/SC_VC_Govt.sol\":2360:2417  mapping(uint256=>VaccineStock) public vaccineStockDetails */\n      0x02\n      dup4\n      add\n        /* \"Updated Smart Contracts/SC_VC_Govt.sol\":74:17119  contract SC_VC_Govt... */\n      sload\n        /* \"Updated Smart Contracts/SC_VC_Govt.sol\":2360:2417  mapping(uint256=>VaccineStock) public vaccineStockDetails */\n      0x03\n      swap1\n      swap4\n      add\n        /* \"Updated Smart Contracts/SC_VC_Govt.sol\":74:17119  contract SC_VC_Govt... */\n      sload\n      dup6\n      mload\n      swap3\n      dup4\n      mstore\n      swap4\n      dup3\n      add\n      mstore\n      swap3\n      dup4\n      add\n      mstore\n      0x60\n      dup3\n      add\n      mstore\n      0x80\n      swap1\n      return\n    tag_94:\n      jumpi(tag_108, callvalue)\n      jumpi(tag_108, slt(add(not(0x03), calldatasize), 0x20))\n      0x20\n      tag_139\n      calldataload(0x04)\n      tag_19\n      jump\t// in\n    tag_139:\n      mload(0x40)\n      swap1\n      iszero\n      iszero\n      dup2\n      mstore\n      return\n    tag_92:\n      jumpi(tag_108, callvalue)\n      jumpi(tag_108, slt(add(not(0x03), calldatasize), 0x20))\n      mstore(0x00, calldataload(0x04))\n        /* \"Updated Smart Contracts/SC_VC_Govt.sol\":4368:4377  vialState */\n      0x10\n        /* \"Updated Smart Contracts/SC_VC_Govt.sol\":74:17119  contract SC_VC_Govt... */\n      0x20\n      mstore\n      and(sload(keccak256(0x00, 0x40)), 0xff)\n      0x03\n      dup2\n      lt\n      iszero\n      tag_124\n      jumpi\n      0x20\n      swap1\n      mload(0x40)\n      swap1\n      dup2\n      mstore\n      return\n    tag_90:\n      jumpi(tag_108, callvalue)\n      jumpi(tag_108, slt(add(not(0x03), calldatasize), 0x20))\n      mstore(0x00, calldataload(0x04))\n        /* \"Updated Smart Contracts/SC_VC_Govt.sol\":3899:3912  getVCFromvcID */\n      0x07\n        /* \"Updated Smart Contracts/SC_VC_Govt.sol\":74:17119  contract SC_VC_Govt... */\n      0x20\n      mstore\n      keccak256(0x00, 0x40)\n      tag_110\n      tag_6\n      jump\t// in\n    tag_88:\n      jumpi(tag_108, callvalue)\n      jumpi(tag_108, slt(add(not(0x03), calldatasize), 0x00))\n      0x20\n      mload(0x40)\n        /* \"Updated Smart Contracts/SC_VC_Govt.sol\":2851:2862  300 seconds */\n      0x012c\n        /* \"Updated Smart Contracts/SC_VC_Govt.sol\":74:17119  contract SC_VC_Govt... */\n      dup2\n      mstore\n      return\n    tag_86:\n      jumpi(tag_108, callvalue)\n      jumpi(tag_108, slt(add(not(0x03), calldatasize), 0x20))\n      mstore(0x00, calldataload(0x04))\n        /* \"Updated Smart Contracts/SC_VC_Govt.sol\":3747:3759  vcIDTovcAddr */\n      0x06\n        /* \"Updated Smart Contracts/SC_VC_Govt.sol\":74:17119  contract SC_VC_Govt... */\n      0x20\n      mstore\n      0x20\n      0x01\n      dup1\n      0xa0\n      shl\n      sub\n      sload(keccak256(0x00, 0x40))\n      and\n      mload(0x40)\n      swap1\n      dup2\n      mstore\n      return\n    tag_84:\n      jumpi(tag_108, callvalue)\n      0x20\n      dup1\n      add(calldatasize, not(0x03))\n      slt\n      tag_108\n      jumpi\n      tag_164\n      tag_2\n      jump\t// in\n    tag_164:\n        /* \"Updated Smart Contracts/SC_VC_Govt.sol\":3335:3365  require(_party != govt, \"RR2\") */\n      tag_165\n        /* \"Updated Smart Contracts/SC_VC_Govt.sol\":74:17119  contract SC_VC_Govt... */\n      0x01\n      dup1\n      0xa0\n      shl\n      sub\n      sload(0x00)\n      and\n        /* \"Updated Smart Contracts/SC_VC_Govt.sol\":8459:8469  msg.sender */\n      caller\n        /* \"Updated Smart Contracts/SC_VC_Govt.sol\":3343:3357  _party != govt */\n      eq\n      iszero\n        /* \"Updated Smart Contracts/SC_VC_Govt.sol\":3335:3365  require(_party != govt, \"RR2\") */\n      tag_4\n      jump\t// in\n    tag_165:\n        /* \"Updated Smart Contracts/SC_VC_Govt.sol\":8459:8469  msg.sender */\n      caller\n        /* \"Updated Smart Contracts/SC_VC_Govt.sol\":74:17119  contract SC_VC_Govt... */\n      0x00\n      mstore\n        /* \"Updated Smart Contracts/SC_VC_Govt.sol\":8521:8551  latestVCRegistrationApplNumber */\n      0x02\n        /* \"Updated Smart Contracts/SC_VC_Govt.sol\":74:17119  contract SC_VC_Govt... */\n      dup3\n      mstore\n      sload(keccak256(0x00, 0x40))\n        /* \"Updated Smart Contracts/SC_VC_Govt.sol\":8604:8622  vcRegistrationAppl */\n      swap1\n      0x01\n        /* \"Updated Smart Contracts/SC_VC_Govt.sol\":74:17119  contract SC_VC_Govt... */\n      swap4\n      dup5\n      dup5\n      mstore\n      keccak256(0x00, 0x40)\n      dup4\n      0x00\n      mstore\n      dup5\n      mstore\n      keccak256(0x00, 0x40)\n      tag_166\n      tag_8\n      jump\t// in\n    tag_166:\n      swap4\n      dup2\n      sload\n      dup6\n      mstore\n      dup7\n      dup3\n      add\n      sload\n      swap4\n      dup7\n      dup7\n      add\n      swap5\n      dup6\n      mstore\n        /* \"Updated Smart Contracts/SC_VC_Govt.sol\":8521:8551  latestVCRegistrationApplNumber */\n      0x02\n        /* \"Updated Smart Contracts/SC_VC_Govt.sol\":74:17119  contract SC_VC_Govt... */\n      dup4\n      add\n      sload\n      0x40\n      dup8\n      add\n      swap1\n      dup2\n      mstore\n      0xff\n      0x03\n      dup6\n      add\n      sload\n      and\n      swap1\n      0x60\n      dup9\n      add\n      swap2\n      iszero\n      iszero\n      dup3\n      mstore\n      0x04\n      dup6\n      add\n      sload\n      swap2\n      0x80\n      dup10\n      add\n      swap3\n      dup4\n      mstore\n      0xff\n      0x05\n      dup8\n      add\n      sload\n      and\n      swap4\n      0xa0\n      dup11\n      add\n      swap5\n      iszero\n      iszero\n      dup6\n      mstore\n      0x07\n      0x06\n      dup9\n      add\n      sload\n      swap8\n      0xc0\n      dup13\n      add\n      swap9\n      dup10\n      mstore\n      add\n      sload\n      swap8\n      dup11\n      add\n      swap8\n      dup9\n      mstore\n        /* \"Updated Smart Contracts/SC_VC_Govt.sol\":8459:8469  msg.sender */\n      caller\n        /* \"Updated Smart Contracts/SC_VC_Govt.sol\":74:17119  contract SC_VC_Govt... */\n      0x00\n      mstore\n      0x05\n      dup12\n      mstore\n        /* \"Updated Smart Contracts/SC_VC_Govt.sol\":8657:8702  require(vcAddrTovcID[msg.sender] == 0, \"RR3\") */\n      tag_167\n        /* \"Updated Smart Contracts/SC_VC_Govt.sol\":74:17119  contract SC_VC_Govt... */\n      sload(keccak256(0x00, 0x40))\n        /* \"Updated Smart Contracts/SC_VC_Govt.sol\":8665:8694  vcAddrTovcID[msg.sender] == 0 */\n      iszero\n        /* \"Updated Smart Contracts/SC_VC_Govt.sol\":8657:8702  require(vcAddrTovcID[msg.sender] == 0, \"RR3\") */\n      tag_17\n      jump\t// in\n    tag_167:\n        /* \"Updated Smart Contracts/SC_VC_Govt.sol\":8459:8469  msg.sender */\n      caller\n        /* \"Updated Smart Contracts/SC_VC_Govt.sol\":74:17119  contract SC_VC_Govt... */\n      0x00\n      mstore\n      0x03\n      dup12\n      mstore\n        /* \"Updated Smart Contracts/SC_VC_Govt.sol\":8713:8779  require(vcRegistrationApplUnderProcess[msg.sender] == true, \"RR5\") */\n      tag_168\n        /* \"Updated Smart Contracts/SC_VC_Govt.sol\":74:17119  contract SC_VC_Govt... */\n      dup13\n      iszero(iszero(and(sload(keccak256(0x00, 0x40)), 0xff)))\n        /* \"Updated Smart Contracts/SC_VC_Govt.sol\":8721:8771  vcRegistrationApplUnderProcess[msg.sender] == true */\n      eq\n        /* \"Updated Smart Contracts/SC_VC_Govt.sol\":8713:8779  require(vcRegistrationApplUnderProcess[msg.sender] == true, \"RR5\") */\n      tag_18\n      jump\t// in\n    tag_168:\n        /* \"Updated Smart Contracts/SC_VC_Govt.sol\":74:17119  contract SC_VC_Govt... */\n      dup3\n      mload\n        /* \"Updated Smart Contracts/SC_VC_Govt.sol\":8798:8828  x.timestamp_hash_reg_appl != 0 */\n      iszero\n        /* \"Updated Smart Contracts/SC_VC_Govt.sol\":74:17119  contract SC_VC_Govt... */\n      tag_169\n      jumpi\n      dup4\n      mload\n      tag_171\n      jumpi\n      dup12\n      swap1\n        /* \"Updated Smart Contracts/SC_VC_Govt.sol\":8914:8988  require((block.timestamp - x.timestamp_hash_reg_appl) <= timeLimit, \"RR8\") */\n      tag_173\n        /* \"Updated Smart Contracts/SC_VC_Govt.sol\":2851:2862  300 seconds */\n      0x012c\n        /* \"Updated Smart Contracts/SC_VC_Govt.sol\":8923:8966  block.timestamp - x.timestamp_hash_reg_appl */\n      tag_174\n        /* \"Updated Smart Contracts/SC_VC_Govt.sol\":74:17119  contract SC_VC_Govt... */\n      dup7\n      mload\n        /* \"Updated Smart Contracts/SC_VC_Govt.sol\":8923:8938  block.timestamp */\n      timestamp\n        /* \"Updated Smart Contracts/SC_VC_Govt.sol\":8923:8966  block.timestamp - x.timestamp_hash_reg_appl */\n      tag_10\n      jump\t// in\n    tag_174:\n        /* \"Updated Smart Contracts/SC_VC_Govt.sol\":8922:8980  (block.timestamp - x.timestamp_hash_reg_appl) <= timeLimit */\n      gt\n      iszero\n        /* \"Updated Smart Contracts/SC_VC_Govt.sol\":8914:8988  require((block.timestamp - x.timestamp_hash_reg_appl) <= timeLimit, \"RR8\") */\n      tag_16\n      jump\t// in\n    tag_173:\n        /* \"Updated Smart Contracts/SC_VC_Govt.sol\":74:17119  contract SC_VC_Govt... */\n      iszero\n      iszero\n      dup1\n      dup4\n      mstore\n        /* \"Updated Smart Contracts/SC_VC_Govt.sol\":8923:8938  block.timestamp */\n      timestamp\n        /* \"Updated Smart Contracts/SC_VC_Govt.sol\":74:17119  contract SC_VC_Govt... */\n      dup6\n      mstore\n        /* \"Updated Smart Contracts/SC_VC_Govt.sol\":9119:9136  _decision == true */\n      sub\n        /* \"Updated Smart Contracts/SC_VC_Govt.sol\":8604:8622  vcRegistrationAppl */\n      tag_175\n      jumpi\n        /* \"Updated Smart Contracts/SC_VC_Govt.sol\":9203:9226  regApplIDGenerator += 1 */\n      0x11\n        /* \"Updated Smart Contracts/SC_VC_Govt.sol\":74:17119  contract SC_VC_Govt... */\n      sload\n      swap2\n      dup12\n      dup4\n      add\n      dup1\n      swap4\n      gt\n      tag_177\n      jumpi\n      dup12\n      0x07\n      swap10\n      tag_179\n      swap8\n      0x04\n      swap15\n      dup15\n      dup8\n      tag_180\n      swap9\n        /* \"Updated Smart Contracts/SC_VC_Govt.sol\":9203:9226  regApplIDGenerator += 1 */\n      0x11\n        /* \"Updated Smart Contracts/SC_VC_Govt.sol\":74:17119  contract SC_VC_Govt... */\n      sstore\n      dup14\n      mstore\n        /* \"Updated Smart Contracts/SC_VC_Govt.sol\":9116:9423  if(_decision == true)... */\n    tag_181:\n        /* \"Updated Smart Contracts/SC_VC_Govt.sol\":8459:8469  msg.sender */\n      caller\n        /* \"Updated Smart Contracts/SC_VC_Govt.sol\":74:17119  contract SC_VC_Govt... */\n      0x00\n      mstore\n      mstore\n      keccak256(0x00, 0x40)\n      swap1\n      0x00\n      mstore\n      dup14\n      mstore\n      keccak256(0x00, 0x40)\n      swap12\n      mload\n      dup13\n      sstore\n      mload\n      swap1\n      dup12\n      add\n      sstore\n      mload\n        /* \"Updated Smart Contracts/SC_VC_Govt.sol\":8521:8551  latestVCRegistrationApplNumber */\n      0x02\n        /* \"Updated Smart Contracts/SC_VC_Govt.sol\":74:17119  contract SC_VC_Govt... */\n      dup11\n      add\n      sstore\n      mload\n      iszero\n      iszero\n      0x03\n      dup10\n      add\n      swap1\n      0xff\n      dup1\n      not\n      dup4\n      sload\n      and\n      swap2\n      iszero\n      iszero\n      and\n      or\n      swap1\n      sstore\n      jump\n    tag_180:\n      mload\n      dup9\n      dup8\n      add\n      sstore\n      mload\n      iszero\n      iszero\n      0x05\n      dup7\n      add\n      swap1\n      0xff\n      dup1\n      not\n      dup4\n      sload\n      and\n      swap2\n      iszero\n      iszero\n      and\n      or\n      swap1\n      sstore\n      jump\n    tag_179:\n      mload\n      0x06\n      dup5\n      add\n      sstore\n      mload\n      swap2\n      add\n      sstore\n        /* \"Updated Smart Contracts/SC_VC_Govt.sol\":9518:9536  regApplIDGenerator */\n      0x11\n        /* \"Updated Smart Contracts/SC_VC_Govt.sol\":74:17119  contract SC_VC_Govt... */\n      sload\n      0x00\n      mstore\n      mstore\n      keccak256(0x00, 0x40)\n        /* \"Updated Smart Contracts/SC_VC_Govt.sol\":8459:8469  msg.sender */\n      caller\n        /* \"Updated Smart Contracts/SC_VC_Govt.sol\":74:17119  contract SC_VC_Govt... */\n      shl(0xa0, 0xffffffffffffffffffffffff)\n      dup3\n      sload\n      and\n      or\n      swap1\n      sstore\n      0x00\n      dup1\n      return\n    tag_177:\n      mstore(0x00, shl(0xe0, 0x4e487b71))\n        /* \"Updated Smart Contracts/SC_VC_Govt.sol\":9203:9226  regApplIDGenerator += 1 */\n      0x11\n        /* \"Updated Smart Contracts/SC_VC_Govt.sol\":74:17119  contract SC_VC_Govt... */\n      0x04\n      mstore\n      revert(0x00, 0x24)\n        /* \"Updated Smart Contracts/SC_VC_Govt.sol\":9116:9423  if(_decision == true)... */\n    tag_175:\n        /* \"Updated Smart Contracts/SC_VC_Govt.sol\":74:17119  contract SC_VC_Govt... */\n      tag_180\n        /* \"Updated Smart Contracts/SC_VC_Govt.sol\":8459:8469  msg.sender */\n      swap2\n      dup12\n        /* \"Updated Smart Contracts/SC_VC_Govt.sol\":74:17119  contract SC_VC_Govt... */\n      0x07\n        /* \"Updated Smart Contracts/SC_VC_Govt.sol\":8459:8469  msg.sender */\n      swap10\n        /* \"Updated Smart Contracts/SC_VC_Govt.sol\":74:17119  contract SC_VC_Govt... */\n      tag_179\n        /* \"Updated Smart Contracts/SC_VC_Govt.sol\":8459:8469  msg.sender */\n      swap8\n        /* \"Updated Smart Contracts/SC_VC_Govt.sol\":74:17119  contract SC_VC_Govt... */\n      0x04\n        /* \"Updated Smart Contracts/SC_VC_Govt.sol\":8459:8469  msg.sender */\n      swap15\n      dup15\n      caller\n        /* \"Updated Smart Contracts/SC_VC_Govt.sol\":74:17119  contract SC_VC_Govt... */\n      0x00\n      mstore\n      0x03\n      dup2\n      mstore\n      keccak256(0x00, 0x40)\n      not(0xff)\n      dup2\n      sload\n      and\n      swap1\n      sstore\n        /* \"Updated Smart Contracts/SC_VC_Govt.sol\":9116:9423  if(_decision == true)... */\n      jump(tag_181)\n        /* \"Updated Smart Contracts/SC_VC_Govt.sol\":74:17119  contract SC_VC_Govt... */\n    tag_171:\n      mload(0x40)\n      shl(0xe5, 0x461bcd)\n      dup2\n      mstore\n      0x04\n      dup1\n      dup3\n      add\n      dup14\n      swap1\n      mstore\n      0x24\n      dup3\n      add\n      mstore\n      shl(0xe4, 0x05252313)\n      0x44\n      dup3\n      add\n      mstore\n      0x64\n      swap1\n      revert\n    tag_169:\n      mload(0x40)\n      shl(0xe5, 0x461bcd)\n      dup2\n      mstore\n      0x04\n      dup2\n      add\n      dup13\n      swap1\n      mstore\n      0x03\n      0x24\n      dup3\n      add\n      mstore\n      shl(0xe8, 0x525239)\n      0x44\n      dup3\n      add\n      mstore\n      0x64\n      swap1\n      revert\n    tag_82:\n      jumpi(tag_108, callvalue)\n      jumpi(tag_108, slt(add(not(0x03), calldatasize), 0x00))\n      0x20\n        /* \"Updated Smart Contracts/SC_VC_Govt.sol\":3064:3099  uint256 public stockIDGenerator = 0 */\n      0x14\n        /* \"Updated Smart Contracts/SC_VC_Govt.sol\":74:17119  contract SC_VC_Govt... */\n      sload\n      mload(0x40)\n      swap1\n      dup2\n      mstore\n      return\n    tag_80:\n      jumpi(tag_108, callvalue)\n      jumpi(tag_108, slt(add(not(0x03), calldatasize), 0x40))\n      tag_190\n      tag_1\n      jump\t// in\n    tag_190:\n      sload(0x00)\n      sub(shl(0xa0, 0x01), 0x01)\n      swap2\n      swap1\n        /* \"Updated Smart Contracts/SC_VC_Govt.sol\":3222:3252  require(_party == govt, \"RR1\") */\n      tag_191\n      swap1\n        /* \"Updated Smart Contracts/SC_VC_Govt.sol\":74:17119  contract SC_VC_Govt... */\n      dup4\n      and\n        /* \"Updated Smart Contracts/SC_VC_Govt.sol\":7721:7731  msg.sender */\n      caller\n        /* \"Updated Smart Contracts/SC_VC_Govt.sol\":3230:3244  _party == govt */\n      eq\n        /* \"Updated Smart Contracts/SC_VC_Govt.sol\":3222:3252  require(_party == govt, \"RR1\") */\n      tag_13\n      jump\t// in\n    tag_191:\n        /* \"Updated Smart Contracts/SC_VC_Govt.sol\":74:17119  contract SC_VC_Govt... */\n      and\n      dup1\n      0x00\n      mstore\n      0x20\n      swap2\n        /* \"Updated Smart Contracts/SC_VC_Govt.sol\":7785:7815  latestVCRegistrationApplNumber */\n      0x02\n        /* \"Updated Smart Contracts/SC_VC_Govt.sol\":74:17119  contract SC_VC_Govt... */\n      dup4\n      mstore\n      sload(keccak256(0x00, 0x40))\n      swap2\n      0x01\n      dup5\n      mstore\n      keccak256(0x00, 0x40)\n      dup4\n      0x00\n      mstore\n      dup5\n      mstore\n      keccak256(0x00, 0x40)\n      swap1\n      tag_192\n      tag_8\n      jump\t// in\n    tag_192:\n      swap4\n      dup3\n      sload\n      dup6\n      mstore\n      0x01\n      dup4\n      add\n      sload\n      dup7\n      dup7\n      add\n      swap1\n      dup2\n      mstore\n        /* \"Updated Smart Contracts/SC_VC_Govt.sol\":7785:7815  latestVCRegistrationApplNumber */\n      0x02\n        /* \"Updated Smart Contracts/SC_VC_Govt.sol\":74:17119  contract SC_VC_Govt... */\n      dup5\n      add\n      sload\n      0x40\n      dup8\n      add\n      swap1\n      dup2\n      mstore\n      0xff\n      0x03\n      dup7\n      add\n      sload\n      and\n      swap2\n      0x60\n      dup9\n      add\n      swap3\n      iszero\n      iszero\n      dup4\n      mstore\n      0x04\n      dup7\n      add\n      sload\n      swap4\n      0x80\n      dup10\n      add\n      swap5\n      dup6\n      mstore\n      0xff\n      0x05\n      dup9\n      add\n      sload\n      and\n      swap6\n      0xa0\n      dup11\n      add\n      swap7\n      iszero\n      iszero\n      dup8\n      mstore\n      0x07\n      0x06\n      dup10\n      add\n      sload\n      swap9\n      0xc0\n      dup13\n      add\n      swap10\n      dup11\n      mstore\n      add\n      sload\n      swap9\n      dup11\n      add\n      swap9\n      dup10\n      mstore\n      dup1\n      0x00\n      mstore\n      0x05\n      dup12\n      mstore\n        /* \"Updated Smart Contracts/SC_VC_Govt.sol\":7915:7957  require(vcAddrTovcID[_vcAddr] == 0, \"RR3\") */\n      tag_193\n        /* \"Updated Smart Contracts/SC_VC_Govt.sol\":74:17119  contract SC_VC_Govt... */\n      sload(keccak256(0x00, 0x40))\n        /* \"Updated Smart Contracts/SC_VC_Govt.sol\":7923:7949  vcAddrTovcID[_vcAddr] == 0 */\n      iszero\n        /* \"Updated Smart Contracts/SC_VC_Govt.sol\":7915:7957  require(vcAddrTovcID[_vcAddr] == 0, \"RR3\") */\n      tag_17\n      jump\t// in\n    tag_193:\n        /* \"Updated Smart Contracts/SC_VC_Govt.sol\":74:17119  contract SC_VC_Govt... */\n      dup1\n      0x00\n      mstore\n      0x03\n      dup12\n      mstore\n        /* \"Updated Smart Contracts/SC_VC_Govt.sol\":7968:8031  require(vcRegistrationApplUnderProcess[_vcAddr] == true, \"RR5\") */\n      tag_194\n        /* \"Updated Smart Contracts/SC_VC_Govt.sol\":74:17119  contract SC_VC_Govt... */\n      0x01\n      iszero(iszero(and(sload(keccak256(0x00, 0x40)), 0xff)))\n        /* \"Updated Smart Contracts/SC_VC_Govt.sol\":7976:8023  vcRegistrationApplUnderProcess[_vcAddr] == true */\n      eq\n        /* \"Updated Smart Contracts/SC_VC_Govt.sol\":7968:8031  require(vcRegistrationApplUnderProcess[_vcAddr] == true, \"RR5\") */\n      tag_18\n      jump\t// in\n    tag_194:\n        /* \"Updated Smart Contracts/SC_VC_Govt.sol\":74:17119  contract SC_VC_Govt... */\n      dup10\n      mload\n        /* \"Updated Smart Contracts/SC_VC_Govt.sol\":8050:8075  x.timestamp_reg_appl != 0 */\n      iszero\n        /* \"Updated Smart Contracts/SC_VC_Govt.sol\":74:17119  contract SC_VC_Govt... */\n      tag_195\n      jumpi\n      dup4\n      mload\n      tag_197\n      jumpi\n      swap2\n      tag_199\n      swap4\n      swap2\n      dup11\n      swap12\n      tag_200\n      swap9\n      swap8\n      swap7\n      swap5\n        /* \"Updated Smart Contracts/SC_VC_Govt.sol\":8150:8219  require((block.timestamp - x.timestamp_reg_appl) <= timeLimit, \"RR8\") */\n      tag_201\n        /* \"Updated Smart Contracts/SC_VC_Govt.sol\":2851:2862  300 seconds */\n      0x012c\n        /* \"Updated Smart Contracts/SC_VC_Govt.sol\":8159:8197  block.timestamp - x.timestamp_reg_appl */\n      tag_174\n        /* \"Updated Smart Contracts/SC_VC_Govt.sol\":74:17119  contract SC_VC_Govt... */\n      0x07\n      swap16\n      mload\n        /* \"Updated Smart Contracts/SC_VC_Govt.sol\":8159:8174  block.timestamp */\n      timestamp\n        /* \"Updated Smart Contracts/SC_VC_Govt.sol\":8159:8197  block.timestamp - x.timestamp_reg_appl */\n      tag_10\n      jump\t// in\n        /* \"Updated Smart Contracts/SC_VC_Govt.sol\":8150:8219  require((block.timestamp - x.timestamp_reg_appl) <= timeLimit, \"RR8\") */\n    tag_201:\n        /* \"Updated Smart Contracts/SC_VC_Govt.sol\":74:17119  contract SC_VC_Govt... */\n      calldataload(0x24)\n      dup5\n      mstore\n        /* \"Updated Smart Contracts/SC_VC_Govt.sol\":8159:8174  block.timestamp */\n      timestamp\n        /* \"Updated Smart Contracts/SC_VC_Govt.sol\":74:17119  contract SC_VC_Govt... */\n      dup6\n      mstore\n      0x00\n      mstore\n      0x01\n      dup2\n      mstore\n      keccak256(0x00, 0x40)\n      swap2\n      0x00\n      mstore\n      mstore\n      keccak256(0x00, 0x40)\n      swap11\n      mload\n      dup12\n      sstore\n      mload\n      0x01\n      dup12\n      add\n      sstore\n      mload\n        /* \"Updated Smart Contracts/SC_VC_Govt.sol\":7785:7815  latestVCRegistrationApplNumber */\n      0x02\n        /* \"Updated Smart Contracts/SC_VC_Govt.sol\":74:17119  contract SC_VC_Govt... */\n      dup11\n      add\n      sstore\n      mload\n      iszero\n      iszero\n      0x03\n      dup10\n      add\n      swap1\n      0xff\n      dup1\n      not\n      dup4\n      sload\n      and\n      swap2\n      iszero\n      iszero\n      and\n      or\n      swap1\n      sstore\n      jump\n    tag_199:\n      mload\n      0x04\n      dup8\n      add\n      sstore\n      mload\n      iszero\n      iszero\n      0x05\n      dup7\n      add\n      swap1\n      0xff\n      dup1\n      not\n      dup4\n      sload\n      and\n      swap2\n      iszero\n      iszero\n      and\n      or\n      swap1\n      sstore\n      jump\n    tag_200:\n      mload\n      0x06\n      dup5\n      add\n      sstore\n      mload\n      swap2\n      add\n      sstore\n      stop\n    tag_197:\n      mload(0x40)\n      shl(0xe5, 0x461bcd)\n      dup2\n      mstore\n      0x04\n      dup2\n      add\n      dup13\n      swap1\n      mstore\n      0x03\n      0x24\n      dup3\n      add\n      mstore\n      shl(0xe8, 0x525237)\n      0x44\n      dup3\n      add\n      mstore\n      0x64\n      swap1\n      revert\n    tag_195:\n      mload(0x40)\n      shl(0xe5, 0x461bcd)\n      dup2\n      mstore\n      0x04\n      dup2\n      add\n      dup13\n      swap1\n      mstore\n      0x03\n      0x24\n      dup3\n      add\n      mstore\n      shl(0xe9, 0x29291b)\n      0x44\n      dup3\n      add\n      mstore\n      0x64\n      swap1\n      revert\n    tag_78:\n      jumpi(tag_108, callvalue)\n      jumpi(tag_108, slt(add(not(0x03), calldatasize), 0x00))\n      0x20\n        /* \"Updated Smart Contracts/SC_VC_Govt.sol\":2934:2971  uint256 public regApplIDGenerator = 0 */\n      0x11\n        /* \"Updated Smart Contracts/SC_VC_Govt.sol\":74:17119  contract SC_VC_Govt... */\n      sload\n      mload(0x40)\n      swap1\n      dup2\n      mstore\n      return\n    tag_76:\n      jumpi(tag_108, callvalue)\n      jumpi(tag_108, slt(add(not(0x03), calldatasize), 0x20))\n      mstore(0x00, calldataload(0x04))\n        /* \"Updated Smart Contracts/SC_VC_Govt.sol\":2122:2176  mapping(uint256=>uint256) public vcRefillApplBelongsTo */\n      0x0a\n        /* \"Updated Smart Contracts/SC_VC_Govt.sol\":74:17119  contract SC_VC_Govt... */\n      0x20\n      mstore\n      0x20\n      sload(keccak256(0x00, 0x40))\n      mload(0x40)\n      swap1\n      dup2\n      mstore\n      return\n    tag_74:\n      jumpi(tag_108, callvalue)\n      jumpi(tag_108, slt(add(not(0x03), calldatasize), 0x40))\n      calldataload(0x24)\n      dup1\n      iszero\n      iszero\n      dup1\n      swap2\n      sub\n      tag_108\n      jumpi\n      sload(0x00)\n      sub(shl(0xa0, 0x01), 0x01)\n      swap2\n      swap1\n        /* \"Updated Smart Contracts/SC_VC_Govt.sol\":3222:3252  require(_party == govt, \"RR1\") */\n      tag_217\n      swap1\n        /* \"Updated Smart Contracts/SC_VC_Govt.sol\":74:17119  contract SC_VC_Govt... */\n      dup4\n      and\n        /* \"Updated Smart Contracts/SC_VC_Govt.sol\":9649:9659  msg.sender */\n      caller\n        /* \"Updated Smart Contracts/SC_VC_Govt.sol\":3230:3244  _party == govt */\n      eq\n        /* \"Updated Smart Contracts/SC_VC_Govt.sol\":3222:3252  require(_party == govt, \"RR1\") */\n      tag_13\n      jump\t// in\n    tag_217:\n        /* \"Updated Smart Contracts/SC_VC_Govt.sol\":74:17119  contract SC_VC_Govt... */\n      mstore(0x00, calldataload(0x04))\n      0x20\n      swap2\n      0x04\n      dup4\n      mstore\n      sload(keccak256(0x00, 0x40))\n      and\n        /* \"Updated Smart Contracts/SC_VC_Govt.sol\":9765:9818  _vcAddr != 0x0000000000000000000000000000000000000000 */\n      swap1\n      dup2\n      iszero\n        /* \"Updated Smart Contracts/SC_VC_Govt.sol\":74:17119  contract SC_VC_Govt... */\n      tag_218\n      jumpi\n      dup2\n      0x00\n      mstore\n        /* \"Updated Smart Contracts/SC_VC_Govt.sol\":9845:9857  vcAddrTovcID */\n      0x05\n        /* \"Updated Smart Contracts/SC_VC_Govt.sol\":74:17119  contract SC_VC_Govt... */\n      dup4\n      mstore\n        /* \"Updated Smart Contracts/SC_VC_Govt.sol\":9837:9879  require(vcAddrTovcID[_vcAddr] == 0, \"RR3\") */\n      tag_220\n        /* \"Updated Smart Contracts/SC_VC_Govt.sol\":74:17119  contract SC_VC_Govt... */\n      sload(keccak256(0x00, 0x40))\n        /* \"Updated Smart Contracts/SC_VC_Govt.sol\":9845:9871  vcAddrTovcID[_vcAddr] == 0 */\n      iszero\n        /* \"Updated Smart Contracts/SC_VC_Govt.sol\":9837:9879  require(vcAddrTovcID[_vcAddr] == 0, \"RR3\") */\n      tag_17\n      jump\t// in\n    tag_220:\n        /* \"Updated Smart Contracts/SC_VC_Govt.sol\":74:17119  contract SC_VC_Govt... */\n      dup2\n      0x00\n      mstore\n        /* \"Updated Smart Contracts/SC_VC_Govt.sol\":9898:9928  vcRegistrationApplUnderProcess */\n      0x03\n        /* \"Updated Smart Contracts/SC_VC_Govt.sol\":74:17119  contract SC_VC_Govt... */\n      dup4\n      mstore\n      0x01\n      swap4\n        /* \"Updated Smart Contracts/SC_VC_Govt.sol\":9890:9953  require(vcRegistrationApplUnderProcess[_vcAddr] == true, \"RR5\") */\n      tag_221\n        /* \"Updated Smart Contracts/SC_VC_Govt.sol\":74:17119  contract SC_VC_Govt... */\n      dup6\n      iszero(iszero(and(sload(keccak256(0x00, 0x40)), 0xff)))\n        /* \"Updated Smart Contracts/SC_VC_Govt.sol\":9898:9945  vcRegistrationApplUnderProcess[_vcAddr] == true */\n      eq\n        /* \"Updated Smart Contracts/SC_VC_Govt.sol\":9890:9953  require(vcRegistrationApplUnderProcess[_vcAddr] == true, \"RR5\") */\n      tag_18\n      jump\t// in\n    tag_221:\n        /* \"Updated Smart Contracts/SC_VC_Govt.sol\":74:17119  contract SC_VC_Govt... */\n      dup3\n      0x00\n      mstore\n        /* \"Updated Smart Contracts/SC_VC_Govt.sol\":9985:10015  latestVCRegistrationApplNumber */\n      0x02\n        /* \"Updated Smart Contracts/SC_VC_Govt.sol\":74:17119  contract SC_VC_Govt... */\n      dup5\n      mstore\n      sload(keccak256(0x00, 0x40))\n      dup6\n      dup6\n      mstore\n      keccak256(0x00, 0x40)\n      dup2\n      0x00\n      mstore\n      dup6\n      mstore\n      keccak256(0x00, 0x40)\n      swap1\n      tag_222\n      tag_8\n      jump\t// in\n    tag_222:\n      swap4\n      dup3\n      sload\n      dup6\n      mstore\n      dup8\n      dup4\n      add\n      sload\n      dup8\n      dup7\n      add\n      swap1\n      dup2\n      mstore\n        /* \"Updated Smart Contracts/SC_VC_Govt.sol\":9985:10015  latestVCRegistrationApplNumber */\n      0x02\n        /* \"Updated Smart Contracts/SC_VC_Govt.sol\":74:17119  contract SC_VC_Govt... */\n      dup5\n      add\n      sload\n      0x40\n      dup8\n      add\n      swap1\n      dup2\n      mstore\n      0xff\n        /* \"Updated Smart Contracts/SC_VC_Govt.sol\":9898:9928  vcRegistrationApplUnderProcess */\n      0x03\n        /* \"Updated Smart Contracts/SC_VC_Govt.sol\":74:17119  contract SC_VC_Govt... */\n      dup7\n      add\n      sload\n      and\n      swap2\n      0x60\n      dup9\n      add\n      swap3\n      iszero\n      iszero\n      dup4\n      mstore\n      0x04\n      dup7\n      add\n      sload\n      swap5\n      0x80\n      dup10\n      add\n      swap5\n      dup7\n      dup7\n      mstore\n      0xff\n        /* \"Updated Smart Contracts/SC_VC_Govt.sol\":9845:9857  vcAddrTovcID */\n      0x05\n        /* \"Updated Smart Contracts/SC_VC_Govt.sol\":74:17119  contract SC_VC_Govt... */\n      dup10\n      add\n      sload\n      and\n      swap7\n      0xa0\n      dup12\n      add\n      swap8\n      iszero\n      iszero\n      dup9\n      mstore\n      0x07\n      0x06\n      dup11\n      add\n      sload\n      swap10\n      0xc0\n      dup14\n      add\n      swap11\n      dup12\n      mstore\n      add\n      sload\n      swap10\n      dup12\n      add\n      swap10\n      dup11\n      mstore\n        /* \"Updated Smart Contracts/SC_VC_Govt.sol\":10123:10164  x.timestamp_acceptance_reg_appl_hash != 0 */\n      iszero\n        /* \"Updated Smart Contracts/SC_VC_Govt.sol\":74:17119  contract SC_VC_Govt... */\n      tag_223\n      jumpi\n      dup8\n      mload\n      tag_225\n      jumpi\n      dup13\n      swap1\n        /* \"Updated Smart Contracts/SC_VC_Govt.sol\":10248:10333  require((block.timestamp - x.timestamp_acceptance_reg_appl_hash) <= timeLimit, \"RR8\") */\n      tag_227\n        /* \"Updated Smart Contracts/SC_VC_Govt.sol\":2851:2862  300 seconds */\n      0x012c\n        /* \"Updated Smart Contracts/SC_VC_Govt.sol\":10257:10311  block.timestamp - x.timestamp_acceptance_reg_appl_hash */\n      tag_174\n        /* \"Updated Smart Contracts/SC_VC_Govt.sol\":74:17119  contract SC_VC_Govt... */\n      dup10\n      mload\n        /* \"Updated Smart Contracts/SC_VC_Govt.sol\":10257:10272  block.timestamp */\n      timestamp\n        /* \"Updated Smart Contracts/SC_VC_Govt.sol\":10257:10311  block.timestamp - x.timestamp_acceptance_reg_appl_hash */\n      tag_10\n      jump\t// in\n        /* \"Updated Smart Contracts/SC_VC_Govt.sol\":10248:10333  require((block.timestamp - x.timestamp_acceptance_reg_appl_hash) <= timeLimit, \"RR8\") */\n    tag_227:\n        /* \"Updated Smart Contracts/SC_VC_Govt.sol\":74:17119  contract SC_VC_Govt... */\n      dup1\n      dup9\n      mstore\n        /* \"Updated Smart Contracts/SC_VC_Govt.sol\":10257:10272  block.timestamp */\n      timestamp\n        /* \"Updated Smart Contracts/SC_VC_Govt.sol\":74:17119  contract SC_VC_Govt... */\n      dup10\n      mstore\n        /* \"Updated Smart Contracts/SC_VC_Govt.sol\":10454:10471  _decision == true */\n      eq\n        /* \"Updated Smart Contracts/SC_VC_Govt.sol\":10451:10780  if(_decision == true)... */\n      tag_229\n      jumpi\n        /* \"Updated Smart Contracts/SC_VC_Govt.sol\":74:17119  contract SC_VC_Govt... */\n    tag_230:\n      swap3\n      tag_231\n      swap5\n      swap3\n        /* \"Updated Smart Contracts/SC_VC_Govt.sol\":9898:9928  vcRegistrationApplUnderProcess */\n      0x03\n        /* \"Updated Smart Contracts/SC_VC_Govt.sol\":74:17119  contract SC_VC_Govt... */\n      swap13\n      tag_199\n      swap4\n      0x07\n      swap11\n      swap10\n      swap9\n      swap7\n      dup15\n      dup15\n      0x00\n      mstore\n      dup4\n      dup2\n      mstore\n      keccak256(0x00, 0x40)\n      swap2\n      0x00\n      mstore\n      mstore\n      keccak256(0x00, 0x40)\n      swap12\n      mload\n      dup13\n      sstore\n      mload\n      swap1\n      dup12\n      add\n      sstore\n      mload\n        /* \"Updated Smart Contracts/SC_VC_Govt.sol\":9985:10015  latestVCRegistrationApplNumber */\n      0x02\n        /* \"Updated Smart Contracts/SC_VC_Govt.sol\":74:17119  contract SC_VC_Govt... */\n      dup11\n      add\n      sstore\n      mload\n      iszero\n      iszero\n      dup12\n      dup10\n      add\n      swap1\n      0xff\n      dup1\n      not\n      dup4\n      sload\n      and\n      swap2\n      iszero\n      iszero\n      and\n      or\n      swap1\n      sstore\n      jump\n    tag_231:\n      mload\n      0x06\n      dup5\n      add\n      sstore\n      mload\n      swap2\n      add\n      sstore\n      0x00\n      mstore\n      mstore\n      keccak256(0x00, 0x40)\n      not(0xff)\n      dup2\n      sload\n      and\n      swap1\n      sstore\n      0x00\n      dup1\n      return\n        /* \"Updated Smart Contracts/SC_VC_Govt.sol\":10451:10780  if(_decision == true)... */\n    tag_229:\n        /* \"Updated Smart Contracts/SC_VC_Govt.sol\":74:17119  contract SC_VC_Govt... */\n      swap4\n      swap2\n      swap1\n      swap7\n      swap6\n      swap5\n      swap3\n        /* \"Updated Smart Contracts/SC_VC_Govt.sol\":10527:10545  vcIDGenerator += 1 */\n      0x13\n        /* \"Updated Smart Contracts/SC_VC_Govt.sol\":74:17119  contract SC_VC_Govt... */\n      sload\n      swap2\n      dup13\n      dup4\n      add\n      dup1\n      swap4\n      gt\n      tag_177\n      jumpi\n        /* \"Updated Smart Contracts/SC_VC_Govt.sol\":9898:9928  vcRegistrationApplUnderProcess */\n      0x03\n        /* \"Updated Smart Contracts/SC_VC_Govt.sol\":74:17119  contract SC_VC_Govt... */\n      swap13\n      0x07\n      swap10\n      tag_231\n      swap8\n      dup15\n      dup15\n      dup8\n      tag_199\n      swap9\n        /* \"Updated Smart Contracts/SC_VC_Govt.sol\":10527:10545  vcIDGenerator += 1 */\n      0x13\n        /* \"Updated Smart Contracts/SC_VC_Govt.sol\":74:17119  contract SC_VC_Govt... */\n      sstore\n      dup2\n      0x00\n      mstore\n        /* \"Updated Smart Contracts/SC_VC_Govt.sol\":9845:9857  vcAddrTovcID */\n      0x05\n        /* \"Updated Smart Contracts/SC_VC_Govt.sol\":74:17119  contract SC_VC_Govt... */\n      dup4\n      mstore\n      dup1\n      keccak256(0x00, 0x40)\n      sstore\n      0x00\n      mstore\n      0x06\n      dup3\n      mstore\n      keccak256(0x00, 0x40)\n      dup2\n      shl(0xa0, 0xffffffffffffffffffffffff)\n      dup3\n      sload\n      and\n      or\n      swap1\n      sstore\n        /* \"Updated Smart Contracts/SC_VC_Govt.sol\":10527:10545  vcIDGenerator += 1 */\n      0x13\n        /* \"Updated Smart Contracts/SC_VC_Govt.sol\":74:17119  contract SC_VC_Govt... */\n      sload\n        /* \"Updated Smart Contracts/SC_VC_Govt.sol\":9898:9928  vcRegistrationApplUnderProcess */\n      0x03\n        /* \"Updated Smart Contracts/SC_VC_Govt.sol\":74:17119  contract SC_VC_Govt... */\n      tag_235\n      tag_6\n      jump\t// in\n    tag_235:\n      swap2\n      dup1\n      dup4\n      mstore\n        /* \"Updated Smart Contracts/SC_VC_Govt.sol\":10695:10718  VC(vcIDGenerator,0,0,0) */\n      dup5\n      dup4\n      add\n        /* \"Updated Smart Contracts/SC_VC_Govt.sol\":74:17119  contract SC_VC_Govt... */\n      0x00\n      dup2\n      mstore\n      0x40\n        /* \"Updated Smart Contracts/SC_VC_Govt.sol\":10695:10718  VC(vcIDGenerator,0,0,0) */\n      dup5\n      add\n        /* \"Updated Smart Contracts/SC_VC_Govt.sol\":74:17119  contract SC_VC_Govt... */\n      swap1\n      0x00\n      dup3\n      mstore\n      0x60\n        /* \"Updated Smart Contracts/SC_VC_Govt.sol\":10695:10718  VC(vcIDGenerator,0,0,0) */\n      dup6\n      add\n        /* \"Updated Smart Contracts/SC_VC_Govt.sol\":74:17119  contract SC_VC_Govt... */\n      swap3\n      0x00\n      dup5\n      mstore\n      0x00\n      mstore\n      0x07\n      dup8\n      mstore\n      keccak256(0x00, 0x40)\n      swap5\n      mload\n      dup6\n      sstore\n      mload\n      dup10\n      dup6\n      add\n      sstore\n      mload\n        /* \"Updated Smart Contracts/SC_VC_Govt.sol\":9985:10015  latestVCRegistrationApplNumber */\n      0x02\n        /* \"Updated Smart Contracts/SC_VC_Govt.sol\":74:17119  contract SC_VC_Govt... */\n      dup5\n      add\n      sstore\n      mload\n      swap2\n      add\n      sstore\n        /* \"Updated Smart Contracts/SC_VC_Govt.sol\":10451:10780  if(_decision == true)... */\n      pop\n      pop\n      swap4\n      swap7\n      swap9\n      swap10\n      swap11\n      pop\n      swap4\n      pop\n      swap13\n      pop\n      swap3\n      swap5\n      pop\n      jump(tag_230)\n        /* \"Updated Smart Contracts/SC_VC_Govt.sol\":74:17119  contract SC_VC_Govt... */\n    tag_225:\n      mload(0x40)\n      shl(0xe5, 0x461bcd)\n      dup2\n      mstore\n      0x04\n      dup1\n      dup3\n      add\n      dup15\n      swap1\n      mstore\n      0x24\n      dup3\n      add\n      mstore\n      shl(0xe0, 0x52523133)\n      0x44\n      dup3\n      add\n      mstore\n      0x64\n      swap1\n      revert\n    tag_223:\n      mload(0x40)\n      shl(0xe5, 0x461bcd)\n      dup2\n      mstore\n      0x04\n      dup1\n      dup3\n      add\n      dup15\n      swap1\n      mstore\n      0x24\n      dup3\n      add\n      mstore\n      shl(0xe1, 0x29291899)\n      0x44\n      dup3\n      add\n      mstore\n      0x64\n      swap1\n      revert\n    tag_218:\n      mload(0x40)\n      shl(0xe5, 0x461bcd)\n      dup2\n      mstore\n      0x04\n      dup1\n      dup3\n      add\n      dup6\n      swap1\n      mstore\n      0x24\n      dup3\n      add\n      mstore\n      shl(0xe0, 0x52523131)\n      0x44\n      dup3\n      add\n      mstore\n      0x64\n      swap1\n      revert\n    tag_72:\n      jumpi(tag_108, callvalue)\n      jumpi(tag_108, slt(add(not(0x03), calldatasize), 0x20))\n      sub(shl(0xa0, 0x01), 0x01)\n      tag_240\n      tag_1\n      jump\t// in\n    tag_240:\n      and\n      0x00\n      mstore\n        /* \"Updated Smart Contracts/SC_VC_Govt.sol\":1608:1671  mapping(address=>uint256) public latestVCRegistrationApplNumber */\n      0x02\n        /* \"Updated Smart Contracts/SC_VC_Govt.sol\":74:17119  contract SC_VC_Govt... */\n      0x20\n      mstore\n      0x20\n      sload(keccak256(0x00, 0x40))\n      mload(0x40)\n      swap1\n      dup2\n      mstore\n      return\n    tag_70:\n      jumpi(tag_108, callvalue)\n      jumpi(tag_108, slt(add(not(0x03), calldatasize), 0x00))\n      0x20\n        /* \"Updated Smart Contracts/SC_VC_Govt.sol\":3025:3057  uint256 public vcIDGenerator = 0 */\n      0x13\n        /* \"Updated Smart Contracts/SC_VC_Govt.sol\":74:17119  contract SC_VC_Govt... */\n      sload\n      mload(0x40)\n      swap1\n      dup2\n      mstore\n      return\n    tag_68:\n      jumpi(tag_108, callvalue)\n      jumpi(tag_108, slt(add(not(0x03), calldatasize), 0x20))\n      mstore(0x00, calldataload(0x04))\n        /* \"Updated Smart Contracts/SC_VC_Govt.sol\":2214:2268  mapping(uint256=>bool) public vcRefillApplUnderProcess */\n      0x0b\n        /* \"Updated Smart Contracts/SC_VC_Govt.sol\":74:17119  contract SC_VC_Govt... */\n      0x20\n      mstore\n      0x20\n      and(sload(keccak256(0x00, 0x40)), 0xff)\n      mload(0x40)\n      swap1\n      iszero\n      iszero\n      dup2\n      mstore\n      return\n    tag_66:\n      jumpi(tag_108, callvalue)\n      jumpi(tag_108, slt(add(not(0x03), calldatasize), 0x20))\n      calldataload(0x04)\n      0x00\n      swap1\n      dup2\n      mstore\n        /* \"Updated Smart Contracts/SC_VC_Govt.sol\":1918:1959  mapping(uint256=>VC) public getVCFromvcID */\n      0x07\n        /* \"Updated Smart Contracts/SC_VC_Govt.sol\":74:17119  contract SC_VC_Govt... */\n      0x20\n      swap1\n      dup2\n      mstore\n      0x40\n      swap2\n      dup3\n      swap1\n      keccak256\n      dup1\n      sload\n      0x01\n        /* \"Updated Smart Contracts/SC_VC_Govt.sol\":1918:1959  mapping(uint256=>VC) public getVCFromvcID */\n      dup3\n      add\n        /* \"Updated Smart Contracts/SC_VC_Govt.sol\":74:17119  contract SC_VC_Govt... */\n      sload\n        /* \"Updated Smart Contracts/SC_VC_Govt.sol\":1918:1959  mapping(uint256=>VC) public getVCFromvcID */\n      0x02\n      dup4\n      add\n        /* \"Updated Smart Contracts/SC_VC_Govt.sol\":74:17119  contract SC_VC_Govt... */\n      sload\n        /* \"Updated Smart Contracts/SC_VC_Govt.sol\":1918:1959  mapping(uint256=>VC) public getVCFromvcID */\n      0x03\n      swap1\n      swap4\n      add\n        /* \"Updated Smart Contracts/SC_VC_Govt.sol\":74:17119  contract SC_VC_Govt... */\n      sload\n      dup6\n      mload\n      swap3\n      dup4\n      mstore\n      swap4\n      dup3\n      add\n      mstore\n      swap3\n      dup4\n      add\n      mstore\n      0x60\n      dup3\n      add\n      mstore\n      0x80\n      swap1\n      return\n    tag_64:\n      jumpi(tag_108, callvalue)\n      0x20\n      dup1\n      add(calldatasize, not(0x03))\n      slt\n      tag_108\n      jumpi\n      calldataload(0x04)\n      swap1\n      0x01\n      dup1\n      0xa0\n      shl\n      sub\n        /* \"Updated Smart Contracts/SC_VC_Govt.sol\":3222:3252  require(_party == govt, \"RR1\") */\n      tag_258\n        /* \"Updated Smart Contracts/SC_VC_Govt.sol\":74:17119  contract SC_VC_Govt... */\n      dup2\n      sload(0x00)\n      and\n        /* \"Updated Smart Contracts/SC_VC_Govt.sol\":15826:15836  msg.sender */\n      caller\n        /* \"Updated Smart Contracts/SC_VC_Govt.sol\":3230:3244  _party == govt */\n      eq\n        /* \"Updated Smart Contracts/SC_VC_Govt.sol\":3222:3252  require(_party == govt, \"RR1\") */\n      tag_13\n      jump\t// in\n    tag_258:\n        /* \"Updated Smart Contracts/SC_VC_Govt.sol\":15862:15869  _vcID>0 */\n      dup3\n      iszero\n      iszero\n        /* \"Updated Smart Contracts/SC_VC_Govt.sol\":15862:15893  _vcID>0 && _vcID<=vcIDGenerator */\n      dup1\n      tag_259\n      jumpi\n        /* \"Updated Smart Contracts/SC_VC_Govt.sol\":74:17119  contract SC_VC_Govt... */\n    tag_260:\n        /* \"Updated Smart Contracts/SC_VC_Govt.sol\":15854:15901  require(_vcID>0 && _vcID<=vcIDGenerator,\"RR17\") */\n      tag_261\n      swap1\n      tag_14\n      jump\t// in\n    tag_261:\n        /* \"Updated Smart Contracts/SC_VC_Govt.sol\":74:17119  contract SC_VC_Govt... */\n      dup3\n      0x00\n      mstore\n        /* \"Updated Smart Contracts/SC_VC_Govt.sol\":16102:16126  latestVCRefillApplNumber */\n      0x09\n        /* \"Updated Smart Contracts/SC_VC_Govt.sol\":74:17119  contract SC_VC_Govt... */\n      dup3\n      mstore\n      sload(keccak256(0x00, 0x40))\n        /* \"Updated Smart Contracts/SC_VC_Govt.sol\":16152:16173  lastRefillApplNo != 0 */\n      dup1\n      iszero\n        /* \"Updated Smart Contracts/SC_VC_Govt.sol\":74:17119  contract SC_VC_Govt... */\n      tag_262\n      jumpi\n      dup4\n      0x00\n      mstore\n        /* \"Updated Smart Contracts/SC_VC_Govt.sol\":16227:16244  refillVaccineAppl */\n      0x08\n        /* \"Updated Smart Contracts/SC_VC_Govt.sol\":74:17119  contract SC_VC_Govt... */\n      dup4\n      mstore\n      keccak256(0x00, 0x40)\n      swap1\n      0x00\n      mstore\n      dup3\n      mstore\n      keccak256(0x00, 0x40)\n      tag_264\n      tag_7\n      jump\t// in\n    tag_264:\n      swap1\n      dup1\n      sload\n      dup3\n      mstore\n      0x01\n      dup2\n      add\n      sload\n      swap2\n      dup5\n      dup2\n      add\n      swap3\n      dup4\n      mstore\n      0x02\n      dup3\n      add\n      sload\n      0x40\n      dup3\n      add\n      mstore\n      0xa0\n      0x05\n      0x03\n      dup5\n      add\n      sload\n      swap4\n      dup5\n      0x60\n      dup6\n      add\n      mstore\n      0xff\n      0x04\n      dup3\n      add\n      sload\n      and\n      iszero\n      iszero\n      0x80\n      dup6\n      add\n      mstore\n      add\n      sload\n      swap2\n      add\n      swap1\n      dup2\n      mstore\n        /* \"Updated Smart Contracts/SC_VC_Govt.sol\":16357:16392  x.timestamp_commit_vaccine_set != 0 */\n      dup2\n      iszero\n      iszero\n        /* \"Updated Smart Contracts/SC_VC_Govt.sol\":16357:16456  x.timestamp_commit_vaccine_set != 0 && (block.timestamp - x.timestamp_commit_vaccine_set)>timeLimit */\n      swap2\n      dup3\n      tag_265\n      jumpi\n        /* \"Updated Smart Contracts/SC_VC_Govt.sol\":74:17119  contract SC_VC_Govt... */\n    tag_266:\n        /* \"Updated Smart Contracts/SC_VC_Govt.sol\":16357:16499  x.timestamp_commit_vaccine_set != 0 && (block.timestamp - x.timestamp_commit_vaccine_set)>timeLimit && vcRefillApplUnderProcess[_vcID] == true */\n      pop\n      dup2\n      tag_267\n      jumpi\n        /* \"Updated Smart Contracts/SC_VC_Govt.sol\":74:17119  contract SC_VC_Govt... */\n    tag_268:\n        /* \"Updated Smart Contracts/SC_VC_Govt.sol\":16357:16538  x.timestamp_commit_vaccine_set != 0 && (block.timestamp - x.timestamp_commit_vaccine_set)>timeLimit && vcRefillApplUnderProcess[_vcID] == true && x.timestamp_accept_vaccine_set == 0 */\n      dup2\n      tag_269\n      jumpi\n        /* \"Updated Smart Contracts/SC_VC_Govt.sol\":74:17119  contract SC_VC_Govt... */\n    tag_270:\n        /* \"Updated Smart Contracts/SC_VC_Govt.sol\":16354:16803  if(x.timestamp_commit_vaccine_set != 0 && (block.timestamp - x.timestamp_commit_vaccine_set)>timeLimit && vcRefillApplUnderProcess[_vcID] == true && x.timestamp_accept_vaccine_set == 0)... */\n      pop\n      tag_271\n      jumpi\n        /* \"Updated Smart Contracts/SC_VC_Govt.sol\":74:17119  contract SC_VC_Govt... */\n    tag_272:\n      pop\n      dup3\n      0x00\n      mstore\n        /* \"Updated Smart Contracts/SC_VC_Govt.sol\":16821:16845  amountToBeRefundedToGovt */\n      0x0f\n        /* \"Updated Smart Contracts/SC_VC_Govt.sol\":74:17119  contract SC_VC_Govt... */\n      dup3\n      mstore\n      sload(keccak256(0x00, 0x40))\n        /* \"Updated Smart Contracts/SC_VC_Govt.sol\":16821:16857  amountToBeRefundedToGovt[_vcID] != 0 */\n      iszero\n        /* \"Updated Smart Contracts/SC_VC_Govt.sol\":74:17119  contract SC_VC_Govt... */\n      tag_273\n      jumpi\n      0x00\n      dup1\n      dup1\n      dup1\n      swap4\n      dup2\n      sload\n      and\n      dup7\n      dup3\n      mstore\n        /* \"Updated Smart Contracts/SC_VC_Govt.sol\":16821:16845  amountToBeRefundedToGovt */\n      0x0f\n        /* \"Updated Smart Contracts/SC_VC_Govt.sol\":74:17119  contract SC_VC_Govt... */\n      dup7\n      mstore\n      0x40\n      dup3\n      keccak256\n      sload\n        /* \"Updated Smart Contracts/SC_VC_Govt.sol\":16876:16931  payable(govt).transfer(amountToBeRefundedToGovt[_vcID]) */\n      swap1\n      dup3\n      dup3\n      iszero\n      tag_275\n      jumpi\n        /* \"Updated Smart Contracts/SC_VC_Govt.sol\":74:17119  contract SC_VC_Govt... */\n    tag_276:\n        /* \"Updated Smart Contracts/SC_VC_Govt.sol\":16876:16931  payable(govt).transfer(amountToBeRefundedToGovt[_vcID]) */\n      call\n      iszero\n      tag_277\n      jumpi\n        /* \"Updated Smart Contracts/SC_VC_Govt.sol\":74:17119  contract SC_VC_Govt... */\n      0x00\n      swap2\n      dup3\n      mstore\n        /* \"Updated Smart Contracts/SC_VC_Govt.sol\":16821:16845  amountToBeRefundedToGovt */\n      0x0f\n        /* \"Updated Smart Contracts/SC_VC_Govt.sol\":74:17119  contract SC_VC_Govt... */\n      swap1\n      mstore\n      0x40\n      dup2\n      keccak256\n      sstore\n      stop\n        /* \"Updated Smart Contracts/SC_VC_Govt.sol\":16876:16931  payable(govt).transfer(amountToBeRefundedToGovt[_vcID]) */\n    tag_277:\n        /* \"Updated Smart Contracts/SC_VC_Govt.sol\":74:17119  contract SC_VC_Govt... */\n      mload(0x40)\n      returndatasize\n      0x00\n      dup3\n      returndatacopy\n      returndatasize\n      swap1\n      revert\n        /* \"Updated Smart Contracts/SC_VC_Govt.sol\":16876:16931  payable(govt).transfer(amountToBeRefundedToGovt[_vcID]) */\n    tag_275:\n      pop\n      0x08fc\n      jump(tag_276)\n        /* \"Updated Smart Contracts/SC_VC_Govt.sol\":74:17119  contract SC_VC_Govt... */\n    tag_273:\n      mload(0x40)\n      shl(0xe5, 0x461bcd)\n      dup2\n      mstore\n      0x04\n      dup1\n      dup3\n      add\n      dup5\n      swap1\n      mstore\n      0x24\n      dup3\n      add\n      mstore\n      shl(0xe0, 0x52523235)\n      0x44\n      dup3\n      add\n      mstore\n      0x64\n      swap1\n      revert\n        /* \"Updated Smart Contracts/SC_VC_Govt.sol\":16354:16803  if(x.timestamp_commit_vaccine_set != 0 && (block.timestamp - x.timestamp_commit_vaccine_set)>timeLimit && vcRefillApplUnderProcess[_vcID] == true && x.timestamp_accept_vaccine_set == 0)... */\n    tag_271:\n        /* \"Updated Smart Contracts/SC_VC_Govt.sol\":74:17119  contract SC_VC_Govt... */\n      dup1\n      mload\n        /* \"Updated Smart Contracts/SC_VC_Govt.sol\":2919:2927  1000 wei */\n      swap1\n      0x03e8\n        /* \"Updated Smart Contracts/SC_VC_Govt.sol\":74:17119  contract SC_VC_Govt... */\n      swap2\n      dup3\n      dup2\n      mul\n      swap1\n      dup1\n      dup3\n      div\n      dup5\n      eq\n      swap1\n      iszero\n      or\n      iszero\n      tag_177\n      jumpi\n      dup6\n      0x00\n      mstore\n        /* \"Updated Smart Contracts/SC_VC_Govt.sol\":16564:16588  amountToBeRefundedToGovt */\n      0x0f\n        /* \"Updated Smart Contracts/SC_VC_Govt.sol\":74:17119  contract SC_VC_Govt... */\n      dup6\n      mstore\n        /* \"Updated Smart Contracts/SC_VC_Govt.sol\":16564:16643  amountToBeRefundedToGovt[_vcID] += x.cardinality_of_set*perVaccineServiceCharge */\n      tag_281\n        /* \"Updated Smart Contracts/SC_VC_Govt.sol\":74:17119  contract SC_VC_Govt... */\n      keccak256(0x00, 0x40)\n      swap2\n      dup3\n      sload\n        /* \"Updated Smart Contracts/SC_VC_Govt.sol\":16564:16643  amountToBeRefundedToGovt[_vcID] += x.cardinality_of_set*perVaccineServiceCharge */\n      tag_12\n      jump\t// in\n    tag_281:\n        /* \"Updated Smart Contracts/SC_VC_Govt.sol\":74:17119  contract SC_VC_Govt... */\n      swap1\n      sstore\n      mload\n      dup2\n      dup2\n      mul\n      swap2\n      dup2\n      dup4\n      div\n      eq\n      swap1\n      iszero\n      or\n      iszero\n      tag_177\n      jumpi\n      dup4\n      0x00\n      mstore\n        /* \"Updated Smart Contracts/SC_VC_Govt.sol\":16658:16682  lockedServiceChargeForVC */\n      0x0e\n        /* \"Updated Smart Contracts/SC_VC_Govt.sol\":74:17119  contract SC_VC_Govt... */\n      dup4\n      mstore\n        /* \"Updated Smart Contracts/SC_VC_Govt.sol\":16658:16737  lockedServiceChargeForVC[_vcID] -= x.cardinality_of_set*perVaccineServiceCharge */\n      tag_284\n        /* \"Updated Smart Contracts/SC_VC_Govt.sol\":74:17119  contract SC_VC_Govt... */\n      keccak256(0x00, 0x40)\n      swap2\n      dup3\n      sload\n        /* \"Updated Smart Contracts/SC_VC_Govt.sol\":16658:16737  lockedServiceChargeForVC[_vcID] -= x.cardinality_of_set*perVaccineServiceCharge */\n      tag_10\n      jump\t// in\n    tag_284:\n        /* \"Updated Smart Contracts/SC_VC_Govt.sol\":74:17119  contract SC_VC_Govt... */\n      swap1\n      sstore\n      dup3\n      0x00\n      mstore\n        /* \"Updated Smart Contracts/SC_VC_Govt.sol\":16752:16776  vcRefillApplUnderProcess */\n      0x0b\n        /* \"Updated Smart Contracts/SC_VC_Govt.sol\":74:17119  contract SC_VC_Govt... */\n      dup3\n      mstore\n      keccak256(0x00, 0x40)\n      not(0xff)\n      dup2\n      sload\n      and\n      swap1\n      sstore\n        /* \"Updated Smart Contracts/SC_VC_Govt.sol\":16354:16803  if(x.timestamp_commit_vaccine_set != 0 && (block.timestamp - x.timestamp_commit_vaccine_set)>timeLimit && vcRefillApplUnderProcess[_vcID] == true && x.timestamp_accept_vaccine_set == 0)... */\n      dup4\n      jump(tag_272)\n        /* \"Updated Smart Contracts/SC_VC_Govt.sol\":16357:16538  x.timestamp_commit_vaccine_set != 0 && (block.timestamp - x.timestamp_commit_vaccine_set)>timeLimit && vcRefillApplUnderProcess[_vcID] == true && x.timestamp_accept_vaccine_set == 0 */\n    tag_269:\n        /* \"Updated Smart Contracts/SC_VC_Govt.sol\":74:17119  contract SC_VC_Govt... */\n      swap1\n      pop\n      mload\n        /* \"Updated Smart Contracts/SC_VC_Govt.sol\":16503:16538  x.timestamp_accept_vaccine_set == 0 */\n      iszero\n        /* \"Updated Smart Contracts/SC_VC_Govt.sol\":16357:16538  x.timestamp_commit_vaccine_set != 0 && (block.timestamp - x.timestamp_commit_vaccine_set)>timeLimit && vcRefillApplUnderProcess[_vcID] == true && x.timestamp_accept_vaccine_set == 0 */\n      dup6\n      jump(tag_270)\n        /* \"Updated Smart Contracts/SC_VC_Govt.sol\":16357:16499  x.timestamp_commit_vaccine_set != 0 && (block.timestamp - x.timestamp_commit_vaccine_set)>timeLimit && vcRefillApplUnderProcess[_vcID] == true */\n    tag_267:\n        /* \"Updated Smart Contracts/SC_VC_Govt.sol\":74:17119  contract SC_VC_Govt... */\n      swap1\n      pop\n      dup5\n      0x00\n      mstore\n        /* \"Updated Smart Contracts/SC_VC_Govt.sol\":16460:16484  vcRefillApplUnderProcess */\n      0x0b\n        /* \"Updated Smart Contracts/SC_VC_Govt.sol\":74:17119  contract SC_VC_Govt... */\n      dup5\n      mstore\n      0x01\n      iszero(iszero(and(sload(keccak256(0x00, 0x40)), 0xff)))\n        /* \"Updated Smart Contracts/SC_VC_Govt.sol\":16460:16499  vcRefillApplUnderProcess[_vcID] == true */\n      eq\n        /* \"Updated Smart Contracts/SC_VC_Govt.sol\":16357:16499  x.timestamp_commit_vaccine_set != 0 && (block.timestamp - x.timestamp_commit_vaccine_set)>timeLimit && vcRefillApplUnderProcess[_vcID] == true */\n      swap1\n      jump(tag_268)\n        /* \"Updated Smart Contracts/SC_VC_Govt.sol\":16357:16456  x.timestamp_commit_vaccine_set != 0 && (block.timestamp - x.timestamp_commit_vaccine_set)>timeLimit */\n    tag_265:\n        /* \"Updated Smart Contracts/SC_VC_Govt.sol\":2851:2862  300 seconds */\n      0x012c\n        /* \"Updated Smart Contracts/SC_VC_Govt.sol\":16397:16412  block.timestamp */\n      swap2\n      swap3\n      pop\n        /* \"Updated Smart Contracts/SC_VC_Govt.sol\":16397:16445  block.timestamp - x.timestamp_commit_vaccine_set */\n      tag_285\n        /* \"Updated Smart Contracts/SC_VC_Govt.sol\":16397:16412  block.timestamp */\n      swap1\n      timestamp\n        /* \"Updated Smart Contracts/SC_VC_Govt.sol\":16397:16445  block.timestamp - x.timestamp_commit_vaccine_set */\n      tag_10\n      jump\t// in\n    tag_285:\n        /* \"Updated Smart Contracts/SC_VC_Govt.sol\":16396:16456  (block.timestamp - x.timestamp_commit_vaccine_set)>timeLimit */\n      gt\n        /* \"Updated Smart Contracts/SC_VC_Govt.sol\":16357:16456  x.timestamp_commit_vaccine_set != 0 && (block.timestamp - x.timestamp_commit_vaccine_set)>timeLimit */\n      swap1\n      dup7\n      jump(tag_266)\n        /* \"Updated Smart Contracts/SC_VC_Govt.sol\":74:17119  contract SC_VC_Govt... */\n    tag_262:\n      mload(0x40)\n      shl(0xe5, 0x461bcd)\n      dup2\n      mstore\n      0x04\n      dup1\n      dup3\n      add\n      dup6\n      swap1\n      mstore\n      0x24\n      dup3\n      add\n      mstore\n      shl(0xe2, 0x14948c8d)\n      0x44\n      dup3\n      add\n      mstore\n      0x64\n      swap1\n      revert\n        /* \"Updated Smart Contracts/SC_VC_Govt.sol\":15862:15893  _vcID>0 && _vcID<=vcIDGenerator */\n    tag_259:\n      pop\n        /* \"Updated Smart Contracts/SC_VC_Govt.sol\":15880:15893  vcIDGenerator */\n      0x13\n        /* \"Updated Smart Contracts/SC_VC_Govt.sol\":74:17119  contract SC_VC_Govt... */\n      sload\n        /* \"Updated Smart Contracts/SC_VC_Govt.sol\":15873:15893  _vcID<=vcIDGenerator */\n      dup4\n      gt\n      iszero\n        /* \"Updated Smart Contracts/SC_VC_Govt.sol\":15862:15893  _vcID>0 && _vcID<=vcIDGenerator */\n      jump(tag_260)\n        /* \"Updated Smart Contracts/SC_VC_Govt.sol\":74:17119  contract SC_VC_Govt... */\n    tag_62:\n      jumpi(tag_108, callvalue)\n      jumpi(tag_108, slt(add(not(0x03), calldatasize), 0x20))\n      mstore(0x00, calldataload(0x04))\n        /* \"Updated Smart Contracts/SC_VC_Govt.sol\":2058:2115  mapping(uint256=>uint256) public latestVCRefillApplNumber */\n      0x09\n        /* \"Updated Smart Contracts/SC_VC_Govt.sol\":74:17119  contract SC_VC_Govt... */\n      0x20\n      mstore\n      0x20\n      sload(keccak256(0x00, 0x40))\n      mload(0x40)\n      swap1\n      dup2\n      mstore\n      return\n    tag_60:\n      jumpi(tag_108, callvalue)\n      jumpi(tag_108, slt(add(not(0x03), calldatasize), 0x20))\n      sub(shl(0xa0, 0x01), 0x01)\n      tag_294\n      tag_1\n      jump\t// in\n    tag_294:\n      and\n      0x00\n      mstore\n        /* \"Updated Smart Contracts/SC_VC_Govt.sol\":1678:1738  mapping(address=>bool) public vcRegistrationApplUnderProcess */\n      0x03\n        /* \"Updated Smart Contracts/SC_VC_Govt.sol\":74:17119  contract SC_VC_Govt... */\n      0x20\n      mstore\n      0x20\n      and(sload(keccak256(0x00, 0x40)), 0xff)\n      mload(0x40)\n      swap1\n      iszero\n      iszero\n      dup2\n      mstore\n      return\n    tag_58:\n      jumpi(tag_108, callvalue)\n      jumpi(tag_108, slt(add(not(0x03), calldatasize), 0x40))\n      mstore(0x00, calldataload(0x04))\n        /* \"Updated Smart Contracts/SC_VC_Govt.sol\":1968:2051  mapping(uint256=>mapping(uint256=>RefillVaccineStockAppl)) public refillVaccineAppl */\n      0x08\n        /* \"Updated Smart Contracts/SC_VC_Govt.sol\":74:17119  contract SC_VC_Govt... */\n      0x20\n      mstore\n      keccak256(0x00, 0x40)\n      mstore(0x00, calldataload(0x24))\n      0x20\n      mstore\n      0xc0\n      keccak256(0x00, 0x40)\n      dup1\n      sload\n        /* \"Updated Smart Contracts/SC_VC_Govt.sol\":1968:2051  mapping(uint256=>mapping(uint256=>RefillVaccineStockAppl)) public refillVaccineAppl */\n      swap1\n        /* \"Updated Smart Contracts/SC_VC_Govt.sol\":74:17119  contract SC_VC_Govt... */\n      0x01\n        /* \"Updated Smart Contracts/SC_VC_Govt.sol\":1968:2051  mapping(uint256=>mapping(uint256=>RefillVaccineStockAppl)) public refillVaccineAppl */\n      dup2\n      add\n        /* \"Updated Smart Contracts/SC_VC_Govt.sol\":74:17119  contract SC_VC_Govt... */\n      sload\n        /* \"Updated Smart Contracts/SC_VC_Govt.sol\":1968:2051  mapping(uint256=>mapping(uint256=>RefillVaccineStockAppl)) public refillVaccineAppl */\n      swap1\n      0x02\n      dup2\n      add\n        /* \"Updated Smart Contracts/SC_VC_Govt.sol\":74:17119  contract SC_VC_Govt... */\n      sload\n        /* \"Updated Smart Contracts/SC_VC_Govt.sol\":1968:2051  mapping(uint256=>mapping(uint256=>RefillVaccineStockAppl)) public refillVaccineAppl */\n      0x03\n      dup3\n      add\n        /* \"Updated Smart Contracts/SC_VC_Govt.sol\":74:17119  contract SC_VC_Govt... */\n      sload\n        /* \"Updated Smart Contracts/SC_VC_Govt.sol\":1968:2051  mapping(uint256=>mapping(uint256=>RefillVaccineStockAppl)) public refillVaccineAppl */\n      swap1\n      0x05\n        /* \"Updated Smart Contracts/SC_VC_Govt.sol\":74:17119  contract SC_VC_Govt... */\n      0xff\n      0x04\n        /* \"Updated Smart Contracts/SC_VC_Govt.sol\":1968:2051  mapping(uint256=>mapping(uint256=>RefillVaccineStockAppl)) public refillVaccineAppl */\n      dup6\n      add\n        /* \"Updated Smart Contracts/SC_VC_Govt.sol\":74:17119  contract SC_VC_Govt... */\n      sload\n      and\n        /* \"Updated Smart Contracts/SC_VC_Govt.sol\":1968:2051  mapping(uint256=>mapping(uint256=>RefillVaccineStockAppl)) public refillVaccineAppl */\n      swap4\n      add\n        /* \"Updated Smart Contracts/SC_VC_Govt.sol\":74:17119  contract SC_VC_Govt... */\n      sload\n      swap4\n      mload(0x40)\n      swap6\n      dup7\n      mstore\n      0x20\n      dup7\n      add\n      mstore\n      0x40\n      dup6\n      add\n      mstore\n      0x60\n      dup5\n      add\n      mstore\n      iszero\n      iszero\n      0x80\n      dup4\n      add\n      mstore\n      0xa0\n      dup3\n      add\n      mstore\n      return\n    tag_56:\n      jumpi(tag_108, callvalue)\n      jumpi(tag_108, slt(add(not(0x03), calldatasize), 0x20))\n      sub(shl(0xa0, 0x01), 0x01)\n      tag_303\n      tag_1\n      jump\t// in\n    tag_303:\n      and\n      0x00\n      mstore\n        /* \"Updated Smart Contracts/SC_VC_Govt.sol\":3621:3633  vcAddrTovcID */\n      0x05\n        /* \"Updated Smart Contracts/SC_VC_Govt.sol\":74:17119  contract SC_VC_Govt... */\n      0x20\n      mstore\n      0x20\n      sload(keccak256(0x00, 0x40))\n      mload(0x40)\n      swap1\n      dup2\n      mstore\n      return\n    tag_54:\n      jumpi(tag_108, callvalue)\n      jumpi(tag_108, slt(add(not(0x03), calldatasize), 0x00))\n      0x20\n        /* \"Updated Smart Contracts/SC_VC_Govt.sol\":2978:3018  uint256 public refillApplIDGenerator = 0 */\n      0x12\n        /* \"Updated Smart Contracts/SC_VC_Govt.sol\":74:17119  contract SC_VC_Govt... */\n      sload\n      mload(0x40)\n      swap1\n      dup2\n      mstore\n      return\n    tag_52:\n      jumpi(tag_108, callvalue)\n      jumpi(tag_108, slt(add(not(0x03), calldatasize), 0x00))\n        /* \"Updated Smart Contracts/SC_VC_Govt.sol\":3335:3365  require(_party != govt, \"RR2\") */\n      tag_312\n        /* \"Updated Smart Contracts/SC_VC_Govt.sol\":74:17119  contract SC_VC_Govt... */\n      0x01\n      dup1\n      0xa0\n      shl\n      sub\n      sload(0x00)\n      and\n        /* \"Updated Smart Contracts/SC_VC_Govt.sol\":5600:5610  msg.sender */\n      caller\n        /* \"Updated Smart Contracts/SC_VC_Govt.sol\":3343:3357  _party != govt */\n      eq\n      iszero\n        /* \"Updated Smart Contracts/SC_VC_Govt.sol\":3335:3365  require(_party != govt, \"RR2\") */\n      tag_4\n      jump\t// in\n    tag_312:\n        /* \"Updated Smart Contracts/SC_VC_Govt.sol\":5600:5610  msg.sender */\n      caller\n        /* \"Updated Smart Contracts/SC_VC_Govt.sol\":74:17119  contract SC_VC_Govt... */\n      0x00\n      mstore\n      0x20\n      swap1\n        /* \"Updated Smart Contracts/SC_VC_Govt.sol\":5662:5692  latestVCRegistrationApplNumber */\n      0x02\n        /* \"Updated Smart Contracts/SC_VC_Govt.sol\":74:17119  contract SC_VC_Govt... */\n      dup3\n      mstore\n      sload(keccak256(0x00, 0x40))\n        /* \"Updated Smart Contracts/SC_VC_Govt.sol\":5745:5763  vcRegistrationAppl */\n      swap2\n      0x01\n        /* \"Updated Smart Contracts/SC_VC_Govt.sol\":74:17119  contract SC_VC_Govt... */\n      dup1\n      dup3\n      mstore\n      keccak256(0x00, 0x40)\n      dup5\n      0x00\n      mstore\n      dup3\n      mstore\n      keccak256(0x00, 0x40)\n      tag_313\n      tag_8\n      jump\t// in\n    tag_313:\n      dup2\n      sload\n      dup2\n      mstore\n      dup3\n      dup3\n      add\n      sload\n      dup5\n      dup3\n      add\n      mstore\n        /* \"Updated Smart Contracts/SC_VC_Govt.sol\":5662:5692  latestVCRegistrationApplNumber */\n      0x02\n        /* \"Updated Smart Contracts/SC_VC_Govt.sol\":74:17119  contract SC_VC_Govt... */\n      dup3\n      add\n      sload\n      0x40\n      dup3\n      add\n      swap1\n      dup2\n      mstore\n      0xff\n      swap2\n      0x03\n      swap4\n      dup4\n      dup6\n      dup3\n      add\n      sload\n      and\n      iszero\n      iszero\n      0x60\n      dup4\n      add\n      mstore\n      0x04\n      dup2\n      add\n      sload\n      swap2\n      0x80\n      dup2\n      add\n      swap3\n      dup4\n      mstore\n      dup5\n      0x05\n      dup4\n      add\n      sload\n      and\n      iszero\n      iszero\n      0xa0\n      dup3\n      add\n      mstore\n      0x07\n      0x06\n      dup4\n      add\n      sload\n      swap3\n      0xc0\n      dup4\n      add\n      swap4\n      dup5\n      mstore\n      add\n      sload\n      dup10\n      dup3\n      add\n      mstore\n        /* \"Updated Smart Contracts/SC_VC_Govt.sol\":5600:5610  msg.sender */\n      caller\n        /* \"Updated Smart Contracts/SC_VC_Govt.sol\":74:17119  contract SC_VC_Govt... */\n      0x00\n      mstore\n      0x05\n      dup9\n      mstore\n        /* \"Updated Smart Contracts/SC_VC_Govt.sol\":5798:5843  require(vcAddrTovcID[msg.sender] == 0, \"RR3\") */\n      tag_314\n        /* \"Updated Smart Contracts/SC_VC_Govt.sol\":74:17119  contract SC_VC_Govt... */\n      sload(keccak256(0x00, 0x40))\n        /* \"Updated Smart Contracts/SC_VC_Govt.sol\":5806:5835  vcAddrTovcID[msg.sender] == 0 */\n      iszero\n        /* \"Updated Smart Contracts/SC_VC_Govt.sol\":5798:5843  require(vcAddrTovcID[msg.sender] == 0, \"RR3\") */\n      tag_17\n      jump\t// in\n    tag_314:\n        /* \"Updated Smart Contracts/SC_VC_Govt.sol\":5600:5610  msg.sender */\n      caller\n        /* \"Updated Smart Contracts/SC_VC_Govt.sol\":74:17119  contract SC_VC_Govt... */\n      0x00\n      mstore\n      dup6\n      dup9\n      mstore\n      dup7\n      dup6\n      sload(keccak256(0x00, 0x40))\n      and\n      iszero\n      iszero\n        /* \"Updated Smart Contracts/SC_VC_Govt.sol\":5857:5907  vcRegistrationApplUnderProcess[msg.sender] == true */\n      eq\n        /* \"Updated Smart Contracts/SC_VC_Govt.sol\":5854:7169  if(vcRegistrationApplUnderProcess[msg.sender] == true)... */\n      tag_315\n      jumpi\n        /* \"Updated Smart Contracts/SC_VC_Govt.sol\":74:17119  contract SC_VC_Govt... */\n    tag_316:\n        /* \"Updated Smart Contracts/SC_VC_Govt.sol\":5600:5610  msg.sender */\n      pop\n      pop\n      pop\n      pop\n      caller\n        /* \"Updated Smart Contracts/SC_VC_Govt.sol\":74:17119  contract SC_VC_Govt... */\n      0x00\n      mstore\n      dup2\n      dup5\n      mstore\n      dup1\n      sload(keccak256(0x00, 0x40))\n      and\n      tag_317\n      jumpi\n      dup3\n      dup7\n      add\n      dup1\n      swap7\n      gt\n      tag_177\n      jumpi\n      0x07\n        /* \"Updated Smart Contracts/SC_VC_Govt.sol\":5600:5610  msg.sender */\n      dup5\n      dup5\n        /* \"Updated Smart Contracts/SC_VC_Govt.sol\":74:17119  contract SC_VC_Govt... */\n      tag_321\n        /* \"Updated Smart Contracts/SC_VC_Govt.sol\":5662:5692  latestVCRegistrationApplNumber */\n      0x02\n        /* \"Updated Smart Contracts/SC_VC_Govt.sol\":5600:5610  msg.sender */\n      swap9\n      dup5\n        /* \"Updated Smart Contracts/SC_VC_Govt.sol\":74:17119  contract SC_VC_Govt... */\n      tag_199\n        /* \"Updated Smart Contracts/SC_VC_Govt.sol\":5600:5610  msg.sender */\n      dup13\n      swap8\n      caller\n        /* \"Updated Smart Contracts/SC_VC_Govt.sol\":74:17119  contract SC_VC_Govt... */\n      0x00\n      mstore\n      dup6\n      dup8\n      mstore\n      keccak256(0x00, 0x40)\n      dup10\n      0x00\n      mstore\n      dup8\n      mstore\n      keccak256(0x00, 0x40)\n      dup11\n      tag_323\n      tag_8\n      jump\t// in\n    tag_323:\n      swap11\n      dup12\n      swap10\n      dup10\n      dup12\n      swap11\n      swap9\n      dup12\n      swap10\n      swap9\n      dup7\n      0xa0\n      dup10\n      dup14\n      swap13\n      dup14\n      swap11\n      add\n      sload\n      swap9\n      dup8\n      dup12\n      add\n      swap10\n      dup11\n      mstore\n        /* \"Updated Smart Contracts/SC_VC_Govt.sol\":5662:5692  latestVCRegistrationApplNumber */\n      0x02\n        /* \"Updated Smart Contracts/SC_VC_Govt.sol\":74:17119  contract SC_VC_Govt... */\n      0x40\n      swap1\n      dup6\n      add\n      sload\n      swap12\n      add\n      swap11\n      dup12\n      mstore\n      dup4\n      add\n      sload\n      and\n      swap10\n      0x60\n      dup14\n      add\n      swap11\n      iszero\n      iszero\n      dup12\n      mstore\n      0x80\n      0x04\n      dup5\n      add\n      sload\n      swap14\n      add\n      swap13\n      dup14\n      mstore\n      0x05\n      dup4\n      add\n      sload\n      and\n      swap13\n      add\n      swap12\n      iszero\n      iszero\n      dup13\n      mstore\n      0xc0\n      0x06\n      dup3\n      add\n      sload\n      swap15\n      add\n      swap14\n      dup15\n      mstore\n      add\n      sload\n      swap13\n      add\n      swap12\n      dup13\n      mstore\n        /* \"Updated Smart Contracts/SC_VC_Govt.sol\":7429:7444  block.timestamp */\n      dup14\n      timestamp\n        /* \"Updated Smart Contracts/SC_VC_Govt.sol\":74:17119  contract SC_VC_Govt... */\n      swap1\n      mstore\n        /* \"Updated Smart Contracts/SC_VC_Govt.sol\":5600:5610  msg.sender */\n      caller\n        /* \"Updated Smart Contracts/SC_VC_Govt.sol\":74:17119  contract SC_VC_Govt... */\n      0x00\n      mstore\n      dup2\n      mstore\n      keccak256(0x00, 0x40)\n      swap2\n      0x00\n      mstore\n      mstore\n      keccak256(0x00, 0x40)\n      swap11\n      mload\n      dup12\n      sstore\n      mload\n      dup13\n      dup12\n      add\n      sstore\n      mload\n      dup14\n      dup11\n      add\n      sstore\n      mload\n      iszero\n      iszero\n      dup10\n      dup10\n      add\n      swap1\n      0xff\n      dup1\n      not\n      dup4\n      sload\n      and\n      swap2\n      iszero\n      iszero\n      and\n      or\n      swap1\n      sstore\n      jump\n    tag_321:\n      mload\n      0x06\n      dup5\n      add\n      sstore\n      mload\n      swap2\n      add\n      sstore\n        /* \"Updated Smart Contracts/SC_VC_Govt.sol\":5600:5610  msg.sender */\n      caller\n        /* \"Updated Smart Contracts/SC_VC_Govt.sol\":74:17119  contract SC_VC_Govt... */\n      0x00\n      mstore\n      dup3\n      mstore\n      keccak256(0x00, 0x40)\n      swap1\n      not(0xff)\n      dup3\n      sload\n      and\n      or\n      swap1\n      sstore\n      mstore\n      keccak256(0x00, 0x40)\n      sstore\n      0x00\n      dup1\n      return\n    tag_317:\n      0x64\n      dup5\n      dup4\n      mload(0x40)\n      swap2\n      shl(0xe5, 0x461bcd)\n      dup4\n      mstore\n      0x04\n      dup4\n      add\n      mstore\n      0x24\n      dup3\n      add\n      mstore\n      shl(0xea, 0x14948d)\n      0x44\n      dup3\n      add\n      mstore\n      revert\n        /* \"Updated Smart Contracts/SC_VC_Govt.sol\":5854:7169  if(vcRegistrationApplUnderProcess[msg.sender] == true)... */\n    tag_315:\n        /* \"Updated Smart Contracts/SC_VC_Govt.sol\":74:17119  contract SC_VC_Govt... */\n      dup1\n      mload\n        /* \"Updated Smart Contracts/SC_VC_Govt.sol\":6039:6064  x.timestamp_reg_appl != 0 */\n      dup1\n      iszero\n      iszero\n        /* \"Updated Smart Contracts/SC_VC_Govt.sol\":6039:6098  x.timestamp_reg_appl != 0 && x.timestamp_hash_reg_appl == 0 */\n      swap1\n      dup2\n      tag_324\n      jumpi\n        /* \"Updated Smart Contracts/SC_VC_Govt.sol\":5854:7169  if(vcRegistrationApplUnderProcess[msg.sender] == true)... */\n    tag_325:\n        /* \"Updated Smart Contracts/SC_VC_Govt.sol\":6039:6154  x.timestamp_reg_appl != 0 && x.timestamp_hash_reg_appl == 0 && (block.timestamp - x.timestamp_reg_appl) > timeLimit */\n      dup2\n      tag_326\n      jumpi\n        /* \"Updated Smart Contracts/SC_VC_Govt.sol\":5854:7169  if(vcRegistrationApplUnderProcess[msg.sender] == true)... */\n    tag_327:\n        /* \"Updated Smart Contracts/SC_VC_Govt.sol\":6036:6254  if(x.timestamp_reg_appl != 0 && x.timestamp_hash_reg_appl == 0 && (block.timestamp - x.timestamp_reg_appl) > timeLimit)... */\n      pop\n      tag_328\n      jumpi\n        /* \"Updated Smart Contracts/SC_VC_Govt.sol\":5854:7169  if(vcRegistrationApplUnderProcess[msg.sender] == true)... */\n    tag_329:\n        /* \"Updated Smart Contracts/SC_VC_Govt.sol\":74:17119  contract SC_VC_Govt... */\n      dup1\n      mload\n        /* \"Updated Smart Contracts/SC_VC_Govt.sol\":6393:6418  x.timestamp_reg_appl != 0 */\n      iszero\n      iszero\n        /* \"Updated Smart Contracts/SC_VC_Govt.sol\":6393:6452  x.timestamp_reg_appl != 0 && x.timestamp_hash_reg_appl != 0 */\n      dup1\n      tag_330\n      jumpi\n        /* \"Updated Smart Contracts/SC_VC_Govt.sol\":5854:7169  if(vcRegistrationApplUnderProcess[msg.sender] == true)... */\n    tag_331:\n        /* \"Updated Smart Contracts/SC_VC_Govt.sol\":6393:6497  x.timestamp_reg_appl != 0 && x.timestamp_hash_reg_appl != 0 && x.timestamp_acceptance_reg_appl_hash == 0 */\n      dup1\n      tag_332\n      jumpi\n        /* \"Updated Smart Contracts/SC_VC_Govt.sol\":5854:7169  if(vcRegistrationApplUnderProcess[msg.sender] == true)... */\n    tag_333:\n        /* \"Updated Smart Contracts/SC_VC_Govt.sol\":6393:6558  x.timestamp_reg_appl != 0 && x.timestamp_hash_reg_appl != 0 && x.timestamp_acceptance_reg_appl_hash == 0 && (block.timestamp - x.timestamp_hash_reg_appl) > timeLimit */\n      dup1\n      tag_334\n      jumpi\n        /* \"Updated Smart Contracts/SC_VC_Govt.sol\":5854:7169  if(vcRegistrationApplUnderProcess[msg.sender] == true)... */\n    tag_335:\n        /* \"Updated Smart Contracts/SC_VC_Govt.sol\":6390:6658  if(x.timestamp_reg_appl != 0 && x.timestamp_hash_reg_appl != 0 && x.timestamp_acceptance_reg_appl_hash == 0 && (block.timestamp - x.timestamp_hash_reg_appl) > timeLimit)... */\n      tag_336\n      jumpi\n        /* \"Updated Smart Contracts/SC_VC_Govt.sol\":5854:7169  if(vcRegistrationApplUnderProcess[msg.sender] == true)... */\n    tag_337:\n        /* \"Updated Smart Contracts/SC_VC_Govt.sol\":74:17119  contract SC_VC_Govt... */\n      mload\n        /* \"Updated Smart Contracts/SC_VC_Govt.sol\":6842:6867  x.timestamp_reg_appl != 0 */\n      iszero\n      iszero\n        /* \"Updated Smart Contracts/SC_VC_Govt.sol\":6842:6901  x.timestamp_reg_appl != 0 && x.timestamp_hash_reg_appl != 0 */\n      swap3\n      dup4\n      tag_338\n      jumpi\n        /* \"Updated Smart Contracts/SC_VC_Govt.sol\":5854:7169  if(vcRegistrationApplUnderProcess[msg.sender] == true)... */\n    tag_339:\n        /* \"Updated Smart Contracts/SC_VC_Govt.sol\":6842:6946  x.timestamp_reg_appl != 0 && x.timestamp_hash_reg_appl != 0 && x.timestamp_acceptance_reg_appl_hash != 0 */\n      pop\n      dup3\n      tag_340\n      jumpi\n        /* \"Updated Smart Contracts/SC_VC_Govt.sol\":5854:7169  if(vcRegistrationApplUnderProcess[msg.sender] == true)... */\n    tag_341:\n        /* \"Updated Smart Contracts/SC_VC_Govt.sol\":6842:6986  x.timestamp_reg_appl != 0 && x.timestamp_hash_reg_appl != 0 && x.timestamp_acceptance_reg_appl_hash != 0 && x.timestamp_acceptance_reg_appl == 0 */\n      dup3\n      tag_342\n      jumpi\n        /* \"Updated Smart Contracts/SC_VC_Govt.sol\":5854:7169  if(vcRegistrationApplUnderProcess[msg.sender] == true)... */\n    tag_343:\n        /* \"Updated Smart Contracts/SC_VC_Govt.sol\":6842:7058  x.timestamp_reg_appl != 0 && x.timestamp_hash_reg_appl != 0 && x.timestamp_acceptance_reg_appl_hash != 0 && x.timestamp_acceptance_reg_appl == 0 && (block.timestamp - x.timestamp_acceptance_reg_appl_hash) > timeLimit */\n      pop\n      dup2\n      tag_344\n      jumpi\n        /* \"Updated Smart Contracts/SC_VC_Govt.sol\":5854:7169  if(vcRegistrationApplUnderProcess[msg.sender] == true)... */\n    tag_345:\n        /* \"Updated Smart Contracts/SC_VC_Govt.sol\":6839:7158  if(x.timestamp_reg_appl != 0 && x.timestamp_hash_reg_appl != 0 && x.timestamp_acceptance_reg_appl_hash != 0 && x.timestamp_acceptance_reg_appl == 0 && (block.timestamp - x.timestamp_acceptance_reg_appl_hash) > timeLimit)... */\n      pop\n      tag_346\n      jumpi\n        /* \"Updated Smart Contracts/SC_VC_Govt.sol\":5854:7169  if(vcRegistrationApplUnderProcess[msg.sender] == true)... */\n    tag_347:\n      dup7\n      dup1\n      dup1\n      dup1\n      jump(tag_316)\n        /* \"Updated Smart Contracts/SC_VC_Govt.sol\":6839:7158  if(x.timestamp_reg_appl != 0 && x.timestamp_hash_reg_appl != 0 && x.timestamp_acceptance_reg_appl_hash != 0 && x.timestamp_acceptance_reg_appl == 0 && (block.timestamp - x.timestamp_acceptance_reg_appl_hash) > timeLimit)... */\n    tag_346:\n        /* \"Updated Smart Contracts/SC_VC_Govt.sol\":5600:5610  msg.sender */\n      caller\n        /* \"Updated Smart Contracts/SC_VC_Govt.sol\":74:17119  contract SC_VC_Govt... */\n      0x00\n      mstore\n      dup2\n      dup5\n      mstore\n      keccak256(0x00, 0x40)\n      not(0xff)\n      dup2\n      sload\n      and\n      swap1\n      sstore\n        /* \"Updated Smart Contracts/SC_VC_Govt.sol\":6839:7158  if(x.timestamp_reg_appl != 0 && x.timestamp_hash_reg_appl != 0 && x.timestamp_acceptance_reg_appl_hash != 0 && x.timestamp_acceptance_reg_appl == 0 && (block.timestamp - x.timestamp_acceptance_reg_appl_hash) > timeLimit)... */\n      jump(tag_347)\n        /* \"Updated Smart Contracts/SC_VC_Govt.sol\":6842:7058  x.timestamp_reg_appl != 0 && x.timestamp_hash_reg_appl != 0 && x.timestamp_acceptance_reg_appl_hash != 0 && x.timestamp_acceptance_reg_appl == 0 && (block.timestamp - x.timestamp_acceptance_reg_appl_hash) > timeLimit */\n    tag_344:\n        /* \"Updated Smart Contracts/SC_VC_Govt.sol\":2851:2862  300 seconds */\n      0x012c\n        /* \"Updated Smart Contracts/SC_VC_Govt.sol\":74:17119  contract SC_VC_Govt... */\n      swap2\n      pop\n        /* \"Updated Smart Contracts/SC_VC_Govt.sol\":6991:7045  block.timestamp - x.timestamp_acceptance_reg_appl_hash */\n      tag_348\n        /* \"Updated Smart Contracts/SC_VC_Govt.sol\":74:17119  contract SC_VC_Govt... */\n      swap1\n      mload\n        /* \"Updated Smart Contracts/SC_VC_Govt.sol\":6991:7006  block.timestamp */\n      timestamp\n        /* \"Updated Smart Contracts/SC_VC_Govt.sol\":6991:7045  block.timestamp - x.timestamp_acceptance_reg_appl_hash */\n      tag_10\n      jump\t// in\n    tag_348:\n        /* \"Updated Smart Contracts/SC_VC_Govt.sol\":6990:7058  (block.timestamp - x.timestamp_acceptance_reg_appl_hash) > timeLimit */\n      gt\n        /* \"Updated Smart Contracts/SC_VC_Govt.sol\":6842:7058  x.timestamp_reg_appl != 0 && x.timestamp_hash_reg_appl != 0 && x.timestamp_acceptance_reg_appl_hash != 0 && x.timestamp_acceptance_reg_appl == 0 && (block.timestamp - x.timestamp_acceptance_reg_appl_hash) > timeLimit */\n      dup8\n      jump(tag_345)\n        /* \"Updated Smart Contracts/SC_VC_Govt.sol\":6842:6986  x.timestamp_reg_appl != 0 && x.timestamp_hash_reg_appl != 0 && x.timestamp_acceptance_reg_appl_hash != 0 && x.timestamp_acceptance_reg_appl == 0 */\n    tag_342:\n        /* \"Updated Smart Contracts/SC_VC_Govt.sol\":74:17119  contract SC_VC_Govt... */\n      mload\n        /* \"Updated Smart Contracts/SC_VC_Govt.sol\":6950:6986  x.timestamp_acceptance_reg_appl == 0 */\n      iszero\n      swap2\n      pop\n        /* \"Updated Smart Contracts/SC_VC_Govt.sol\":6842:6986  x.timestamp_reg_appl != 0 && x.timestamp_hash_reg_appl != 0 && x.timestamp_acceptance_reg_appl_hash != 0 && x.timestamp_acceptance_reg_appl == 0 */\n      dup9\n      jump(tag_343)\n        /* \"Updated Smart Contracts/SC_VC_Govt.sol\":6842:6946  x.timestamp_reg_appl != 0 && x.timestamp_hash_reg_appl != 0 && x.timestamp_acceptance_reg_appl_hash != 0 */\n    tag_340:\n        /* \"Updated Smart Contracts/SC_VC_Govt.sol\":74:17119  contract SC_VC_Govt... */\n      dup2\n      mload\n        /* \"Updated Smart Contracts/SC_VC_Govt.sol\":6905:6946  x.timestamp_acceptance_reg_appl_hash != 0 */\n      iszero\n      iszero\n      swap3\n      pop\n        /* \"Updated Smart Contracts/SC_VC_Govt.sol\":6842:6946  x.timestamp_reg_appl != 0 && x.timestamp_hash_reg_appl != 0 && x.timestamp_acceptance_reg_appl_hash != 0 */\n      jump(tag_341)\n        /* \"Updated Smart Contracts/SC_VC_Govt.sol\":6842:6901  x.timestamp_reg_appl != 0 && x.timestamp_hash_reg_appl != 0 */\n    tag_338:\n        /* \"Updated Smart Contracts/SC_VC_Govt.sol\":74:17119  contract SC_VC_Govt... */\n      mload\n        /* \"Updated Smart Contracts/SC_VC_Govt.sol\":6871:6901  x.timestamp_hash_reg_appl != 0 */\n      iszero\n      iszero\n      swap3\n      pop\n        /* \"Updated Smart Contracts/SC_VC_Govt.sol\":6842:6901  x.timestamp_reg_appl != 0 && x.timestamp_hash_reg_appl != 0 */\n      dup10\n      jump(tag_339)\n        /* \"Updated Smart Contracts/SC_VC_Govt.sol\":6390:6658  if(x.timestamp_reg_appl != 0 && x.timestamp_hash_reg_appl != 0 && x.timestamp_acceptance_reg_appl_hash == 0 && (block.timestamp - x.timestamp_hash_reg_appl) > timeLimit)... */\n    tag_336:\n        /* \"Updated Smart Contracts/SC_VC_Govt.sol\":5600:5610  msg.sender */\n      caller\n        /* \"Updated Smart Contracts/SC_VC_Govt.sol\":74:17119  contract SC_VC_Govt... */\n      0x00\n      mstore\n      dup6\n      dup9\n      mstore\n      keccak256(0x00, 0x40)\n      not(0xff)\n      dup2\n      sload\n      and\n      swap1\n      sstore\n        /* \"Updated Smart Contracts/SC_VC_Govt.sol\":6390:6658  if(x.timestamp_reg_appl != 0 && x.timestamp_hash_reg_appl != 0 && x.timestamp_acceptance_reg_appl_hash == 0 && (block.timestamp - x.timestamp_hash_reg_appl) > timeLimit)... */\n      jump(tag_337)\n        /* \"Updated Smart Contracts/SC_VC_Govt.sol\":6393:6558  x.timestamp_reg_appl != 0 && x.timestamp_hash_reg_appl != 0 && x.timestamp_acceptance_reg_appl_hash == 0 && (block.timestamp - x.timestamp_hash_reg_appl) > timeLimit */\n    tag_334:\n        /* \"Updated Smart Contracts/SC_VC_Govt.sol\":74:17119  contract SC_VC_Govt... */\n      pop\n        /* \"Updated Smart Contracts/SC_VC_Govt.sol\":2851:2862  300 seconds */\n      0x012c\n        /* \"Updated Smart Contracts/SC_VC_Govt.sol\":6502:6545  block.timestamp - x.timestamp_hash_reg_appl */\n      tag_349\n        /* \"Updated Smart Contracts/SC_VC_Govt.sol\":74:17119  contract SC_VC_Govt... */\n      dup6\n      mload\n        /* \"Updated Smart Contracts/SC_VC_Govt.sol\":6502:6517  block.timestamp */\n      timestamp\n        /* \"Updated Smart Contracts/SC_VC_Govt.sol\":6502:6545  block.timestamp - x.timestamp_hash_reg_appl */\n      tag_10\n      jump\t// in\n    tag_349:\n        /* \"Updated Smart Contracts/SC_VC_Govt.sol\":6501:6558  (block.timestamp - x.timestamp_hash_reg_appl) > timeLimit */\n      gt\n        /* \"Updated Smart Contracts/SC_VC_Govt.sol\":6393:6558  x.timestamp_reg_appl != 0 && x.timestamp_hash_reg_appl != 0 && x.timestamp_acceptance_reg_appl_hash == 0 && (block.timestamp - x.timestamp_hash_reg_appl) > timeLimit */\n      jump(tag_335)\n        /* \"Updated Smart Contracts/SC_VC_Govt.sol\":6393:6497  x.timestamp_reg_appl != 0 && x.timestamp_hash_reg_appl != 0 && x.timestamp_acceptance_reg_appl_hash == 0 */\n    tag_332:\n        /* \"Updated Smart Contracts/SC_VC_Govt.sol\":74:17119  contract SC_VC_Govt... */\n      pop\n      dup3\n      mload\n        /* \"Updated Smart Contracts/SC_VC_Govt.sol\":6456:6497  x.timestamp_acceptance_reg_appl_hash == 0 */\n      iszero\n        /* \"Updated Smart Contracts/SC_VC_Govt.sol\":6393:6497  x.timestamp_reg_appl != 0 && x.timestamp_hash_reg_appl != 0 && x.timestamp_acceptance_reg_appl_hash == 0 */\n      jump(tag_333)\n        /* \"Updated Smart Contracts/SC_VC_Govt.sol\":6393:6452  x.timestamp_reg_appl != 0 && x.timestamp_hash_reg_appl != 0 */\n    tag_330:\n        /* \"Updated Smart Contracts/SC_VC_Govt.sol\":74:17119  contract SC_VC_Govt... */\n      pop\n      dup4\n      mload\n        /* \"Updated Smart Contracts/SC_VC_Govt.sol\":6422:6452  x.timestamp_hash_reg_appl != 0 */\n      iszero\n      iszero\n        /* \"Updated Smart Contracts/SC_VC_Govt.sol\":6393:6452  x.timestamp_reg_appl != 0 && x.timestamp_hash_reg_appl != 0 */\n      jump(tag_331)\n        /* \"Updated Smart Contracts/SC_VC_Govt.sol\":6036:6254  if(x.timestamp_reg_appl != 0 && x.timestamp_hash_reg_appl == 0 && (block.timestamp - x.timestamp_reg_appl) > timeLimit)... */\n    tag_328:\n        /* \"Updated Smart Contracts/SC_VC_Govt.sol\":5600:5610  msg.sender */\n      caller\n        /* \"Updated Smart Contracts/SC_VC_Govt.sol\":74:17119  contract SC_VC_Govt... */\n      0x00\n      mstore\n      dup6\n      dup9\n      mstore\n      keccak256(0x00, 0x40)\n      not(0xff)\n      dup2\n      sload\n      and\n      swap1\n      sstore\n        /* \"Updated Smart Contracts/SC_VC_Govt.sol\":6036:6254  if(x.timestamp_reg_appl != 0 && x.timestamp_hash_reg_appl == 0 && (block.timestamp - x.timestamp_reg_appl) > timeLimit)... */\n      jump(tag_329)\n        /* \"Updated Smart Contracts/SC_VC_Govt.sol\":6039:6154  x.timestamp_reg_appl != 0 && x.timestamp_hash_reg_appl == 0 && (block.timestamp - x.timestamp_reg_appl) > timeLimit */\n    tag_326:\n        /* \"Updated Smart Contracts/SC_VC_Govt.sol\":2851:2862  300 seconds */\n      0x012c\n        /* \"Updated Smart Contracts/SC_VC_Govt.sol\":6103:6118  block.timestamp */\n      swap2\n      pop\n        /* \"Updated Smart Contracts/SC_VC_Govt.sol\":6103:6141  block.timestamp - x.timestamp_reg_appl */\n      tag_350\n        /* \"Updated Smart Contracts/SC_VC_Govt.sol\":6103:6118  block.timestamp */\n      swap1\n      timestamp\n        /* \"Updated Smart Contracts/SC_VC_Govt.sol\":6103:6141  block.timestamp - x.timestamp_reg_appl */\n      tag_10\n      jump\t// in\n    tag_350:\n        /* \"Updated Smart Contracts/SC_VC_Govt.sol\":6102:6154  (block.timestamp - x.timestamp_reg_appl) > timeLimit */\n      gt\n        /* \"Updated Smart Contracts/SC_VC_Govt.sol\":6039:6154  x.timestamp_reg_appl != 0 && x.timestamp_hash_reg_appl == 0 && (block.timestamp - x.timestamp_reg_appl) > timeLimit */\n      dup12\n      jump(tag_327)\n        /* \"Updated Smart Contracts/SC_VC_Govt.sol\":6039:6098  x.timestamp_reg_appl != 0 && x.timestamp_hash_reg_appl == 0 */\n    tag_324:\n        /* \"Updated Smart Contracts/SC_VC_Govt.sol\":74:17119  contract SC_VC_Govt... */\n      dup6\n      mload\n        /* \"Updated Smart Contracts/SC_VC_Govt.sol\":6068:6098  x.timestamp_hash_reg_appl == 0 */\n      iszero\n      swap2\n      pop\n        /* \"Updated Smart Contracts/SC_VC_Govt.sol\":6039:6098  x.timestamp_reg_appl != 0 && x.timestamp_hash_reg_appl == 0 */\n      jump(tag_325)\n        /* \"Updated Smart Contracts/SC_VC_Govt.sol\":74:17119  contract SC_VC_Govt... */\n    tag_50:\n      jumpi(tag_108, callvalue)\n      jumpi(tag_108, slt(add(not(0x03), calldatasize), 0x20))\n      mstore(0x00, calldataload(0x04))\n        /* \"Updated Smart Contracts/SC_VC_Govt.sol\":2275:2329  mapping(uint256=>uint256) public vaccineStockBelongsTo */\n      0x0c\n        /* \"Updated Smart Contracts/SC_VC_Govt.sol\":74:17119  contract SC_VC_Govt... */\n      0x20\n      mstore\n      0x20\n      sload(keccak256(0x00, 0x40))\n      mload(0x40)\n      swap1\n      dup2\n      mstore\n      return\n    tag_48:\n      jumpi(tag_108, callvalue)\n      jumpi(tag_108, slt(add(not(0x03), calldatasize), 0x20))\n      mstore(0x00, calldataload(0x04))\n        /* \"Updated Smart Contracts/SC_VC_Govt.sol\":2463:2520  mapping(uint256=>uint256) public lockedServiceChargeForVC */\n      0x0e\n        /* \"Updated Smart Contracts/SC_VC_Govt.sol\":74:17119  contract SC_VC_Govt... */\n      0x20\n      mstore\n      0x20\n      sload(keccak256(0x00, 0x40))\n      mload(0x40)\n      swap1\n      dup2\n      mstore\n      return\n    tag_46:\n      jumpi(tag_108, callvalue)\n      jumpi(tag_108, slt(add(not(0x03), calldatasize), 0x20))\n      mstore(0x00, calldataload(0x04))\n        /* \"Updated Smart Contracts/SC_VC_Govt.sol\":2726:2770  mapping(bytes32=>VialState) public vialState */\n      0x10\n        /* \"Updated Smart Contracts/SC_VC_Govt.sol\":74:17119  contract SC_VC_Govt... */\n      0x20\n      mstore\n      and(sload(keccak256(0x00, 0x40)), 0xff)\n      mload(0x40)\n      0x03\n      dup3\n      lt\n      iszero\n      tag_124\n      jumpi\n      0x20\n      swap2\n      dup2\n      mstore\n      return\n    tag_44:\n      jumpi(tag_108, callvalue)\n      jumpi(tag_108, slt(add(not(0x03), calldatasize), 0x40))\n      0x0100\n      swap1\n      sub(shl(0xa0, 0x01), 0x01)\n      tag_369\n      tag_1\n      jump\t// in\n    tag_369:\n      and\n      0x00\n      mstore\n      mstore(0x20, 0x01)\n      keccak256(0x00, 0x40)\n      mstore(0x00, calldataload(0x24))\n      0x20\n      mstore\n      keccak256(0x00, 0x40)\n      dup1\n      sload\n        /* \"Updated Smart Contracts/SC_VC_Govt.sol\":1521:1601  mapping(address=>mapping(uint256=>VCRegistrationAppl)) public vcRegistrationAppl */\n      swap2\n        /* \"Updated Smart Contracts/SC_VC_Govt.sol\":74:17119  contract SC_VC_Govt... */\n      0x01\n        /* \"Updated Smart Contracts/SC_VC_Govt.sol\":1521:1601  mapping(address=>mapping(uint256=>VCRegistrationAppl)) public vcRegistrationAppl */\n      dup3\n      add\n        /* \"Updated Smart Contracts/SC_VC_Govt.sol\":74:17119  contract SC_VC_Govt... */\n      sload\n        /* \"Updated Smart Contracts/SC_VC_Govt.sol\":1521:1601  mapping(address=>mapping(uint256=>VCRegistrationAppl)) public vcRegistrationAppl */\n      swap2\n      0x02\n      dup2\n      add\n        /* \"Updated Smart Contracts/SC_VC_Govt.sol\":74:17119  contract SC_VC_Govt... */\n      sload\n      0xff\n        /* \"Updated Smart Contracts/SC_VC_Govt.sol\":1521:1601  mapping(address=>mapping(uint256=>VCRegistrationAppl)) public vcRegistrationAppl */\n      0x03\n      dup4\n      add\n        /* \"Updated Smart Contracts/SC_VC_Govt.sol\":74:17119  contract SC_VC_Govt... */\n      sload\n      and\n      0x04\n        /* \"Updated Smart Contracts/SC_VC_Govt.sol\":1521:1601  mapping(address=>mapping(uint256=>VCRegistrationAppl)) public vcRegistrationAppl */\n      dup4\n      add\n        /* \"Updated Smart Contracts/SC_VC_Govt.sol\":74:17119  contract SC_VC_Govt... */\n      sload\n        /* \"Updated Smart Contracts/SC_VC_Govt.sol\":1521:1601  mapping(address=>mapping(uint256=>VCRegistrationAppl)) public vcRegistrationAppl */\n      swap1\n        /* \"Updated Smart Contracts/SC_VC_Govt.sol\":74:17119  contract SC_VC_Govt... */\n      0xff\n        /* \"Updated Smart Contracts/SC_VC_Govt.sol\":1521:1601  mapping(address=>mapping(uint256=>VCRegistrationAppl)) public vcRegistrationAppl */\n      0x05\n      dup6\n      add\n        /* \"Updated Smart Contracts/SC_VC_Govt.sol\":74:17119  contract SC_VC_Govt... */\n      sload\n      and\n        /* \"Updated Smart Contracts/SC_VC_Govt.sol\":1521:1601  mapping(address=>mapping(uint256=>VCRegistrationAppl)) public vcRegistrationAppl */\n      swap3\n      0x07\n      0x06\n      dup7\n      add\n        /* \"Updated Smart Contracts/SC_VC_Govt.sol\":74:17119  contract SC_VC_Govt... */\n      sload\n        /* \"Updated Smart Contracts/SC_VC_Govt.sol\":1521:1601  mapping(address=>mapping(uint256=>VCRegistrationAppl)) public vcRegistrationAppl */\n      swap6\n      add\n        /* \"Updated Smart Contracts/SC_VC_Govt.sol\":74:17119  contract SC_VC_Govt... */\n      sload\n      swap7\n      mload(0x40)\n      swap9\n      dup10\n      mstore\n      0x20\n      dup10\n      add\n      mstore\n      0x40\n      dup9\n      add\n      mstore\n      iszero\n      iszero\n      0x60\n      dup8\n      add\n      mstore\n      0x80\n      dup7\n      add\n      mstore\n      iszero\n      iszero\n      0xa0\n      dup6\n      add\n      mstore\n      0xc0\n      dup5\n      add\n      mstore\n      dup3\n      add\n      mstore\n      return\n    tag_42:\n      jumpi(tag_108, callvalue)\n      jumpi(tag_108, slt(add(not(0x03), calldatasize), 0x00))\n      0x20\n      mload(0x40)\n        /* \"Updated Smart Contracts/SC_VC_Govt.sol\":2919:2927  1000 wei */\n      0x03e8\n        /* \"Updated Smart Contracts/SC_VC_Govt.sol\":74:17119  contract SC_VC_Govt... */\n      dup2\n      mstore\n      return\n    tag_40:\n      jumpi(tag_108, callvalue)\n      jumpi(tag_108, slt(add(not(0x03), calldatasize), 0x20))\n      tag_378\n      tag_2\n      jump\t// in\n    tag_378:\n        /* \"Updated Smart Contracts/SC_VC_Govt.sol\":3335:3365  require(_party != govt, \"RR2\") */\n      tag_379\n        /* \"Updated Smart Contracts/SC_VC_Govt.sol\":74:17119  contract SC_VC_Govt... */\n      0x01\n      dup1\n      0xa0\n      shl\n      sub\n      sload(0x00)\n      and\n        /* \"Updated Smart Contracts/SC_VC_Govt.sol\":14002:14012  msg.sender */\n      caller\n        /* \"Updated Smart Contracts/SC_VC_Govt.sol\":3343:3357  _party != govt */\n      eq\n      iszero\n        /* \"Updated Smart Contracts/SC_VC_Govt.sol\":3335:3365  require(_party != govt, \"RR2\") */\n      tag_4\n      jump\t// in\n    tag_379:\n        /* \"Updated Smart Contracts/SC_VC_Govt.sol\":14002:14012  msg.sender */\n      caller\n        /* \"Updated Smart Contracts/SC_VC_Govt.sol\":74:17119  contract SC_VC_Govt... */\n      0x00\n      mstore\n        /* \"Updated Smart Contracts/SC_VC_Govt.sol\":14059:14071  vcAddrTovcID */\n      0x05\n        /* \"Updated Smart Contracts/SC_VC_Govt.sol\":74:17119  contract SC_VC_Govt... */\n      0x20\n      mstore\n      sload(keccak256(0x00, 0x40))\n        /* \"Updated Smart Contracts/SC_VC_Govt.sol\":14102:14112  _vcID != 0 */\n      swap1\n        /* \"Updated Smart Contracts/SC_VC_Govt.sol\":14094:14121  require(_vcID != 0, \"RR14\") */\n      tag_380\n        /* \"Updated Smart Contracts/SC_VC_Govt.sol\":14102:14112  _vcID != 0 */\n      dup3\n      iszero\n      iszero\n        /* \"Updated Smart Contracts/SC_VC_Govt.sol\":14094:14121  require(_vcID != 0, \"RR14\") */\n      tag_5\n      jump\t// in\n    tag_380:\n        /* \"Updated Smart Contracts/SC_VC_Govt.sol\":74:17119  contract SC_VC_Govt... */\n      dup2\n      0x00\n      mstore\n        /* \"Updated Smart Contracts/SC_VC_Govt.sol\":14147:14160  getVCFromvcID */\n      0x07\n        /* \"Updated Smart Contracts/SC_VC_Govt.sol\":74:17119  contract SC_VC_Govt... */\n      0x20\n      mstore\n      keccak256(0x00, 0x40)\n      swap1\n        /* \"Updated Smart Contracts/SC_VC_Govt.sol\":14178:14231  require(vc.no_of_vaccine_vials_remaining == 0,\"RR15\") */\n      tag_381\n        /* \"Updated Smart Contracts/SC_VC_Govt.sol\":74:17119  contract SC_VC_Govt... */\n      tag_382\n      tag_6\n      jump\t// in\n    tag_382:\n      swap3\n      dup1\n      sload\n      dup5\n      mstore\n      0x01\n      dup2\n      add\n      sload\n      0x20\n      dup6\n      add\n      mstore\n      0x03\n      0x02\n      dup3\n      add\n      sload\n      swap2\n      dup3\n      0x40\n      dup8\n      add\n      mstore\n      add\n      sload\n      0x60\n      dup6\n      add\n      mstore\n        /* \"Updated Smart Contracts/SC_VC_Govt.sol\":14186:14223  vc.no_of_vaccine_vials_remaining == 0 */\n      iszero\n        /* \"Updated Smart Contracts/SC_VC_Govt.sol\":14178:14231  require(vc.no_of_vaccine_vials_remaining == 0,\"RR15\") */\n      tag_9\n      jump\t// in\n    tag_381:\n        /* \"Updated Smart Contracts/SC_VC_Govt.sol\":74:17119  contract SC_VC_Govt... */\n      dup3\n      0x00\n      mstore\n        /* \"Updated Smart Contracts/SC_VC_Govt.sol\":14269:14293  latestVCRefillApplNumber */\n      0x09\n        /* \"Updated Smart Contracts/SC_VC_Govt.sol\":74:17119  contract SC_VC_Govt... */\n      0x20\n      mstore\n      sload(keccak256(0x00, 0x40))\n        /* \"Updated Smart Contracts/SC_VC_Govt.sol\":14319:14340  lastRefillApplNo != 0 */\n      swap1\n        /* \"Updated Smart Contracts/SC_VC_Govt.sol\":14311:14349  require(lastRefillApplNo != 0, \"RR19\") */\n      tag_383\n        /* \"Updated Smart Contracts/SC_VC_Govt.sol\":14319:14340  lastRefillApplNo != 0 */\n      dup3\n      iszero\n      iszero\n        /* \"Updated Smart Contracts/SC_VC_Govt.sol\":14311:14349  require(lastRefillApplNo != 0, \"RR19\") */\n      tag_15\n      jump\t// in\n    tag_383:\n        /* \"Updated Smart Contracts/SC_VC_Govt.sol\":74:17119  contract SC_VC_Govt... */\n      dup4\n      0x00\n      mstore\n        /* \"Updated Smart Contracts/SC_VC_Govt.sol\":14394:14411  refillVaccineAppl */\n      0x08\n        /* \"Updated Smart Contracts/SC_VC_Govt.sol\":74:17119  contract SC_VC_Govt... */\n      0x20\n      mstore\n      keccak256(0x00, 0x40)\n      dup3\n      0x00\n      mstore\n      0x20\n      mstore\n      keccak256(0x00, 0x40)\n      swap3\n        /* \"Updated Smart Contracts/SC_VC_Govt.sol\":14059:14071  vcAddrTovcID */\n      0x05\n        /* \"Updated Smart Contracts/SC_VC_Govt.sol\":74:17119  contract SC_VC_Govt... */\n      tag_384\n      tag_7\n      jump\t// in\n    tag_384:\n      swap5\n      dup1\n      sload\n      dup7\n      mstore\n      0x01\n      dup2\n      add\n      sload\n      0x20\n      dup8\n      add\n      mstore\n      0x02\n      dup2\n      add\n      sload\n      0x40\n      dup8\n      add\n      mstore\n      0x03\n      dup2\n      add\n      sload\n      0x60\n      dup8\n      add\n      mstore\n      0xff\n      0x04\n      dup3\n      add\n      sload\n      and\n      iszero\n      iszero\n      0x80\n      dup8\n      add\n      mstore\n      add\n      sload\n      0xa0\n      dup6\n      add\n      mstore\n      dup5\n      0x00\n      mstore\n        /* \"Updated Smart Contracts/SC_VC_Govt.sol\":14455:14479  vcRefillApplUnderProcess */\n      0x0b\n        /* \"Updated Smart Contracts/SC_VC_Govt.sol\":74:17119  contract SC_VC_Govt... */\n      0x20\n      mstore\n        /* \"Updated Smart Contracts/SC_VC_Govt.sol\":14447:14502  require(vcRefillApplUnderProcess[_vcID] == true,\"RR19\") */\n      tag_385\n        /* \"Updated Smart Contracts/SC_VC_Govt.sol\":74:17119  contract SC_VC_Govt... */\n      0x01\n      iszero(iszero(and(sload(keccak256(0x00, 0x40)), 0xff)))\n        /* \"Updated Smart Contracts/SC_VC_Govt.sol\":14455:14494  vcRefillApplUnderProcess[_vcID] == true */\n      eq\n        /* \"Updated Smart Contracts/SC_VC_Govt.sol\":14447:14502  require(vcRefillApplUnderProcess[_vcID] == true,\"RR19\") */\n      tag_15\n      jump\t// in\n    tag_385:\n        /* \"Updated Smart Contracts/SC_VC_Govt.sol\":74:17119  contract SC_VC_Govt... */\n      0xa0\n      dup5\n      add\n      mload\n      tag_386\n      jumpi\n        /* \"Updated Smart Contracts/SC_VC_Govt.sol\":14575:14653  require((block.timestamp - x.timestamp_commit_vaccine_set) <= timeLimit,\"RR8\") */\n      tag_388\n        /* \"Updated Smart Contracts/SC_VC_Govt.sol\":2851:2862  300 seconds */\n      0x012c\n        /* \"Updated Smart Contracts/SC_VC_Govt.sol\":14584:14632  block.timestamp - x.timestamp_commit_vaccine_set */\n      tag_174\n        /* \"Updated Smart Contracts/SC_VC_Govt.sol\":74:17119  contract SC_VC_Govt... */\n      0x60\n      dup8\n      add\n      mload\n        /* \"Updated Smart Contracts/SC_VC_Govt.sol\":14584:14599  block.timestamp */\n      timestamp\n        /* \"Updated Smart Contracts/SC_VC_Govt.sol\":14584:14632  block.timestamp - x.timestamp_commit_vaccine_set */\n      tag_10\n      jump\t// in\n        /* \"Updated Smart Contracts/SC_VC_Govt.sol\":14575:14653  require((block.timestamp - x.timestamp_commit_vaccine_set) <= timeLimit,\"RR8\") */\n    tag_388:\n        /* \"Updated Smart Contracts/SC_VC_Govt.sol\":74:17119  contract SC_VC_Govt... */\n      dup5\n      0x00\n      mstore\n        /* \"Updated Smart Contracts/SC_VC_Govt.sol\":14672:14696  lockedServiceChargeForVC */\n      0x0e\n        /* \"Updated Smart Contracts/SC_VC_Govt.sol\":74:17119  contract SC_VC_Govt... */\n      0x20\n      mstore\n      sload(keccak256(0x00, 0x40))\n      0x20\n      dup6\n      add\n      mload\n        /* \"Updated Smart Contracts/SC_VC_Govt.sol\":2919:2927  1000 wei */\n      0x03e8\n        /* \"Updated Smart Contracts/SC_VC_Govt.sol\":74:17119  contract SC_VC_Govt... */\n      swap2\n      dup3\n      dup3\n      mul\n      swap2\n      dup1\n      dup4\n      div\n      dup5\n      eq\n      swap1\n      iszero\n      or\n      iszero\n      tag_177\n      jumpi\n        /* \"Updated Smart Contracts/SC_VC_Govt.sol\":14672:14751  lockedServiceChargeForVC[_vcID] == x.cardinality_of_set*perVaccineServiceCharge */\n      sub\n        /* \"Updated Smart Contracts/SC_VC_Govt.sol\":74:17119  contract SC_VC_Govt... */\n      tag_392\n      jumpi\n      dup3\n      iszero\n      iszero\n      0x01\n        /* \"Updated Smart Contracts/SC_VC_Govt.sol\":14838:14855  _decision == true */\n      sub\n        /* \"Updated Smart Contracts/SC_VC_Govt.sol\":74:17119  contract SC_VC_Govt... */\n      tag_394\n      jumpi\n      pop\n        /* \"Updated Smart Contracts/SC_VC_Govt.sol\":14916:14937  stockIDGenerator += 1 */\n      0x14\n        /* \"Updated Smart Contracts/SC_VC_Govt.sol\":74:17119  contract SC_VC_Govt... */\n      sload\n      0x01\n      dup2\n      add\n      dup2\n      gt\n      tag_177\n      jumpi\n      dup1\n      0x01\n      dup1\n      swap3\n      add\n        /* \"Updated Smart Contracts/SC_VC_Govt.sol\":14916:14937  stockIDGenerator += 1 */\n      0x14\n        /* \"Updated Smart Contracts/SC_VC_Govt.sol\":74:17119  contract SC_VC_Govt... */\n      sstore\n      add\n      0x00\n      mstore\n        /* \"Updated Smart Contracts/SC_VC_Govt.sol\":14952:14973  vaccineStockBelongsTo */\n      0x0c\n        /* \"Updated Smart Contracts/SC_VC_Govt.sol\":74:17119  contract SC_VC_Govt... */\n      0x20\n      mstore\n      dup5\n      keccak256(0x00, 0x40)\n      sstore\n        /* \"Updated Smart Contracts/SC_VC_Govt.sol\":14916:14937  stockIDGenerator += 1 */\n      0x14\n        /* \"Updated Smart Contracts/SC_VC_Govt.sol\":74:17119  contract SC_VC_Govt... */\n      sload\n      0x03\n      0x20\n      dup7\n      add\n      mload\n      0x40\n      dup8\n      add\n      mload\n      swap1\n      tag_398\n      tag_6\n      jump\t// in\n    tag_398:\n      swap4\n      dup1\n      dup6\n      mstore\n      0x20\n        /* \"Updated Smart Contracts/SC_VC_Govt.sol\":15054:15146  VaccineStock(stockIDGenerator,block.timestamp,x.cardinality_of_set,x.commitment_vaccine_set) */\n      dup6\n      add\n        /* \"Updated Smart Contracts/SC_VC_Govt.sol\":14584:14599  block.timestamp */\n      swap1\n      timestamp\n        /* \"Updated Smart Contracts/SC_VC_Govt.sol\":74:17119  contract SC_VC_Govt... */\n      dup3\n      mstore\n      0x40\n        /* \"Updated Smart Contracts/SC_VC_Govt.sol\":15054:15146  VaccineStock(stockIDGenerator,block.timestamp,x.cardinality_of_set,x.commitment_vaccine_set) */\n      dup7\n      add\n        /* \"Updated Smart Contracts/SC_VC_Govt.sol\":74:17119  contract SC_VC_Govt... */\n      swap3\n      dup4\n      mstore\n      0x60\n        /* \"Updated Smart Contracts/SC_VC_Govt.sol\":15054:15146  VaccineStock(stockIDGenerator,block.timestamp,x.cardinality_of_set,x.commitment_vaccine_set) */\n      dup7\n      add\n        /* \"Updated Smart Contracts/SC_VC_Govt.sol\":74:17119  contract SC_VC_Govt... */\n      swap4\n      dup5\n      mstore\n      0x00\n      mstore\n        /* \"Updated Smart Contracts/SC_VC_Govt.sol\":15014:15033  vaccineStockDetails */\n      0x0d\n        /* \"Updated Smart Contracts/SC_VC_Govt.sol\":74:17119  contract SC_VC_Govt... */\n      0x20\n      mstore\n      keccak256(0x00, 0x40)\n      swap5\n      mload\n      dup6\n      sstore\n      mload\n      0x01\n      dup6\n      add\n      sstore\n      mload\n      0x02\n      dup5\n      add\n      sstore\n      mload\n      swap2\n      add\n      sstore\n        /* \"Updated Smart Contracts/SC_VC_Govt.sol\":14916:14937  stockIDGenerator += 1 */\n      0x14\n        /* \"Updated Smart Contracts/SC_VC_Govt.sol\":74:17119  contract SC_VC_Govt... */\n      sload\n      0x20\n      dup3\n      add\n      mstore\n      0x20\n      dup5\n      add\n      mload\n      0x40\n      dup3\n      add\n      mstore\n      dup5\n      0x00\n      mstore\n        /* \"Updated Smart Contracts/SC_VC_Govt.sol\":14147:14160  getVCFromvcID */\n      0x07\n        /* \"Updated Smart Contracts/SC_VC_Govt.sol\":74:17119  contract SC_VC_Govt... */\n      0x20\n      mstore\n      0x03\n      0x60\n      keccak256(0x00, 0x40)\n      swap3\n      dup1\n      mload\n      dup5\n      sstore\n      0x20\n      dup2\n      add\n      mload\n      0x01\n      dup6\n      add\n      sstore\n      0x40\n      dup2\n      add\n      mload\n      0x02\n      dup6\n      add\n      sstore\n      add\n      mload\n      swap2\n      add\n      sstore\n        /* \"Updated Smart Contracts/SC_VC_Govt.sol\":14835:15543  if(_decision == true)... */\n    tag_399:\n        /* \"Updated Smart Contracts/SC_VC_Govt.sol\":74:17119  contract SC_VC_Govt... */\n      iszero\n      iszero\n      0x80\n      dup4\n      add\n      mstore\n        /* \"Updated Smart Contracts/SC_VC_Govt.sol\":14584:14599  block.timestamp */\n      timestamp\n        /* \"Updated Smart Contracts/SC_VC_Govt.sol\":74:17119  contract SC_VC_Govt... */\n      0xa0\n      dup4\n      add\n      mstore\n      dup3\n      0x00\n      mstore\n        /* \"Updated Smart Contracts/SC_VC_Govt.sol\":14394:14411  refillVaccineAppl */\n      0x08\n        /* \"Updated Smart Contracts/SC_VC_Govt.sol\":74:17119  contract SC_VC_Govt... */\n      0x20\n      mstore\n      keccak256(0x00, 0x40)\n      swap1\n      0x00\n      mstore\n      0x20\n      mstore\n        /* \"Updated Smart Contracts/SC_VC_Govt.sol\":14059:14071  vcAddrTovcID */\n      0x05\n        /* \"Updated Smart Contracts/SC_VC_Govt.sol\":74:17119  contract SC_VC_Govt... */\n      0xa0\n      keccak256(0x00, 0x40)\n      swap3\n      dup1\n      mload\n      dup5\n      sstore\n      0x20\n      dup2\n      add\n      mload\n      0x01\n      dup6\n      add\n      sstore\n      0x40\n      dup2\n      add\n      mload\n      0x02\n      dup6\n      add\n      sstore\n      0x60\n      dup2\n      add\n      mload\n      0x03\n      dup6\n      add\n      sstore\n      tag_400\n      0x80\n      dup3\n      add\n      mload\n      iszero\n      iszero\n      0x04\n      dup7\n      add\n      swap1\n      0xff\n      dup1\n      not\n      dup4\n      sload\n      and\n      swap2\n      iszero\n      iszero\n      and\n      or\n      swap1\n      sstore\n      jump\n    tag_400:\n      add\n      mload\n      swap2\n      add\n      sstore\n      0x00\n      swap1\n      dup2\n      mstore\n        /* \"Updated Smart Contracts/SC_VC_Govt.sol\":14455:14479  vcRefillApplUnderProcess */\n      0x0b\n        /* \"Updated Smart Contracts/SC_VC_Govt.sol\":74:17119  contract SC_VC_Govt... */\n      0x20\n      mstore\n      0x40\n      swap1\n      keccak256\n      dup1\n      sload\n      not(0xff)\n      and\n      swap1\n      sstore\n      stop\n        /* \"Updated Smart Contracts/SC_VC_Govt.sol\":14835:15543  if(_decision == true)... */\n    tag_394:\n        /* \"Updated Smart Contracts/SC_VC_Govt.sol\":74:17119  contract SC_VC_Govt... */\n      swap1\n      pop\n      0x20\n      dup5\n      add\n      mload\n      dup2\n      dup2\n      mul\n      swap1\n      dup1\n      dup3\n      div\n      dup4\n      eq\n      swap1\n      iszero\n      or\n      iszero\n      tag_177\n      jumpi\n      dup6\n      0x00\n      mstore\n        /* \"Updated Smart Contracts/SC_VC_Govt.sol\":15358:15382  amountToBeRefundedToGovt */\n      0x0f\n        /* \"Updated Smart Contracts/SC_VC_Govt.sol\":74:17119  contract SC_VC_Govt... */\n      0x20\n      mstore\n        /* \"Updated Smart Contracts/SC_VC_Govt.sol\":15358:15437  amountToBeRefundedToGovt[_vcID] += x.cardinality_of_set*perVaccineServiceCharge */\n      tag_403\n        /* \"Updated Smart Contracts/SC_VC_Govt.sol\":74:17119  contract SC_VC_Govt... */\n      keccak256(0x00, 0x40)\n      swap2\n      dup3\n      sload\n        /* \"Updated Smart Contracts/SC_VC_Govt.sol\":15358:15437  amountToBeRefundedToGovt[_vcID] += x.cardinality_of_set*perVaccineServiceCharge */\n      tag_12\n      jump\t// in\n    tag_403:\n        /* \"Updated Smart Contracts/SC_VC_Govt.sol\":74:17119  contract SC_VC_Govt... */\n      swap1\n      sstore\n      0x20\n      dup5\n      add\n      mload\n      dup2\n      dup2\n      mul\n      swap2\n      dup2\n      dup4\n      div\n      eq\n      swap1\n      iszero\n      or\n      iszero\n      tag_177\n      jumpi\n      dup5\n      0x00\n      mstore\n        /* \"Updated Smart Contracts/SC_VC_Govt.sol\":14672:14696  lockedServiceChargeForVC */\n      0x0e\n        /* \"Updated Smart Contracts/SC_VC_Govt.sol\":74:17119  contract SC_VC_Govt... */\n      0x20\n      mstore\n        /* \"Updated Smart Contracts/SC_VC_Govt.sol\":15452:15531  lockedServiceChargeForVC[_vcID] -= x.cardinality_of_set*perVaccineServiceCharge */\n      tag_406\n        /* \"Updated Smart Contracts/SC_VC_Govt.sol\":74:17119  contract SC_VC_Govt... */\n      keccak256(0x00, 0x40)\n      swap2\n      dup3\n      sload\n        /* \"Updated Smart Contracts/SC_VC_Govt.sol\":15452:15531  lockedServiceChargeForVC[_vcID] -= x.cardinality_of_set*perVaccineServiceCharge */\n      tag_10\n      jump\t// in\n    tag_406:\n        /* \"Updated Smart Contracts/SC_VC_Govt.sol\":74:17119  contract SC_VC_Govt... */\n      swap1\n      sstore\n        /* \"Updated Smart Contracts/SC_VC_Govt.sol\":14835:15543  if(_decision == true)... */\n      jump(tag_399)\n        /* \"Updated Smart Contracts/SC_VC_Govt.sol\":74:17119  contract SC_VC_Govt... */\n    tag_392:\n      0x64\n      mload(0x40)\n      shl(0xe5, 0x461bcd)\n      dup2\n      mstore\n      0x20\n      0x04\n      dup3\n      add\n      mstore\n      0x04\n      0x24\n      dup3\n      add\n      mstore\n      shl(0xe0, 0x52523233)\n      0x44\n      dup3\n      add\n      mstore\n      revert\n    tag_386:\n      0x64\n      mload(0x40)\n      shl(0xe5, 0x461bcd)\n      dup2\n      mstore\n      0x20\n      0x04\n      dup3\n      add\n      mstore\n      0x04\n      0x24\n      dup3\n      add\n      mstore\n      shl(0xe4, 0x05252323)\n      0x44\n      dup3\n      add\n      mstore\n      revert\n    tag_38:\n      jumpi(tag_108, callvalue)\n      0x20\n      dup1\n      add(calldatasize, not(0x03))\n      slt\n      tag_108\n      jumpi\n      sub(shl(0xa0, 0x01), 0x01)\n      tag_411\n      tag_1\n      jump\t// in\n    tag_411:\n      and\n        /* \"Updated Smart Contracts/SC_VC_Govt.sol\":2919:2927  1000 wei */\n      swap1\n      0x03e8\n        /* \"Updated Smart Contracts/SC_VC_Govt.sol\":5082:5132  payable(_vcAddr).transfer(perVaccineServiceCharge) */\n      swap2\n        /* \"Updated Smart Contracts/SC_VC_Govt.sol\":74:17119  contract SC_VC_Govt... */\n      0x00\n        /* \"Updated Smart Contracts/SC_VC_Govt.sol\":5082:5132  payable(_vcAddr).transfer(perVaccineServiceCharge) */\n      dup1\n      dup1\n      dup1\n      dup7\n      dup6\n      dup3\n      call\n      iszero\n      tag_277\n      jumpi\n        /* \"Updated Smart Contracts/SC_VC_Govt.sol\":74:17119  contract SC_VC_Govt... */\n      0x00\n      mstore\n        /* \"Updated Smart Contracts/SC_VC_Govt.sol\":5159:5171  vcAddrTovcID */\n      0x05\n        /* \"Updated Smart Contracts/SC_VC_Govt.sol\":74:17119  contract SC_VC_Govt... */\n      dup2\n      mstore\n      sload(keccak256(0x00, 0x40))\n      swap2\n      dup3\n      0x00\n      mstore\n        /* \"Updated Smart Contracts/SC_VC_Govt.sol\":5206:5219  getVCFromvcID */\n      0x07\n        /* \"Updated Smart Contracts/SC_VC_Govt.sol\":74:17119  contract SC_VC_Govt... */\n      dup3\n      mstore\n      keccak256(0x00, 0x40)\n      tag_414\n      tag_6\n      jump\t// in\n    tag_414:\n      swap2\n      dup2\n      sload\n      dup4\n      mstore\n      0x01\n      dup3\n      add\n      sload\n      swap2\n      dup5\n      dup5\n      add\n      swap3\n      dup4\n      mstore\n      0x03\n      0x02\n      dup3\n      add\n      sload\n      swap2\n      0x40\n      dup7\n      add\n      swap3\n      dup4\n      mstore\n      add\n      sload\n      0x60\n      dup6\n      add\n      swap3\n      dup2\n      dup5\n      mstore\n      dup2\n      add\n      dup1\n      swap2\n      gt\n      tag_177\n      jumpi\n      dup3\n      mstore\n      dup1\n      mload\n      not(0x00)\n      dup2\n      add\n      swap4\n      swap1\n      dup5\n      gt\n      tag_177\n      jumpi\n        /* \"Updated Smart Contracts/SC_VC_Govt.sol\":5374:5398  lockedServiceChargeForVC */\n      0x0e\n        /* \"Updated Smart Contracts/SC_VC_Govt.sol\":74:17119  contract SC_VC_Govt... */\n      swap7\n      0x03\n      swap5\n      dup4\n      mstore\n      0x00\n      mstore\n        /* \"Updated Smart Contracts/SC_VC_Govt.sol\":5206:5219  getVCFromvcID */\n      0x07\n        /* \"Updated Smart Contracts/SC_VC_Govt.sol\":74:17119  contract SC_VC_Govt... */\n      dup7\n      mstore\n      keccak256(0x00, 0x40)\n      swap5\n      mload\n      dup6\n      sstore\n      mload\n      0x01\n      dup6\n      add\n      sstore\n      mload\n      0x02\n      dup5\n      add\n      sstore\n      mload\n      swap2\n      add\n      sstore\n      mstore\n      keccak256(0x00, 0x40)\n      dup1\n      sload\n      swap1\n      not(0x03e7)\n      dup3\n      add\n      swap2\n      dup3\n      gt\n      tag_177\n      jumpi\n      sstore\n      stop\n    tag_36:\n      jumpi(tag_108, slt(add(not(0x03), calldatasize), 0x60))\n      calldataload(0x04)\n      calldataload(0x44)\n      swap1\n        /* \"Updated Smart Contracts/SC_VC_Govt.sol\":3222:3252  require(_party == govt, \"RR1\") */\n      tag_423\n        /* \"Updated Smart Contracts/SC_VC_Govt.sol\":74:17119  contract SC_VC_Govt... */\n      0x01\n      dup1\n      0xa0\n      shl\n      sub\n      sload(0x00)\n      and\n        /* \"Updated Smart Contracts/SC_VC_Govt.sol\":12957:12967  msg.sender */\n      caller\n        /* \"Updated Smart Contracts/SC_VC_Govt.sol\":3230:3244  _party == govt */\n      eq\n        /* \"Updated Smart Contracts/SC_VC_Govt.sol\":3222:3252  require(_party == govt, \"RR1\") */\n      tag_13\n      jump\t// in\n    tag_423:\n        /* \"Updated Smart Contracts/SC_VC_Govt.sol\":13008:13017  _vcID > 0 */\n      dup2\n      iszero\n      iszero\n        /* \"Updated Smart Contracts/SC_VC_Govt.sol\":13008:13043  _vcID > 0 && _vcID <= vcIDGenerator */\n      dup1\n      tag_424\n      jumpi\n        /* \"Updated Smart Contracts/SC_VC_Govt.sol\":74:17119  contract SC_VC_Govt... */\n    tag_425:\n        /* \"Updated Smart Contracts/SC_VC_Govt.sol\":13000:13052  require(_vcID > 0 && _vcID <= vcIDGenerator, \"RR17\") */\n      tag_426\n      swap1\n      tag_14\n      jump\t// in\n    tag_426:\n        /* \"Updated Smart Contracts/SC_VC_Govt.sol\":13071:13088  _cardinality != 0 */\n      dup1\n      iszero\n        /* \"Updated Smart Contracts/SC_VC_Govt.sol\":74:17119  contract SC_VC_Govt... */\n      tag_427\n      jumpi\n      dup2\n      0x00\n      mstore\n      0x20\n      swap2\n        /* \"Updated Smart Contracts/SC_VC_Govt.sol\":13115:13139  vcRefillApplUnderProcess */\n      0x0b\n        /* \"Updated Smart Contracts/SC_VC_Govt.sol\":74:17119  contract SC_VC_Govt... */\n      dup4\n      mstore\n        /* \"Updated Smart Contracts/SC_VC_Govt.sol\":13107:13163  require(vcRefillApplUnderProcess[_vcID] == true, \"RR19\") */\n      tag_429\n        /* \"Updated Smart Contracts/SC_VC_Govt.sol\":74:17119  contract SC_VC_Govt... */\n      0x01\n      iszero(iszero(and(sload(keccak256(0x00, 0x40)), 0xff)))\n        /* \"Updated Smart Contracts/SC_VC_Govt.sol\":13115:13154  vcRefillApplUnderProcess[_vcID] == true */\n      eq\n        /* \"Updated Smart Contracts/SC_VC_Govt.sol\":13107:13163  require(vcRefillApplUnderProcess[_vcID] == true, \"RR19\") */\n      tag_15\n      jump\t// in\n    tag_429:\n        /* \"Updated Smart Contracts/SC_VC_Govt.sol\":74:17119  contract SC_VC_Govt... */\n      dup1\n      0x00\n      mstore\n        /* \"Updated Smart Contracts/SC_VC_Govt.sol\":13189:13202  getVCFromvcID */\n      0x07\n        /* \"Updated Smart Contracts/SC_VC_Govt.sol\":74:17119  contract SC_VC_Govt... */\n      dup4\n      mstore\n        /* \"Updated Smart Contracts/SC_VC_Govt.sol\":13220:13274  require(vc.no_of_vaccine_vials_remaining == 0, \"RR15\") */\n      tag_430\n        /* \"Updated Smart Contracts/SC_VC_Govt.sol\":74:17119  contract SC_VC_Govt... */\n      keccak256(0x00, 0x40)\n      tag_431\n      tag_6\n      jump\t// in\n    tag_431:\n      dup2\n      sload\n      dup2\n      mstore\n      0x01\n      dup3\n      add\n      sload\n      dup7\n      dup3\n      add\n      mstore\n      0x60\n      0x03\n      0x02\n      dup5\n      add\n      sload\n      swap4\n      dup5\n      0x40\n      dup6\n      add\n      mstore\n      add\n      sload\n      swap2\n      add\n      mstore\n        /* \"Updated Smart Contracts/SC_VC_Govt.sol\":13228:13265  vc.no_of_vaccine_vials_remaining == 0 */\n      iszero\n        /* \"Updated Smart Contracts/SC_VC_Govt.sol\":13220:13274  require(vc.no_of_vaccine_vials_remaining == 0, \"RR15\") */\n      tag_9\n      jump\t// in\n    tag_430:\n        /* \"Updated Smart Contracts/SC_VC_Govt.sol\":74:17119  contract SC_VC_Govt... */\n      dup1\n      0x00\n      mstore\n        /* \"Updated Smart Contracts/SC_VC_Govt.sol\":13312:13336  latestVCRefillApplNumber */\n      0x09\n        /* \"Updated Smart Contracts/SC_VC_Govt.sol\":74:17119  contract SC_VC_Govt... */\n      dup4\n      mstore\n      sload(keccak256(0x00, 0x40))\n      swap2\n        /* \"Updated Smart Contracts/SC_VC_Govt.sol\":13388:13405  refillVaccineAppl */\n      0x08\n        /* \"Updated Smart Contracts/SC_VC_Govt.sol\":74:17119  contract SC_VC_Govt... */\n      dup5\n      mstore\n      keccak256(0x00, 0x40)\n      dup4\n      0x00\n      mstore\n      dup5\n      mstore\n      keccak256(0x00, 0x40)\n      swap1\n      tag_432\n      tag_7\n      jump\t// in\n    tag_432:\n      swap4\n      dup3\n      sload\n      dup6\n      mstore\n      0x01\n      dup4\n      add\n      sload\n      dup7\n      dup7\n      add\n      swap1\n      dup2\n      mstore\n      0x02\n      dup5\n      add\n      sload\n      swap2\n      0x40\n      dup8\n      add\n      swap3\n      dup4\n      mstore\n      0x03\n      dup6\n      add\n      sload\n      swap6\n      0x60\n      dup9\n      add\n      swap5\n      dup8\n      dup7\n      mstore\n      0x05\n      0xff\n      0x04\n      dup10\n      add\n      sload\n      and\n      swap8\n      0x80\n      dup12\n      add\n      swap9\n      iszero\n      iszero\n      dup10\n      mstore\n      add\n      sload\n      swap8\n      0xa0\n      dup11\n      add\n      swap9\n      dup10\n      mstore\n      tag_433\n      jumpi\n        /* \"Updated Smart Contracts/SC_VC_Govt.sol\":13504:13576  require((block.timestamp - x.timestamp_refill_Appl) <= timeLimit, \"RR8\") */\n      tag_435\n        /* \"Updated Smart Contracts/SC_VC_Govt.sol\":2851:2862  300 seconds */\n      0x012c\n        /* \"Updated Smart Contracts/SC_VC_Govt.sol\":13513:13554  block.timestamp - x.timestamp_refill_Appl */\n      tag_174\n        /* \"Updated Smart Contracts/SC_VC_Govt.sol\":74:17119  contract SC_VC_Govt... */\n      dup12\n      mload\n        /* \"Updated Smart Contracts/SC_VC_Govt.sol\":13513:13528  block.timestamp */\n      timestamp\n        /* \"Updated Smart Contracts/SC_VC_Govt.sol\":13513:13554  block.timestamp - x.timestamp_refill_Appl */\n      tag_10\n      jump\t// in\n        /* \"Updated Smart Contracts/SC_VC_Govt.sol\":13504:13576  require((block.timestamp - x.timestamp_refill_Appl) <= timeLimit, \"RR8\") */\n    tag_435:\n        /* \"Updated Smart Contracts/SC_VC_Govt.sol\":2919:2927  1000 wei */\n      0x03e8\n        /* \"Updated Smart Contracts/SC_VC_Govt.sol\":74:17119  contract SC_VC_Govt... */\n      dup2\n      mul\n      not(0x03e7)\n      dup3\n      dup3\n      div\n      add\n      tag_177\n      jumpi\n        /* \"Updated Smart Contracts/SC_VC_Govt.sol\":13595:13604  msg.value */\n      callvalue\n        /* \"Updated Smart Contracts/SC_VC_Govt.sol\":13595:13644  msg.value == _cardinality*perVaccineServiceCharge */\n      sub\n        /* \"Updated Smart Contracts/SC_VC_Govt.sol\":74:17119  contract SC_VC_Govt... */\n      tag_439\n      jumpi\n      swap9\n      dup2\n      0x05\n      swap10\n      swap11\n      tag_441\n      swap9\n      swap8\n      swap7\n      swap6\n      swap5\n      swap4\n      0x00\n      mstore\n        /* \"Updated Smart Contracts/SC_VC_Govt.sol\":13663:13687  lockedServiceChargeForVC */\n      0x0e\n        /* \"Updated Smart Contracts/SC_VC_Govt.sol\":74:17119  contract SC_VC_Govt... */\n      dup4\n      mstore\n        /* \"Updated Smart Contracts/SC_VC_Govt.sol\":13595:13604  msg.value */\n      callvalue\n        /* \"Updated Smart Contracts/SC_VC_Govt.sol\":74:17119  contract SC_VC_Govt... */\n      keccak256(0x00, 0x40)\n      sstore\n      dup5\n      mstore\n      calldataload(0x24)\n      dup6\n      mstore\n        /* \"Updated Smart Contracts/SC_VC_Govt.sol\":13513:13528  block.timestamp */\n      timestamp\n        /* \"Updated Smart Contracts/SC_VC_Govt.sol\":74:17119  contract SC_VC_Govt... */\n      dup7\n      mstore\n      0x00\n      mstore\n        /* \"Updated Smart Contracts/SC_VC_Govt.sol\":13388:13405  refillVaccineAppl */\n      0x08\n        /* \"Updated Smart Contracts/SC_VC_Govt.sol\":74:17119  contract SC_VC_Govt... */\n      dup2\n      mstore\n      keccak256(0x00, 0x40)\n      swap2\n      0x00\n      mstore\n      mstore\n      keccak256(0x00, 0x40)\n      swap8\n      mload\n      dup9\n      sstore\n      mload\n      0x01\n      dup9\n      add\n      sstore\n      mload\n      0x02\n      dup8\n      add\n      sstore\n      mload\n      0x03\n      dup7\n      add\n      sstore\n      mload\n      iszero\n      iszero\n      0x04\n      dup6\n      add\n      swap1\n      0xff\n      dup1\n      not\n      dup4\n      sload\n      and\n      swap2\n      iszero\n      iszero\n      and\n      or\n      swap1\n      sstore\n      jump\n    tag_441:\n      mload\n      swap2\n      add\n      sstore\n      stop\n    tag_439:\n      mload(0x40)\n      shl(0xe5, 0x461bcd)\n      dup2\n      mstore\n      0x04\n      dup1\n      dup3\n      add\n      dup13\n      swap1\n      mstore\n      0x24\n      dup3\n      add\n      mstore\n      shl(0xe1, 0x29291919)\n      0x44\n      dup3\n      add\n      mstore\n      0x64\n      swap1\n      revert\n    tag_433:\n      mload(0x40)\n      shl(0xe5, 0x461bcd)\n      dup2\n      mstore\n      0x04\n      dup1\n      dup3\n      add\n      dup13\n      swap1\n      mstore\n      0x24\n      dup3\n      add\n      mstore\n      shl(0xe0, 0x52523231)\n      0x44\n      dup3\n      add\n      mstore\n      0x64\n      swap1\n      revert\n    tag_427:\n      0x64\n      mload(0x40)\n      shl(0xe5, 0x461bcd)\n      dup2\n      mstore\n      0x20\n      0x04\n      dup3\n      add\n      mstore\n      0x04\n      0x24\n      dup3\n      add\n      mstore\n      shl(0xe3, 0x0a4a4627)\n      0x44\n      dup3\n      add\n      mstore\n      revert\n        /* \"Updated Smart Contracts/SC_VC_Govt.sol\":13008:13043  _vcID > 0 && _vcID <= vcIDGenerator */\n    tag_424:\n      pop\n        /* \"Updated Smart Contracts/SC_VC_Govt.sol\":13030:13043  vcIDGenerator */\n      0x13\n        /* \"Updated Smart Contracts/SC_VC_Govt.sol\":74:17119  contract SC_VC_Govt... */\n      sload\n        /* \"Updated Smart Contracts/SC_VC_Govt.sol\":13021:13043  _vcID <= vcIDGenerator */\n      dup3\n      gt\n      iszero\n        /* \"Updated Smart Contracts/SC_VC_Govt.sol\":13008:13043  _vcID > 0 && _vcID <= vcIDGenerator */\n      jump(tag_425)\n        /* \"Updated Smart Contracts/SC_VC_Govt.sol\":74:17119  contract SC_VC_Govt... */\n    tag_34:\n      jumpi(tag_108, callvalue)\n      jumpi(tag_108, slt(add(not(0x03), calldatasize), 0x20))\n      mstore(0x00, calldataload(0x04))\n      mstore(0x20, 0x04)\n      0x20\n      0x01\n      dup1\n      0xa0\n      shl\n      sub\n      sload(keccak256(0x00, 0x40))\n      and\n      mload(0x40)\n      swap1\n      dup2\n      mstore\n      return\n    tag_26:\n      jumpi(tag_108, callvalue)\n      jumpi(tag_108, slt(add(not(0x03), calldatasize), 0x20))\n      mstore(0x00, calldataload(0x04))\n        /* \"Updated Smart Contracts/SC_VC_Govt.sol\":2557:2614  mapping(uint256=>uint256) public amountToBeRefundedToGovt */\n      0x0f\n        /* \"Updated Smart Contracts/SC_VC_Govt.sol\":74:17119  contract SC_VC_Govt... */\n      0x20\n      mstore\n      0x20\n      sload(keccak256(0x00, 0x40))\n      mload(0x40)\n      swap1\n      dup2\n      mstore\n      return\n    tag_24:\n      jumpi(tag_108, callvalue)\n      jumpi(tag_108, slt(add(not(0x03), calldatasize), 0x00))\n        /* \"Updated Smart Contracts/SC_VC_Govt.sol\":3335:3365  require(_party != govt, \"RR2\") */\n      tag_467\n        /* \"Updated Smart Contracts/SC_VC_Govt.sol\":74:17119  contract SC_VC_Govt... */\n      0x01\n      dup1\n      0xa0\n      shl\n      sub\n      sload(0x00)\n      and\n        /* \"Updated Smart Contracts/SC_VC_Govt.sol\":11003:11013  msg.sender */\n      caller\n        /* \"Updated Smart Contracts/SC_VC_Govt.sol\":3343:3357  _party != govt */\n      eq\n      iszero\n        /* \"Updated Smart Contracts/SC_VC_Govt.sol\":3335:3365  require(_party != govt, \"RR2\") */\n      tag_4\n      jump\t// in\n    tag_467:\n        /* \"Updated Smart Contracts/SC_VC_Govt.sol\":11003:11013  msg.sender */\n      caller\n        /* \"Updated Smart Contracts/SC_VC_Govt.sol\":74:17119  contract SC_VC_Govt... */\n      0x00\n      mstore\n      0x20\n        /* \"Updated Smart Contracts/SC_VC_Govt.sol\":11059:11071  vcAddrTovcID */\n      0x05\n        /* \"Updated Smart Contracts/SC_VC_Govt.sol\":74:17119  contract SC_VC_Govt... */\n      dup2\n      mstore\n      sload(keccak256(0x00, 0x40))\n        /* \"Updated Smart Contracts/SC_VC_Govt.sol\":11094:11121  require(_vcID != 0, \"RR14\") */\n      tag_468\n        /* \"Updated Smart Contracts/SC_VC_Govt.sol\":11102:11112  _vcID != 0 */\n      dup2\n      iszero\n      iszero\n        /* \"Updated Smart Contracts/SC_VC_Govt.sol\":11094:11121  require(_vcID != 0, \"RR14\") */\n      tag_5\n      jump\t// in\n    tag_468:\n        /* \"Updated Smart Contracts/SC_VC_Govt.sol\":74:17119  contract SC_VC_Govt... */\n      dup1\n      0x00\n      mstore\n        /* \"Updated Smart Contracts/SC_VC_Govt.sol\":11147:11160  getVCFromvcID */\n      0x07\n        /* \"Updated Smart Contracts/SC_VC_Govt.sol\":74:17119  contract SC_VC_Govt... */\n      dup3\n      mstore\n      keccak256(0x00, 0x40)\n      swap2\n        /* \"Updated Smart Contracts/SC_VC_Govt.sol\":11178:11232  require(vc.no_of_vaccine_vials_remaining == 0, \"RR15\") */\n      tag_469\n        /* \"Updated Smart Contracts/SC_VC_Govt.sol\":74:17119  contract SC_VC_Govt... */\n      tag_470\n      tag_6\n      jump\t// in\n    tag_470:\n      swap4\n      dup1\n      sload\n      dup6\n      mstore\n      0x01\n      swap5\n      dup6\n      dup3\n      add\n      sload\n      dup5\n      dup3\n      add\n      mstore\n      0x60\n      0x03\n      0x02\n      dup5\n      add\n      sload\n      swap4\n      dup5\n      0x40\n      dup6\n      add\n      mstore\n      add\n      sload\n      swap2\n      add\n      mstore\n        /* \"Updated Smart Contracts/SC_VC_Govt.sol\":11186:11223  vc.no_of_vaccine_vials_remaining == 0 */\n      iszero\n        /* \"Updated Smart Contracts/SC_VC_Govt.sol\":11178:11232  require(vc.no_of_vaccine_vials_remaining == 0, \"RR15\") */\n      tag_9\n      jump\t// in\n    tag_469:\n        /* \"Updated Smart Contracts/SC_VC_Govt.sol\":74:17119  contract SC_VC_Govt... */\n      dup2\n      0x00\n      mstore\n        /* \"Updated Smart Contracts/SC_VC_Govt.sol\":11270:11294  latestVCRefillApplNumber */\n      0x09\n        /* \"Updated Smart Contracts/SC_VC_Govt.sol\":74:17119  contract SC_VC_Govt... */\n      dup2\n      mstore\n      sload(keccak256(0x00, 0x40))\n        /* \"Updated Smart Contracts/SC_VC_Govt.sol\":11346:11363  refillVaccineAppl */\n      0x08\n        /* \"Updated Smart Contracts/SC_VC_Govt.sol\":74:17119  contract SC_VC_Govt... */\n      dup3\n      mstore\n      keccak256(0x00, 0x40)\n      swap1\n      0x00\n      mstore\n      dup2\n      mstore\n      keccak256(0x00, 0x40)\n      tag_471\n      tag_7\n      jump\t// in\n    tag_471:\n      dup2\n      sload\n      dup2\n      mstore\n      dup5\n      dup3\n      add\n      sload\n      swap2\n      dup4\n      dup3\n      add\n      swap3\n      dup4\n      mstore\n      0x02\n      dup2\n      add\n      sload\n      0x40\n      dup4\n      add\n      mstore\n        /* \"Updated Smart Contracts/SC_VC_Govt.sol\":11059:11071  vcAddrTovcID */\n      0x05\n        /* \"Updated Smart Contracts/SC_VC_Govt.sol\":74:17119  contract SC_VC_Govt... */\n      0x03\n      dup3\n      add\n      sload\n      swap2\n      0x60\n      dup5\n      add\n      swap3\n      dup4\n      mstore\n      0xff\n      0x04\n      dup3\n      add\n      sload\n      and\n      iszero\n      iszero\n      0x80\n      dup6\n      add\n      mstore\n      add\n      sload\n      swap1\n      0xa0\n      dup4\n      add\n      swap2\n      dup3\n      mstore\n      dup6\n      0x00\n      mstore\n        /* \"Updated Smart Contracts/SC_VC_Govt.sol\":11402:11426  vcRefillApplUnderProcess */\n      0x0b\n        /* \"Updated Smart Contracts/SC_VC_Govt.sol\":74:17119  contract SC_VC_Govt... */\n      dup6\n      mstore\n      dup7\n      iszero(iszero(and(sload(keccak256(0x00, 0x40)), 0xff)))\n        /* \"Updated Smart Contracts/SC_VC_Govt.sol\":11402:11441  vcRefillApplUnderProcess[_vcID] == true */\n      eq\n        /* \"Updated Smart Contracts/SC_VC_Govt.sol\":11399:12284  if(vcRefillApplUnderProcess[_vcID] == true)... */\n      tag_472\n      jumpi\n        /* \"Updated Smart Contracts/SC_VC_Govt.sol\":74:17119  contract SC_VC_Govt... */\n    tag_473:\n      pop\n      pop\n      pop\n      pop\n      dup2\n      0x00\n      mstore\n        /* \"Updated Smart Contracts/SC_VC_Govt.sol\":11402:11426  vcRefillApplUnderProcess */\n      0x0b\n        /* \"Updated Smart Contracts/SC_VC_Govt.sol\":74:17119  contract SC_VC_Govt... */\n      dup2\n      mstore\n      jumpi(tag_474, and(sload(keccak256(0x00, 0x40)), 0xff))\n        /* \"Updated Smart Contracts/SC_VC_Govt.sol\":12429:12455  refillApplIDGenerator += 1 */\n      0x12\n        /* \"Updated Smart Contracts/SC_VC_Govt.sol\":74:17119  contract SC_VC_Govt... */\n      sload\n      swap2\n      dup4\n      dup4\n      add\n      dup1\n      swap4\n      gt\n      tag_177\n      jumpi\n      dup3\n        /* \"Updated Smart Contracts/SC_VC_Govt.sol\":11402:11426  vcRefillApplUnderProcess */\n      0x0b\n        /* \"Updated Smart Contracts/SC_VC_Govt.sol\":74:17119  contract SC_VC_Govt... */\n      swap4\n        /* \"Updated Smart Contracts/SC_VC_Govt.sol\":12429:12455  refillApplIDGenerator += 1 */\n      0x12\n        /* \"Updated Smart Contracts/SC_VC_Govt.sol\":74:17119  contract SC_VC_Govt... */\n      sstore\n      dup2\n      0x00\n      mstore\n        /* \"Updated Smart Contracts/SC_VC_Govt.sol\":11346:11363  refillVaccineAppl */\n      0x08\n        /* \"Updated Smart Contracts/SC_VC_Govt.sol\":74:17119  contract SC_VC_Govt... */\n      dup4\n      mstore\n      keccak256(0x00, 0x40)\n      dup2\n      0x00\n      mstore\n      dup4\n      mstore\n        /* \"Updated Smart Contracts/SC_VC_Govt.sol\":11059:11071  vcAddrTovcID */\n      0x05\n        /* \"Updated Smart Contracts/SC_VC_Govt.sol\":74:17119  contract SC_VC_Govt... */\n      keccak256(0x00, 0x40)\n      swap2\n      tag_478\n      tag_479\n      tag_7\n      jump\t// in\n    tag_479:\n      swap4\n      dup9\n      dup2\n      add\n      sload\n      dup8\n      dup7\n      add\n      swap1\n      dup2\n      mstore\n      0x02\n      dup3\n      add\n      sload\n      0x40\n      dup8\n      add\n      swap1\n      dup2\n      mstore\n      0x03\n      dup4\n      add\n      sload\n      swap2\n      0x60\n      dup9\n      add\n      swap3\n      dup4\n      mstore\n      dup7\n      0xff\n      0x04\n      dup7\n      add\n      sload\n      and\n      swap5\n      0x80\n      dup11\n      add\n      swap6\n      iszero\n      iszero\n      dup7\n      mstore\n      add\n      sload\n      swap6\n      0xa0\n      dup10\n      add\n      swap7\n      dup8\n      mstore\n        /* \"Updated Smart Contracts/SC_VC_Govt.sol\":12584:12599  block.timestamp */\n      timestamp\n        /* \"Updated Smart Contracts/SC_VC_Govt.sol\":74:17119  contract SC_VC_Govt... */\n      dup10\n      mstore\n      dup10\n      0x00\n      mstore\n        /* \"Updated Smart Contracts/SC_VC_Govt.sol\":11346:11363  refillVaccineAppl */\n      0x08\n        /* \"Updated Smart Contracts/SC_VC_Govt.sol\":74:17119  contract SC_VC_Govt... */\n      dup12\n      mstore\n      keccak256(0x00, 0x40)\n      swap1\n      0x00\n      mstore\n      dup11\n      mstore\n      keccak256(0x00, 0x40)\n      swap8\n      mload\n      dup9\n      sstore\n      mload\n      dup12\n      dup9\n      add\n      sstore\n      mload\n      0x02\n      dup8\n      add\n      sstore\n      mload\n      0x03\n      dup7\n      add\n      sstore\n      mload\n      iszero\n      iszero\n      0x04\n      dup6\n      add\n      swap1\n      0xff\n      dup1\n      not\n      dup4\n      sload\n      and\n      swap2\n      iszero\n      iszero\n      and\n      or\n      swap1\n      sstore\n      jump\n    tag_478:\n      mload\n      swap2\n      add\n      sstore\n        /* \"Updated Smart Contracts/SC_VC_Govt.sol\":12429:12455  refillApplIDGenerator += 1 */\n      0x12\n        /* \"Updated Smart Contracts/SC_VC_Govt.sol\":74:17119  contract SC_VC_Govt... */\n      sload\n      0x00\n      mstore\n        /* \"Updated Smart Contracts/SC_VC_Govt.sol\":12672:12693  vcRefillApplBelongsTo */\n      0x0a\n        /* \"Updated Smart Contracts/SC_VC_Govt.sol\":74:17119  contract SC_VC_Govt... */\n      dup3\n      mstore\n      dup1\n      keccak256(0x00, 0x40)\n      sstore\n        /* \"Updated Smart Contracts/SC_VC_Govt.sol\":12429:12455  refillApplIDGenerator += 1 */\n      0x12\n        /* \"Updated Smart Contracts/SC_VC_Govt.sol\":74:17119  contract SC_VC_Govt... */\n      sload\n      swap1\n      0x00\n      mstore\n        /* \"Updated Smart Contracts/SC_VC_Govt.sol\":11270:11294  latestVCRefillApplNumber */\n      0x09\n        /* \"Updated Smart Contracts/SC_VC_Govt.sol\":74:17119  contract SC_VC_Govt... */\n      dup3\n      mstore\n      keccak256(0x00, 0x40)\n      sstore\n      mstore\n      keccak256(0x00, 0x40)\n      swap1\n      not(0xff)\n      dup3\n      sload\n      and\n      or\n      swap1\n      sstore\n      0x00\n      dup1\n      return\n    tag_474:\n      0x64\n      swap1\n      mload(0x40)\n      swap1\n      shl(0xe5, 0x461bcd)\n      dup3\n      mstore\n      0x04\n      dup3\n      add\n      mstore\n      0x04\n      0x24\n      dup3\n      add\n      mstore\n      shl(0xe1, 0x2929189b)\n      0x44\n      dup3\n      add\n      mstore\n      revert\n        /* \"Updated Smart Contracts/SC_VC_Govt.sol\":11399:12284  if(vcRefillApplUnderProcess[_vcID] == true)... */\n    tag_472:\n        /* \"Updated Smart Contracts/SC_VC_Govt.sol\":11579:11620  block.timestamp - x.timestamp_refill_Appl */\n      tag_480\n        /* \"Updated Smart Contracts/SC_VC_Govt.sol\":2851:2862  300 seconds */\n      swap3\n      0x012c\n        /* \"Updated Smart Contracts/SC_VC_Govt.sol\":74:17119  contract SC_VC_Govt... */\n      swap4\n      dup5\n      swap2\n      mload\n        /* \"Updated Smart Contracts/SC_VC_Govt.sol\":11579:11594  block.timestamp */\n      timestamp\n        /* \"Updated Smart Contracts/SC_VC_Govt.sol\":11579:11620  block.timestamp - x.timestamp_refill_Appl */\n      tag_10\n      jump\t// in\n    tag_480:\n        /* \"Updated Smart Contracts/SC_VC_Govt.sol\":11578:11631  (block.timestamp - x.timestamp_refill_Appl)>timeLimit */\n      gt\n        /* \"Updated Smart Contracts/SC_VC_Govt.sol\":11578:11670  (block.timestamp - x.timestamp_refill_Appl)>timeLimit && x.timestamp_commit_vaccine_set == 0 */\n      dup1\n      tag_481\n      jumpi\n        /* \"Updated Smart Contracts/SC_VC_Govt.sol\":11399:12284  if(vcRefillApplUnderProcess[_vcID] == true)... */\n    tag_482:\n        /* \"Updated Smart Contracts/SC_VC_Govt.sol\":11575:11759  if((block.timestamp - x.timestamp_refill_Appl)>timeLimit && x.timestamp_commit_vaccine_set == 0)... */\n      tag_483\n      jumpi\n        /* \"Updated Smart Contracts/SC_VC_Govt.sol\":11399:12284  if(vcRefillApplUnderProcess[_vcID] == true)... */\n    tag_484:\n        /* \"Updated Smart Contracts/SC_VC_Govt.sol\":74:17119  contract SC_VC_Govt... */\n      mload\n        /* \"Updated Smart Contracts/SC_VC_Govt.sol\":11852:11887  x.timestamp_commit_vaccine_set != 0 */\n      swap2\n      dup3\n      iszero\n      iszero\n        /* \"Updated Smart Contracts/SC_VC_Govt.sol\":11852:11951  x.timestamp_commit_vaccine_set != 0 && (block.timestamp - x.timestamp_commit_vaccine_set)>timeLimit */\n      swap3\n      dup4\n      tag_485\n      jumpi\n        /* \"Updated Smart Contracts/SC_VC_Govt.sol\":11399:12284  if(vcRefillApplUnderProcess[_vcID] == true)... */\n    tag_486:\n        /* \"Updated Smart Contracts/SC_VC_Govt.sol\":11852:11988  x.timestamp_commit_vaccine_set != 0 && (block.timestamp - x.timestamp_commit_vaccine_set)>timeLimit && x.timestamp_accept_vaccine_set==0 */\n      pop\n      pop\n      dup2\n      tag_487\n      jumpi\n        /* \"Updated Smart Contracts/SC_VC_Govt.sol\":11399:12284  if(vcRefillApplUnderProcess[_vcID] == true)... */\n    tag_488:\n        /* \"Updated Smart Contracts/SC_VC_Govt.sol\":11849:12273  if(x.timestamp_commit_vaccine_set != 0 && (block.timestamp - x.timestamp_commit_vaccine_set)>timeLimit && x.timestamp_accept_vaccine_set==0)... */\n      pop\n      tag_489\n      jumpi\n        /* \"Updated Smart Contracts/SC_VC_Govt.sol\":11399:12284  if(vcRefillApplUnderProcess[_vcID] == true)... */\n    tag_490:\n      dup1\n      dup1\n      dup1\n      jump(tag_473)\n        /* \"Updated Smart Contracts/SC_VC_Govt.sol\":11849:12273  if(x.timestamp_commit_vaccine_set != 0 && (block.timestamp - x.timestamp_commit_vaccine_set)>timeLimit && x.timestamp_accept_vaccine_set==0)... */\n    tag_489:\n        /* \"Updated Smart Contracts/SC_VC_Govt.sol\":74:17119  contract SC_VC_Govt... */\n      dup3\n      0x00\n      mstore\n        /* \"Updated Smart Contracts/SC_VC_Govt.sol\":11402:11426  vcRefillApplUnderProcess */\n      0x0b\n        /* \"Updated Smart Contracts/SC_VC_Govt.sol\":74:17119  contract SC_VC_Govt... */\n      dup3\n      mstore\n      keccak256(0x00, 0x40)\n      not(0xff)\n      dup2\n      sload\n      and\n      swap1\n      sstore\n      dup1\n      mload\n        /* \"Updated Smart Contracts/SC_VC_Govt.sol\":2919:2927  1000 wei */\n      swap1\n      0x03e8\n        /* \"Updated Smart Contracts/SC_VC_Govt.sol\":74:17119  contract SC_VC_Govt... */\n      swap2\n      dup3\n      dup2\n      mul\n      swap1\n      dup1\n      dup3\n      div\n      dup5\n      eq\n      swap1\n      iszero\n      or\n      iszero\n      tag_177\n      jumpi\n      dup5\n      0x00\n      mstore\n        /* \"Updated Smart Contracts/SC_VC_Govt.sol\":12080:12104  amountToBeRefundedToGovt */\n      0x0f\n        /* \"Updated Smart Contracts/SC_VC_Govt.sol\":74:17119  contract SC_VC_Govt... */\n      dup5\n      mstore\n        /* \"Updated Smart Contracts/SC_VC_Govt.sol\":12080:12159  amountToBeRefundedToGovt[_vcID] += x.cardinality_of_set*perVaccineServiceCharge */\n      tag_493\n        /* \"Updated Smart Contracts/SC_VC_Govt.sol\":74:17119  contract SC_VC_Govt... */\n      keccak256(0x00, 0x40)\n      swap2\n      dup3\n      sload\n        /* \"Updated Smart Contracts/SC_VC_Govt.sol\":12080:12159  amountToBeRefundedToGovt[_vcID] += x.cardinality_of_set*perVaccineServiceCharge */\n      tag_12\n      jump\t// in\n    tag_493:\n        /* \"Updated Smart Contracts/SC_VC_Govt.sol\":74:17119  contract SC_VC_Govt... */\n      swap1\n      sstore\n      mload\n      dup2\n      dup2\n      mul\n      swap2\n      dup2\n      dup4\n      div\n      eq\n      swap1\n      iszero\n      or\n      iszero\n      tag_177\n      jumpi\n      dup3\n      0x00\n      mstore\n        /* \"Updated Smart Contracts/SC_VC_Govt.sol\":12178:12202  lockedServiceChargeForVC */\n      0x0e\n        /* \"Updated Smart Contracts/SC_VC_Govt.sol\":74:17119  contract SC_VC_Govt... */\n      dup3\n      mstore\n        /* \"Updated Smart Contracts/SC_VC_Govt.sol\":12178:12257  lockedServiceChargeForVC[_vcID] -= x.cardinality_of_set*perVaccineServiceCharge */\n      tag_496\n        /* \"Updated Smart Contracts/SC_VC_Govt.sol\":74:17119  contract SC_VC_Govt... */\n      keccak256(0x00, 0x40)\n      swap2\n      dup3\n      sload\n        /* \"Updated Smart Contracts/SC_VC_Govt.sol\":12178:12257  lockedServiceChargeForVC[_vcID] -= x.cardinality_of_set*perVaccineServiceCharge */\n      tag_10\n      jump\t// in\n    tag_496:\n        /* \"Updated Smart Contracts/SC_VC_Govt.sol\":74:17119  contract SC_VC_Govt... */\n      swap1\n      sstore\n        /* \"Updated Smart Contracts/SC_VC_Govt.sol\":11849:12273  if(x.timestamp_commit_vaccine_set != 0 && (block.timestamp - x.timestamp_commit_vaccine_set)>timeLimit && x.timestamp_accept_vaccine_set==0)... */\n      dup4\n      jump(tag_490)\n        /* \"Updated Smart Contracts/SC_VC_Govt.sol\":11852:11988  x.timestamp_commit_vaccine_set != 0 && (block.timestamp - x.timestamp_commit_vaccine_set)>timeLimit && x.timestamp_accept_vaccine_set==0 */\n    tag_487:\n        /* \"Updated Smart Contracts/SC_VC_Govt.sol\":74:17119  contract SC_VC_Govt... */\n      swap1\n      pop\n      mload\n        /* \"Updated Smart Contracts/SC_VC_Govt.sol\":11955:11988  x.timestamp_accept_vaccine_set==0 */\n      iszero\n        /* \"Updated Smart Contracts/SC_VC_Govt.sol\":11852:11988  x.timestamp_commit_vaccine_set != 0 && (block.timestamp - x.timestamp_commit_vaccine_set)>timeLimit && x.timestamp_accept_vaccine_set==0 */\n      dup6\n      jump(tag_488)\n        /* \"Updated Smart Contracts/SC_VC_Govt.sol\":11852:11951  x.timestamp_commit_vaccine_set != 0 && (block.timestamp - x.timestamp_commit_vaccine_set)>timeLimit */\n    tag_485:\n        /* \"Updated Smart Contracts/SC_VC_Govt.sol\":11892:11940  block.timestamp - x.timestamp_commit_vaccine_set */\n      tag_497\n        /* \"Updated Smart Contracts/SC_VC_Govt.sol\":11579:11594  block.timestamp */\n      swap2\n      swap3\n      swap4\n      pop\n      timestamp\n        /* \"Updated Smart Contracts/SC_VC_Govt.sol\":11892:11940  block.timestamp - x.timestamp_commit_vaccine_set */\n      tag_10\n      jump\t// in\n    tag_497:\n        /* \"Updated Smart Contracts/SC_VC_Govt.sol\":11891:11951  (block.timestamp - x.timestamp_commit_vaccine_set)>timeLimit */\n      gt\n        /* \"Updated Smart Contracts/SC_VC_Govt.sol\":11852:11951  x.timestamp_commit_vaccine_set != 0 && (block.timestamp - x.timestamp_commit_vaccine_set)>timeLimit */\n      swap1\n      dup7\n      dup1\n      jump(tag_486)\n        /* \"Updated Smart Contracts/SC_VC_Govt.sol\":11575:11759  if((block.timestamp - x.timestamp_refill_Appl)>timeLimit && x.timestamp_commit_vaccine_set == 0)... */\n    tag_483:\n        /* \"Updated Smart Contracts/SC_VC_Govt.sol\":74:17119  contract SC_VC_Govt... */\n      dup6\n      0x00\n      mstore\n        /* \"Updated Smart Contracts/SC_VC_Govt.sol\":11402:11426  vcRefillApplUnderProcess */\n      0x0b\n        /* \"Updated Smart Contracts/SC_VC_Govt.sol\":74:17119  contract SC_VC_Govt... */\n      dup6\n      mstore\n      keccak256(0x00, 0x40)\n      not(0xff)\n      dup2\n      sload\n      and\n      swap1\n      sstore\n        /* \"Updated Smart Contracts/SC_VC_Govt.sol\":11575:11759  if((block.timestamp - x.timestamp_refill_Appl)>timeLimit && x.timestamp_commit_vaccine_set == 0)... */\n      jump(tag_484)\n        /* \"Updated Smart Contracts/SC_VC_Govt.sol\":11578:11670  (block.timestamp - x.timestamp_refill_Appl)>timeLimit && x.timestamp_commit_vaccine_set == 0 */\n    tag_481:\n        /* \"Updated Smart Contracts/SC_VC_Govt.sol\":74:17119  contract SC_VC_Govt... */\n      pop\n      dup1\n      mload\n        /* \"Updated Smart Contracts/SC_VC_Govt.sol\":11635:11670  x.timestamp_commit_vaccine_set == 0 */\n      iszero\n        /* \"Updated Smart Contracts/SC_VC_Govt.sol\":11578:11670  (block.timestamp - x.timestamp_refill_Appl)>timeLimit && x.timestamp_commit_vaccine_set == 0 */\n      jump(tag_482)\n        /* \"Updated Smart Contracts/SC_VC_Govt.sol\":74:17119  contract SC_VC_Govt... */\n    tag_22:\n      jumpi(tag_108, callvalue)\n      jumpi(tag_108, slt(add(not(0x03), calldatasize), 0x00))\n      0x20\n        /* \"Updated Smart Contracts/SC_VC_Govt.sol\":17085:17106  address(this).balance */\n      swap1\n      selfbalance\n        /* \"Updated Smart Contracts/SC_VC_Govt.sol\":74:17119  contract SC_VC_Govt... */\n      dup2\n      mstore\n      return\n    tag_1:\n      calldataload(0x04)\n      swap1\n      sub(shl(0xa0, 0x01), 0x01)\n      dup3\n      and\n      dup3\n      sub\n      tag_108\n      jumpi\n      jump\t// out\n    tag_2:\n      calldataload(0x04)\n      swap1\n      dup2\n      iszero\n      iszero\n      dup3\n      sub\n      tag_108\n      jumpi\n      jump\t// out\n    tag_4:\n      iszero\n      tag_506\n      jumpi\n      jump\t// out\n    tag_506:\n      mload(0x40)\n      shl(0xe5, 0x461bcd)\n      dup2\n      mstore\n      0x20\n      0x04\n      dup3\n      add\n      mstore\n      0x03\n      0x24\n      dup3\n      add\n      mstore\n      shl(0xe9, 0x292919)\n      0x44\n      dup3\n      add\n      mstore\n      0x64\n      swap1\n      revert\n    tag_5:\n      iszero\n      tag_508\n      jumpi\n      jump\t// out\n    tag_508:\n      0x64\n      mload(0x40)\n      shl(0xe5, 0x461bcd)\n      dup2\n      mstore\n      0x20\n      0x04\n      dup3\n      add\n      mstore\n      0x04\n      0x24\n      dup3\n      add\n      mstore\n      shl(0xe2, 0x14948c4d)\n      0x44\n      dup3\n      add\n      mstore\n      revert\n    tag_6:\n      mload(0x40)\n      swap1\n      0x80\n      dup3\n      add\n      dup3\n      dup2\n      lt\n      0xffffffffffffffff\n      dup3\n      gt\n      or\n      tag_510\n      jumpi\n      0x40\n      mstore\n      jump\t// out\n    tag_510:\n      mstore(0x00, shl(0xe0, 0x4e487b71))\n      mstore(0x04, 0x41)\n      revert(0x00, 0x24)\n    tag_7:\n      mload(0x40)\n      swap1\n      0xc0\n      dup3\n      add\n      dup3\n      dup2\n      lt\n      0xffffffffffffffff\n      dup3\n      gt\n      or\n      tag_510\n      jumpi\n      0x40\n      mstore\n      jump\t// out\n    tag_8:\n      mload(0x40)\n      swap1\n      0x0100\n      dup3\n      add\n      dup3\n      dup2\n      lt\n      0xffffffffffffffff\n      dup3\n      gt\n      or\n      tag_510\n      jumpi\n      0x40\n      mstore\n      jump\t// out\n    tag_9:\n      iszero\n      tag_516\n      jumpi\n      jump\t// out\n    tag_516:\n      0x64\n      mload(0x40)\n      shl(0xe5, 0x461bcd)\n      dup2\n      mstore\n      0x20\n      0x04\n      dup3\n      add\n      mstore\n      0x04\n      0x24\n      dup3\n      add\n      mstore\n      shl(0xe0, 0x52523135)\n      0x44\n      dup3\n      add\n      mstore\n      revert\n    tag_10:\n      swap2\n      swap1\n      dup3\n      sub\n      swap2\n      dup3\n      gt\n      tag_177\n      jumpi\n      jump\t// out\n    tag_12:\n      swap2\n      swap1\n      dup3\n      add\n      dup1\n      swap3\n      gt\n      tag_177\n      jumpi\n      jump\t// out\n    tag_13:\n      iszero\n      tag_522\n      jumpi\n      jump\t// out\n    tag_522:\n      mload(0x40)\n      shl(0xe5, 0x461bcd)\n      dup2\n      mstore\n      0x20\n      0x04\n      dup3\n      add\n      mstore\n      0x03\n      0x24\n      dup3\n      add\n      mstore\n      shl(0xe8, 0x525231)\n      0x44\n      dup3\n      add\n      mstore\n      0x64\n      swap1\n      revert\n    tag_14:\n      iszero\n      tag_524\n      jumpi\n      jump\t// out\n    tag_524:\n      0x64\n      mload(0x40)\n      shl(0xe5, 0x461bcd)\n      dup2\n      mstore\n      0x20\n      0x04\n      dup3\n      add\n      mstore\n      0x04\n      0x24\n      dup3\n      add\n      mstore\n      shl(0xe0, 0x52523137)\n      0x44\n      dup3\n      add\n      mstore\n      revert\n    tag_15:\n      iszero\n      tag_526\n      jumpi\n      jump\t// out\n    tag_526:\n      0x64\n      mload(0x40)\n      shl(0xe5, 0x461bcd)\n      dup2\n      mstore\n      0x20\n      0x04\n      dup3\n      add\n      mstore\n      0x04\n      0x24\n      dup3\n      add\n      mstore\n      shl(0xe0, 0x52523139)\n      0x44\n      dup3\n      add\n      mstore\n      revert\n    tag_16:\n      iszero\n      tag_528\n      jumpi\n      jump\t// out\n    tag_528:\n      mload(0x40)\n      shl(0xe5, 0x461bcd)\n      dup2\n      mstore\n      0x20\n      0x04\n      dup3\n      add\n      mstore\n      0x03\n      0x24\n      dup3\n      add\n      mstore\n      shl(0xeb, 0x0a4a47)\n      0x44\n      dup3\n      add\n      mstore\n      0x64\n      swap1\n      revert\n    tag_17:\n      iszero\n      tag_530\n      jumpi\n      jump\t// out\n    tag_530:\n      mload(0x40)\n      shl(0xe5, 0x461bcd)\n      dup2\n      mstore\n      0x20\n      0x04\n      dup3\n      add\n      mstore\n      0x03\n      0x24\n      dup3\n      add\n      mstore\n      shl(0xe8, 0x525233)\n      0x44\n      dup3\n      add\n      mstore\n      0x64\n      swap1\n      revert\n    tag_18:\n      iszero\n      tag_532\n      jumpi\n      jump\t// out\n    tag_532:\n      mload(0x40)\n      shl(0xe5, 0x461bcd)\n      dup2\n      mstore\n      0x20\n      0x04\n      dup3\n      add\n      mstore\n      0x03\n      0x24\n      dup3\n      add\n      mstore\n      shl(0xe8, 0x525235)\n      0x44\n      dup3\n      add\n      mstore\n      0x64\n      swap1\n      revert\n        /* \"Updated Smart Contracts/SC_VC_Govt.sol\":4028:4261  function isValidVC(uint256 _vcID) external view returns(bool)... */\n    tag_19:\n        /* \"Updated Smart Contracts/SC_VC_Govt.sol\":4109:4116  _vcID>0 */\n      dup1\n      iszero\n      iszero\n        /* \"Updated Smart Contracts/SC_VC_Govt.sol\":4109:4140  _vcID>0 && _vcID<=vcIDGenerator */\n      swap1\n      dup2\n      tag_534\n      jumpi\n        /* \"Updated Smart Contracts/SC_VC_Govt.sol\":4028:4261  function isValidVC(uint256 _vcID) external view returns(bool)... */\n    tag_535:\n      pop\n        /* \"Updated Smart Contracts/SC_VC_Govt.sol\":4106:4254  if(_vcID>0 && _vcID<=vcIDGenerator)... */\n      iszero\n      tag_536\n      jumpi\n        /* \"Updated Smart Contracts/SC_VC_Govt.sol\":4173:4177  true */\n      0x01\n        /* \"Updated Smart Contracts/SC_VC_Govt.sol\":4166:4178  return(true) */\n      swap1\n      jump\t// out\n        /* \"Updated Smart Contracts/SC_VC_Govt.sol\":4106:4254  if(_vcID>0 && _vcID<=vcIDGenerator)... */\n    tag_536:\n        /* \"Updated Smart Contracts/SC_VC_Govt.sol\":4115:4116  0 */\n      0x00\n        /* \"Updated Smart Contracts/SC_VC_Govt.sol\":4229:4242  return(false) */\n      swap1\n      jump\t// out\n        /* \"Updated Smart Contracts/SC_VC_Govt.sol\":4109:4140  _vcID>0 && _vcID<=vcIDGenerator */\n    tag_534:\n        /* \"Updated Smart Contracts/SC_VC_Govt.sol\":74:17119  contract SC_VC_Govt... */\n      swap1\n      pop\n        /* \"Updated Smart Contracts/SC_VC_Govt.sol\":4127:4140  vcIDGenerator */\n      0x13\n        /* \"Updated Smart Contracts/SC_VC_Govt.sol\":74:17119  contract SC_VC_Govt... */\n      sload\n      lt\n        /* \"Updated Smart Contracts/SC_VC_Govt.sol\":4120:4140  _vcID<=vcIDGenerator */\n      iszero\n        /* \"Updated Smart Contracts/SC_VC_Govt.sol\":4109:4140  _vcID>0 && _vcID<=vcIDGenerator */\n      codesize\n      jump(tag_535)\n\n    auxdata: 0xa2646970667358221220cf8c2bb08eb21b39afbc0d3f70d28ea6deff4c4b7609743eef2a99f79c6984d564736f6c63430008160033\n}\n",
				"bytecode": {
					"linkReferences": {},
					"object": "6080806040523461003c576000601181905560128190556013819055601481905580546001600160a01b0319163317905561222190816100428239f35b600080fdfe608080604052600436101561001357600080fd5b60e0600035811c91826312065fe014611f33575081631aaaf8a314611beb5781631abb3cb314611bbf5781631c598771146104145781631cc48983146114d057816320992ee614610ffb57816324913a2614611b8b5781632d6ba1ee1461194b578163308098991461186d5781633616a4fc146114ed5781634163c6a9146114d05781634598e9db146114325781634667fab2146113fa5781634acc3b94146113ce5781634b230744146113a25781634c5fe3ba146110535781634ee00c0014611035578163521105af14610ffb5781635d840c3d14610f8557816362c419ae14610f465781636dcbd95714610f1a57816374cb291814610cd35781638f9e0f5814610c845781639a6114f814610c535781639b8ade1614610c35578163a596bdb014610bfb578163af223ac214610910578163af7f659d146108e4578163b3c00500146108c6578163b4b89ffb146106d5578163b4cd7689146106b7578163bd1a7c731461044857508063bf96ce3214610414578063c08d1fe5146103f7578063c50ff426146103ce578063cde20b0514610395578063d4f5ce461461036d578063d9382c1b14610271578063e6da13e51461031e578063ee95f27e1461029a578063f0abda5d146102715763f888ee02146101ef57600080fd5b3461026c57602036600319011261026c57600435600052600d6020526040600020610218611fd5565b906102686060825492838552600181015494856020820152600360028301549283604084015201549283910152604051948594859094939260609260808301968352602083015260408201520152565b0390f35b600080fd5b3461026c57600036600319011261026c576000546040516001600160a01b039091168152602090f35b3461026c57604036600319011261026c5760243560ff811680910361026c57600281116102ff5760038110156102e957600435600052601060205260406000209060ff19825416179055600080f35b634e487b7160e01b600052602160045260246000fd5b60405162461bcd60e51b81526020600482015260006024820152604490fd5b3461026c57602036600319011261026c576004356000908152600d6020908152604091829020805460018201546002830154600390930154855192835293820152928301526060820152608090f35b3461026c57602036600319011261026c57602061038b6004356121c4565b6040519015158152f35b3461026c57602036600319011261026c57600435600052601060205260ff6040600020541660038110156102e957602090604051908152f35b3461026c57602036600319011261026c5760043560005260076020526040600020610218611fd5565b3461026c57600036600319011261026c57602060405161012c8152f35b3461026c57602036600319011261026c576004356000526006602052602060018060a01b0360406000205416604051908152f35b3461026c5760208060031936011261026c57610462611f62565b61047860018060a01b0360005416331415611f71565b336000526002825260406000205490600193848452604060002083600052845260406000206104a561202b565b9381548552868201549386860194855260028301546040870190815260ff600385015416906060880191151582526004850154916080890192835260ff6005870154169360a08a019415158552600760068801549760c08c019889520154978a019788523360005260058b5261052060406000205415612160565b3360005260038b5261053d8c60ff60406000205416151514612192565b82511561068c578351610661578b9061056461012c61055d86514261207e565b111561212e565b15158083524285520361063757601154918b8301809311610621578b6007996105ef9760049e8e876105d2986011558d525b33600052526040600020906000528d5260406000209b518c5551908b01555160028a0155511515600389019060ff801983541691151516179055565b5188870155511515600586019060ff801983541691151516179055565b51600684015551910155601154600052526040600020336bffffffffffffffffffffffff60a01b825416179055600080f35b634e487b7160e01b600052601160045260246000fd5b6105d2918b6007996105ef9760049e8e3360005260038152604060002060ff198154169055610596565b60405162461bcd60e51b815260048082018d90526024820152630525231360e41b6044820152606490fd5b60405162461bcd60e51b8152600481018c9052600360248201526252523960e81b6044820152606490fd5b3461026c57600036600319011261026c576020601454604051908152f35b3461026c57604036600319011261026c576106ee611f4c565b6000546001600160a01b0391906107089083163314612098565b1680600052602091600283526040600020549160018452604060002083600052845260406000209061073861202b565b9382548552600183015486860190815260028401546040870190815260ff600386015416916060880192151583526004860154936080890194855260ff6005880154169560a08a019615158752600760068901549860c08c01998a520154988a019889528060005260058b526107b360406000205415612160565b8060005260038b526107d1600160ff60406000205416151514612192565b89511561089b578351610870579161084693918a9b6108649897969461080061012c61055d60079f514261207e565b6024358452428552600052600181526040600020916000525260406000209a518b555160018b01555160028a0155511515600389019060ff801983541691151516179055565b516004870155511515600586019060ff801983541691151516179055565b51600684015551910155005b60405162461bcd60e51b8152600481018c9052600360248201526252523760e81b6044820152606490fd5b60405162461bcd60e51b8152600481018c9052600360248201526229291b60e91b6044820152606490fd5b3461026c57600036600319011261026c576020601154604051908152f35b3461026c57602036600319011261026c57600435600052600a6020526020604060002054604051908152f35b3461026c57604036600319011261026c5760243580151580910361026c576000546001600160a01b0391906109489083163314612098565b6004356000526020916004835260406000205416908115610bd057816000526005835261097a60406000205415612160565b816000526003835260019361099a8560ff60406000205416151514612192565b826000526002845260406000205485855260406000208160005285526040600020906109c461202b565b93825485528783015487860190815260028401546040870190815260ff60038601541691606088019215158352600486015494608089019486865260ff6005890154169660a08b019715158852600760068a01549960c08d019a8b520154998b01998a5215610ba5578751610b7a578c90610a4661012c61055d89514261207e565b80885242895214610ac2575b92610aa2949260039c6108469360079a9998968e8e6000528381526040600020916000525260406000209b518c5551908b01555160028a01555115158b89019060ff801983541691151516179055565b5160068401555191015560005252604060002060ff198154169055600080f35b93919096959492601354918c83018093116106215760039c600799610aa2978e8e8761084698601355816000526005835280604060002055600052600682526040600020816bffffffffffffffffffffffff60a01b8254161790556013546003610b2a611fd5565b9180835284830160008152604084019060008252606085019260008452600052600787526040600020945185555189850155516002840155519101555050939698999a5093509c50929450610a52565b60405162461bcd60e51b815260048082018e90526024820152635252313360e01b6044820152606490fd5b60405162461bcd60e51b815260048082018e90526024820152632929189960e11b6044820152606490fd5b60405162461bcd60e51b815260048082018590526024820152635252313160e01b6044820152606490fd5b3461026c57602036600319011261026c576001600160a01b03610c1c611f4c565b1660005260026020526020604060002054604051908152f35b3461026c57600036600319011261026c576020601354604051908152f35b3461026c57602036600319011261026c57600435600052600b602052602060ff604060002054166040519015158152f35b3461026c57602036600319011261026c57600435600090815260076020908152604091829020805460018201546002830154600390930154855192835293820152928301526060820152608090f35b3461026c5760208060031936011261026c576004359060018060a01b03610cff81600054163314612098565b82151580610f0e575b610d11906120ca565b82600052600982526040600020548015610ee357836000526008835260406000209060005282526040600020610d4561200b565b90805482526001810154918481019283526002820154604082015260a0600560038401549384606085015260ff60048201541615156080850152015491019081528115159182610ecb575b5081610ead575b81610ea3575b50610e2b575b5082600052600f825260406000205415610e0057600080808093815416868252600f8652604082205490828215610df7575bf115610deb576000918252600f90526040812055005b6040513d6000823e3d90fd5b506108fc610dd5565b60405162461bcd60e51b815260048082018490526024820152635252323560e01b6044820152606490fd5b8051906103e891828102908082048414901517156106215785600052600f8552610e5b604060002091825461208b565b9055518181029181830414901517156106215783600052600e8352610e86604060002091825461207e565b905582600052600b8252604060002060ff19815416905583610da3565b9050511585610d9d565b905084600052600b8452600160ff6040600020541615151490610d97565b61012c919250610edb904261207e565b119086610d90565b60405162461bcd60e51b8152600480820185905260248201526314948c8d60e21b6044820152606490fd5b50601354831115610d08565b3461026c57602036600319011261026c5760043560005260096020526020604060002054604051908152f35b3461026c57602036600319011261026c576001600160a01b03610f67611f4c565b166000526003602052602060ff604060002054166040519015158152f35b3461026c57604036600319011261026c576004356000526008602052604060002060243560005260205260c060406000208054906001810154906002810154600382015490600560ff600485015416930154936040519586526020860152604085015260608401521515608083015260a0820152f35b3461026c57602036600319011261026c576001600160a01b0361101c611f4c565b1660005260056020526020604060002054604051908152f35b3461026c57600036600319011261026c576020601254604051908152f35b3461026c57600036600319011261026c5761107a60018060a01b0360005416331415611f71565b3360005260209060028252604060002054916001808252604060002084600052825260406000206110a961202b565b81548152828201548482015260028201546040820190815260ff91600393838582015416151560608301526004810154916080810192835284600583015416151560a0820152600760068301549260c08301938452015489820152336000526005885261111b60406000205415612160565b33600052858852868560406000205416151514611278575b5050505033600052818452806040600020541661124f578286018096116106215760078484611224600298846108468c9733600052858752604060002089600052875260406000208a61118461202b565b9a8b99898b9a988b99988660a0898d9c8d9a015498878b01998a5260026040908501549b019a8b52830154169960608d019a15158b52608060048401549d019c8d526005830154169c019b15158c5260c060068201549e019d8e5201549c019b8c528d4290523360005281526040600020916000525260406000209a518b55518c8b0155518d8a01555115158989019060ff801983541691151516179055565b5160068401555191015533600052825260406000209060ff1982541617905552604060002055600080f35b606484836040519162461bcd60e51b8352600483015260248201526214948d60ea1b6044820152fd5b80518015159081611398575b81611382575b50611369575b805115158061135f575b80611356575b80611341575b611328575b511515928361131d575b5082611312575b82611308575b50816112f1575b506112d8575b86808080611133565b33600052818452604060002060ff1981541690556112cf565b61012c915061130190514261207e565b11876112c9565b51159150886112c2565b8151151592506112bc565b5115159250896112b5565b33600052858852604060002060ff1981541690556112ab565b5061012c61135085514261207e565b116112a6565b508251156112a0565b508351151561129a565b33600052858852604060002060ff198154169055611290565b61012c9150611391904261207e565b118b61128a565b8551159150611284565b3461026c57602036600319011261026c57600435600052600c6020526020604060002054604051908152f35b3461026c57602036600319011261026c57600435600052600e6020526020604060002054604051908152f35b3461026c57602036600319011261026c57600435600052601060205260ff6040600020541660405160038210156102e9576020918152f35b3461026c57604036600319011261026c57610100906001600160a01b03611457611f4c565b16600052600160205260406000206024356000526020526040600020805491600182015491600281015460ff60038301541660048301549060ff60058501541692600760068601549501549660405198895260208901526040880152151560608701526080860152151560a085015260c0840152820152f35b3461026c57600036600319011261026c5760206040516103e88152f35b3461026c57602036600319011261026c57611506611f62565b61151c60018060a01b0360005416331415611f71565b33600052600560205260406000205490611537821515611fa3565b81600052600760205260406000209061157b611551611fd5565b9280548452600181015460208501526003600282015491826040870152015460608501521561204c565b826000526009602052604060002054906115968215156120fc565b83600052600860205260406000208260005260205260406000209260056115bb61200b565b948054865260018101546020870152600281015460408701526003810154606087015260ff60048201541615156080870152015460a085015284600052600b602052611613600160ff604060002054161515146120fc565b60a08401516118425761163061012c61055d60608701514261207e565b84600052600e60205260406000205460208501516103e891828202918083048414901517156106215703611817578215156001036117af57506014546001810181116106215780600180920160145501600052600c60205284604060002055601454600360208601516040870151906116a7611fd5565b9380855260208501904282526040860192835260608601938452600052600d602052604060002094518555516001850155516002840155519101556014546020820152602084015160408201528460005260076020526003606060406000209280518455602081015160018501556040810151600285015501519101555b151560808301524260a0830152826000526008602052604060002090600052602052600560a06040600020928051845560208101516001850155604081015160028501556060810151600385015561179260808201511515600486019060ff801983541691151516179055565b01519101556000908152600b60205260409020805460ff19169055005b90506020840151818102908082048314901517156106215785600052600f6020526117e0604060002091825461208b565b905560208401518181029181830414901517156106215784600052600e602052611810604060002091825461207e565b9055611725565b606460405162461bcd60e51b81526020600482015260046024820152635252323360e01b6044820152fd5b606460405162461bcd60e51b81526020600482015260046024820152630525232360e41b6044820152fd5b3461026c5760208060031936011261026c576001600160a01b0361188f611f4c565b16906103e8916000808080868582f115610deb576000526005815260406000205491826000526007825260406000206118c6611fd5565b9181548352600182015491848401928352600360028201549160408601928352015460608501928184528101809111610621578252805160001981019390841161062157600e96600394835260005260078652604060002094518555516001850155516002840155519101555260406000208054906103e71982019182116106215755005b606036600319011261026c576004356044359061197360018060a01b03600054163314612098565b81151580611b7f575b611985906120ca565b8015611b545781600052602091600b83526119ac600160ff604060002054161515146120fc565b80600052600783526119ec60406000206119c4611fd5565b815481526001820154868201526060600360028401549384604085015201549101521561204c565b806000526009835260406000205491600884526040600020836000528452604060002090611a1861200b565b93825485526001830154868601908152600284015491604087019283526003850154956060880194878652600560ff6004890154169760808b01981515895201549760a08a01988952611b2957611a7661012c61055d8b514261207e565b6103e881026103e71982820401610621573403611afe5798816005999a611af8989796959493600052600e835234604060002055845260243585524286526000526008815260406000209160005252604060002097518855516001880155516002870155516003860155511515600485019060ff801983541691151516179055565b51910155005b60405162461bcd60e51b815260048082018c90526024820152632929191960e11b6044820152606490fd5b60405162461bcd60e51b815260048082018c90526024820152635252323160e01b6044820152606490fd5b606460405162461bcd60e51b81526020600482015260046024820152630a4a462760e31b6044820152fd5b5060135482111561197c565b3461026c57602036600319011261026c576004356000526004602052602060018060a01b0360406000205416604051908152f35b3461026c57602036600319011261026c57600435600052600f6020526020604060002054604051908152f35b3461026c57600036600319011261026c57611c1260018060a01b0360005416331415611f71565b33600052602060058152604060002054611c2d811515611fa3565b8060005260078252604060002091611c71611c46611fd5565b938054855260019485820154848201526060600360028401549384604085015201549101521561204c565b81600052600981526040600020546008825260406000209060005281526040600020611c9b61200b565b8154815284820154918382019283526002810154604083015260056003820154916060840192835260ff6004820154161515608085015201549060a0830191825285600052600b85528660ff60406000205416151514611e39575b5050505081600052600b815260ff60406000205416611e0e57601254918383018093116106215782600b93601255816000526008835260406000208160005283526005604060002091611dd3611d4a61200b565b9388810154878601908152600282015460408701908152600383015491606088019283528660ff6004860154169460808a01951515865201549560a089019687524289528960005260088b526040600020906000528a52604060002097518855518b880155516002870155516003860155511515600485019060ff801983541691151516179055565b51910155601254600052600a82528060406000205560125490600052600982526040600020555260406000209060ff19825416179055600080f35b6064906040519062461bcd60e51b8252600482015260046024820152632929189b60e11b6044820152fd5b611e4a9261012c938491514261207e565b1180611f2a575b611f10575b51918215159283611efa575b505081611ef0575b50611e78575b808080611cf6565b82600052600b8252604060002060ff1981541690558051906103e891828102908082048414901517156106215784600052600f8452611ebd604060002091825461208b565b9055518181029181830414901517156106215782600052600e8252611ee8604060002091825461207e565b905583611e70565b9050511585611e6a565b611f07919293504261207e565b11908680611e62565b85600052600b8552604060002060ff198154169055611e56565b50805115611e51565b3461026c57600036600319011261026c57602090478152f35b600435906001600160a01b038216820361026c57565b60043590811515820361026c57565b15611f7857565b60405162461bcd60e51b815260206004820152600360248201526229291960e91b6044820152606490fd5b15611faa57565b606460405162461bcd60e51b815260206004820152600460248201526314948c4d60e21b6044820152fd5b604051906080820182811067ffffffffffffffff821117611ff557604052565b634e487b7160e01b600052604160045260246000fd5b6040519060c0820182811067ffffffffffffffff821117611ff557604052565b60405190610100820182811067ffffffffffffffff821117611ff557604052565b1561205357565b606460405162461bcd60e51b81526020600482015260046024820152635252313560e01b6044820152fd5b9190820391821161062157565b9190820180921161062157565b1561209f57565b60405162461bcd60e51b815260206004820152600360248201526252523160e81b6044820152606490fd5b156120d157565b606460405162461bcd60e51b81526020600482015260046024820152635252313760e01b6044820152fd5b1561210357565b606460405162461bcd60e51b81526020600482015260046024820152635252313960e01b6044820152fd5b1561213557565b60405162461bcd60e51b81526020600482015260036024820152620a4a4760eb1b6044820152606490fd5b1561216757565b60405162461bcd60e51b815260206004820152600360248201526252523360e81b6044820152606490fd5b1561219957565b60405162461bcd60e51b815260206004820152600360248201526252523560e81b6044820152606490fd5b80151590816121de575b50156121d957600190565b600090565b90506013541015386121ce56fea2646970667358221220cf8c2bb08eb21b39afbc0d3f70d28ea6deff4c4b7609743eef2a99f79c6984d564736f6c63430008160033",
					"opcodes": "PUSH1 0x80 DUP1 PUSH1 0x40 MSTORE CALLVALUE PUSH2 0x3C JUMPI PUSH1 0x0 PUSH1 0x11 DUP2 SWAP1 SSTORE PUSH1 0x12 DUP2 SWAP1 SSTORE PUSH1 0x13 DUP2 SWAP1 SSTORE PUSH1 0x14 DUP2 SWAP1 SSTORE DUP1 SLOAD PUSH1 0x1 PUSH1 0x1 PUSH1 0xA0 SHL SUB NOT AND CALLER OR SWAP1 SSTORE PUSH2 0x2221 SWAP1 DUP2 PUSH2 0x42 DUP3 CODECOPY RETURN JUMPDEST PUSH1 0x0 DUP1 REVERT INVALID PUSH1 0x80 DUP1 PUSH1 0x40 MSTORE PUSH1 0x4 CALLDATASIZE LT ISZERO PUSH2 0x13 JUMPI PUSH1 0x0 DUP1 REVERT JUMPDEST PUSH1 0xE0 PUSH1 0x0 CALLDATALOAD DUP2 SHR SWAP2 DUP3 PUSH4 0x12065FE0 EQ PUSH2 0x1F33 JUMPI POP DUP2 PUSH4 0x1AAAF8A3 EQ PUSH2 0x1BEB JUMPI DUP2 PUSH4 0x1ABB3CB3 EQ PUSH2 0x1BBF JUMPI DUP2 PUSH4 0x1C598771 EQ PUSH2 0x414 JUMPI DUP2 PUSH4 0x1CC48983 EQ PUSH2 0x14D0 JUMPI DUP2 PUSH4 0x20992EE6 EQ PUSH2 0xFFB JUMPI DUP2 PUSH4 0x24913A26 EQ PUSH2 0x1B8B JUMPI DUP2 PUSH4 0x2D6BA1EE EQ PUSH2 0x194B JUMPI DUP2 PUSH4 0x30809899 EQ PUSH2 0x186D JUMPI DUP2 PUSH4 0x3616A4FC EQ PUSH2 0x14ED JUMPI DUP2 PUSH4 0x4163C6A9 EQ PUSH2 0x14D0 JUMPI DUP2 PUSH4 0x4598E9DB EQ PUSH2 0x1432 JUMPI DUP2 PUSH4 0x4667FAB2 EQ PUSH2 0x13FA JUMPI DUP2 PUSH4 0x4ACC3B94 EQ PUSH2 0x13CE JUMPI DUP2 PUSH4 0x4B230744 EQ PUSH2 0x13A2 JUMPI DUP2 PUSH4 0x4C5FE3BA EQ PUSH2 0x1053 JUMPI DUP2 PUSH4 0x4EE00C00 EQ PUSH2 0x1035 JUMPI DUP2 PUSH4 0x521105AF EQ PUSH2 0xFFB JUMPI DUP2 PUSH4 0x5D840C3D EQ PUSH2 0xF85 JUMPI DUP2 PUSH4 0x62C419AE EQ PUSH2 0xF46 JUMPI DUP2 PUSH4 0x6DCBD957 EQ PUSH2 0xF1A JUMPI DUP2 PUSH4 0x74CB2918 EQ PUSH2 0xCD3 JUMPI DUP2 PUSH4 0x8F9E0F58 EQ PUSH2 0xC84 JUMPI DUP2 PUSH4 0x9A6114F8 EQ PUSH2 0xC53 JUMPI DUP2 PUSH4 0x9B8ADE16 EQ PUSH2 0xC35 JUMPI DUP2 PUSH4 0xA596BDB0 EQ PUSH2 0xBFB JUMPI DUP2 PUSH4 0xAF223AC2 EQ PUSH2 0x910 JUMPI DUP2 PUSH4 0xAF7F659D EQ PUSH2 0x8E4 JUMPI DUP2 PUSH4 0xB3C00500 EQ PUSH2 0x8C6 JUMPI DUP2 PUSH4 0xB4B89FFB EQ PUSH2 0x6D5 JUMPI DUP2 PUSH4 0xB4CD7689 EQ PUSH2 0x6B7 JUMPI DUP2 PUSH4 0xBD1A7C73 EQ PUSH2 0x448 JUMPI POP DUP1 PUSH4 0xBF96CE32 EQ PUSH2 0x414 JUMPI DUP1 PUSH4 0xC08D1FE5 EQ PUSH2 0x3F7 JUMPI DUP1 PUSH4 0xC50FF426 EQ PUSH2 0x3CE JUMPI DUP1 PUSH4 0xCDE20B05 EQ PUSH2 0x395 JUMPI DUP1 PUSH4 0xD4F5CE46 EQ PUSH2 0x36D JUMPI DUP1 PUSH4 0xD9382C1B EQ PUSH2 0x271 JUMPI DUP1 PUSH4 0xE6DA13E5 EQ PUSH2 0x31E JUMPI DUP1 PUSH4 0xEE95F27E EQ PUSH2 0x29A JUMPI DUP1 PUSH4 0xF0ABDA5D EQ PUSH2 0x271 JUMPI PUSH4 0xF888EE02 EQ PUSH2 0x1EF JUMPI PUSH1 0x0 DUP1 REVERT JUMPDEST CALLVALUE PUSH2 0x26C JUMPI PUSH1 0x20 CALLDATASIZE PUSH1 0x3 NOT ADD SLT PUSH2 0x26C JUMPI PUSH1 0x4 CALLDATALOAD PUSH1 0x0 MSTORE PUSH1 0xD PUSH1 0x20 MSTORE PUSH1 0x40 PUSH1 0x0 KECCAK256 PUSH2 0x218 PUSH2 0x1FD5 JUMP JUMPDEST SWAP1 PUSH2 0x268 PUSH1 0x60 DUP3 SLOAD SWAP3 DUP4 DUP6 MSTORE PUSH1 0x1 DUP2 ADD SLOAD SWAP5 DUP6 PUSH1 0x20 DUP3 ADD MSTORE PUSH1 0x3 PUSH1 0x2 DUP4 ADD SLOAD SWAP3 DUP4 PUSH1 0x40 DUP5 ADD MSTORE ADD SLOAD SWAP3 DUP4 SWAP2 ADD MSTORE PUSH1 0x40 MLOAD SWAP5 DUP6 SWAP5 DUP6 SWAP1 SWAP5 SWAP4 SWAP3 PUSH1 0x60 SWAP3 PUSH1 0x80 DUP4 ADD SWAP7 DUP4 MSTORE PUSH1 0x20 DUP4 ADD MSTORE PUSH1 0x40 DUP3 ADD MSTORE ADD MSTORE JUMP JUMPDEST SUB SWAP1 RETURN JUMPDEST PUSH1 0x0 DUP1 REVERT JUMPDEST CALLVALUE PUSH2 0x26C JUMPI PUSH1 0x0 CALLDATASIZE PUSH1 0x3 NOT ADD SLT PUSH2 0x26C JUMPI PUSH1 0x0 SLOAD PUSH1 0x40 MLOAD PUSH1 0x1 PUSH1 0x1 PUSH1 0xA0 SHL SUB SWAP1 SWAP2 AND DUP2 MSTORE PUSH1 0x20 SWAP1 RETURN JUMPDEST CALLVALUE PUSH2 0x26C JUMPI PUSH1 0x40 CALLDATASIZE PUSH1 0x3 NOT ADD SLT PUSH2 0x26C JUMPI PUSH1 0x24 CALLDATALOAD PUSH1 0xFF DUP2 AND DUP1 SWAP2 SUB PUSH2 0x26C JUMPI PUSH1 0x2 DUP2 GT PUSH2 0x2FF JUMPI PUSH1 0x3 DUP2 LT ISZERO PUSH2 0x2E9 JUMPI PUSH1 0x4 CALLDATALOAD PUSH1 0x0 MSTORE PUSH1 0x10 PUSH1 0x20 MSTORE PUSH1 0x40 PUSH1 0x0 KECCAK256 SWAP1 PUSH1 0xFF NOT DUP3 SLOAD AND OR SWAP1 SSTORE PUSH1 0x0 DUP1 RETURN JUMPDEST PUSH4 0x4E487B71 PUSH1 0xE0 SHL PUSH1 0x0 MSTORE PUSH1 0x21 PUSH1 0x4 MSTORE PUSH1 0x24 PUSH1 0x0 REVERT JUMPDEST PUSH1 0x40 MLOAD PUSH3 0x461BCD PUSH1 0xE5 SHL DUP2 MSTORE PUSH1 0x20 PUSH1 0x4 DUP3 ADD MSTORE PUSH1 0x0 PUSH1 0x24 DUP3 ADD MSTORE PUSH1 0x44 SWAP1 REVERT JUMPDEST CALLVALUE PUSH2 0x26C JUMPI PUSH1 0x20 CALLDATASIZE PUSH1 0x3 NOT ADD SLT PUSH2 0x26C JUMPI PUSH1 0x4 CALLDATALOAD PUSH1 0x0 SWAP1 DUP2 MSTORE PUSH1 0xD PUSH1 0x20 SWAP1 DUP2 MSTORE PUSH1 0x40 SWAP2 DUP3 SWAP1 KECCAK256 DUP1 SLOAD PUSH1 0x1 DUP3 ADD SLOAD PUSH1 0x2 DUP4 ADD SLOAD PUSH1 0x3 SWAP1 SWAP4 ADD SLOAD DUP6 MLOAD SWAP3 DUP4 MSTORE SWAP4 DUP3 ADD MSTORE SWAP3 DUP4 ADD MSTORE PUSH1 0x60 DUP3 ADD MSTORE PUSH1 0x80 SWAP1 RETURN JUMPDEST CALLVALUE PUSH2 0x26C JUMPI PUSH1 0x20 CALLDATASIZE PUSH1 0x3 NOT ADD SLT PUSH2 0x26C JUMPI PUSH1 0x20 PUSH2 0x38B PUSH1 0x4 CALLDATALOAD PUSH2 0x21C4 JUMP JUMPDEST PUSH1 0x40 MLOAD SWAP1 ISZERO ISZERO DUP2 MSTORE RETURN JUMPDEST CALLVALUE PUSH2 0x26C JUMPI PUSH1 0x20 CALLDATASIZE PUSH1 0x3 NOT ADD SLT PUSH2 0x26C JUMPI PUSH1 0x4 CALLDATALOAD PUSH1 0x0 MSTORE PUSH1 0x10 PUSH1 0x20 MSTORE PUSH1 0xFF PUSH1 0x40 PUSH1 0x0 KECCAK256 SLOAD AND PUSH1 0x3 DUP2 LT ISZERO PUSH2 0x2E9 JUMPI PUSH1 0x20 SWAP1 PUSH1 0x40 MLOAD SWAP1 DUP2 MSTORE RETURN JUMPDEST CALLVALUE PUSH2 0x26C JUMPI PUSH1 0x20 CALLDATASIZE PUSH1 0x3 NOT ADD SLT PUSH2 0x26C JUMPI PUSH1 0x4 CALLDATALOAD PUSH1 0x0 MSTORE PUSH1 0x7 PUSH1 0x20 MSTORE PUSH1 0x40 PUSH1 0x0 KECCAK256 PUSH2 0x218 PUSH2 0x1FD5 JUMP JUMPDEST CALLVALUE PUSH2 0x26C JUMPI PUSH1 0x0 CALLDATASIZE PUSH1 0x3 NOT ADD SLT PUSH2 0x26C JUMPI PUSH1 0x20 PUSH1 0x40 MLOAD PUSH2 0x12C DUP2 MSTORE RETURN JUMPDEST CALLVALUE PUSH2 0x26C JUMPI PUSH1 0x20 CALLDATASIZE PUSH1 0x3 NOT ADD SLT PUSH2 0x26C JUMPI PUSH1 0x4 CALLDATALOAD PUSH1 0x0 MSTORE PUSH1 0x6 PUSH1 0x20 MSTORE PUSH1 0x20 PUSH1 0x1 DUP1 PUSH1 0xA0 SHL SUB PUSH1 0x40 PUSH1 0x0 KECCAK256 SLOAD AND PUSH1 0x40 MLOAD SWAP1 DUP2 MSTORE RETURN JUMPDEST CALLVALUE PUSH2 0x26C JUMPI PUSH1 0x20 DUP1 PUSH1 0x3 NOT CALLDATASIZE ADD SLT PUSH2 0x26C JUMPI PUSH2 0x462 PUSH2 0x1F62 JUMP JUMPDEST PUSH2 0x478 PUSH1 0x1 DUP1 PUSH1 0xA0 SHL SUB PUSH1 0x0 SLOAD AND CALLER EQ ISZERO PUSH2 0x1F71 JUMP JUMPDEST CALLER PUSH1 0x0 MSTORE PUSH1 0x2 DUP3 MSTORE PUSH1 0x40 PUSH1 0x0 KECCAK256 SLOAD SWAP1 PUSH1 0x1 SWAP4 DUP5 DUP5 MSTORE PUSH1 0x40 PUSH1 0x0 KECCAK256 DUP4 PUSH1 0x0 MSTORE DUP5 MSTORE PUSH1 0x40 PUSH1 0x0 KECCAK256 PUSH2 0x4A5 PUSH2 0x202B JUMP JUMPDEST SWAP4 DUP2 SLOAD DUP6 MSTORE DUP7 DUP3 ADD SLOAD SWAP4 DUP7 DUP7 ADD SWAP5 DUP6 MSTORE PUSH1 0x2 DUP4 ADD SLOAD PUSH1 0x40 DUP8 ADD SWAP1 DUP2 MSTORE PUSH1 0xFF PUSH1 0x3 DUP6 ADD SLOAD AND SWAP1 PUSH1 0x60 DUP9 ADD SWAP2 ISZERO ISZERO DUP3 MSTORE PUSH1 0x4 DUP6 ADD SLOAD SWAP2 PUSH1 0x80 DUP10 ADD SWAP3 DUP4 MSTORE PUSH1 0xFF PUSH1 0x5 DUP8 ADD SLOAD AND SWAP4 PUSH1 0xA0 DUP11 ADD SWAP5 ISZERO ISZERO DUP6 MSTORE PUSH1 0x7 PUSH1 0x6 DUP9 ADD SLOAD SWAP8 PUSH1 0xC0 DUP13 ADD SWAP9 DUP10 MSTORE ADD SLOAD SWAP8 DUP11 ADD SWAP8 DUP9 MSTORE CALLER PUSH1 0x0 MSTORE PUSH1 0x5 DUP12 MSTORE PUSH2 0x520 PUSH1 0x40 PUSH1 0x0 KECCAK256 SLOAD ISZERO PUSH2 0x2160 JUMP JUMPDEST CALLER PUSH1 0x0 MSTORE PUSH1 0x3 DUP12 MSTORE PUSH2 0x53D DUP13 PUSH1 0xFF PUSH1 0x40 PUSH1 0x0 KECCAK256 SLOAD AND ISZERO ISZERO EQ PUSH2 0x2192 JUMP JUMPDEST DUP3 MLOAD ISZERO PUSH2 0x68C JUMPI DUP4 MLOAD PUSH2 0x661 JUMPI DUP12 SWAP1 PUSH2 0x564 PUSH2 0x12C PUSH2 0x55D DUP7 MLOAD TIMESTAMP PUSH2 0x207E JUMP JUMPDEST GT ISZERO PUSH2 0x212E JUMP JUMPDEST ISZERO ISZERO DUP1 DUP4 MSTORE TIMESTAMP DUP6 MSTORE SUB PUSH2 0x637 JUMPI PUSH1 0x11 SLOAD SWAP2 DUP12 DUP4 ADD DUP1 SWAP4 GT PUSH2 0x621 JUMPI DUP12 PUSH1 0x7 SWAP10 PUSH2 0x5EF SWAP8 PUSH1 0x4 SWAP15 DUP15 DUP8 PUSH2 0x5D2 SWAP9 PUSH1 0x11 SSTORE DUP14 MSTORE JUMPDEST CALLER PUSH1 0x0 MSTORE MSTORE PUSH1 0x40 PUSH1 0x0 KECCAK256 SWAP1 PUSH1 0x0 MSTORE DUP14 MSTORE PUSH1 0x40 PUSH1 0x0 KECCAK256 SWAP12 MLOAD DUP13 SSTORE MLOAD SWAP1 DUP12 ADD SSTORE MLOAD PUSH1 0x2 DUP11 ADD SSTORE MLOAD ISZERO ISZERO PUSH1 0x3 DUP10 ADD SWAP1 PUSH1 0xFF DUP1 NOT DUP4 SLOAD AND SWAP2 ISZERO ISZERO AND OR SWAP1 SSTORE JUMP JUMPDEST MLOAD DUP9 DUP8 ADD SSTORE MLOAD ISZERO ISZERO PUSH1 0x5 DUP7 ADD SWAP1 PUSH1 0xFF DUP1 NOT DUP4 SLOAD AND SWAP2 ISZERO ISZERO AND OR SWAP1 SSTORE JUMP JUMPDEST MLOAD PUSH1 0x6 DUP5 ADD SSTORE MLOAD SWAP2 ADD SSTORE PUSH1 0x11 SLOAD PUSH1 0x0 MSTORE MSTORE PUSH1 0x40 PUSH1 0x0 KECCAK256 CALLER PUSH12 0xFFFFFFFFFFFFFFFFFFFFFFFF PUSH1 0xA0 SHL DUP3 SLOAD AND OR SWAP1 SSTORE PUSH1 0x0 DUP1 RETURN JUMPDEST PUSH4 0x4E487B71 PUSH1 0xE0 SHL PUSH1 0x0 MSTORE PUSH1 0x11 PUSH1 0x4 MSTORE PUSH1 0x24 PUSH1 0x0 REVERT JUMPDEST PUSH2 0x5D2 SWAP2 DUP12 PUSH1 0x7 SWAP10 PUSH2 0x5EF SWAP8 PUSH1 0x4 SWAP15 DUP15 CALLER PUSH1 0x0 MSTORE PUSH1 0x3 DUP2 MSTORE PUSH1 0x40 PUSH1 0x0 KECCAK256 PUSH1 0xFF NOT DUP2 SLOAD AND SWAP1 SSTORE PUSH2 0x596 JUMP JUMPDEST PUSH1 0x40 MLOAD PUSH3 0x461BCD PUSH1 0xE5 SHL DUP2 MSTORE PUSH1 0x4 DUP1 DUP3 ADD DUP14 SWAP1 MSTORE PUSH1 0x24 DUP3 ADD MSTORE PUSH4 0x5252313 PUSH1 0xE4 SHL PUSH1 0x44 DUP3 ADD MSTORE PUSH1 0x64 SWAP1 REVERT JUMPDEST PUSH1 0x40 MLOAD PUSH3 0x461BCD PUSH1 0xE5 SHL DUP2 MSTORE PUSH1 0x4 DUP2 ADD DUP13 SWAP1 MSTORE PUSH1 0x3 PUSH1 0x24 DUP3 ADD MSTORE PUSH3 0x525239 PUSH1 0xE8 SHL PUSH1 0x44 DUP3 ADD MSTORE PUSH1 0x64 SWAP1 REVERT JUMPDEST CALLVALUE PUSH2 0x26C JUMPI PUSH1 0x0 CALLDATASIZE PUSH1 0x3 NOT ADD SLT PUSH2 0x26C JUMPI PUSH1 0x20 PUSH1 0x14 SLOAD PUSH1 0x40 MLOAD SWAP1 DUP2 MSTORE RETURN JUMPDEST CALLVALUE PUSH2 0x26C JUMPI PUSH1 0x40 CALLDATASIZE PUSH1 0x3 NOT ADD SLT PUSH2 0x26C JUMPI PUSH2 0x6EE PUSH2 0x1F4C JUMP JUMPDEST PUSH1 0x0 SLOAD PUSH1 0x1 PUSH1 0x1 PUSH1 0xA0 SHL SUB SWAP2 SWAP1 PUSH2 0x708 SWAP1 DUP4 AND CALLER EQ PUSH2 0x2098 JUMP JUMPDEST AND DUP1 PUSH1 0x0 MSTORE PUSH1 0x20 SWAP2 PUSH1 0x2 DUP4 MSTORE PUSH1 0x40 PUSH1 0x0 KECCAK256 SLOAD SWAP2 PUSH1 0x1 DUP5 MSTORE PUSH1 0x40 PUSH1 0x0 KECCAK256 DUP4 PUSH1 0x0 MSTORE DUP5 MSTORE PUSH1 0x40 PUSH1 0x0 KECCAK256 SWAP1 PUSH2 0x738 PUSH2 0x202B JUMP JUMPDEST SWAP4 DUP3 SLOAD DUP6 MSTORE PUSH1 0x1 DUP4 ADD SLOAD DUP7 DUP7 ADD SWAP1 DUP2 MSTORE PUSH1 0x2 DUP5 ADD SLOAD PUSH1 0x40 DUP8 ADD SWAP1 DUP2 MSTORE PUSH1 0xFF PUSH1 0x3 DUP7 ADD SLOAD AND SWAP2 PUSH1 0x60 DUP9 ADD SWAP3 ISZERO ISZERO DUP4 MSTORE PUSH1 0x4 DUP7 ADD SLOAD SWAP4 PUSH1 0x80 DUP10 ADD SWAP5 DUP6 MSTORE PUSH1 0xFF PUSH1 0x5 DUP9 ADD SLOAD AND SWAP6 PUSH1 0xA0 DUP11 ADD SWAP7 ISZERO ISZERO DUP8 MSTORE PUSH1 0x7 PUSH1 0x6 DUP10 ADD SLOAD SWAP9 PUSH1 0xC0 DUP13 ADD SWAP10 DUP11 MSTORE ADD SLOAD SWAP9 DUP11 ADD SWAP9 DUP10 MSTORE DUP1 PUSH1 0x0 MSTORE PUSH1 0x5 DUP12 MSTORE PUSH2 0x7B3 PUSH1 0x40 PUSH1 0x0 KECCAK256 SLOAD ISZERO PUSH2 0x2160 JUMP JUMPDEST DUP1 PUSH1 0x0 MSTORE PUSH1 0x3 DUP12 MSTORE PUSH2 0x7D1 PUSH1 0x1 PUSH1 0xFF PUSH1 0x40 PUSH1 0x0 KECCAK256 SLOAD AND ISZERO ISZERO EQ PUSH2 0x2192 JUMP JUMPDEST DUP10 MLOAD ISZERO PUSH2 0x89B JUMPI DUP4 MLOAD PUSH2 0x870 JUMPI SWAP2 PUSH2 0x846 SWAP4 SWAP2 DUP11 SWAP12 PUSH2 0x864 SWAP9 SWAP8 SWAP7 SWAP5 PUSH2 0x800 PUSH2 0x12C PUSH2 0x55D PUSH1 0x7 SWAP16 MLOAD TIMESTAMP PUSH2 0x207E JUMP JUMPDEST PUSH1 0x24 CALLDATALOAD DUP5 MSTORE TIMESTAMP DUP6 MSTORE PUSH1 0x0 MSTORE PUSH1 0x1 DUP2 MSTORE PUSH1 0x40 PUSH1 0x0 KECCAK256 SWAP2 PUSH1 0x0 MSTORE MSTORE PUSH1 0x40 PUSH1 0x0 KECCAK256 SWAP11 MLOAD DUP12 SSTORE MLOAD PUSH1 0x1 DUP12 ADD SSTORE MLOAD PUSH1 0x2 DUP11 ADD SSTORE MLOAD ISZERO ISZERO PUSH1 0x3 DUP10 ADD SWAP1 PUSH1 0xFF DUP1 NOT DUP4 SLOAD AND SWAP2 ISZERO ISZERO AND OR SWAP1 SSTORE JUMP JUMPDEST MLOAD PUSH1 0x4 DUP8 ADD SSTORE MLOAD ISZERO ISZERO PUSH1 0x5 DUP7 ADD SWAP1 PUSH1 0xFF DUP1 NOT DUP4 SLOAD AND SWAP2 ISZERO ISZERO AND OR SWAP1 SSTORE JUMP JUMPDEST MLOAD PUSH1 0x6 DUP5 ADD SSTORE MLOAD SWAP2 ADD SSTORE STOP JUMPDEST PUSH1 0x40 MLOAD PUSH3 0x461BCD PUSH1 0xE5 SHL DUP2 MSTORE PUSH1 0x4 DUP2 ADD DUP13 SWAP1 MSTORE PUSH1 0x3 PUSH1 0x24 DUP3 ADD MSTORE PUSH3 0x525237 PUSH1 0xE8 SHL PUSH1 0x44 DUP3 ADD MSTORE PUSH1 0x64 SWAP1 REVERT JUMPDEST PUSH1 0x40 MLOAD PUSH3 0x461BCD PUSH1 0xE5 SHL DUP2 MSTORE PUSH1 0x4 DUP2 ADD DUP13 SWAP1 MSTORE PUSH1 0x3 PUSH1 0x24 DUP3 ADD MSTORE PUSH3 0x29291B PUSH1 0xE9 SHL PUSH1 0x44 DUP3 ADD MSTORE PUSH1 0x64 SWAP1 REVERT JUMPDEST CALLVALUE PUSH2 0x26C JUMPI PUSH1 0x0 CALLDATASIZE PUSH1 0x3 NOT ADD SLT PUSH2 0x26C JUMPI PUSH1 0x20 PUSH1 0x11 SLOAD PUSH1 0x40 MLOAD SWAP1 DUP2 MSTORE RETURN JUMPDEST CALLVALUE PUSH2 0x26C JUMPI PUSH1 0x20 CALLDATASIZE PUSH1 0x3 NOT ADD SLT PUSH2 0x26C JUMPI PUSH1 0x4 CALLDATALOAD PUSH1 0x0 MSTORE PUSH1 0xA PUSH1 0x20 MSTORE PUSH1 0x20 PUSH1 0x40 PUSH1 0x0 KECCAK256 SLOAD PUSH1 0x40 MLOAD SWAP1 DUP2 MSTORE RETURN JUMPDEST CALLVALUE PUSH2 0x26C JUMPI PUSH1 0x40 CALLDATASIZE PUSH1 0x3 NOT ADD SLT PUSH2 0x26C JUMPI PUSH1 0x24 CALLDATALOAD DUP1 ISZERO ISZERO DUP1 SWAP2 SUB PUSH2 0x26C JUMPI PUSH1 0x0 SLOAD PUSH1 0x1 PUSH1 0x1 PUSH1 0xA0 SHL SUB SWAP2 SWAP1 PUSH2 0x948 SWAP1 DUP4 AND CALLER EQ PUSH2 0x2098 JUMP JUMPDEST PUSH1 0x4 CALLDATALOAD PUSH1 0x0 MSTORE PUSH1 0x20 SWAP2 PUSH1 0x4 DUP4 MSTORE PUSH1 0x40 PUSH1 0x0 KECCAK256 SLOAD AND SWAP1 DUP2 ISZERO PUSH2 0xBD0 JUMPI DUP2 PUSH1 0x0 MSTORE PUSH1 0x5 DUP4 MSTORE PUSH2 0x97A PUSH1 0x40 PUSH1 0x0 KECCAK256 SLOAD ISZERO PUSH2 0x2160 JUMP JUMPDEST DUP2 PUSH1 0x0 MSTORE PUSH1 0x3 DUP4 MSTORE PUSH1 0x1 SWAP4 PUSH2 0x99A DUP6 PUSH1 0xFF PUSH1 0x40 PUSH1 0x0 KECCAK256 SLOAD AND ISZERO ISZERO EQ PUSH2 0x2192 JUMP JUMPDEST DUP3 PUSH1 0x0 MSTORE PUSH1 0x2 DUP5 MSTORE PUSH1 0x40 PUSH1 0x0 KECCAK256 SLOAD DUP6 DUP6 MSTORE PUSH1 0x40 PUSH1 0x0 KECCAK256 DUP2 PUSH1 0x0 MSTORE DUP6 MSTORE PUSH1 0x40 PUSH1 0x0 KECCAK256 SWAP1 PUSH2 0x9C4 PUSH2 0x202B JUMP JUMPDEST SWAP4 DUP3 SLOAD DUP6 MSTORE DUP8 DUP4 ADD SLOAD DUP8 DUP7 ADD SWAP1 DUP2 MSTORE PUSH1 0x2 DUP5 ADD SLOAD PUSH1 0x40 DUP8 ADD SWAP1 DUP2 MSTORE PUSH1 0xFF PUSH1 0x3 DUP7 ADD SLOAD AND SWAP2 PUSH1 0x60 DUP9 ADD SWAP3 ISZERO ISZERO DUP4 MSTORE PUSH1 0x4 DUP7 ADD SLOAD SWAP5 PUSH1 0x80 DUP10 ADD SWAP5 DUP7 DUP7 MSTORE PUSH1 0xFF PUSH1 0x5 DUP10 ADD SLOAD AND SWAP7 PUSH1 0xA0 DUP12 ADD SWAP8 ISZERO ISZERO DUP9 MSTORE PUSH1 0x7 PUSH1 0x6 DUP11 ADD SLOAD SWAP10 PUSH1 0xC0 DUP14 ADD SWAP11 DUP12 MSTORE ADD SLOAD SWAP10 DUP12 ADD SWAP10 DUP11 MSTORE ISZERO PUSH2 0xBA5 JUMPI DUP8 MLOAD PUSH2 0xB7A JUMPI DUP13 SWAP1 PUSH2 0xA46 PUSH2 0x12C PUSH2 0x55D DUP10 MLOAD TIMESTAMP PUSH2 0x207E JUMP JUMPDEST DUP1 DUP9 MSTORE TIMESTAMP DUP10 MSTORE EQ PUSH2 0xAC2 JUMPI JUMPDEST SWAP3 PUSH2 0xAA2 SWAP5 SWAP3 PUSH1 0x3 SWAP13 PUSH2 0x846 SWAP4 PUSH1 0x7 SWAP11 SWAP10 SWAP9 SWAP7 DUP15 DUP15 PUSH1 0x0 MSTORE DUP4 DUP2 MSTORE PUSH1 0x40 PUSH1 0x0 KECCAK256 SWAP2 PUSH1 0x0 MSTORE MSTORE PUSH1 0x40 PUSH1 0x0 KECCAK256 SWAP12 MLOAD DUP13 SSTORE MLOAD SWAP1 DUP12 ADD SSTORE MLOAD PUSH1 0x2 DUP11 ADD SSTORE MLOAD ISZERO ISZERO DUP12 DUP10 ADD SWAP1 PUSH1 0xFF DUP1 NOT DUP4 SLOAD AND SWAP2 ISZERO ISZERO AND OR SWAP1 SSTORE JUMP JUMPDEST MLOAD PUSH1 0x6 DUP5 ADD SSTORE MLOAD SWAP2 ADD SSTORE PUSH1 0x0 MSTORE MSTORE PUSH1 0x40 PUSH1 0x0 KECCAK256 PUSH1 0xFF NOT DUP2 SLOAD AND SWAP1 SSTORE PUSH1 0x0 DUP1 RETURN JUMPDEST SWAP4 SWAP2 SWAP1 SWAP7 SWAP6 SWAP5 SWAP3 PUSH1 0x13 SLOAD SWAP2 DUP13 DUP4 ADD DUP1 SWAP4 GT PUSH2 0x621 JUMPI PUSH1 0x3 SWAP13 PUSH1 0x7 SWAP10 PUSH2 0xAA2 SWAP8 DUP15 DUP15 DUP8 PUSH2 0x846 SWAP9 PUSH1 0x13 SSTORE DUP2 PUSH1 0x0 MSTORE PUSH1 0x5 DUP4 MSTORE DUP1 PUSH1 0x40 PUSH1 0x0 KECCAK256 SSTORE PUSH1 0x0 MSTORE PUSH1 0x6 DUP3 MSTORE PUSH1 0x40 PUSH1 0x0 KECCAK256 DUP2 PUSH12 0xFFFFFFFFFFFFFFFFFFFFFFFF PUSH1 0xA0 SHL DUP3 SLOAD AND OR SWAP1 SSTORE PUSH1 0x13 SLOAD PUSH1 0x3 PUSH2 0xB2A PUSH2 0x1FD5 JUMP JUMPDEST SWAP2 DUP1 DUP4 MSTORE DUP5 DUP4 ADD PUSH1 0x0 DUP2 MSTORE PUSH1 0x40 DUP5 ADD SWAP1 PUSH1 0x0 DUP3 MSTORE PUSH1 0x60 DUP6 ADD SWAP3 PUSH1 0x0 DUP5 MSTORE PUSH1 0x0 MSTORE PUSH1 0x7 DUP8 MSTORE PUSH1 0x40 PUSH1 0x0 KECCAK256 SWAP5 MLOAD DUP6 SSTORE MLOAD DUP10 DUP6 ADD SSTORE MLOAD PUSH1 0x2 DUP5 ADD SSTORE MLOAD SWAP2 ADD SSTORE POP POP SWAP4 SWAP7 SWAP9 SWAP10 SWAP11 POP SWAP4 POP SWAP13 POP SWAP3 SWAP5 POP PUSH2 0xA52 JUMP JUMPDEST PUSH1 0x40 MLOAD PUSH3 0x461BCD PUSH1 0xE5 SHL DUP2 MSTORE PUSH1 0x4 DUP1 DUP3 ADD DUP15 SWAP1 MSTORE PUSH1 0x24 DUP3 ADD MSTORE PUSH4 0x52523133 PUSH1 0xE0 SHL PUSH1 0x44 DUP3 ADD MSTORE PUSH1 0x64 SWAP1 REVERT JUMPDEST PUSH1 0x40 MLOAD PUSH3 0x461BCD PUSH1 0xE5 SHL DUP2 MSTORE PUSH1 0x4 DUP1 DUP3 ADD DUP15 SWAP1 MSTORE PUSH1 0x24 DUP3 ADD MSTORE PUSH4 0x29291899 PUSH1 0xE1 SHL PUSH1 0x44 DUP3 ADD MSTORE PUSH1 0x64 SWAP1 REVERT JUMPDEST PUSH1 0x40 MLOAD PUSH3 0x461BCD PUSH1 0xE5 SHL DUP2 MSTORE PUSH1 0x4 DUP1 DUP3 ADD DUP6 SWAP1 MSTORE PUSH1 0x24 DUP3 ADD MSTORE PUSH4 0x52523131 PUSH1 0xE0 SHL PUSH1 0x44 DUP3 ADD MSTORE PUSH1 0x64 SWAP1 REVERT JUMPDEST CALLVALUE PUSH2 0x26C JUMPI PUSH1 0x20 CALLDATASIZE PUSH1 0x3 NOT ADD SLT PUSH2 0x26C JUMPI PUSH1 0x1 PUSH1 0x1 PUSH1 0xA0 SHL SUB PUSH2 0xC1C PUSH2 0x1F4C JUMP JUMPDEST AND PUSH1 0x0 MSTORE PUSH1 0x2 PUSH1 0x20 MSTORE PUSH1 0x20 PUSH1 0x40 PUSH1 0x0 KECCAK256 SLOAD PUSH1 0x40 MLOAD SWAP1 DUP2 MSTORE RETURN JUMPDEST CALLVALUE PUSH2 0x26C JUMPI PUSH1 0x0 CALLDATASIZE PUSH1 0x3 NOT ADD SLT PUSH2 0x26C JUMPI PUSH1 0x20 PUSH1 0x13 SLOAD PUSH1 0x40 MLOAD SWAP1 DUP2 MSTORE RETURN JUMPDEST CALLVALUE PUSH2 0x26C JUMPI PUSH1 0x20 CALLDATASIZE PUSH1 0x3 NOT ADD SLT PUSH2 0x26C JUMPI PUSH1 0x4 CALLDATALOAD PUSH1 0x0 MSTORE PUSH1 0xB PUSH1 0x20 MSTORE PUSH1 0x20 PUSH1 0xFF PUSH1 0x40 PUSH1 0x0 KECCAK256 SLOAD AND PUSH1 0x40 MLOAD SWAP1 ISZERO ISZERO DUP2 MSTORE RETURN JUMPDEST CALLVALUE PUSH2 0x26C JUMPI PUSH1 0x20 CALLDATASIZE PUSH1 0x3 NOT ADD SLT PUSH2 0x26C JUMPI PUSH1 0x4 CALLDATALOAD PUSH1 0x0 SWAP1 DUP2 MSTORE PUSH1 0x7 PUSH1 0x20 SWAP1 DUP2 MSTORE PUSH1 0x40 SWAP2 DUP3 SWAP1 KECCAK256 DUP1 SLOAD PUSH1 0x1 DUP3 ADD SLOAD PUSH1 0x2 DUP4 ADD SLOAD PUSH1 0x3 SWAP1 SWAP4 ADD SLOAD DUP6 MLOAD SWAP3 DUP4 MSTORE SWAP4 DUP3 ADD MSTORE SWAP3 DUP4 ADD MSTORE PUSH1 0x60 DUP3 ADD MSTORE PUSH1 0x80 SWAP1 RETURN JUMPDEST CALLVALUE PUSH2 0x26C JUMPI PUSH1 0x20 DUP1 PUSH1 0x3 NOT CALLDATASIZE ADD SLT PUSH2 0x26C JUMPI PUSH1 0x4 CALLDATALOAD SWAP1 PUSH1 0x1 DUP1 PUSH1 0xA0 SHL SUB PUSH2 0xCFF DUP2 PUSH1 0x0 SLOAD AND CALLER EQ PUSH2 0x2098 JUMP JUMPDEST DUP3 ISZERO ISZERO DUP1 PUSH2 0xF0E JUMPI JUMPDEST PUSH2 0xD11 SWAP1 PUSH2 0x20CA JUMP JUMPDEST DUP3 PUSH1 0x0 MSTORE PUSH1 0x9 DUP3 MSTORE PUSH1 0x40 PUSH1 0x0 KECCAK256 SLOAD DUP1 ISZERO PUSH2 0xEE3 JUMPI DUP4 PUSH1 0x0 MSTORE PUSH1 0x8 DUP4 MSTORE PUSH1 0x40 PUSH1 0x0 KECCAK256 SWAP1 PUSH1 0x0 MSTORE DUP3 MSTORE PUSH1 0x40 PUSH1 0x0 KECCAK256 PUSH2 0xD45 PUSH2 0x200B JUMP JUMPDEST SWAP1 DUP1 SLOAD DUP3 MSTORE PUSH1 0x1 DUP2 ADD SLOAD SWAP2 DUP5 DUP2 ADD SWAP3 DUP4 MSTORE PUSH1 0x2 DUP3 ADD SLOAD PUSH1 0x40 DUP3 ADD MSTORE PUSH1 0xA0 PUSH1 0x5 PUSH1 0x3 DUP5 ADD SLOAD SWAP4 DUP5 PUSH1 0x60 DUP6 ADD MSTORE PUSH1 0xFF PUSH1 0x4 DUP3 ADD SLOAD AND ISZERO ISZERO PUSH1 0x80 DUP6 ADD MSTORE ADD SLOAD SWAP2 ADD SWAP1 DUP2 MSTORE DUP2 ISZERO ISZERO SWAP2 DUP3 PUSH2 0xECB JUMPI JUMPDEST POP DUP2 PUSH2 0xEAD JUMPI JUMPDEST DUP2 PUSH2 0xEA3 JUMPI JUMPDEST POP PUSH2 0xE2B JUMPI JUMPDEST POP DUP3 PUSH1 0x0 MSTORE PUSH1 0xF DUP3 MSTORE PUSH1 0x40 PUSH1 0x0 KECCAK256 SLOAD ISZERO PUSH2 0xE00 JUMPI PUSH1 0x0 DUP1 DUP1 DUP1 SWAP4 DUP2 SLOAD AND DUP7 DUP3 MSTORE PUSH1 0xF DUP7 MSTORE PUSH1 0x40 DUP3 KECCAK256 SLOAD SWAP1 DUP3 DUP3 ISZERO PUSH2 0xDF7 JUMPI JUMPDEST CALL ISZERO PUSH2 0xDEB JUMPI PUSH1 0x0 SWAP2 DUP3 MSTORE PUSH1 0xF SWAP1 MSTORE PUSH1 0x40 DUP2 KECCAK256 SSTORE STOP JUMPDEST PUSH1 0x40 MLOAD RETURNDATASIZE PUSH1 0x0 DUP3 RETURNDATACOPY RETURNDATASIZE SWAP1 REVERT JUMPDEST POP PUSH2 0x8FC PUSH2 0xDD5 JUMP JUMPDEST PUSH1 0x40 MLOAD PUSH3 0x461BCD PUSH1 0xE5 SHL DUP2 MSTORE PUSH1 0x4 DUP1 DUP3 ADD DUP5 SWAP1 MSTORE PUSH1 0x24 DUP3 ADD MSTORE PUSH4 0x52523235 PUSH1 0xE0 SHL PUSH1 0x44 DUP3 ADD MSTORE PUSH1 0x64 SWAP1 REVERT JUMPDEST DUP1 MLOAD SWAP1 PUSH2 0x3E8 SWAP2 DUP3 DUP2 MUL SWAP1 DUP1 DUP3 DIV DUP5 EQ SWAP1 ISZERO OR ISZERO PUSH2 0x621 JUMPI DUP6 PUSH1 0x0 MSTORE PUSH1 0xF DUP6 MSTORE PUSH2 0xE5B PUSH1 0x40 PUSH1 0x0 KECCAK256 SWAP2 DUP3 SLOAD PUSH2 0x208B JUMP JUMPDEST SWAP1 SSTORE MLOAD DUP2 DUP2 MUL SWAP2 DUP2 DUP4 DIV EQ SWAP1 ISZERO OR ISZERO PUSH2 0x621 JUMPI DUP4 PUSH1 0x0 MSTORE PUSH1 0xE DUP4 MSTORE PUSH2 0xE86 PUSH1 0x40 PUSH1 0x0 KECCAK256 SWAP2 DUP3 SLOAD PUSH2 0x207E JUMP JUMPDEST SWAP1 SSTORE DUP3 PUSH1 0x0 MSTORE PUSH1 0xB DUP3 MSTORE PUSH1 0x40 PUSH1 0x0 KECCAK256 PUSH1 0xFF NOT DUP2 SLOAD AND SWAP1 SSTORE DUP4 PUSH2 0xDA3 JUMP JUMPDEST SWAP1 POP MLOAD ISZERO DUP6 PUSH2 0xD9D JUMP JUMPDEST SWAP1 POP DUP5 PUSH1 0x0 MSTORE PUSH1 0xB DUP5 MSTORE PUSH1 0x1 PUSH1 0xFF PUSH1 0x40 PUSH1 0x0 KECCAK256 SLOAD AND ISZERO ISZERO EQ SWAP1 PUSH2 0xD97 JUMP JUMPDEST PUSH2 0x12C SWAP2 SWAP3 POP PUSH2 0xEDB SWAP1 TIMESTAMP PUSH2 0x207E JUMP JUMPDEST GT SWAP1 DUP7 PUSH2 0xD90 JUMP JUMPDEST PUSH1 0x40 MLOAD PUSH3 0x461BCD PUSH1 0xE5 SHL DUP2 MSTORE PUSH1 0x4 DUP1 DUP3 ADD DUP6 SWAP1 MSTORE PUSH1 0x24 DUP3 ADD MSTORE PUSH4 0x14948C8D PUSH1 0xE2 SHL PUSH1 0x44 DUP3 ADD MSTORE PUSH1 0x64 SWAP1 REVERT JUMPDEST POP PUSH1 0x13 SLOAD DUP4 GT ISZERO PUSH2 0xD08 JUMP JUMPDEST CALLVALUE PUSH2 0x26C JUMPI PUSH1 0x20 CALLDATASIZE PUSH1 0x3 NOT ADD SLT PUSH2 0x26C JUMPI PUSH1 0x4 CALLDATALOAD PUSH1 0x0 MSTORE PUSH1 0x9 PUSH1 0x20 MSTORE PUSH1 0x20 PUSH1 0x40 PUSH1 0x0 KECCAK256 SLOAD PUSH1 0x40 MLOAD SWAP1 DUP2 MSTORE RETURN JUMPDEST CALLVALUE PUSH2 0x26C JUMPI PUSH1 0x20 CALLDATASIZE PUSH1 0x3 NOT ADD SLT PUSH2 0x26C JUMPI PUSH1 0x1 PUSH1 0x1 PUSH1 0xA0 SHL SUB PUSH2 0xF67 PUSH2 0x1F4C JUMP JUMPDEST AND PUSH1 0x0 MSTORE PUSH1 0x3 PUSH1 0x20 MSTORE PUSH1 0x20 PUSH1 0xFF PUSH1 0x40 PUSH1 0x0 KECCAK256 SLOAD AND PUSH1 0x40 MLOAD SWAP1 ISZERO ISZERO DUP2 MSTORE RETURN JUMPDEST CALLVALUE PUSH2 0x26C JUMPI PUSH1 0x40 CALLDATASIZE PUSH1 0x3 NOT ADD SLT PUSH2 0x26C JUMPI PUSH1 0x4 CALLDATALOAD PUSH1 0x0 MSTORE PUSH1 0x8 PUSH1 0x20 MSTORE PUSH1 0x40 PUSH1 0x0 KECCAK256 PUSH1 0x24 CALLDATALOAD PUSH1 0x0 MSTORE PUSH1 0x20 MSTORE PUSH1 0xC0 PUSH1 0x40 PUSH1 0x0 KECCAK256 DUP1 SLOAD SWAP1 PUSH1 0x1 DUP2 ADD SLOAD SWAP1 PUSH1 0x2 DUP2 ADD SLOAD PUSH1 0x3 DUP3 ADD SLOAD SWAP1 PUSH1 0x5 PUSH1 0xFF PUSH1 0x4 DUP6 ADD SLOAD AND SWAP4 ADD SLOAD SWAP4 PUSH1 0x40 MLOAD SWAP6 DUP7 MSTORE PUSH1 0x20 DUP7 ADD MSTORE PUSH1 0x40 DUP6 ADD MSTORE PUSH1 0x60 DUP5 ADD MSTORE ISZERO ISZERO PUSH1 0x80 DUP4 ADD MSTORE PUSH1 0xA0 DUP3 ADD MSTORE RETURN JUMPDEST CALLVALUE PUSH2 0x26C JUMPI PUSH1 0x20 CALLDATASIZE PUSH1 0x3 NOT ADD SLT PUSH2 0x26C JUMPI PUSH1 0x1 PUSH1 0x1 PUSH1 0xA0 SHL SUB PUSH2 0x101C PUSH2 0x1F4C JUMP JUMPDEST AND PUSH1 0x0 MSTORE PUSH1 0x5 PUSH1 0x20 MSTORE PUSH1 0x20 PUSH1 0x40 PUSH1 0x0 KECCAK256 SLOAD PUSH1 0x40 MLOAD SWAP1 DUP2 MSTORE RETURN JUMPDEST CALLVALUE PUSH2 0x26C JUMPI PUSH1 0x0 CALLDATASIZE PUSH1 0x3 NOT ADD SLT PUSH2 0x26C JUMPI PUSH1 0x20 PUSH1 0x12 SLOAD PUSH1 0x40 MLOAD SWAP1 DUP2 MSTORE RETURN JUMPDEST CALLVALUE PUSH2 0x26C JUMPI PUSH1 0x0 CALLDATASIZE PUSH1 0x3 NOT ADD SLT PUSH2 0x26C JUMPI PUSH2 0x107A PUSH1 0x1 DUP1 PUSH1 0xA0 SHL SUB PUSH1 0x0 SLOAD AND CALLER EQ ISZERO PUSH2 0x1F71 JUMP JUMPDEST CALLER PUSH1 0x0 MSTORE PUSH1 0x20 SWAP1 PUSH1 0x2 DUP3 MSTORE PUSH1 0x40 PUSH1 0x0 KECCAK256 SLOAD SWAP2 PUSH1 0x1 DUP1 DUP3 MSTORE PUSH1 0x40 PUSH1 0x0 KECCAK256 DUP5 PUSH1 0x0 MSTORE DUP3 MSTORE PUSH1 0x40 PUSH1 0x0 KECCAK256 PUSH2 0x10A9 PUSH2 0x202B JUMP JUMPDEST DUP2 SLOAD DUP2 MSTORE DUP3 DUP3 ADD SLOAD DUP5 DUP3 ADD MSTORE PUSH1 0x2 DUP3 ADD SLOAD PUSH1 0x40 DUP3 ADD SWAP1 DUP2 MSTORE PUSH1 0xFF SWAP2 PUSH1 0x3 SWAP4 DUP4 DUP6 DUP3 ADD SLOAD AND ISZERO ISZERO PUSH1 0x60 DUP4 ADD MSTORE PUSH1 0x4 DUP2 ADD SLOAD SWAP2 PUSH1 0x80 DUP2 ADD SWAP3 DUP4 MSTORE DUP5 PUSH1 0x5 DUP4 ADD SLOAD AND ISZERO ISZERO PUSH1 0xA0 DUP3 ADD MSTORE PUSH1 0x7 PUSH1 0x6 DUP4 ADD SLOAD SWAP3 PUSH1 0xC0 DUP4 ADD SWAP4 DUP5 MSTORE ADD SLOAD DUP10 DUP3 ADD MSTORE CALLER PUSH1 0x0 MSTORE PUSH1 0x5 DUP9 MSTORE PUSH2 0x111B PUSH1 0x40 PUSH1 0x0 KECCAK256 SLOAD ISZERO PUSH2 0x2160 JUMP JUMPDEST CALLER PUSH1 0x0 MSTORE DUP6 DUP9 MSTORE DUP7 DUP6 PUSH1 0x40 PUSH1 0x0 KECCAK256 SLOAD AND ISZERO ISZERO EQ PUSH2 0x1278 JUMPI JUMPDEST POP POP POP POP CALLER PUSH1 0x0 MSTORE DUP2 DUP5 MSTORE DUP1 PUSH1 0x40 PUSH1 0x0 KECCAK256 SLOAD AND PUSH2 0x124F JUMPI DUP3 DUP7 ADD DUP1 SWAP7 GT PUSH2 0x621 JUMPI PUSH1 0x7 DUP5 DUP5 PUSH2 0x1224 PUSH1 0x2 SWAP9 DUP5 PUSH2 0x846 DUP13 SWAP8 CALLER PUSH1 0x0 MSTORE DUP6 DUP8 MSTORE PUSH1 0x40 PUSH1 0x0 KECCAK256 DUP10 PUSH1 0x0 MSTORE DUP8 MSTORE PUSH1 0x40 PUSH1 0x0 KECCAK256 DUP11 PUSH2 0x1184 PUSH2 0x202B JUMP JUMPDEST SWAP11 DUP12 SWAP10 DUP10 DUP12 SWAP11 SWAP9 DUP12 SWAP10 SWAP9 DUP7 PUSH1 0xA0 DUP10 DUP14 SWAP13 DUP14 SWAP11 ADD SLOAD SWAP9 DUP8 DUP12 ADD SWAP10 DUP11 MSTORE PUSH1 0x2 PUSH1 0x40 SWAP1 DUP6 ADD SLOAD SWAP12 ADD SWAP11 DUP12 MSTORE DUP4 ADD SLOAD AND SWAP10 PUSH1 0x60 DUP14 ADD SWAP11 ISZERO ISZERO DUP12 MSTORE PUSH1 0x80 PUSH1 0x4 DUP5 ADD SLOAD SWAP14 ADD SWAP13 DUP14 MSTORE PUSH1 0x5 DUP4 ADD SLOAD AND SWAP13 ADD SWAP12 ISZERO ISZERO DUP13 MSTORE PUSH1 0xC0 PUSH1 0x6 DUP3 ADD SLOAD SWAP15 ADD SWAP14 DUP15 MSTORE ADD SLOAD SWAP13 ADD SWAP12 DUP13 MSTORE DUP14 TIMESTAMP SWAP1 MSTORE CALLER PUSH1 0x0 MSTORE DUP2 MSTORE PUSH1 0x40 PUSH1 0x0 KECCAK256 SWAP2 PUSH1 0x0 MSTORE MSTORE PUSH1 0x40 PUSH1 0x0 KECCAK256 SWAP11 MLOAD DUP12 SSTORE MLOAD DUP13 DUP12 ADD SSTORE MLOAD DUP14 DUP11 ADD SSTORE MLOAD ISZERO ISZERO DUP10 DUP10 ADD SWAP1 PUSH1 0xFF DUP1 NOT DUP4 SLOAD AND SWAP2 ISZERO ISZERO AND OR SWAP1 SSTORE JUMP JUMPDEST MLOAD PUSH1 0x6 DUP5 ADD SSTORE MLOAD SWAP2 ADD SSTORE CALLER PUSH1 0x0 MSTORE DUP3 MSTORE PUSH1 0x40 PUSH1 0x0 KECCAK256 SWAP1 PUSH1 0xFF NOT DUP3 SLOAD AND OR SWAP1 SSTORE MSTORE PUSH1 0x40 PUSH1 0x0 KECCAK256 SSTORE PUSH1 0x0 DUP1 RETURN JUMPDEST PUSH1 0x64 DUP5 DUP4 PUSH1 0x40 MLOAD SWAP2 PUSH3 0x461BCD PUSH1 0xE5 SHL DUP4 MSTORE PUSH1 0x4 DUP4 ADD MSTORE PUSH1 0x24 DUP3 ADD MSTORE PUSH3 0x14948D PUSH1 0xEA SHL PUSH1 0x44 DUP3 ADD MSTORE REVERT JUMPDEST DUP1 MLOAD DUP1 ISZERO ISZERO SWAP1 DUP2 PUSH2 0x1398 JUMPI JUMPDEST DUP2 PUSH2 0x1382 JUMPI JUMPDEST POP PUSH2 0x1369 JUMPI JUMPDEST DUP1 MLOAD ISZERO ISZERO DUP1 PUSH2 0x135F JUMPI JUMPDEST DUP1 PUSH2 0x1356 JUMPI JUMPDEST DUP1 PUSH2 0x1341 JUMPI JUMPDEST PUSH2 0x1328 JUMPI JUMPDEST MLOAD ISZERO ISZERO SWAP3 DUP4 PUSH2 0x131D JUMPI JUMPDEST POP DUP3 PUSH2 0x1312 JUMPI JUMPDEST DUP3 PUSH2 0x1308 JUMPI JUMPDEST POP DUP2 PUSH2 0x12F1 JUMPI JUMPDEST POP PUSH2 0x12D8 JUMPI JUMPDEST DUP7 DUP1 DUP1 DUP1 PUSH2 0x1133 JUMP JUMPDEST CALLER PUSH1 0x0 MSTORE DUP2 DUP5 MSTORE PUSH1 0x40 PUSH1 0x0 KECCAK256 PUSH1 0xFF NOT DUP2 SLOAD AND SWAP1 SSTORE PUSH2 0x12CF JUMP JUMPDEST PUSH2 0x12C SWAP2 POP PUSH2 0x1301 SWAP1 MLOAD TIMESTAMP PUSH2 0x207E JUMP JUMPDEST GT DUP8 PUSH2 0x12C9 JUMP JUMPDEST MLOAD ISZERO SWAP2 POP DUP9 PUSH2 0x12C2 JUMP JUMPDEST DUP2 MLOAD ISZERO ISZERO SWAP3 POP PUSH2 0x12BC JUMP JUMPDEST MLOAD ISZERO ISZERO SWAP3 POP DUP10 PUSH2 0x12B5 JUMP JUMPDEST CALLER PUSH1 0x0 MSTORE DUP6 DUP9 MSTORE PUSH1 0x40 PUSH1 0x0 KECCAK256 PUSH1 0xFF NOT DUP2 SLOAD AND SWAP1 SSTORE PUSH2 0x12AB JUMP JUMPDEST POP PUSH2 0x12C PUSH2 0x1350 DUP6 MLOAD TIMESTAMP PUSH2 0x207E JUMP JUMPDEST GT PUSH2 0x12A6 JUMP JUMPDEST POP DUP3 MLOAD ISZERO PUSH2 0x12A0 JUMP JUMPDEST POP DUP4 MLOAD ISZERO ISZERO PUSH2 0x129A JUMP JUMPDEST CALLER PUSH1 0x0 MSTORE DUP6 DUP9 MSTORE PUSH1 0x40 PUSH1 0x0 KECCAK256 PUSH1 0xFF NOT DUP2 SLOAD AND SWAP1 SSTORE PUSH2 0x1290 JUMP JUMPDEST PUSH2 0x12C SWAP2 POP PUSH2 0x1391 SWAP1 TIMESTAMP PUSH2 0x207E JUMP JUMPDEST GT DUP12 PUSH2 0x128A JUMP JUMPDEST DUP6 MLOAD ISZERO SWAP2 POP PUSH2 0x1284 JUMP JUMPDEST CALLVALUE PUSH2 0x26C JUMPI PUSH1 0x20 CALLDATASIZE PUSH1 0x3 NOT ADD SLT PUSH2 0x26C JUMPI PUSH1 0x4 CALLDATALOAD PUSH1 0x0 MSTORE PUSH1 0xC PUSH1 0x20 MSTORE PUSH1 0x20 PUSH1 0x40 PUSH1 0x0 KECCAK256 SLOAD PUSH1 0x40 MLOAD SWAP1 DUP2 MSTORE RETURN JUMPDEST CALLVALUE PUSH2 0x26C JUMPI PUSH1 0x20 CALLDATASIZE PUSH1 0x3 NOT ADD SLT PUSH2 0x26C JUMPI PUSH1 0x4 CALLDATALOAD PUSH1 0x0 MSTORE PUSH1 0xE PUSH1 0x20 MSTORE PUSH1 0x20 PUSH1 0x40 PUSH1 0x0 KECCAK256 SLOAD PUSH1 0x40 MLOAD SWAP1 DUP2 MSTORE RETURN JUMPDEST CALLVALUE PUSH2 0x26C JUMPI PUSH1 0x20 CALLDATASIZE PUSH1 0x3 NOT ADD SLT PUSH2 0x26C JUMPI PUSH1 0x4 CALLDATALOAD PUSH1 0x0 MSTORE PUSH1 0x10 PUSH1 0x20 MSTORE PUSH1 0xFF PUSH1 0x40 PUSH1 0x0 KECCAK256 SLOAD AND PUSH1 0x40 MLOAD PUSH1 0x3 DUP3 LT ISZERO PUSH2 0x2E9 JUMPI PUSH1 0x20 SWAP2 DUP2 MSTORE RETURN JUMPDEST CALLVALUE PUSH2 0x26C JUMPI PUSH1 0x40 CALLDATASIZE PUSH1 0x3 NOT ADD SLT PUSH2 0x26C JUMPI PUSH2 0x100 SWAP1 PUSH1 0x1 PUSH1 0x1 PUSH1 0xA0 SHL SUB PUSH2 0x1457 PUSH2 0x1F4C JUMP JUMPDEST AND PUSH1 0x0 MSTORE PUSH1 0x1 PUSH1 0x20 MSTORE PUSH1 0x40 PUSH1 0x0 KECCAK256 PUSH1 0x24 CALLDATALOAD PUSH1 0x0 MSTORE PUSH1 0x20 MSTORE PUSH1 0x40 PUSH1 0x0 KECCAK256 DUP1 SLOAD SWAP2 PUSH1 0x1 DUP3 ADD SLOAD SWAP2 PUSH1 0x2 DUP2 ADD SLOAD PUSH1 0xFF PUSH1 0x3 DUP4 ADD SLOAD AND PUSH1 0x4 DUP4 ADD SLOAD SWAP1 PUSH1 0xFF PUSH1 0x5 DUP6 ADD SLOAD AND SWAP3 PUSH1 0x7 PUSH1 0x6 DUP7 ADD SLOAD SWAP6 ADD SLOAD SWAP7 PUSH1 0x40 MLOAD SWAP9 DUP10 MSTORE PUSH1 0x20 DUP10 ADD MSTORE PUSH1 0x40 DUP9 ADD MSTORE ISZERO ISZERO PUSH1 0x60 DUP8 ADD MSTORE PUSH1 0x80 DUP7 ADD MSTORE ISZERO ISZERO PUSH1 0xA0 DUP6 ADD MSTORE PUSH1 0xC0 DUP5 ADD MSTORE DUP3 ADD MSTORE RETURN JUMPDEST CALLVALUE PUSH2 0x26C JUMPI PUSH1 0x0 CALLDATASIZE PUSH1 0x3 NOT ADD SLT PUSH2 0x26C JUMPI PUSH1 0x20 PUSH1 0x40 MLOAD PUSH2 0x3E8 DUP2 MSTORE RETURN JUMPDEST CALLVALUE PUSH2 0x26C JUMPI PUSH1 0x20 CALLDATASIZE PUSH1 0x3 NOT ADD SLT PUSH2 0x26C JUMPI PUSH2 0x1506 PUSH2 0x1F62 JUMP JUMPDEST PUSH2 0x151C PUSH1 0x1 DUP1 PUSH1 0xA0 SHL SUB PUSH1 0x0 SLOAD AND CALLER EQ ISZERO PUSH2 0x1F71 JUMP JUMPDEST CALLER PUSH1 0x0 MSTORE PUSH1 0x5 PUSH1 0x20 MSTORE PUSH1 0x40 PUSH1 0x0 KECCAK256 SLOAD SWAP1 PUSH2 0x1537 DUP3 ISZERO ISZERO PUSH2 0x1FA3 JUMP JUMPDEST DUP2 PUSH1 0x0 MSTORE PUSH1 0x7 PUSH1 0x20 MSTORE PUSH1 0x40 PUSH1 0x0 KECCAK256 SWAP1 PUSH2 0x157B PUSH2 0x1551 PUSH2 0x1FD5 JUMP JUMPDEST SWAP3 DUP1 SLOAD DUP5 MSTORE PUSH1 0x1 DUP2 ADD SLOAD PUSH1 0x20 DUP6 ADD MSTORE PUSH1 0x3 PUSH1 0x2 DUP3 ADD SLOAD SWAP2 DUP3 PUSH1 0x40 DUP8 ADD MSTORE ADD SLOAD PUSH1 0x60 DUP6 ADD MSTORE ISZERO PUSH2 0x204C JUMP JUMPDEST DUP3 PUSH1 0x0 MSTORE PUSH1 0x9 PUSH1 0x20 MSTORE PUSH1 0x40 PUSH1 0x0 KECCAK256 SLOAD SWAP1 PUSH2 0x1596 DUP3 ISZERO ISZERO PUSH2 0x20FC JUMP JUMPDEST DUP4 PUSH1 0x0 MSTORE PUSH1 0x8 PUSH1 0x20 MSTORE PUSH1 0x40 PUSH1 0x0 KECCAK256 DUP3 PUSH1 0x0 MSTORE PUSH1 0x20 MSTORE PUSH1 0x40 PUSH1 0x0 KECCAK256 SWAP3 PUSH1 0x5 PUSH2 0x15BB PUSH2 0x200B JUMP JUMPDEST SWAP5 DUP1 SLOAD DUP7 MSTORE PUSH1 0x1 DUP2 ADD SLOAD PUSH1 0x20 DUP8 ADD MSTORE PUSH1 0x2 DUP2 ADD SLOAD PUSH1 0x40 DUP8 ADD MSTORE PUSH1 0x3 DUP2 ADD SLOAD PUSH1 0x60 DUP8 ADD MSTORE PUSH1 0xFF PUSH1 0x4 DUP3 ADD SLOAD AND ISZERO ISZERO PUSH1 0x80 DUP8 ADD MSTORE ADD SLOAD PUSH1 0xA0 DUP6 ADD MSTORE DUP5 PUSH1 0x0 MSTORE PUSH1 0xB PUSH1 0x20 MSTORE PUSH2 0x1613 PUSH1 0x1 PUSH1 0xFF PUSH1 0x40 PUSH1 0x0 KECCAK256 SLOAD AND ISZERO ISZERO EQ PUSH2 0x20FC JUMP JUMPDEST PUSH1 0xA0 DUP5 ADD MLOAD PUSH2 0x1842 JUMPI PUSH2 0x1630 PUSH2 0x12C PUSH2 0x55D PUSH1 0x60 DUP8 ADD MLOAD TIMESTAMP PUSH2 0x207E JUMP JUMPDEST DUP5 PUSH1 0x0 MSTORE PUSH1 0xE PUSH1 0x20 MSTORE PUSH1 0x40 PUSH1 0x0 KECCAK256 SLOAD PUSH1 0x20 DUP6 ADD MLOAD PUSH2 0x3E8 SWAP2 DUP3 DUP3 MUL SWAP2 DUP1 DUP4 DIV DUP5 EQ SWAP1 ISZERO OR ISZERO PUSH2 0x621 JUMPI SUB PUSH2 0x1817 JUMPI DUP3 ISZERO ISZERO PUSH1 0x1 SUB PUSH2 0x17AF JUMPI POP PUSH1 0x14 SLOAD PUSH1 0x1 DUP2 ADD DUP2 GT PUSH2 0x621 JUMPI DUP1 PUSH1 0x1 DUP1 SWAP3 ADD PUSH1 0x14 SSTORE ADD PUSH1 0x0 MSTORE PUSH1 0xC PUSH1 0x20 MSTORE DUP5 PUSH1 0x40 PUSH1 0x0 KECCAK256 SSTORE PUSH1 0x14 SLOAD PUSH1 0x3 PUSH1 0x20 DUP7 ADD MLOAD PUSH1 0x40 DUP8 ADD MLOAD SWAP1 PUSH2 0x16A7 PUSH2 0x1FD5 JUMP JUMPDEST SWAP4 DUP1 DUP6 MSTORE PUSH1 0x20 DUP6 ADD SWAP1 TIMESTAMP DUP3 MSTORE PUSH1 0x40 DUP7 ADD SWAP3 DUP4 MSTORE PUSH1 0x60 DUP7 ADD SWAP4 DUP5 MSTORE PUSH1 0x0 MSTORE PUSH1 0xD PUSH1 0x20 MSTORE PUSH1 0x40 PUSH1 0x0 KECCAK256 SWAP5 MLOAD DUP6 SSTORE MLOAD PUSH1 0x1 DUP6 ADD SSTORE MLOAD PUSH1 0x2 DUP5 ADD SSTORE MLOAD SWAP2 ADD SSTORE PUSH1 0x14 SLOAD PUSH1 0x20 DUP3 ADD MSTORE PUSH1 0x20 DUP5 ADD MLOAD PUSH1 0x40 DUP3 ADD MSTORE DUP5 PUSH1 0x0 MSTORE PUSH1 0x7 PUSH1 0x20 MSTORE PUSH1 0x3 PUSH1 0x60 PUSH1 0x40 PUSH1 0x0 KECCAK256 SWAP3 DUP1 MLOAD DUP5 SSTORE PUSH1 0x20 DUP2 ADD MLOAD PUSH1 0x1 DUP6 ADD SSTORE PUSH1 0x40 DUP2 ADD MLOAD PUSH1 0x2 DUP6 ADD SSTORE ADD MLOAD SWAP2 ADD SSTORE JUMPDEST ISZERO ISZERO PUSH1 0x80 DUP4 ADD MSTORE TIMESTAMP PUSH1 0xA0 DUP4 ADD MSTORE DUP3 PUSH1 0x0 MSTORE PUSH1 0x8 PUSH1 0x20 MSTORE PUSH1 0x40 PUSH1 0x0 KECCAK256 SWAP1 PUSH1 0x0 MSTORE PUSH1 0x20 MSTORE PUSH1 0x5 PUSH1 0xA0 PUSH1 0x40 PUSH1 0x0 KECCAK256 SWAP3 DUP1 MLOAD DUP5 SSTORE PUSH1 0x20 DUP2 ADD MLOAD PUSH1 0x1 DUP6 ADD SSTORE PUSH1 0x40 DUP2 ADD MLOAD PUSH1 0x2 DUP6 ADD SSTORE PUSH1 0x60 DUP2 ADD MLOAD PUSH1 0x3 DUP6 ADD SSTORE PUSH2 0x1792 PUSH1 0x80 DUP3 ADD MLOAD ISZERO ISZERO PUSH1 0x4 DUP7 ADD SWAP1 PUSH1 0xFF DUP1 NOT DUP4 SLOAD AND SWAP2 ISZERO ISZERO AND OR SWAP1 SSTORE JUMP JUMPDEST ADD MLOAD SWAP2 ADD SSTORE PUSH1 0x0 SWAP1 DUP2 MSTORE PUSH1 0xB PUSH1 0x20 MSTORE PUSH1 0x40 SWAP1 KECCAK256 DUP1 SLOAD PUSH1 0xFF NOT AND SWAP1 SSTORE STOP JUMPDEST SWAP1 POP PUSH1 0x20 DUP5 ADD MLOAD DUP2 DUP2 MUL SWAP1 DUP1 DUP3 DIV DUP4 EQ SWAP1 ISZERO OR ISZERO PUSH2 0x621 JUMPI DUP6 PUSH1 0x0 MSTORE PUSH1 0xF PUSH1 0x20 MSTORE PUSH2 0x17E0 PUSH1 0x40 PUSH1 0x0 KECCAK256 SWAP2 DUP3 SLOAD PUSH2 0x208B JUMP JUMPDEST SWAP1 SSTORE PUSH1 0x20 DUP5 ADD MLOAD DUP2 DUP2 MUL SWAP2 DUP2 DUP4 DIV EQ SWAP1 ISZERO OR ISZERO PUSH2 0x621 JUMPI DUP5 PUSH1 0x0 MSTORE PUSH1 0xE PUSH1 0x20 MSTORE PUSH2 0x1810 PUSH1 0x40 PUSH1 0x0 KECCAK256 SWAP2 DUP3 SLOAD PUSH2 0x207E JUMP JUMPDEST SWAP1 SSTORE PUSH2 0x1725 JUMP JUMPDEST PUSH1 0x64 PUSH1 0x40 MLOAD PUSH3 0x461BCD PUSH1 0xE5 SHL DUP2 MSTORE PUSH1 0x20 PUSH1 0x4 DUP3 ADD MSTORE PUSH1 0x4 PUSH1 0x24 DUP3 ADD MSTORE PUSH4 0x52523233 PUSH1 0xE0 SHL PUSH1 0x44 DUP3 ADD MSTORE REVERT JUMPDEST PUSH1 0x64 PUSH1 0x40 MLOAD PUSH3 0x461BCD PUSH1 0xE5 SHL DUP2 MSTORE PUSH1 0x20 PUSH1 0x4 DUP3 ADD MSTORE PUSH1 0x4 PUSH1 0x24 DUP3 ADD MSTORE PUSH4 0x5252323 PUSH1 0xE4 SHL PUSH1 0x44 DUP3 ADD MSTORE REVERT JUMPDEST CALLVALUE PUSH2 0x26C JUMPI PUSH1 0x20 DUP1 PUSH1 0x3 NOT CALLDATASIZE ADD SLT PUSH2 0x26C JUMPI PUSH1 0x1 PUSH1 0x1 PUSH1 0xA0 SHL SUB PUSH2 0x188F PUSH2 0x1F4C JUMP JUMPDEST AND SWAP1 PUSH2 0x3E8 SWAP2 PUSH1 0x0 DUP1 DUP1 DUP1 DUP7 DUP6 DUP3 CALL ISZERO PUSH2 0xDEB JUMPI PUSH1 0x0 MSTORE PUSH1 0x5 DUP2 MSTORE PUSH1 0x40 PUSH1 0x0 KECCAK256 SLOAD SWAP2 DUP3 PUSH1 0x0 MSTORE PUSH1 0x7 DUP3 MSTORE PUSH1 0x40 PUSH1 0x0 KECCAK256 PUSH2 0x18C6 PUSH2 0x1FD5 JUMP JUMPDEST SWAP2 DUP2 SLOAD DUP4 MSTORE PUSH1 0x1 DUP3 ADD SLOAD SWAP2 DUP5 DUP5 ADD SWAP3 DUP4 MSTORE PUSH1 0x3 PUSH1 0x2 DUP3 ADD SLOAD SWAP2 PUSH1 0x40 DUP7 ADD SWAP3 DUP4 MSTORE ADD SLOAD PUSH1 0x60 DUP6 ADD SWAP3 DUP2 DUP5 MSTORE DUP2 ADD DUP1 SWAP2 GT PUSH2 0x621 JUMPI DUP3 MSTORE DUP1 MLOAD PUSH1 0x0 NOT DUP2 ADD SWAP4 SWAP1 DUP5 GT PUSH2 0x621 JUMPI PUSH1 0xE SWAP7 PUSH1 0x3 SWAP5 DUP4 MSTORE PUSH1 0x0 MSTORE PUSH1 0x7 DUP7 MSTORE PUSH1 0x40 PUSH1 0x0 KECCAK256 SWAP5 MLOAD DUP6 SSTORE MLOAD PUSH1 0x1 DUP6 ADD SSTORE MLOAD PUSH1 0x2 DUP5 ADD SSTORE MLOAD SWAP2 ADD SSTORE MSTORE PUSH1 0x40 PUSH1 0x0 KECCAK256 DUP1 SLOAD SWAP1 PUSH2 0x3E7 NOT DUP3 ADD SWAP2 DUP3 GT PUSH2 0x621 JUMPI SSTORE STOP JUMPDEST PUSH1 0x60 CALLDATASIZE PUSH1 0x3 NOT ADD SLT PUSH2 0x26C JUMPI PUSH1 0x4 CALLDATALOAD PUSH1 0x44 CALLDATALOAD SWAP1 PUSH2 0x1973 PUSH1 0x1 DUP1 PUSH1 0xA0 SHL SUB PUSH1 0x0 SLOAD AND CALLER EQ PUSH2 0x2098 JUMP JUMPDEST DUP2 ISZERO ISZERO DUP1 PUSH2 0x1B7F JUMPI JUMPDEST PUSH2 0x1985 SWAP1 PUSH2 0x20CA JUMP JUMPDEST DUP1 ISZERO PUSH2 0x1B54 JUMPI DUP2 PUSH1 0x0 MSTORE PUSH1 0x20 SWAP2 PUSH1 0xB DUP4 MSTORE PUSH2 0x19AC PUSH1 0x1 PUSH1 0xFF PUSH1 0x40 PUSH1 0x0 KECCAK256 SLOAD AND ISZERO ISZERO EQ PUSH2 0x20FC JUMP JUMPDEST DUP1 PUSH1 0x0 MSTORE PUSH1 0x7 DUP4 MSTORE PUSH2 0x19EC PUSH1 0x40 PUSH1 0x0 KECCAK256 PUSH2 0x19C4 PUSH2 0x1FD5 JUMP JUMPDEST DUP2 SLOAD DUP2 MSTORE PUSH1 0x1 DUP3 ADD SLOAD DUP7 DUP3 ADD MSTORE PUSH1 0x60 PUSH1 0x3 PUSH1 0x2 DUP5 ADD SLOAD SWAP4 DUP5 PUSH1 0x40 DUP6 ADD MSTORE ADD SLOAD SWAP2 ADD MSTORE ISZERO PUSH2 0x204C JUMP JUMPDEST DUP1 PUSH1 0x0 MSTORE PUSH1 0x9 DUP4 MSTORE PUSH1 0x40 PUSH1 0x0 KECCAK256 SLOAD SWAP2 PUSH1 0x8 DUP5 MSTORE PUSH1 0x40 PUSH1 0x0 KECCAK256 DUP4 PUSH1 0x0 MSTORE DUP5 MSTORE PUSH1 0x40 PUSH1 0x0 KECCAK256 SWAP1 PUSH2 0x1A18 PUSH2 0x200B JUMP JUMPDEST SWAP4 DUP3 SLOAD DUP6 MSTORE PUSH1 0x1 DUP4 ADD SLOAD DUP7 DUP7 ADD SWAP1 DUP2 MSTORE PUSH1 0x2 DUP5 ADD SLOAD SWAP2 PUSH1 0x40 DUP8 ADD SWAP3 DUP4 MSTORE PUSH1 0x3 DUP6 ADD SLOAD SWAP6 PUSH1 0x60 DUP9 ADD SWAP5 DUP8 DUP7 MSTORE PUSH1 0x5 PUSH1 0xFF PUSH1 0x4 DUP10 ADD SLOAD AND SWAP8 PUSH1 0x80 DUP12 ADD SWAP9 ISZERO ISZERO DUP10 MSTORE ADD SLOAD SWAP8 PUSH1 0xA0 DUP11 ADD SWAP9 DUP10 MSTORE PUSH2 0x1B29 JUMPI PUSH2 0x1A76 PUSH2 0x12C PUSH2 0x55D DUP12 MLOAD TIMESTAMP PUSH2 0x207E JUMP JUMPDEST PUSH2 0x3E8 DUP2 MUL PUSH2 0x3E7 NOT DUP3 DUP3 DIV ADD PUSH2 0x621 JUMPI CALLVALUE SUB PUSH2 0x1AFE JUMPI SWAP9 DUP2 PUSH1 0x5 SWAP10 SWAP11 PUSH2 0x1AF8 SWAP9 SWAP8 SWAP7 SWAP6 SWAP5 SWAP4 PUSH1 0x0 MSTORE PUSH1 0xE DUP4 MSTORE CALLVALUE PUSH1 0x40 PUSH1 0x0 KECCAK256 SSTORE DUP5 MSTORE PUSH1 0x24 CALLDATALOAD DUP6 MSTORE TIMESTAMP DUP7 MSTORE PUSH1 0x0 MSTORE PUSH1 0x8 DUP2 MSTORE PUSH1 0x40 PUSH1 0x0 KECCAK256 SWAP2 PUSH1 0x0 MSTORE MSTORE PUSH1 0x40 PUSH1 0x0 KECCAK256 SWAP8 MLOAD DUP9 SSTORE MLOAD PUSH1 0x1 DUP9 ADD SSTORE MLOAD PUSH1 0x2 DUP8 ADD SSTORE MLOAD PUSH1 0x3 DUP7 ADD SSTORE MLOAD ISZERO ISZERO PUSH1 0x4 DUP6 ADD SWAP1 PUSH1 0xFF DUP1 NOT DUP4 SLOAD AND SWAP2 ISZERO ISZERO AND OR SWAP1 SSTORE JUMP JUMPDEST MLOAD SWAP2 ADD SSTORE STOP JUMPDEST PUSH1 0x40 MLOAD PUSH3 0x461BCD PUSH1 0xE5 SHL DUP2 MSTORE PUSH1 0x4 DUP1 DUP3 ADD DUP13 SWAP1 MSTORE PUSH1 0x24 DUP3 ADD MSTORE PUSH4 0x29291919 PUSH1 0xE1 SHL PUSH1 0x44 DUP3 ADD MSTORE PUSH1 0x64 SWAP1 REVERT JUMPDEST PUSH1 0x40 MLOAD PUSH3 0x461BCD PUSH1 0xE5 SHL DUP2 MSTORE PUSH1 0x4 DUP1 DUP3 ADD DUP13 SWAP1 MSTORE PUSH1 0x24 DUP3 ADD MSTORE PUSH4 0x52523231 PUSH1 0xE0 SHL PUSH1 0x44 DUP3 ADD MSTORE PUSH1 0x64 SWAP1 REVERT JUMPDEST PUSH1 0x64 PUSH1 0x40 MLOAD PUSH3 0x461BCD PUSH1 0xE5 SHL DUP2 MSTORE PUSH1 0x20 PUSH1 0x4 DUP3 ADD MSTORE PUSH1 0x4 PUSH1 0x24 DUP3 ADD MSTORE PUSH4 0xA4A4627 PUSH1 0xE3 SHL PUSH1 0x44 DUP3 ADD MSTORE REVERT JUMPDEST POP PUSH1 0x13 SLOAD DUP3 GT ISZERO PUSH2 0x197C JUMP JUMPDEST CALLVALUE PUSH2 0x26C JUMPI PUSH1 0x20 CALLDATASIZE PUSH1 0x3 NOT ADD SLT PUSH2 0x26C JUMPI PUSH1 0x4 CALLDATALOAD PUSH1 0x0 MSTORE PUSH1 0x4 PUSH1 0x20 MSTORE PUSH1 0x20 PUSH1 0x1 DUP1 PUSH1 0xA0 SHL SUB PUSH1 0x40 PUSH1 0x0 KECCAK256 SLOAD AND PUSH1 0x40 MLOAD SWAP1 DUP2 MSTORE RETURN JUMPDEST CALLVALUE PUSH2 0x26C JUMPI PUSH1 0x20 CALLDATASIZE PUSH1 0x3 NOT ADD SLT PUSH2 0x26C JUMPI PUSH1 0x4 CALLDATALOAD PUSH1 0x0 MSTORE PUSH1 0xF PUSH1 0x20 MSTORE PUSH1 0x20 PUSH1 0x40 PUSH1 0x0 KECCAK256 SLOAD PUSH1 0x40 MLOAD SWAP1 DUP2 MSTORE RETURN JUMPDEST CALLVALUE PUSH2 0x26C JUMPI PUSH1 0x0 CALLDATASIZE PUSH1 0x3 NOT ADD SLT PUSH2 0x26C JUMPI PUSH2 0x1C12 PUSH1 0x1 DUP1 PUSH1 0xA0 SHL SUB PUSH1 0x0 SLOAD AND CALLER EQ ISZERO PUSH2 0x1F71 JUMP JUMPDEST CALLER PUSH1 0x0 MSTORE PUSH1 0x20 PUSH1 0x5 DUP2 MSTORE PUSH1 0x40 PUSH1 0x0 KECCAK256 SLOAD PUSH2 0x1C2D DUP2 ISZERO ISZERO PUSH2 0x1FA3 JUMP JUMPDEST DUP1 PUSH1 0x0 MSTORE PUSH1 0x7 DUP3 MSTORE PUSH1 0x40 PUSH1 0x0 KECCAK256 SWAP2 PUSH2 0x1C71 PUSH2 0x1C46 PUSH2 0x1FD5 JUMP JUMPDEST SWAP4 DUP1 SLOAD DUP6 MSTORE PUSH1 0x1 SWAP5 DUP6 DUP3 ADD SLOAD DUP5 DUP3 ADD MSTORE PUSH1 0x60 PUSH1 0x3 PUSH1 0x2 DUP5 ADD SLOAD SWAP4 DUP5 PUSH1 0x40 DUP6 ADD MSTORE ADD SLOAD SWAP2 ADD MSTORE ISZERO PUSH2 0x204C JUMP JUMPDEST DUP2 PUSH1 0x0 MSTORE PUSH1 0x9 DUP2 MSTORE PUSH1 0x40 PUSH1 0x0 KECCAK256 SLOAD PUSH1 0x8 DUP3 MSTORE PUSH1 0x40 PUSH1 0x0 KECCAK256 SWAP1 PUSH1 0x0 MSTORE DUP2 MSTORE PUSH1 0x40 PUSH1 0x0 KECCAK256 PUSH2 0x1C9B PUSH2 0x200B JUMP JUMPDEST DUP2 SLOAD DUP2 MSTORE DUP5 DUP3 ADD SLOAD SWAP2 DUP4 DUP3 ADD SWAP3 DUP4 MSTORE PUSH1 0x2 DUP2 ADD SLOAD PUSH1 0x40 DUP4 ADD MSTORE PUSH1 0x5 PUSH1 0x3 DUP3 ADD SLOAD SWAP2 PUSH1 0x60 DUP5 ADD SWAP3 DUP4 MSTORE PUSH1 0xFF PUSH1 0x4 DUP3 ADD SLOAD AND ISZERO ISZERO PUSH1 0x80 DUP6 ADD MSTORE ADD SLOAD SWAP1 PUSH1 0xA0 DUP4 ADD SWAP2 DUP3 MSTORE DUP6 PUSH1 0x0 MSTORE PUSH1 0xB DUP6 MSTORE DUP7 PUSH1 0xFF PUSH1 0x40 PUSH1 0x0 KECCAK256 SLOAD AND ISZERO ISZERO EQ PUSH2 0x1E39 JUMPI JUMPDEST POP POP POP POP DUP2 PUSH1 0x0 MSTORE PUSH1 0xB DUP2 MSTORE PUSH1 0xFF PUSH1 0x40 PUSH1 0x0 KECCAK256 SLOAD AND PUSH2 0x1E0E JUMPI PUSH1 0x12 SLOAD SWAP2 DUP4 DUP4 ADD DUP1 SWAP4 GT PUSH2 0x621 JUMPI DUP3 PUSH1 0xB SWAP4 PUSH1 0x12 SSTORE DUP2 PUSH1 0x0 MSTORE PUSH1 0x8 DUP4 MSTORE PUSH1 0x40 PUSH1 0x0 KECCAK256 DUP2 PUSH1 0x0 MSTORE DUP4 MSTORE PUSH1 0x5 PUSH1 0x40 PUSH1 0x0 KECCAK256 SWAP2 PUSH2 0x1DD3 PUSH2 0x1D4A PUSH2 0x200B JUMP JUMPDEST SWAP4 DUP9 DUP2 ADD SLOAD DUP8 DUP7 ADD SWAP1 DUP2 MSTORE PUSH1 0x2 DUP3 ADD SLOAD PUSH1 0x40 DUP8 ADD SWAP1 DUP2 MSTORE PUSH1 0x3 DUP4 ADD SLOAD SWAP2 PUSH1 0x60 DUP9 ADD SWAP3 DUP4 MSTORE DUP7 PUSH1 0xFF PUSH1 0x4 DUP7 ADD SLOAD AND SWAP5 PUSH1 0x80 DUP11 ADD SWAP6 ISZERO ISZERO DUP7 MSTORE ADD SLOAD SWAP6 PUSH1 0xA0 DUP10 ADD SWAP7 DUP8 MSTORE TIMESTAMP DUP10 MSTORE DUP10 PUSH1 0x0 MSTORE PUSH1 0x8 DUP12 MSTORE PUSH1 0x40 PUSH1 0x0 KECCAK256 SWAP1 PUSH1 0x0 MSTORE DUP11 MSTORE PUSH1 0x40 PUSH1 0x0 KECCAK256 SWAP8 MLOAD DUP9 SSTORE MLOAD DUP12 DUP9 ADD SSTORE MLOAD PUSH1 0x2 DUP8 ADD SSTORE MLOAD PUSH1 0x3 DUP7 ADD SSTORE MLOAD ISZERO ISZERO PUSH1 0x4 DUP6 ADD SWAP1 PUSH1 0xFF DUP1 NOT DUP4 SLOAD AND SWAP2 ISZERO ISZERO AND OR SWAP1 SSTORE JUMP JUMPDEST MLOAD SWAP2 ADD SSTORE PUSH1 0x12 SLOAD PUSH1 0x0 MSTORE PUSH1 0xA DUP3 MSTORE DUP1 PUSH1 0x40 PUSH1 0x0 KECCAK256 SSTORE PUSH1 0x12 SLOAD SWAP1 PUSH1 0x0 MSTORE PUSH1 0x9 DUP3 MSTORE PUSH1 0x40 PUSH1 0x0 KECCAK256 SSTORE MSTORE PUSH1 0x40 PUSH1 0x0 KECCAK256 SWAP1 PUSH1 0xFF NOT DUP3 SLOAD AND OR SWAP1 SSTORE PUSH1 0x0 DUP1 RETURN JUMPDEST PUSH1 0x64 SWAP1 PUSH1 0x40 MLOAD SWAP1 PUSH3 0x461BCD PUSH1 0xE5 SHL DUP3 MSTORE PUSH1 0x4 DUP3 ADD MSTORE PUSH1 0x4 PUSH1 0x24 DUP3 ADD MSTORE PUSH4 0x2929189B PUSH1 0xE1 SHL PUSH1 0x44 DUP3 ADD MSTORE REVERT JUMPDEST PUSH2 0x1E4A SWAP3 PUSH2 0x12C SWAP4 DUP5 SWAP2 MLOAD TIMESTAMP PUSH2 0x207E JUMP JUMPDEST GT DUP1 PUSH2 0x1F2A JUMPI JUMPDEST PUSH2 0x1F10 JUMPI JUMPDEST MLOAD SWAP2 DUP3 ISZERO ISZERO SWAP3 DUP4 PUSH2 0x1EFA JUMPI JUMPDEST POP POP DUP2 PUSH2 0x1EF0 JUMPI JUMPDEST POP PUSH2 0x1E78 JUMPI JUMPDEST DUP1 DUP1 DUP1 PUSH2 0x1CF6 JUMP JUMPDEST DUP3 PUSH1 0x0 MSTORE PUSH1 0xB DUP3 MSTORE PUSH1 0x40 PUSH1 0x0 KECCAK256 PUSH1 0xFF NOT DUP2 SLOAD AND SWAP1 SSTORE DUP1 MLOAD SWAP1 PUSH2 0x3E8 SWAP2 DUP3 DUP2 MUL SWAP1 DUP1 DUP3 DIV DUP5 EQ SWAP1 ISZERO OR ISZERO PUSH2 0x621 JUMPI DUP5 PUSH1 0x0 MSTORE PUSH1 0xF DUP5 MSTORE PUSH2 0x1EBD PUSH1 0x40 PUSH1 0x0 KECCAK256 SWAP2 DUP3 SLOAD PUSH2 0x208B JUMP JUMPDEST SWAP1 SSTORE MLOAD DUP2 DUP2 MUL SWAP2 DUP2 DUP4 DIV EQ SWAP1 ISZERO OR ISZERO PUSH2 0x621 JUMPI DUP3 PUSH1 0x0 MSTORE PUSH1 0xE DUP3 MSTORE PUSH2 0x1EE8 PUSH1 0x40 PUSH1 0x0 KECCAK256 SWAP2 DUP3 SLOAD PUSH2 0x207E JUMP JUMPDEST SWAP1 SSTORE DUP4 PUSH2 0x1E70 JUMP JUMPDEST SWAP1 POP MLOAD ISZERO DUP6 PUSH2 0x1E6A JUMP JUMPDEST PUSH2 0x1F07 SWAP2 SWAP3 SWAP4 POP TIMESTAMP PUSH2 0x207E JUMP JUMPDEST GT SWAP1 DUP7 DUP1 PUSH2 0x1E62 JUMP JUMPDEST DUP6 PUSH1 0x0 MSTORE PUSH1 0xB DUP6 MSTORE PUSH1 0x40 PUSH1 0x0 KECCAK256 PUSH1 0xFF NOT DUP2 SLOAD AND SWAP1 SSTORE PUSH2 0x1E56 JUMP JUMPDEST POP DUP1 MLOAD ISZERO PUSH2 0x1E51 JUMP JUMPDEST CALLVALUE PUSH2 0x26C JUMPI PUSH1 0x0 CALLDATASIZE PUSH1 0x3 NOT ADD SLT PUSH2 0x26C JUMPI PUSH1 0x20 SWAP1 SELFBALANCE DUP2 MSTORE RETURN JUMPDEST PUSH1 0x4 CALLDATALOAD SWAP1 PUSH1 0x1 PUSH1 0x1 PUSH1 0xA0 SHL SUB DUP3 AND DUP3 SUB PUSH2 0x26C JUMPI JUMP JUMPDEST PUSH1 0x4 CALLDATALOAD SWAP1 DUP2 ISZERO ISZERO DUP3 SUB PUSH2 0x26C JUMPI JUMP JUMPDEST ISZERO PUSH2 0x1F78 JUMPI JUMP JUMPDEST PUSH1 0x40 MLOAD PUSH3 0x461BCD PUSH1 0xE5 SHL DUP2 MSTORE PUSH1 0x20 PUSH1 0x4 DUP3 ADD MSTORE PUSH1 0x3 PUSH1 0x24 DUP3 ADD MSTORE PUSH3 0x292919 PUSH1 0xE9 SHL PUSH1 0x44 DUP3 ADD MSTORE PUSH1 0x64 SWAP1 REVERT JUMPDEST ISZERO PUSH2 0x1FAA JUMPI JUMP JUMPDEST PUSH1 0x64 PUSH1 0x40 MLOAD PUSH3 0x461BCD PUSH1 0xE5 SHL DUP2 MSTORE PUSH1 0x20 PUSH1 0x4 DUP3 ADD MSTORE PUSH1 0x4 PUSH1 0x24 DUP3 ADD MSTORE PUSH4 0x14948C4D PUSH1 0xE2 SHL PUSH1 0x44 DUP3 ADD MSTORE REVERT JUMPDEST PUSH1 0x40 MLOAD SWAP1 PUSH1 0x80 DUP3 ADD DUP3 DUP2 LT PUSH8 0xFFFFFFFFFFFFFFFF DUP3 GT OR PUSH2 0x1FF5 JUMPI PUSH1 0x40 MSTORE JUMP JUMPDEST PUSH4 0x4E487B71 PUSH1 0xE0 SHL PUSH1 0x0 MSTORE PUSH1 0x41 PUSH1 0x4 MSTORE PUSH1 0x24 PUSH1 0x0 REVERT JUMPDEST PUSH1 0x40 MLOAD SWAP1 PUSH1 0xC0 DUP3 ADD DUP3 DUP2 LT PUSH8 0xFFFFFFFFFFFFFFFF DUP3 GT OR PUSH2 0x1FF5 JUMPI PUSH1 0x40 MSTORE JUMP JUMPDEST PUSH1 0x40 MLOAD SWAP1 PUSH2 0x100 DUP3 ADD DUP3 DUP2 LT PUSH8 0xFFFFFFFFFFFFFFFF DUP3 GT OR PUSH2 0x1FF5 JUMPI PUSH1 0x40 MSTORE JUMP JUMPDEST ISZERO PUSH2 0x2053 JUMPI JUMP JUMPDEST PUSH1 0x64 PUSH1 0x40 MLOAD PUSH3 0x461BCD PUSH1 0xE5 SHL DUP2 MSTORE PUSH1 0x20 PUSH1 0x4 DUP3 ADD MSTORE PUSH1 0x4 PUSH1 0x24 DUP3 ADD MSTORE PUSH4 0x52523135 PUSH1 0xE0 SHL PUSH1 0x44 DUP3 ADD MSTORE REVERT JUMPDEST SWAP2 SWAP1 DUP3 SUB SWAP2 DUP3 GT PUSH2 0x621 JUMPI JUMP JUMPDEST SWAP2 SWAP1 DUP3 ADD DUP1 SWAP3 GT PUSH2 0x621 JUMPI JUMP JUMPDEST ISZERO PUSH2 0x209F JUMPI JUMP JUMPDEST PUSH1 0x40 MLOAD PUSH3 0x461BCD PUSH1 0xE5 SHL DUP2 MSTORE PUSH1 0x20 PUSH1 0x4 DUP3 ADD MSTORE PUSH1 0x3 PUSH1 0x24 DUP3 ADD MSTORE PUSH3 0x525231 PUSH1 0xE8 SHL PUSH1 0x44 DUP3 ADD MSTORE PUSH1 0x64 SWAP1 REVERT JUMPDEST ISZERO PUSH2 0x20D1 JUMPI JUMP JUMPDEST PUSH1 0x64 PUSH1 0x40 MLOAD PUSH3 0x461BCD PUSH1 0xE5 SHL DUP2 MSTORE PUSH1 0x20 PUSH1 0x4 DUP3 ADD MSTORE PUSH1 0x4 PUSH1 0x24 DUP3 ADD MSTORE PUSH4 0x52523137 PUSH1 0xE0 SHL PUSH1 0x44 DUP3 ADD MSTORE REVERT JUMPDEST ISZERO PUSH2 0x2103 JUMPI JUMP JUMPDEST PUSH1 0x64 PUSH1 0x40 MLOAD PUSH3 0x461BCD PUSH1 0xE5 SHL DUP2 MSTORE PUSH1 0x20 PUSH1 0x4 DUP3 ADD MSTORE PUSH1 0x4 PUSH1 0x24 DUP3 ADD MSTORE PUSH4 0x52523139 PUSH1 0xE0 SHL PUSH1 0x44 DUP3 ADD MSTORE REVERT JUMPDEST ISZERO PUSH2 0x2135 JUMPI JUMP JUMPDEST PUSH1 0x40 MLOAD PUSH3 0x461BCD PUSH1 0xE5 SHL DUP2 MSTORE PUSH1 0x20 PUSH1 0x4 DUP3 ADD MSTORE PUSH1 0x3 PUSH1 0x24 DUP3 ADD MSTORE PUSH3 0xA4A47 PUSH1 0xEB SHL PUSH1 0x44 DUP3 ADD MSTORE PUSH1 0x64 SWAP1 REVERT JUMPDEST ISZERO PUSH2 0x2167 JUMPI JUMP JUMPDEST PUSH1 0x40 MLOAD PUSH3 0x461BCD PUSH1 0xE5 SHL DUP2 MSTORE PUSH1 0x20 PUSH1 0x4 DUP3 ADD MSTORE PUSH1 0x3 PUSH1 0x24 DUP3 ADD MSTORE PUSH3 0x525233 PUSH1 0xE8 SHL PUSH1 0x44 DUP3 ADD MSTORE PUSH1 0x64 SWAP1 REVERT JUMPDEST ISZERO PUSH2 0x2199 JUMPI JUMP JUMPDEST PUSH1 0x40 MLOAD PUSH3 0x461BCD PUSH1 0xE5 SHL DUP2 MSTORE PUSH1 0x20 PUSH1 0x4 DUP3 ADD MSTORE PUSH1 0x3 PUSH1 0x24 DUP3 ADD MSTORE PUSH3 0x525235 PUSH1 0xE8 SHL PUSH1 0x44 DUP3 ADD MSTORE PUSH1 0x64 SWAP1 REVERT JUMPDEST DUP1 ISZERO ISZERO SWAP1 DUP2 PUSH2 0x21DE JUMPI JUMPDEST POP ISZERO PUSH2 0x21D9 JUMPI PUSH1 0x1 SWAP1 JUMP JUMPDEST PUSH1 0x0 SWAP1 JUMP JUMPDEST SWAP1 POP PUSH1 0x13 SLOAD LT ISZERO CODESIZE PUSH2 0x21CE JUMP INVALID LOG2 PUSH5 0x6970667358 0x22 SLT KECCAK256 0xCF DUP13 0x2B 0xB0 DUP15 0xB2 SHL CODECOPY 0xAF 0xBC 0xD EXTCODEHASH PUSH17 0xD28EA6DEFF4C4B7609743EEF2A99F79C69 DUP5 0xD5 PUSH5 0x736F6C6343 STOP ADDMOD AND STOP CALLER "
				},
				"gasEstimates": {
					"creation": {
						"codeDepositCost": "1747400",
						"executionCost": "46122",
						"totalCost": "1793522"
					},
					"external": {
						"amountToBeRefundedToGovt(uint256)": "2371",
						"applHash(address,bytes32)": "208427",
						"commitVaccineSet(uint256,bytes32,uint256)": "188099",
						"decideOnAcceptanceAppl(uint256,bool)": "345101",
						"decideOnAcceptanceHash(bool)": "259147",
						"decideOnAcceptanceVaccineSet(bool)": "infinite",
						"getBalance()": "155",
						"getGovt()": "3167",
						"getStockInfo(uint256)": "9811",
						"getVC(uint256)": "9660",
						"getVCFromvcID(uint256)": "9210",
						"getVialState(bytes32)": "3137",
						"getvcAddr(uint256)": "3051",
						"getvcID(address)": "2786",
						"govt()": "3101",
						"isValidVC(uint256)": "3170",
						"latestVCRefillApplNumber(uint256)": "2767",
						"latestVCRegistrationApplNumber(address)": "2962",
						"lockedServiceChargeForVC(uint256)": "2613",
						"payServiceCharge(address)": "infinite",
						"perVaccineServiceCharge()": "246",
						"refillApplIDGenerator()": "2613",
						"refillStockAppl()": "infinite",
						"refillVaccineAppl(uint256,uint256)": "13436",
						"regApplIDGenerator()": "2877",
						"serviceChargeAmount()": "378",
						"setVialState(bytes32,uint8)": "25374",
						"stockIDGenerator()": "2921",
						"takeAwayLockedMoney(uint256)": "infinite",
						"timeLimit()": "886",
						"timestampAppl()": "infinite",
						"vaccineStockBelongsTo(uint256)": "2635",
						"vaccineStockDetails(uint256)": "9564",
						"vcAddrTovcID(address)": "2522",
						"vcIDGenerator()": "2789",
						"vcIDTovcAddr(uint256)": "2411",
						"vcRefillApplBelongsTo(uint256)": "2921",
						"vcRefillApplUnderProcess(uint256)": "2845",
						"vcRegistrationAppl(address,uint256)": "17630",
						"vcRegistrationApplBelongsTo(uint256)": "2477",
						"vcRegistrationApplUnderProcess(address)": "2842",
						"vialState(bytes32)": "2635"
					}
				},
				"methodIdentifiers": {
					"amountToBeRefundedToGovt(uint256)": "1abb3cb3",
					"applHash(address,bytes32)": "b4b89ffb",
					"commitVaccineSet(uint256,bytes32,uint256)": "2d6ba1ee",
					"decideOnAcceptanceAppl(uint256,bool)": "af223ac2",
					"decideOnAcceptanceHash(bool)": "bd1a7c73",
					"decideOnAcceptanceVaccineSet(bool)": "3616a4fc",
					"getBalance()": "12065fe0",
					"getGovt()": "f0abda5d",
					"getStockInfo(uint256)": "f888ee02",
					"getVC(uint256)": "c50ff426",
					"getVCFromvcID(uint256)": "8f9e0f58",
					"getVialState(bytes32)": "cde20b05",
					"getvcAddr(uint256)": "bf96ce32",
					"getvcID(address)": "521105af",
					"govt()": "d9382c1b",
					"isValidVC(uint256)": "d4f5ce46",
					"latestVCRefillApplNumber(uint256)": "6dcbd957",
					"latestVCRegistrationApplNumber(address)": "a596bdb0",
					"lockedServiceChargeForVC(uint256)": "4acc3b94",
					"payServiceCharge(address)": "30809899",
					"perVaccineServiceCharge()": "1cc48983",
					"refillApplIDGenerator()": "4ee00c00",
					"refillStockAppl()": "1aaaf8a3",
					"refillVaccineAppl(uint256,uint256)": "5d840c3d",
					"regApplIDGenerator()": "b3c00500",
					"serviceChargeAmount()": "4163c6a9",
					"setVialState(bytes32,uint8)": "ee95f27e",
					"stockIDGenerator()": "b4cd7689",
					"takeAwayLockedMoney(uint256)": "74cb2918",
					"timeLimit()": "c08d1fe5",
					"timestampAppl()": "4c5fe3ba",
					"vaccineStockBelongsTo(uint256)": "4b230744",
					"vaccineStockDetails(uint256)": "e6da13e5",
					"vcAddrTovcID(address)": "20992ee6",
					"vcIDGenerator()": "9b8ade16",
					"vcIDTovcAddr(uint256)": "1c598771",
					"vcRefillApplBelongsTo(uint256)": "af7f659d",
					"vcRefillApplUnderProcess(uint256)": "9a6114f8",
					"vcRegistrationAppl(address,uint256)": "4598e9db",
					"vcRegistrationApplBelongsTo(uint256)": "24913a26",
					"vcRegistrationApplUnderProcess(address)": "62c419ae",
					"vialState(bytes32)": "4667fab2"
				}
			},
			"storageLayout": {
				"storage": [
					{
						"astId": 3,
						"contract": "Updated Smart Contracts/SC_VC_Govt.sol:SC_VC_Govt",
						"label": "govt",
						"offset": 0,
						"slot": "0",
						"type": "t_address"
					},
					{
						"astId": 58,
						"contract": "Updated Smart Contracts/SC_VC_Govt.sol:SC_VC_Govt",
						"label": "vcRegistrationAppl",
						"offset": 0,
						"slot": "1",
						"type": "t_mapping(t_address,t_mapping(t_uint256,t_struct(VCRegistrationAppl)20_storage))"
					},
					{
						"astId": 62,
						"contract": "Updated Smart Contracts/SC_VC_Govt.sol:SC_VC_Govt",
						"label": "latestVCRegistrationApplNumber",
						"offset": 0,
						"slot": "2",
						"type": "t_mapping(t_address,t_uint256)"
					},
					{
						"astId": 66,
						"contract": "Updated Smart Contracts/SC_VC_Govt.sol:SC_VC_Govt",
						"label": "vcRegistrationApplUnderProcess",
						"offset": 0,
						"slot": "3",
						"type": "t_mapping(t_address,t_bool)"
					},
					{
						"astId": 70,
						"contract": "Updated Smart Contracts/SC_VC_Govt.sol:SC_VC_Govt",
						"label": "vcRegistrationApplBelongsTo",
						"offset": 0,
						"slot": "4",
						"type": "t_mapping(t_uint256,t_address)"
					},
					{
						"astId": 74,
						"contract": "Updated Smart Contracts/SC_VC_Govt.sol:SC_VC_Govt",
						"label": "vcAddrTovcID",
						"offset": 0,
						"slot": "5",
						"type": "t_mapping(t_address,t_uint256)"
					},
					{
						"astId": 78,
						"contract": "Updated Smart Contracts/SC_VC_Govt.sol:SC_VC_Govt",
						"label": "vcIDTovcAddr",
						"offset": 0,
						"slot": "6",
						"type": "t_mapping(t_uint256,t_address)"
					},
					{
						"astId": 83,
						"contract": "Updated Smart Contracts/SC_VC_Govt.sol:SC_VC_Govt",
						"label": "getVCFromvcID",
						"offset": 0,
						"slot": "7",
						"type": "t_mapping(t_uint256,t_struct(VC)29_storage)"
					},
					{
						"astId": 90,
						"contract": "Updated Smart Contracts/SC_VC_Govt.sol:SC_VC_Govt",
						"label": "refillVaccineAppl",
						"offset": 0,
						"slot": "8",
						"type": "t_mapping(t_uint256,t_mapping(t_uint256,t_struct(RefillVaccineStockAppl)42_storage))"
					},
					{
						"astId": 94,
						"contract": "Updated Smart Contracts/SC_VC_Govt.sol:SC_VC_Govt",
						"label": "latestVCRefillApplNumber",
						"offset": 0,
						"slot": "9",
						"type": "t_mapping(t_uint256,t_uint256)"
					},
					{
						"astId": 98,
						"contract": "Updated Smart Contracts/SC_VC_Govt.sol:SC_VC_Govt",
						"label": "vcRefillApplBelongsTo",
						"offset": 0,
						"slot": "10",
						"type": "t_mapping(t_uint256,t_uint256)"
					},
					{
						"astId": 102,
						"contract": "Updated Smart Contracts/SC_VC_Govt.sol:SC_VC_Govt",
						"label": "vcRefillApplUnderProcess",
						"offset": 0,
						"slot": "11",
						"type": "t_mapping(t_uint256,t_bool)"
					},
					{
						"astId": 106,
						"contract": "Updated Smart Contracts/SC_VC_Govt.sol:SC_VC_Govt",
						"label": "vaccineStockBelongsTo",
						"offset": 0,
						"slot": "12",
						"type": "t_mapping(t_uint256,t_uint256)"
					},
					{
						"astId": 111,
						"contract": "Updated Smart Contracts/SC_VC_Govt.sol:SC_VC_Govt",
						"label": "vaccineStockDetails",
						"offset": 0,
						"slot": "13",
						"type": "t_mapping(t_uint256,t_struct(VaccineStock)51_storage)"
					},
					{
						"astId": 115,
						"contract": "Updated Smart Contracts/SC_VC_Govt.sol:SC_VC_Govt",
						"label": "lockedServiceChargeForVC",
						"offset": 0,
						"slot": "14",
						"type": "t_mapping(t_uint256,t_uint256)"
					},
					{
						"astId": 119,
						"contract": "Updated Smart Contracts/SC_VC_Govt.sol:SC_VC_Govt",
						"label": "amountToBeRefundedToGovt",
						"offset": 0,
						"slot": "15",
						"type": "t_mapping(t_uint256,t_uint256)"
					},
					{
						"astId": 128,
						"contract": "Updated Smart Contracts/SC_VC_Govt.sol:SC_VC_Govt",
						"label": "vialState",
						"offset": 0,
						"slot": "16",
						"type": "t_mapping(t_bytes32,t_enum(VialState)123)"
					},
					{
						"astId": 137,
						"contract": "Updated Smart Contracts/SC_VC_Govt.sol:SC_VC_Govt",
						"label": "regApplIDGenerator",
						"offset": 0,
						"slot": "17",
						"type": "t_uint256"
					},
					{
						"astId": 140,
						"contract": "Updated Smart Contracts/SC_VC_Govt.sol:SC_VC_Govt",
						"label": "refillApplIDGenerator",
						"offset": 0,
						"slot": "18",
						"type": "t_uint256"
					},
					{
						"astId": 143,
						"contract": "Updated Smart Contracts/SC_VC_Govt.sol:SC_VC_Govt",
						"label": "vcIDGenerator",
						"offset": 0,
						"slot": "19",
						"type": "t_uint256"
					},
					{
						"astId": 146,
						"contract": "Updated Smart Contracts/SC_VC_Govt.sol:SC_VC_Govt",
						"label": "stockIDGenerator",
						"offset": 0,
						"slot": "20",
						"type": "t_uint256"
					}
				],
				"types": {
					"t_address": {
						"encoding": "inplace",
						"label": "address",
						"numberOfBytes": "20"
					},
					"t_bool": {
						"encoding": "inplace",
						"label": "bool",
						"numberOfBytes": "1"
					},
					"t_bytes32": {
						"encoding": "inplace",
						"label": "bytes32",
						"numberOfBytes": "32"
					},
					"t_enum(VialState)123": {
						"encoding": "inplace",
						"label": "enum SC_VC_Govt.VialState",
						"numberOfBytes": "1"
					},
					"t_mapping(t_address,t_bool)": {
						"encoding": "mapping",
						"key": "t_address",
						"label": "mapping(address => bool)",
						"numberOfBytes": "32",
						"value": "t_bool"
					},
					"t_mapping(t_address,t_mapping(t_uint256,t_struct(VCRegistrationAppl)20_storage))": {
						"encoding": "mapping",
						"key": "t_address",
						"label": "mapping(address => mapping(uint256 => struct SC_VC_Govt.VCRegistrationAppl))",
						"numberOfBytes": "32",
						"value": "t_mapping(t_uint256,t_struct(VCRegistrationAppl)20_storage)"
					},
					"t_mapping(t_address,t_uint256)": {
						"encoding": "mapping",
						"key": "t_address",
						"label": "mapping(address => uint256)",
						"numberOfBytes": "32",
						"value": "t_uint256"
					},
					"t_mapping(t_bytes32,t_enum(VialState)123)": {
						"encoding": "mapping",
						"key": "t_bytes32",
						"label": "mapping(bytes32 => enum SC_VC_Govt.VialState)",
						"numberOfBytes": "32",
						"value": "t_enum(VialState)123"
					},
					"t_mapping(t_uint256,t_address)": {
						"encoding": "mapping",
						"key": "t_uint256",
						"label": "mapping(uint256 => address)",
						"numberOfBytes": "32",
						"value": "t_address"
					},
					"t_mapping(t_uint256,t_bool)": {
						"encoding": "mapping",
						"key": "t_uint256",
						"label": "mapping(uint256 => bool)",
						"numberOfBytes": "32",
						"value": "t_bool"
					},
					"t_mapping(t_uint256,t_mapping(t_uint256,t_struct(RefillVaccineStockAppl)42_storage))": {
						"encoding": "mapping",
						"key": "t_uint256",
						"label": "mapping(uint256 => mapping(uint256 => struct SC_VC_Govt.RefillVaccineStockAppl))",
						"numberOfBytes": "32",
						"value": "t_mapping(t_uint256,t_struct(RefillVaccineStockAppl)42_storage)"
					},
					"t_mapping(t_uint256,t_struct(RefillVaccineStockAppl)42_storage)": {
						"encoding": "mapping",
						"key": "t_uint256",
						"label": "mapping(uint256 => struct SC_VC_Govt.RefillVaccineStockAppl)",
						"numberOfBytes": "32",
						"value": "t_struct(RefillVaccineStockAppl)42_storage"
					},
					"t_mapping(t_uint256,t_struct(VC)29_storage)": {
						"encoding": "mapping",
						"key": "t_uint256",
						"label": "mapping(uint256 => struct SC_VC_Govt.VC)",
						"numberOfBytes": "32",
						"value": "t_struct(VC)29_storage"
					},
					"t_mapping(t_uint256,t_struct(VCRegistrationAppl)20_storage)": {
						"encoding": "mapping",
						"key": "t_uint256",
						"label": "mapping(uint256 => struct SC_VC_Govt.VCRegistrationAppl)",
						"numberOfBytes": "32",
						"value": "t_struct(VCRegistrationAppl)20_storage"
					},
					"t_mapping(t_uint256,t_struct(VaccineStock)51_storage)": {
						"encoding": "mapping",
						"key": "t_uint256",
						"label": "mapping(uint256 => struct SC_VC_Govt.VaccineStock)",
						"numberOfBytes": "32",
						"value": "t_struct(VaccineStock)51_storage"
					},
					"t_mapping(t_uint256,t_uint256)": {
						"encoding": "mapping",
						"key": "t_uint256",
						"label": "mapping(uint256 => uint256)",
						"numberOfBytes": "32",
						"value": "t_uint256"
					},
					"t_struct(RefillVaccineStockAppl)42_storage": {
						"encoding": "inplace",
						"label": "struct SC_VC_Govt.RefillVaccineStockAppl",
						"members": [
							{
								"astId": 31,
								"contract": "Updated Smart Contracts/SC_VC_Govt.sol:SC_VC_Govt",
								"label": "timestamp_refill_Appl",
								"offset": 0,
								"slot": "0",
								"type": "t_uint256"
							},
							{
								"astId": 33,
								"contract": "Updated Smart Contracts/SC_VC_Govt.sol:SC_VC_Govt",
								"label": "cardinality_of_set",
								"offset": 0,
								"slot": "1",
								"type": "t_uint256"
							},
							{
								"astId": 35,
								"contract": "Updated Smart Contracts/SC_VC_Govt.sol:SC_VC_Govt",
								"label": "commitment_vaccine_set",
								"offset": 0,
								"slot": "2",
								"type": "t_bytes32"
							},
							{
								"astId": 37,
								"contract": "Updated Smart Contracts/SC_VC_Govt.sol:SC_VC_Govt",
								"label": "timestamp_commit_vaccine_set",
								"offset": 0,
								"slot": "3",
								"type": "t_uint256"
							},
							{
								"astId": 39,
								"contract": "Updated Smart Contracts/SC_VC_Govt.sol:SC_VC_Govt",
								"label": "accept_vaccine_set",
								"offset": 0,
								"slot": "4",
								"type": "t_bool"
							},
							{
								"astId": 41,
								"contract": "Updated Smart Contracts/SC_VC_Govt.sol:SC_VC_Govt",
								"label": "timestamp_accept_vaccine_set",
								"offset": 0,
								"slot": "5",
								"type": "t_uint256"
							}
						],
						"numberOfBytes": "192"
					},
					"t_struct(VC)29_storage": {
						"encoding": "inplace",
						"label": "struct SC_VC_Govt.VC",
						"members": [
							{
								"astId": 22,
								"contract": "Updated Smart Contracts/SC_VC_Govt.sol:SC_VC_Govt",
								"label": "vcID",
								"offset": 0,
								"slot": "0",
								"type": "t_uint256"
							},
							{
								"astId": 24,
								"contract": "Updated Smart Contracts/SC_VC_Govt.sol:SC_VC_Govt",
								"label": "currentStockID",
								"offset": 0,
								"slot": "1",
								"type": "t_uint256"
							},
							{
								"astId": 26,
								"contract": "Updated Smart Contracts/SC_VC_Govt.sol:SC_VC_Govt",
								"label": "no_of_vaccine_vials_remaining",
								"offset": 0,
								"slot": "2",
								"type": "t_uint256"
							},
							{
								"astId": 28,
								"contract": "Updated Smart Contracts/SC_VC_Govt.sol:SC_VC_Govt",
								"label": "money_earned",
								"offset": 0,
								"slot": "3",
								"type": "t_uint256"
							}
						],
						"numberOfBytes": "128"
					},
					"t_struct(VCRegistrationAppl)20_storage": {
						"encoding": "inplace",
						"label": "struct SC_VC_Govt.VCRegistrationAppl",
						"members": [
							{
								"astId": 5,
								"contract": "Updated Smart Contracts/SC_VC_Govt.sol:SC_VC_Govt",
								"label": "timestamp_reg_appl",
								"offset": 0,
								"slot": "0",
								"type": "t_uint256"
							},
							{
								"astId": 7,
								"contract": "Updated Smart Contracts/SC_VC_Govt.sol:SC_VC_Govt",
								"label": "hash_of_reg_appl",
								"offset": 0,
								"slot": "1",
								"type": "t_bytes32"
							},
							{
								"astId": 9,
								"contract": "Updated Smart Contracts/SC_VC_Govt.sol:SC_VC_Govt",
								"label": "timestamp_hash_reg_appl",
								"offset": 0,
								"slot": "2",
								"type": "t_uint256"
							},
							{
								"astId": 11,
								"contract": "Updated Smart Contracts/SC_VC_Govt.sol:SC_VC_Govt",
								"label": "acceptance_of_reg_appl_hash",
								"offset": 0,
								"slot": "3",
								"type": "t_bool"
							},
							{
								"astId": 13,
								"contract": "Updated Smart Contracts/SC_VC_Govt.sol:SC_VC_Govt",
								"label": "timestamp_acceptance_reg_appl_hash",
								"offset": 0,
								"slot": "4",
								"type": "t_uint256"
							},
							{
								"astId": 15,
								"contract": "Updated Smart Contracts/SC_VC_Govt.sol:SC_VC_Govt",
								"label": "acceptance_of_reg_appl",
								"offset": 0,
								"slot": "5",
								"type": "t_bool"
							},
							{
								"astId": 17,
								"contract": "Updated Smart Contracts/SC_VC_Govt.sol:SC_VC_Govt",
								"label": "timestamp_acceptance_reg_appl",
								"offset": 0,
								"slot": "6",
								"type": "t_uint256"
							},
							{
								"astId": 19,
								"contract": "Updated Smart Contracts/SC_VC_Govt.sol:SC_VC_Govt",
								"label": "applID",
								"offset": 0,
								"slot": "7",
								"type": "t_uint256"
							}
						],
						"numberOfBytes": "256"
					},
					"t_struct(VaccineStock)51_storage": {
						"encoding": "inplace",
						"label": "struct SC_VC_Govt.VaccineStock",
						"members": [
							{
								"astId": 44,
								"contract": "Updated Smart Contracts/SC_VC_Govt.sol:SC_VC_Govt",
								"label": "stockID",
								"offset": 0,
								"slot": "0",
								"type": "t_uint256"
							},
							{
								"astId": 46,
								"contract": "Updated Smart Contracts/SC_VC_Govt.sol:SC_VC_Govt",
								"label": "timestamp_stock",
								"offset": 0,
								"slot": "1",
								"type": "t_uint256"
							},
							{
								"astId": 48,
								"contract": "Updated Smart Contracts/SC_VC_Govt.sol:SC_VC_Govt",
								"label": "no_of_vaccine_vials_supplied",
								"offset": 0,
								"slot": "2",
								"type": "t_uint256"
							},
							{
								"astId": 50,
								"contract": "Updated Smart Contracts/SC_VC_Govt.sol:SC_VC_Govt",
								"label": "stock_MR",
								"offset": 0,
								"slot": "3",
								"type": "t_bytes32"
							}
						],
						"numberOfBytes": "128"
					},
					"t_uint256": {
						"encoding": "inplace",
						"label": "uint256",
						"numberOfBytes": "32"
					}
				}
			},
			"userdoc": {
				"kind": "user",
				"methods": {},
				"version": 1
			}
		}
	}
}